:020000021000EC
:100000006FC0826800000000001801180028012855
:100010000228032800290129022903290429052986
:10002000062907290829002A012A022A032A042A64
:10003000052AA62ABCCE0300B81E0100200300201A
:100040009E030020A80200207A0200201002002057
:100050005C200100A0200100B42101002224010045
:1000600000250100021D0100D61B01008C1C0100AF
:10007000241C0100F82A010028050020322001007C
:10008000E62701002A6E0300227003009A70030025
:10009000D6200300E6200300E06902000E5B0200A8
:1000A000FA6703001C280100FA2A030050E101004E
:1000B000DEE1010036E2010080330100CC330100B3
:1000C00036320100449D0100FE970100E2A60100C6
:1000D000B2AA01005EAE0100208A0100BE890100C3
:1000E000A88D01006C8A010094890100188A010022
:1000F00046890100F08A0100488B0100F88A01005E
:10010000FC8A0100968B0100508B0100828B01005C
:10011000A4900100AC900100EC8A0100F48A010077
:10012000948B0100A8900100448C01001A920100F8
:10013000BCBC01003ABD010078BD0100A89F0100D0
:10014000C09F0100FC9F0100C0830100A484010046
:100150000C85010082520100244D0100C878010085
:10016000A24D0100F47301007CAB030094A30300D3
:100170009EA80300C0C0030086BF03000AC403009A
:10018000C2C3030002C40300B2C403007A92030096
:1001900042C40300C6B60300ECB6030014B7030064
:1001A00022C5030080BD030016BD030092C50300F5
:1001B000DC94030078950300A095030042950300AA
:1001C000D24B03003A360300C039030098370300CE
:1001D000E0410300A268030098670300AE920300A9
:1001E0007E2C0100FE210300DA2A0300D22B03003B
:1001F0002C5E0300D05E030098600300ACA30100F6
:10020000044B0300844203000034030068450300EC
:10021000EA350300540C0020C82203002EC403005A
:10022000C6C30300FEC30300FAC30300B2230100E8
:10023000FAA0010036C40300A84C0300764D030069
:10024000F04D0300FCA8030032C403003AC40300CD
:100250009A5A02003EC403005A110020EC170020F5
:10026000DCA8030082AA03000000000000000000D8
:10027000000000000000000000000000000000007E
:100280006373B60082801C419105110523AEF5FE13
:10029000C5BFB7270020372700209387079413078F
:1002A00007EF6373F700828023A007009107D5BF93
:1002B000411122C4B7C7004006C603A4C72023A625
:1002C00007200F10000011C199E5B7C7004023A611
:1002D0008720014545A893073500C207C183F19BDC
:1002E000C207C183130740036366F7023727002064
:1002F000032547AB372700208326C7AA6391A602B0
:10030000372700200327C7B369D3C207DD8D054512
:10031000029765BF37270020032507ABE1BF0357CE
:1003200065002DE7035745006362F706B7260020F6
:100330003306F74021489386C6AB6378C80283280A
:10034000050003D86600138687001D8F2A96611763
:100350002312E600232016012313060010C12312E6
:10036000F500130788FF2393E6002313B50083D518
:1003700066002105B387F5402393F600B7C7004018
:1003800023A68720B2402244410182800841BDB7A4
:10039000B7C7004003A8C72023A607200F100000FE
:1003A00001E523A607218280B727002003AE47ABD3
:1003B000B727002003A3C7AA8146F28763FC670A18
:1003C00083A80700636BF50A63E9A80A138787000F
:1003D0006362E50A03D66700216705076319E60033
:1003E000372600200347469D0507230AE69C37264B
:1003F00000201305C6AB83D5470003576500239340
:1004000007001306C6AB2E97420741832313E5006E
:100410006387C70337250020032505AB6301F50279
:1004200003D5660009ED83D7460023A016012107F6
:10043000BE95A1052392B6002313E600B687984324
:10044000630A6702B726002083A606AB6304D702BF
:100450008356670085E283D64700835547001843DB
:10046000A106AE962392D70098C383576600A107D2
:100470002313F600B7C700402DB7BE86C6873DBF21
:10048000B7C7004003A7C72023A607200F1000000E
:1004900001C599C1814711E6B7C7004023A6E720EF
:1004A0008280B386F50003C80600B306F500850711
:1004B00023800601E317F6FEC5B737C70040832740
:1004C000C720232607200F10000019C191C111E693
:1004D00037C700402326F7208280910503A7C5FF78
:1004E00011057D16232EE5FEDDB737C700408327B3
:1004F000C720232607200F10000001C53307C500C1
:1005000011E637C700402326F72082800505A30F98
:10051000B5FEE31DE5FEF5B7B7C7004083A6C720CB
:1005200023A607200F10000081473307F5000307BB
:10053000070019E737C700402326D7203E85828071
:100540008507E5B7011126CA4AC8B7C7004006CEDD
:1005500022CC83A4C7202A892E8623A607200F1029
:100560000000131506019305F004418132C689335A
:100570002A8401C53246CA8521372285F240624469
:10058000B7C7004023A697204249D2440561828024
:10059000B7C7004003A7C72023A607200F100000FD
:1005A00001C599C1814711EAB7C7004023A6E720DA
:1005B000054582808507E309F6FE3308F500B3861A
:1005C000F5000348080083C60600E305D8FEB7C758
:1005D000004023A6E72001458280B7C7004003A75B
:1005E000C72023A607200F1000009307F6FFBE9533
:1005F0002A966317C500B7C7004023A6E72082806C
:10060000FD1583C715000505A30FF5FEDDB737C738
:1006100000408327C720232607200F10000001C5B4
:100620003307C50019E637C700402326F7200145E8
:10063000828005058346F5FFE397B6FEE31BE5FEE2
:1006400037C700402326F72005458280797126D2DE
:10065000B724002022D403A484B006D64AD04ECEBC
:1006600052CC56CA5AC85EC662C44DC4372A00204E
:1006700037290020B7290020814BB72A002037CB2B
:10068000C901130ACAB01309C9AB938949B5835785
:10069000240099EF5C44639A0B0023A4F4B0032C6C
:1006A000C4002285F531628499A823A6FB00C5BF4A
:1006B00083A70AB082971C443307F5406376F500A0
:1006C00003A749001D8F2A979306FB3763E8E606C8
:1006D000232809008355240003450400972001E0E6
:1006E000E78000BF5C405844B1C31444B69783A66A
:1006F000490063E3D700958F1CC4A28B3A8441F86C
:10070000B72700209387C7AB984B854663FCE60468
:100710007D1798CBB250225492540259F249624A42
:10072000D24A424BB24B224C4561828063950B000A
:1007300023A4E4B0ADB723A6EB0095B703274A0284
:1007400019CB63EDA7003385A740832709016374A4
:10075000F5002328A900A28B404455B703A7490000
:10076000BA97D5B723A8070075B7B727002003A706
:10077000C7B4411122C406C63E8411C30297B727ED
:10078000002083C7E7AF93F7F70F99E3232604B45C
:10079000B24022444101828001114AC83729002019
:1007A000832789AE06CE22CC26CA4EC652C456C274
:1007B0005AC081C78297232409AE930789AEDC43D0
:1007C000B7240020938484AE91C38297832789AE97
:1007D0006394071A37240020930704E283C7770045
:1007E0001547130404E26309F718372A002093071A
:1007F0004AB583C7C700130A4AB585E38347540047
:10080000858B81CF8347740019476312F70EA302CB
:100810000400EF00D04ADC4482979C4491C3829745
:10082000B7240020B72900209387C4AB03A749B0A1
:1008300003C61700938AC4AB83C7C4AB9396170053
:10084000BA9683D60600DDCE83C7C4AB63E4C70C7B
:10085000832789AE238E04AA63900712834774000E
:100860001547630BF7108347940081CF83477400CB
:1008700093F7F70F99E7A3040400972003E0E780BC
:100880004000B727002083A707B0FDC783274A0091
:1008900023A8FA00653BB727002083A707B3E9CF59
:1008A0008347740015476369F70CB72700209387C7
:1008B00007E683C7C700918BE1E3B727002083C712
:1008C000E7AF93F7F70FCDEB83C61A0003A649B045
:1008D00063CED70A6244F240D2444249B249224A26
:1008E000924A024B0561172301E0670063F08347DA
:1008F00074001D47E313F7F2A3020400EF00303C3D
:100900009C4819BF850793F7F70F238EF4AAE3E5F8
:10091000C7F21DBF86073E978355070023100700C7
:1009200003C5C4ABB727002083A747AE1317250024
:10093000372B0020BA979C43231E0BAE8297835718
:10094000CBAF03C7C4AB93C7F7FF7D8D93171700D9
:1009500003A749B03E97835707005D8D2310A7007A
:1009600083C7C4AB81C78507238EF4AA03C7C4AB72
:1009700083C71A00E37EF7ECF2406244D244424956
:10098000B249224A924A024B0561828013971700AE
:100990003297035707006DF385071DBF37C7004027
:1009A0008326C720B707FCFFFD17F58F2326F72006
:1009B0000F100000B72700209387C7ABC84F8327CD
:1009C00087262326D7206A0593C7F7FF99835D8D75
:1009D00082800327851163000712411122C406C6D5
:1009E0008347C5008345E5042A8493F7C70F230690
:1009F000F500834697000356C7001395860161856D
:100A000063F1C508635A05060345870093F6F607A8
:100A1000A304D700054693E627006314C50093E6B8
:100A200017002306D4005C4389075CC3A30AB40003
:100A3000032504112E864C4309059934832784111C
:100A400003465401D44303D7C700B296118FD4C3D1
:100A50002396E7008947A30DF400B727002003473A
:100A6000640383C7E7B16378F7048347C40093E75F
:100A700007012306F40081A093E717002306F40082
:100A800075B79376F60F635D0502034587008545CC
:100A900013E627006314B50013E617002306C4000D
:100AA000A30AD400A30407008547A30DF4008327FD
:100AB00084119C43DDF3B240224401454101828010
:100AC00093E717002306F400A30AD400A304070049
:100AD000032504114C43090565328327841103461D
:100AE0005401D44303D7C700B296118FD4C32396C1
:100AF000E7008D475DBF05458280B727002083A7AB
:100B000047DF411122C406C6858B2A84DDEB41658F
:100B1000130525F5977002E0E78020725DC18347D9
:100B2000A5002315F50083270412B5E72320A4129E
:100B30002322A41285472311F404232005008347B0
:100B4000640154412316F5000347D4002304E50053
:100B50000547A304E50037270020032787E3138513
:100B6000170215811C437D151375F50F9CC25C435C
:100B7000DCC21C479CC65C47DCC61C4B9CCA5C4B59
:100B8000DCCA1C4F9CCE5C4FDCCE19CD938606028E
:100B900013070702C1BF8327441288C38357240465
:100BA0002322A412850741BFB7270020938707CDD2
:100BB00003D7870005072394E700B2402244410190
:100BC00082808347C40023090400054593C747007A
:100BD0002306F400DDB78347850193F7E70FDDEBCC
:100BE00083479501C5EB034625018346C50009CA25
:100BF00037270020834565030347F7B163E7E50026
:100C000013F7060149CB014709C6C18A0357651C82
:100C100081C68356A51C36973DCFB727002003D544
:100C2000C7B51307C71237460F00B335A7024111E6
:100C300013060624814622C426C206C67D54330507
:100C4000A70297C003E0E78020D5B727002083C71D
:100C500037B2B384A700B727002003A707D683279E
:100C6000070963F387003E84184375FBB72700200C
:100C700083A707B0829781476364A400B307A440A9
:100C8000B2402244B3B7970093C7170092443E8501
:100C90004101828081473E858280B727002003A7DB
:100CA000C7E33C5BFDFF828001114AC83729002061
:100CB000930709CD22CC03A4870906CE26CA4EC6C7
:100CC00052C4630C041A83570404A30F04001309CD
:100CD00009CD85072310F404834704142285638615
:100CE000071AC9242285976002E0E7806011631625
:100CF0000518B7290020938649B503D58600835788
:100D0000640837470F001306F723B387A7021307BA
:100D1000072483240409230B040203AA46009389B1
:100D200049B5B297B3D7E70263E3F416B387F4404B
:100D30002324F4088327C408BE9463E44401B384E5
:100D400044418357040223289408B1C783560404FE
:100D50000357440237460F002312D4023387E6407C
:100D6000B387E70203572402130606248146814510
:100D7000BA97C207C1833385A7022311F40297C033
:100D800003E0E78060C101C9AA9463E44401B3842D
:100D9000444123289408372A002083270AB08297E9
:100DA000AA8483270AB08297E30D95FE83270AB0B1
:100DB00083248408829763E1A40E3385A44075C917
:100DC0008327C4086377F50EB7440F009384042487
:100DD000B335950203DA890003592402814652860D
:100DE0003305950297C003E0E78000BBB309A90073
:100DF0003305490337460F00130606248146814513
:100E000097C003E0E78040B915C1B3379502528619
:100E10008146B385B4023385A402BE9597C003E032
:100E2000E78080B73305A9402311A4022945972004
:100E300003E0E78000B70347B40085476312F70675
:100E4000930700FD2307F400B727002003A5C7E0A0
:100E5000972001E0E78060ACB7270020938707E286
:100E60001547A383E700B727002083A7C7E3370709
:100E70001000860998C723A83707F2406244D2447D
:100E80004249B249224A056182809528A1BD338733
:100E90004401B307F74069BD83A74900BE9431BF41
:100EA000930710FC2307F400B727002003A547E0B1
:100EB00045B7232C0908B7E700E03707001023A047
:100EC000E72065BFB727002083C707B69DC3B727B4
:100ED000002083A787D685C3B7270020238F07AEBE
:100EE000B727002083A7C7E337071000D8C70547F7
:100EF000B8DB05458280177302E06700C3AA7971E9
:100F000026D206D622D44AD04ECE52CC56CA5AC881
:100F10005EC68347550303447513AA843E94137435
:100F2000F40F9307400263F687001304B4FD1374B3
:100F3000F40F03AA841383AAC413A38B84122286FA
:100F40005285D68597C003E0E780809F058915E527
:100F500003CBD41201498149337B6403930B5002C4
:100F60004A865285D68597C003E0E780609D058953
:100F700015C5639169031374F90F238B8412B25062
:100F8000225492540259F249624AD24A424BB24B1D
:100F9000456182808509E20993D989410509E311F8
:100FA00079FDE1BF8327850903560504797193D63E
:100FB0000701BD8EC206C182358E13577640935706
:100FC0005640898B058B5D8F93573640918B5D8F93
:100FD00093571640A18B5D8F93171600C18B5D8FC1
:100FE0009317360093F707025D8F931756009355BA
:100FF000860093F707041E065D8F1376F60F518F58
:1010000093D7554013D63540118A898BD18F13D68B
:101010007540D18F13D61540218AD18F13961500B4
:10102000418AD18F1396350013760602D18F13961D
:101030005500137606049E05D18F93F5F50FCD8FDD
:10104000A20745465D8F3307C70222D42A8426D2E1
:1010500052CC56CA032A8413832AC4135AC806D60C
:101060003697420741839357774013555740098974
:10107000858BC98F135537401189C98F1355174078
:101080002189C98F131517004189C98F131537009E
:1010900013750502C98F13155700935587001375F3
:1010A00005041E07C98F1377F70FD98F13D5354065
:1010B00013D755401189098B498F13D57540498F36
:1010C00013D515402189498F139515004189498F02
:1010D0001395350013750502498F13955500137547
:1010E00005049E05498F93F5F50F4D8F2207D98F83
:1010F000B387C7024AD04ECE5EC662C4B697C20757
:10110000C18313D7774013D557400989058B498F81
:1011100013D537401189498F13D517402189498F3D
:10112000139517004189498F1395370013750502F0
:10113000498F1395570093D58700137505049E07B3
:10114000498F93F7F70FD98F13D5354013D75540F3
:101150001189098B498F13D57540498F13D51540D7
:101160002189498F139515004189498F13953500C1
:1011700013750502498F13955500137505049E05D7
:10118000498F93F5F50F4D8F2207D98FB387C7028B
:10119000130650025285D685B697BD8E93940601EC
:1011A000C18033F6C402137BF60F97B003E0E780EB
:1011B000207905890DED8347D41201498149B38413
:1011C0009702130C5002C1804A865285D68597B08B
:1011D00003E0E780E0760589937BF90F11C563860C
:1011E0003403850993F9F90F0509E31F89FD230BE2
:1011F0006413B250225492540259F249624AD24ABC
:10120000424BB24B224C456182805E8BCDB70111BF
:10121000B727002022CC03A407D926CA4AC84EC645
:1012200006CEAA8413092500854915C083C714007A
:1012300003473400858B6304F700405CFDB7194613
:10124000930544004A85EFF0AFB4E31835FF2285DB
:10125000F2406244D2444249B24905618280411160
:10126000B727002022C403A407D926C24AC006C655
:1012700093042500054901E82285B24022449244A6
:10128000024941018280A6851305A40297D002E09D
:10129000E78000B1E30225FF405CF1BF4111B727B1
:1012A000002022C403A407D926C24AC006C693045C
:1012B0002500054901E82285B240224492440249B2
:1012C00041018280A6851305A40197D002E0E78042
:1012D00020ADE30225FF405CF1BF011122CC60414B
:1012E00026CA4AC84EC652C406CEAA841D4A13094D
:1012F00065058549BC446364F400054581A803C7BE
:10130000D40083474400631B470503C7840263047A
:10131000F7000040C5B70347540083C75405E31ADC
:10132000F7FE1946CA8513056400EFF06FA6E312B5
:1013300035FF0347C40083C79402E31CF7FC03573F
:10134000E40083D7A402E316F7FC0145F2406244AF
:10135000D2444249B249224A05618280E31BF7FA2E
:101360000347540083C75405E315F7FA1946CA85A5
:1013700013056400EFF0CFA1E31D35F9F9B70111B2
:10138000B727002022CC03A487D826CA06CE2AC4B9
:101390002EC6854419E40145F2406244D2440561F9
:1013A00082808347910003471400858B6304F70014
:1013B0000044CDB719469305A10013052400EFF0B2
:1013C0002F9DE31795FE0545C1BFB726002003A753
:1013D00046E101114AC81C5F4EC606CE998322CC55
:1013E00026CA858B3689B7290020ADCF9307000622
:1013F000372400201CDF930704E283C7670013072C
:101400000008930404E26319F70083A709E19C43F1
:1014100093F707042383F400834704E293F7070458
:1014200089CFB727002083A707B0829788C8834752
:1014300004E293F7F70B2300F4E283C7440093F729
:1014400007048DE38547A382F400B727002083A714
:10145000C7E33707020098C7130700FC2382E400A4
:10146000D844F8D3032749E11C5F9183858B95C34A
:101470001C5F93E707011CDFB727002083A7C7E3A2
:10148000054723A20706B7270020938707E2238298
:10149000E70083A709E1D8430583058B19C7D84323
:1014A000759BD8C3D843799BD8C3F2406244D244D9
:1014B0004249B24905618280093F73002030B72755
:1014C0000020B726002003A6C7E3938706E203C7E0
:1014D00006E2058B11C723820700A38207008280E2
:1014E00003C71700058B65FB785275F303C75700D8
:1014F000EDB737270020032847E18327880395832A
:10150000858BC1E311C683270803BD832300F60042
:1015100085CA832747E1985B46079357670163565F
:10152000070093E707C0C207C18303970600C207FD
:10153000C18709C7BA970947B3C7E7022390F600E6
:101540009DCD8345150085CDB7270020938707E201
:1015500083C7670013879500894593F7070485C300
:101560003A95834705000547994593F6F706639832
:10157000E600E207E187814563D30700B9452E8580
:1015800082808545EDBF411122C406C63724002064
:1015900026C20327C4E359E5AE877453FDFEB72482
:1015A0000020938404E23E85B285238104009710D5
:1015B00003E0E780E014B727002083A747E1B706E0
:1015C00080009843558F98C3D857719BD8D78327ED
:1015D000C4E3A3820400A3800400094798C3B7F7BB
:1015E00000E003A707D16D9B23A8E7D003A707D18D
:1015F0005D9B23A8E7D0730050108326C4E3B72770
:101600000020938707E203C72700058B19E703C76C
:101610003700058B41C323820700B2402244924425
:10162000410182808D47631FF500B727002083A703
:1016300047E1B70680009843558F98C3D857719BF0
:10164000D8D765BF8547E31AF5FA54478177FD1768
:10165000F58F5CC70F1000000327C4E3B707020033
:10166000130600F81CC7B7270020938707E22382E0
:10167000C700B727002083A747E19C439D83858B44
:101680006397A700930760197CD354C7BDB793072E
:10169000E01BDDBFF85225FB49B7411122C43724B6
:1016A00000208327C4E306C6D8479316D70063D328
:1016B000060298479316D70063DE06007D57B8D719
:1016C000372700201307C7AB544F850654CF370781
:1016D000040098C798470D83058B0DC3372700205A
:1016E000130707E28346270093E616002301D7007D
:1016F000930600F82302D700214798C79847058B27
:1017000009CF37270020130707E28346170093E627
:101710001600A300D700054798C798470983058B93
:1017200009E798470583058B05CF372600209306E8
:1017300006E2A382060098470983058B75CB034711
:1017400006E2136717002300E6E2114798C7372720
:101750000020832647E1D856719B13671700D8D61F
:1017600098479316F70063D40602372700209306A4
:1017700007CD03C64607130707CD418A71C203C7C9
:10178000460713670702238AE606416798C798470A
:101790009316E70063D2060237270020130707E2FB
:1017A00083464700E206E18663D5060085462302AC
:1017B000D7003707020098C798479316C70063D32E
:1017C000060237270020130707CD83465707858A6F
:1017D000C1CA8346570793E62600A30AD7063707F0
:1017E000080098C798479316B70063DF06023707CB
:1017F000100098C7B727002083C707B695C7B7273B
:101800000020938707E283C777001547630EF70030
:10181000B727002083A7C7DF91C382970327C4E3BC
:10182000B7071F00BD075CC7B24022444101828058
:1018300003C7360013671700A381E600094739B7CD
:10184000834647070946BD8A6388C6008346470723
:101850000D46BD8AE39BC6F29146230AD70635B7EB
:1018600083465707918AA5DE8346570793E686008D
:10187000ADB737270020B7260020138606E41307EC
:1018800007E68347D7008345B601484AAE97FD8BEC
:10189000B355F500A300F600A306F700858995E986
:1018A00003471701814613080002B3F7E702014717
:1018B000B355E50085899378F70F89C96395D700FB
:1018C000A30016018280850693F6F60F0507E31143
:1018D00007FF8280B7270020938707E283C757005E
:1018E00093F7F70FD1EBB727002083A707B041117B
:1018F00022C44AC006C626C2829737290020930711
:1019000009E68047130909E66302A40663688504B3
:10191000018DB7240020938704E483C7A7011354E3
:101920005500938404E46363F404A13783C7A401DE
:10193000032789009396570036971D8C2324E900CE
:10194000E375F4FE224403C51400B24092440249F8
:1019500081454101171303E06700636AB727002040
:1019600083A787B533848740229565B7B240224468
:1019700092440249410182808280B727002083A7D8
:1019800007B0011122CC26CA52C406CE4AC84EC6A0
:101990008297B7240020938704E68047014A630CAE
:1019A000A404938404E663618506018D3727002033
:1019B000930707E483C7A70113545500137AF50171
:1019C000130907E46366F402B7290020938949B537
:1019D0004D358346A9019C4403A649001397560040
:1019E0003E97158C6363C700118F98C4E372D4FED1
:1019F0001604336A4401F24062445285D24442499B
:101A0000B249224A05618280B727002083A787B5A3
:101A100033848740229559BFB727002003A7C7E327
:101A20008967938707F47CD3B727002083A707E94A
:101A300083A60709139656006358060083A6070974
:101A400013966600634406007453FDF28280000022
:101A5000EFE0BFD17300000000000000970200001B
:101A6000938222310383020023800200630F03006C
:101A7000F32510342EC0970500009385A5FD7390C3
:101A80001534EFF09FC17300203086DCEFF0FFC00B
:081A9000E65082800000000016
:101A9800B72700203727002083A747AB0327C7AA0B
:101AA80001456313F700828083D6670081E683D6F9
:101AB800470036959C43F5B7B727002083A5C7B0E4
:101AC800372700209387C7B013860522232AC7AA81
:101AD80003D74700938785FFB72600204111BA979F
:101AE800056523A6F6AA06C61D0593563700637436
:101AF800E500930600203307D60037250020232869
:101B0800E5AA23A0E522E1162312D6002313060036
:101B18001CC3998FE1172312F700231307008D3F89
:101B2800B240B72700202391A7AC41018280B72794
:101B380000203727002083A747AB8326C7AA014583
:101B48006393F600828003D7670011E703D7470045
:101B58006373E5003A859C43E5B7B7270020B726AD
:101B6800002083A747AB03A6C6AA2A87B305B540BA
:101B78006314F6003A8529A8938687009C43E36995
:101B8800D7FEE377F7FE2E85E3E4D5FEE3F2F5FE14
:101B9800828023AC05FE1C4191E7010001000CC1C5
:101BA8008280BA8703A787FF6DFF23ACB7FE8280C8
:101BB800184183A785FF6319B7001CC1FD5723ACE3
:101BC80005FE238FF5FE8280232CF6FEC5BF41114A
:101BD80022C426C237C4004006C68324C420232654
:101BE80004200F10000009E9232694201545B2406F
:101BF80022449244410182800347E5FF9307F00F96
:101C08006306F700232694201145D5B797E0FE1FF9
:101C1800E780C050014523269420D1BF411126C238
:101C28004AC0B7C4004006C622C403A9C42023A6DC
:101C380004200F10000009E923A62421B240224401
:101C480092440249410182809565938505D0C98DEA
:101C58002A842105C2054205C181418197E0FE1F02
:101C6800E780C03D01CDFD572320050023128500E4
:101C78002303F50023A624212105C9B723A624217F
:101C880001456DBF01114AC84EC6B7C7004006CE10
:101C980022CC26CA83A9C7202A8923A607200F1089
:101CA800000037250020032485AB8144014611E458
:101CB80091E8A1654A85952731A88347E4FF639792
:101CC800270395C8A685130585ABDD357DD0A165AD
:101CD8004A854926F2406244B7C7004023A6372107
:101CE80026854249D244B2490561828091E0228624
:101CF800032484FF6DBFA284E5BF411126C24AC0F8
:101D0800B7C4004006C622C403A9C42023A60420E1
:101D18000F10000089E523A62421154515A0B72733
:101D2800002083C7D7AB2A842E856375F4008947C2
:101D380063EE8700693DB7C7004023A627210D45FC
:101D4800B2402244924402494101828083A785FF20
:101D580099E703C7E5FF9307F00F6308F700853D90
:101D6800B7C7004023A627214DBF37250020238F62
:101D780085FE130585AB313DA1652285E12C014522
:101D880023A6242175BFB727002023AC07AA828089
:101D9800B727002083A787B099E33E85828003D7C1
:101DA80027006316B70003C70700E308A7FEDC4750
:101DB800E5B7BDCD797122D406D626D24AD04ECE0B
:101DC80001444147B3D78540858BB1CF12053147D0
:101DD80022953305E502B727002003A987B4854477
:101DE800B3948400C204C180BE892A9903270900DC
:101DF80011C7032549002EC60297B245314733045F
:101E0800E40283A789B43E941C4489E7232009008F
:101E180023220900B2502254A58D02599254F24946
:101E28002E85456182800504E31EE4F88144DDB710
:101E38002E85828041111397050122C406C626C249
:101E48004AC041872E84635E07002D3D11C141338E
:101E5800A1673D8C2285B240224492440249410147
:101E68008280EDD9AA8701474146B356E440858A66
:101E78009DCA9207BA97B146B387D702B726002002
:101E880003A986B48544B394E400C204C1803E9992
:101E9800832709000325490082972320090023226C
:101EA8000900258C45BF0507E311C7FC8144D5BF50
:101EB800411126C2B7C7004006C622C483A4C72062
:101EC80023A607200F100000B727002083A7C7B25A
:101ED800372400201304049191C782971C403E9533
:101EE80008C031A0B727002083A707B0FDF71C4022
:101EF800374703001307D73FB387E70237A7260002
:101F0800130737ECB240BA971CC0B7C7004023A6E6
:101F1800972008402244924441018280797126D258
:101F2800B7C7004006D622D44AD04ECE52CC56CAA5
:101F38005AC85EC662C483A4C72023A607200F1010
:101F4800000005E123A697200945B2502254925477
:101F58000259F249624AD24A424BB24B224C45617D
:101F68008280B727002083A707B0BA8A368AB28B47
:101F78002E8BAA898297B727002003A787B43E89AA
:101F88000144B146C147330CD402330687011042DD
:101F980041E6C165938505F0414597E0FE1FE7805E
:101FA800E00919EDB727002083A7C7B381C781458A
:101FB80011458297B7C7004023A697202D4571B7D2
:101FC800B727002003A787B021E723A4A7B02300E1
:101FD8000500832789B405473317870023260500A2
:101FE800232475012311E50023225501E29723A03C
:101FF800370123A2670123A4570163040A002300C1
:102008008A00B7C7004023A6972001453DBF3E87F9
:102018005C47F5FF48C765BF0504E316F4F6B7C784
:10202800004023A6972021450DB7B727002083A796
:1020380007B5411122C406C6372400201304C4ABD7
:1020480089C782975C483E9548C84848B2402244B0
:1020580041018280B7C7004083A6C72023A6072076
:102068000F100000372700200347D7AB6372E50243
:102078003726002013171500032546B03A95035755
:102088000500D98D2310B50023A6D72001458280ED
:1020980023A6D7200D458280B7C7004083A6C72056
:1020A80023A607200F100000372700200347D7ABCF
:1020B8006374E5023726002013171500032546B080
:1020C80093C5F5FF3A9503570500F98D2310B50020
:1020D80023A6D7200145828023A6D7200D458280DC
:1020E80001114AC837C7004006CE22CC26CA4EC6C0
:1020F80052C40329C720232607200F100000130706
:1021080005FF1377F70FFD4763ECE708B146B30601
:10211800D502B727002003A787B436971C43C9C345
:102128009354450005443D893315A4001314050153
:102138004180AE892685A285A1392A8A29C5A2852A
:102148002685993FB727002083A707B0B72400202A
:10215800938444B5829783D784002A841306006445
:10216800B38537038146B3B7370313850532B335D3
:10217800B500BE95EFA0825ADC4022956363F50056
:102188001D8D2324AA00B7C7004023A62721014597
:10219800F2406244D2444249B249224A05618280EF
:1021A800B7C7004023A627210945DDB7797126D294
:1021B80052CCB7C4004006D622D44AD04ECE56CA16
:1021C8005AC85EC603AAC42023A604200F10000024
:1021D800B727002083C7D7AB6378F500B72700205F
:1021E80083AB07B063970B00B7C7004023A647210E
:1021F80099A037290020130949B5AE8A032B490055
:1022080083558900B74736FE938707C83E9BB38737
:10221800C5022A84B2898146B3B5C502138507323F
:10222800B337F50013060064BE95EFA0224F637024
:10223800AB0223A644210145B250225492540259BC
:10224800F249624AD24A424BB24B45618280829B34
:1022580083558900AA8413060064B3873503814631
:10226800B3B5350313850732B337F500BE95EFA034
:10227800E24A83274900AA9463E3F4009D8CD6853B
:102288002285393601C904C5B7C7004023A64721AE
:1022980005455DB7936504F0C205C181414597E0E6
:1022A800FE1FE780A0D911E9B727002083A7C7B38D
:1022B80085DFA2851145829705BF37270020832730
:1022C80087B08DE32324A7B085472326050004C5DE
:1022D8002311550123008500A300F50023220500E2
:1022E80065B7BA87D84775FFC8C7F9BF79714ECEA9
:1022F800B7C7004006D622D426D24AD052CC56CAF6
:102308005AC85EC662C466C26AC083A9C72023A62B
:1023180007200F10000025C141443689B28A2E8A51
:10232800AA84B14C372B0020054D130C0003B30BC6
:10233800940303278BB45E971C43B9EF9375F4009D
:10234800B315BD0013554440C2055686C1811375A7
:10235800F50FA93D31C183278BB4DE9784C323A22F
:1023680047016304090023008900B7C7004023A67A
:102378003721014521A023A637210945B25022540F
:1023880092540259F249624AD24A424BB24B224C09
:10239800924C024D456182800504E31A84F9B7C75F
:1023A800004023A637212145D1BF011122CC26CADE
:1023B8004AC84EC6B7C7004006CE03A9C7202A841C
:1023C800AE89B28423A607200F100000C5332285EA
:1023D800CE857D3A2A8405C5B727002083D5C7B5A1
:1023E800130600648146B3879502B3B59502138539
:1023F8000732B337F500BE95EFA0423248C0133517
:102408001400F2406244B7C7004023A62721D244F3
:102418004249B2490E0505618280011122CC4AC8A1
:102428004EC6B7C7004006CE26CA83A9C7202A8948
:102438002E8423A607200F100000993AAA8419C1F8
:1024480023110500A2854A858139B727002083C753
:10245800C7AB63992701B727002003D7C7AF598CAB
:10246800239E87AEB7C7004023A63721014591E0D8
:102478001945F2406244D2444249B249056182801A
:10248800011126CA4AC8B7C4004006CE22CC4EC69F
:1024980003A9C42023A604200F1000009307F0020C
:1024A80063E6A704B1473304F502B729002083A7E0
:1024B80089B4A2979C439DCB9377F5008545B39546
:1024C800F500C205C1811181893F83A789B40145FF
:1024D800A29723A0070023A2070023A62421F240E5
:1024E8006244D2444249B24905618280B7C700407C
:1024F80023A627210945E5B7411126C206C622C4ED
:10250800B7C7004083A4C72023A607200F100000E8
:10251800EFF01F8819E90145B2402244B7C70040CF
:1025280023A69720924441018280B727002083A7E1
:1025380007B000458297B7270020938747B563689F
:10254800A402D843B74636FE938606C83305A4408E
:102558003697E372E5FC13070064B335E50203D64A
:10256800870081463305E502EFA0421B75B7D843C3
:102578003A94C1BF0111680006CE22CC26CAEF40AA
:10258800612AFD576302F504B247E1CBB727002063
:10259800B72400209384C4AB138747B594485843A5
:1025A800138447B5638DE604B727002083A707B0D7
:1025B800829732479C486373F700BA873E955C4020
:1025C800636FF5021D8D25A8B7240020372400204D
:1025D8009384C4AB130444B594485840B7270020EB
:1025E80083A707B06390E60882975840B74736FE3E
:1025F800938707C8BA973E956363E500198D37241A
:102608000020930704E29C4F130404E299CBB727F8
:10261800002083A607E93707CDFF7D179C46F98F71
:102628009CC609E5B727002003A587B5B727002072
:1026380083A707B3829719E51C4C85C3EF00426F47
:10264800EFF0913C1C4C91CBB727002003A707E97A
:10265800B70633001C47D58F1CC7F2406244D244EA
:102668000561828082979C4891BF4111B72700205D
:1026780006C623A8A7B40295B240B727002023AA0C
:10268800A7AC014541018280914763E9B700B727AC
:1026980000208A05938787AEBE9588C18280B727B8
:1026A800002023A6A7B411C5B72700200547238F0C
:1026B800E7AE8280B727002023A407B0B727002001
:1026C80023A807B4B727002023A007B03725002088
:1026D800B72700204111238F07AE5146B7270020A6
:1026E8008145130585AE06C623A607B422C426C2B3
:1026F8003724002097E0FE1FE780E0B71305C4AB3E
:1027080013068002814597E0FE1FE780C0B6EFF010
:10271800AFBAB727002083C717B21304C4AB8545E7
:1027280013D527008D8B3E958D473305F5029947C4
:10273800B724002039051375F50F2301A4003305CC
:10274800F5021305052497E0FE1FE780208F23A4D8
:10275800A4B449C103462400994781453306F602CB
:102768001306062497E0FE1FE780E0B083A784B431
:1027780003472400B7240020938707240A0723A2CD
:10278800F4AEBA97372700202322F7B0EFF0AFDF77
:102798003D298347140083A644AE372601001397CA
:1027A800270036971306A6DB10C313871700137785
:1027B800F70F0A073726010036971306C6E310C33A
:1027C80013873700890793F7F70F8A07A300E400F8
:1027D800B69790C3B2402244924441018280372781
:1027E80000201307C7AB834717008346270063F011
:1027F800D702B726002083A646AE13861700A3008B
:10280800C70013972700369708C33E858280930731
:10281800F00FE5BF1C41FDCB41777D8FB706002047
:1028280089476316D70E0357450075C3411126C261
:102838001946AA849305F00F610506C622C497E0DD
:10284800FE1FE78080B505478D47630BE50A9C446A
:1028580091C7D85899474DC7985C5DC33724002065
:102868001306C00381451305C4B097E0FE1FE78037
:1028780080A01306C003A6851305C4B097E0FE1F09
:10288800E780C0989307C4B003D7C70009E71307C8
:1028980000102396E70003C7E70001E705472387F1
:1028A800E70003D7070101E76D472398E70003C74F
:1028B800F70001E71547A387E70003C7270101E7EA
:1028C80005472389E70003C7370109E703C7F7006E
:1028D800A389E70003C7470101E75547238AE700B3
:1028E80003C7640109E71307C003238BE7009C575C
:1028F80091C78297B72700202392A7AC653B8147F1
:10290800B240224492443E854101828089473E85F7
:10291800828001114AC837290020832749B506CE8D
:1029280022CC26CA52C456C24EC68297130A0064E5
:10293800B3354503130949B5835A8900814656863C
:1029480033054503EF90925DB72700201387C7AB87
:10295800004FAA840145630694029389C7AB338567
:102968008440636E94000325490056868146B3353A
:10297800AA023305AA02EF90725A018D269523AC5C
:102988009900F2406244D2444249B249224A924AEA
:1029980005618280011122CC2E84B7D503000A85F7
:1029A8004146938545B706CEEFA0C2101808060425
:1029B8003A94B7270020035504FF83D7E7B5F240C0
:1029C8006244AA9737450F00130505243355F502CD
:1029D80005618280B727002083D7E7B551471D4599
:1029E800637CF702794719456378F70213072003D8
:1029F80015456373F7021307B0041145637EF700AA
:102A0800130740060D456379F70013076009094568
:102A18006374F70013B5B70F8280011122CC06CE7C
:102A28002A842EC6EFF0CFC8B245F240818D33A577
:102A3800A502229562441375F50F05618280011184
:102A480022CC06CE2A842EC6EFF08FC6B245F240BD
:102A5800818D33A5A5022295624442054181056115
:102A68008280011122CC06CE2A842EC6EFF04FC4F4
:102A7800B245F240818D33B5A502229562440561C5
:102A88008280B72700201387C7B018572DC341117C
:102A980022C426C24AC006C61389C7B00297B72700
:102AA80000201387C7AB035787002A849384C7ABDA
:102AB8000DCBBA876373A700AA87C207C183BA86FA
:102AC8006373E400A286C206C182958F5147635A98
:102AD800F7008327C90291C38297EF00020F23945E
:102AE8008400B2402244924402494101828082809B
:102AF800011122CC3724002006CE26CA4AC89307E3
:102B080044B583C7C70081CB0545F2406244D2442F
:102B1800424905618280B72400209387C4B0DC57FE
:102B2800130944B5AA859384C4B081C72AC682977D
:102B3800B245B5C19C41E9DBDC41F9D783D78500B3
:102B4800E1D783D7A500E9D34146130544B597D00B
:102B5800FE1FE780A06B032744B5B727002023A0FA
:102B6800E7B083C774018DE3035589009307805745
:102B780037460F003305F5021306062481468145C2
:102B8800EF90D239A38BA400373501001305A59126
:102B9800E93C01459DBFB72700209387C7AB23AE0B
:102BA8000700B70700209387C772232AF4B4B787B2
:102BB80032007D57938727A12324F9002322E900B7
:102BC80023060900B7C7004023A4E72669B7011107
:102BD80022CC372400209307C4B0884706CE26CAE3
:102BE8004AC801E90545F2406244D24442490561B8
:102BF80082801304C4B05C58F5D7185C65D77000A0
:102C0800854582971844B247E30EF7FC0355C40084
:102C18009305E004B724002097D0FE1FE780004208
:102C28001387C4AB08D39384C4AB4DDD0356C400EB
:102C38009305F00F014997D0FE1FE780C0638347D3
:102C4800E4009050634DF900328597D0FE1FE7806D
:102C5800E04C014523A0040223A2040269B783556E
:102C6800C4000844185CB3872503898105093E958B
:102C780008C20297E9B701114EC6B7290020938709
:102C8800C9B09C4726CA4AC852C406CE22CC56C2EE
:102C98005AC02A8AAE843289638D071E9389C9B0C7
:102CA80003A74903630407121307F01F6362A712FF
:102CB800372400201307C4AB832A07021304C4ABCC
:102CC800639A0A0803D5C9009565938515E097D0DE
:102CD800FE1FE780A03608D02A866DC983D5C900B3
:102CE80083A7490303A589008981829783A789005F
:102CF800832A04025CD089476316FA08C1476397A0
:102D0800F40C83D5C9009147938505FCB3C5F5023A
:102D18008A05D69503C725009307A0056314F70A0B
:102D280083D705006390470B4A852686910597D07F
:102D3800FE1FE780A04D1C5056856393571301452D
:102D4800F2406244D2444249B249224A924A024B72
:102D5800056182805850E380E7FA03D5C90095657C
:102D6800938525E097D0FE1FE780402DAA8A39CDAC
:102D780083D5C9002A8683A7490303A589008981C9
:102D8800829795BF8D47631BFA00C1476390F4048F
:102D980083D5C900938545FDF199A5BF914763186F
:102DA800FA006395440383D5C900A115F5B79307C5
:102DB8000010631DFA00A14763EA970083D5C90094
:102DC800C115D9BF1C5056856390570D29458DBF35
:102DD8009D6A637C5509930A05E01947B3CAEA025C
:102DE80003D7C900372B0020B38AEA02BE9A93079B
:102DF800CBABDC53130BCBAB6395570103240B020E
:102E08001DE003D5C9009305E00497D0FE1FE780B5
:102E1800E0222A8445DD83D5C90083A749032A8691
:102E280089815685829791451307A00589819397D3
:102E38002500A29783C627006393E60483D607007C
:102E4800639C460385058A052686A2954A8597D000
:102E5800FE1FE780A03B83270B02E38287EE2285D3
:102E680097D0FE1FE780802BD9BD21677917E36FC4
:102E7800A7F4B30A5541ADB783C5370045BF8327CB
:102E88000B02E38587F4228597D0FE1FE78000298F
:102E980035BFB727002083A5C7AD8DD991479306C5
:102EA800A0058983139727002E9703462700E31F61
:102EB800D6F003560700631C460185078A07268655
:102EC800BE954A8597D0FE1FE78040348DBD834765
:102ED8003700C1BFB72700209387C7B0984729C3D9
:102EE800985F1DCF8546631DD502411122C4372442
:102EF80000201304C4AB105006C619CE83D5C700F2
:102F0800485089810297085097D0FE1FE78000211A
:102F18002320040223220402B24022444101828079
:102F28008280011122CC372400209307C4B056C2F6
:102F380083AA870026CA4AC84EC606CE52C42A8922
:102F4800AE84B2891304C4B0638C0A1C1C5C99EB70
:102F58002945F2406244D2444249B249224A924A3F
:102F6800056182805C58EDD79307F01F63E8A70CD2
:102F7800372A00209307CAAB9C53130ACAABB9C7B8
:102F8800084483274A02639FA70489476317F90601
:102F9800C147E39FF4FA0355C4009147130505FCA4
:102FA8003345F5029317250003250A022686CE85A8
:102FB8003E959307A0052301F5002310250111056F
:102FC80097D0FE1FE7808024014561B70355C400F0
:102FD8009305E00497D0FE1FE78040062320AA024D
:102FE80045F1BDB78355C4005C5803260A028981A0
:102FF80082971C442322FA0249BF8D47631CF900BB
:10300800C147E397F4F40355C400130545FD9377CE
:10301800C5FF59BF91476318F900E39B24F3035593
:10302800C4002115EDB793070010E313F9F2A14787
:10303800E3E097F20355C4004115D1BF9D6763785B
:10304800F506930705E01947B3C7E7020357C4001D
:10305800372A0020B387E702BE9A9307CAAB9C536E
:10306800130ACAABA1CF83274A02639557070325E2
:103078000A0291461308A0059305F00F93D726007E
:10308800139727002A9703462700631606078358D5
:10309800070003463700639C2805B306D64063C67D
:1030A800960485078A072686CE853E9511BF216737
:1030B8007917E36FA7E8B307F54049BF0355C40084
:1030C8009305E00497D0FE1FE78040F72320AA026B
:1030D80059F9BDBD8355C4005C5803260A0289818D
:1030E8005685829723225A0359B72310B70093169F
:1030F8000601C18261B70356C400B38596009105E5
:10310800130606FCE3F6C5E413863400719A11062B
:10311800B2962301070123102701A301D70051B755
:10312800372A00209307CAAB9C53130ACAABA9C31A
:1031380003250A0291461308A0059305F00F93D7BB
:103148002600139727002A970346270063140605CD
:10315800835807000346370063982801B306D64012
:10316800E3D196F42310B70093160601C182C1BFBC
:103178000345E4008357C4009305E0043305F502D2
:103188004205418197D0FE1FE78040EB2320AA0229
:1031980045F17DBB0356C4008345E400B385C502F1
:1031A800338696001106E3E5C5DAB9BF014582808A
:1031B80083C705002300F50083D72500A300F50089
:1031C80083D72500A1832301F50083C74500A30108
:1031D800F50011458280B727002023A20794B7275E
:1031E800002023A00794828029C1411126C206C667
:1031F80022C4AA8401458DC52E84B7D50300228533
:103208004146938545B897D0FE1FE780200083C7C5
:10321800040005452306F40083C71400A306F40040
:10322800B2402244924441018280014582800111CA
:1032380022CC26CA06CE0947AA8432846381E504D3
:1032480041468147639BC500638FE6006397B600DC
:103258000DA841478147638EE600F2406244D2449C
:103268003E85056182808A852285BD3F41468A85E3
:1032780019A88A85953F41468A85228531A0E39A17
:10328800B6FC2E86A285268597D0FE1FE78000090A
:10329800AA87E1B7B727002023A0A7948280B72781
:1032A800002023A2A7948280011122CC0354650038
:1032B80006CE26CA4AC84EC641C083298500AE84B8
:1032C8002A8803C909008147131789016187635553
:1032D8000702B147054563FA8704511442040355B0
:1032E8002800418033878900A2864E868545EFC035
:1032F800A009B337A00085077D141355690042045F
:1033080005891379F90341802380F400A380A40080
:103318002381240123928400014719C013871900CF
:1033280098C409476383E7000145F2406244D244E8
:103338004249B249056182800545C5BFC167F91791
:10334800630AF502D94763F7B702011122CC2EC6EA
:1033580006CE2A84EF90E044B2456368B500228522
:103368006244F24005616FA0106AF240624405456C
:103378000561828005458280C167F9176314F500ED
:103388006F902042411106C6EFA0B05611E15D458D
:10339800B2404101828091476394F502834705005A
:1033A8002300F6008347250003471500A207D98F9D
:1033B8002311F6008347350001452302F600828079
:1033C800114582804111814522C426C206C6AA84BD
:1033D80005252A8409E9B727002083A7079481C710
:1033E800F945268582972285B240224492444101BC
:1033F800828039714ED656D25AD006DE22DC26DAC1
:103408004AD852D4AA8A2E8BB28941EF36C6AD3734
:103418009145EF90C04AAA844D492DC9B246054A44
:10342800238034010544630A0B00B6851385140014
:10343800029B0505131405014180E20993D98941CE
:1034480063D30902C1455685EFA0F058654905E9DF
:1034580033868400A2852685EFB030382A8905E1B5
:1034680031044204418091472C085685231CF10001
:1034780026CE231D8100EFA0005F2A8901C96307BA
:103488000A00268597D0FE1FE78040C9F250625493
:103498004A85D2544259B259225A925A025B216142
:1034A8008280BA84014AADBF011122CC26CA4AC81B
:1034B8004EC606CE2A893284B689253FAA840DE1F4
:1034C800B727002083A7479481CF05476317E400F7
:1034D80003C4090005041374F40FA2854A85829772
:1034E800F240624426854249D244B249056182804D
:1034F800AE86B7350100014705469385851B6DB734
:1035080083D705002300F50083D70500A183A30016
:10351800F5000945828083D705002300F50083D78D
:103528000500A183A300F50083D725002301F5003A
:1035380083D72500A183A301F5001145828083D795
:1035480005002300F50083D70500A183A300F5003B
:1035580083D725002301F50083D72500A183A30184
:10356800F50083C755002302F50083C76500A30251
:10357800F50003D58500190542054181828083D76E
:1035880005002300F50083D70500A183A300F500FB
:103598000945828083D705002300F50083D70500FD
:1035A800A183A300F50083D725002301F50083D765
:1035B8002500A183A301F5001145828003D54500AC
:1035C800060542054181828083D705002300F50066
:1035D80083D70500A183A300F50003D525000905BD
:1035E80042054181828083D705002300F50083D7F7
:1035F8000500A183A300F50083D725002301F5006A
:1036080083D72500A183A301F50003D54500110543
:1036180042054181828083C705002300F5000545E6
:10362800828083D70500411122C406C62300F50015
:1036380083D705002E841105A183A30EF5FE83D739
:1036480025009505230FF5FE83D7D5FFA183A30F8A
:10365800F5FE03C6F5FF97D0FE1FE78020BB0345A4
:103668004400B24022441105410182808947639C8D
:10367800F50083471500034705000145A207D98FC8
:103688002310F60082801145828003D70500D947B0
:1036980063FEE702011122CC06CE2EC62A84EF90E3
:1036A8004010B24683D70600636DF5002285624458
:1036B800F240B735010001470946938585500561F9
:1036C8000DBBF2406244094505618280094582804C
:1036D80091479DC583460500FD15C2058547C181F3
:1036E8006392F60213D725008D89914791E9914796
:1036F80001CB05052301D6002310E60048C2814707
:103708003E85828009479147E39CE6FEC94733D747
:10371800F502B3F5F502D1BFAE86B7350100014712
:1037280011469385E551F1B193F7350091EB898105
:10373800914789C52310B60048C281473E858280DB
:103748009147EDBF03C745008947631AF702011186
:1037580022CC2A84C84506CEAE86014719C52EC696
:103768009D45EFE08FBFB2462A8722856244F2402A
:10377800B735010019469385655405619DB909451A
:10378800828099E11145828083470500054723110E
:10379800F600E379F7FEFD1593F5F50F33D7F5023B
:1037A800B387E702E390F5FE050548C22310E6005B
:1037B8000145828083C745000947AE866385E700D7
:1037C80041476399E700B7350100014721469385D2
:1037D800A56205B1094582802310B60091E1014533
:1037E80048C201458280AE86B735010001472946A7
:1037F80093856558FDBE2310B60091E1014548C286
:1038080001458280AE86B735010001473146938570
:10381800C559C5B62310B60091E1014548C2014516
:10382800828003D74500854763FDE702011122CC5A
:103838002A84884106CE0DC12EC68545EFE0EFB13A
:103848002A8722856244B246F240B73501003946DC
:103858009385455C056171BEF24062440945056186
:1038680082800945828091479DC5034705008D46A2
:10387800914763F2E602FD15C205C181B3C6E502B0
:103888003308D7026399050105052310D6002311D3
:10389800E60048C281473E85828083C745000947C4
:1038A800AE866385E70041476399E700B7350100B5
:1038B800014741469385A5622DBE09458280B335EF
:1038C800B000139525008280011122CC26CA06CEAD
:1038D80003C785008547AA842E8449466310F702EA
:1038E800613C8357240049151306200963C8A700C3
:1038F800F2406244D244094505618280034794003E
:1039080085476314F70013660604484011C58D45C2
:1039180032C6EFE08FA43246A2866244F2402A877C
:103928002685D244B73501009385055D0561D1B47C
:103938008D4763FFB7028347150003470500F1155C
:10394800A207D98F2310F6008347350003472500C7
:10395800C205A207C181D98F2311F6002312B60030
:1039680089C5110508C60145828023240600E5BFE4
:1039780011458280011122CC2A84884506CEAE8664
:1039880011C52EC69545EFE04F9DB2462A87228580
:103998006244F240B735010059469385E55E0561FA
:1039A80089BCB335B000139525008280AE86B73543
:1039B8000100014761469385E56125BC85471145AE
:1039C80063F4D7028347160083450600A207CD8F0C
:1039D8002310F7009387E6FF2311F70089476386D2
:1039E800F600090650C30145828023220700E5BF7F
:1039F8000147814679468145EDBA83D70500230002
:103A0800F50083D70500A183A300F500094582804E
:103A180083C7250005472300F50003D505006397F4
:103A2800E7000A050505420541818280C94733053B
:103A3800F502CDBF03D505000A0542054181828004
:103A480083D725002300F50003D5050083D725007B
:103A58003305F502050542054181828003D505003D
:103A6800828003D50500828003D50500828083D734
:103A780025002300F50003D5050083D7250033056D
:103A8800F502050542054181828083D705002300A0
:103A9800F50083D70500A183A300F50083D725008F
:103AA8002301F50083D72500A183A301F50003D5E1
:103AB8004500110542054181828083D70500230016
:103AC800F50083D70500A183A300F50003D52500E1
:103AD800090542054181828089471145639BF600AB
:103AE80083471600834606000145A207D58F231099
:103AF800F700828003D70500D947AE8663F9E7004F
:103B0800B745010001470D46938525A071BA0945BF
:103B1800828011456393A6028347160083460600F8
:103B28000145A207D58F2310F70083473600834647
:103B38002600A207D58F2311F700828083C72500AE
:103B48000547FD1793F7F70F6361F70483D705005F
:103B58008DCF011122CC2A84C84106CE15C12EC6AC
:103B68008945EFD09FFF2A8722856244B246F240FA
:103B7800B74501001546938585A105616FF0DF9271
:103B8800F240624409450561828009458280954773
:103B9800114563F9D706411122C426C24AC006C698
:103BA80083471600BA8403470600A2073284D98FD8
:103BB8002390F4008347360003472600930544000A
:103BC800A207D98F2391F40089472382F40009467C
:103BD80013855400368997C0FE1FE780206393073A
:103BE800A9FF2394F4009947631BF90023A6040056
:103BF800B24022449244024901454101828019049D
:103C0800C0C4FDB7828083D705008DCF011122CCB7
:103C18002A84C84106CE15C12EC68545EFD0FFF3CC
:103C28002A8722856244B246F240B74501001D4604
:103C38009385C5A305616FF03F87F240624409454B
:103C4800056182800945828099476395F604894712
:103C5800411106C62302F700834716008346060073
:103C6800B285A207D58F2310F70083473600834615
:103C7800260003464700A207D58F130557002311D6
:103C8800F700910597C0FE1FE7804058B2400145F4
:103C980041018280D14711456394F600C1474DBF69
:103CA800828083D705008DCF011122CC2A84C84198
:103CB80006CE15C12EC68945EFD03FEA2A87228550
:103CC8006244B246F240B74501002546938585A473
:103CD80005616FF06FFDF24062440945056182801D
:103CE8000945828089471145639BF6008347160082
:103CF800834606000145A207D58F2310F70082806E
:103D0800011122CC2A84C84106CEAE86014719C5C6
:103D18002EC68545EFD07FE4B2462A8722856244C5
:103D2800F240B74501002D46938545A605616FF021
:103D3800AFF711456393A602834716008346060032
:103D48000145A207D58F2310F70083473600834625
:103D58002600A207D58F2311F7008280011122CCFB
:103D68002A84C84106CEAE8611C52EC68545EFD039
:103D7800DFDEB2462A8722856244F240B745010059
:103D880035469385A5A605616FF00FF293F71600E7
:103D9800114589EB89476387F60085822312D7008E
:103DA80010C301458280011122CC2A84C84106CE65
:103DB80015C12EC68545EFD05FDA2A872285624471
:103DC800B246F240B74501003D46938505A7056117
:103DD8006FF08FEDF240624409450561828083D718
:103DE80005008DCF011122CC2A84C84106CE15C109
:103DF8002EC68945EFD07FD62A8722856244B246EF
:103E0800F240B74501004546938565A705616FF007
:103E1800AFE9F24062440945056182800945828024
:103E2800854763FCD7022304A700A304B700834790
:103E3800160083450600A207CD8F2310F70093874D
:103E4800E6FF2311F70089476386F600090650C389
:103E58000145828023220700E5BF11458280014782
:103E680081464D4681456FF02FE48D47114563FB30
:103E7800D7028347160083450600A207CD8F23107B
:103E8800F7008347360083452600A207CD8F23110C
:103E9800F7009387C6FF2312F7006386A600110672
:103EA80010C70145828023240700E5BF011122CCF9
:103EB8002A84884506CEAE8611C52EC69545EFD014
:103EC800DFC9B2462A8722856244F240B74501001D
:103ED8005D46938525A905616FF00FDD854711457E
:103EE8006397F6008347060001452300F7008280A8
:103EF80001478146654681456FF00FDB011122CCF1
:103F08002A84C84106CEAE86014719C52EC68D45FE
:103F1800EFD0BFC4B2462A8722856244F240B74533
:103F280001006D46938525AC05616FF08FCC0111BA
:103F380022CC2A84C84106CEAE86014719C52EC6B2
:103F48008D45EFD09FC1B2462A8722856244F24050
:103F5800B74501007546938525AC05616FF06FC9BB
:103F6800011106CE2EC6EFA0E01401C9B245F240F9
:103F78000355250005616FE0A069F24049450561D8
:103F88008280B7270020A3880796B72700202388B8
:103F98000796B727002023AC0794B727002023AE45
:103FA8000794B727002023A00796B727002023A24D
:103FB8000796B727002023AA0794B727002023A82D
:103FC8000794B7270020239207B8930640389387B1
:103FD80047B82391D702F1761307400B938606B8AA
:103FE8002391E7002392D70211679D461306000527
:103FF8009305000A1305007D2392E7002393D70257
:1040080041478546130810F82395E7002396E700F3
:104018002399E700239AE700239BE700239CE70006
:104028002394E702239607032393B7002394B7004A
:104038002397C7002398C700239DA700239E070046
:10404800239F0700239007022395D702239707028F
:104058001308F007239807022392E7042393E70441
:10406800239FE7042390E7062391E7062392E706B8
:10407800239907031307C01C239AD702239BD7024F
:10408800239C0702239D0702239E0702239F070202
:10409800239007042391D704239407042395070446
:1040A8002396D7042397C7042398C7042399A70402
:1040B800239A0704239B0704239C0704239DC70412
:1040C800239EC7042393A706239407062395070670
:1040D800239607062397B7062398B706239907065A
:1040E800239AE7065147239DE7067D57239B07063A
:1040F800239C0706239ED706239F07062390E708DD
:104108008280011126CAAA84214522CC06CE2E849B
:1041180032C636C43AC2EFD07FB01DC9A246124794
:104128003246930700FD2300F5009947A300950048
:104138002301F5002303D500A303E5002312C500DE
:10414800AA8522856244F240D24405616FD0FFBA45
:10415800F2406244D24405618280B727002023AC34
:10416800A7948280B727002023AEA7948280B72720
:10417800002023A0A7968280B727002023A2A79615
:104188008280011122CC4AC806CE26CA2A89014457
:10419800B30489006368B400F2406244D2444249DF
:1041A800056182802EC6EFD0BFD093170501C18369
:1041B800A183B2452380F4009307140093F7F70F07
:1041C800850463F9B700CA9709042380A70013740C
:1041D800F40F7DBF3E847DBF411122C437240020E7
:1041E800130444B603556400C16706C6FD17630F80
:1041F800F500B727002003C607CCB7250020938514
:104208008596EF903049FD572313F400B2402244BD
:104218004101828009C925151375F50F1335850EDF
:104228001345150082800145828023900500C9C688
:10423800797122D426D24ECE52CC5AC806D64AD04C
:1042480056CA5EC63684328AAE892A8B814463F3A5
:104258004407B307940083C7070013891400420971
:10426800939A070193DA0A011359090163840A042E
:10427800CA976341FA04B307240183CB07005E851C
:10428800513F0DC99387FAFF2390F90063906B03A0
:10429800130519002295B250225492540259F2493A
:1042A800624AD24A424BB24B45618280D694C204DC
:1042B800C18071BF0145C5B701458280011122CC7B
:1042C8003724002026CA4AC84EC6930744B606CEED
:1042D8002E89D0CB8CCBC8C7AA8441469305F00F52
:1042E8004A8597C0FE1FE780400B8549130444B6F2
:1042F800631935030848C145693541469305F00FF0
:10430800268597C0FE1FE7804009054963152503E8
:1043180048446244F240D2444249B249C145056129
:104328008DB5414681454A8597C0FE1FE780E00666
:10433800E31535FDC1B741468145268597C0FE1F67
:10434800E780A005E30625FDF2406244D2444249D5
:10435800B24905618280411122C43724002026C257
:104368004AC0AE842A89130600028145130544B663
:1043780006C697C0FE1FE78000F0930744B6A381E6
:104388002701B7270020238297CCEFE0A02A854792
:1043980019C1814749452302F4B6B24022449244E8
:1043A800024941018280814781CD19C98547631B34
:1043B800F50083C7550093E707FCA382F5008547FE
:1043C8003E85828089476317F50083C7550093F7B8
:1043D800F703E5B70D478547E314E5FE03C7550026
:1043E8001377F70313670704A382E500D1BF81475A
:1043F8008DC105C103C755009306000C8547137787
:10440800070C6308D700930600048D476303D700A1
:1044180089473E858280411122C4005D06C626C2B6
:104428001DC8AA84085009C597C0FE1FE78000CFA1
:10443800485009C597C0FE1FE78040CE085409C5FB
:1044480097C0FE1FE78080CD228597C0FE1FE780BA
:10445800E0CC23AC0402B240224492444101828061
:1044680019E9B727002083C767B691C73725002009
:10447800130585948280372500201305C5B78280EF
:10448800B727002003C567B68280B727002003A599
:1044980007B78280B727002003A547B78280B727D0
:1044A800002083A787B788438280B7270020938797
:1044B80047B6D44B9842050798C203C537009307FF
:1044C800F00F6305F50091656FD0DFB882800111A8
:1044D80022CC06CE2E8432C6EF90704E9147B2455C
:1044E8006310F502B727002083A7479695C303A357
:1044F8000700630F030022856244F24005610283CE
:10450800B727002083A7C79581C703A34700D5B75E
:10451800F2406244054505618280011122CC2A845B
:104528000355450006CE26CA4AC84EC6EF90502706
:1045380025CD2A89834405008349C500E93D4A857C
:10454800EFA0000703554400EF90B0423729002040
:104558001309099783470900A1CF639B9704B727DD
:10456800002083C517972685EFF09F9F19E1230048
:10457800090003554400EF9090449147631FF500EC
:10458800B7270020938747B68356440003D76700B0
:104598006395E6007D572393E700F2406244D244D6
:1045A8004249B2490561828081499304F00F79BF7D
:1045B8009307F00FE38FF4FA834664000356440030
:1045C800034524004E87A6852D3E65B779715EC6E2
:1045D800AA8B2E8552CC56CA5AC806D622D426D2C1
:1045E8004AD04ECEAE8A328B368AEF90701B7DC190
:1045F800045D2A89E5C09C50614599C313054003B1
:104608009C5481C751054205418163050A00710523
:1046180042054181DC5081C7590542054181EFD0EF
:10462800EFDF2A8445C96146814597C0FE1FE780B0
:1046380080C4B727002083C947BB63940900834916
:104648000900930700FD2300F400A947A3007401A3
:104658002301F400230364018C5023125401130531
:10466800840191C908C47146930A440397C0FE1F88
:10467800E780C0B956858C5491C948C45146930AFD
:10468800450197C0FE1FE78060B85685630C0A0095
:1046980008C87146D285930AC50197C0FE1FE780F6
:1046A800E0B65685CC5099C548C8594697C0FE1FF4
:1046B800E780C0B5A2854E85EFD02FE42254B250D2
:1046C8009254F249624AD24A424BB24B4A85025945
:1046D800456191B3B250225492540259F249624A48
:1046E800D24A424BB24B4561828001114EC6AA891B
:1046F8002E854AC806CE22CC26CA2E89EF90500AAB
:1047080021C9B727002083C447BB99E0834405002B
:104718001945EFD0AFD02A8405CD8145194697C0F9
:10472800FE1FE78040B5930700FD2300F400B9475A
:10473800A30034012301F40023122401A28562445A
:10474800F2404249B2492685D24405616FD0EFDA7A
:10475800F2406244D2444249B249056182803971CB
:104768005ECEAA8B2E8526DA4ED652D456D25AD091
:1047780006DE22DC4AD8AE84328BB68A3A8ABE89F3
:1047880042C6EF90F00121CD2A894145EFD00FC9EB
:104798002A8431C54146814597C0FE1FE780A0ADF8
:1047A800B727002003C547BB19E103450900930754
:1047B80000FD2300F400BD472301F400B247A30025
:1047C80074012312940023046401A30454012305F3
:1047D8004401A30534015CC4A285EFD00FD2F25086
:1047E8006254D2544259B259225A925A025BF24B3D
:1047F80021618280797126D2AA8439454AD04ECE69
:1048080006D622D42EC6B2893689EFD02FC121C14F
:10481800B2459307000D2310F500B1472A842312EF
:10482800B5002301F500CE851905194697C0FE1F6E
:10483800E780C09D23062401A2852254B250025964
:10484800F24913F5F40F925445616FD00FCBB25073
:10485800225492540259F24945618280411126C27C
:10486800B7240020938444B603C7340006C622C484
:104878004AC09307F00F630CF7042A893945EFD033
:10488800EFB92A8429C5930700FDB7250020230026
:10489800F500A3002501230105009385C5B70D0583
:1048A800194697C0FE1FE780609683D78400A285CB
:1048B80003C534002315F40083C714002306F4004D
:1048C8002244B2409244024941016FD00FC3B24022
:1048D8002244924402494101828001115AC02A8B24
:1048E800314526CA4EC652C456C206CE22CC4AC844
:1048F800AE84B28A368ABA89EFD04FB23DCD2A84C7
:104908002685EF90E06911C50347C500A1476314E8
:10491800F704B727002003C977B6930700FD2300E3
:10492800F4009D47A30064012301F40023129400BE
:10493800231354012314440123153401A28562442E
:10494800F240D244B249224A924A024B4A8542492D
:1049580005616FD08FBAB727002003C957CCE31E73
:104968000BFAB727002083A707A29C47DDD7CE867E
:104978005286D685268582974DB7F2406244D24446
:104988004249B249224A924A024B0561828001118A
:1049980022CC2A84214506CE2EC6EFD02FA821C1CD
:1049A800B245930700FD2300F500C5472301F50034
:1049B80083C73500A301F50083D745002312F5000E
:1049C80083C765002303F50083C77500AA85A30381
:1049D800F50022856244F24005616FD00FB2F240C3
:1049E800624405618280397162CC2A8C594526DA85
:1049F8004AD84ED652D456D25AD05ECE06DE22DCE3
:104A0800AE8432C636C4BA8B3E8BC28A468A835974
:104A1800010403494104EFD06FA025C9324693072A
:104A280000FDA2462300F5009547A301C500A30099
:104A380085012301F5002A8419461105A9C2B68506
:104A480097B0FE1FE780807C23066401230A2401B7
:104A58002315740123175401231844012319340121
:104A6800A2856254F2504259B259225A925A025BB4
:104A7800F24B624C2685D25421616FD00FA8814534
:104A880097B0FE1FE780207FC1B7F2506254D2541E
:104A98004259B259225A925A025BF24B624C216136
:104AA8008280411122C437240020130444B683476E
:104AB800240006C626C28DCBB7240020AA85194635
:104AC8001385849497B0FE1FE78040740345240043
:104AD80093858494EFF03F8D2244B24013858494EB
:104AE800924441016FD0D035B240224492440145EE
:104AF80041018280411126C2B7240020938744B621
:104B080006C622C44AC003C737009307F00F938430
:104B180044B66304F7042A892945EFD02F902A84E4
:104B28000DCD930700FD2300F500A147A300250143
:104B38002301F50083C72400B725002093858594B9
:104B4800A301F5001946110597B0FE1FE780006C18
:104B580003C53400A285EFD04F9A03C724008D47C0
:104B68006311F702B727002083A7079699CB03A301
:104B78008700630803002244B2409244024941017D
:104B88000283B240224492440249410182807971F1
:104B980022D406D626D24AD04ECE52CC56CA094482
:104BA8005DCD2A8903550500AE895144EF90403FF9
:104BB800AA8455C537270020930707CC83C7470029
:104BC8008546BA8AFD1793F7F70F494463F9F60843
:104BD8000347C500A1476314F700639209089C5C6A
:104BE8004544B5EF9165938545711305C00297B0AB
:104BF800FE1FE780A04488DC2A8A4D442DC1130695
:104C0800C002814597B0FE1FE780E0668357090020
:104C180093064A0036852311FA0071469305490028
:104C280036C697B0FE1FE780605E89472300FA000A
:104C380003C5C400B2460356090083C50ACC6115F2
:104C480013351500EFA020682A8463860900CE85F5
:104C58002685EF90904501C42685EFF0CFFB22858D
:104C6800B250225492540259F249624AD24A4561DA
:104C78008280B727002083C747CC0547FD1793F7E5
:104C8800F70F637AF708894741CA011122CC26CA6F
:104C98004AC84EC652C406CEAA89368AB2842E891C
:104CA800EF9000302A84D14739C9485509C597B0D3
:104CB800FE1FE780A046F145268597B0FE1FE780D6
:104CC800206148D4CD4705CD8346C400214781479C
:104CD800639FE600630D0A000347A501035605011B
:104CE80093062501AA854E85EF90D043AA870347EE
:104CF8004400630F0900136767002302E400F240D1
:104D08006244D2444249B249224A3E8505618280C2
:104D180013674700DDB7C9473E8582809307F003D4
:104D280063EBA700B7270020938747B806053E9591
:104D380003550500828041657D158280011122CCD2
:104D48002A842E8526CA06CEAE84EF9060251DCD16
:104D5800B7470F009387F723094563E48702814526
:104D68000A85414697B0FE1FE780E050A6852310CC
:104D780081000A85418023018100A3010100EFA081
:104D88002034F2406244D244056182804945D5BF4F
:104D9800B72700202381A7CC82806FA0E04C7971CF
:104DA80052CC2A8A328522D426D24AD04ECE56CA2E
:104DB8005AC85EC606D662C4AE8BB28A368BBA842F
:104DC8003E89C2894684EF90A01D15C92A8C6314B8
:104DD8000A0213774B008347450015CF93E7270155
:104DE8002302FC008DEC631C0902639A090205E8A2
:104DF800ED9B2302FC00832B8C0363910B08B250BC
:104E0800225492540259F249624AD24A424BB24B56
:104E1800224C45618280F59B93E70701D1B793E760
:104E280047002302FC0001CC1C484146A2852324EC
:104E3800FC0213058C0197B0FE1FE780203D6393A9
:104E48000B02D5D80325CC0209C597B0FE1FE78011
:104E5800E02CF145268597B0FE1FE78060472326A2
:104E6800AC0251BFE30909F80325CC0209C597B084
:104E7800FE1FE780A02AF1454A85F1BF9DC483A79C
:104E88000B0299EB916593853571714597B0FE1FBB
:104E9800E780C01A23A0AB0203A50B0219C571460F
:104EA800A68597B0FE1FE78060366388090283A74E
:104EB8004B0299EB916593852571594597B0FE1F73
:104EC800E780C01723A2AB0203A54B0219C55946B8
:104ED800CE8597B0FE1FE78060331DC483A78B0281
:104EE80099EB916593851571514597B0FE1FE78041
:104EF800E01423A4AB0203A58B0219C55146A28571
:104F080097B0FE1FE78080302254B2509254F24985
:104F1800B24B224CCA865A860259424BD6855285D4
:104F2800D24A624A45616FF06FEA011126CA52C43B
:104F380006CE22CC4AC84EC62A8AAE84EF904006D6
:104F480025C5AA893945EFC07FCD2A8431CDB72739
:104F5800002003C947BB6314090003C9090093076C
:104F6800000D2310F400AD472301F4009385690078
:104F780013053400194697B0FE1FE780202993F7E0
:104F88001400858085882306F400A3069400231561
:104F98004401A2856244F240D244B249224A4A8579
:104FA800424905616FC07FD5F2406244D24442490C
:104FB800B249224A0561828001114EC652C456C2C6
:104FC80006CE22CC26CA4AC8AA8A2E8AB289EF807F
:104FD800307D2DCD2A891305C002EFC03FC42A8435
:104FE80035C5B727002083C447BB99E0834409002F
:104FF8009307000D2310F400E9472301F4009305FB
:10500800690013053400194697B0FE1FE780002099
:10501800D285231554011305C400414697B0FE1FDD
:10502800E780C01ECE851305C401414697B0FE1F18
:10503800E780C01DA2856244F2404249B249224A33
:10504800924A2685D24405616FC03FCBF240624444
:10505800D2444249B249224A924A056182804111AA
:1050680022C43724002013040495084006C619C535
:1050780097B0FE1FE780800A23200400B240224434
:1050880041018280011106CE22CC26CA4AC82EC60A
:10509800EF80107139CDB245B727002003C947BB4F
:1050A8000CD5AA8463140900034905004145EFC0E3
:1050B800FFB62A841DCD9307000D2310F500A547E0
:1050C8002301F50083C75400938564001105A30FDD
:1050D800F5FE194697B0FE1FE78040139C54A28541
:1050E800F2405CC46244D2444A85424905616FC0BB
:1050F800DFC0F2406244D2444249056182801D719A
:10510800A2CC86CE2A842EC6EF80906905CD834630
:10511800C5001147AA8749456392E6029C5FB245DC
:1051280099C383C56701B70602002308B1009386B7
:105138004629100889452285EF90E06DF6406644BF
:10514800256182805145DDBFB727002083C747CC42
:105158000547FD1793F7F70F637AF704894721CAC4
:10516800411122C426C24AC006C6B2842E89EF80E5
:1051780030632A84D14705C5630809008347450081
:1051880093E727002302F5004146A685130584010D
:1051980097B0FE1FE78080079C481CD48147B24027
:1051A8002244924402493E8541018280C9473E8596
:1051B8008280797122D406D62A842EC6EF80505E6A
:1051C80001CDB2452285230EB1006C08EF90606ACC
:1051D800B2502254456182805145DDBF6F80F07224
:1051E800C1671387E7FF6395E502B727002083A708
:1051F800C79591EB494582804945B2402244924483
:1052080002494101828003A30700E30503FE0283EC
:10521800411122C426C24AC006C6FD172A892E8417
:10522800B284639AF502B727002083A7C79591CF68
:105238009C4381CF829711E9B727002023882797BD
:10524800B7270020A38897964DBFA6854A85EFE02B
:105258003FD145F5D5B72E85EF80905451DD834772
:1052680005000D45E39B27F922852244B2400249F7
:10527800A685924441016FD0A0399307F00363E2F9
:10528800A7064111C16722C406C626C2FD172A8493
:1052980009456382F502C547AE846313F4022E857F
:1052A800EFD0C03E37250020130545B806042A94E0
:1052B800231094000145B240224492444101828067
:1052C8009307A0036316F4002E85EFD02035D9BFCD
:1052D8009307B003E318F4FC13F5F50FEFD040344F
:1052E800D1B709458280011106CE2AC6EFE07FC9F1
:1052F800EF206072EF105013EF60D23FB727002005
:10530800938747B6130700F02391E700238207002D
:10531800B72700203245138707CCFD562301D70055
:10532800F2402380A7CC954505616F70A053597151
:1053380093970501CAD086D6A2D4A6D2CECED2CC17
:10534800D6CADAC8DEC6E2C4E6C2EAC06EDEC187E3
:105358002E8963DC0754B724002003C504CCB72981
:105368000020372B0020EFC0FF912A8426CEB72AD1
:105378000020372C0020938449B6B72C00201DE06C
:1053880021653345A900B650265496540659F64966
:10539800664AD64A464BB64B264C964C064DF25DAD
:1053A80065618280834704001307200A639CE70035
:1053B80003CA340003552400C1652286FD15EFF0A9
:1053C8000F918DA27247130707CC034A27001307D2
:1053D80010096395E716834714001547639FE70094
:1053E8002285EFF08F932285EFC06FFEF24703C549
:1053F80007CCEFC03F892A8459B739476398E71625
:10540800035544008567A5076315F5040C4483CB51
:105418000500639D0B00850591C9372500201946B5
:105428001305C5B797B0FE1FE78040DE03C749B62E
:1054380085476315F71063880B00238209B65E85DC
:10544800EFF0CFC14DB789472382F9B6EFD0001FDF
:1054580059BF896713872700631CE504832B8400E1
:10546800638E0B0C83C70B0089EF83C72B0003C720
:105478001B00A207D98F2394F40083C73B00A380A5
:10548800F40003C749B68947631AF70A83C70B00B4
:1054980091C7238209B603C50B005DB783C5140005
:1054A80003D584008D472382F9B6EF70A03EE5B797
:1054B80095076318F5001C4403C50700EFF08FE358
:1054C8001DB7F9771387A7FF2A97420741839146AB
:1054D80063F1E6049387A7FCAA97C207C1837147C3
:1054E8006371F70289671387B7006310E50483A720
:1054F8008A95E38A07EE9C43A285E38607EE8297A6
:1055080015A0370700181307F770B357F700858BF6
:10551800A1CB83270B96E38807EC9C43E38507EC34
:1055280022858297E31105EC11A81387C700631041
:10553800E5021C4483C70700E38707EA9307F00FD7
:10554800E303FAEAA2855285EFC02FFB45B5B907F8
:105558006318F50083A7CC95E38707E8DC4369BFA8
:10556800896793871704E304F5F8C9BF3D47639932
:10557800E7040355440089671387D700E30CE5FC6B
:1055880013879701E308E5FCCD07E319F5FA03D77C
:105598006400C167FD17631DF70083A7CC95E384FA
:1055A80007E4DC43E38107E40965A2854D0581BF73
:1055B800B727002083A74796E38707E29C43DDB718
:1055C8001307E003E39CE7F6834724000547639845
:1055D800E70E8347640037270020930D0795E1E71E
:1055E80083A70D00D5CF83CB0700214A034574005C
:1055F800130D8400EA85EFE09FDF83474401A3038E
:10560800A400835804010358E400035744002A8681
:10561800034534003EC283572401EA86DE853EC036
:10562800D287EFF04FBC8347340095E7DD478358B6
:1056380004010358E40083467400835544003EC2C5
:10564800835724013EC06A87D28705465E85EF806E
:10565800104EA301A40083A70D0081C71145EFF0E8
:105668001FA0930B0C9703C50B00E30E05D6B727B5
:10567800002083C51797EFE0BF8EE30605D6834663
:10568800340093071003638AF6000356440083C569
:105698000B0052873685EFE0DFA623080C96A1B3EE
:1056A80083CB340099B783270B9683CB3400114AF8
:1056B80095DFDC4385DF81450145829705BF294792
:1056C8006390E70A8347640037270020930D079506
:1056D800A5EF83A70D00B5C783CB0700214A034573
:1056E8007400130D8400937725001376150089E75D
:1056F800EA85EFE0DFCF2A8683470402A303C400CC
:105708008358C4010358A4010357440003453400D7
:105718003EC28357E401EA86DE853EC0D287EFF0B9
:105728008FAC8347340085FBDD478358C401035899
:10573800A40183467400835544003EC28357E401A4
:1057480011B783CB340059BF83270B9683CB340022
:10575800114AD1D7DC43C1D781450145829741B76A
:105768000947639CE70083A78A95E38E07C6DC4355
:10577800E38B07C622858297BDB12D476398E70062
:1057880083A78A95E38107C69C47DDB70D476397D2
:10579800E70022868D450355440015B119476395E6
:1057A800E7069305610213051031EF60427D2C1066
:1057B80013052031EF60A27C0356640083578102F1
:1057C8000355440063E8C700835684000357610209
:1057D80063F7E60093050002EFC0506A29B16374CD
:1057E800E6002313E40063F4D7002314F4000357FE
:1057F800C4008356A40003568400835564000148FE
:105808008147EFC07067C5B61D47E389E7D23147C6
:105818006395E7002286B145BDBF35476398E70029
:1058280083A78A95E38107BCDC4799B73947639614
:10583800E7002285EF00F0077DB63D476398E70053
:1058480083A78A95E38107BA9C4B1DB741476396A6
:10585800E7002285EF00101179B645476396E70007
:105868000145EF00902041B64947639DE700832733
:105878000B96E38507CCDC43E38207CC81450545DD
:1058880082976DB94D47639CE70083270B96E387A2
:1058980007CADC43E38407CAA2850945D5B761472F
:1058A800E39EE7C82286E145FDB593F7150089CF49
:1058B800B727002083A7879589C7DC4399C301458B
:1058C800829713451900C1B493F7250091CFB727E4
:1058D800002083A7079691C7DC4381C7814505450A
:1058E80082971345290045B493F745000145E38C99
:1058F80007A8B727002083A747953724002013045B
:1059080044B691CF85472302F400B727002083A728
:10591800079691C7DC4381C781450545829748446E
:105928002C10EF9040662810EFF0AF97B7270020B3
:1059380083D767BA81CF130600643386C702B727B7
:10594800002003C507CC9145EFC05F861345490089
:105958001DBC011122CC2A84554506CE26CAEFF07B
:10596800EFBBAA8413054002EFF04FBB2AC613050C
:105978005002EFF0AFBAAA86228562443246F2405E
:10598800B3359000D24405616FC0B055797122D407
:1059980006D68D472E84631FF50003D7A50083D64E
:1059A800850003D665000345340083D54500EFE044
:1059B800DFF209A889671387D7006311E50403C5D7
:1059C800250019E58547B25022543E8545618280FD
:1059D800B727002083A60795F5D603C6360083C5EA
:1059E8000600814802C202C001488147014791066A
:1059F800EFE07FFF0545EFF08FE6E9B71387E70093
:105A0800E302E5FC13873701631AE50003C52500A7
:105A180055D9014781460146814551BFE507E30352
:105A2800F5FAB1476319F500B727002003C577B623
:105A3800EFE0FFF541BF41677D178147E315E5F8C2
:105A480003C75500C947E31FF7F683D6E50003D619
:105A5800C5000355840083D5A500EFC0104F41C988
:105A68005D45EFF0AFAB3335A000231CA1008345A3
:105A78004400035524003008EF80204383578101F8
:105A8800B1F36C0813051031EF60624F9305E10123
:105A980013052031EF60A24E8357C10103578400DC
:105AA8006374F7002314F4008357E1010357A4003B
:105AB80063F4E7002315F400835784000357A40018
:105AC8006374F7002315F40003552400EF506112A6
:105AD8000357E4008356C4000356A400835584008A
:105AE8000355240001488147EFC0D036E1BD854702
:105AF800231CF100ADBFB7270020138707CC8346CE
:105B080077001307F00F638CE60851C9411122C4CE
:105B180026C24AC006C6AA840345A500138907CC35
:105B28004105EFC0AF8F2A842DC59307000D2310C0
:105B3800F500D9472301F50083D744002312F50067
:105B480083C764002303F50083C77400A303F5002B
:105B580083C784002304F50083C79400A304F500D9
:105B680003C6A4002305C50015C2CC44410548C49A
:105B780097A0FE1FE7808069A2852244034579002B
:105B8800B2409244024941016FC02F972326050075
:105B9800E5B7B240224492440249410182808280A2
:105BA800C1671387E7FF639EE500B727002083A737
:105BB80007959DC383C707000D47639DA7006FC066
:105BC800B028FD1749476397F500B727002083A73A
:105BD8000795F5F73A8582804947EDBF397122DC90
:105BE80006DE26DA4AD84ED652D456D25AD05ECEDF
:105BF80062CC0347050085472A84630DF7040346F2
:105C08008500930695009305E1000545EFE0EFE177
:105C1800814719C183470500834604001147638300
:105C2800E60437270020032747978D4603471700C8
:105C3800630AD70285CB1DC70DE10145F2506254B6
:105C4800D2544259B259225A925A025BF24B624CD0
:105C58002161828081470145C1B785466314D70A0F
:105C68008D8BE1DF03451400130A2400D285EFE091
:105C78000FF837290020A300A400832789972A8BCF
:105C8800130989978149C1C7B72A00209304F00FE7
:105C980083C72A97138C2A9763FDF9020325090005
:105CA800939B49005E958347050063849706834765
:105CB8001500639067071946D285090597A0FE1F4E
:105CC800E780C06539C58324090003470400DE94D2
:105CD800B9E4834604009147E381F6F68327090077
:105CE800A9DF03460C0001479305F00FE307E6F42C
:105CF800BE84C10703C507FF6309B50C0507137701
:105D0800F70FEDB78946E31AD7F2858B99BF05459A
:105D180035B7850993F9F90FA5BF88C4F5A0914750
:105D2800631AF706C84405C583478400034605007F
:105D38006304F606034704009147631DF706C84449
:105D480019C597A0FE1FE780603D23A60400034500
:105D5800840091659385E571050597A0FE1FE7808E
:105D6800E02D05C5034704009147631EF704C8C426
:105D780083478400930594000505A30FF5FE0346A9
:105D8800840097A0FE1FE7806048034584003335F0
:105D9800A0006DB5884441BF93059400050597A000
:105DA800FE1FE780A0578547E316F5F85545EFE055
:105DB800FFF6BDA8884441DD97A0FE1FE7800036A6
:105DC80023A4040069B788C465B72380D400834737
:105DD8001400D28513852400A380F400194697A0E7
:105DE800FE1FE780A0420345840091659385F57105
:105DF800050597A0FE1FE780602405C5034704003A
:105E08009147E31CF7F0C8C48347840093059400C6
:105E18000505A30FF5FE0346840097A0FE1FE78043
:105E2800E03E83478400E39407EE034504007D15B4
:105E38001335150021B5397122DC26DA4ED652D435
:105E480006DE4AD856D25AD05ECE2A849309250057
:105E580003451500CE85B7240020EFE04FD9A300F5
:105E6800A400938444979C400D472A8A83C717004F
:105E78006390E7043729002083278997814A13090B
:105E88008997638E0714B72B002003C72B97939726
:105E98000A01C18303250900138B2B9763E7E70CDD
:105EA80083460B000327090081471306F00F79AAE0
:105EB800F1D3144C034674019305E1000545EFE066
:105EC800CFB605CD984085468347050003471700A0
:105ED8006310D7028D8BD9FF0145F2506254D2541A
:105EE8004259B259225A925A025BF24B216182807E
:105EF8008946858BE310D7F8F9BF8347040011471B
:105F08006385E7002D47E399E7FCB724002083A7C2
:105F1800849793848497E9D3814A0149B72B002059
:105F28001DA88840139B4A00834704005A950347DD
:105F380005006311F70283471500639D4701194661
:105F4800CE85090597A0FE1FE780403D01C503A93E
:105F580004005A99850A03C72B9793970A01C183AE
:105F6800E3E1E7FCE31809F085BF93944A0026951E
:105F78000347050083470400631FF70A834715009A
:105F8800639B470B1946CE85090597A0FE1FE7803E
:105F9800E03855C1832709001147BE9483470400A0
:105FA8006385E7002D47639EE70203AAC400834781
:105FB800740103460A006309F602528597A0FE1F82
:105FC800E780C0150345740191659385E571050562
:105FD80097A0FE1FE78080061DE5E38304EC0545D6
:105FE800EDBD03AA8400E1B70C4C13051A0097A075
:105FF800FE1FE780A0328547E311F5FC5545EFE029
:10600800FFD161DDD1BD8347040011476385E700F7
:106018002D476390E702C8C4834774010505A30FA1
:10602800F5FE034674010C4C97A0FE1FE780001E86
:106038006DB788C4D5B7850A89BDBA844107834539
:1060480007FF638AC5008507C207C183E3E7D7FE58
:1060580079B788C491A083470400CE8513852400AE
:106068002380F400834714001946A380F40097A006
:10607800FE1FE780A0190345740191659385F571AA
:10608800050597A0FE1FE78060FB31D90347040090
:106098009147E310F7FCC8C4834774010505A30FB3
:1060A800F5FE034674010C4C97A0FE1FE78000160E
:1060B8003DB701114AC837290020130909CC034705
:1060C800790006CE22CC26CA4EC69307F00F630489
:1060D800F70851C1AA845145EFB05FB42A8425CD91
:1060E8009307000D2310F500D5472301F50083C75A
:1060F800340093898400CE85A301F50083D744003A
:106108002312F50083C764002303F50003C5740058
:10611800EFE0EFADA303A400CE8513058400194674
:1061280097A0FE1FE780800E83C7E400A285034581
:1061380079002307F40083D704012318F40083C7E8
:1061480024012309F4006244F240D2444249B2498E
:1061580005616FB09FBAF2406244D2444249B249E5
:1061680005618280411122C437240020130404CC25
:106178000347740006C626C29307F00F630CF702A4
:1061880015C9AA841945EFB07FA9AA8505C5930743
:10619800000D2310F500DD472301F50083D74400E7
:1061A800B24092442312F500034574002244410191
:1061B8006FB0BFB4B24022449244410182800111C1
:1061C80022CC372400208327849706CE26CA4AC8C3
:1061D8004EC652C48DC3130484972E8AAA840149DB
:1061E800084063129902630C0A0497A0FE1FE78017
:1061F800E0F223200400F2406244D2444249B2490A
:10620800224A0561828093194900B30735018847FE
:1062180009C997A0FE1FE78060F01C40CE9723A411
:1062280007001C40CE97C84709C997A0FE1FE78002
:10623800E0EE1C40BE9923A60900050955B745DDC7
:1062480013964400814597A0FE1FE780C0021440C2
:1062580081477D5613F7F70FE37F97F813974700A9
:1062680036972300C7008507F5B779714AD03729D3
:1062780000208327499706D622D426D24ECE52CC68
:1062880056CA5AC85EC6C5C7B72A0020AA891309C4
:106298004997938A2A97014405E1B727002083A6E6
:1062A800879799CA03C60A002A8481479305F00F85
:1062B80013F7F70F6368C708131534002105EFB00B
:1062C800FF95AA8401E92145EFB05F95AA8421C50D
:1062D8000144CD49930700FD2380F4008547A3803E
:1062E80034012381F400A381840045C89389840084
:1062F80023A23401014A372B0020930BF00F83C7E8
:106308000A006373FA0039E883270900A68503C5E4
:106318000700EFB09F9E03C50A0081454D35032550
:10632800090097A0FE1FE78060DF23200900B25014
:10633800225492540259F249624AD24A424BB24B11
:106348004561828013974700369703470700630526
:10635800B70005041374F40F850799BF83278B973B
:1063680093154A00BE9583C705006384770323808D
:10637800F90083C71500138529007D14A380F9004F
:10638800194689051374F40F97A0FE1FE78000E8EB
:10639800A109050A137AFA0F9DB723A20400ADB725
:1063A800B727002083A74797B1C7411122C406C663
:1063B8002A841DE10945EFE07F962A8601C9B7279F
:1063C800002003C507CC8545EFB05FDE0545EFF03B
:1063D8004FD82A84054519C8B727002003C507CC1C
:1063E8008545EFC08F83228549350545B240224453
:1063F800410182800145828089679386B7006316D0
:10640800D5009C4503C5070061BF9386C700631884
:10641800D5009C45854603C5070019C9F5B793867D
:106428001704E300D5FE938727048146E303F5FEAE
:1064380036858280797106D622D426D24AD04ECEAD
:1064480052CC56CA5AC85EC662C471CD834735005D
:10645800AA8985C7404115C05945EFE03F8C931A7A
:10646800850193DA8A410149372A0020130B000D70
:10647800B54B83C73900636EF900B2502254925469
:106488000259F249624AD24A424BB24B224C456108
:1064980082808307840263CF570783274A97130CA8
:1064A8004A97ADCB2285EFF06FF32DC503458400E5
:1064B8005105EFB0AFF6AA8431CD23106501230151
:1064C800750183470400194693052400A301F500CC
:1064D8008307840215052303F50083471400A30FDF
:1064E800F5FE97A0FE1FE78060D20346840023864E
:1064F800C4001DC61385440188C89305940097A05D
:10650800FE1FE780A0D083270C00A68503C50700DF
:10651800EFB0AFFE0509130494021379F90F91BF88
:1065280023A80400CDB7B727002083A74797B1D782
:106538002D3B2254B25092540259F249624AD24A2F
:10654800424BB24B224C014545616FF08FC07971C7
:1065580006D622D426D24AD04ECE52CC56CA5AC8D3
:106568005EC662C469C583473500AA8985C74441A8
:1065780095C05945EFE08FFA931A850193DA8A415D
:106588000149372B0020930B00FD414C83C739008C
:10659800636EF900B250225492540259F249624A89
:1065A800D24A424BB24B224C456182808387F40029
:1065B80063CA5707130A4B9783270A00A5C7514593
:1065C800EFB0CFE52A8439CD23007501A30005007B
:1065D8002301850183C70400194693852400A3017C
:1065E800F5008387F4001505A306F50083C714009A
:1065F800A30FF5FE97A0FE1FE78040C183C7840064
:10660800938594001305C400A305F400194697A0C8
:10661800FE1FE780A0BF83270A00A28503C50700E5
:10662800EFB0AFED0509C1041379F90F85B7B727A6
:10663800002083A74797B9DFEFF03FC32254B25039
:1066480092540259F249624AD24A424BB24B224C06
:10665800014545616FF0EFAF5D7186C6A2C4A6C261
:10666800CAC04EDE52DC56DA5AD85ED662D466D23A
:106678006AD06ECE6301052883473500AA8495CB7E
:10668800832A450063870A025945EFE02FE99317EB
:106698008501E1873EC60144B7290020130A000D91
:1066A800054CB54C130D00FDC14D03C734006361A3
:1066B800E402B640264496440649F259625AD25A30
:1066C800425BB25B225C925C025DF24D616182804A
:1066D8000387CA00B2476349F71603A74997138986
:1066E80049976303071683CB0A0013F70B014DCFB5
:1066F8004D47639EEB0623800A005685EFF0AFF303
:106708006304051403C70A00914763E4E714631997
:10671800870D5145EFB08FD02A8B630705122300F0
:10672800A501A30005002301B50183C60A00194687
:1067380093852A00A301D5008386CA001505A30600
:10674800D50083C61A00A30FD5FE97A0FE1FE780C9
:10675800E0AB83C60A01194693851A01A305DB003D
:106768001305CB0097A0FE1FE78040AAF9A0554764
:106778006398EB0005472380EA00A38B0A00B5BFA6
:106788007547E389EBFE49476396EB000947238089
:10679800EA00A5B741476394EB000D47CDBF6D47AD
:1067A800E39DEBF41147E5B713F78B0019C32D47A9
:1067B800F9BF13F61B0013F74B0011C619C3154791
:1067C8005DBF2147E9B713F62B0011C619C325474A
:1067D8005DB719476DBF19C3294755BF1D4745BF49
:1067E80003C57A015105EFB06FC32A8B31CD231051
:1067F80045012301950183C60A00194693852A009D
:10680800A301D5008386CA0015052303D50083C6D6
:106818001A00A30FD5FE97A0FE1FE780209F03C68E
:106828007A012306CB0001CA13054B012328AB00CC
:1068380083A58A0105BF23280B0083260900DA8572
:1068480003C50600EFB06FCB0504F10A1374F40F0B
:10685800A9BD03C57A0113050502EFB02FBC2A8B29
:1068680065D5C9472301F5002310450103C60A0071
:1068780093F60B0693852A00D18EA301D50083C613
:106888001A0019461505A30FD5FE97A0FE1FE7802D
:10689800E09783C68A00194693851A01A305DB0091
:1068A80083C69A0013053B012306DB0083C6AA00B2
:1068B800A306DB0083C6BA002307DB008386CA0071
:1068C800A307DB0083D6EA002318DB0083C60A018E
:1068D8002309DB0097A0FE1FE780409303C67A01D7
:1068E800A30CCB0011C613050B02232EAB0089B7EE
:1068F800232E0B0099B7B727002083A74797E38A71
:1069080007DAEFF09F962644B64096440649F259B6
:10691800625AD25A425BB25B225C925C025DF24DD3
:10692800014561616FF0EF82B727002083A7479781
:1069380085CB03C707008D476315A702B72700203B
:1069480003C507CC4111854506C6EFB01FAD130539
:106958000003EFF09F91B240014541016FE07FFFD6
:10696800C9473E85828079714AD0372900201309AA
:1069780049978327090006D622D426D2CDEF37249B
:106988000020130404CC03474400C947298B49CF8E
:106998009165AA849385D57111459790FE1FE7806C
:1069A800E0692320A900CD4741C183C704001146EF
:1069B800A685A303F40097A0FE1FE7802085930512
:1069C80031011305F041EF30721CB727002093877F
:1069D80047B603C42700034731013334800011C38D
:1069E800090413051002EFE06FB31376F50F137760
:1069F8001600E14715CB154532C6EFE02FB283C725
:106A08002400231CA1001945230AF100EFE00FB16F
:106A1800324683C53400231EA1007C083808540878
:106A28002285EFB0D04BAA87B25022549254025913
:106A38003E8545618280C547C5BF757126C3B724A9
:106A4800002022C506C74AC1CEDE938404CC83C782
:106A580044004944A18B638D0718B727002083A7FA
:106A680047974144639607182A89EFE02FF783C7B1
:106A780084005544637EF516B724002083A7049547
:106A8800A68945446396071691659385C57129457E
:106A98009790FE1FE780805A23A8A4944D44630969
:106AA80005142946CA859790FE1FE78020761305AE
:106AB8006002EFE0AFA61375F50F937715006144F8
:106AC80063880712130600038145136425008800B4
:106AD8009790FE1FE780207A4145EFE02FA4231608
:106AE800A1043D45EFE08FA32319A1043545EFE04C
:106AF800EFA2231CA1043945EFE04FA2231FA104F4
:106B08002145EFE0AFA12312A1061D45EFE00FA13B
:106B180083A704952315A10683C717006382070E70
:106B28002D45EFE0AF9F2310A1043145EFE00F9F03
:106B38002313A1041305C002EFE04F9E2317A104FD
:106B48001305B002EFE08F9D231AA10413059002EC
:106B5800EFE0CF9C231DA1041305A002EFE00F9CDA
:106B68002310A10613058002EFE04F9B2313A10613
:106B780013057002EFE08F9A83A709952316A106E3
:106B880003C5370093854700EFD0FF812AD69305C8
:106B9800F1031305F041EF30627FB7270020938798
:106BA80047B683C527000347F1033256B335B00013
:106BB80011C3890583A60995FC00228703C5260011
:106BC8003EC8930721053EC6BC083EC49307E105AD
:106BD8003EC2DC103EC09308A106130861049C0065
:106BE8009106EFB050302A8401C50D45EFE02FC75C
:106BF8002285BA402A449A440A49F6594961828052
:106C08002545EFE0AF912310A104294505B7B72723
:106C1800002083C747CC0145A18B89C737250020B1
:106C28001305C5C16FD00FD4B72700207D5723891E
:106C38000796B7270020A383E7CCB727002023AC0B
:106C4800079637670100B72700201307074023AAD4
:106C58000796B727002023A4E7C03767010093876A
:106C680087C01307C743D8C33767010013076755A1
:106C780098C73767010013070766D8C73767010049
:106C88001307E7AF98CB37670100B7270020130732
:106C980087BA23AEE7C0376701009387C7C11307D8
:106CA8004799D8C38280411122C437240020130495
:106CB800249726C2AA8403450400854506C6EFF03A
:106CC8000FD0B727002083C747CCA98BA5CF37257E
:106CD800002023009400130585C0B7240020EFD0BE
:106CE800CFC7938484979C4099C74D45B2402244AE
:106CF8009244410182800345040019E10145FDB732
:106D080091659385B57112059790FE1FE780003352
:106D180088C061DD03460400814512069790FE1F76
:106D2800E78060558346040090408147FD5513F77E
:106D3800F70FE375D7FC1397470032972300B70086
:106D48008507F5B7014523000400EFD00FC17DB7D3
:106D5800411122C4372400200325449506C619C5CD
:106D68009790FE1FE780803B232A0494B240224478
:106D78004101828001111305700306CEEFD01FFA7E
:106D88002AC613058003EFD07FF92AC413059003A0
:106D9800EFD0DFF82246B245F240AA8605450561E4
:106DA8006FB030135D711305D00386C6A2C4A6C2A6
:106DB800CAC0EFD0BFF62A841305C003EFD01FF670
:106DC800AA841305E003EFD07FF52A891305F003A1
:106DD800EFD0DFF48A871377F50F9376F90F13F660
:106DE800F40F9375F40F0545EFB0F010B640264444
:106DF80096440649616182805971A2D437240020E3
:106E08008327449586D6A6D2CAD0CECED2CCD6CAAF
:106E1800DAC80545638D070C9305F1041305F041A5
:106E2800EF30C2569305F1041305F041EF300256D6
:106E3800B7270020938747B683C727000347F10485
:106E4800B337F00011C38907032744953EDE034595
:106E5800370093054700EFD00FD5032744952ADC68
:106E68000D45834527002EDAEFD05FEB2AD8114570
:106E7800EFD0DFEA032444952AD665450347A400EA
:106E8800034BB4003AD4EFD07FE9AA846945EFD028
:106E9800FFE82A897145EFD07FE8AA896D45EFD0D0
:106EA800FFE72A8A7545EFD07FE7AA8A7945EFD0B0
:106EB800FFE6E2046258F2572257B2564256D255BC
:106EC8001375F50F93FAFA0F137AFA0F93F9F90F6E
:106ED8001379F90FE1842ACC56CA52C84EC64AC45F
:106EE80026C25AC0930844000545EFB0E07AB65070
:106EF800265496540659F649664AD64A464B656161
:106F08008280011122CC06CE26CA8D472E846315B5
:106F1800F50603C73500B7240020E94703D5450027
:106F2800938444B66316F70083D764006382A70688
:106F3800EF70000709C5835764002317F50003574E
:106F4800A400835684000356640083554400034517
:106F58003400EFD09F980357440083D76400630937
:106F6800F7008547F2406244D2443E85056182803D
:106F7800FD572393F400F5B78967CD07631DF50026
:106F880083C7250031476385E7004547E39BE7FC56
:106F9800EFD08FA4F9B7B1476319F500B7270020E0
:106FA80003C557CCEFD0BF9E6DBF41677D178147A2
:106FB800E31AE5FA83C655004947E395E6FA83C51F
:106FC800450003552400300023140100EF60D06809
:106FD80049BF411122C4372400208347C49726C2E1
:106FE80006C64AC01307E00FAE846386E70413079A
:106FF800F00F1304C4976387E7021145EFA01FC27F
:1070080015C1930700FD2300F50089472301F5000A
:107018008547A3009500A301F500AA850345040050
:10702800EFA0BFCDF9572300F400B24022449244A8
:107038000249410182802A891145EFA03FBE75D5DA
:10704800930700FD2300F50089472301F500A300FD
:107058009500A30125012244B7270020B24092449D
:107068000249AA8503C5D79741016FA01FC9797145
:107078004AD0372900208327499522D406D626D21C
:107088004ECE52CC56CA4544D5EFB724002093873C
:1070980004CC83C747004944958BCDC7B727002048
:1070A8002E8A9165A38EA796AA8993857571314515
:1070B8009790FE1FE78080F8232AA9944D4459C170
:1070C80023003501A30005002946D28509059790BC
:1070D800FE1FE780A01383274995914603C7270021
:1070E80063EDE60835EB4D472381E70003C727002A
:1070F800136707012381E700930571001305F04129
:10710800EF30C22883477100F1EBB727002003C78F
:1071180067B68D476314F70CEFD02FB72C00EF70CC
:1071280090662800EFD0FF974545EFD03FBF014458
:1071380011C9130600643306C50203C504CC914582
:10714800EFB0CF862285B250225492540259F249A8
:10715800624AD24A4561828085466314D7007547E2
:1071680061B789466314D7004947BDBF8D4663148C
:10717800D700414795BF554785BF9546CA8A630ED4
:10718800D70099466316D70009472381E70031A045
:107198001D466314C702238107006545EFD01FB859
:1071A8009307F007E30AF5F403A74A9583472700F6
:1071B80093E707042301F70081B721466314C7004A
:1071C8000547E1B725466315C7002381D700F1B706
:1071D800A9460544E318D7F6114745BFEFF0DFC1CC
:1071E8002A842DD1EFF0DFB6B1BF011126CAB7242A
:1071F800002083A7449522CC06CE4AC84944B1C78B
:1072080083C707000D446392A7043729002003456C
:1072180009CC8945EFB06FA0034509CCB7270020FA
:10722800914523900798EFB04F9F83A74495014756
:107238008146A38087001306F100854785450145EF
:10724800A307F100EFB0A0482A842285F2406244E7
:10725800D244424905618280011106CE22CC26CA59
:107268004AC88547631EF50637240020130404988E
:1072780083570400A9CB37270020034787B621E7A7
:107288001307B003636CF702B724002003C504CCCE
:107298008945EFB08F98035604009307006403C52F
:1072A80004CC3306F6028945EFA05FF023100400F2
:1072B800F2406244D244424905618280938747FC88
:1072C8002310F400F5B7B727002083A74795EDD31F
:1072D8006244F240D244424903C50700056131B710
:1072E800B724002083A74495E1D737270020130946
:1072F80007CC83474900918BC5DF89476313F5069F
:107308002D452EC6EFA09F912A845DD1B2459307E3
:1073180000FD2300F500E547A30005002301F50063
:1073280083C7350015051946230FF5FE83C74500A9
:107338009505A30FF5FE9790FE1FE78020ED034506
:1073480059009307F00F6316F50083A7449503C50A
:107358000700A2856244F240D244424905616FA009
:10736800DF99034507CC8945EFB02F8B6244F24083
:10737800D2444249B72700202390079805616FF04F
:107388003F9DB727002083C747CC958B89CFB72768
:10739800002083A7C79891CBB727002005472381F2
:1073A800E7986FF03F9D4945828041458280B72725
:1073B800002085450145238107986FB00032B72723
:1073C800002083C747CC958B81CBB7270020054782
:1073D800238FE7966FF01F9D49458280B7270020CD
:1073E80081450545238F07966FB02031B7270020C8
:1073F80083C747CC958B638F07129307C01C63FC28
:10740800C70009458280F2406244D2444249B249E9
:10741800094505618280B727002083A74795638BBC
:107428000710B72700209387C79703C807001307DB
:10743800E00F6311E810011122CC4AC806CE26CA13
:107448004EC62380A700130586004205368932847C
:107458004181ADC99165938565719790FE1FE7805D
:10746800E0BDAA894DD1B724002003A58498938450
:10747800849809C59790FE1FE78040CA1385890044
:1074880023A0A9002286814523A034019790FE1FDE
:10749800E78060DE9C402286CA8588439790FE1F5D
:1074A800E780C0D69C40A286F240239287006244BF
:1074B800D2444249B249984305468D450545056180
:1074C8006FB060209165938555719790FE1FE78096
:1074D800E0B6AA890DD9B724002003A5049993849E
:1074E800049909C59790FE1FE78040C3138589005A
:1074F80023A0A9002286814523A034019790FE1F6E
:10750800E78060D79C402286CA8588439790FE1FF3
:10751800E780C0CF9C40A286F24023928700624455
:10752800D2444249B249984305468D45054505610F
:107538006FB0A019494582809307C01C63FCA7005F
:10754800094582800945F2406244D2444249B24921
:107558000561828045CD011122CC2A8421054EC6C1
:107568004205AE8991659385657141814AC806CE09
:1075780026CA9790FE1FE78060AC2A8961D5B72498
:10758800002003A584989384849809C59790FE1FCA
:10759800E780C0B8130589002320A9002286814509
:1075A80023A024019790FE1FE780E0CC9C40228610
:1075B800CE8588439790FE1FE78040C59C40239264
:1075C8008700B727002083A747958DCFB7270020CE
:1075D80083C747CC958B8DCBB727002083A7879887
:1075E80099CF984383D647006244F240D244424937
:1075F800B24905468D45054505616FB0C00C014788
:107608008146DDB7014581B7494535BFB727002019
:1076180083A7479595C7B727002083C747CC958B85
:1076280095C3B727002083A7879881CB984383D633
:10763800470005468D450545C9B701478146D5BF71
:1076480001458280494582809307C01C63FCA700DE
:10765800094582800945F2406244D2444249B24910
:107668000561828045CD011122CC2A8421054EC6B0
:107678004205AE8991659385557141814AC806CE08
:1076880026CA9790FE1FE780609B2A8961D5B72498
:10769800002003A504999384049909C59790FE1FB7
:1076A800E780C0A7130589002320A9002286814509
:1076B80023A024019790FE1FE780E0BB9C40228610
:1076C800CE8588439790FE1FE78040B49C40239264
:1076D8008700B727002083A747958DCFB7270020BD
:1076E80083C747CC958B8DCBB727002083A70799F5
:1076F80099CF984383D647006244F240D244424926
:10770800B24905468D45054505616FA0107C0147C6
:107718008146DDB7014581B7494535BFB727002008
:1077280083A7479595C7B727002083C747CC958B74
:1077380095C3B727002083A7079981CB984383D6A1
:10774800470005468D450545C9B701478146D5BF60
:1077580001458280494582809307C01C63F4A700D5
:1077680009458280797122D44ECE06D626D24AD0D7
:10777800AE892A842DC121059165420593857571CD
:1077880041819790FE1FE780608B2A89094563062F
:107798000908B724002003A5C4989384C49809C590
:1077A8009790FE1FE7808097130589002320A90082
:1077B8002286814523A024019790FE1FE780A0AB75
:1077C8009C402286CE8588439790FE1FE78000A4C0
:1077D8009C4023928700B727002083A7479501453F
:1077E8008DCFB727002083C747CC4945958B95C7D0
:1077F8006C001305D030EF408278B247014593F70B
:10780800070F81CFB727002083A7C7988D45054567
:10781800944303D64700EFA0106CB2502254925400
:107828000259F24945618280B727002083A78798CB
:1078380091CF03D647008C43411106C69790FE1F8F
:10784800E780C09CB24001454101828009458280A1
:10785800B727002083A787988DC7B727002003A7DD
:107868000799894705C3035647000C43411106C6CB
:107878009790FE1FE7808099B24081473E8541017D
:10788800828089473E858280B727002083A7879812
:107898008DC7B727002003A7C798894705C3035694
:1078A80047000C43411106C69790FE1FE7800096DB
:1078B800B24081473E854101828089473E8582806A
:1078C800797106D622D426D24AD04ECE52CC8D47D4
:1078D80063FCA7008944B250225426850259925469
:1078E800F249624A4561828037290020034749B638
:1078F800C144E312F7FE9307F5FF930949B693F7DE
:10790800F70F8546AE842A8403CA2900130949B6AD
:1079180063EAF6068DE199452800EFC09F86B729EE
:10792800002003C509CC914523018900EFA0FFAED3
:1079380035E481444DB71946814528009790FE1FCC
:10794800E780609319462C0026859790FE1FE780F4
:10795800E09C49F119469305F00F28009790FE1F07
:10796800E780609119462C0026859790FE1FE780D6
:10797800E09A2DF11946A68528009790FE1FE7800A
:10798800E08871BFE31DE5F803A5C9002C00EF707E
:10799800805FAA8449D52381490135BF2800EFD0EB
:1079A8004F90AA840DED930571001305F041EF2067
:1079B800F21D83447100B5FC8D47E31CF4F6454580
:1079C800EFD0CFB53DD5B7771800938707A033061A
:1079D800F50203C509CC9145EFA03F9DEDBD2301FC
:1079E8004901D5BDB727002083C747CC918B8DC3EC
:1079F8003725002041111305459806C6EFC0CFF77B
:107A0800B240B72700207D572395E7B64101828011
:107A180001456FC06FF6B72700207D57A38EE79604
:107A2800B72700207957238EE796B72700202381B0
:107A38000798B7270020238F0796B72700202390A1
:107A48000798B727002023A40798B727002023A862
:107A58000798B727002023A6079837870100B7277C
:107A68000020938787A2130727C998C33777010097
:107A780013070726D8C337770100130707E098C70D
:107A8800377701001307C7D7D8C73777010013071F
:107A9800C7DA98CBB7770100372700209387A7F07C
:107AA8002322F7988280411126C2B724002083A799
:107AB800449506C622C48DCF2A840D45EFA00F96A3
:107AC800AA8505C1930700FD2300F5008D47A30093
:107AD80085002301F50083A7449503C50700EFA09F
:107AE800CFA119C42244B240924441016FF04FA67D
:107AF800B2402244924441018280797152CC372AA3
:107B0800002083274A954AD006D622D426D24ECEC4
:107B180056CA0149B1C703C91700B72400208547D1
:107B2800AA89938444B66307F90483C744000549C6
:107B380085EB0D45EFA08F8EAA8505C1930700FD43
:107B48002300F5009147A30035012301F5008327A1
:107B58004A9503C50700EFA04F9AEFF06F9F0549BC
:107B6800B25022544A8592540259F249624AD24A82
:107B780045618280B727002083A78798D28A85E34A
:107B88000145EFD0AF992A8601CAB727002003C55F
:107B980007CC8945EFA08FE183A74A9581A8944334
:107BA80003D647009305E1000545EFC00FE869D902
:107BB80083470500858BE9D70545EFD02F969307B6
:107BC800B0032A8463F0A704B727002003C507CCB5
:107BD8005D66130606708945EFA02FFDB7270020C4
:107BE800130444FC2390879883274A950947A38068
:107BF800E70083C7440081C72382040095B74E85F8
:107C08005D35B9BF130600643306C502B5BF41111F
:107C180022C42A840D4506C6EFA04F8005C59307E8
:107C280000FD2300F500CD472301F500A3008500E2
:107C38002244B7270020B240AA8503C5D79741013F
:107C48006FA0AF8BB240224441018280411122C40F
:107C58002A840D4506C6EF907FFC05C5930700FDF5
:107C68002300F500ED472301F500A3008500224419
:107C7800B7270020B240AA8503C5D79741016FA056
:107C8800CF87B24022444101828003574500011149
:107C9800896606CE22CC26CA13866600AA87631791
:107CA800C7009C47014583C5070009A813868600BD
:107CB800631AC7009C47054583C50700EFF06FB1FD
:107CC80005453DA8138696006313C7023727002091
:107CD8000327479501450DC79C4703C5070065E184
:107CE8008547A300F7000545EFA0D015D1BF13863F
:107CF800A600631CC7009C4703C50700EFF0FFDF21
:107D0800F2406244D2440561828013866603E30A26
:107D1800C7F813867603E30FC7F813868603631341
:107D2800C70A1C45372400201307E00F83C4070047
:107D38008347C4971304C497638EE7021307F00FB1
:107D48006386E7021145EF907FEDAA8505C1930789
:107D580000FD2300F5008947A30095002301F500E5
:107D6800A301050003450400EF903FF9F9572300EC
:107D7800F400B9B7B727002003A747953E8401450B
:107D880041D38DEC85447D4523059100EFC01FF953
:107D98002316A10013050002EFC05FF8832744955E
:107DA800A305A1001307B100A38097007400130670
:107DB800A10085450545EFA0901119B72685EFF07C
:107DC8009FCEFDBD13869603E307C7F21386E6032D
:107DD8006317C7001C45094583C50700C5B59386C9
:107DE800F603631DD7021C4503C5070035ED6C007B
:107DF8001305D030EF40A218B247414793F7070F59
:107E0800E380E7EC9305B10013056031EF402217DA
:107E18000345B1008545EFA0500C5DB58966138612
:107E280006046316C7041C4503C40700B7270020CF
:107E380083C7279822858DEB0D45EF903FDEAA85F5
:107E4800E30005E8930700FD2300F500D14723016F
:107E5800F500A3008500B727002083A7479503C531
:107E68000700EF909FE9A9BDEFF07FDA91BD138677
:107E78001605631BC7001C4503C5070021E9854596
:107E88000545EFA090072DBD938626050145E3190A
:107E9800D7E69C4703C40700B727002083C7E797A6
:107EA80022858DE70D45EF907FD7AA85E30A05E087
:107EB800930700FD2300F500F1472301F500B727DC
:107EC8000020A300850003C5D79761BFEFF01FD836
:107ED800C5BBB727002083C747CC411106C6958B81
:107EE80099CB37250020130585A2EFC04FA84D4533
:107EF800B240410182800145EFC06FA70145CDBF67
:107F080003C70500937625009377D70F99C2936727
:107F18002700131885011358884113F7F70763548E
:107F2800080013E70708937685009377770F99C2BF
:107F3800936787001377050293F6F70D19C393E645
:107F480007022380D500634508009377A50281CBFB
:107F58008347060093E7C7002300F60082807DFD73
:107F680083470600CD9BCDBF2D456319071403C871
:107F7800050009476310E814C84103471500034585
:107F880005002207498F42070D654187930825A000
:107F9800630B170B011122CC26CA4AC84EC606CE5F
:107FA800BE89B68432842E8963CEE800930705A083
:107FB800630DF702130515A06300A70623900400BC
:107FC8000545B5A0930745A06309F7086348F70678
:107FD800130565AAE314A7FE85472390F600DC4540
:107FE80083C707002300F60091A0C8459780FE1FAD
:107FF800E780402B420541814E86637335012A860E
:108008002390C400420641828325C90022859780B7
:10801800FE1FE780A01F19A8DC4583D7070023901F
:1080280006012300F600A183A300F6000145F240F3
:108038006244D2444249B2490561828099472390FB
:10804800F6001946D1B785472390F600DC4501456F
:1080580083C707002300F6008280DC45A9CB2147AF
:108068002390E60003D707002300E60003D70700A4
:108078002183A300E60003D727002301E60003D7E6
:1080880027002183A301E60003D747002302E60067
:1080980003D747002183A302E60003D76700230321
:1080A800E60083D76700A183A303F60041B72390B6
:1080B8000600ADBF2390060005458280828083C8F4
:1080C80005008947639BF814DC41797122D406D6F0
:1080D80026D24AD04ECE52CC03C8170083C7070019
:1080E8002E8422083368F80042088D671358084127
:1080F800138327A0630468102A8A3A89B684B28554
:10810800634C0301138707A0630AE802938717A04B
:108118006309F808854711A8138737A0630BE80A95
:10812800138767AA8D47E317E8FEB250225492548A
:108138000259F249624A3E8545618280484432C606
:108148009780FE1FE7800016420541819D47E36E38
:1081580025FDB3099900D547B24563D43701B54722
:10816800E9B748442686C2094A959780FE1FE780EA
:10817800E009484493D909015946330636418145F7
:108188004E959780FE1FE780000FB727002083A732
:10819800879999E3814751BF9C438145E5DF528523
:1081A8003DA0AD47E31309F8E39B16FB8347160090
:1081B800834606005844A207D58F2310F700B72737
:1081C800002083A78799F9D79C438545E1D78297F3
:1081D800D1B7AD47E31B09F49947E392F6F8484451
:1081E80019469780FE1FE7806002B727002083A703
:1081F8008799CDD39C43D9DF8D4555B7AD4715F742
:108208008547E39EF6F40347060093070008E3EE6C
:10821800E6F0DC452380E700B5BF85473E858280D0
:10822800B72700203727002023AC0798B72E002057
:108238008947A30BF790130F77918147938ECEA3AD
:108248005947B386FE00238006008507E39BE7FEB7
:10825800B7250020B707A0009385C5919387070528
:108268009CC1B707E803DCC1B7270020238B079818
:1082780037D60300B7270020938787821306062A7C
:10828800D0C3372E002037D603000947130E4E916E
:10829800130646272300EE00D0C723AEE70123AE1E
:1082A800C70337230020B7280020372800203725A8
:1082B800002037D6030037DF030037DE030085468A
:1082C80013064628938888911303439913086891E5
:1082D80013055591130FCF28130ECE272380E800DE
:1082E8002380E7002388E7002380E7022388E7024A
:1082F8002380E7042300E8002384D70023950700A0
:10830800D0CB238CD700239D070023A2E703238427
:10831800D7022395070223A6D703D0DB238CD702E5
:10832800239D070223A2C7052384D70423950704A6
:10833800231003002300D50023A667042388E7043D
:1083480023AE17052380E7062388E7062380E7087E
:10835800B7D8030037D70300130707289388C8291D
:1083680023A2E708F0CB238CD704239D070423A27C
:1083780017072384D70623950706ECD7F0DB238C51
:10838800D706239D070623AE07072384D70823951E
:10839800070823A6A70837870100B7270020938777
:1083A800878B130707F798C3378701001307670CF4
:1083B800D8C323A407008280A54763EFA70CB7D7CB
:1083C8000300938747B90A053E951C41411122C411
:1083D80026C206C64AC0B2842E848287D547614524
:1083E80063E5B70237290020594681451305C9A31B
:1083F8009780FE1FE78020E82286A6851305C9A37B
:108408009780FE1FE78080E00145B24022449244F5
:1084180002494101828089476145E398F5FE035787
:108428000600B7270020239AE798F9BFA1476145BE
:10843800E39DF5FC372500202146A6851305C59147
:10844800EF404267D1B785476145E390F5FCB72512
:10845800002093858582D04D9385850203C504004D
:10846800EFF01FAA55B785476145E390F5FAB725A0
:10847800002093858582D05D93858504C5B785479F
:108488006145E394F5F803470600B7270020A38A5F
:10849800E7909DBF094595BF094582800547630C54
:1084A800E5024111AA8706C62E8599CB1147638C30
:1084B800E70225476381E7040945B240410182800C
:1084C800B725002055469385C5A39780FE1FE780F2
:1084D800E0D30145DDB7B727002083D74799014589
:1084E8002390F5008280B725002021469385C59109
:1084F800EF40425CF9BFB727002083C7579123801C
:10850800F500C1BFB72700209387679903C7070005
:1085180015E305472380E700058909CDB726002024
:10852800372500209386868B4146A545130585820D
:108538006F3040780145828001111388F5FF06CE1F
:1085480022CC26CA4AC84EC652C41378F80FAD4585
:1085580063ED050BB7D503000A089385C5BB2E98B4
:108568003E8A83270800BA893689B284828785457E
:10857800EFB07FDE2A8419E1EFF0BF952285F24043
:108588006244D2444249B249224A056182808945FF
:10859800EFB07FDC2A847DF12685EFE0CFF0F9BFCC
:1085A8009145EFB05FDB2A8471F95286CE854A8502
:1085B800EFB0DFD0EFF0FF91EFF0CFC2EF70A00582
:1085C80075BFA145EFB03FD92A844DF95286CE85B3
:1085D8004A85EFB0BFCE2685EFE0EFECEFE02FE362
:1085E800EF70600161BFB145EFB0FFD62A8459F53D
:1085F8005286CE854A85EFB07FCC2685EFE0AFEA7C
:10860800EFE0EFE0EF60307F75B7094485BF79711F
:108618004ECEAE896C0022D426D24AD006D62A89FC
:10862800B284EF00107B2A840DE1CE854A85EFB035
:108638008F9B2A8419E93245B7360100268793862D
:10864800067E2D468145EF10E0132285B250225454
:1086580092540259F2494561828079714ECEAE89B1
:108668006C0022D426D24AD006D62A89B284EF00DA
:1086780050762A840DE1CE854A85EFB0EFA42A848E
:1086880019E93245B746010026879386668C4D4620
:108698008145EF10200F2285B2502254925402597E
:1086A800F24945618280397126DAAE844C0022DCB9
:1086B8004AD84ED652D406DEAA893289368AEF00C5
:1086C80050712A8431EDA6856303090283D704001B
:1086D8002C002314F10083D724002315F1009307FD
:1086E80020302316F100930780022307F1004E85FE
:1086F800EFB04F8C2A840DE55946A6851305A100D5
:10870800230421019780FE1FE78040B01245B73649
:10871800010052879386A67825462C00EF10800624
:108728002285F2506254D2544259B259225A2161D8
:108738008280797126D2AE846C0022D44AD04ECE83
:1087480006D6AA893289EF00D0682A840DE1A68569
:108758004E85EFB02F8B2A8419E93245B7360100D0
:108768004A879386E67F3546A685EF10A0012285C5
:10877800B250225492540259F24945618280BD4751
:10878800638CF50663E9B702A5476387F50663EDD1
:10879800B7009947638CF5049D47638FF5049547A7
:1087A800638CF50401458280B5476387F50463E16E
:1087B800B704AD47F5B7DD47638EF50263EAB70046
:1087C800C947638BF502D9476386F502C547C9BF18
:1087D800F5476383F50263E4B700ED47D1B7930724
:1087E8002005638BF5009307200D5DBF4845828007
:1087F8000841828008458280484182809307F00FB3
:10880800630EF506011126CAAA841305000222CCBC
:108818004AC84EC652C456C206CE3A89B689B28AEA
:108828002E8AEF90AFBF2A844D4515C8930700FBE9
:108838002300F400A300540123114401230234014E
:1088480013058400614663050902CA859780FE1FE7
:10885800E780C09BA2852685EF902FCA0145F2408C
:108868006244D2444249B249224A924A056182800E
:1088780081459780FE1FE78000A0E9BF09458280F7
:10888800011122CC06CE2A842306B100A306C1001A
:10889800EF50007115C18346C500B7270020214756
:1088A800938707CC639EE60003C5670078009306AC
:1088B800E0070146A2859937F2406244056182804B
:1088C80078009306E0070146A28503C55700E5B77F
:1088D800930700643306F6026F905FA105C903474A
:1088E800050085469307270093F7F70F63F0F60214
:1088F800411122C42A843A8506C6EF907FB8FD57F5
:108908002300F400B2402244410182808280035750
:1089180005009307000B6313F70283474500494797
:10892800639CE7000347150185476399E7000355F2
:10893800250085456F3090676D47C5BF828001115E
:108948002314B1006C0022CC26CA4AC806CE2A8954
:10895800B6842315C100EF00D0472A840DE12C000E
:108968004A85EFA07FDB2A8419E93245B736010032
:1089780026879386866D15462C00EF00B060228509
:10898800F2406244D244424905618280797193077A
:1089980020302314B1002315C1002316F1002C0048
:1089A80093078002014606D62307F100EFF0BFCFF8
:1089B800B25045618280C177797185073EC4894785
:1089C80026D22316F100AE84930780024C0022D4ED
:1089D8004AD006D62A892307F100EF00903F2A845F
:1089E8000DE12C004A85EFA05FEB2A8419E91245B6
:1089F800B746010026879386E68645462C00EF0099
:108A080070582285B250225492540259456182808E
:108A1800B28605466FF03FC9797126D2AE846C00E4
:108A280022D44AD04ECE06D6AA893289EF00703AAF
:108A38002A840DE1A6854E85EFA03FC52A8419E951
:108A48003245B73601004A87938646670D46A685A4
:108A5800EF0050532285B250225492540259F249E1
:108A6800456182807971930720202314B100231572
:108A7800C1002316F1002C0093078002014606D698
:108A88002307F100EFF03FC2B25045618280011127
:108A980022CC06CE2A842EC632C436C2EF504050AD
:108AA8000DCD0345C500B7270020A146938707CC05
:108AB80012472246B245631CD50003C56700B2863B
:108AC8002E86A2856244F24005616FF03FD3B286DC
:108AD80003C557002E86A285F5B7F24062440545C6
:108AE800056182806FF0BFB26FF07FB26FF07FC414
:108AF8006FF03FC479714ECEAE896C0022D426D275
:108B08004AD006D62A89B284EF00B02C2A840DE117
:108B1800CE854A85EFA0FFD02A8419E93245B746A9
:108B2800010026879386C6813D468145EF00904522
:108B38002285B250225492540259F24945618280EA
:108B4800B28601466FF03FB6011122CC2E846C002C
:108B580026CA06CEAA84EF00D027DD47630AF500AF
:108B6800930710102314F400A2852685EFA0DFD503
:108B7800F2406244D244056182802394050083D781
:108B8800850099E36FF07FAD09458280FDB7B7276F
:108B9800002003C7279D854763F9E702011122CC0E
:108BA8002E846C0026CA06CEAA84EF00902209E91A
:108BB800930700102314F400A2852685EFA0DFD0C8
:108BC800F2406244D2440561828059458280B727C9
:108BD800002023AEA7988280B727002023A0A79A59
:108BE8008280011122CC26CA06CE2A84AE84EF5098
:108BF800203BA6852285EFA06FF40DE92285231678
:108C08009100EF50E0391DC18346C500B727002009
:108C18002147938707CC6390E60203C56700780075
:108C28009306F0070146A285EFF05FBDF24062446B
:108C3800D2440561828003C55700D5B7011126CA01
:108C480006CEB68422CCDD4663E2B608D94663FE7A
:108C5800D50AA5466381D50A63EEB6049546638CAA
:108C6800D50899466387D50A054441687D18631677
:108C780006093AC6EFA04FF0330685403247420650
:108C88004182420441803305C4004205BA854181CE
:108C980032C6EF30D042AA8749C181C432462390F8
:108CA800C400B30580406244F240D2443E85056169
:108CB8006F80BFEAC5466380D504C9460D44E39575
:108CC800D5FAC167FD17E31EF6FA65B7F546638066
:108CD800D50463E4B600ED46D5B79306200563884E
:108CE800D5029306200DE391D5F8C167FD170D4411
:108CF8006319F600BDBF09448DBF9306200DE392AA
:108D0800D5F8310642064182ADBF15445DBF0D441A
:108D18004DBFC167FD171D447DB7F2406244D24480
:108D280005618280011122CC26CA06CE03C6450001
:108D38002E841307000281469945AA84EFF01FF09C
:108D48002AC629CD835704000346440093055400DE
:108D58002310F100835724002311F10089472312BF
:108D6800F100930780022303F1009770FE1FE7804C
:108D7800E049834744008A8526852314F100EFA043
:108D88007F9C2A8411C532459770FE1FE780003901
:108D98002285F2406244D244056182804D44CDBFB1
:108DA8005D7186C6A2C4A6C2CAC04EDE89476306E4
:108DB800F600C1470944631AF6040144B9C52E896F
:108DC8004C0832C6B689AA84EF00B0002A8432461D
:108DD8000DEDC1778507CA851305D1013ECC230E59
:108DE800C1009770FE1FE78060422C082685EFF0CF
:108DF8007FF32A8419E95245B73601004E879386D6
:108E080006731D462C08EF00F0172285B64026444D
:108E180096440649F25961618280797122D4368478
:108E28004AD04ECE52CCB2892E8A3A89814613074F
:108E380010022286D94526D206D6AA84EFF01FE072
:108E48002AC629C12286CA8523148100231241011A
:108E5800231331019770FE1FE780403B4C002685A5
:108E6800EFA05FB12A8411C532459770FE1FE780D5
:108E7800E02A2285B250225492540259F249624A99
:108E8800456182804D44F5B7011122CC26CA06CE31
:108E98004AC8DD472A84AE84638DF50281470355AD
:108EA80004006C002306F100EFA05FB00545638E57
:108EB800A40803458400B165938505B8EF904FA2D7
:108EC800E5472301F400B74701009387A79A5CC0E0
:108ED800A5A8034755013149B28633062703184927
:108EE8009C4232971043E31BF6FA83D74600035699
:108EF8004700E315F6FA8C4608479770FE1FE7808F
:108F0800E04149DD8347540103474401850793F74E
:108F1800F70FA30AF40063F0E704B38727031848A0
:108F280003550400BA97984783D6470003D627000D
:108F380083D50700EFF07FEE35F103458400B16576
:108F4800938505B8EF90CF995945F2406244D244D1
:108F58004249056182808347640191B7011122CC9F
:108F680026CA06CEDD472A84AE84639CF5060355DF
:108F78000500EFA06FC00356C401835624010357B0
:108F880044016D162A9642064182B307D640C207AD
:108F9800231EC400C18363F1E7089305C5FF3308A6
:108FA800F740635CB802BA96918EC206184C835596
:108FB800040103550400C1823E97EFF01FE615E156
:108FC80003458400B165938505B8EF906F915945C5
:108FD800F2406244D244056182806D159316050102
:108FE800F1B78147035504006C002306F100EFA098
:108FF800FF9B0545E38EA4FC03458400B16593857A
:1090080005B8EF90EF8DE5472301F400B74701005D
:109018009387A79A5CC065BF8547E9B7397126DA97
:10902800AE842C0022DC4AD84ED606DE2A89B289C4
:109038004D232A8421ED4A85EFA00FB483D644003E
:109048006D1563C5A60093160501C182984403D621
:10905800240083D504004A85EFF03FDC2A841DE50F
:109068003146A6850808230601009770FE1FE78091
:10907800E01983D724002245B74601004E8793861E
:1090880086935D466C00231EF100ED2D2285F2507B
:109098006254D2544259B259216182806FF01FF84C
:1090A8006FF0DFF7797126D206D622D44AD04ECE99
:1090B80052CC56CA5AC88944C5C159CE2E842A8969
:1090C800BA8A368B328AEFA02FAB930544008147CA
:1090D800711503D705006352A70A850793F7F70FA1
:1090E800B105E318FAFE8A854A85E521AA842DE5AB
:1090F80031453305AA02916593851570CD44977063
:10910800FE1FE780A0F3AA8921C931463306CA02A7
:10911800A2859770FE1FE780600F184483564400AD
:1091280003562400835504004A85EFF01FCFAA8414
:109138001DED0245B74601008547568793868693FD
:109148005D464C002302F1004EC423064101A306EC
:109158000100230761013D25B2502254268502599A
:109168009254F249624AD24A424B456182804E8506
:109178009770FE1FE78080FAC5B7ED44F1BF79719B
:109188004ECE37D60300AE89C16526D20147AA84E0
:1091980089461306862AFD15054522D406D64AD0E7
:1091A800EF10F01A054431CD2A89130730028146A1
:1091B8001146F5452685EFF07FA82AC6554431C1EA
:1091C8008357A900CE8601462314F1009147231541
:1091D800F10085472300F500B2472C002685A380BF
:1091E80007003247FD572301F7003247A301F70074
:1091F800EF10B00B2A8411C532459770FE1FE78027
:10920800E0F12285B250225492540259F249456144
:109218008280411106C6EFF08FD619C5B2404101D0
:109228001773FE1F670083EFB2404101828001116E
:1092380006CE2AC6EF903FFA3245B727002023AE64
:109248000798B727002023A0079A9145B727002041
:10925800A380A7CCEF300061F24005616F20103B7E
:1092680093970501C18763DB0712B727002003C561
:1092780017CC797122D44AD006D626D22E89EF800F
:109288007FA02A8451CD034705009307000A63167F
:10929800F70885474C08A305F100EFA0EF80AA84E2
:1092A8000DED8347610171476375F708138717FE52
:1092B8001377F70F9306000263F4E608858BD5C78A
:1092C800B727002083A7C799994481CB0355240069
:1092D8001306B1004C088297AA848347B10099C746
:1092E800084409C59770FE1FE78040E395E05247A0
:1092F800B7070001938707F07D8FB70712009387A0
:109308000710630CF70003476101ED476317F70087
:10931800035524008545EF3060492285EF803F8B57
:10932800B250225421653345A9009254025945612F
:1093380082803707301405073357F700058B3DDF68
:10934800372700200327079A49DB0347510151F7C4
:109358002306F10099472308F100035524006C0007
:1093680023170100EFA0CF988DBFB727002083A750
:10937800079A9DC3035524001306B1004C08829731
:1093880029DDAA8483475101A9FB8347610123088A
:1093980091002306F100D1B79944EDB701458280C9
:1093A800397122DC26DA06DE4AD84ED652D456D295
:1093B8005AD0A5472A84B2846399F5108347450299
:1093C80003570600835A260085072302F5029307F0
:1093D800F7FFB387FA025442C207C183B69703C99D
:1093E800170083C707008346C50022093369F900BF
:1093F80085476390F6023307570323100600814917
:10940800014A130B3501931A070193DA0A0163E144
:109418005907C167FD176302F90C83570401637E7E
:10942800F90A050942098346C4001359090123179B
:1094380024010547035504009305E400639FE600F3
:109448002315F100930720302316F10093078002BB
:10945800231421012307F1002C00EFA0AFB5034529
:109468008400B165938505B8EF809FC75945BDA0B5
:1094780083D62400DC4083452401ED161386590069
:10948800C206C1823E965A85EF907FDA05C9630C01
:109498003A01C84003D62400B305350152959770A8
:1094A800FE1FE780A0D683D724003E9A83D7040006
:1094B800420A135A0A0185072390F40083D724002F
:1094C800BE99C20993D9090199B703474600A9472C
:1094D8006310F7028347450281CF0145F250625479
:1094E800D2544259B259225A925A025B216182805F
:1094F800834624011309340137D503004A86894578
:109508001305052AEF90BFD219C10545C1BF83468F
:10951800240137D503004A8689451305452AEF906B
:109528001FD165F58346240137D503004A8689454E
:1095380013058529EF90BFCF69F98346240137D5F4
:1095480003004A86894513054528EF905FCE55FDEF
:1095580003C74400BD47E3EAE7FAA56793874712C4
:10956800B3D7E700858BD5D3834744028507230209
:10957800F40203D9240071BDB727002003C687CCA5
:10958800B727002003A7479A81476315F60081464D
:1095980036858280BA8613078702835587FDE3895B
:1095A800A5FE850793F7F70FCDB7011106CE2EC696
:1095B800EFF09FFC01CD8347A500B2451387170044
:1095C8006396E50093F707F82305F500F240056177
:1095D8008280011106CE2EC6EFF01FFA05C5B245EE
:1095E80091C188C1834785001307E00F5D456388F3
:1095F800E7001307F00F01456383E7005945F24080
:10960800056182800945E5BF411122C42A842105EC
:1096180006C626C24AC0EFF06FAC83472400A517E0
:1096280093F7D70F91EB0347C40085476310F706FC
:109638001C4881443149A9E3FD5723010400A304D0
:10964800F400230204021305C4002244B2409244E9
:1096580002496146814541011773FE1F6700A3C196
:10966800B38724033E95084509C59770FE1FE78018
:10967800E0AA850493F4F40F834744010848E3E122
:10968800F4FE9770FE1FE78060A97DB7084C75F956
:1096980065B7411122C4416406C626C29307E4FF98
:1096A800630EF500AA8485E1EFF01FED01E91305CB
:1096B800F4FFEFF07FEC19C123109500B24022446B
:1096C80092444101828085476395F504EFF0DFEA13
:1096D8002A846DD5FD572310F500834784001307AE
:1096E800F00F6385E7021307E00F638BE7008346FB
:1096F80024000345940001475146A685EFF00F90DA
:109708002285EFF07FF0FD572304F40023050400C1
:1097180075B78947E394F5FA8545EF40D02B59FD95
:109728002685EFF07FE52A844DF949BF39C90347FB
:1097380085009307F00F6306F704011122CC06CECB
:109748002A84834625008355050003459500014773
:109758005D46EFF0AF8A03472400E1476319F7003D
:10976800035504006C0023060100EFA02FA4F9574D
:109778002304F4002285EFF03FE9F24062440561DA
:10978800828082809307F00F6306F706011122CCCE
:1097980026CA2A844EC6AE84B689AA859306850051
:1097A800379501004AC852C43A89328A130545736D
:1097B800794606CEEFF0CF91A3042401230144019A
:1097C8002322340185C01305C4006244F240424993
:1097D800B249224AA685D244614605611773FE1F25
:1097E8006700C3A2F2406244D2444249B249224AC5
:1097F800056182808280B72700202384A79A82800F
:109808009547639CF50683474502854685072302ED
:10981800F50283570600584203462600FD17C20783
:10982800C1836318D6048A07BA9703C7170083C78A
:1098380007002207D98F0357E50063F9E7044111B0
:1098480006C622C485072316F5002A849305C50099
:1098580003550500EF905FEC03458400B1659385DF
:1098680005B8EF80FF87B2402244D9473E854101C1
:109878008280C946B387D70245BF83464600294739
:1098880085476396E6000347450211C381473E8535
:1098980082809D476392F506834745028356E5001B
:1098A80085072302F502835706005842FD178A07E9
:1098B8003E978347170003470700A207D98F014740
:1098C80063F6D704411106C622C485072A842316E5
:1098D800F5009305C50003550500EFF0AFC4034537
:1098E8008400B165938505B8EF808FFFB2402244AC
:1098F80059473A854101828083464600A947054772
:109908006396F60003474502133717003A858280AD
:10991800411122C406C626C2B5472A84639BF504B2
:1099280083474502B28485072302F50203550500E3
:10993800EF909FA483D704001307F5FF014563C583
:10994800E7020357E400035504009305C400BA97DF
:109958002317F400EF901FEB03458400B16593854E
:1099680005B8EF80EFF75945B240224492444101CF
:109978008280034746009D470545E317F7FE0345E8
:10998800440213351500CDB7C547639EF5068357C6
:10999800060003572600FD17B387E7020347450271
:1099A80005072302E5025842C207C1833E97834751
:1099B800370003472700A207D98F41677D176395B2
:1099C800E70081473E858280138717002316E5004C
:1099D8000357E500E3F7E7FE411122C49305C500EC
:1099E8002A840355050006C6EF903FEB0345840023
:1099F800B165938505B8EF80AFEEB2402244D947F0
:109A08003E85410182808346460029478547E39B7E
:109A1800E6FA0347450255F775B7011122CC26CA65
:109A28004AC852C406CE4EC683C7250015472A8A9F
:109A3800AE8432843689639DE7043686A2852685FE
:109A4800EFF01FDCAA8955E985476318F40A034734
:109A58004900A9476301F70203C594004A87854670
:109A68000146D285EFE09FD919E585454A85EFE0A3
:109A78001FD11334150083C6240003C59400014781
:109A88006946D285EFE09FD72685EFF0FFB751A052
:109A98001D476398E7003686A2852685EFF07FDFAD
:109AA80055B725476398E7003686A2852685EFF0E7
:109AB8003F8F49BF35476398E7003686A2852685DC
:109AC800EFF01FE541B745476398E7003686A28562
:109AD8002685EFF07FEBBDB75D47639FE70003C7BF
:109AE800C50085473686A2852685631DF702EFF0F7
:109AF800AFB98547631BF5048549A5476317F40289
:109B0800835709009DE30544E38709F6D947E39D98
:109B1800F9F62285F2406244D2444249B249224AC7
:109B280005618280EFF08FC3E9B703C594004A87C7
:109B3800A2860146D285EFE07FCC71F5A2854A85E1
:109B4800EFE0FFC313341500C1B70544D9B7397125
:109B580022DC06DE26DA4AD84ED652D456D283D72D
:109B680005001944B1E783C925002A89328A9387F9
:109B780059FE93F7D70FAE84DDE7B727002083C6D9
:109B8800879A1307F00F938A879A19446382E6022B
:109B9800F5476394F904EFF03F9EAA8921C1034673
:109BA800A5000DCE93178601E18763DD0700014408
:109BB8002285F2506254D2544259B259225A925ACA
:109BC80021618280F5454A85EFE09FCB83C7A900D4
:109BD80093E707F82385F900D9BF814983D6440064
:109BE800904483C5140003C504003800EF901FDDBE
:109BF8002A845DFD83C6240003C50A003800014697
:109C0800CA85EFE0BFBF2A8445F5B24799C3230050
:109C18000A0083C724007547E39BE7F8E38909F83E
:109C28002385F90071B7EFF03F95AA8A49D1854796
:109C38006391F90A83D5440088443000EF90AFF56A
:109C48002A843DF503C72A00C54763F2E70ADD47C2
:109C58006301F70CB727002003C59A0083C717CC08
:109C6800639CA70A014403C72A008D47631FF704B2
:109C78008357810003D7CA0063F4E7002396FA00EC
:109C880083D5CA004A85EFE0DFF5B727002083D7E0
:109C9800C7B16D47637BF70283D5CA005D4763761A
:109CA800B7021387350091056349F7001307B00F12
:109CB800BE856374F7009305B00F1166C2051306DD
:109CC8000629C1814A85EF8030155685EFF0DF936C
:109CD800C5B5834725001144E39C37ED5C41E38912
:109CE80007EC83D5440088443000829791BFB7279A
:109CF80002009387072AB3D7E700858BA1DF03C645
:109D080024003400D6854A85EFF03FD12300AA000D
:109D180045B583A70A01DDB783C62400380001468C
:109D2800CA85EFE0BFAD2A841DFD83C52400280045
:109D3800EFE0FFA405D923000A0035B7011122CCB2
:109D48003724002006CE26CA4AC84EC652C49309F4
:109D580004CC03C589009307800291653305F50299
:109D680093856570372900209304499A9760FE1FF0
:109D7800E780C02C03C6890093078002814533061B
:109D8800F60288C09760FE1FE780E04E9C404D4574
:109D9800A1C3930404CC1309499A0144130A80020D
:109DA800FD5983C78400636DF40237A501001305CC
:109DB80065B5EFE0DFE1379501001305255BEF900E
:109DC8006FCD379501001305A569EF40E0370145D0
:109DD800F2406244D2444249B249224A0561828033
:109DE800B30744030325090061468145050413743C
:109DF800F40F3E9523103501230105002314350186
:109E0800230505002302050231059760FE1FE78040
:109E1800804641BF01458280B727002083C697CC82
:109E2800814763E5D70001473A8582802E879105EF
:109E380003D6C5FFE30AA6FE8507E5B70DCD834720
:109E480025000547890793F7F70F6376F702411155
:109E580022C406C62A8483550500034535000147F8
:109E6800F9465D46EFE09F99F9572311F400B24097
:109E78002244410182808280B727002003C797CC03
:109E8800FD56814763E3E70082802310D500230154
:109E9800050085071105FDB701458280372600209A
:109EA80013063693930700022300F6003727002095
:109EB800FD572309F79237270020A302F792372787
:109EC80000202302F7928545B72700202398B792F0
:109ED800B72700202395079AB727002023AA079AB7
:109EE800B727002023A2079CB727002023AC079A96
:109EF800B7260020B7D70300938686929387472911
:109F0800DCC2B72700202386079AB727002093874B
:109F1800478C09472380E6002380E7002388E70071
:109F28002380E7022388E70237D70300130787282F
:109F3800D4C7D8DBB7D603000D47238CE702938636
:109F4800462837270020D4CB0327079B37D50300A3
:109F5800B7D603001305052A9386862AC8C3238427
:109F6800B70023950700238CB700239D0700D0CFA7
:109F7800D4D3238407022395070223A60702239D2F
:109F88000702D8DFB727002037A70100938747903B
:109F98001307C70523A00700D8C323A4070082809E
:109FA800411106C6EFF05FE711C503452500B24031
:109FB800410182800145E5BF411122C426C24AC041
:109FC80006C6AA842E893284EFF01FE511E941659F
:109FD800CA857D15EFF05FE4C54711C523109500CC
:109FE800230185008147B2402244924402493E85BC
:109FF8004101828029E78948354763931605011195
:10A0080006CE22CC26CA034716000346060093C78D
:10A01800F7FF2207598EF18F32C68DE7C4452A848F
:10A02800A685EFF0FFF732460147630FA6002285A9
:10A038006244F240A685D24405616FF0FFF72D47D0
:10A048003A85828013070008F2406244D2443A8578
:10A058000561828083C8050009486395080303A841
:10A0680045008347180003480800A207B3E7070123
:10A07800C2070D68C18713082890639507018947AF
:10A088006FF05FF705458280011122CC372400204C
:10A09800130454920347040006CE26CA4AC84EC683
:10A0A8009307F00F6300F704AA892945B2842E8923
:10A0B800EF70DFB605C99307100B2310F5002302D4
:10A0C8000500231135012313250123149500AA85C2
:10A0D800034504006244F240D2444249B249056152
:10A0E8006F70BFC1F2406244D2444249B24905612F
:10A0F80082804111B727002026C2AE8483A5079B22
:10A1080022C406C62A84EFF0BFE9098909C9228555
:10A118002244B240A685924441016FF04F86B24076
:10A1280022449244054541018280411122C426C23D
:10A138004AC006C6AA84130445001309850B835731
:10A1480004009DC3084409C59760FE1FE78000FD11
:10A158002285314681459760FE1FE780C011310492
:10A16800231A04FEE31D24FDB2402244FD57239028
:10A17800F4000249924441018280B727002003C6B7
:10A1880097CCB727002003A7C79B81476315F60024
:10A19800814636858280BA861307870B835587F4F4
:10A1A800E389A5FE850793F7F70FCDB7B7270020FA
:10A1B80083A7479C89CB03D747006314A700884728
:10A1C80082809C43C5BF01458280411106C6EFF0DD
:10A1D800FFFD09C50845B240410182800145E5BF40
:10A1E800011126CA9384450022CC4EC606CE4AC821
:10A1F80052C456C25AC026878149014481468147C4
:10A208003D450356070055CED9E20354470083570E
:10A218002700B286A297C207C18385093107E39256
:10A22800A9FE25C82E89916593854570228597607A
:10A23800FE1FE780A0E02A8B29CD814A014A8C4481
:10A2480085C503D6440033054B019760FE1FE780A0
:10A25800E0FB83D7440088443E9A420A135A0A0115
:10A268009760FE1FE78080EB63890A0031468145CD
:10A2780026859760FE1FE7800000850AB104E3E0A9
:10A288003AFD2326690123148900054521A0630DA1
:10A29800D6000145F2406244D2444249B249224ABA
:10A2A800924A024B0561828003562700E313F6FEAB
:10A2B800035647003294B2974204C2074180C183D3
:10A2C800A9BF0545E37835FDA9BFB727002083A7B7
:10A2D800879B99E30145828098470357A700631538
:10A2E800A7001385470082809C43E5B7411106C645
:10A2F800EFF0BFFD11C503550500B2404101828052
:10A308000145E5BF411106C6EFF03FFC11C5034505
:10A318002500B240410182804145E5BF411122C478
:10A328002A842E8506C6EFF0FFFDAA8505462285FC
:10A33800EF30304A95476305F500BD476313F500D4
:10A348002145B2402244410182804111B7270020B3
:10A3580022C406C603A4879B81469387879B29C08E
:10A3680018440356A70018406317A60285CA98C266
:10A378002E8581C92146930544009760FE1FE7801A
:10A38800E0E822859760FE1FE78040D90145B2408A
:10A39800224441018280A2863A84D1B798C3C9BFBA
:10A3A8000545F5B7372700208327479C0146130743
:10A3B800479CA9C703D847009443631CA80201110E
:10A3C80006CE22CC26CA0DCA14C2AA843E852E8483
:10A3D8009760FE1FE78080D42C002685EFF0FFF6FB
:10A3E80001E519C0B2471CC0F2406244D24405617D
:10A3F80082803E86B68775BF14C3C1BF054582807B
:10A40800411122C42A84090506C6EFE02FCDFD5765
:10A41800A301F400B240224441018280B727002002
:10A4280003C797CCB727002083A7079C2A86050770
:10A4380081463E8583D707006388C7008506930752
:10A448006500E3E8E6FE01458280411122C44164CB
:10A4580006C626C29307E4FF630EF500AA8485E1C9
:10A46800EFF0DFFB01E91305F4FFEFF03FFB19C143
:10A4780023109500B24022449244410182808547CE
:10A488006394F504EFF09FF92A846DD5FD572310E6
:10A49800F500834724001307F00F6384E7021307CE
:10A4A800E00F638AE700034534000147F946514647
:10A4B800A685EFE0AFB42285EFF09FF4FD572301A6
:10A4C800F400230204007DB78947E395F5FA854532
:10A4D800EF30705045F12685EFF05FF42A8455F986
:10A4E80051BF1D71A6CACEC686CEA2CCCAC8D2C4D8
:10A4F800D6C2DAC05EDEAE8483C52500F947AA89D4
:10A508006397F504EFF09FF12A8411ED0144228549
:10A51800F6406644D6444649B649264A964A064B0A
:10A52800F25B25618280834725000547890793F7F9
:10A53800F70FE37DF7FC034535000147F94601466F
:10A54800CE85EFE0AFAB2285EFF09FEBC1B703AB51
:10A558000400B7070001938707F037071200B377A5
:10A56800FB0013070710B28A0149638AE7022EC667
:10A57800EFF0DFEA2A89B2451DC10346450005C24E
:10A5880093178601E187E3C307F84E85EFE04FAFE5
:10A598008347490093E707F82302F90085BF372A64
:10A5A800002003472A939307F00F130A2A931944AC
:10A5B800E30FF7F4E147E3ECB7F493D71500FD1781
:10A5C80013973700B7D703009387C7BEBA9703A876
:10A5D8000700E30E08F283AB4700E38A0BF2420B55
:10A5E800135B0B0163050B00C947E392F5F283D6B1
:10A5F8004400904483C5140003C504003808029839
:10A608002A84E31605F02C084E85829B2A8421C9EA
:10A6180083C71400E39D07EE83C72400230AA10023
:10A6280039472308F1006399E70262478347170017
:10A6380003470700A207D98F0C084E852319F1009C
:10A64800EF801FEBE30405EC14080546D9454E8559
:10A65800EFE0EFC32A8465BD83578101F1BF83C64C
:10A6680024009147E384F6EA03450A0038080146C6
:10A67800CE85EFE0AF982A84E31B05E883C5240064
:10A688002808EFE0CF8F19C123800A009840B70748
:10A698000001938707F07D8FB70712009387071093
:10A6A800E306F7E6E30409E683C724002302F9007A
:10A6B800B9BD011106CE2EC6EFF05FD601CD834796
:10A6C8004500B245138717006396E50093F707F82E
:10A6D8002302F500F24005618280B727002003A716
:10A6E800879B19E3014615A81C4703D8A700636B8D
:10A6F800050183584700B38608016355D500814694
:10A70800639416011843F1BF3E86C10703D3A7FF20
:10A718006317A30099C123900501328582808506BD
:10A72800C206C182F1BF397152D42E8A4ED6930522
:10A73800E101AA89528522DC4AD856D206DE26DAF9
:10A74800328936C63AC4BE8AEFF03FF9054435C5AA
:10A75800AA840355E1013944EFF05FA539CD0328F8
:10A768004500630C08042247B246D6874A86A68568
:10A778004E8502982A8431E19307E00F638FFA022D
:10A7880003C704008947631AF702D84083471700B4
:10A7980003470700A207D98FC2070D67C1871307B0
:10A7A8002790639CE7008347190003460900D28578
:10A7B800A2075D8E4E85EFF03F8D2285F2506254E0
:10A7C800D2544259B259225A925A216182807971DF
:10A7D80022D4035425004ECEAA89228556CA06D60D
:10A7E80026D24AD052CC5AC85EC662C4AE8AEFF0AE
:10A7F800DF9801E92285EF90AFEF594429E9014438
:10A80800B9A003C789008547AA840144631AF702DF
:10A81800AA8513858900EFF0BF9C29CD03D7640072
:10A8280083D68400D04483D5440003D52900E1476A
:10A83800EFF07FEFD9472A846318F50223A60400B6
:10A848002685EFF09F8E49C0D947E30AF4FA22859E
:10A85800B250225492540259F249624AD24A424BA7
:10A86800B24B224C4561828061DD83D7440023903E
:10A87800FA00F9B713894400014AB94B594C3D4BCA
:10A8880083550900D5DDE14763067A010357C900FE
:10A8980011C3D94703572900835649000326890065
:10A8A80003D52900EFF03FE82A84631985012324A2
:10A8B8000900050A3109E3156AFD59B77DD983579F
:10A8C80009002390FA00F5B703D529002DB7011127
:10A8D8002317C1009307E00F1306E10001478946DB
:10A8E80006CEEFF05FE4F24005618280797122D4F0
:10A8F8002A840355850026D2AE849305210106D605
:10A908004AD0EFF09FDD6308050E834785002AC60D
:10A9180093F707028DCF03552101EFF01F8BAA870C
:10A92800B24501ED8357840039452390F400B250B5
:10A9380022549254025945618280035524004946A5
:10A94800829711C5835784002390F400CDB703592B
:10A9580024004A85EFF07F8211ED41657D15EFF007
:10A96800DF8119E58357840025452390F400C1B79A
:10A9780023102501130745008147BD4603560700EC
:10A988002DE63147B387E702130984003146CA85AB
:10A9980091073E959760FE1FE78040873146CA853C
:10A9A80048089760FE1FE78060860356C400035579
:10A9B800240041478146DD45EFE04FA82ACE19E53E
:10A9C8008357840045452390F40095B70C480356F7
:10A9D800C4009760FE1FE7806083035524004C087D
:10A9E800EF90CFCC29D5594599B785073107E3971B
:10A9F800D7F8254581BF0545B1B7797122D42A8496
:10AA08000355850026D2AE849305E1014AD006D6C7
:10AA18003289EFF09FCC51C58347850093F7070231
:10AA2800A9E7034714019307200519E38347440066
:10AA38008356A400504483558400035524000147DD
:10AA4800EFF07FCEAA8721E98347140199E70355E0
:10AA58002400EF90CFC0D94711E18147B25022546A
:10AA6800925402593E85456182802AC60355E10108
:10AA7800EFF0AFF5AA8705C9B2450355240049464A
:10AA88008297AA8759DD035784002390E40003477F
:10AA9800140161F7E1B75947E317E5FE2300090000
:10AAA8006DBF8547CDB7B947F9BF397122DC4AD8A0
:10AAB8004ED652D406DE26DAAA892E8A32C63689BE
:10AAC800EFF0DF95094415C5834725001307E00F0C
:10AAD800AA845D44638FE7001307F00F5944639A13
:10AAE800E700324605E2D2854E85EF904FC42A84AE
:10AAF80015CD2285F2506254D2544259B259225A85
:10AB08002161828003550A009305E101231F01009A
:10AB1800EFF0BFBC0355E101EFF0CFFEAA85054673
:10AB28004E85EF30004B2A845DDDE1B79307F00FC7
:10AB3800E301F9FC37A50100938624007946A68530
:10AB4800130545E4EFD0DFD8A38124015DB739713F
:10AB5800B727002026DA83A4879B52D45AD05ECE2A
:10AB680062CC06DE22DC4AD84ED656D266CA2A8B7A
:10AB7800AE8B328C368A99E08149B9A0804483DC57
:10AB880044000149835AA400631499018440E5B73D
:10AB98008357A400A28963F867010509420913597C
:10ABA80009014104D5B7E3EAFBFE630C0A008345BB
:10ABB80004004840D28662863AC6EF804FE73247A3
:10ABC80069DD19C323105701F25062544E85D254DF
:10ABD8004259B259225A925A025BF24B624CD24CF9
:10ABE8002161828003D7050083D62500854763E964
:10ABF800E60439C7411183C6450026C237D503008C
:10AC08009384550022C426862E841305052A894577
:10AC180006C6EF80CFE1C14711CD83464400835576
:10AC280024000355040001472686EFF05FF28147B0
:10AC380011E1A947B240224492443E8541018280F5
:10AC48003E8582802E860355060083D525008547DC
:10AC580063E2A50205C18346460041110147150676
:10AC680006C6EFF0DFEE814711E1A947B2403E8505
:10AC7800410182803E8582802E860355060083D559
:10AC88002500854763E2A50205C1834646004111B8
:10AC98000147150606C6EFF09FEB814711E1A9476A
:10ACA800B2403E85410182803E85828039714ED610
:10ACB80083D7250083D9050006DE22DC26DA4AD8A8
:10ACC80052D456D25AD05ECE62CC66CA6AC863E005
:10ACD80037198547638E0914416BAE8A2A8A231473
:10ACE800010002C6014401497D1B894B054CC94C32
:10ACF800054D83D52A000147814601464E85231319
:10AD08000100EFF0DFE4AA846300051209EC1307E1
:10AD18002002930661005A8695455285EFD01FF2AE
:10AD28002A84630805120357810083C7040045C7B6
:10AD38000347A100630CA70741476385E7022C007E
:10AD48005285EF80BFDF09CD34001546D9455285BD
:10AD5800EFD0FFD311C532459750FE1FE780003C66
:10AD68008147F9A083D7A400414613052400230096
:10AD7800F40083D7A400A183A300F400CC4097502B
:10AD8800FE1FE780A0484904835781008507C20752
:10AD9800C1832314F10063F9270983D7A4006385CD
:10ADA80067098509C20993D90901A1B7E39977F918
:10ADB80083D7A4000946130524002300F40083D791
:10ADC800A400A183A300F400CC409750FE1FE780A5
:10ADD800E043110455BF22C60359610003C7A4000C
:10ADE80013052400638277033359990323057101FE
:10ADF8002300E40083D7A4004146A183A300F40004
:10AE0800CC401379F90FA5BF230581012300E40085
:10AE180083D7A400135929001379F90FA183A3003C
:10AE2800F4000946CC4055B78357810089FBA947F0
:10AE3800F2506254D2544259B259225A925A025B81
:10AE4800F24B624CD24C424D3E852161828085474F
:10AE5800C5B7C547F1BFB727002003C7279D85475A
:10AE680063F3E706011122CC26CA4AC806CE2A8413
:10AE78003289AE84EFF08FDA01C9034725009307C2
:10AE8800E00F5D456308F700631C0900A68522856D
:10AE9800EF90CF86F2406244D244424905618280F5
:10AEA80003D504009305E10023170100EFF0FF82AA
:10AEB8000355E100EFF00FC5AA8505462285EF305E
:10AEC800401169D5C1BF5945828013F7050201C7F2
:10AED800B2856FF0AFC4411126C24AC006C622C46B
:10AEE80013F98500AA846317090013978501618700
:10AEF800635D070232853684EFF0CFC0AA85054628
:10AF08006313090001462685EF30A00C01E90145CD
:10AF1800B24022449244024941018280834794000E
:10AF2800E5DB83478400E5F7E5B793F72500E5F30C
:10AF38000D45F9BF7971AE8622D42A8403D506005F
:10AF48009305E10106D636C6EFF02FF909CD834502
:10AF58008500B2460356E1012285EFF01FF7B25093
:10AF68002254456182800545DDBF13F7050201C7FC
:10AF7800B2856FF0AFBA411122C426C206C693F457
:10AF880085002A8491E4139785016187635007023D
:10AF98003285EFF02FB7AA85054691E00146228554
:10AFA8002244B240924441016F30A00293F7250039
:10AFB800014591E30D45B24022449244410182800B
:10AFC8007971AE8622D42A8403D506009305E1015F
:10AFD80036C606D6EFF06FF0B24601CD8345850040
:10AFE8000356E1012285EFF05FF8B2502254456123
:10AFF80082800545DDBF797126D2AA840355A50054
:10B00800C16722D44AD04ECE06D623170100FD17B9
:10B018003284B6890149630DF500050583C604002D
:10B02800D04042051307E1004181EFF05FB22A8961
:10B0380083C60400D04037D5030089451305052A87
:10B04800EF80EF9E1DC503D4A4002285EFF00FAA60
:10B0580009C57D142A944204418063840900239021
:10B068008900B25022544A8592540259F2494561E6
:10B07800828083C60400D04037D503008945130574
:10B08800452AEF80CF9A61F183C60400D04037D5B6
:10B098000300894513054528EF806F9919C9E30610
:10B0A80009FA8357E100E39287FA0354A9007D1453
:10B0B8005DB703D4A40055B7397122DC26DA4AD823
:10B0C8004ED652D456D25AD062CC06DE5ECEBE8957
:10B0D80083C785002A8AAE84C18B328C36843A892C
:10B0E800C28A468B9DE783CB04008947638BFB04A8
:10B0F8006285EFF0AF8B1DC18328050063800802CD
:10B108005A88D6874E87CA862286A685528582980F
:10B1180039A03285EFF06F8BAA8711ED3945F250CF
:10B128006254D2544259B259225A925A025BF24B93
:10B13800624C216182802946A6855285829745D531
:10B14800F9BFD8408347170003470700A207D98FE4
:10B15800C2070D67C187930607906384D72263CE21
:10B16800F60693062780638ED70C63C1F602130791
:10B178000780E3CFE7F62D45E39309FADC4403C6DD
:10B188000700CC432310C900228569A21307378022
:10B19800E390E7F62D45E39409F885472310F90075
:10B1A800DC44814583C707002300F40003D5A400CD
:10B1B800050542054181EFF04FD283570900631717
:10B1C800051291072310F900114681451305140053
:10B1D8009750FE1FE780200A29A2930627906383D1
:10B1E800D71863CED71293063790638CD7181307F6
:10B1F8004790E39FE7EE2D45E39309F2DC441D47B2
:10B208002310E90003C707002300E40003C7170061
:10B21800A300E40003D727002301E40003D7270095
:10B228002183A301E40003C747002302E40003D7F6
:10B238006700A302E40083D76700A1832303F40017
:10B248004DA02D45E39D09ECDC446C0083C9170033
:10B2580003C70700A209B3E9E90011472310E90071
:10B2680083C707004E852300F400DC4483C717001A
:10B27800A300F400EFF06FC6AA8435C50356C100D9
:10B28800C1659306E100FD158329C500EFF0BFD61F
:10B2980019ED83C60400D04037D50300894513054E
:10B2A800452AEF70DFF801E5FD572317F10003C7C2
:10B2B800090089476310F70283A549000946130569
:10B2C80044009750FE1FE78060F483570900890700
:10B2D8002310F9008357E1002301F400A183A3019F
:10B2E800F40001452DBD23173101EDB703470500D3
:10B2F8008907BA972310F9008357A500A300F40023
:10B308008357A500A1832301F400034605004C419F
:10B31800130534009750FE1FE78040EFD9B7C844A3
:10B328009750FE1FE78000F893170501C1832A870D
:10B338001D45E3E637DF6399F90023100900CC4483
:10B3480003560900CE9589B54207B3863A01418371
:10B3580063C7E600B38737412310F900CDB7231040
:10B368005901F1BF2D45E39C09DACC445285EFE041
:10B378003FC3231079012300A4002181A300A40066
:10B388008DB72D45E39D09D8DC442310790183C787
:10B3980007002300F400DC4483C71700A300F4006F
:10B3A80089B71D71CAC82A8903552500A2CCCEC603
:10B3B800D2C4D6C2DAC05EDE62DC66DA6ED686CE6B
:10B3C800A6CA6AD8AE8AEF703FFB130CF5FF931735
:10B3D8000C01B72B0020C1832A8A814913844BA50D
:10B3E8003EC6372B0020B72C0020C16D8357C900FB
:10B3F80063F6F9008357040063CC870103552900DD
:10B4080093854BA5EF803F9A2A8D15CD594D25A8D8
:10B4180083278900139719009305E101BA9783C41C
:10B42800170083C70700A204DD8C2685EFF0EFAA7A
:10B43800AA8515E923909A004840054D09C59750FB
:10B44800FE1FE780A0CDF64066446A85D64446498B
:10B45800B649264A964A064BF25B625CD25C425D6C
:10B46800B25D2561828032488348490083A64C9B9F
:10B478000356E1010355290081471307AB9AEFF002
:10B48800BFC32A8D13884C9B09C523909A00484056
:10B4980075B75C4085E703552900514781461386F7
:10B4A800FDFFBD45EFD08FF9B727002048C01388AE
:10B4B800479B09E523909A00454D71B783570400CF
:10B4C8000357AB9A9304AB9A3E976347470113C758
:10B4D800F7FF52972390E400484003D604008325E1
:10B4E80008003E9585099750FE1FE78020D28357B4
:10B4F800040003D70400C20993D90901BA9723109D
:10B50800F400EDB5397122DC2A840355250006DEE6
:10B5180026DA4AD84ED652D45AD05ECE62CC66CA03
:10B528002E8B56D26AC8EF703FE52A8A8346C4003C
:10B538008355A4000355840078001306D400130C27
:10B54800BAFF651AEFF0AFE0420A37290020AA894E
:10B558008144135A0A01B72B0020B72C0020130985
:10B5680049A56386090463D48405938A4C9B834860
:10B57800440083A60A000356C100035524005288DC
:10B5880081471387AB9ACE85138DAB9AEFF0DFB264
:10B5980015C5814A0356C1008355A4004E859306FC
:10B5A800E100EFF05FA5AA89639D0A065DF9E5E071
:10B5B8008357840029452310FB0089A083570D0079
:10B5C80003560401E317F6FC83A50A004848975080
:10B5D800FE1FE780A0D455DD83274900A1E303556A
:10B5E80024004166454781467D169D45EFD00FE50D
:10B5F80005E58357840045452310FB00F25062544B
:10B60800D2544259B259225A925A025BF24B624CB6
:10B61800D24C424D216182802322A90083DAA900FD
:10B6280095BF83274900A697238057019387140065
:10B638001397070183274900418393DA8A00BA9751
:10B6480023805701138724008326490093873400F9
:10B65800420791044183C207C204C183C18036975F
:10B6680011CD8356E1002300D70003274900BA977C
:10B678000357E10021832380E700E5B5FD56230049
:10B68800D70003274900BA972380D7000DB7035581
:10B698002400B72500208980239A95A4938545A581
:10B6A800EF806FD621DD594591BF411122C406C6EE
:10B6B80093F705012A84328585C3EFE0BFC4AA85C4
:10B6C80005462285EF20F01095476305F500BD4734
:10B6D800631DF502214515A893F7450099CBEFE0C6
:10B6E8007FC20546AA8522852244B24041016F20C7
:10B6F800500E93F7050489C7EFE0DFC00146DDB7B8
:10B7080013F51500133515000605B2402244410112
:10B71800828079714AD04ECE52CC06D622D426D217
:10B728002A8AAE89014983D749006364F900014533
:10B73800A1A083A7090013141900930414003387E8
:10B74800970003470700A29703C507002207930540
:10B75800E100598DEFE07FF805E983A70900054569
:10B768003E94034704002380E70083A70900BE94A2
:10B7780003C70400A380E700B25022549254025930
:10B78800F249624A45618280834585000356E1009B
:10B798005285EFF09FF105C183A709003E94034746
:10B7A80004002380E70083A70900BE9403C70400B0
:10B7B800A380E700D1B70509420913590901A5B7C4
:10B7C800011122CC2A8403D505009305E10006CE99
:10B7D800EFE0BFF001CD834585000356E1002285E7
:10B7E800EFF0BFECF2406244056182800545DDBFA1
:10B7F8001D71CAC82A890355250086CEA2CCA6CABF
:10B80800D2C4D6C2DAC05EDE62DC66DA2E8ACEC662
:10B818006AD86ED6EF705FB62AC68346C9008355CC
:10B82800A9000355890078081306D900EFF02FB254
:10B83800B247B7240020416B938AA7FFC20AAA8B9C
:10B84800014493DA0A01372C0020B72C0020938496
:10B8580044A57D1B63810B1A0356C10183C58B0068
:10B8680003552900EFF07FE4AA8D6311051883487A
:10B87800490083A64C9B0356C101035529005688ED
:10B8880081471307AC9ADE85EFF01F83AA8D9309D1
:10B89800AC9A138D4C9B631B051429C003D7090070
:10B8A80083D7240011076397E7003247A2976D17E3
:10B8B80063CAE706B7250020938745A503D7270065
:10B8C80003552900938545A53354E4022390870046
:10B8D800EF80EFD0AA8D15C1D94D05A003552900D9
:10B8E800494781465A86C545EFD04FB5C8C015E5CA
:10B8F80083D7AB00C54D2310FA00F64066446E8529
:10B90800D6444649B649264A964A064BF25B625CDB
:10B91800D25C425DB25D2561828083D709009107C0
:10B928002391F400DC4003D7AB009306E101A29712
:10B938002380E7009307140013970701DC40418335
:10B948005E85BA9703D7AB0021832380E7000356AF
:10B95800C1018355A900EFF00FEA13072400D44072
:10B9680093073400420711044183C2074204AA8B9B
:10B97800C1834180369721E1FD562300D700D84086
:10B9880083250D00BA972380D700C84003D6090045
:10B9980022959750FE1FE780608783D709003E9461
:10B9A8004204418001F8835789002310FA00E39686
:10B9B8000DF4A94D99B78356E10183250D002300A5
:10B9C800D700D840BA970357E10121832380E700C5
:10B9D800C84003D6090022959750FE1FE7800083D0
:10B9E80083D709003E9442044180ADB583D7AB00AC
:10B9F8002310FA0045BF814D75B75D71A6C2CAC054
:10BA0800AA840359850003552500A2C44EDE52DCE2
:10BA18005AD85ED662D466D286C656DA6AD06ECE58
:10BA28002E8BEF707F95930BD5FF7115131A0501B7
:10BA3800B72900200144135A0A01372C0020B72CDB
:10BA48000020938949A56359741583C6C40083D51A
:10BA5800A4001307E1001386D4004A85EFF02F8F66
:10BA68002A8D630B05120359A500834585000356EB
:10BA7800E10003D52400EFF05FC36314051283C807
:10BA8800440083A64C9B0356E10003D5240052884A
:10BA980081471307AC9AEA85EFF00FE2930DAC9A51
:10BAA80013884C9B631F050E1DC883D70D0003D751
:10BAB80029008907630CF706B7250020138745A5D9
:10BAC8008357270003D52400938545A53354F402F2
:10BAD80023108700EF80EF9C15C5594525A003D595
:10BAE800240041664D4781467D16A545EFD00F9548
:10BAF800B727002023A2A9001388479B1DE1231024
:10BB08002B014545B640264496440649F259625AE7
:10BB1800D25A425BB25B225C925C025DF24D61617B
:10BB2800828083D70D0089072391F90083D70D0000
:10BB3800A29763D3770783A749000357AD00930AF9
:10BB48002400A2972380E70005049317040103A4A7
:10BB58004900C183C20A3E948357AD00832508007B
:10BB680093DA0A01A1832300F40003A5490003D650
:10BB78000D0056959740FE1FE780406903D40D00DD
:10BB8800C167FD17569442044180E30EF9EA05099E
:10BB980042091359090145BD294519FC23102B01F8
:10BBA80095B76DDC11BF8357050081E789473E854E
:10BBB8008280411126C2444122C406C64AC083C6B7
:10BBC8000400D0402A8437D5030089451305052A87
:10BBD800EF70EFE519C9834724002547E51793F768
:10BBE800F70F6377F702E14729A883C60400D0401E
:10BBF80037D5030089451305452AEF704FE361FDEA
:10BC08008947B2402244924402493E8541018280DC
:10BC18003729002083560993854713090993F5D2DC
:10BC2800035704003697C166E3CDE6FC916593851A
:10BC3800257031459740FE1FE7804040AA84CD47D4
:10BC480069D1314681459740FE1FE780C06283571E
:10BC580004008355090001460147B386E500C20682
:10BC6800C182636BF702AE97C207C18319C2231062
:10BC7800F90023A004002146A285138544009740BB
:10BC8800FE1FE780A058B72700209387879B98431B
:10BC980011EF84C38147B5B7504013154700050716
:10BCA8002A962315D60005464DBF3E871C43F5FF4F
:10BCB80004C381BF011106CE22CC26CA4AC809E9AD
:10BCC8008944F240624426854249D2440561828013
:10BCD8002AC62A84280036892314B1002305C10006
:10BCE800EFF07FECAA8471FDE30D09FC8357A400F3
:10BCF800E1DB91659385557031459740FE1FE780DC
:10BD0800E03315C58357A40023200500232425010B
:10BD18002312F500B72700209387479C984301E733
:10BD280088C345B73E871C43F5FF08C359BFCD44B8
:10BD380049BFB72700209387C79A03C7070015E3B1
:10BD480005472380E700058909CDB7260020372558
:10BD5800002093864690414691451305458C6FF027
:10BD68007FF501458280B7270020A382A7928280B1
:10BD7800C167FD176315F5002E856FE0EF8F411140
:10BD880006C6EFE06F8911C5FD572310F5002301A2
:10BD98000500B2404101828001114AC806CE22CC7A
:10BDA80026CA85472A896393F5044A85EFE0EFBCE4
:10BDB80039E9C16437D603009385F4FF1307E1001E
:10BDC8008946130686280545EFE07FD82A84FD14A6
:10BDD8000DC44C444A85EFF0BFF90356E1002285B3
:10BDE8008146A685EFF02FA12A84DDB7894763969F
:10BDF800F5008545EF20203E4DD9F2406244D244FB
:10BE0800424905618280EFE04FB265B7011126CA49
:10BE1800B7240020938404CC22CC03C59400372493
:10BE280000201304C49BB72700203727002006CE24
:10BE38004AC84EC62320040023A0079C2328079A3B
:10BE480049C91389079C9307200C3305F5029165AE
:10BE5800938515709309079B190542054181974001
:10BE6800FE1FE780A01D03C694009307200C8145A0
:10BE78003306F60208C019069740FE1FE780A03F68
:10BE88001C4003C7940081459386870B7D5563EC5E
:10BE9800E5069306800BB306D7020146FD55050754
:10BEA800B6972320F900BE862390B600A381B6007A
:10BEB8002381B6002382060005069906E366E6FE9E
:10BEC800F9562390D70099463307D702BA9723A08B
:10BED800F90037A501001305A54EEFC0FFCF37A520
:10BEE80001001305A56BEF708FBB37A50100130583
:10BEF8002545EF206025F2406244D2444249B249C8
:10BF08000145056182802394A6F41386C6F42310A4
:10BF18000600232406003106E31BD6FE850593861A
:10BF2800860BB5B7411106C622C42A84EFC04FAFAD
:10BF3800EFD0DFF6B727002023828792B7270020AB
:10BF480003A5079BEFD05FF3B727002023898792CB
:10BF58002244B24037C50100130505DA41016F20BC
:10BF6800A01E93970501C18763D30734B727002024
:10BF780003C54792797122D45AC806D626D24AD028
:10BF88004ECE52CC56CA2E8BEF50DFCF2A8429C909
:10BF9800034705009307000B6311F704B72400203B
:10BFA80085479384449BA304F1009C40231501001A
:10BFB800A9E7EF00007F9165938535709740FE1FD4
:10BFC800E780C00788C015E98347910099C7834572
:10BFD800440013058400EFD0CFA32285EF503FBF64
:10BFE800B250225421653345AB0092540259F249AC
:10BFF800624AD24A424B45618280372A0020614614
:10C00800814513054AA59740FE1FE780C0260349CE
:10C018004400894793044AA5D289930A4AA5631420
:10C02800F906EF0000782390A40003552400930537
:10C038004AA5EF703FAC0357240083D7040083560A
:10C04800840011ED63E4F6002314F40083558400A2
:10C058003A85EFC01FB92285EFC07F8BB5B763E47F
:10C06800F6002314F40083578400D945938649A524
:10C078000D463A852390FA00EFC07FA18D4561DD1A
:10C08800138549A5D1A09947631AF9029305A10020
:10C098002285EFF02FC7AA845DDDD9476396F40E99
:10C0A8000509035524001379F90FD945938649A545
:10C0B8004A86EFC0DF9DCA8559DDD9B7A147631805
:10C0C800F9009305A1002285EFF03F93E9B7A9474E
:10C0D800631FF906035584006C00EFE00FE02A891E
:10C0E800630D05140355240041669306E100554786
:10C0F8007D16AD45EFC09FB4C8C0AA8649C1834824
:10C1080044000358E1000356C10003552400814749
:10C1180013074AA5CA85EFE03FFAAA84631E050EF5
:10C128000355240093054AA5EF709FBD0DD503550F
:10C13800240093064AA52D46D945EFC05F95E30C28
:10C1480005F0AD4513054AA5EFD0AF8C29B7B14727
:10C15800631BF90E035584006C00EFE00FD8AA8426
:10C1680069CD0355240041669306E10059477D16C1
:10C17800B545EFC0BFAC23A2AA00AA8629E9835718
:10C188008400C5442315F10003471400D147E30494
:10C19800F7EC8347440003552400938549A5238081
:10C1A800FA008357A10023829A002391FA00EF70C6
:10C1B8002FB4E30205EA03552400938649A50546F2
:10C1C800D945EFC0DF8CE30805E8854555BD8348B0
:10C1D80044000358E1008357A4000356C1000355E7
:10C1E8002400A68513074AA5EFE01FEDAA840DE5F4
:10C1F8000355240093054AA5EF705FB6E30D05E4E7
:10C2080003552400D94593064AA53546EFC03F8813
:10C21800B545E30205E4ADB5D9476393F40081441D
:10C2280003A54A009740FE1FE78040EFE38504E23C
:10C23800835784002315F10081BF83578400854408
:10C248002315F10091B7B9476318F9009305A100C8
:10C258002285EFF00F9581B5C1476318F900930562
:10C26800A1002285EFF0CFD83DB5C947631AF90080
:10C27800130691009305A1002285EFE00FF821BD78
:10C28800D947631DF9009305A1002285EFE00FE669
:10C29800AA84E31405E0A304010075BBE147E31C8D
:10C2A800F9DA9305A1002285EFE06FD2EDB30145DD
:10C2B8008280EDC2011152C42E8A854522CC4EC619
:10C2C80056C206CE26CA4AC8AA8AB6893284EF1050
:10C2D8009070D1471DC5B72700203727002083C796
:10C2E800079D8346179D814419E0B684BE8637278B
:10C2F80000200327879C93974400BA9763EDD400E6
:10C30800D547F2406244D2444249B249224A924A4D
:10C318003E85056182803E89C10703D727FF09C78B
:10C32800850493F4F40FD9BF25C09565938525C07E
:10C33800130500029740FE1FE78040D02326A9007E
:10C3480061D1130600028145938404049740FE1FBF
:10C35800E78060F223119900230009002313590193
:10C368001DC43727002083479400032647C22304AF
:10C37800F900118C8327C90011841180238E87004E
:10C3880023A029018147B5BF23260900F1B723045B
:10C398004901FDB785473E858280B727002083C5C0
:10C3A800079DB727002003A7879C81476395F50061
:10C3B80081463685828003562700BA8619C2E30A69
:10C3C800A6FE850793F7F70F4107CDB7B7270020DB
:10C3D80003C6079DB727002003A7879C81476315DD
:10C3E800F60081463685828083552700BA8689C53E
:10C3F80083454700E388A5FE850793F7F70F4107B4
:10C40800F9BFB727002083C5379DB727002003A7AA
:10C4180047C281476395F500814636858280035679
:10C428000700BA8619C2E30AA6FE850793F7F70F35
:10C438004107CDB7B727002003C8179DB7270020AD
:10C4480083A7879C01476315E8008146368582806B
:10C4580003D62700BE8619CA03D667006318A6004C
:10C46800D04709C603562600E302B6FE0507137730
:10C47800F70FC107C9BF411122C4404526C206C6ED
:10C48800AA8415C0484409C59740FE1FE78000C923
:10C49800484809C59740FE1FE78040C82285974055
:10C4A800FE1FE780A0C72685414681459740FE1FAD
:10C4B800E78060DCB2402244FD57A384F400924434
:10C4C80041018280011122CC2A840355250006CE21
:10C4D8002EC6EF109019324622858145EF00F07183
:10C4E80022856244F24005616FF0FFF80DC50357DD
:10C4F8002500411122C406C62A8411CBDD45EF0070
:10C50800B07322852244B24041016FF0DFF6B24099
:10C518002244410182808280411126C2B14693049F
:10C52800C5FFB386D402B7270020138747C306C6C2
:10C5380022C436978356A7006398B60248430DC5B0
:10C54800138447C39307F00F6306F600834705007B
:10C55800639CC7009740FE1FE78040BCB147B38784
:10C56800F402A29723A20700B24022449244410158
:10C578008280411122C42E8426C24946AA8481455C
:10C58800228506C69740FE1FE780E0CEA5C083C778
:10C59800C40113974700B727002083A747C2BA975B
:10C5A80003D707002310E40003D7270083D76700C9
:10C5B8002311E400372700200357E79C2312E400E7
:10C5C80003D704002313E40003D724002314E40052
:10C5D80003D744002315E40003D764002316E400BE
:10C5E80003D784002318F4002317E400B240224440
:10C5F800924441018280B727002083C5079DB72751
:10C60800002003A847C2B727002003A6879C01473C
:10C6180081476394E5003E8582808346060081CE8B
:10C62800544691CA83C6C6019206C2966315D500C0
:10C63800850793F7F70F05071377F70F4106D1BF63
:10C64800130600643386C50293069500AA8537C58C
:10C6580001001305454F6F507FC9411122C406C61A
:10C668002A8403459500EF50BFE1FD57A304F40069
:10C67800B240224441018280011122CC4AC84EC6F0
:10C6880052C456C25AC006CE26CA2A89AE89014467
:10C69800372A0020B72A00201D4B83471A9D63655F
:10C6A800F40463990902B7290020372A0020930A65
:10C6B800F00F83C7099D6367F4061144A1442285DE
:10C6C800050442041306F00FCA854180EFF0DFE449
:10C6D800E31794FEF2406244D2444249B249224AE6
:10C6E800924A024B0561828083A78A9C9314440076
:10C6F800BE9483C704009DC383D764006390270357
:10C708006396690103D52400EF10207626854E86AE
:10C718008145EF00904E2685EFF0FFD50504137490
:10C72800F40FA5BF83278A9C93144400BE9483C743
:10C7380004009DC383C794006380570383D76400B4
:10C74800639C27012685EFF05FF12685D145EF0030
:10C75800B04E2685EFF03FD205041374F40F91BF55
:10C7680041677917630BE502411122C406C6854764
:10C778002A846399F50022852244B240814541010B
:10C788006FF09FEF89476396F5008545EF10B02459
:10C798007DD1B24022444101828082809D456FF064
:10C7A800BFEDB727002003D5E79C8280B72700207C
:10C7B80003C7C79C011106CE2317A1002316B10099
:10C7C80085476318F70070009305E1000545EF50B1
:10C7D8007065F24005618280A947631CF60483C72F
:10C7E800150003C70500A207D98F2310F50083C7DA
:10C7F800350003C72500A207D98F2311F50083C789
:10C80800550003C74500A207D98F2312F50083C737
:10C81800750003C76500A207D98F2313F50083C7E6
:10C82800950003C78500A207D98F2314F500014599
:10C8380082800545828091476314F60283C71500FC
:10C8480003C70500A207D98F2310F50083C7350059
:10C8580003C72500A207D98F2311F500014582805F
:10C86800054582809387C5FF93960701C1820D47CE
:10C878006360D7023147B387E702372700201307E1
:10C8880047C3BA972381A7002390B7000145828048
:10C89800094582809306402037270020AA8763F441
:10C8A800A60093074020F1172317F79CB72700200D
:10C8B8002389B79CB7270020238AB79C8280190553
:10C8C800956542054111938535C0418106C697306B
:10C8D800FE1FE780A07611C5B240E95541016F50AF
:10C8E800CFA7B24041018280B72700202389079C47
:10C8F800B7270020797105472386079CB7270020B2
:10C908002388E7C24ECEB7270020B729002022D4BB
:10C9180026D24AD037240020B7240020A38A079CB7
:10C9280037290020B72700209389399D06D652CC95
:10C938002AC62308049CA388049C2397079C2324C5
:10C94800099C23800900EF10005B3245B7270020BF
:10C95800130600032384A7C237250020130545C307
:10C9680081459740FE1FE7800091372A0020034544
:10C978004AC61304049D9384149D1309899C15CDFC
:10C988009565938545C012059730FE1FE780006BBB
:10C99800372700202322A7C20DC103464AC69307A2
:10C9A8004AC683C717002380C90081451206238021
:10C9B800F4009740FE1FE780008CB727002003C5CE
:10C9C80087CC83C704009565938555C03E9513753C
:10C9D800F50F2300A40012059730FE1FE7800066BC
:10C9E8002320A9003DCD0346040081451206974047
:10C9F800FE1FE7804088032709008346040081471B
:10CA080025077D566398F604EF106073B147330528
:10CA1800F5029565938565C0420541819730FE1FF3
:10CA2800E780C061372700202326A7C219C53146F1
:10CA380081459740FE1FE78000842254B2509254EB
:10CA48000259F249624A37C50100130585764561E6
:10CA58006F10806F85072300C70093F7F70F410712
:10CA680055B7230004002380040079BF4111939730
:10CA7800050126C206C622C44AC0C187AE8463D156
:10CA8800070A37290020034589C2EF50AF9F2A843F
:10CA980029CD03470500930700096315F7040347E9
:10CAA8001500CD47631CF706B7260020034825006C
:10CAB80003C5B6B1372700208347279D13066400B6
:10CAC800814581461307279DAA886318D80299C112
:10CAD8002300F7008347070091C7034589C28545AE
:10CAE800EF504FD72285EF508F8E2165258DB240AC
:10CAF8002244924402494101828083450600AE9750
:10CB080093F5F70F93F7F80F63F4A50093F7F50F74
:10CB1800850693F6F60F0906854545BF012DD9B759
:10CB280093F715000145E1D7EF00107009CDB7273D
:10CB3800002083C7279D81CBB727002003C587C264
:10CB48008545EF502FD113C5140055B785462A8760
:10CB580063FBC60483C7150003C60500A207D18F6F
:10CB68002310F500639CD70083C7350083C62500D2
:10CB7800A207D58F2311F50001458280894601451A
:10CB88006394D70283C7350083C62500A207D58FD3
:10CB98002311F70083C7550083C64500A207D58F28
:10CBA8002312F70082800545828091476314F602BC
:10CBB80083C7150003C70500A207D98F2310F50006
:10CBC80083C7350003C72500A207D98F2311F500B5
:10CBD800014582800545828091476314F60283C728
:10CBE800150003C70500A207D98F2310F50083C7D6
:10CBF800350003C72500A207D98F2311F500014589
:10CC0800828005458280A1476314F60483C7150016
:10CC180003C70500A207D98F2310F50083C7350085
:10CC280003C72500A207D98F2311F50083C7550034
:10CC380003C74500A207D98F2312F50083C77500E3
:10CC480003C76500A207D98F2313F5000145828029
:10CC5800054582808947631CF60083C7150003C712
:10CC68000500A207D98F2310F500014582800545EC
:10CC780082808357260079714ECE06D622D426D2DA
:10CC88004AD01307F007AE896372F70209473AC41E
:10CC98002316F100300093F5F50FEF10E01BB250AA
:10CCA800225492540259F249456182800357460042
:10CCB800D9462A89328463F8E6008357660063F40C
:10CCC800F6006379F70023140100300093F5F90F9B
:10CCD8004A85E1B70355060002C4EFF08FF2AA8433
:10CCE80059C1EFF05F9183C784006369F50011466D
:10CCF800A246CE854A85EF10A00B55B7340026868C
:10CD08009305F00F4A85EFF0CFDA75F1A247035784
:10CD18008400DC472390E700035724002391E700B1
:10CD2800035744002392E700035764002393E70066
:10CD380003D744002394E700DC4485CB93F4F90F30
:10CD48002286A6854A858297C167FD172A86E31140
:10CD5800F5FA22459947F9452300F5002302950085
:10CD6800EFF01F8E2DBF094661B7014651B7A9479D
:10CD7800631CF60483C7150003C70500A207D98FF3
:10CD88002310F50083C7350003C72500A207D98FF4
:10CD98002311F50083C7550003C74500A207D98FA3
:10CDA8002312F50083C7750003C76500A207D98F52
:10CDB8002313F50083C7950003C78500A207D98F01
:10CDC8002314F500014582800545828083C705004C
:10CDD8002300F50083C71500A300F50083C73500BD
:10CDE80003C72500A207D98F2311F50082802322CB
:10CDF800050003C7450089476304F700054582809D
:10CE080083D665000D47E37BD7FE9C45011106CE0E
:10CE180022CC26CA4AC84EC683C4170003C60700D8
:10CE2800A204D18C138644006311D60403C43700CE
:10CE380083C72700AE8922045D8C9307C4FFC2070D
:10CE4800C1832A89636FF70003A58900231199001C
:10CE580023108900F155EF405FD02322A900014536
:10CE680031A02285EFF06FD365F10545F2406244A9
:10CE7800D2444249B24905618280397122DC2E844C
:10CE8800834704004AD806DE26DA4ED619472A898F
:10CE9800B285639AE706034624002800EFF0FFD026
:10CEA800AA8415E903558100EFF02FCFAA8983459D
:10CEB800140015C937E701002E86130707D9340077
:10CEC8009D454A85EF00D0424E8509468145352368
:10CED8004E85EFF04FDAF250625426854259D2540B
:10CEE800B2592161828089472310F100835781005C
:10CEF8000A862311F1008357A1002312F1004A8505
:10CF0800EF009075C9BF4947639DE70203562400A7
:10CF18002800EFF05FCFAA845DFD372500201305B8
:10CF280045C38357C50099E3814475B70347140087
:10CF3800834604000345E5003C000146CA85912666
:10CF480059BF51476390E702035624002800EFF0C9
:10CF5800BF88AA8449F18345140030004A85EFF060
:10CF68005FD195BF59476393E7060356240028000D
:10CF7800EFF07F8CAA8425F1835581004A85EFF074
:10CF88006FCB1DC958458356A10083570700B69734
:10CF9800C207C1832310F700C1DB5C47D1D7B7278D
:10CFA800002083C7279DC9D3B727002003C587C2A0
:10CFB8008545EF502F8A05B789473EC083578100C2
:10CFC8000A86834514002312F10015BF8345140017
:10CFD8000A8623100100EF003068B9B75D71A6C258
:10CFE80056DA86C6A2C4CAC04EDE52DCAA8A03C577
:10CFF8001500AE8432C6EFF06FBDB24501ED814435
:10D00800B6402644268506499644F259625AD25AB1
:10D0180061618280230205002311050083C9040091
:10D0280085472A84639AF90003C624002808EFF08C
:10D03800FFB1AA8405492DA09D476394F9040347CD
:10D0480005008D47E31DF7FA03C6240028080549A3
:10D05800EFF09FB8AA8409E5054681452285712E1F
:10D068002285EFF08FDF034584003C080147CE8618
:10D078002686D6853924E30509F82285EFF0AFBF67
:10D0880041B7CD47639DF900034705009147E31871
:10D09800F7F603C624002808EFF0DFBB59BFD547D1
:10D0A800E39FF9F4034A05008947E31AFAF403C633
:10D0B800240028080549EFF09FCBAA8455F183572F
:10D0C8000102BDE3035781011306F0035C44930694
:10D0D80007FCC206C182636CD6000356A101D9467B
:10D0E80063F7C6008356C101D94563EFD5000355E0
:10D0F80024002391E7000549EF0030570356010249
:10D10800D2852285692CA9BF8355E1012391E700C7
:10D118002392C7002390B7002393D70085472300A5
:10D12800F400014A0149D9BF014AC9BF7971AA85EA
:10D1380022D426D203542500AA84280806D6EFF064
:10D148001FCBF24599E535E985452285EFF00FE6D5
:10D15800C1A0835781011547639BE7060357A101C7
:10D168008D4763FCE7046800EFF05FC60357E100F2
:10D17800DD4763FCE7008345D100B7071700850743
:10D18800100822853EC8EF00304D8357E100035751
:10D19800A10191076305F7002285EFF02FE083478F
:10D1A800C10072466C00858B1106228591CFEFF085
:10D1B800FFE201C52285EFF06FDE884451D5973034
:10D1C800FE1FE780A0F549B7EFF03FCBDDB7114769
:10D1D8006389E7001387A7FF42074183854663EE0B
:10D1E800E6023147F117B387E70237270020130714
:10D1F80047C3BA9703D7070069D303C52700300888
:10D20800A2850D205DF9035781019147E31EF7F2CE
:10D21800B25022549254456182802C082285812E76
:10D2280049FDFDB701114AC82A89314526CA06CEEB
:10D2380022CC2EC6B284EF407F9E31C1B2459307FF
:10D24800000A2310F5002311B5002A842146110590
:10D258008DC0A6859730FE1FE78040FBA2854A85D2
:10D26800EF40BFA90145F2406244D24442490561FA
:10D27800828081459730FE1FE780E0FFC5B70545EE
:10D28800DDB7797126D2AA841305000206D622D406
:10D298002ECE32CC36CA3AC83EC6EF403F9831C986
:10D2A8006246F2454247D246B2472A84130520FA1D
:10D2B8002300A400A300C4002311B4002302E40047
:10D2C800A302D40013058400614691CFBE85973030
:10D2D800FE1FE780A0F3A2852254B25026859254FF
:10D2E80045616F409FA181459730FE1FE780A0F8F8
:10D2F800DDB7B25022549254456182805845797105
:10D3080022D406D62A84AE8649C383572700231D14
:10D31800F10093072006639FF504B727002003D682
:10D32800E79C835767006373F600B28713F6F70F1D
:10D3380083552701834707018D8F93F7F70F81E501
:10D34800890793F7F70FB297FD17B3C7C702231ED4
:10D35800F100835724008355640003458400231C8F
:10D36800F10001473C080146EFF0BFF1B2502254EA
:10D37800456182800347C701B727002083A747C2BA
:10D388001207BA9783D76700D9B72EC619468145C1
:10D3980028089730FE1FE78000EEB2465DBF79711E
:10D3A80022D406D626D22A848DC181470147930606
:10D3B80000062E868355640003458400EFF07FEC59
:10D3C800B2502254925445618280B2842800594652
:10D3D8009730FE1FE78020EA2314910089E88357DD
:10D3E800240048446C002315F100EFF08F983C00AE
:10D3F800014793060006014675BF797106D6814735
:10D4080099ED8357250058452316C1002314F100D0
:10D418003C0011C7835727002315F1003C002E86D6
:10D428008355650003458500014793060006EFF024
:10D438005FE5B25045618280411122C406C6834728
:10D44800050011472A846395E7022E8683556500F7
:10D458000345850081470147CD46EFF09FE24946E5
:10D46800835564002244B240154541016FF0CF8ACC
:10D4780013F7B70F89466317D7000146EFF03FF25D
:10D488005146F9BF0D476398E7002244B240014670
:10D4980041016FF09FF6B24022444101828003D7D8
:10D4A8000500B146B727002071173307D7029387C5
:10D4B80047C3BA97D84319EBD8412395A70001452C
:10D4C800D8C303D725002394E7008280594582807A
:10D4D800797122D4404526D24AD006D6AA842E890C
:10D4E80025C0484419C59730FE1FE78020C323266E
:10D4F80004008357040083D5640003C58400231502
:10D50800F100835724000147930640062316F100D3
:10D51800835784004A862317F1001C483EC883D7E6
:10D5280024002314F1003C00EFF0BFD5A30E240122
:10D5380023280400B2502254925402594561828033
:10D548002800314681459730FE1FE780C0D283D737
:10D55800240083D5640003C584002314F100014727
:10D568003C00930640064A86EFF0BFD1E1B77971D7
:10D5780052CC2A8A03D5050026D206D622D44AD010
:10D588004ECE56CAAE84EFE05FE119E18547BDA8EB
:10D598004045AA8965DC83576500E39947FF8357AF
:10D5A8008400638707128346C401B72A002003A7B3
:10D5B8004AC29206FD173697C20703576700C18310
:10D5C8002314F4006316F70093053006EFF01FD319
:10D5D8005C48A5EFC84003491500834705002209A8
:10D5E8003369F90083D7240013072900631AF70267
:10D5F800F955EF408FD6C8C02391240103C589008F
:10D608002686D285EFF01FC2814721E1B25022540D
:10D6180092540259F249624AD24A3E854561828053
:10D628009565938515C04A859730FE1FE78000A150
:10D6380048C8C840231C2401F955EF400FD283D7AE
:10D648002400C8C0F9172391F400484859C503D6E7
:10D6580024008356A401835784013308D60063C08D
:10D6680007090347C40183A74AC295451207BA9719
:10D6780083D7270063CF0705CC4036959730FE1F28
:10D68800E780C0B80357A40183D72400BA97C2071C
:10D6980003578401C183231DF400E399E7EE03D700
:10D6A800290003C5890030002314E1005848D285B9
:10D6B8002315F1003AC6EFF0FFB611C54848973078
:10D6C800FE1FE780A0A5232A0400232C04007DBDAB
:10D6D80099454E85EFE01FDF55BDA545DDBF914556
:10D6E800CDBF03D725007DC3B727002083D6E79C8D
:10D6F800ED4763EEE60C011122CC2E8426CAAA84DB
:10D708004840914506CEEF404FC583572400AA866E
:10D718002300F50083572400A183A300F500835755
:10D7280004002301F50083570400A183A301F50039
:10D7380003562400C167F917110642064182639611
:10D74800F4042AC4314532C6EF404FCDAA85CD47EF
:10D758001DC5930700F92300F5003246F957A24684
:10D768002311F50089472302F500B727002023136A
:10D77800C50014C503C587C2EF402FD88147F240C2
:10D788006244D2443E850561828081452685EF400A
:10D79800907BAA8711E9B726002003C7269D65D389
:10D7A8007D172389E69CE1BF09476304E5021D470D
:10D7B8006303E50249476302E5027D47E311E5FC9F
:10D7C800B726002003C7269D8147D1BFED473E8578
:10D7D8008280D1476DB791475DB789474DB7011131
:10D7E8004AC831471309C5FF3307E902B7270020A4
:10D7F80026CA938447C306CE22CCBA94D84029CBF4
:10D80800138447C3B727002083C6279D854795CA39
:10D818002314A10083D7840003D5A4002C003AC6A2
:10D828002315F100EFF0FFEB11C5C8409730FE1F3C
:10D83800E780C08EB147B307F902A29723A2070079
:10D848008547F2406244D24442493E850561828060
:10D858008147C5BF797126D24445372700204AD071
:10D8680083D764000359E79C52CC06D622D44ECE07
:10D8780056CA2A8A63F327013E8903D7240142093D
:10D888001359090183D7040141CB998F4A8463D581
:10D89800270113940701418089452285EFF02F82E3
:10D8A800AA89CD4A25C183D724002AC62315810019
:10D8B8002314F10083D7240185E383D70401930956
:10D8C80025002300F50083D70401A183A300F500F8
:10D8D8006376240503D4040183D72401CC4422862B
:10D8E8004E85BE959730FE1FE780409203556A002B
:10D8F8002C00EFF01FDFAA8A15C54E859730FE1F52
:10D90800E780C081B2502254568592540259F24998
:10D91800624AD24A4561828089078DBF79144204E0
:10D9280041805DBF03D7240183D704003A94FD17D3
:10D93800C207420403D70401C18341802390F40045
:10D94800239984006377E400D5FFFD57A38EF40084
:10D9580055BF81455285EFF0BFB76DB779714AD091
:10D968003729002052CC034A599D22D456CA5AC896
:10D978005EC662C406D626D24ECE5284B72A00208E
:10D98800054B930BF00F372C002083A78A9C931428
:10D998004400BE9483C90400639D6907DC44B5CB89
:10D9A800D84725CB03D7070029CBB727002083C743
:10D9B800279D99CF2685EFF0FFE9AA8515E9B727B6
:10D9C800002083C7179D05046351F402A30A899CAC
:10D9D800B25022544E8592540259F249624AD24AB0
:10D9E800424BB24B224C45618280A30A099CCDB7B9
:10D9F8002685EFF0FFAD8149E1BF83C7D701639A60
:10DA08007701930520062685EFF05F8FDC44A38E0F
:10DA1800070083471C9D05041374F40F6363F40027
:10DA28000144E31444F7C1BF4111154506C6EFF0A0
:10DA38001FDB09C50545B240410182801945EFF059
:10DA48001FDA6DF91145EFF09FD96DF51D45EFF01F
:10DA58001FD96DF1B727002083C7179DE9DFB240B2
:10DA680041016FF0BFEF83D705000D47F117C207DB
:10DA7800C1836365F706DC41B5C3411122C42E8416
:10DA8800854526C206C6AA84B92739C9268595259B
:10DA9800C167F9176381F40219ED8357240081CF18
:10DAA8008356040019476393E60437270020035779
:10DAB800E79C63FDE702B727002083C7279DA2855F
:10DAC800268599C72244B240924441016FF07FC134
:10DAD8002244B240924441016FF07F9C0945828004
:10DAE8005145B24022449244410182806D45D5BFE0
:10DAF800397126DA4ED6AA84AE895D4589454AD859
:10DB080006DE22DC328936C63AC4EFE05FDB35C573
:10DB180022472A84014511C7B24613054400B68539
:10DB280002979357850023003401A3002401A30121
:10DB3800F4009547231CF100B727002083C7279DD1
:10DB48002301A4001105231DA10022CE2C0826853F
:10DB580095C3EFF01FB9AA8411C522859720FE1F2F
:10DB6800E780C05BF250625426854259D254B259BC
:10DB780021618280EFF0BF92F9BFCD44E5B779719A
:10DB880026D24AD052CC56CA06D6BA8A22D44ECE0B
:10DB980019472E89B284368A639DE5060355260007
:10DBA8000944EFE08FFF2AC62DCD5C4583596500F7
:10DBB80083D727002390F400B247B72600201547E3
:10DBC8002380570103C606C32391E70013071600F5
:10DBD8001377F70F2388E6C22382C70001E70547BA
:10DBE8002388E6C25147631AE90015472391E400E8
:10DBF800DC4703D784002394E7005287A686CA85AA
:10DC08004E85EFF0FFEE2A84324515C4EFE0BF865B
:10DC180009A842867400BE85AA89EFE08FE92A84A4
:10DC280041DD2285B250225492540259F249624A87
:10DC3800D24A45618280F945EFE09FA0DDB783D7DE
:10DC480005002300F50083D70500A183A300F50094
:10DC580083D725002301F50083D72500A183A301DD
:10DC6800F5001145828083D705002300F50083D78E
:10DC78000500A183A300F50083D725002301F50043
:10DC880083D72500A183A301F50083D7450023028C
:10DC9800F50083D74500A183A302F50083D765006B
:10DCA8002303F50083D76500A183A303F50021456D
:10DCB800828083D705002300F50083D70500A18360
:10DCC800A300F5000945828083D705002300F500ED
:10DCD80083D70500A183A300F50083D7250023017E
:10DCE800F50083D72500A183A301F50083D745005C
:10DCF8002302F50083D74500A183A302F50083D74B
:10DD080065002303F50083D76500A183A303F5000D
:10DD180083D785002304F50083D78500A183A30456
:10DD2800F5002945828003D705008546AA87230088
:10DD3800E50003D705002183A300E50003D705000C
:10DD4800631DD70003D725002301E50003D725006D
:10DD58002183A301E5001145828009456315A702C7
:10DD680003D7250019452381E70003D72500218320
:10DD7800A381E70003D745002382E70003D74500C6
:10DD88002183A382E700828083D705002300F50062
:10DD980083D70500A183A300F50083D725002301BD
:10DDA800F50083D72500A183A301F50011458280E2
:10DDB800797126D24AD04ECEB2842A89AE892946B4
:10DDC8008145480022D406D636849720FE1FE78076
:10DDD800804A231691008DEC835724002312F1000A
:10DDE800B727002083D7E79C2314F1005C448DC338
:10DDF80083C6C70137270020032747C2920683D767
:10DE080087003697035727002315F1002313E100F5
:10DE180037E701004A85130707CD540013F6F90FB9
:10DE2800D545EFF0FFCC2A8911C19DE08547230035
:10DE3800F40023020400014681452285EFF02FD625
:10DE4800B25022544A8592540259F249456182805F
:10DE58002285EFE04FE2EDB737E70100B2861307FE
:10DE6800E7D22E8685456FF0BFC801112317A100A0
:10DE7800B7E601004165700001489307F00F0D47B0
:10DE8800938666C499457D1506CEEFF05FCFF240C4
:10DE980005618280B7E60100B28701482E861147E6
:10DEA8009386E6C6C9456FF09FCD37E70100B28675
:10DEB8001307A7CB2E86CD456FF09FC3011122CC47
:10DEC800372400201304C4C626CA4AC84EC606CE44
:10DED8002A89AE89930404031C4081C7CE854A85EC
:10DEE80082971104E31A94FEF2406244D2444249F4
:10DEF800B24905618280B727002003C517B24111D6
:10DF080022C43724002093773500130404CC0981F8
:10DF1800A304F400AA9706C626C22304F400A5CFDA
:10DF28001305C0033385A702A5658505B72400201E
:10DF38009720FE1FE7808010034684009307C003E4
:10DF480081453306F60223A4A4C69720FE1FE78066
:10DF5800803283A784C683468400014789077D569B
:10DF68006341D7022244B240924437250020130669
:10DF7800000381451305C5C641011723FE1F67002D
:10DF8800832F2390C7002381070023A507020507D5
:10DF98009387C703F1B7B24022449244410182807B
:10DFA800B727002003C687CCB727002003A787C65A
:10DFB80081476315F600814636858280BA86130745
:10DFC800C703835567FCE389A5FE850793F7F70F19
:10DFD800CDB7011122CC2EC632C406CE2A84EFF06A
:10DFE8003FFC2246B24511E9C167F9176303F40003
:10DFF8005145F2406244056182805455834745008B
:10E0080095C213F7270141456314A700154575F21A
:10E01800C18B3D45F9DF83C7A6010145E3FBB7FC8A
:10E028003145C1BFC18B0145E9F71545D9B77971AC
:10E0380026D24AD0B7240020416922D44ECE52CCF1
:10E0480056CA5AC806D6AA890144938404CC372AEA
:10E058000020930AC0037D19054B83C784006364BD
:10E06800F400014535A8B307540303278AC6BA97B5
:10E0780003D727006316270105041374F40FF1BFB3
:10E0880003C55700300093856700EFC0C15119469A
:10E09800CE8528009720FE1FE7804028E31E65FDF7
:10E0A800B250225492540259F249624AD24A424B1F
:10E0B80045618280B727002083C587CCC166B72712
:10E0C800002003A787C6FD1681476395F500014622
:10E0D80032858280035827003A866306D8000348B1
:10E0E8000700E307A8FE850793F7F70F1307C70391
:10E0F800E9BF411106C6EFF0BFEA11C50355450156
:10E10800B240410182800145E5BFB727002083C6A0
:10E1180087CCB727002003A787C601458147110789
:10E128006393F60082800346070001C60505137550
:10E13800F50F850793F7F70F1307C703D5B7B72769
:10E14800002003C587CC8280372700209306C7C6E6
:10E1580081471307C7C631468C4291E58A07BA97AB
:10E1680088C30145828085079106E397C7FE4D4520
:10E178008280411106C622C4EFF09FE21DCD2A8499
:10E18800035525008545EFF07FD3485409C59720EE
:10E19800FE1FE780A0F822851306C003814597205B
:10E1A800FE1FE780400DFD572311F40023020400F1
:10E1B8000145B2402244410182800945DDBF411139
:10E1C80006C6EFF0FFDD11C50345C500B2404101A9
:10E1D80082800145E5BFC167F9176304F502411163
:10E1E80022C406C62E84EFF0BFDBAA87014591C77B
:10E1F80003C54700698C33358000B2402244410191
:10E20800828005458280011106CE2EC6EFF05FD9C7
:10E21800854711C903574501B24585476305B700CE
:10E22800231AB5008147F2403E850561828031CDD1
:10E2380001114AC84EC637290020C16922CC26CA16
:10E2480052C456C206CE0144AA84130909CC372AFF
:10E258000020930AC003FD1983478900634BF4002B
:10E26800F2406244D2444249B249224A924A056184
:10E2780082803305540383278AC63E958357250039
:10E288006383370182940504C1BF8280B7270020C9
:10E2980003C687CCB727002083A787C6C166014578
:10E2A80089070147FD1691456313E600828003D86C
:10E2B80007006309D80003C8A7006315B80005055F
:10E2C8001375F50F05071377F70F9387C703E9BF92
:10E2D800B727002003C687CCB727002083A687C6A8
:10E2E8000147814791066310E602858393C7F7FFCC
:10E2F800C207C18305456364E50285473395A700D6
:10E3080042054181828083C5060081C583D5C60246
:10E31800CD8F05071377F70F9386C603E9B793F6F2
:10E328001700E1FE050585831375F50FE9B77971C7
:10E3380056CAAA8A2E8526D24AD04ECE52CC5AC860
:10E348005EC662C406D622D4AE84328B368CBA8BB3
:10E358003E8AC2894689EFF0BFC449E141657D150F
:10E36800EFF01FC42A84554531CC1946DE851305C4
:10E378006400A30284019720FE1FE78020E98357E9
:10E38800010323119400230264012319F400835725
:10E3980041032300540123260402231AF400230610
:10E3A80044012317340123182401EFF07FF22318C6
:10E3B800A402232A04022685232C04028145EFF0B7
:10E3C800FFAF0145B250225492540259F249624AB1
:10E3D800D24A424BB24B224C456182804545DDB75B
:10E3E800B727002083C687CCB727002003A787C696
:10E3F80081476395F60041657D1582803A8613074B
:10E40800C703835547FF6395A500035526008280FF
:10E41800850793F7F70FF1BFB727002003C887CC0C
:10E42800B727002083A687C6416601477D16954811
:10E4380011436314E8000145828083D7260036859E
:10E448006380C704CC5A8DCD83C7350083C52500AA
:10E4580089CD938597FD93F5F50FE37FB3FC9387FB
:10E46800D7FA93F7D70F89EF82809385F7FD93F555
:10E47800F50FE3F3B8FC9387D7FA93F7D70FCDDFFF
:10E4880005071377F70F9386C60365B7B7270020EC
:10E4980083C587CC4166B727002003A787C67D16AA
:10E4A800814725486394F5000145828083562700FB
:10E4B8003A85638CC600545B89CA83C63600938646
:10E4C800E6FD93F6F60FE372D8FE850793F7F70F8C
:10E4D8001307C703C1BF011122CC2A84494506CEC0
:10E4E800EF60DF8315C12AC62285EFF07FAB09CD27
:10E4F8006244B7270020324683550503F24003C51E
:10E5080037CC05616F309FCAF24062440561828052
:10E5180039714ED652D4AE892A8A930530054145C1
:10E5280026DA4AD856D206DE22DC32C63689BA8ABC
:10E538009720FE1FE78080B0CD4431C92A848944E2
:10E548006382090432468145231AC1004146972057
:10E55800FE1FE78040D25686CE8522859720FE1F73
:10E56800E780C0CA2146630E0902CA852808972099
:10E57800FE1FE780A0C9A28650082C085285EF40EC
:10E58800200EAA8422859720FE1FE78020B9F2502A
:10E59800625426854259D254B259225A925A21615C
:10E5A8008280814528089720FE1FE780C0CCE1B70C
:10E5B800411122C4405926C206C6AA8429CC08544F
:10E5C80009C59720FE1FE78060B5285809C5972020
:10E5D800FE1FE780A0B4685809C59720FE1FE78092
:10E5E800E0B3285C09C59720FE1FE78020B3685C6C
:10E5F80009C59720FE1FE78060B20325040809C5F6
:10E608009720FE1FE78080B122859720FE1FE780B4
:10E61800E0B023AA04022244B727002083D50403CC
:10E62800B240924403C537CC41016F301FDF41111E
:10E6380026C206C622C4AE84EFF09F9621C54C5967
:10E648002A84A9C183A8C50703A88507FC59B85916
:10E6580083C6650003D6050083C525002685EF60BF
:10E668000FF42285EFF0DFF4EFF05FE201CD2244F2
:10E67800B7270020B240924403C537CC85454101F5
:10E688006F305F9DB2402244924441018280011163
:10E6980022CC06CE2A842EC6EFF09F905C5991CFEB
:10E6A80083D70700B245639A870085476397F500CB
:10E6B8006244F24005616FF0BFEFF24062440561C9
:10E6C8008280411106C622C426C2EFF0FFD421C5BC
:10E6D8004059AA8429C0834724008DCBB72700203E
:10E6E80083A707CA89C7DC4399C322858297034752
:10E6F80034009307F0026310F702224403D5240084
:10E70800B2409244814541016FF07FF2B727002063
:10E7180083A7C7C9C1BFB240224492444101828045
:10E72800411126C24AC006C622C4AA842E89EFF027
:10E738003F8731C140595DCC83570400639C970AD9
:10E748008347340013071002639CE70883472400BB
:10E75800D9C37C540327040883D7470105E713F777
:10E7680017000DC3185403574700058B01CF9307B3
:10E778002002A301F400B240224492440249054514
:10E788004101828013F7270009CB1854035747002B
:10E79800098B01C793074002E9BF918B89CB1C54B1
:10E7A80083D74700918B81C793076002D9B7B727F2
:10E7B800002083A707CAE1D3DC43D5DF22858297EF
:10E7C800034734009307F0028145E316F7FA2685DC
:10E7D800EFF0FFE54DB7B727002083A7C7C9E1BF12
:10E7E8001307A0026398E7006304090013092003D4
:10E7F800CA85F1BF631C09002685EFF06FFA19C5B9
:10E808008347450093E707012302F500A6854A855B
:10E81800EF50BFED8DB7797126D29947231DB1000E
:10E82800AA842E858D4522D406D632C636C4231C2A
:10E83800F100EFE0CF882ACE4D441DC13246A246F2
:10E84800AA85328582962A8419E52C082685EFF058
:10E858008FA12A8411C572459720FE1FE780008C7E
:10E868002685EFF05FC72285B25022549254456145
:10E8780082804111B706020022C42E862E84938618
:10E88800A627894506C626C24AC02A89EFF0BFF8DE
:10E8980083450400AA844A85EFF07FD9B240224418
:10E8A80026850249924441018280B727002083A728
:10E8B800C7C995CB9C4385CB1D71A2CC86CE984108
:10E8C80010082A843AC8D84185453ACA829701C9AE
:10E8D8002306A100035524006C00EFF09FF9F640D1
:10E8E8006644256182808280AE8715C5785505C744
:10E8F800834607002380D50083461700A380D500F0
:10E90800834627012381D50083468701584BA3817D
:10E91800D500D8C18280414681453E851723FE1F18
:10E9280067006395B727002083A707CA91C703A389
:10E93800870063030300028309458280372700208C
:10E94800032787E91DC75843AA8705450DC703A5AF
:10E958000708411106C6930605021306050C930520
:10E968000506130505040297B2401375F50F41011A
:10E9780082800545828082804DC9357122CD2A84E6
:10E988000355050026CB4AC94EC756C306CF52C504
:10E998005AC1DEDEB68AB2892E89EFF06FE0AA840A
:10E9A80039C50C182285EFF03FF483472400138AF9
:10E9B8006400A9CBEF50DFAC2A8B014583CB540010
:10E9C800EF501FAAAA840C100818EF10406C0854C6
:10E9D8002C10EF10606CD288268A56C05E88D287C9
:10E9E8005A8714103010CE854A85EF20B026FA4099
:10E9F8006A44DA444A49BA492A4A9A4A0A4BF65BAF
:10EA08000D618280EF50DFA7AA8B014503CB54002C
:10EA1800EF501FA52ACE08540C10EF1040672C1099
:10EA28000818EF106067F2484DBF8280C14709CDD2
:10EA38001455C14791CA785501CB83C73600BD46E6
:10EA480063F4F600834787013E858280894763091E
:10EA5800051063870510411106C622C426C28347E4
:10EA680015002E842380F50083472500A380F50038
:10EA7800834735002381F50083474500A381F500CE
:10EA880083475500858B9396870083D7450093F776
:10EA9800F7EFD58F2392F5008346550093F7F7DFFC
:10EAA800A20693F60620DD8E2392D5000347550073
:10EAB80093F6F6BF220713770740558F2392E50098
:10EAC80083475500FD769386F67F8D87858B758FF6
:10EAD800AE07D98F2392F50083466500F99B858A96
:10EAE800DD8E2392D500034765009377270013F73F
:10EAF800D6FF5D8F2392E5008347650093F64700B4
:10EB08009377B7FFD58F2392F50003476500DD9B08
:10EB18004D45218BD98F2392F500EF602FA0AA8451
:10EB28005145EF60AF9F0347340093F4F40FC94792
:10EB3800636297021375F50F636EE5008346040060
:10EB48001147E1476368D7008346140005476363AC
:10EB5800D7008147B240224492443E8541018280D9
:10EB68003E85828015C1AA8709458DC141112E8530
:10EB780041469385170006C69710FE1FE780006977
:10EB8800B2400145410182800945828082808947DF
:10EB98001DC595C5411106C603471500AE87194620
:10EBA8002380E50093052500138517009710FE1FA5
:10EBB800E780C065B24081473E85410182803E853D
:10EBC800828015C1AA8709458DC141112E8541460C
:10EBD8009385170006C69710FE1FE7802063B24092
:10EBE80001454101828009458280828089471DC98B
:10EBF80095C9411106C60347250083461500AE870F
:10EC08002207558F2390E50021469305350013858B
:10EC180027009710FE1FE780605FB24081473E855E
:10EC2800410182803E85828015C1AA8709458DC130
:10EC380041112E8541469385170006C69710FE1F81
:10EC4800E780C05CB240014541018280094582806D
:10EC58008280894719C991C903471500BD46E14714
:10EC680063E5E6002380E50081473E85828015C183
:10EC7800AA8709458DC141112E8541469385170004
:10EC880006C69710FE1FE7806058B2400145410153
:10EC9800828009458280828015C1AA8709458DC175
:10ECA80041112E8541469385170006C69710FE1F11
:10ECB800E780C055B2400145410182800945828004
:10ECC80082801DC1AA87094595C141112E85130669
:10ECD80000049385170006C69710FE1FE7800053AF
:10ECE800B24001454101828009458280828015C178
:10ECF800AA8709458DC141112E8541469385170084
:10ED080006C69710FE1FE7806050B24001454101DA
:10ED180082800945828082801D71A2CC2A840845A0
:10ED280086CEA6CA2306010083440500354793878B
:10ED3800F4FF93F7F70F636AF70C37D703008A07D6
:10ED48001307C7C4BA979C4382870C08EFF01FD0FB
:10ED5800C9476312F50299472306F10003552400B9
:10ED68006C00EFF01FB1F6406644D64425618280FE
:10ED78000C08EFF07FEB29C98347C100E5F3035581
:10ED88002400EFF04FF5C5B70C08EFF05FEEE5B7DC
:10ED98000C08EFF01FECC5B70C08EFF0BFDCE1BFC3
:10EDA8000C08EFF0BFE4C1BF0C08EFF09FE1E1B73A
:10EDB8000C08EFF0DFDDC1B70C08EFF0FFED65BF21
:10EDC800834715002308F10003552400EFF04F9DF9
:10EDD800A1470DC10347C500631BF702B7270020F1
:10EDE80003A707CA9D4719C7184309C71008A6856E
:10EDF8000297AA872306F10041B70C08EFF07FECD1
:10EE08009DBF0C08EFF0BFEEBDB79D47B1B7B72760
:10EE1800002003A7C7C9F9B7011122CC06CE26CA1C
:10EE28004AC84EC603470500930720092A84631C75
:10EE3800F7128347150039476395E70A835645005B
:10EE48000967610781476398E610B729002003A581
:10EE580009CBCE84630105100C4403C90500631F68
:10EE680009008347050085052146A9CF2905971084
:10EE7800FE1FE780A03983A704CBB5C34945EF201F
:10EE8800FFD92A841DC5930710FC2300F500A300B1
:10EE9800250183A504CB0905414689059710FE1F66
:10EEA800E780C03683A704CBA28503C51700EF20EF
:10EEB800DFE403A504CB9710FE1FE780202623A8D4
:10EEC80004CA31A809059710FE1FE7802034EF30E7
:10EED800E07805494DF183A709CB238027018547B1
:10EEE8009DA81307E003639EE7080347250095479D
:10EEF800631FF70203554500EFF06FAC9147E3102D
:10EF0800F5FEB727002083A7C7C9F1DB03A3870055
:10EF1800E30703FC0356E40003554400930564002B
:10EF28006244F240D2444249B24905610283A14792
:10EF3800631EF70083456400035544006244F240B1
:10EF4800D2444249B24905616FF08FFD9306000330
:10EF58008147E301D7FEF2406244D2444249B249B4
:10EF68003E85056182809306000A8147E315D7FE36
:10EF7800EFF09FDA084425D59710FE1FE780001AA6
:10EF8800B9BF8147C9BF011126CA06CE22CC894420
:10EF98001DCD95CDAA842E8468008D45EF506F9EB7
:10EFA8008347E1002685228693F7F70393E7070452
:10EFB8006C002307F100EF20E040AA8409E90D4620
:10EFC8006C00130534009710FE1FE7802024F240E0
:10EFD80062442685D244056182805D714EDE86C614
:10EFE800A2C4A6C2CAC052DC56DA5AD85ED689492B
:10EFF80045CD5DCA138B4500420B135B0B01AE8AEE
:10F008002A8A930530055A85B2849710FE1FE78037
:10F01800E0022A84CD4949C9EF506FC82A8956862B
:10F02800D285935A8900135A0901937BF90F130566
:10F03800440093FAFA0F137AFA0F135989019710BB
:10F04800FE1FE7804032A301740123015401A3008D
:10F05800440123002401EF50EFC3AA854146080864
:10F068009710FE1FE7802030214734005A86A2857A
:10F078000808EF20C05BAA891DE121462C002380E7
:10F088007401A380540123814401A38124011385C1
:10F0980044009710FE1FE780002DEF500FC1228516
:10F0A8009710FE1FE7808007B64026444E85964499
:10F0B8000649F259625AD25A425BB25B6161828058
:10F0C80001114AC82A892E8506CE22CC26CA2EC608
:10F0D800EFE01FED69C5405969C4834754000947EB
:10F0E800B24593F6B70F6386E60011474945639228
:10F0F800E708835704000945639DB7069304840015
:10F108004146CA8526859710FE1FE7802010414694
:10F11800CA85130584019710FE1FE780200F034757
:10F12800340085469307F7FE93F7F70F63E9F60473
:10F138001306C4033285C14532C6EF508F84324668
:10F148009306C402A6852285EFF01F838347240017
:10F1580089CB22856244F240D244424905616F104E
:10F16800801A03473400C947E305F7FEA301F400FA
:10F178000145F2406244D2444249056182809307C6
:10F1880010050145E317F7FE83472400FDD32285C8
:10F198006244F240D244424905616F10401D09455E
:10F1A800C9BF4945F9B7397152D42A8A328526DA56
:10F1B8004ED606DE22DC4AD8AE8932C6EFE05FDEE4
:10F1C800C94459C54059C94441C48357040032460B
:10F1D8006390C70883475400A18BB1CB372900201F
:10F1E800832789E99304E00FA5C79C47B5C3930417
:10F1F800840126854146D2859710FE1FE7800001CD
:10F20800832789E98325040826869C479385050476
:10F21800180881462E858297AA844146CE8508081B
:10F228009710FE1FE780800F93F4F40F11E18944D3
:10F23800034734009307B005631CF7002285EF10DD
:10F24800C00F8347240091CF9307C005A301F400A2
:10F25800F250625426854259D254B259225A216139
:10F2680082809307E005DDB729CD011126CA06CEB5
:10F2780022CCAA840945A9C10D4628002E848D05F3
:10F288009710FE1FE78080F88347A10070002C00CC
:10F2980093F7F70393E7070426852305F100EF208A
:10F2A800601219E90D46A28568009710FE1FE780D5
:10F2B800E0067D153335A000F2406244D244056172
:10F2C800828009458280011152C42A8A32854EC63D
:10F2D80056C25AC006CE22CC26CA4AC82E8BB28A3B
:10F2E800B689EFE0FFCB09ED8944F24062442685F8
:10F2F8004249D244B249224A924A024B056182806D
:10F308005C592A89C544F5F34D45EF503FA1137464
:10F31800F50F5145EF509FA0E38809FC83C7890189
:10F32800E3E487FC1375F50FE360F5FC93053005FE
:10F33800130540089710FE1FE78040D0232AA90232
:10F348002A84CD445DD11306400881459710FE1FDD
:10F35800E78060F2A3010400230144012302640151
:10F36800231054012326340723240402A302040093
:10F378008144E30C0AF62285EF00F072AA8435D5A1
:10F388004A85EFF0EFA295B7397122DC06DE26DA5E
:10F398004AD84ED652D456D25AD05ECE62CC66CA1D
:10F3A8000944630B061063090710AA8B3A89368B48
:10F3B800B28A2E8CEFE0DFBE2A8A5144630E050E16
:10F3C8009305300541459710FE1FE78020C7AA899D
:10F3D8004D447DC18344190083472900A204C20714
:10F3E800BE9483470900BE9483473900E207BE9460
:10F3F80083278A0263E697007D5709446399E70AE1
:10F4080063070C0083474A000544898BCDC3930CDE
:10F418004B00214681450A85C20C9710FE1FE780E4
:10F4280080E593DC0C019305300566859710FE1F77
:10F43800E780C0C02A8C4D443DC95A86D68511053F
:10F448009710FE1FE78020F21146CA856285971043
:10F45800FE1FE78040F1414693058A014E859710CB
:10F46800FE1FE78040F021478A866686E2854E8542
:10F47800EF20E01B2A841DE521468A852800971085
:10F48800FE1FE78040EE21469305490028009710AB
:10F49800FE1FE780A0E88547631EF502A6855E8506
:10F4A800EF505FBE62859710FE1FE78020C74E852C
:10F4B8009710FE1FE78080C62285F2506254D2540E
:10F4C8004259B259225A925A025BF24B624CD24CC0
:10F4D800216182800544F9B779719397050122D497
:10F4E80006D626D24AD04ECEC1872E8463D50704CD
:10F4F800B7240020938404CC03C53400EF208FF890
:10F508002AC611CDEFF05F91B24519E503C5240075
:10F518009307F00F631EF5002E85EF204FEB216552
:10F52800218DB250225492540259F2494561828089
:10F53800EF20AFFCEDB793F7150091C7EFF06F9888
:10F5480013451400F9BFA1E10145E1BF850493F417
:10F55800F40FEFE0DFBEE3F9A4FE33959900131929
:10F56800050113590901B3772401EDD34A85EFE06A
:10F578003FE7C167FD176305F500DD45EFF02F8B09
:10F588003345240179BF85448549E1B7B727002071
:10F5980023A807CAB727002023A007CA37070200F5
:10F5A800B72700201307A7BC23AE07C8B72700203A
:10F5B80023AAE7CA37070200938747CB1307678D4B
:10F5C800D8C337E701001307875198C737170200D8
:10F5D800B7270020130727B623A2E7CA3707020078
:10F5E800938747CA1307476CD8C337170200130716
:10F5F800E79A98C78280B727002083C747CCA18B9A
:10F6080089C7B7270020938747CB372700202320B7
:10F61800F7CA01458280B727002083C747CC918B62
:10F6280089C7B7270020938747CA37270020232E8A
:10F63800F7C801458280011106CE2AC6EFF01FF5F2
:10F648003245B72700209945A381A7CCEFD08FA1D9
:10F65800F24037E501001305656905616FE0DFAE2B
:10F668001C5581C7A1473E858280011122CC26CA3C
:10F678002A84AE84130500049305300506CE97103E
:10F68800FE1FE780A09B08D463050510130600043D
:10F69800A6859710FE1FE78060B778548347270137
:10F6A80093F68700638E0610145483C62600A18A39
:10F6B8006388061083270408E9EF930530051305CE
:10F6C80000109710FE1FE78060972320A4088D473D
:10F6D80071C1A3020400785483C71400834617003D
:10F6E80081EF81EE83C72400918BDDEB83472701EF
:10F6F800918BDDE7854711A889C62147A302E4005D
:10F7080099C78347540093E70701A302F4006C5498
:10F7180083C72501858B91CF1C54054783C72700D4
:10F728008D8B6398E7008347640093E717002303F2
:10F73800F4008327040899C78347640093E7870088
:10F748002303F4008347540005476393E70C9304AD
:10F7580084004146814526859710FE1FE780A0B1A9
:10F7680041468145130584019710FE1FE780A0B02C
:10F778001306C4033285C14532C6EF409FA08327D4
:10F7880004083246BDC72285EF00703E9307000586
:10F7980025CDA147F2406244D2443E85056182806E
:10F7A80083C70400834607001547B387E70237D7A6
:10F7B8000300130707CABA97B69783C70700B1B7FC
:10F7C80083C6140091C68346170099C2E14735BF26
:10F7D80083C62400D58F918B91DF83C704008346AD
:10F7E80007001547B387E70237D70300130747C851
:10F7F800D9B79306C402A6852285EFF0EF97228534
:10F80800EF007030C14751F5A301F400814759B7A3
:10F8180013F787013DCFC18B930484004146B9C7D4
:10F82800890526859710FE1FE780409E4146814541
:10F83800130584019710FE1FE780E0A38347640047
:10F848001306C403328593E747002303F400C14538
:10F8580032C6EF401F9383270408324699CF22858A
:10F86800EF00F0309307200545D125B7814526855F
:10F878009710FE1FE78020A055BF9306C402A685F7
:10F888002285EFF06F8F2285EF00F027CD472DDD21
:10F8980009B709478545638AE700114789456386A3
:10F8A800E70019476397E7008D4503550400EF50BB
:10F8B800CFE78347640093E747002303F4008327D7
:10F8C800040881C79307100581B7C54735BF83472B
:10F8D800250063830726797122D406D626D24AD01A
:10F8E80083473500130750052A84639FE7060349B9
:10F8F80075001306C503C14593573900AA97328589
:10F9080083C4870032C6EF40DF87B727002083A76C
:10F9180087E9A9C79C47B9C30325040893767900EA
:10F92800B3D6D4403246858A93050504180893E671
:10F9380006081305050882971375F50F05E141467A
:10F948000C081305C4029710FE1FE780208C22853F
:10F95800EF00701B93076005A301F400B250225416
:10F968009254025945618280130710026395E70299
:10F978001C550327050883D7470069EB13F70710C1
:10F9880071C77855035747011377071061C3930769
:10F998007002A301F4008347340013077002639FC9
:10F9A800E70C3C5885E39305300571459700FE1F29
:10F9B800E780C06828D819C5714681459710FE1F91
:10F9C800E780608B2458B9C883C7A40191E72285D2
:10F9D800EFF0CF85238DA400285881454146971024
:10F9E800FE1FE780408928583D478345A501938736
:10F9F800F5FF93F7F70F6364F700EF408FF8EF20F8
:10FA08002FCB3C58A1452398A70013852701EF4029
:10FA18004FF72C5803550400EF005040930780021D
:10FA280003550400A301F400EFE08FD7414611C548
:10FA38008357E50013D617003E96B727002003C565
:10FA480037CC06068545EF206FF609BF13F7072068
:10FA580011CB7854035747011377072001C7930741
:10FA6800900205BF93F707409DD77C5483D7470181
:10FA780093F707408DD39307B00221BF1307800285
:10FA8800639BE7023C5889CB83D5070103550400E3
:10FA980013862701EF00103E1C5483D7470013F745
:10FAA80007202DC37854035747011377072039CB14
:10FAB80093079002B5B713079002639CE700EF40E5
:10FAC800DF9CAA8503550400EF00D0399307A002F4
:10FAD80081BF1307A0026393E704EF407F9AAA85CA
:10FAE800854701456384F500814505452EC6EF40ED
:10FAF8003F972A86B24503550400EF0030331C5463
:10FB080083D7470093F707408DC77C5483D74701B5
:10FB180093F7074099CF9307B00219B71307B002BC
:10FB28006399E700EF401F97AA8503550400EF008B
:10FB3800F0379307F0020DB58280411122C4405975
:10FB480026C206C67C54AA8483D7470113F7071038
:10FB580019C7185403574700137707101DE313F705
:10FB6800072019C71854035747001377072011EBCC
:10FB780093F707408DCF1C5483D7470093F707406E
:10FB88009DC793071002A301F4002285EFF03FD42C
:10FB9800034734009307F0026310F702224403D5A9
:10FBA8002400B2409244814541016FE05FA8930769
:10FBB800F002A301F400DDB7B240224492444101AF
:10FBC8008280397122DC405926DA4AD84ED606DEC0
:10FBD800AA89AE843289630B043C035525008357F8
:10FBE80004006384A700A14429A08347240091EB63
:10FBF8009D44F250625426854259D254B25921612B
:10FC080082809387E5FF93F7F70F2D47E362F7FEAE
:10FC180037D703008A071307C7CBBA979C43828755
:10FC2800B2852285EFF0DFA3AA84E1B74146CA85F1
:10FC38001305C4049700FE1FE780405D2285F52D5B
:10FC4800AA8411C1A1448347340013074005639770
:10FC5800E70093079005A301F40061BF130760054F
:10FC68006395E7009307A005FDB7D147EDB7930962
:10FC7800C4054E854146CA859700FE1FE780005996
:10FC88000325040855C98347340013079005639971
:10FC9800E7002285352F9307E005A301F40059A852
:10FCA8001307A0056394E7088347740013D7370048
:10FCB8002297834687009D8BB3D6F640B72700204E
:10FCC80083A787E9858A93E606F893F6F60F81DF1E
:10FCD8009C4791DB9305050818084E861305050413
:10FCE80082979374F50FE39004F041460C081305CE
:10FCF800C4049700FE1FE7806062834774004D4785
:10FD0800850793F7F70FA303F4006377F7002285BD
:10FD1800C1259307E00581B7B727002003C537CC75
:10FD28008545EF202FB39307500535B71307C00556
:10FD3800E381E7F6814475BD130984004E86CA85C0
:10FD480022851408EFE05FC341469305C404080800
:10FD58009700FE1FE780805CE30D05E88A8613069E
:10FD6800C403CE854A85EF1030030DE12285EFE00C
:10FD7800FFCBB72700202A8783A7C7CB03550400EA
:10FD8800814601468A858297AA8411C1A1449307B6
:10FD98002002D1B583450600EFE07F8961BF0347A4
:10FDA800340093072002E315F7E47C5889EB9305A8
:10FDB800300571459700FE1FE780402868D86858CD
:10FDC800E30805E24146CA859700FE1FE780004424
:10FDD80064582285EFE09FC5238DA4009307300265
:10FDE8006DBD0347340093073002E313F7E08357F0
:10FDF800060068582146930529002318F50049058F
:10FE08009700FE1FE78080407C5483D7470113F793
:10FE1800270035C7185403574700098B2DC393078C
:10FE28004002A5BD0347340093074002E312F7DC04
:10FE38003C5C81EB854559459700FE1FE780002013
:10FE480028DC285CE30805EE4146CA859700FE1FBA
:10FE5800E780C03B9307500289B5034734009307F6
:10FE68005002E317F7D8285C194693051900410595
:10FE78009700FE1FE78080397C5483D74701918B18
:10FE88009DCF1C5483D74700918B95CB9307600275
:10FE980029B57C5C89EB9305300551459700FE1F19
:10FEA800E780C01968DC685CE30F05D24146CA8563
:10FEB8009700FE1FE78080357C5C7D5798CB4E8588
:10FEC800EFF0BFC785BD0325040813060004CA85E3
:10FED800130505049700FE1FE78040332285EFE0F5
:10FEE800FFA583473400130700056395E7009307D0
:10FEF800400565B313071005639CE700B72700208A
:10FF080003C537CC8545EF20EF949307500571B3AF
:10FF180013072005E390E7E2B727002083A787E9C6
:10FF2800E38307CC9C47E38007CC8325040893042C
:10FF38008400180893850508814626862E858297B1
:10FF4800035504001008A685EF500F879307B005E6
:10FF5800A9B3034734009307E005E31BF7C88325DB
:10FF6800040841464A859700FE1FE780203BAD44C0
:10FF7800E30105C8032504084146CA859700FE1F0A
:10FF8800E780C0282285EFE07FAAB72700202A87CC
:10FF980083A7C7CB2C580355040081460146829796
:10FFA800AA8411C1A1449307100275B1AD47E39328
:10FFB800F5D88346060083552500130665000345DA
:10FFC8000500EF403F83BDB3894761C2DDCD230003
:10FFD800A60083C70500A300F60083C71500230108
:10FFE800F60083C72500A301F60083C73500A302E6
:08FFF80006002302F60083D786
:020000022000DC
:100000004500A183858BA302F60003D74500137733
:10001000072009C793E72700A302F60083D745000E
:1000200093F7074099C78347560093E74700A30219
:10003000F60083D7450013974701635807008347AD
:10004000560093E78700A302F6002303060083C748
:100050004500858B2303F60003D74500098B09C7AC
:1000600093E727002303F60083D74500918B99C7B8
:100070008347660093E747002303F60003D7450054
:100080008147218B19C70347660013678700230345
:10009000E6003E8582802E86AA8505456FF05FF3D7
:1000A0002E86AA8509456FF0BFF289478DC505C523
:1000B000411106C6AE870D47AA852380E700138548
:1000C000170041469700FE1FE780C014B2408147E9
:1000D0003E85410182803E85828089478DC505C568
:1000E000411106C6AE871147AA852380E700138514
:1000F000170041469700FE1FE780C011B2408147BC
:100100003E85410182803E85828089478DC505C537
:10011000411106C6AE871947AA852380E7001385DB
:10012000170041469700FE1FE780C00EB24081478E
:100130003E85410182803E85828089479DCD15CDD7
:10014000411106C61D472380E50003570500AE8711
:100150002146A380E5000357050021832381E500A4
:1001600093052500138537009700FE1FE780800A5E
:10017000B24081473E85410182803E858280894729
:100180008DC505C5411106C6AE872147AA852380C6
:10019000E7001385170041469700FE1FE7808007A0
:1001A000B24081473E85410182803E8582808947F9
:1001B00095C90DC9411106C625472380E5000347AF
:1001C0000500AE871946A380E50093051500138549
:1001D00027009700FE1FE780E003B24081473E857D
:1001E000410182803E85828089478DC505C54111C8
:1001F00006C6AE872947AA852380E7001385170026
:1002000041469700FE1FE780E000B24081473E85EF
:10021000410182803E858280894795C50DC5411187
:1002200006C6AE873147AA852380E70013851700ED
:10023000130600049700FE1FE780C0FDB24081470F
:100240003E85410182803E85828089478DC505C5F6
:10025000411106C6AE873547AA852380E70013857E
:10026000170041469700FE1FE780C0FAB240814761
:100270003E85410182803E858280894791C909C9B6
:1002800095472380F50083470500A380F50081474B
:100290003E858280894791C909C9AD472380F50011
:1002A00083470500A380F50081473E85828015C500
:1002B0005D718A8586C6A2C42A84EFE06FE3035588
:1002C0000400B70602000A86938666099D45EFE0A2
:1002D0000FD5B6402644616182800545828015C5F0
:1002E0005D718A8586C6A2C42A84EFE06FE003555B
:1002F0000400B70602000A869386060A9D45EFE0D1
:100300000FD2B640264461618280054582805D71CE
:10031000A2C49305C5022A8441460A8586C6970071
:10032000FE1FE78020EF03550400B70602000A868F
:100330009386A60AC545EFE08FCEB640264461619C
:1003400082805D71A2C49305C5032A8441460A8553
:1003500086C69700FE1FE780E0EB03550400B70652
:1003600002000A869386A60DC545EFE04FCBB64046
:10037000264461618280B727002083A787E9B1CB3B
:100380009C435D71A2C486C62A841305E00F95CFF5
:10039000032504089305050C13050508829783259A
:1003A0000408130600040A85938505089700FE1FBC
:1003B000E78040E603550400B706020093868621D5
:1003C0000A8693051004EFE08FC5B64026446161AC
:1003D00082801305E00F8280317122DD2A8403556B
:1003E000050026DB06DF4AD94ED752D556D35AD15F
:1003F0005ECF62CDEFD05FBB3C58AA8489EB9305FA
:10040000300571459700FE1FE780C0C328D82858E3
:10041000CD470DC9714681459700FE1FE78020E654
:10042000032904072285EFE0EFE0230DA9008347AD
:10043000240037290020638A0712832789E985E38E
:100440009307E00FFA506A54DA544A59BA592A5AB3
:100450009A5A0A5BFA4B6A4C3E852961828083ABCB
:100460000701E38F0BFC032B0408EF40EF812A8C7C
:100470000145EF307FFF83C754003858130B0B0240
:100480009309C403130AC405938A64003AC0B337BE
:10049000F0002A87930801045688B33680015286FB
:1004A000CE855A85829B1C5403C727002307E1028F
:1004B00003C71700A306E10283C707002306F10262
:1004C000832789E9B5DF03AB4701E30B0BF683C74D
:1004D0005400B337F0003ECEEF301FFBAA8B01452E
:1004E000EF309FF803270408F2472AC03AC2B33816
:1004F000700156887810930684004E86D285880055
:10050000029B7C5403C727012305E10203C71700A0
:10051000A304E10283C707002304F102832789E9CA
:1005200003A94701EF305FF62A8B0145EF30DFF377
:1005300083C854009C082A883EC2B3381001B337E0
:1005400060013810930684015286CE8556C088001B
:10055000029903550400B70602009386A62490086A
:10056000C545EFE0CFABAA87F1BD83C65400832712
:1005700089E9032B0408B336D00083AB070136CEDC
:10058000EF309FF02A8C0145EF301FEE3C58F246C9
:10059000130B0B02130AC4059309C403938A640066
:1005A0002A88930801044E86D2853EC05687B33709
:1005B00080015A85829B1C54130B010303C727003B
:1005C0002307E10203C71700A306E10283C7070060
:1005D0002306F102832789E983AB470183C75400CF
:1005E000B337F0003ECEEF303FEA2A8C0145EF30C2
:1005F000BFE7F2472AC0B3388001568878109306C7
:1006000084004E86D2855AC28800829B83250408C6
:1006100041465A859700FE1FE780C0D0AD47E312E0
:1006200005EE0DB5B70602002E869386A610C545C9
:100630006FE0EF9E5D71B287A2C42300B1002A84EF
:10064000BE8513051100194686C69700FE1FE78078
:1006500060BCB70602000A8622859386E61AA14589
:10066000EFE0EF9BB640264461618280B70602004E
:100670002E869386E617C5456FE06F9A5D71B28747
:10068000A2C42310B1002A84BE851305210021468F
:1006900086C69700FE1FE780E0B7B70602000A860D
:1006A00022859386A613AD45EFE06F97B6402644AA
:1006B00061618280B70602002E869386861EC5453C
:1006C0006FE0EF95797122D406D626D283473500A4
:1006D000130730052A846384E708130750056396DF
:1006E000E7089307A005A301F50083477500C145FE
:1006F00013D737002A97834687009D8B1305C503C0
:10070000B3D6F640858A93E606F893F6F60F36C61A
:10071000EF30BFA7B246B727002083A787E99DCB5C
:100720009C478DCB0325040818081306C4039305C2
:1007300005041305050882971375F50F01ED1305E0
:10074000C40241460C089700FE1FE780A0AC22853A
:10075000EFF0FFBBB2502254925445618280930760
:100760009005A301F50081467DB71307100263963B
:10077000E7027C550327050883D747016319070E55
:1007800013F717006305070E185503574700058B2D
:1007900079CF93072002A301F400834734001307A5
:1007A00020026390E7103C5889EB930530057145B2
:1007B0009700FE1FE780008928D82458C9C02285E9
:1007C000EFE04FA7238DA4002858814541469700AC
:1007D000FE1FE780C0AA28583D478345A50193879F
:1007E000F5FF93F7F70F636DF702B727002083C774
:1007F00037EACDC74146814508089700FE1FE780CC
:1008000000A8B725002019469385C5B708089700AA
:10081000FE1FE78020A030580C082E85EF10B10B8A
:10082000EF108FE93C58A1452398A70013852701B5
:10083000EF30BF952C5803550400EFF0BFDE93074F
:10084000300203550400A301F400EFD0EFF5414658
:1008500011C58357E50013D617003E96B727002031
:1008600003C537CC06068545EF10DF94E5B513F7D1
:10087000270009CB185403574700098B01C793077A
:10088000400211BF918BE38A07F01C5483D74700C5
:10089000918BE38407F093076002F5BDEF30FF8E84
:1008A00041B713073002639AE7023C5889CB83D5DE
:1008B00007010355040013862701EFF03FDC7C5449
:1008C00083D7470113F7270021CF18540357470058
:1008D000098B39C793074002ADB713074002639CE9
:1008E000E700EF301FBBAA8503550400EFF01FD8C7
:1008F00093075002B9B7130750026390E704EF3033
:10090000BFB80DE9814505452EC6EF30FFB52A86F3
:10091000B24503550400EFF0FFD17C5483D7470163
:10092000918B9DC71C5483D74700918B95C3930728
:10093000600201BF85450145C1BF1307600263998D
:10094000E700EF30BFB5AA8503550400EFF09FD64E
:100950007C540327040883D7470119EF13F70710C6
:1009600001CF1854035747001377071011C7930797
:100970007002A301F400F9BB13F7072011CB185440
:10098000035747001377072001C793079002D5B795
:1009900093F7074091CB1C5483D7470093F7074048
:1009A00081C79307B002F1B79307F002D9B7397145
:1009B00022DC26DA4ED652D406DE4AD8AE89328AF6
:1009C000AA84EFD06FDE4059414681450A859700E1
:1009D000FE1FE780C08A25C80359040063159906E5
:1009E0000347340093071002631FF70283270408AC
:1009F00099CF2C58A9C94A85EF1010480545F250E7
:100A00006254D2544259B259225A216182808A8654
:100A10001306C4059305C40313058400EF00503882
:100A20001DE18A85C9BF2C5899CD83D70501639CE8
:100A300047012146C9054E859700FE1FE780808E3D
:100A400019C12C584DBF2685EFD00FD62A840545F5
:100A50005DD44C54A1C983D7050163954705214650
:100A6000C9054E859700FE1FE780C08B8547631B35
:100A7000F502B727002083C7B79391C74C5483C7AB
:100A8000B501639BA70CBD452685EF103039B7270C
:100A9000002083A7C7B30145BDD31D458945829773
:100AA0000145B1BFB727002003C747EAB729002097
:100AB0009389C9B0058B3E8931C3B727002003470E
:100AC000540083C7C7E9631BF702B7250020194606
:100AD0009385D5E9130564009700FE1FE7808084A5
:100AE0008547631DF50083A7090381C791451D450F
:100AF0008297BD452685EF10703209B73727002051
:100B0000034737EA83A7090331CB034749EA098B37
:100B100009CB81C795451D4582972685EF10103674
:100B2000F1BD81C78D451D45829741468145080825
:100B300097F0FD1FE780A074B72500201946938524
:100B4000C5B7080897F0FD1FE780C06C0C082E851C
:100B50000A86EF1041588A85268579BD8545C5FFEF
:100B60006DBF797122D440594AD04ECE52CC06D6B0
:100B700026D2AA892E8A32896303046A0355250086
:100B800083570400638CA700A144B25022542685E9
:100B900002599254F249624A45618280834424009A
:100BA00099C09D44DDB79387F5FF93F7F70F314761
:100BB000E369F7FE37D703008A071307C7CEBA9752
:100BC0009C4382871C54E9F3930530051305000408
:100BD00097F0FD1FE780004708D45DD50347090063
:100BE000914763F4E7008D444DB7034719008547EB
:100BF000E3EBE7FE13060004CA8597F0FD1FE780CC
:100C000060610C547054A3020400D4415C4A858A8C
:100C1000FD8E83574601F99BD58F231AF600D841E4
:100C2000544AF59B0583058B8582F98E8606DD8EF9
:100C3000231AD600DC41584AED9A8983858B0983B3
:100C40007D8F0A07558F231AE600D4415C4A5D9BCD
:100C50008D82858A8D83F58F8E07D98F231AF600B2
:100C6000D841544A93F7F7EF2183058BA182F98E7F
:100C7000A206DD8E231AD600DC41584AA583858B57
:100C800025837D8F9317970013F7F6DF5D8F231A67
:100C9000E600D4415C4AA982858AA983F58F9396A0
:100CA000A7009377F7BFD58F231AF600D441584A8F
:100CB000AD82858A2D83758FFD769386F67F2E070C
:100CC000F58FD98F231AF6008347260103250408E0
:100CD000A18B6381071083C72500A18B638C070E4E
:100CE000E31405EA930530051305001097F0FD1F86
:100CF000E78040352320A408E30705EE7C54A302D7
:100D000004000347190083C6170089EA51CB8347C3
:100D1000540093E70701A302F40029A0A147A3020E
:100D2000F40075F72285EFF08FDB6C5483C7250143
:100D3000858B81CF1C5483C727008D8B99C7834730
:100D4000640093E717002303F4008327040899C77E
:100D50008347640093E787002303F400834754002C
:100D60000547639FE70A414681451305840097F0D4
:100D7000FD1FE780C050414681451305840197F06F
:100D8000FD1FE780C04FC1451305C403EF30EFBF1F
:100D900083270408C1C793070005A301F400F5B336
:100DA00003C72701118B19E703472900118B19E3AA
:100DB000854795B783C70700154783460900B38762
:100DC000E70237D70300130707CABA97B69783C756
:100DD000070091B719C597F0FD1FE780A0342320C5
:100DE00004087C5403C7170011C70347190019C32F
:100DF000E14715B703C72701118B09E7034729000E
:100E0000118B5DD783C70700154783460900B38759
:100E1000E70237D70300130747C845BFC147B5BF2F
:100E200013F7870121CFC18B1305840041469DCF65
:100E3000890597F0FD1FE780E03D41468145130598
:100E4000840197F0FD1FE780804383476400C1451C
:100E50001305C40393E747002303F400EF30EFB218
:100E60008327040891CB9307200505BF814597F0A0
:100E7000FD1FE780C040D1B7CD4705B70947894579
:100E8000638AE700114785456386E7001947639742
:100E9000E7008D4503550400EF40AF8983476400A8
:100EA00093E747002303F4008327040881C79307CF
:100EB0001005E5B5C547D5B54146CA851305C40437
:100EC00097F0FD1FE7800035834734001307600566
:100ED000639CE700B727002003C537CC8545EF109A
:100EE000EF979307500555BD45476383E702930687
:100EF000C4021306C403930584002285EFD05FA8C3
:100F00002285EFF0CFC0AA8411C1A144D14771B5A9
:100F1000C94761B59309C4054E854146CA8597F016
:100F2000FD1FE780202F0325040861CD834734008F
:100F3000130790056398E7002285EFF08FC09307B1
:100F4000E005A1BD1307A005639EE706B7270020B3
:100F500083A787E9E38707C403A88700E30308C4DE
:100F600083477400930505084E8613D737002297F0
:100F7000834687009D8B0A87B3D6F640858A93E621
:100F8000060813050504029841468A851305C40422
:100F900097F0FD1FE780003911E1D2842285EFF040
:100FA0004FBA83477400CD461307E005850793F7D2
:100FB000F70FA303F40063E4F60013076005A30131
:100FC000E400E1B61307C005E391E7BCB7270020B2
:100FD00083A787E9E38707BC9C47E38407BC9305A5
:100FE0000508130984000A8781464A862E85829760
:100FF000035504000A86CA85EF309FFC9307B005AD
:1010000069BB8A864E86930584002285EFD05F9760
:1010100041469305C4040A8597F0FD1FE7808030A0
:101020008547D284E313F5B62285EFF08FB1AA8409
:10103000E31C05B4930710028DB3034734009307F4
:101040007002E310F7B67C5889EB930530057145C3
:1010500097F0FD1FE78000FF68D86858E30305B4E8
:10106000CA85414697F0FD1FE780C01A032944074F
:101070002285EFD03F9C230DA9009307800231BB4E
:101080000347340093078002E31DF7B0835706003F
:1010900068582146930529002318F500490597F063
:1010A000FD1FE78020177C5483D7470113F70720E3
:1010B00025CB1854035747001377072035C39307F0
:1010C0009002E1B90347340093079002E31BF7ACA9
:1010D0003C5C89EB93053005594597F0FD1FE7808F
:1010E00060F628DC285CE30E05AA4146CA8597F025
:1010F000FD1FE78020129307A00245B1034734008B
:101100009307A002E31FF7A8285C1946930519006E
:10111000410597F0FD1FE780E00F7C5483D747011E
:1011200093F70740B1C71C5483D7470093F7074094
:10113000A1C39307B00295B1034734009307B002EF
:10114000E311F7A67C5C89EB93053005514597F0D8
:10115000FD1FE78020EF68DC685CE30705A24146DD
:10116000CA8597F0FD1FE780E00A7C5C7D5798CB2D
:1011700003D529008145EFD00FCC01BC03473400D3
:101180009307F004E3F2E7A003250408E30E059EAD
:1011900013060004CA851305050497F0FD1FE780B8
:1011A00060072285EFF02F9DAA842285EFD08FF96A
:1011B0008347340013070005639FE700B72700202B
:1011C00003D6E90003C537CC85450606EF009FFE30
:1011D00093073005D9B6130710056395E700930709
:1011E000600565BE13072005E391E79A9307C005E4
:1011F0006DB6034734009307E005E317F79803251E
:1012000004084146CA8597F0FD1FE780A0002285AB
:10121000EFF08F9CAA8439BD83450600A9BF85479E
:101220008144E394F596032846008347360003473C
:101230002600834616008355250003460600014517
:10124000EF306FD299B28147C1463307F500B388BA
:10125000F5000347070083C808003308F600850738
:10126000334717012300E800E391D7FE828001474E
:10127000BD471308F00F3306F50083460600B38818
:10128000F500FD178606558F2380E800034706000A
:1012900093F7F70F1D83E39007FF82808147930840
:1012A00000F8414893F6F70F3387F50063FCC6005A
:1012B000B306F50083C606002300D7008507E39335
:1012C00007FF82806395C60023001701C5BF230076
:1012D0000700EDB701114AC856C22E89AA8A9305A4
:1012E0003005414506CE22CC26CA4EC652C4328AAB
:1012F00097F0FD1FE78000D5AA849305300541458E
:1013000097F0FD1FE78000D42A84CD49A5C431CDD4
:101310004146814597F0FD1FE78060F62686A2854D
:101320005685EF00515BAA8929E18387040063D3C6
:101330000706A2852685EFF09FF3B7D503004A86FE
:10134000938505D22285EFF01FF08307090063D84B
:101350000704A2854A85EFF09FF1B7D503005286B6
:10136000938505D22285EFF01FEE268597F0FD1FAD
:10137000E78040DB11C4228597F0FD1FE78080DA0B
:10138000F24062444E85D2444249B249224A924ACE
:1013900005618280CA852685EFF07FED7DB7D28515
:1013A0004A85EFF0DFECD1B781474146B306F5003F
:1013B0003387F5000347070003C806008507334756
:1013C00007012380E600E393C7FE8280011126CA4D
:1013D0004EC6AE84AA8993053005130500034AC89A
:1013E00006CE22CC328997F0FD1FE780A0C52DC51F
:1013F0001306000381452A8497F0FD1FE78020E84B
:101400004146CE85228597F0FD1FE78040F6A685F0
:101410000D461305D40197F0FD1FE78040F5130634
:101420000402930504012285EF00F14AAA840D46C7
:101430009305D4024A8597F0FD1FE78040F322858B
:1014400097F0FD1FE78000CEF240624426854249B6
:10145000D244B24905618280CD44FDB75D714EDE54
:1014600062D4AE892A8C9305300513050003A6C209
:10147000CAC052DC56DA5AD85ED686C6A2C4B28B2F
:10148000368BBA84BE8A4289468A97F0FD1FE78070
:1014900060BB630505101306000381452A8497F09D
:1014A000FD1FE780C0DD4146E285228597F0FD1FE4
:1014B000E780E0EB414681450A8597F0FD1FE78014
:1014C00000DC1D46DE850A8597F0FD1FE78020EAD7
:1014D0001D46DA851305710097F0FD1FE78020E9AE
:1014E00033392001B3349000414681450808230771
:1014F0002101A307910097F0FD1FE78040D819460E
:10150000D685480897F0FD1FE78060E61946D2852A
:101510001305A10197F0FD1FE78060E59304040126
:101520004146CE85268597F0FD1FE78040E48A85F9
:101530002685EFF07FE7930904024E86A685228573
:10154000EF0071392A890DE94146CE85268597F04D
:10155000FD1FE78020CC0C082685EFF0FFE44E86C7
:10156000A6852285EF0031372A8946454146CE853A
:1015700097F0FD1FE780A0DF228597F0FD1FE78031
:1015800060BAB64026444A8596440649F259625AE2
:10159000D25A425BB25B225C616182804D49D5B711
:1015A000011126CA52C4AA842E8A1305000393058A
:1015B00030054AC84EC606CE22CC3289B68997F08D
:1015C000FD1FE78020A835C52A84A685414697F0EF
:1015D000FD1FE780C0D9930404012146D2852685EA
:1015E00097F0FD1FE780A0D8CA8521461305840126
:1015F00097F0FD1FE780A0D713090402A6854A864D
:101600002285EF00512DAA844146CA854E8597F068
:10161000FD1FE780C0D5228597F0FD1FE78080B0D1
:10162000F240624426854249D244B249224A0561C9
:101630008280CD44F5B739715AD05ECE2A8BAE8BFD
:1016400041459305300506DE26DA52D456D262CCE7
:1016500066CA6AC8368C328DBA8C22DC4AD84ED61D
:1016600097F0FD1FE780009EAA8A9305300541454B
:1016700097F0FD1FE780009D2A8ACD44638E0A08FB
:1016800059C52A86D6855A85EFF0DFC4AA8441E180
:1016900093053005414597F0FD1FE780A09A2A8900
:1016A00093053005414597F0FD1FE780A099AA8971
:1016B000630A090E6306050E1304FD0011841376F8
:1016C000FD0049C07D144204418035EE13154400ED
:1016D0004E86D6855E95EFF01FB7414681454A8517
:1016E00097F0FD1FE780A0B9014D93170D01C1834D
:1016F00063F48708BDC04A8597F0FD1FE78080A28C
:10170000638709004E8597F0FD1FE780A0A15685ED
:1017100097F0FD1FE78000A163070A00528597F04C
:10172000FD1FE78020A0F250625426854259D25412
:10173000B259225A925A025BF24B624CD24C424D41
:10174000216182800144131544008A855E95EFF083
:10175000FFB44E86D2850A85BDBF93154D000A861B
:10176000DE954A85EFF03FAE4A868A855A85EF00BE
:101770009116AA84050D95BFBDFC0A86CE854A85C3
:10178000EFF07FAC4A868A855A85EF00D114AA848F
:101790006686CA85628597F0FD1FE780A0A7A1BF76
:1017A000CD4491BFCD44A9BF397162CC2A8C594533
:1017B00026DA4AD84ED652D456D25AD05ECE06DE5B
:1017C00022DCAE8B328BB68A3AC63E8AC289468903
:1017D00083440104EF000FC549C19167938717E95E
:1017E0002310F50085472301F5002A84324721059F
:1017F000630C0C0493071003A301F4001946814500
:1018000097F0FD1FE780A0A723036401A303540101
:10181000230A94002312740123174401231834016E
:1018200023192401A285B72700206254F250D25414
:101830004259B259225A925A025BF24B624C03C58A
:1018400007CC21616F00EFCBA30104001946BA85D4
:1018500097F0FD1FE780009C45BFF2506254D254C0
:101860004259B259225A925A025BF24B624C2161A0
:101870008280797156CAAA8A1305100326D24AD0EB
:101880004ECE52CC06D622D42EC6328AB684BA891F
:101890003E89EF002FB92DC1B245374602019307AB
:1018A0008500130616E92A845CC110C12304550182
:1018B000A304B5001946D285290597F0FD1FE780DE
:1018C0006095CE852308940013051401268697F0B1
:1018D000FD1FE780209423082403A285B72700205A
:1018E0002254B25092540259F249624AD24A03C574
:1018F00007CC45616F00EFC0B25022549254025998
:10190000F249624AD24A45618280011122CC2A847E
:10191000314506CE2EC632C436C23AC0EF008FB073
:1019200029C19167938717E92310F500B245224634
:10193000924602478D472301F500A30185006244CA
:10194000B72700202312B5002313C5002314D500A8
:101950002315E500F240AA8503C507CC05616F0099
:101960004FBAF24062440561828001114AC82A8957
:10197000394526CA06CE22CC2EC6B284EF008FAAE5
:1019800031C1B2459167938727E92310F50091474C
:101990002301F500A30125012312B5002A84A685A1
:1019A0001905214697F0FD1FE780C086A285B7275D
:1019B00000206244F240D244424903C507CC05618D
:1019C0006F002FB4F2406244D244424905618280E4
:1019D00001114AC82A89414526CA06CE22CC2EC604
:1019E000B284EF002FA429C19167B245938727E9FC
:1019F0002310F50095472A842301F50023122501C1
:101A00002146190597F0FD1FE780C080A2852317A6
:101A10009400B72700206244F240D244424903C5F3
:101A200037CC05616F00EFADF2406244D2444249C9
:101A300005618280011122CC2A84394506CE2EC64A
:101A400032C436C23AC0EF00EF9D29C19167938737
:101A500017E92310F500B2452246924602479947FE
:101A60002301F50023128500B727002062442313C9
:101A7000B5002314C5002315D5002316E500F24058
:101A8000AA8503C507CC05616F00AFA7F240624489
:101A900005618280797122D406D62A842EC632C48A
:101AA00036C23AC0EFC04FD01DC1B2452246924661
:101AB0000247231CB100231DC1002C081306F00FA0
:101AC0002285231ED100231FE100EFC02FBDB2509D
:101AD000225445618280011122CC2A84394506CEE8
:101AE0002EC632C436C23AC0EF00CF9329C19167E7
:101AF000938717E92310F500B24522469246024724
:101B00009D472301F50023128500B727002062447A
:101B10002313B5002314C5002315D5002316E500B3
:101B2000F240AA8503C507CC05616F008F9DF24086
:101B30006244056182805D712AC613052002CAC015
:101B40004EDE52DC56DA5AD85ED662D466D26AD0FD
:101B500086C6A2C4A6C26ECE2E8CB28B368B3AC479
:101B60003E8DC28CC68A035A01058359410503493B
:101B70008105EF002F8B69C591663243938616E984
:101B8000A9472A842310D5002301F500930DE40012
:101B90002105930444012247630D030693071003B4
:101BA000A301F4001946814597E0FD1FE780206DF1
:101BB000194681456E8597E0FD1FE780406C194608
:101BC0008145268597E0FD1FE780606B2303740144
:101BD000A30364012300240323128401231D540161
:101BE000231E4401231F3401A285B7270020264469
:101BF000B64096440649F259625AD25A425BB25BE9
