:10C000006F00026A000000000018011800280128D3
:10C0100002280328002901290229032904290529C6
:10C02000062907290829002A012A022A032A042AA4
:10C03000052AA62AFCCD0200D4DD00002003002042
:10C040009E030020A80200207A0200201002002097
:10C050006ADE0000AEDE0000C2DF000030E2000059
:10C060000EE300001EDC0000F2DA0000A8DB000096
:10C0700040DB000004E900002805002040DE00004D
:10C08000F2E500005085020048870200C0870200E8
:10C09000D2470200E2470200BAF9010066EC010053
:10C0A000447F020028E600009C4E0200F287010057
:10C0B00080880100D88801008CF10000D8F10000D0
:10C0C00042F0000014440100CE3E0100AC4D0100DE
:10C0D0007C5101002855010006310100A430010007
:10C0E0008C340100523101007A300100FE30010031
:10C0F0002C300100D63101002E320100DE3101006A
:10C10000E23101007C320100363201006832010068
:10C110008237010086370100D2310100DA31010097
:10C120007A320100843701002A330100F43801001B
:10C130008663010004640100426401007846010046
:10C1400090460100CC460100262B01000A2C01007C
:10C15000722C010066100100080B01004221010051
:10C16000860B0100A61C01005AAF0200A0A7020026
:10C170007CAC0200A6C202008CC1020018C50200FD
:10C1800008C5020010C5020050C50200C099020097
:10C19000000000000000000000000000000000009F
:10C1A000C0C5020086BF02001CBF020000000000E4
:10C1B000000000000000000000000000000000007F
:10C1C000CE680200FE560200845A02005C5802004B
:10C1D000A4620200EC7F0200E27E0200F4990200F9
:10C1E0008AEA0000FA4802007C4E0200744F020006
:10C1F000000000000000000000000000764A01007E
:10C2000000680200000000000000000000000000C4
:10C21000AE560200420C0020C44902003CC5020098
:10C2200000000000000000000CC50200C0E100009A
:10C23000CA47010044C50200A4690200726A0200F4
:10C24000EC6A0200DAAC020040C5020048C50200F8
:10C25000F2EB01004CC50200A410002034170020AE
:10C26000BAAC020060AE0200000000000000000056
:10C2700000000000000000000000000000000000BE
:10C280006373B60082801C419105110523AEF5FE53
:10C29000C5BFB7270020372700209387878813075B
:10C2A000C7DE6373F700828023A007009107D5BF24
:10C2B000411122C4B7C7004006C603A4C72023A665
:10C2C00007200F10000011C199E5B7C7004023A651
:10C2D0008720014545A893073500C207C183F19B1C
:10C2E000C207C183130740036366F70237270020A4
:10C2F0000325079E372700208326879D6391A6028A
:10C3000037270020032787A669D3C207DD8D05459F
:10C31000029765BF372700200325C79DE1BF03575C
:10C3200065002DE7035745006362F706B726002036
:10C330003306F74021489386869E6378C802832897
:10C34000050003D86600138687001D8F2A966117A3
:10C350002312E600232016012313060010C1231226
:10C36000F500130788FF2393E6002313B50083D558
:10C3700066002105B387F5402393F600B7C7004058
:10C3800023A68720B2402244410182800841BDB7E4
:10C39000B7C7004003A8C72023A607200F1000003E
:10C3A00001E523A607218280B727002003AE079E60
:10C3B000B727002003A3879D8146F28763FC670AA5
:10C3C00083A80700636BF50A63E9A80A138787004F
:10C3D0006362E50A03D66700216705076319E60073
:10C3E000372600200347069105072308E6903726E5
:10C3F00000201305869E83D54700035765002393CD
:10C4000007001306869E2E97420741832313E500FB
:10C410006387C703372500200325C59D6301F50207
:10C4200003D5660009ED83D7460023A01601210736
:10C43000BE95A1052392B6002313E600B687984364
:10C44000630A6702B726002083A6C69D6304D7024D
:10C450008356670085E283D647008355470018431B
:10C46000A106AE962392D70098C383576600A10712
:10C470002313F600B7C700402DB7BE86C6873DBF61
:10C48000B7C7004003A7C72023A607200F1000004E
:10C4900001C599C1814711E6B7C7004023A6E7202F
:10C4A0008280B386F50003C80600B306F500850751
:10C4B00023800601E317F6FEC5B737C70040832780
:10C4C000C720232607200F10000019C191C111E6D3
:10C4D00037C700402326F7208280910503A7C5FFB8
:10C4E00011057D16232EE5FEDDB737C700408327F3
:10C4F000C720232607200F10000001C53307C50001
:10C5000011E637C700402326F72082800505A30FD8
:10C51000B5FEE31DE5FEF5B7B7C7004083A6C7200B
:10C5200023A607200F10000081473307F5000307FB
:10C53000070019E737C700402326D7203E858280B1
:10C540008507E5B7011126CA4AC8B7C7004006CE1D
:10C5500022CC83A4C7202A892E8623A607200F1069
:10C560000000131506019305F004418132C689339A
:10C570002A8401C53246CA8521372285F2406244A9
:10C58000B7C7004023A697204249D2440561828064
:10C59000B7C7004003A7C72023A607200F1000003D
:10C5A00001C599C1814711EAB7C7004023A6E7201A
:10C5B000054582808507E309F6FE3308F500B3865A
:10C5C000F5000348080083C60600E305D8FEB7C798
:10C5D000004023A6E72001458280B7C7004003A79B
:10C5E000C72023A607200F1000009307F6FFBE9573
:10C5F0002A966317C500B7C7004023A6E7208280AC
:10C60000FD1583C715000505A30FF5FEDDB737C778
:10C6100000408327C720232607200F10000001C5F4
:10C620003307C50019E637C700402326F720014528
:10C63000828005058346F5FFE397B6FEE31BE5FE22
:10C6400037C700402326F72005458280797126D21E
:10C65000B724002022D403A444A306D64AD04ECE49
:10C6600052CC56CA5AC85EC662C44DC4372A00208E
:10C6700037290020B7290020814BB72A002037CB6B
:10C68000C901130A8AA31309899E938909A88357AC
:10C69000240099EF5C44639A0B0023AAF4A2032CB4
:10C6A000C4002285F531628499A823A6FB00C5BF8A
:10C6B00083A7CAA282971C443307F5406376F5002E
:10C6C00003A749001D8F2A979306FB3763E8E60608
:10C6D00023280900835524000345040097E000E067
:10C6E000E780E09F5C405844B1C31444B69783A6EA
:10C6F000490063E3D700958F1CC4A28B3A8441F8AC
:10C70000B72700209387879E984B854663FCE604F5
:10C710007D1798CBB250225492540259F249624A82
:10C72000D24A424BB24B224C4561828063950B004A
:10C7300023AAE4A2ADB723A6EB0095B703274A02CC
:10C7400019CB63EDA7003385A740832709016374E4
:10C75000F5002328A900A28B404455B703A7490040
:10C76000BA97D5B723A8070075B7B727002003A746
:10C7700087A7411122C406C63E8411C30297B7277A
:10C78000002083C7A7A293F7F70F99E3232C04A6F1
:10C79000B24022444101828001114AC83729002059
:10C7A000832749A106CE22CC26CA4EC652C456C201
:10C7B0005AC081C78297232A09A0930749A1DC4365
:10C7C000B7240020938444A191C38297832749A171
:10C7D0006394071A372400209307C4D183C77700D6
:10C7E00015471304C4D16309F718372A00209307AB
:10C7F0000AA883C7C700130A0AA885E38347540021
:10C80000858B81CF8347740019476312F70EA3020B
:10C810000400EF00703FDC4482979C4491C38297F0
:10C82000B7240020B72900209387849E03A709A37B
:10C8300003C61700938A849E83C7849E939617002D
:10C84000BA9683D60600DDCE83C7849E63E4C70C08
:10C85000832749A12384049E6390071283477400B1
:10C860001547630BF7108347940081CF834774000B
:10C8700093F7F70F99E7A3040400974002E0E780DD
:10C88000005DB727002083A7C7A2FDC783274A0002
:10C8900023A8FA00653BB727002083A7C7A5E9CFE7
:10C8A0008347740015476369F70CB7270020938707
:10C8B000C7D583C7C700918BE1E3B727002083C7A3
:10C8C000A7A293F7F70FCDEB83C61A0003A609A31F
:10C8D00063CED70A6244F240D2444249B249224A66
:10C8E000924A024B056117E300E0670023D18347BA
:10C8F00074001D47E313F7F2A3020400EF00D030E9
:10C900009C4819BF850793F7F70F2384F49EE3E54E
:10C91000C7F21DBF86073E97835507002310070007
:10C9200003C5849EB727002083A707A113172500FE
:10C93000372B0020BA979C4323140BA2829783576E
:10C940008BA203C7849E93C7F7FF7D8D93171700B3
:10C9500003A709A33E97835707005D8D2310A70007
:10C9600083C7849E81C785072384F49E03C7849E62
:10C9700083C71A00E37EF7ECF2406244D244424996
:10C98000B249224A924A024B0561828013971700EE
:10C990003297035707006DF385071DBF37C7004067
:10C9A0008326C720B707FCFFFD17F58F2326F72046
:10C9B0000F100000B72700209387879EC84F83275A
:10C9C00087262326D7206A0593C7F7FF99835D8DB5
:10C9D00082800327851163000712411122C406C615
:10C9E0008347C5008345E5042A8493F7C70F2306D0
:10C9F000F500834697000356C700139586016185AD
:10CA000063F1C508635A05060345870093F6F607E8
:10CA1000A304D700054693E627006314C50093E6F8
:10CA200017002306D4005C4389075CC3A30AB40043
:10CA3000032504112E864C4309059934832784115C
:10CA400003465401D44303D7C700B296118FD4C311
:10CA50002396E7008947A30DF400B727002003477A
:10CA6000640383C7A7A46378F7048347C40093E7EC
:10CA700007012306F40081A093E717002306F400C2
:10CA800075B79376F60F635D05020345870085450C
:10CA900013E627006314B50013E617002306C4004D
:10CAA000A30AD400A30407008547A30DF40083273D
:10CAB00084119C43DDF3B240224401454101828050
:10CAC00093E717002306F400A30AD400A304070089
:10CAD000032504114C43090565328327841103465D
:10CAE0005401D44303D7C700B296118FD4C3239601
:10CAF000E7008D475DBF05458280B727002083A7EB
:10CB0000C7CF411122C406C6858B2A84DDEB41655F
:10CB1000130525F5970002E0E780C03F5DC183471C
:10CB2000A5002315F50083270412B5E72320A412DE
:10CB30002322A41285472311F404232005008347F0
:10CB4000640154412316F5000347D4002304E50093
:10CB50000547A304E50037270020032747D31385A3
:10CB6000170215811C437D151375F50F9CC25C439C
:10CB7000DCC21C479CC65C47DCC61C4B9CCA5C4B99
:10CB8000DCCA1C4F9CCE5C4FDCCE19CD93860602CE
:10CB900013070702C1BF8327441288C383572404A5
:10CBA0002322A412850741BFB7270020938707BE21
:10CBB00003D7870005072394E700B24022444101D0
:10CBC00082808347C40023090400054593C74700BA
:10CBD0002306F400DDB78347850193F7E70FDDEB0C
:10CBE00083479501C5EB034625018346C50009CA65
:10CBF00037270020834565030347B7A463E7E500B3
:10CC000013F7060149CB014709C6C18A0357E51846
:10CC100081C68356251936973DCFB727002003D507
:10CC200087A81307C71237460F00B335A702411173
:10CC300013060624814622C426C206C67D54330547
:10CC4000A70297C002E0E780E0D3B727002083C7A0
:10CC5000F7A4B384A700B727002003A787C68327BC
:10CC6000070963F387003E84184375FBB72700204C
:10CC700083A7C7A2829781476364A400B307A44037
:10CC8000B2402244B3B7970093C7170092443E8541
:10CC90004101828081473E858280B727002003A71B
:10CCA00087D33C5BFDFF828001114AC837290020F1
:10CCB000930709BE22CC03A4070906CE26CA4EC696
:10CCC00052C4630C041A83570404A30F040013090D
:10CCD00009BE85072310F404834704142285638664
:10CCE000071A452C228597F001E0E780000F6316B4
:10CCF0000518B7290020938609A803D58600835715
:10CD0000640837470F001306F723B387A7021307FA
:10CD1000072483240409230B040203AA46009389F1
:10CD200009A8B297B3D7E70263E3F416B387F440D8
:10CD30002324F4088327C408BE9463E44401B38425
:10CD400044418357040223289408B1C7835604043E
:10CD50000357440237460F002312D4023387E640BC
:10CD6000B387E70203572402130606248146814550
:10CD7000BA97C207C1833385A7022311F40297C073
:10CD800002E0E78020C001C9AA9463E44401B384AF
:10CD9000444123289408372A00208327CAA2829777
:10CDA000AA848327CAA28297E30D95FE8327CAA28D
:10CDB00083248408829763E1A40E3385A4406DC167
:10CDC0008327C408637EF50CB7440F0093840424C2
:10CDD000B335950203DA890003592402814652864D
:10CDE0003305950297C002E0E780C0B9B309A900F6
:10CDF0003305490337460F00130606248146814553
:10CE000097C002E0E78000B815C1B337950252869B
:10CE10008146B385B4023385A402BE9597C002E073
:10CE2000E78040B63305A9402311A4022945974065
:10CE300002E0E78000100347B4008547631EF70057
:10CE4000930700FD2307F400B727002003A587D030
:10CE500097E000E0E780208DB72700209387C7D1B7
:10CE60001547A383E700B727002083A787D3370799
:10CE70001000860998C723A83707F2406244D244BD
:10CE80004249B249224A056182808D20A1BD338783
:10CE90004401B307F74069BD83A74900BE9431BF81
:10CEA00023280908B7E700E03707001023A0E72090
:10CEB000E9B7B727002083C7C7A89DC3B7270020BD
:10CEC00083A707C785C3B7270020238507A2B727F5
:10CED000002083A787D337071000D8C70547B8DBE2
:10CEE0000545828017F301E06700C37A797126D285
:10CEF00006D622D44AD04ECE52CC56CA5AC85EC6A6
:10CF00008347550303447513AA843E941374F40FA6
:10CF10009307400263F687001304B4FD1374F40F03
:10CF200003AA841383AAC413A38B84122286528576
:10CF3000D68597C002E0E78020A2058915E503CBDE
:10CF4000D41201498149337B6403930B50024A8612
:10CF50005285D68597C002E0E78000A0058915C5F7
:10CF6000639169031374F90F238B8412B250225416
:10CF700092540259F249624AD24A424BB24B45613D
:10CF800082808509E20993D989410509E31179FD78
:10CF9000E1BF8327850903560504797193D60701FC
:10CFA000BD8EC206C182358E1357764093575640C8
:10CFB000898B058B5D8F93573640918B5D8F93578F
:10CFC0001640A18B5D8F93171600C18B5D8F931751
:10CFD000360093F707025D8F93175600935586002E
:10CFE00093F707041E065D8F1376F60F518F93D7C4
:10CFF000554013D63540118A898BD18F13D6754091
:10D00000D18F13D61540218AD18F13961500418AEE
:10D01000D18F1396350013760602D18F13965500E3
:10D02000137606049E05D18F93F5F50FCD8FA207D9
:10D0300045465D8F3307C70222D42A8426D252CCBC
:10D0400056CA032A8413832AC4135AC806D63697AD
:10D050004207418393577740135557400989858B81
:10D06000C98F135537401189C98F1355174021892E
:10D07000C98F131517004189C98F13153700137510
:10D080000502C98F131557009355870013750504C2
:10D090001E07C98F1377F70FD98F13D5354013D7D4
:10D0A00055401189098B498F13D57540498F13D588
:10D0B00015402189498F139515004189498F139592
:10D0C000350013750502498F139555001375050436
:10D0D0009E05498F93F5F50F4D8F2207D98FB387A2
:10D0E000C7024AD04ECE5EC662C4B697C207C1839D
:10D0F00013D7774013D557400989058B498F13D52E
:10D1000037401189498F13D517402189498F1395CD
:10D1100017004189498F1395370013750502498F10
:10D120001395570093D58700137505049E07498F03
:10D1300093F7F70FD98F13D5354013D75540118981
:10D14000098B498F13D57540498F13D51540218917
:10D15000498F139515004189498F13953500137533
:10D160000502498F13955500137505049E05498FD7
:10D1700093F5F50F4D8F2207D98FB387C70213069A
:10D1800050025285D685B697BD8E93940601C18014
:10D1900033F6C402137BF60F97B002E0E780C07B42
:10D1A00005890DED8347D41201498149B384970263
:10D1B000130C5002C1804A865285D68597B002E092
:10D1C000E78080790589937BF90F11C56386340365
:10D1D000850993F9F90F0509E31F89FD230B6413F2
:10D1E000B250225492540259F249624AD24A424BF6
:10D1F000B24B224C456182805E8BCDB70111B727BF
:10D20000002022CC03A487C926CA4AC84EC606CE2F
:10D21000AA8413092500854915C083C71400034754
:10D220003400858B6304F700405CFDB71946930515
:10D2300044004A85EFF0CFB5E31835FF2285F24070
:10D240006244D2444249B249056182804111B72704
:10D25000002022C403A487C926C24AC006C693047C
:10D260002500054901E82285B24022449244024942
:10D2700041018280A6851305A402972002E0E78081
:10D28000A0F6E30225FF405CF1BF4111B727002063
:10D2900022C403A487C926C24AC006C69304250037
:10D2A000054901E82285B2402244924402494101E5
:10D2B0008280A6851305A401972002E0E780C0F2D2
:10D2C000E30225FF405CF1BF0111B727002022CC0B
:10D2D00003A407C926CA06CE2AC42EC6854419E46B
:10D2E0000145F2406244D244056182808347910047
:10D2F00003471400858B6304F7000044CDB719463B
:10D300009305A10013052400EFF08FA8E31795FE05
:10D310000545C1BFB726002003A706D101114AC8A1
:10D320001C5F4EC606CE998322CC26CA858B3689D1
:10D33000B7290020ADCF93070006372400201CDF5B
:10D340009307C4D183C76700130700089304C4D1AF
:10D350006319F70083A7C9D09C4393F7070423837D
:10D36000F4008347C4D193F7070489CFB72700207F
:10D3700083A7C7A2829788C88347C4D193F7F70BC6
:10D38000230EF4D083C7440093F707048DE3854749
:10D39000A382F400B727002083A787D337070200B2
:10D3A00098C7130700FC2382E400D844F8D303276E
:10D3B00009D11C5F9183858B95C31C5F93E707019F
:10D3C0001CDFB727002083A787D3054723A20706C2
:10D3D000B72700209387C7D12382E70083A7C9D04E
:10D3E000D8430583058B19C7D843759BD8C3D84349
:10D3F000799BD8C3F2406244D2444249B2490561A4
:10D400008280093F73002030B7270020B726002014
:10D4100003A687D39387C6D103C7C6D1058B11C78F
:10D4200023820700A3820700828003C71700058BB1
:10D4300065FB785275F303C75700EDB73727002017
:10D44000032807D1832788039583858BC1E311C601
:10D4500083270803BD832300F60085CA832707D1ED
:10D46000985B4607935767016356070093E707C029
:10D47000C207C18303970600C207C18709C7BA97CD
:10D480000947B3C7E7022390F6009DCD83451500F9
:10D4900085CDB72700209387C7D183C7670013873F
:10D4A0009500894593F7070485C33A95834705009E
:10D4B0000547994593F6F7066398E600E207E1878A
:10D4C000814563D30700B9452E8582808545EDBF30
:10D4D000411122C406C63724002026C2032784D364
:10D4E00059E5AE877453FDFEB72400209384C4D160
:10D4F0003E85B28523810400974002E0E7804082A8
:10D50000B727002083A707D1B70680009843558F1F
:10D5100098C3D857719BD8D7832784D3A38204009C
:10D52000A3800400094798C3B7F700E003A707D119
:10D530006D9B23A8E7D003A707D15D9B23A8E7D065
:10D5400073005010832684D3B72700209387C7D158
:10D5500003C72700058B19E703C73700058B41C3B5
:10D5600023820700B24022449244410182808D47C9
:10D57000631FF500B727002083A707D1B7068000F7
:10D580009843558F98C3D857719BD8D765BF8547A7
:10D59000E31AF5FA54478177FD17F58F5CC70F1032
:10D5A0000000032784D3B7070200130600F81CC746
:10D5B000B72700209387C7D12382C700B727002051
:10D5C00083A707D19C439D83858B6397A70093070F
:10D5D00060197CD354C7BDB79307E01BDDBFF85279
:10D5E00025FB49B7411122C437240020832784D367
:10D5F00006C6D8479316D70063D3060298479316FA
:10D60000D70063DE06007D57B8D737270020130701
:10D61000879E544F850654CF3707040098C7984714
:10D620000D83058B0DC3372700201307C7D1834611
:10D63000270093E616002301D700930600F8230283
:10D64000D700214798C79847058B09CF3727002077
:10D650001307C7D18346170093E61600A300D7002F
:10D66000054798C798470983058B09E798470583BD
:10D67000058B05CF372600209306C6D1A38206006E
:10D6800098470983058B75CB0347C6D113671700ED
:10D69000230EE6D0114798C737270020832607D1ED
:10D6A000D856719B13671700D8D698479316F70082
:10D6B00063D4060237270020930607BE03C6C606BA
:10D6C000130707BE418A71C203C7C6061367070264
:10D6D0002386E606416798C798479316E70063D20A
:10D6E0000602372700201307C7D183464700E2060A
:10D6F000E18663D5060085462302D700370702007E
:10D7000098C798479316C70063D3060237270020AF
:10D71000130707BE8346D706858AC1CA8346D70644
:10D7200093E62600A306D7063707080098C7984750
:10D730009316B70063DF06023707100098C7B727B4
:10D74000002083C7C7A895C7B72700209387C7D1F4
:10D7500083C777001547630EF700B727002083A71C
:10D7600047D091C38297032784D3B7071F00BD0713
:10D770005CC7B24022444101828003C73600136770
:10D780001700A381E600094739B78346C706094653
:10D79000BD8A6388C6008346C7060D46BD8AE39BE3
:10D7A000C6F291462306D70635B78346D706918A37
:10D7B000A5DE8346D70693E68600ADB7372700205F
:10D7C000B72600201386C6D31307C7D58347D700D3
:10D7D0008345B601484AAE97FD8BB355F500A300CB
:10D7E000F600A306F700858995E9034717018146EE
:10D7F00013080002B3F7E7020147B355E500858936
:10D800009378F70F89C96395D700A300160182802A
:10D81000850693F6F60F0507E31107FF8280B72709
:10D8200000209387C7D183C7570093F7F70FD1EB39
:10D83000B727002083A7C7A2411122C44AC006C649
:10D8400026C28297372900209307C9D5804713093C
:10D85000C9D56302A40663688504018DB72400203E
:10D860009387C4D383C7A701135455009384C4D3AB
:10D870006363F404A13783C7A40103278900939647
:10D88000570036971D8C2324E900E375F4FE2244EB
:10D8900003C51400B2409244024981454101174337
:10D8A00002E06700E3AFB727002083A747A83384CF
:10D8B0008740229565B7B240224492440249410113
:10D8C00082808280B727002083A7C7A2011122CCC3
:10D8D00026CA52C406CE4AC84EC68297B724002034
:10D8E0009387C4D58047014A630CA4049384C4D5AC
:10D8F00063618506018D372700209307C7D383C74F
:10D90000A70113545500137AF5011309C7D36366B1
:10D91000F402B7290020938909A84D358346A9014F
:10D920009C4403A64900139756003E97158C6363E9
:10D93000C700118F98C4E372D4FE1604336A440101
:10D94000F24062445285D2444249B249224A0561BA
:10D950008280B727002083A747A833848740229579
:10D9600059BFB727002003A787D38967938707F498
:10D970007CD3B727002083A7C7D883A607091396AF
:10D9800056006358060083A6070913966600634491
:10D9900006007453FDF28280EFE03FDD730000006B
:10D9A00000000000970200009382622F03830200B0
:10D9B00023800200630F0300F32510342EC0970567
:10D9C00000009385A5FD73901534EFF0BFC173007F
:10D9D000203086DCEFF01FC1E6508280000000009E
:10D9E000B72700203727002083A7079E0327879D9E
:10D9F00001456313F700828083D6670081E683D6F2
:10DA0000470036959C43F5B7B727002083A587A329
:10DA100037270020938787A3138605222320C79EDC
:10DA200003D74700938785FFB72600204111BA9797
:10DA3000056523ACF69C06C61D0593563700637436
:10DA4000E500930600203307D60037250020232E5B
:10DA5000E59C23A0E522E1162312D600231306003D
:10DA60001CC3998FE1172312F700231307008D3F82
:10DA7000B240B72700202397A79E41018280B72795
:10DA80000020B726002083A7079E03A6869D2A872D
:10DA9000B305B5406314F6003A8529A8938687003C
:10DAA0009C43E369D7FEE377F7FE2E85E3E4D5FEDA
:10DAB000E3F2F5FE828023AC05FE1C4191E70100F4
:10DAC00001000CC18280BA8703A787FF6DFF23ACDA
:10DAD000B7FE8280184183A785FF6319B7001CC178
:10DAE000FD5723AC05FE238FF5FE8280232CF6FE26
:10DAF000C5BF411122C426C237C4004006C68324D4
:10DB0000C420232604200F10000009E923269420B6
:10DB10001545B24022449244410182800347E5FF0B
:10DB20009307F00F6306F700232694201145D5B71D
:10DB30009720FF1FE780005F014523269420D1BF77
:10DB4000411126C24AC0B7C4004006C622C403A978
:10DB5000C42023A604200F10000009E923A62421D5
:10DB6000B2402244924402494101828095659385E6
:10DB700005D0C98D2A842105C2054205C181418194
:10DB80009720FF1FE780004C01CDFD5723200500A3
:10DB9000231285002303F50023A624212105C9B7FC
:10DBA00023A6242101456DBF01114AC84EC6B7C73F
:10DBB000004006CE22CC26CA83A9C7202A8923A6E4
:10DBC00007200F100000372500200324459E8144C4
:10DBD000014611E491E8A1654A85992D31A8834752
:10DBE000E4FF6397270395C8A6851305459EDD3599
:10DBF0007DD0A1654A85952CF2406244B7C70040AC
:10DC000023A6372126854249D244B2490561828044
:10DC100091E02286032484FF6DBFA284E5BF4111F9
:10DC200026C24AC0B7C4004006C622C403A9C42005
:10DC300023A604200F10000089E523A62421154502
:10DC400015A0B727002083C7979E2A842E85637569
:10DC5000F400894763EE8700693DB7C7004023A6FB
:10DC600027210D45B240224492440249410182805D
:10DC700083A785FF99E703C7E5FF9307F00F6308C4
:10DC8000F700853DB7C7004023A627214DBF3725A4
:10DC90000020238F85FE1305459E313DA165228519
:10DCA000E922014523A6242175BFB727002023A21E
:10DCB000079E8280B727002083A747A399E33E856C
:10DCC000828003D727006316B70003C70700E30865
:10DCD000A7FEDC47E5B7BDCD797122D406D626D2A2
:10DCE0004AD04ECE01444147B3D78540858BB1CF52
:10DCF0001205314722953305E502B727002003A915
:10DD000047A78544B3948400C204C180BE892A9980
:10DD10000327090011C7032549002EC60297B24503
:10DD200031473304E40283A749A73E941C4489E7A2
:10DD30002320090023220900B2502254A58D025944
:10DD40009254F2492E85456182800504E31EE4F871
:10DD50008144DDB72E85828041111397050122C4CD
:10DD600006C626C24AC041872E84635E07002D3D49
:10DD700011C14133A1673D8C2285B24022449244B7
:10DD8000024941018280EDD9AA8701474146B35635
:10DD9000E440858A9DCA9207BA97B146B387D702F5
:10DDA000B726002003A946A78544B394E400C20423
:10DDB000C1803E99832709000325490082972320CB
:10DDC000090023220900258C45BF0507E311C7FC84
:10DDD0008144D5BF411126C2B7C7004006C622C440
:10DDE00083A4C72023A607200F100000B727002018
:10DDF00083A787A5372400201304848591C78297C1
:10DE00001C403E9508C031A0B727002083A7C7A2B9
:10DE1000FDF71C40374703001307D73FB387E702DE
:10DE200037A72600130737ECB240BA971CC0B7C714
:10DE3000004023A69720084022449244410182805A
:10DE4000B727002083A7C7A7411122C406C63724DD
:10DE500000201304849E89C782975C483E9548C879
:10DE60004848B240224441018280B7C7004083A69F
:10DE7000C72023A607200F100000372700200347E4
:10DE8000979E6372E50237260020131715000325BD
:10DE900006A33A9503570500D98D2310B50023A694
:10DEA000D7200145828023A6D7200D458280B7C7A1
:10DEB000004083A6C72023A607200F1000003727A5
:10DEC00000200347979E6374E5023726002013174E
:10DED0001500032506A393C5F5FF3A9503570500E2
:10DEE000F98D2310B50023A6D7200145828023A6F3
:10DEF000D7200D45828001114AC837C7004006CEA1
:10DF000022CC26CA4EC652C40329C7202326072086
:10DF10000F100000130705FF1377F70FFD4763ECA1
:10DF2000E708B146B306D502B727002003A747A7E5
:10DF300036971C43C9C39354450005443D893315A6
:10DF4000A400131405014180AE892685A2859D3366
:10DF50002A8A29C5A2852685993FB727002083A74D
:10DF6000C7A2B7240020938404A8829783D7840093
:10DF70002A8413060064B38537038146B3B7370399
:10DF800013850532B335B500BE95EFE06178DC400E
:10DF900022956363F5001D8D2324AA00B7C70040B6
:10DFA00023A627210145F2406244D2444249B249A6
:10DFB000224A05618280B7C7004023A62721094570
:10DFC000DDB7797126D252CCB7C4004006D622D430
:10DFD0004AD04ECE56CA5AC85EC603AAC42023A64B
:10DFE00004200F100000B727002083C7979E637896
:10DFF000F500B727002083ABC7A263970B00B7C714
:10E00000004023A6472199A037290020130909A819
:10E01000AE8A032B490083558900B74736FE9387A4
:10E0200007C83E9BB387C5022A84B2898146B3B52F
:10E03000C50213850732B337F50013060064BE9599
:10E04000EFE0016D6370AB0223A644210145B2509D
:10E05000225492540259F249624AD24A424BB24B7C
:10E0600045618280829B83558900AA8413060064DF
:10E07000B38735038146B3B5350313850732B3370C
:10E08000F500BE95EFE0C16883274900AA9463E3D9
:10E09000F4009D8CD6852285313901C904C5B7C7E6
:10E0A000004023A6472105455DB7936504F0C205EE
:10E0B000C18141459720FF1FE780C0F811E9B727CC
:10E0C000002083A787A685DFA2851145829705BF1B
:10E0D00037270020832747A38DE3232AA7A285475C
:10E0E0002326050004C52311550123008500A30044
:10E0F000F5002322050065B7BA87D84775FFC8C762
:10E10000F9BF79714ECEB7C7004006D622D426D2C9
:10E110004AD052CC56CA5AC85EC662C466C26AC0E9
:10E1200083A9C72023A607200F10000025C1414462
:10E130003689B28A2E8AAA84B14C372B0020054D2D
:10E14000130C0003B30B940303274BA75E971C43E8
:10E15000B9EF9375F400B315BD0013554440C205E3
:10E160005686C1811375F50FA93D31C183274BA791
:10E17000DE9784C323A247016304090023008900BA
:10E18000B7C7004023A63721014521A023A6372188
:10E190000945B250225492540259F249624AD24A75
:10E1A000424BB24B224C924C024D45618280050499
:10E1B000E31A84F9B7C7004023A637212145D1BF10
:10E1C000011122CC26CA4AC84EC6B7C7004006CEA7
:10E1D00003A9C7202A84AE89B28423A607200F1082
:10E1E0000000C5332285CE85F1342A8405C5B727C2
:10E1F000002083D587A8130600648146B387950263
:10E20000B3B5950213850732B337F500BE95EFE03D
:10E21000215048C013351400F2406244B7C7004093
:10E2200023A62721D2444249B2490E0505618280C6
:10E23000011122CC4AC84EC6B7C7004006CE26CA36
:10E2400083A9C7202A892E8423A607200F10000047
:10E250009534AA8419C123110500A2854A85813904
:10E26000B727002083C7879E63992701B72700201F
:10E2700003D787A2598C239487A2B7C7004023A64F
:10E280003721014591E01945F2406244D2444249A8
:10E29000B24905618280011126CA4AC8B7C400404C
:10E2A00006CE22CC4EC603A9C42023A604200F10FC
:10E2B00000009307F00263E6A704B1473304F502B8
:10E2C000B729002083A749A7A2979C439DCB9377AA
:10E2D000F5008545B395F500C205C1811181893FDF
:10E2E00083A749A70145A29723A0070023A20700FF
:10E2F00023A62421F2406244D2444249B249056136
:10E300008280B7C7004023A627210945E5B7411100
:10E3100026C206C622C4B7C7004083A4C72023A6CE
:10E3200007200F100000793219E90145B24022445C
:10E33000B7C7004023A69720924441018280B727A7
:10E34000002083A7C7A200458297B72700209387A4
:10E3500007A86368A402D843B74636FE938606C86A
:10E360003305A4403697E372E5FC13070064B33528
:10E37000E50203D6870081463305E502EFE0413927
:10E3800075B7D8433A94C1BF0111680006CE22CCBC
:10E3900026CAEF104147FD576302F504B247E1CBAF
:10E3A000B7270020B72400209384849E138707A8F2
:10E3B00094485843138407A8638DE604B7270020C8
:10E3C00083A7C7A2829732479C486373F700BA8736
:10E3D0003E955C40636FF5021D8D25A8B724002093
:10E3E000372400209384849E130404A89448584042
:10E3F000B727002083A7C7A26390E60882975840FA
:10E40000B74736FE938707C8BA973E956363E50022
:10E41000198D372400209307C4D19C4F1304C4D115
:10E4200099CBB727002083A6C7D83707CDFF7D1724
:10E430009C46F98F9CC609E5B727002003A547A88D
:10E44000B727002083A7C7A5829719E51C4C85C371
:10E45000EF60B148EF60814B1C4C91CBB727002097
:10E4600003A7C7D8B70633001C47D58F1CC7F24097
:10E470006244D2440561828082979C4891BF4111D9
:10E48000B727002006C623AEA7A60295B240B7273D
:10E49000002023A0A7A0014541018280914763E9A4
:10E4A000B700B72700208A05938747A1BE9588C18A
:10E4B0008280B727002023ACA7A611C5B72700206C
:10E4C00005472385E7A28280B727002023AA07A259
:10E4D000B727002023AE07A6B727002023A607A250
:10E4E00037250020B72700204111238507A2514678
:10E4F000B72700208145130545A106C623AC07A612
:10E5000022C426C2372400209720FF1FE78020D78F
:10E510001305849E1306800281459720FF1FE78024
:10E5200000D6EFF06FCEB727002083C7D7A413041F
:10E53000849E854513D527008D8B3E958D473305E9
:10E54000F5029947B724002039051375F50F23010B
:10E55000A4003305F502130505249720FF1FE7806B
:10E5600060AE23AAA4A649C1034624009947814569
:10E570003306F602130606249720FF1FE78020D0FB
:10E5800083A744A703472400B724002093870724C8
:10E590000A0723A8F4A0BA97372700202328F7A258
:10E5A000EFF0AFF03D298347140083A604A137E6BE
:10E5B0000000139727003697130666CD10C3138704
:10E5C00017001377F70F0A0737E600003697130690
:10E5D00086D510C313873700890793F7F70F8A078B
:10E5E000A300E400B69790C3B24022449244410194
:10E5F0008280372700201307879E834717008346B2
:10E60000270063F0D702B726002083A606A1138651
:10E610001700A300C70013972700369708C33E854D
:10E6200082809307F00FE5BF1C41FDCB41777D8FC2
:10E63000B706002089476316D70E0357450075C3F8
:10E64000411126C21946AA849305F00F610506C63A
:10E6500022C49720FF1FE780C0D405478D47630B76
:10E66000E50A9C4491C7D85899474DC7985C5DC34B
:10E67000372400201306C0038145130584A3972087
:10E68000FF1FE780C0BF1306C003A685130584A340
:10E690009720FF1FE78000B8930784A303D7C70024
:10E6A00009E7130700102396E70003C7E70001E717
:10E6B00005472387E70003D7070101E76D47239844
:10E6C000E70003C7F70001E71547A387E70003C783
:10E6D000270101E705472389E70003C7370109E759
:10E6E00003C7F700A389E70003C7470101E75547C0
:10E6F000238AE70003C7640109E71307C003238BDC
:10E70000E7009C5791C78297B72700202398A79EC0
:10E71000653B8147B240224492443E85410182805C
:10E7200089473E85828001114AC837290020832706
:10E7300009A806CE22CC26CA52C456C24EC682971B
:10E74000130A0064B3354503130909A8835A8900E5
:10E750008146568633054503EFD0917BB7270020CD
:10E760001387879E004FAA8401456306940293890C
:10E77000879E33858440636E940003254900568646
:10E780008146B335AA023305AA02EFD07178018D14
:10E79000269523AC9900F2406244D2444249B249E2
:10E7A000224A924A05618280011122CC2E84B7D57B
:10E7B00002000A854146938505B606CEEFE0C12EDC
:10E7C000180806043A94B7270020035504FF83D79E
:10E7D000A7A8F2406244AA9737450F001305052405
:10E7E0003355F50205618280B727002083D7A7A89B
:10E7F00051471D45637CF702794719456378F70255
:10E800001307200315456373F7021307B00411457E
:10E81000637EF700130740060D456379F700130781
:10E82000600909456374F70013B5B70F82800111C1
:10E8300022CC06CE2A842EC6EFF0CFD9B245F240C4
:10E84000818D33A5A502229562441375F50F0561EC
:10E850008280011122CC06CE2A842EC6EFF08FD7FB
:10E86000B245F240818D33A5A5022295624442054E
:10E87000418105618280011122CC06CE2A842EC6F8
:10E88000EFF04FD5B245F240818D33B5A502229508
:10E89000624405618280B7270020138787A3185739
:10E8A0002DC3411122C426C24AC006C6138987A3BC
:10E8B0000297B72700201387879E035787002A8473
:10E8C0009384879E0DCBBA876373A700AA87C2077C
:10E8D000C183BA866373E400A286C206C182958FA3
:10E8E0005147635AF7008327C90291C38297EF60AB
:10E8F000616823948400B240224492440249410159
:10E9000082808280011122CC3724002006CE26CAC4
:10E910004AC8930704A883C7C70081CB0545F240C6
:10E920006244D244424905618280B7240020938723
:10E9300084A3DC57130904A8AA85938484A381C700
:10E940002AC68297B245B5C19C41E9DBDC41F9D7C3
:10E9500083D78500E1D783D7A500E9D341461305C6
:10E9600004A89720FF1FE780E08A032704A8B727A1
:10E97000002023A6E7A283C774018DE30355890015
:10E980009307805737460F003305F5021306062418
:10E9900081468145EFD0D157A38BA40037E5000015
:10E9A00013056572E93C01459DBFB7270020938799
:10E9B000879E23AE0700B70700209387C7722320E6
:10E9C000F4A8B78732007D57938727A12324F90045
:10E9D0002322E90023060900B7C7004023A4E72645
:10E9E00069B7011122CC37240020930784A38847FC
:10E9F00006CE26CA4AC801E90545F2406244D2441F
:10EA0000424905618280130484A35C58F5D7185CE1
:10EA100065D77000854582971844B247E30EF7FC2E
:10EA20000355C4009305E004B72400209710FF1F8E
:10EA3000E78040611387849E08D39384849E4DDDD4
:10EA40000356C4009305F00F01499720FF1FE7808C
:10EA500000838347E4009050634DF900328597109E
:10EA6000FF1FE780206C014523A0040223A20402BB
:10EA700069B78355C4000844185CB38725038981AE
:10EA800005093E9508C20297E9B701114EC6B7299C
:10EA90000020938789A39C4726CA4AC852C406CE41
:10EAA00022CC56C25AC02A8AAE843289638D071E90
:10EAB000938989A303A74903630407121307F01F6F
:10EAC0006362A712372400201307849E832A07025B
:10EAD0001304849E639A0A0803D5C900956593853B
:10EAE00015E09710FF1FE780E05508D02A866DC912
:10EAF00083D5C90083A7490303A58900898182972B
:10EB000083A78900832A04025CD089476316FA0828
:10EB1000C1476397F40C83D5C9009147938505FCE1
:10EB2000B3C5F5028A05D69503C725009307A0054E
:10EB30006314F70A83D705006390470B4A8526863E
:10EB400091059710FF1FE780E06C1C50568563937A
:10EB500057130145F2406244D2444249B249224A25
:10EB6000924A024B056182805850E380E7FA03D550
:10EB7000C9009565938525E09710FF1FE780804CBD
:10EB8000AA8A39CD83D5C9002A8683A7490303A55C
:10EB900089008981829795BF8D47631BFA00C14721
:10EBA0006390F40483D5C900938545FDF199A5BF11
:10EBB00091476318FA006395440383D5C900A115F2
:10EBC000F5B793070010631DFA00A14763EA9700A9
:10EBD00083D5C900C115D9BF1C5056856390570D08
:10EBE00029458DBF9D6A637C5509930A05E0194745
:10EBF000B3CAEA0203D7C900372B0020B38AEA025E
:10EC0000BE9A93078B9EDC53130B8B9E6395570123
:10EC100003240B021DE003D5C9009305E0049710FF
:10EC2000FF1FE78020422A8445DD83D5C90083A7E2
:10EC300049032A8689815685829791451307A00545
:10EC4000898193972500A29783C627006393E604E2
:10EC500083D60700639C460385058A052686A29510
:10EC60004A859710FF1FE780E05A83270B02E38253
:10EC700087EE22859710FF1FE780C04AD9BD216724
:10EC80007917E36FA7F4B30A5541ADB783C53700D1
:10EC900045BF83270B02E38587F422859710FF1F6A
:10ECA000E780404835BFB727002083A587A08DD9CE
:10ECB00091479306A0058983139727002E97034653
:10ECC0002700E31FD6F003560700631C46018507A3
:10ECD0008A072686BE954A859710FF1FE7808053D6
:10ECE0008DBD83473700C1BFB7270020938787A317
:10ECF000984729C3985F1DCF8546631DD5024111F2
:10ED000022C4372400201304849E105006C619CE56
:10ED100083D5C70048508981029708509710FF1F7C
:10ED2000E78040402320040223220402B240224410
:10ED3000410182808280011122CC37240020930778
:10ED400084A356C283AA870026CA4AC84EC606CEE6
:10ED500052C42A89AE84B289130484A3638C0A1C2A
:10ED60001C5C99EB2945F2406244D2444249B249C5
:10ED7000224A924A056182805C58EDD79307F01FC2
:10ED800063E8A70C372A002093078A9E9C53130A36
:10ED90008A9EB9C7084483274A02639FA70489470C
:10EDA0006317F906C147E39FF4FA0355C40091477E
:10EDB000130505FC3345F5029317250003250A02C8
:10EDC0002686CE853E959307A0052301F5002310E6
:10EDD000250111059710FF1FE780C043014561B76A
:10EDE0000355C4009305E0049710FF1FE7808025BA
:10EDF0002320AA0245F1BDB78355C4005C58032601
:10EE00000A02898182971C442322FA0249BF8D4756
:10EE1000631CF900C147E397F4F40355C4001305DC
:10EE200045FD9377C5FF59BF91476318F900E39BF0
:10EE300024F30355C4002115EDB793070010E31325
:10EE4000F9F2A147E3E097F20355C4004115D1BFA1
:10EE50009D676378F506930705E01947B3C7E70296
:10EE60000357C400372A0020B387E702BE9A9307EE
:10EE70008A9E9C53130A8A9EA1CF83274A026395D8
:10EE8000570703250A0291461308A0059305F00FC2
:10EE900093D72600139727002A9703462700631667
:10EEA00006078358070003463700639C2805B3060E
:10EEB000D64063C6960485078A072686CE853E958A
:10EEC00011BF21677917E36FA7E8B307F54049BF82
:10EED0000355C4009305E0049710FF1FE7808016D8
:10EEE0002320AA0259F9BDBD8355C4005C580326EE
:10EEF0000A0289815685829723225A0359B7231023
:10EF0000B70093160601C18261B70356C400B385EA
:10EF100096009105130606FCE3F6C5E4138634005B
:10EF2000719A1106B2962301070123102701A3014C
:10EF3000D70051B7372A002093078A9E9C53130AA3
:10EF40008A9EA9C303250A0291461308A0059305CA
:10EF5000F00F93D72600139727002A970346270020
:10EF60006314060583580700034637006398280199
:10EF7000B306D640E3D196F42310B70093160601EA
:10EF8000C182C1BF0345E4008357C4009305E00478
:10EF90003305F502420541819710FF1FE780800A83
:10EFA0002320AA0245F17DBB0356C4008345E4003B
:10EFB000B385C502338696001106E3E5C5DAB9BF0D
:10EFC0000145828083C705002300F50083D7250013
:10EFD000A300F50083D72500A1832301F50083C793
:10EFE0004500A301F50011458280B727002023A624
:10EFF0000788B727002023A40788828029C14111F0
:10F0000026C206C622C4AA8401458DC52E84B7D562
:10F01000020022854146938505B79710FF1FE780C0
:10F02000601F83C7040005452306F40083C714004E
:10F03000A306F400B240224492444101828001457B
:10F040008280011122CC26CA06CE0947AA843284C6
:10F050006381E50441468147639BC500638FE600F9
:10F060006397B6000DA841478147638EE600F240E2
:10F070006244D2443E85056182808A852285BD3FF7
:10F0800041468A8519A88A85953F41468A85228509
:10F0900031A0E39AB6FC2E86A28526859710FF1F25
:10F0A000E7804028AA87E1B7B727002023A4A788D4
:10F0B0008280B727002023A6A7888280011122CC56
:10F0C0000354650006CE26CA4AC84EC641C08329ED
:10F0D0008500AE842A8803C9090081471317890176
:10F0E000618763550702B147054563FA87045114E8
:10F0F000420403552800418033878900A2864E864A
:10F100008545EFA01013B337A00085077D14135574
:10F110006900420405891379F90341802380F400D2
:10F12000A380A4002381240123928400014719C0F5
:10F130001387190098C409476383E7000145F2402B
:10F140006244D2444249B249056182800545C5BF47
:10F15000C167F917630AF502D94763F7B7020111CE
:10F1600022CC2EC606CE2A84EF70D050B2456368FA
:10F17000B50022856244F24005616F906073F240F1
:10F18000624405450561828005458280C167F917A3
:10F190006314F5006F70104E411106C6EF900060C9
:10F1A00011E15D45B2404101828091476394F502CF
:10F1B000834705002300F600834725000347150019
:10F1C000A207D98F2311F60083473500014523029A
:10F1D000F6008280114582804111814522C426C2F9
:10F1E00006C6AA8405252A8409E9B727002083A733
:10F1F000878881C7F945268582972285B2402244B7
:10F2000092444101828039714ED656D25AD006DEE0
:10F2100022DC26DA4AD852D4AA8A2E8BB28941EF50
:10F2200036C6AD379145EF70B056AA844D492DC909
:10F23000B246054A238034010544630A0B00B685B3
:10F2400013851400029B0505131405014180E20992
:10F2500093D9894163D30902C1455685EF90406235
:10F26000654905E933868400A2852685EFA08041A3
:10F270002A8905E131044204418091472C085685D2
:10F28000231CF10026CE231D8100EF80F06A2A891D
:10F2900001C963070A0026859710FF1FE78080E8F1
:10F2A000F25062544A85D2544259B259225A925A63
:10F2B000025B21618280BA84014AADBF011122CC78
:10F2C00026CA4AC84EC606CE2A893284B689253F48
:10F2D000AA840DE1B727002083A7C78881CF0547FF
:10F2E0006317E40003C4090005041374F40FA28536
:10F2F0004A858297F240624426854249D244B24907
:10F3000005618280AE86B7F500000147054693850A
:10F3100045FC6DB783D705002300F50083D70500B2
:10F32000A183A300F5000945828083D7050023004F
:10F33000F50083D70500A183A300F50083D725003E
:10F340002301F50083D72500A183A301F500114512
:10F35000828083D705002300F50083D70500A183B1
:10F36000A300F50083D725002301F50083D72500EE
:10F37000A183A301F50083C755002302F50083C7CD
:10F380006500A302F50003D58500190542054181FA
:10F39000828083D705002300F50083D70500A18371
:10F3A000A300F5000945828083D705002300F500FE
:10F3B00083D70500A183A300F50083D7250023018F
:10F3C000F50083D72500A183A301F50011458280B4
:10F3D00003D54500060542054181828083D705009B
:10F3E0002300F50083D70500A183A300F50003D512
:10F3F0002500090542054181828083D7050023004D
:10F40000F50083D70500A183A300F50083D725006D
:10F410002301F50083D72500A183A301F50003D5BF
:10F420004500110542054181828083C70500230004
:10F43000F5000545828083D70500411122C406C628
:10F440002300F50083D705002E841105A183A30EA8
:10F45000F5FE83D725009505230FF5FE83D7D5FF4D
:10F46000A183A30FF5FE03C6F5FF9710FF1FE780EA
:10F4700060DA03454400B240224411054101828014
:10F480008947639CF5008347150003470500014544
:10F49000A207D98F2310F60082801145828003D7FE
:10F4A0000500D94763FEE702011122CC06CE2EC625
:10F4B0002A84EF70301CB24683D70600636DF500D6
:10F4C00022856244F240B7F5000001470946938562
:10F4D000453105610DBBF2406244094505618280FA
:10F4E0000945828091479DC583460500FD15C205EB
:10F4F0008547C1816392F60213D725008D89914714
:10F5000091E9914701CB05052301D6002310E600C0
:10F5100048C281473E85828009479147E39CE6FEC9
:10F52000C94733D7F502B3F5F502D1BFAE86B7F5BB
:10F530000000014711469385A532F1B193F73500DC
:10F5400091EB8981914789C52310B60048C2814754
:10F550003E8582809147EDBF03C745008947631A06
:10F56000F702011122CC2A84C84506CEAE86014797
:10F5700019C52EC69D45EFE08FD0B2462A87228559
:10F580006244F240B7F500001946938525350561C0
:10F590009DB90945828099E1114582808347050024
:10F5A00005472311F600E379F7FEFD1593F5F50FF6
:10F5B00033D7F502B387E702E390F5FE050548C2AD
:10F5C0002310E6000145828083C745000947AE86C7
:10F5D0006385E70041476399E700B7F500000147FD
:10F5E00021469385654305B1094582802310B60005
:10F5F00091E1014548C201458280AE86B7F5000021
:10F600000147294693852539FDBE2310B60091E1B7
:10F61000014548C201458280AE86B7F5000001472A
:10F6200031469385853AC5B62310B60091E1014570
:10F6300048C20145828003D74500854763FDE70244
:10F64000011122CC2A84884106CE0DC12EC68545E3
:10F65000EFE0EFC22A8722856244B246F240B7F556
:10F66000000039469385053D056171BEF240624454
:10F670000945056182800945828091479DC5034700
:10F6800005008D46914763F2E602FD15C205C18172
:10F69000B3C6E5023308D7026399050105052310B7
:10F6A000D6002311E60048C281473E85828083C789
:10F6B00045000947AE866385E70041476399E70047
:10F6C000B7F5000001474146938565432DBE0945C6
:10F6D0008280B335B000139525008280011122CCC1
:10F6E00026CA06CE03C785008547AA842E844946CC
:10F6F0006310F702613C8357240049151306200963
:10F7000063C8A700F2406244D24409450561828083
:10F710000347940085476314F700136606044840C6
:10F7200011C58D4532C6EFE08FB53246A2866244E0
:10F73000F2402A872685D244B7F500009385C53D5F
:10F740000561D1B48D4763FFB702834715000347B6
:10F750000500F115A207D98F2310F6008347350065
:10F7600003472500C205A207C181D98F2311F600E6
:10F770002312B60089C5110508C6014582802324DD
:10F780000600E5BF11458280011122CC2A848845FC
:10F7900006CEAE8611C52EC69545EFE04FAEB246F9
:10F7A0002A8722856244F240B7F5000059469385C6
:10F7B000A53F056189BCB335B00013952500828053
:10F7C000AE86B7F50000014761469385A54225BC8A
:10F7D0008547114563F4D702834716008345060029
:10F7E000A207CD8F2310F7009387E6FF2311F700C0
:10F7F00089476386F600090650C3014582802322AB
:10F800000700E5BF0147814679468145EDBA83D7B8
:10F8100005002300F50083D70500A183A300F500B0
:10F820000945828083C7250005472300F50003D5DD
:10F8300005006397E7000A050505420541818280BE
:10F84000C9473305F502CDBF03D505000A054205BA
:10F850004181828083D725002300F50003D5050070
:10F8600083D725003305F5020505420541818280D5
:10F8700003D50500828003D50500828003D50500ED
:10F88000828083D725002300F50003D5050083D7A8
:10F8900025003305F502050542054181828083D7A5
:10F8A00005002300F50083D70500A183A300F50020
:10F8B00083D725002301F50083D72500A183A30169
:10F8C000F50003D54500110542054181828083D7AB
:10F8D00005002300F50083D70500A183A300F500F0
:10F8E00003D52500090542054181828089471145DC
:10F8F000639BF60083471600834606000145A20776
:10F90000D58F2310F700828003D70500D947AE8634
:10F9100063F9E700B705010001470D469385E580CF
:10F9200071BA0945828011456393A6028347160088
:10F93000834606000145A207D58F2310F7008347B1
:10F94000360083462600A207D58F2311F700828058
:10F9500083C725000547FD1793F7F70F6361F70489
:10F9600083D705008DCF011122CC2A84C84106CE51
:10F9700015C12EC68945EFE08F902A872285624403
:10F98000B246F240B70501001546938545820561F0
:10F990006FF0DF92F24062440945056182800945BB
:10F9A00082809547114563F9D706411122C426C2CA
:10F9B0004AC006C683471600BA8403470600A2075A
:10F9C0003284D98F2390F400834736000347260002
:10F9D00093054400A207D98F2391F400894723821D
:10F9E000F40009461385540036899710FF1FE780FD
:10F9F00060829307A9FF2394F4009947631BF900E1
:10FA000023A60400B2402244924402490145410128
:10FA100082801904C0C4FDB7828083D705008DCFD2
:10FA2000011122CC2A84C84106CE15C12EC68545B7
:10FA3000EFE0EF842A8722856244B246F240B705A0
:10FA400001001D469385858405616FF03F87F24074
:10FA50006244094505618280094582809947639522
:10FA6000F6048947411106C62302F70083471600B2
:10FA700083460600B285A207D58F2310F70083477F
:10FA800036008346260003464700A207D58F13059C
:10FA900057002311F70091059700FF1FE78080773B
:10FAA000B240014541018280D14711456394F6007F
:10FAB000C1474DBF828083D705008DCF011122CC75
:10FAC0002A84C84106CE15C12EC68945EFD03FFB1A
:10FAD0002A8722856244B246F240B70501002546D6
:10FAE0009385458505616FF06FFDF24062440945DD
:10FAF000056182800945828089471145639BF60034
:10FB000083471600834606000145A207D58F2310C0
:10FB1000F7008280011122CC2A84C84106CEAE862D
:10FB2000014719C52EC68545EFD07FF5B2462A8715
:10FB300022856244F240B70501002D469385058772
:10FB400005616FF0AFF711456393A6028347160076
:10FB5000834606000145A207D58F2310F70083478F
:10FB6000360083462600A207D58F2311F700828036
:10FB7000011122CC2A84C84106CEAE8611C52EC6FC
:10FB80008545EFD0DFEFB2462A8722856244F240F6
:10FB9000B705010035469385658705616FF00FF263
:10FBA00093F71600114589EB89476387F600858234
:10FBB0002312D70010C301458280011122CC2A8470
:10FBC000C84106CE15C12EC68545EFD05FEB2A870A
:10FBD00022856244B246F240B70501003D46938556
:10FBE000C58705616FF08FEDF240624409450561FC
:10FBF000828083D705008DCF011122CC2A84C84191
:10FC000006CE15C12EC68945EFD07FE72A8722850B
:10FC10006244B246F240B705010045469385258807
:10FC200005616FF0AFE9F2406244094505618280E9
:10FC300009458280854763FCD7022304A700A304FB
:10FC4000B7008347160083450600A207CD8F231017
:10FC5000F7009387E6FF2311F70089476386F600D4
:10FC6000090650C30145828023220700E5BF1145E4
:10FC70008280014781464D4681456FF02FE48D47D4
:10FC8000114563FBD7028347160083450600A20790
:10FC9000CD8F2310F7008347360083452600A20747
:10FCA000CD8F2311F7009387C6FF2312F7006386D9
:10FCB000A600110610C70145828023240700E5BF76
:10FCC000011122CC2A84884506CEAE8611C52EC6E7
:10FCD0009545EFD0DFDAB2462A8722856244F240AA
:10FCE000B70501005D469385E58905616FF00FDD7D
:10FCF000854711456397F6008347060001452300B9
:10FD0000F700828001478146654681456FF00FDB31
:10FD1000011122CC2A84C84106CEAE86014719C5FE
:10FD20002EC68D45EFD0BFD5B2462A8722856244C4
:10FD3000F240B70501006D469385E58C05616FF0D3
:10FD40008FCC011122CC2A84C84106CEAE86014751
:10FD500019C52EC68D45EFD09FD2B2462A8722857F
:10FD60006244F240B705010075469385E58C056154
:10FD70006FF06FC9011106CE2EC6EF80501E01C96B
:10FD8000B245F2400355250005616FC09032F24044
:10FD9000494505618280B7270020A38C078AB727D1
:10FDA0000020238C078AB727002023A0078AB727C3
:10FDB000002023A2078AB727002023A4078AB72799
:10FDC000002023A6078AB727002023AE0788B7277D
:10FDD000002023AC0788B7270020239807AA130622
:10FDE0004038938707AB2391C70271761307400B06
:10FDF000130606B82391E7002392C70211671D4638
:10FE0000930600059305000A1305007D2392E70081
:10FE10002393C70241470546130810F82395E700CE
:10FE20002396E7002399E700239AE700239BE70046
:10FE3000239CE7002394E702239607032393B7004C
:10FE40002394B7002397D7002398D700239DA700BA
:10FE5000239E0700239F0700239007022395C702D4
:10FE6000239707021308F007239807022392E70459
:10FE70002393E704239FE7042390E7062391E706F3
:10FE80002392E706239907031307C01C239AC7028E
:10FE9000239BC702239C0702239D0702239E070280
:10FEA000239F0702239007042391C7042394070488
:10FEB000239507042396C7042397D7042398D704D0
:10FEC0002399A704239A0704239B0704239C070470
:10FED000239DD704239ED7042393A70623940706C4
:10FEE00023950706239607062397B7062398B70698
:10FEF00023990706239AE7067D57239B070623903D
:10FF0000E7088280011126CAAA84214522CC06CEA8
:10FF10002E8432C636C43AC2EFD09FC21DC9A24653
:10FF200012473246930700FD2300F5009947A300CE
:10FF300095002301F5002303D500A303E500231258
:10FF4000C500AA8522856244F240D24405616FD083
:10FF50001FCDF2406244D24405618280B727002061
:10FF600023A4A78A8280B727002023A6A78A82809D
:10FF7000011122CC4AC806CE26CA2A890144B304FC
:10FF800089006368B400F2406244D244424905618A
:10FF900082802EC6EFD01FE493170501C183A18391
:10FFA000B2452380F4009307140093F7F70F8504FC
:10FFB00063F9B700CA9709042380A7001374F40FEC
:10FFC0007DBF3E847DBF411122C43724002013042D
:10FFD00004A903556400C16706C6FD17630FF50049
:10FFE000B727002003C607BDB72500209385058BE2
:10FFF000EF800056FD572313F400B2402244410124
:020000021000EC
:10000000828009C925151375F50F1335850E134523
:10001000150082800145828023900500C9C6797150
:1000200022D426D24ECE52CC5AC806D64AD056CA70
:100030005EC63684328AAE892A8B814463F34407D4
:10004000B307940083C70700138914004209939AE9
:10005000070193DA0A011359090163840A04CA9754
:100060006341FA04B307240183CB07005E85513F47
:100070000DC99387FAFF2390F90063906B03130572
:1000800019002295B250225492540259F249624A00
:10009000D24A424BB24B45618280D694C204C180A1
:1000A00071BF0145C5B701458280011122CC3724BB
:1000B000002026CA4AC84EC6930704A906CE2E8938
:1000C000D0CB8CCBC8C7AA8441469305F00F4A8594
:1000D0009700FF1FE780E02C8549130404A96319EA
:1000E00035030848C145693541469305F00F26851B
:1000F0009700FF1FE780E02A054963152503484460
:100100006244F240D2444249B249C14505618DB5CD
:10011000414681454A859700FF1FE7808028E31507
:1001200035FDC1B74146814526859700FF1FE78011
:100130004027E30625FDF2406244D2444249B249D9
:1001400005618280411122C43724002026C24AC0A2
:10015000AE842A89130600028145130504A906C648
:100160009700FF1FE780A011930704A9A38127012F
:10017000B7270020238A97BCEFC0E075854719C1D7
:10018000814749452308F4A8B240224492440249D9
:1001900041018280814781CD19C98547631BF500E4
:1001A00083C7550093E707FCA382F50085473E858A
:1001B000828089476317F50083C7550093F7F703DB
:1001C000E5B70D478547E314E5FE03C755001377F0
:1001D000F70313670704A382E500D1BF81478DC1F0
:1001E00005C103C755009306000C85471377070C1C
:1001F0006308D700930600048D476303D70089473F
:100200003E858280411122C4005D06C626C21DC8FB
:10021000AA84085009C59700FF1FE780A0F0485046
:1002200009C59700FF1FE780E0EF085409C5970054
:10023000FF1FE78020EF22859700FF1FE78080EEF9
:1002400023AC0402B240224492444101828019E965
:10025000B727002083C727A991C73725002013059A
:100260000589828037250020130585AA8280B7275B
:10027000002003C527A98280B727002003A5C7A9AE
:100280008280B727002003A507AA8280B727002015
:1002900083A747AA88438280B7270020938707A9AE
:1002A000D44B9842050798C203C537009307F00F57
:1002B0006305F50091656FD05FBB8280011122CC90
:1002C00006CE2E8432C6EF80205A9147B245631085
:1002D000F502B727002083A7C78A95C303A30700A9
:1002E000630F030022856244F24005610283B72751
:1002F000002083A7478A81C703A34700D5B7F240F0
:100300006244054505618280011122CC2A8403558F
:10031000450006CE26CA4AC84EC6EF8000333DC906
:100320002A89834405008349C500E93D4A85EF8059
:10033000D01203554400EF80604E37290020130986
:10034000898B83470900B9CB639A9704B7270020AC
:1003500083C5978B2685393C19E123000900035595
:100360004400EF8060509147631FF500B7270020DD
:10037000938707A98356440003D767006395E60077
:100380007D572393E700F2406244D2444249B24988
:100390000561828081499304F00F45B79307F00F00
:1003A000E38FF4FA834664000356440003452400B7
:1003B0004E87A685813E65B779715EC6AA8B2E856C
:1003C00052CC56CA5AC806D622D426D24AD04ECECD
:1003D000AE8A328B368AEF8040277DC1045D2A8940
:1003E000E5C09C50614599C3130540039C5481C7E7
:1003F00051054205418163050A00710542054181AD
:10040000DC5081C7590542054181EFD06FF32A8442
:1004100045C9614681459700FF1FE78040E6B72741
:10042000002083C907AE639409008349090093073C
:1004300000FD2300F400A947A30074012301F40088
:10044000230364018C50231254011305840191C9C4
:1004500008C47146930A44039700FF1FE78080DBBE
:1004600056858C5491C948C45146930A450197005A
:10047000FF1FE78020DA5685630C0A0008C8714622
:10048000D285930AC5019700FF1FE780A0D8568543
:10049000CC5099C548C859469700FF1FE78080D7C0
:1004A000A2854E85EFD0AFF72254B2509254F24954
:1004B000624AD24A424BB24B4A850259456199B3CE
:1004C000B250225492540259F249624AD24A424BE3
:1004D000B24B4561828001114EC6AA892E854AC859
:1004E00006CE22CC26CA2E89EF80201621C9B72736
:1004F000002083C407AE99E0834405001945EFD07E
:100500002FE42A8405CD814519469700FF1FE78017
:1005100000D7930700FD2300F400B947A30034017E
:100520002301F40023122401A2856244F2404249CF
:10053000B2492685D24405616FD06FEEF240624425
:10054000D2444249B2490561828039715ECEAA8B9C
:100550002E8526DA4ED652D456D25AD006DE22DC6A
:100560004AD8AE84328BB68A3A8ABE8942C6EF80B8
:10057000C00D21CD2A894145EFD08FDC2A8431C5B9
:10058000414681459700FF1FE78060CFB7270020D5
:1005900003C507AE19E103450900930700FD2300D9
:1005A000F400BD472301F400B247A30074012312F5
:1005B000940023046401A304540123054401A3050A
:1005C00034015CC4A285EFD08FE5F2506254D2545E
:1005D0004259B259225A925A025BF24B21618280EF
:1005E000797126D2AA8439454AD04ECE06D622D475
:1005F0002EC6B2893689EFD0AFD421C1B245930758
:10060000000D2310F500B1472A842312B500230101
:10061000F500CE85190519469700FF1FE78080BFBA
:1006200023062401A2852254B2500259F24913F53F
:10063000F40F925445616FD08FDEB2502254925421
:100640000259F24945618280411126C2B724002037
:10065000938404A903C7340006C622C44AC0930782
:10066000F00F630CF7042A893945EFD06FCD2A8447
:1006700029C5930700FDB72500202300F500A3003E
:10068000250123010500938585AA0D0519469700CC
:10069000FF1FE78020B883D78400A28503C53400FC
:1006A0002315F40083C714002306F4002244B2404B
:1006B0009244024941016FD08FD6B2402244924405
:1006C00002494101828001115AC02A8B314526CA54
:1006D0004EC652C456C206CE22CC4AC8AE84B28A96
:1006E000368ABA89EFD0CFC53DCD2A842685EF70F2
:1006F000D07511C50347C500A1476314F704B72798
:10070000002003C937A9930700FD2300F4009D478B
:10071000A30064012301F400231294002313540165
:100720002314440123153401A2856244F240D244CB
:10073000B249224A924A024B4A85424905616FD02A
:100740000FCEB727002003C957BDE31E0BFAB7270A
:10075000002083A707959C47DDD7CE865286D68595
:10076000268582974DB7F2406244D2444249B2494D
:10077000224A924A024B05618280011122CC2A84CE
:10078000214506CE2EC6EFD0AFBB21C1B24593079F
:1007900000FD2300F500C5472301F50083C73500A0
:1007A000A301F50083D745002312F50083C7650038
:1007B0002303F50083C77500AA85A303F5002285EE
:1007C0006244F24005616FD08FC5F240624405611A
:1007D0008280397162CC2A8C594526DA4AD84ED6A5
:1007E00052D456D25AD05ECE06DE22DCAE8432C659
:1007F00036C4BA8B3E8BC28A468A835901040349A8
:100800004104EFD0EFB325C93246930700FDA2465D
:100810002300F5009547A301C500A300850123012E
:10082000F5002A8419461105A9C2B6859700FF1F55
:10083000E780409E23066401230A240123157401E6
:10084000231754012318440123193401A28562544B
:10085000F2504259B259225A925A025BF24B624C00
:100860002685D25421616FD08FBB81459700FF1F31
:10087000E780E0A0C1B7F2506254D2544259B25955
:10088000225A925A025BF24B624C216182804111E2
:1008900022C437240020130404A98347240006C679
:1008A00026C28DCBB7240020AA851946138504895A
:1008B0009700FF1FE7800096034524009385048975
:1008C000EFF05F8D2244B2401385048992444101C8
:1008D0006FC02001B2402244924401454101828010
:1008E000411126C2B7240020938704A906C622C45A
:1008F0004AC003C737009307F00F938404A9630429
:10090000F7042A892945EFD0AFA32A840DCD930798
:1009100000FD2300F500A147A30025012301F500F8
:1009200083C72400B725002093850589A301F5001E
:10093000194611059700FF1FE780C08D03C53400DD
:10094000A285EFD0CFAD03C724008D476311F70216
:10095000B727002083A7878A99CB03A38700630862
:1009600003002244B2409244024941010283B24052
:1009700022449244024941018280797122D406D6F0
:1009800026D24AD04ECE52CC56CA09445DCD2A89D1
:1009900003550500AE895144EF70304BAA8455C50C
:1009A00037270020930707BD83C747008546BA8ACB
:1009B000FD1793F7F70F494463F9F6080347C5009D
:1009C000A1476314F700639209089C5C4544B5EFA6
:1009D0009165938545711305C00297F0FE1FE7806E
:1009E000606688DC2A8A4D442DC11306C002814509
:1009F0009700FF1FE780A0888357090093064A00ED
:100A000036852311FA0071469305490036C69700D2
:100A1000FF1FE780208089472300FA0003C5C40038
:100A2000B2460356090083C50ABD6115133515008A
:100A3000EF8010742A8463860900CE852685EF80B6
:100A4000605101C42685EFF0EFFB2285B25022549D
:100A500092540259F249624AD24A45618280B727CC
:100A6000002083C747BD0547FD1793F7F70F637A4B
:100A7000F708894741CA011122CC26CA4AC84EC686
:100A800052C406CEAA89368AB2842E89EF70F03B12
:100A90002A84D14739C9485509C597F0FE1FE78018
:100AA0006068F14526859700FF1FE780E08248D403
:100AB000CD4705CD8346C40021478147639FE600AB
:100AC000630D0A000347A50103560501930625019E
:100AD000AA854E85EF80A04FAA8703474400630F85
:100AE0000900136767002302E400F2406244D24425
:100AF0004249B249224A3E85056182801367470018
:100B0000DDB7C9473E8582809307F00363EBA700FA
:100B1000B7270020938707AB06053E9503550500D0
:100B2000828041657D158280011122CC2A842E8528
:100B300026CA06CEAE84EF7050311DCDB7470F00E8
:100B40009387F723094563E4870281450A85414677
:100B500097F0FE1FE780A072A685231081000A850A
:100B6000418023018100A3010100EF801040F24089
:100B70006244D244056182804945D5BFB727002031
:100B80002389A7BC82806F80D058797152CC2A8A81
:100B9000328522D426D24AD04ECE56CA5AC85EC614
:100BA00006D662C4AE8BB28A368BBA843E89C289BD
:100BB0004684EF70902915C92A8C63140A021377B2
:100BC0004B008347450015CF93E727012302FC0024
:100BD0008DEC631C0902639A090205E8ED9B230270
:100BE000FC00832B8C0363910B08B2502254925467
:100BF0000259F249624AD24A424BB24B224C4561F9
:100C00008280F59B93E70701D1B793E74700230262
:100C1000FC0001CC1C484146A2852324FC0213059C
:100C20008C0197F0FE1FE780E05E63930B02D5D83E
:100C30000325CC0209C597F0FE1FE780A04EF145C1
:100C4000268597F0FE1FE78020692326AC0251BF5E
:100C5000E30909F80325CC0209C597F0FE1FE780D8
:100C6000604CF1454A85F1BF9DC483A70B0299EB07
:100C7000916593853571714597F0FE1FE780803C43
:100C800023A0AB0203A50B0219C57146A68597F0F8
:100C9000FE1FE78020586388090283A74B0299EB67
:100CA000916593852571594597F0FE1FE78080393E
:100CB00023A2AB0203A54B0219C55946CE8597F076
:100CC000FE1FE78020551DC483A78B0299EB916519
:100CD00093851571514597F0FE1FE780A03623A438
:100CE000AB0203A58B0219C55146A28597F0FE1FE2
:100CF000E78040522254B2509254F249B24B224CF7
:100D0000CA865A860259424BD6855285D24A624AD1
:100D100045616FF06FEA011126CA52C406CE22CC9B
:100D20004AC84EC62A8AAE84EF70301225C5AA89F9
:100D30003945EFC0FFE02A8431CDB727002003C931
:100D400007AE6314090003C909009307000D2310BF
:100D5000F400AD472301F4009385690013053400C6
:100D6000194697F0FE1FE780E04A93F7140085804C
:100D700085882306F400A306940023154401A28568
:100D80006244F240D244B249224A4A85424905614E
:100D90006FC0FFE8F2406244D2444249B249224A5D
:100DA0000561828001114EC652C456C206CE22CCC5
:100DB00026CA4AC8AA8A2E8AB289EF7010092DCD98
:100DC0002A891305C002EFC0BFD72A8435C5B727CB
:100DD000002083C407AE99E0834409009307000D07
:100DE0002310F400E9472301F4009305690013057B
:100DF0003400194697F0FE1FE780C041D2852315C5
:100E000054011305C400414697F0FE1FE78080405F
:100E1000CE851305C401414697F0FE1FE780803F51
:100E2000A2856244F2404249B249224A924A26854A
:100E3000D24405616FC0BFDEF2406244D2444249F1
:100E4000B249224A924A05618280411122C4372464
:100E5000002013048489084006C619C597F0FE1FB8
:100E6000E780402C23200400B240224441018280CC
:100E7000011106CE22CC26CA4AC82EC6EF70E07CED
:100E800039CDB245B727002003C907AE0CD5AA84D7
:100E900063140900034905004145EFC07FCA2A8455
:100EA0001DCD9307000D2310F500A5472301F50084
:100EB00083C75400938564001105A30FF5FE1946FE
:100EC00097F0FE1FE78000359C54A285F2405CC479
:100ED0006244D2444A85424905616FC05FD4F24002
:100EE0006244D2444249056182801D71A2CC86CE03
:100EF0002A842EC6EF70607505CD8346C500114764
:100F0000AA8749456392E6029C5FB24599C383C5AF
:100F10006701B7B601002308B100938666911008F7
:100F200089452285EF70D079F6406644256182803C
:100F30005145DDBFB727002083C747BD0547FD17D3
:100F400093F7F70F637AF704894721CA411122C446
:100F500026C24AC006C6B2842E89EF70006F2A846A
:100F6000D14705C5630809008347450093E727007B
:100F70002302F5004146A6851305840197F0FE1F64
:100F8000E78040299C481CD48147B24022449244C7
:100F900002493E8541018280C9473E858280797140
:100FA00022D406D62A842EC6EF70206A01CDB2451F
:100FB0002285230EB1006C08EF705076B250225497
:100FC000456182805145DDBF6F70C07EC167138768
:100FD000E7FF6395E502B727002083A7478A91EBD7
:100FE000494582804945B240224492440249410128
:100FF000828003A30700E30503FE0283411122C49C
:1010000026C24AC006C6FD172A892E84B284639A76
:10101000F502B727002083A7478A91CF9C4381CF51
:10102000829711E9B7270020238C278BB727002050
:10103000A38C978A4DBFA6854A85EFE0BFD345F5BF
:10104000D5B72E85EF70606051DD834705000D45F3
:10105000E39B27F922852244B2400249A6859244A7
:1010600041016FB010059307F00363E2A706411139
:10107000C16722C406C626C2FD172A8409456382B9
:10108000F502C547AE846313F4022E85EFB0F00974
:1010900037250020130505AB06042A94231094007D
:1010A0000145B24022449244410182809307A0034B
:1010B0006316F4002E85EFB09000D9BF9307B003FC
:1010C000E318F4FC13F5F50FEFB0A07FD1B7094595
:1010D0008280011106CE2AC6EFE0FFCBEF10C01BC5
:1010E000EFB02102B7270020938707A9130700F06C
:1010F0002391E70023820700B7270020324513879A
:1011000007BDFD562301D700F2402388A7BC9545B3
:1011100005616F505062597193970501A6D286D62A
:10112000A2D4CAD0CECED2CCD6CADAC8DEC6E2C4E9
:10113000E6C2EAC06EDEC187AE8463DB07503724A7
:101140000020034504BD37290020372A0020EFC0C6
:10115000BFA5AA8C22CEB72A0020B72B00201304EB
:1011600009A9372C002063930C022165258DB65008
:10117000265496540659F649664AD64A464BB64B0B
:10118000264C964C064DF25D6561828083C70C004B
:101190001307200A639CE7008349340003D52C0021
:1011A000C1656686FD15EFF06F919DA2724713072A
:1011B00007BD83492700130710096398E71683C703
:1011C0001C001547639FE7006685EFF0EF93668587
:1011D000EFC03F92F24703C507BDEFC0FF9CAA8C4A
:1011E00059B73947639BE71603D54C008567A507B8
:1011F0006316F50483A58C0003CB0500631D0B006B
:10120000850591C9372500201946130585AA97F051
:10121000FE1FE7802000034709A985476317F710E1
:1012200063080B00230809A85A85EFF0EFC145B702
:1012300089472308F9A8EFB0806A51BF89671387EF
:101240002700631CE50403AB8C0063000B0E83478F
:101250000B0089EF83472B0003471B00A207D98FA0
:101260002314F40083473B00A300F400034709A9BB
:101270008947631CF70A83470B0091C7230809A815
:1012800003450B005DB783451400035584008D476B
:101290002308F9A8EF50304DE5B795076319F5001D
:1012A00083A78C0003C50700EFF08FE30DB7F97734
:1012B0001387A7FF2A9742074183914663F1E6040B
:1012C0009387A7FCAA97C207C18371476371F7028E
:1012D00089671387B7006310E50483A70A8AE38848
:1012E00007EE9C43E685E38407EE829715A0370757
:1012F00000181307F770B357F700858BA9CB832726
:101300008A8AE38607EC9C43E38307EC6685829731
:10131000E31F05EA19A81387C7006311E50283A735
:101320008C0083C70700E38407EA9307F00FE3808C
:10133000F9EAE6854E85EFC09F8E69BDB90763184F
:10134000F50083274C8AE38407E8DC4361BF8967A3
:1013500093871704E303F5F8C9BF3D476399E70492
:1013600003D54C0089671387D700E30CE5FC13878E
:101370009701E308E5FCCD07E319F5FA035764008C
:10138000C167FD17631DF70083274C8AE38107E4DB
:10139000DC43E38E07E20965E6854D05B9B7B7275B
:1013A000002083A7C78AE38407E29C43DDB71307C5
:1013B000E003E39CE7F683C72C0005476398E70E3C
:1013C00083C76C0037270020930D8789E1E783A747
:1013D0000D00D5CF03CB0700A14903C57C00138DB9
:1013E0008C00EA85EFE09FDF83C74C01A383AC004C
:1013F00083D80C0103D8EC0003D74C002A8603C520
:101400003C003EC283D72C01EA86DA853EC0CE87F7
:10141000EFF02FBC83C73C0095E7DD4783D80C0174
:1014200003D8EC0083C67C0083D54C003EC283D732
:101430002C013EC06A87CE8705465A85EF70C05999
:10144000A381AC0083A70D0081C71145EFF0FF9F7A
:10145000138B8B8B03450B00E30B05D6B7270020BE
:1014600083C5978BEFE01F91E30305D683C63C004D
:1014700093071003638AF60003D64C0083450B00E4
:101480004E873685EFE01FA8238C0B8A89B3034B68
:10149000340099B783278A8A034B3400914995DF3A
:1014A000DC4385DF81450145829705BF294763906D
:1014B000E70A83C76C0037270020930D8789A5EFC3
:1014C00083A70D00B5C703CB0700A14903C57C0066
:1014D000138D8C00937725001376150089E7EA8534
:1014E000EFE0DFCF2A8683C70C02A383CC0083D82A
:1014F000CC0103D8AC0103D74C0003C53C003EC26D
:1015000083D7EC01EA86DA853EC0CE87EFF06FAC78
:1015100083C73C0085FBDD4783D8CC0103D8AC01F1
:1015200083C67C0083D54C003EC283D7EC0111B743
:10153000034B340059BF83278A8A034B34009149F7
:10154000D1D7DC43C1D781450145829741B70947CF
:10155000639CE70083A70A8AE38B07C6DC43E38822
:1015600007C666858297A5B12D476398E70083A7D4
:101570000A8AE38E07C49C47DDB70D476397E700EF
:1015800066868D4503D54C0039B919476395E70642
:101590009305610213051031EFA0513F2C10130584
:1015A0002031EFA0B13E03D66C008357810203D5F2
:1015B0004C0063E8C70083D68C000357610263F7D1
:1015C000E60093050002EFB0403511B16374E60008
:1015D0002393EC0063F4D7002394FC0003D7CC00E2
:1015E00083D6AC0003D68C0083D56C0001488147BC
:1015F000EFB06032E9BE1D47E389E7D2314763951A
:10160000E7006686B145BDBF35476398E70083A70D
:101610000A8AE38E07BADC4799B74947639DE7001A
:1016200083278A8AE38307D0DC43E38007D08145A0
:1016300005458297DDB94D47E399E7CE83278A8A2E
:10164000E38507CEDC43E38207CEE6850945D5B7BF
:1016500093F7150089CFB727002083A7078A89C78A
:10166000DC4399C30145829713C5140009B693F76B
:10167000250091CFB727002083A7878A91C7DC4335
:1016800081C781450545829713C52400CDB493F7E2
:1016900045000145E38D07ACB727002083A7C78924
:1016A00037240020130404A991CF85472302F400B6
:1016B000B727002083A7878A91C7DC4381C781456C
:1016C0000545829748442C10EF7090762810EFF073
:1016D0000F9CB727002083D727AD81CF1306006466
:1016E0003386C702B727002003C507BD9145EFC069
:1016F0005F8D13C54400A5BC411122C437240020CE
:101700000325C48906C619C597F0FE1FE78080A18E
:10171000232E0488B2402244410182805971A2D410
:10172000372400208327C48986D6A6D2CAD0CECE3D
:10173000D2CCD6CADAC80545638D070C9305F104EF
:101740001305F041EF90C1059305F1041305F04135
:10175000EF900105B7270020938707A983C72700CB
:101760000347F104B337F00011C389070327C48985
:101770003EDE0345370093054700EFE0BFA1032796
:10178000C4892ADC0D45834527002EDAEFF0CFB758
:101790002AD81145EFF04FB70324C4892AD66545EE
:1017A0000347A400034BB4003AD4EFF0EFB5AA848A
:1017B0006945EFF06FB52A897145EFF0EFB4AA895A
:1017C0006D45EFF06FB42A8A7545EFF0EFB3AA8A42
:1017D0007945EFF06FB3E2046258F2572257B256E0
:1017E0004256D2551375F50F93FAFA0F137AFA0F82
:1017F00093F9F90F1379F90FE1842ACC56CA52C82C
:101800004EC64AC426C25AC0930844000545EFB0EC
:101810008012B650265496540659F649664AD64A5E
:10182000464B65618280011122CC06CE26CA8D47C7
:101830002E846315F50603C73500B7240020E94759
:1018400003D54500938404A96316F70083D7640089
:101850006382A706EF60705F09C583576400231792
:10186000F5000357A4008356840003566400835593
:10187000440003453400EFE01FE50357440083D7DD
:1018800064006309F7008547F2406244D2443E8514
:1018900005618280FD572393F400F5B78967CD0772
:1018A000631DF50083C7250031476385E700454781
:1018B000E39BE7FCEFE02FF1F9B7B1476319F500BF
:1018C000B727002003C557BDEFE03FEB6DBF416771
:1018D0007D178147E31AE5FA83C655004947E3952A
:1018E000E6FA83C5450003552400300023140100A7
:1018F000EF60504249BF411122C437240020834782
:10190000A48B26C206C64AC01307E00FAE846386C6
:10191000E7041307F00F1304A48B6387E702114554
:10192000EFC00FA215C1930700FD2300F500894702
:101930002301F5008547A3009500A301F500AA85C2
:1019400003450400EFC0AFADF9572300F400B240E7
:10195000224492440249410182802A891145EFC004
:101960002F9E75D5930700FD2300F50089472301BD
:10197000F500A3009500A30125012244B72700200C
:10198000B24092440249AA8503C5B78B41016FC09A
:101990000FA979714AD0372900208327C98922D419
:1019A00006D626D24ECE52CC56CA4544D5EFB724E1
:1019B0000020938704BD83C747004944958BCDC75A
:1019C000B72700202E8A9165A38DA78AAA899385BF
:1019D0007571314597E0FE1FE780C066232EA98808
:1019E0004D4459C123003501A30005002946D28585
:1019F000090597F0FE1FE780E0818327C98991469A
:101A000003C7270063EDE60835EB4D472381E70068
:101A100003C72700136707012381E70093057100BF
:101A20001305F041EF80D15783477100F1EBB727E1
:101A3000002003C727A98D476314F70CEFE0DF836D
:101A40002C00EF70F03E2800EFE07FE44545EFF01A
:101A5000AF8B014411C9130600643306C50203C5E8
:101A600004BD9145EFC0EFD52285B2502254925467
:101A70000259F249624AD24A45618280854663141E
:101A8000D700754761B789466314D7004947BDBF82
:101A90008D466314D700414795BF554785BF95468E
:101AA000CA8A630ED70099466316D7000947238177
:101AB000E70031A01D466314C70223810700654576
:101AC000EFF08F849307F007E30AF5F403A7CA89C0
:101AD0008347270093E707042301F70081B72146D6
:101AE0006314C7000547E1B725466315C700238186
:101AF000D700F1B7A9460544E318D7F6114745BF0B
:101B000031392A8435D1CD3E85B7011126CAB72493
:101B1000002083A7C48922CC06CE4AC84944B1C755
:101B200083C707000D446392A704372900200345AB
:101B300009BD8945EFC0CFEF034509BDB727002098
:101B40009145239E078AEFC0AFEE83A7C489014762
:101B50008146A38087001306F1008547854501452E
:101B6000A307F100EFA090602A842285F24062442E
:101B7000D244424905618280011106CE22CC26CA98
:101B80004AC88547631EF506372400201304C48B1A
:101B900083570400A9CB37270020034747A921E733
:101BA0001307B003636CF702B724002003C504BD1C
:101BB0008945EFC0EFE7035604009307006403C5AF
:101BC00004BD3306F6028945EFC0AFBF2310040001
:101BD000F2406244D244424905618280938747FCC7
:101BE0002310F400F5B7B727002083A7C789EDD3EA
:101BF0006244F240D244424903C50700056131B74F
:101C0000B724002083A7C489E1D737270020130910
:101C100007BD83474900918BC5DF89476313F506EC
:101C20002D452EC6EFB0DFF12A845DD1B245930772
:101C300000FD2300F500E547A30005002301F500A2
:101C400083C7350015051946230FF5FE83C74500E8
:101C50009505A30FF5FE97E0FE1FE780A05B034507
:101C600059009307F00F6316F50083A7C48903C5D5
:101C70000700A2856244F240D244424905616FB038
:101C80001FFA034507BD8945EFC08FDA6244F24071
:101C9000D2444249B7270020239E078A05616FF08E
:101CA000BFA549458280B727002083C747BD958BD4
:101CB000638F07129307C01C63FCC700094582802D
:101CC000F2406244D2444249B249094505618280EA
:101CD000B727002083A7C789638B0710B727002089
:101CE0009387A78B03C807001307E00F6311E81061
:101CF000011122CC4AC806CE26CA4EC62380A700B0
:101D0000130586004205368932844181ADC991654B
:101D10009385657197E0FE1FE780C032AA894DD197
:101D2000B724002003A5448C9384448C09C597E014
:101D3000FE1FE780203F1385890023A0A90022868B
:101D4000814523A0340197E0FE1FE78040539C406B
:101D50002286CA85884397E0FE1FE780A04B9C40FF
:101D6000A286F240239287006244D2444249B2499B
:101D7000984305468D45054505616FA0B03E9165C8
:101D80009385557197E0FE1FE780C02BAA890DD976
:101D9000B724002003A5C48C9384C48C09C597E0A4
:101DA000FE1FE78020381385890023A0A900228622
:101DB000814523A0340197E0FE1FE780404C9C4002
:101DC0002286CA85884397E0FE1FE780A0449C4096
:101DD000A286F240239287006244D2444249B2492B
:101DE000984305468D45054505616FA0F037494587
:101DF00082809307C01C63FCA700094582800945C7
:101E0000F2406244D2444249B2490561828045CDE4
:101E1000011122CC2A8421054EC64205AE89916566
:101E20009385657141814AC806CE26CA97E0FE1F98
:101E3000E78040212A8961D5B724002003A5448C7E
:101E40009384448C09C597E0FE1FE780A02D1305FD
:101E500089002320A9002286814523A0240197E040
:101E6000FE1FE780C0419C402286CE85884397E0D4
:101E7000FE1FE780203A9C4023928700B72700206E
:101E800083A7C7898DCFB727002083C747BD958B10
:101E90008DCBB727002083A7478C99CF984383D653
:101EA00047006244F240D2444249B24905468D455A
:101EB000054505616FA0102B01478146DDB701453F
:101EC00081B7494535BFB727002083A7C78995C784
:101ED000B727002083C747BD958B95C3B727002040
:101EE00083A7478C81CB984383D6470005468D4511
:101EF0000545C9B701478146D5BF0145828049459F
:101F000082809307C01C63FCA700094582800945B5
:101F1000F2406244D2444249B2490561828045CDD3
:101F2000011122CC2A8421054EC64205AE89916555
:101F30009385557141814AC806CE26CA97E0FE1F97
:101F4000E78040102A8961D5B724002003A5C48CFE
:101F50009384C48C09C597E0FE1FE780A01C13057D
:101F600089002320A9002286814523A0240197E02F
:101F7000FE1FE780C0309C402286CE85884397E0D4
:101F8000FE1FE78020299C4023928700B72700206E
:101F900083A7C7898DCFB727002083C747BD958BFF
:101FA0008DCBB727002083A7C78C99CF984383D6C2
:101FB00047006244F240D2444249B24905468D4549
:101FC000054505616FA0501A01478146DDB70145FF
:101FD00081B7494535BFB727002083A7C78995C773
:101FE000B727002083C747BD958B95C3B72700202F
:101FF00083A7C78C81CB984383D6470005468D4580
:102000000545C9B701478146D5BF0145828049458D
:1020100082809307C01C63F4A70009458280797110
:1020200022D44ECE06D626D24AD0AE892A842DC1DD
:1020300021059165420593857571418197E0FE1FE9
:10204000E78040002A89094563060908B724002073
:1020500003A5848C9384848C09C597E0FE1FE780D8
:10206000600C130589002320A9002286814523A046
:10207000240197E0FE1FE78080209C402286CE85C9
:10208000884397E0FE1FE780E0189C40239287007A
:10209000B727002083A7C78901458DCFB727002028
:1020A00083C747BD4945958B95C76C001305D03054
:1020B000EFA0C10DB247014593F7070F81CFB727B6
:1020C000002083A7878C8D450545944303D64700A0
:1020D000EFA0100AB250225492540259F2494561BD
:1020E0008280B727002083A7478C91CF03D6470073
:1020F0008C43411106C697E0FE1FE780A011B24055
:1021000001454101828009458280B727002083A7CD
:10211000478C8DC7B727002003A7C78C894705C305
:10212000035647000C43411106C697E0FE1FE780A7
:10213000600EB24081473E854101828089473E85DD
:102140008280797106D622D426D24AD04ECE52CC85
:102150008D4763FCA7008944B2502254268502595A
:102160009254F249624A4561828037290020034730
:1021700009A9C144E312F7FE9307F5FF930909A9E2
:1021800093F7F70F8546AE842A8403CA2900130902
:1021900009A963EAF6068DE199452800EFD05FDDD5
:1021A000B729002003C509BD914523018900EFC06F
:1021B0002F8835E481444DB719468145280097E0C2
:1021C000FE1FE780C00B19462C00268597E0FE1FF6
:1021D000E780401549F119469305F00F280097E074
:1021E000FE1FE780C00919462C00268597E0FE1FD8
:1021F000E78040132DF11946A685280097E0FE1FC1
:10220000E780400171BFE31DE5F803A5C9002C007C
:10221000EF700042AA8449D52381490135BF2800C7
:10222000EFE0EFE6AA840DED930571001305F04190
:10223000EF80015783447100B5FC8D47E31CF4F631
:102240004545EFE07F8C3DD5B7771800938707A011
:102250003306F50203C509BD9145EFB07FF6EDBD2C
:1022600023014901D5BDB727002083C747BD918B06
:102270008DC33725002041111305058C06C6EFD00C
:102280009FCEB240B72700207D57239BE7A841018E
:10229000828001456FD03FCDB72700207D57A38DA9
:1022A000E78AB72700207957238DE78AB7270020D0
:1022B000239E078AB727002023A2078CB727002078
:1022C00023A6078CB727002023A4078C37270100FB
:1022D000B7270020938787951307A74A98C3372706
:1022E0000100130787B7D8C3371701001307C77159
:1022F00098C7B727010037270020938767822320DC
:10230000F78C8280411126C2B724002083A7C4899C
:1023100006C622C48DCF2A840D45EFB07F82AA85E0
:1023200005C1930700FD2300F5008D47A30085003C
:102330002301F50083A7C48903C50700EFB03F8ED2
:1023400019C42244B240924441016FF0EFBAB24046
:102350002244924441018280797152CC372A002074
:102360008327CA894AD006D622D426D24ECE56CA50
:102370000149B1C703C91700B72400208547AA89BE
:10238000938404A96307F90483C74400054985EBD6
:102390000D45EFB0EFFAAA8505C1930700FD2300B4
:1023A000F5009147A30035012301F5008327CA8971
:1023B00003C50700EFB0BF86EFF00FB40549B25078
:1023C00022544A8592540259F249624AD24A4561DE
:1023D0008280B727002083A7478CD28A85E30145F6
:1023E000EFE08FF22A8601CAB727002003C507BD98
:1023F0008945EFB01FBD83A7CA8981A8944303D63E
:1024000047009305E1000545EFD01FC169D9834717
:102410000500858BE9D70545EFE00FEF9307B00383
:102420002A8463F0A704B727002003C507BD5D66B3
:10243000130606708945EFB0BFD8B72700201304F4
:1024400044FC239E878A8327CA890947A380E70023
:1024500083C7440081C72382040095B74E855D354C
:10246000B9BF130600643306C502B5BF411122C4CB
:102470002A840D4506C6EFB0AFEC05C5930700FDF5
:102480002300F500CD472301F500A3008500224479
:10249000B7270020B240AA8503C5B78B41016FB0B2
:1024A0000FF8B24022444101828083564500011159
:1024B000896706CE22CC26CA138667002A876399CD
:1024C000C6001C47014583C50700EFF0CFC23DA8F9
:1024D000138687006397C6001C47054583C5070020
:1024E000EDB7138697006395C602B727002083A730
:1024F000C789014595C71847034507006311050EB5
:102500000547A380E7000545EFA0E03D054509A884
:102510001386A700639BC6001C4703C507002D3D1B
:10252000F2406244D2440561828013866703E38AE5
:10253000C6F813867703E381C6FA1386870363928E
:10254000C60A1C45372400201307E00F83C4070088
:102550008347A48B1304A48B638EE7021307F00F49
:102560006386E7021145EFB0AFDDAA8505C1930789
:1025700000FD2300F5008947A30095002301F50025
:10258000A301050003450400EFB06FE9F9572300EC
:10259000F400ADBFB727002003A7C7893E840145DB
:1025A00041D38DEC85447D4523059100EFE0CFD5E7
:1025B0002316A10013050002EFE00FD58327C4897D
:1025C000A305A1001307B100A380970074001306B0
:1025D000A10085450545EFA060390DBF26851D3357
:1025E00035B713869703E389C6F21386E70363972B
:1025F000C6001C45094583C50700C1BD9387F70385
:102600000145E39FF6F01C4703C5070005E96C0090
:102610001305D030EF909137B247414793F7070F3A
:10262000E386E7EE9305B10013056031EF901136B4
:102630000345B1008545EFA0E033C9BD053DF9B5BF
:10264000B727002083C747BD411106C6958B99CB9C
:102650003725002013058595EFD05F904D45B2409A
:10266000410182800145EFD07F8F0145CDBF03C777
:102670000500937625009377D70F99C293672700BB
:10268000131885011358884113F7F707635408009E
:1026900013E70708937685009377770F99C29367BE
:1026A00087001377050293F6F70D19C393E6070227
:1026B0002380D500634508009377A50281CB83472B
:1026C000060093E7C7002300F60082807DFD834764
:1026D0000600CD9BCDBF2D456319071403C8050027
:1026E00009476310E814C841034715000345050076
:1026F0002207498F42070D654187930825A0630B88
:10270000170B011122CC26CA4AC84EC606CEBE8976
:10271000B68432842E8963CEE800930705A0630D4A
:10272000F702130515A06300A706239004000545D2
:10273000B5A0930745A06309F7086348F70613059A
:1027400065AAE314A7FE85472390F600DC4583C7FE
:1027500007002300F60091A0C84597E0FE1FE78020
:10276000E0B4420541814E86637335012A86239089
:10277000C400420641828325C900228597E0FE1FDE
:10278000E78040A919A8DC4583D7070023900601FC
:102790002300F600A183A300F6000145F240624445
:1027A000D2444249B2490561828099472390F6009C
:1027B0001946D1B785472390F600DC45014583C70C
:1027C00007002300F6008280DC45A9CB2147239037
:1027D000E60003D707002300E60003D707002183A4
:1027E000A300E60003D727002301E60003D7270054
:1027F0002183A301E60003D747002302E60003D7A5
:1028000047002183A302E60003D767002303E60005
:1028100083D76700A183A303F60041B72390060086
:10282000ADBF2390060005458280828083C80500E5
:102830008947639BF814DC41797122D406D626D2ED
:102840004AD04ECE52CC03C8170083C707002E844F
:1028500022083368F80042088D6713580841138333
:1028600027A0630468102A8A3A89B684B285634C2B
:102870000301138707A0630AE802938717A063097F
:10288000F808854711A8138737A0630BE80A138758
:1028900067AA8D47E317E8FEB250225492540259BA
:1028A000F249624A3E8545618280484432C697E0DB
:1028B000FE1FE780A09F420541819D47E36E25FDF5
:1028C000B3099900D547B24563D43701B547E9B795
:1028D00048442686C2094A9597E0FE1FE780809308
:1028E000484493D9090159463306364181454E95EE
:1028F00097E0FE1FE780A098B727002083A7478DA9
:1029000099E3814751BF9C438145E5DF52853DA056
:10291000AD47E31309F8E39B16FB83471600834694
:1029200006005844A207D58F2310F700B7270020D0
:1029300083A7478DF9D79C438545E1D78297D1B7C7
:10294000AD47E31B09F49947E392F6F8484419466A
:1029500097E0FE1FE780008CB727002083A7478DF4
:10296000CDD39C43D9DF8D4555B7AD4715F7854786
:10297000E39EF6F40347060093070008E3EEE6F053
:10298000DC452380E700B5BF85473E858280B727B9
:1029900000203727002023AA078CB72E0020894764
:1029A000A30FF784130FF7858147938E8E965947AF
:1029B000B386FE00238006008507E39BE7FEB7256C
:1029C0000020B707A00093854586938707059CC123
:1029D000B707E803DCC1B72700202389078C37D667
:1029E0000200B7170020938707771306061AD0C393
:1029F000372E002037D602000947130ECE85130666
:102A000046172300EE00D0C723AEE70123AEC7036D
:102A100037230020B7280020372800203725002042
:102A200037D6020037DF020037DE02008546130684
:102A30004618938808861303038D1308E885130549
:102A4000D585130FCF18130ECE172380E8002380EF
:102A5000E7002388E7002380E7022388E70223803A
:102A6000E7042300E8002384D70023950700D0CB98
:102A7000238CD700239D070023A2E7032384D702DA
:102A80002395070223A6D703D0DB238CD702239DEF
:102A9000070223A2C7052384D70423950704231024
:102AA00003002300D50023A667042388E70423AE90
:102AB00017052380E7062388E7062380E708B7D8B1
:102AC000020037D70200130707189388C81923A2FA
:102AD000E708F0CB238CD704239D070423A2170714
:102AE0002384D70623950706ECD7F0DB238CD70683
:102AF000239D070623AE07072384D70823950708DD
:102B000023A6A70837270100B7270020938707804F
:102B10001307676D98C3373701001307C782D8C3FF
:102B200023A407008280A54763EFA70CB7D7020054
:102B3000938707B80A053E951C41411122C426C25D
:102B400006C64AC0B2842E848287D547614563E5B4
:102B5000B70237290020594681451305899697D039
:102B6000FE1FE780C0712286A6851305899697D03F
:102B7000FE1FE780206A0145B24022449244024988
:102B80004101828089476145E398F5FE03570600BD
:102B9000B72700202398E78CF9BFA1476145E39D43
:102BA000F5FC372500202146A68513054586EF90C4
:102BB000B16FD1B785476145E390F5FCB7150020AB
:102BC00093850577D04D9385850203C50400EFF00A
:102BD0001FAA55B785476145E390F5FAB715002060
:102BE00093850577D05D93858504C5B78547614595
:102BF000E394F5F803470600B7270020A38EE78487
:102C00009DBF094595BF094582800547630CE502D4
:102C10004111AA8706C62E8599CB1147638CE7021E
:102C200025476381E7040945B24041018280B72509
:102C3000002055469385859697D0FE1FE780805DDE
:102C40000145DDB7B727002083D7078D01452390C5
:102C5000F5008280B7250020214693854586EF90B8
:102C6000B164F9BFB727002083C7D7852380F5005B
:102C7000C1BFB72700209387278D03C7070015E33F
:102C800005472380E700058909CDB72600203715C1
:102C90000020938606804146A545130505776F30D1
:102CA000806E01458280011106CE22CC0546638CE0
:102CB000C50211460944639EC5023EC63AC436C2E7
:102CC000EFD04FC82A8492462247B2471DE13E8684
:102CD000BA853685EFD06FBDEFF09F96EFF0AFD895
:102CE000EF60107C39A0EFD0EFC52A8419E1EFF036
:102CF0003F952285F24062440561828079714ECE13
:102D0000AE896C0022D426D24AD006D62A89B28453
:102D1000EF00307A2A840DE1CE854A85EFC0FF8D21
:102D20002A8419E93245B7F6000026879386C65EE5
:102D30002D468145EF1080122285B25022549254C4
:102D40000259F2494561828079714ECEAE896C009C
:102D500022D426D24AD006D62A89B284EF007075D2
:102D60002A840DE1CE854A85EFC05F972A8419E950
:102D70003245B7F6000026879386266D4D4681457D
:102D8000EF10C00D2285B250225492540259F249DC
:102D900045618280397126DAAE844C0022DC4AD843
:102DA0004ED652D406DEAA893289368AEF00707078
:102DB0002A8431EDA6856303090283D704002C0021
:102DC0002314F10083D724002315F100930720304A
:102DD0002316F100930780022307F1004E85EFC010
:102DE000AFFE2A840DE55946A6851305A1002304EC
:102DF000210197D0FE1FE780E0411245B7F60000A1
:102E000052879386665925462C00EF1020052285AF
:102E1000F2506254D2544259B259225A21618280EE
:102E2000797126D2AE846C0022D44AD04ECE06D61A
:102E3000AA893289EF00F0672A840DE1A6854E85C4
:102E4000EFC08FFD2A8419E93245B7F600004A87A2
:102E50009386A6603546A685EF1040002285B250C5
:102E6000225492540259F24945618280BD47638CD5
:102E7000F50663E9B702A5476387F50663EDB7007A
:102E80009947638CF5049D47638FF5049547638CE0
:102E9000F50401458280B5476387F50463E1B70413
:102EA000AD47F5B7DD47638EF50263EAB700C94762
:102EB000638BF502D9476386F502C547C9BFF5475D
:102EC0006383F50263E4B700ED47D1B793072005AC
:102ED000638BF5009307200D5DBF48458280084154
:102EE000828008458280484182809307F00F630EFC
:102EF000F506011126CAAA841305000222CC4AC88D
:102F00004EC652C456C206CE3A89B689B28A2E8AB5
:102F1000EFA01FC32A844D4515C8930700FB23006B
:102F2000F400A300540123114401230234011305CA
:102F30008400614663050902CA8597D0FE1FE780B9
:102F4000602DA2852685EFA09FCD0145F240624409
:102F5000D2444249B249224A924A0561828081455F
:102F600097D0FE1FE780A031E9BF0945828001119B
:102F700022CC06CE2A842306B100A306C100EF505E
:102F8000C06C15C18346C500B72700202147938731
:102F900007BD639EE60003C5670078009306E0075F
:102FA0000146A2859937F24062440561828078002B
:102FB0009306E0070146A28503C55700E5B79307CE
:102FC00000643306F6026FB0CF9305C903470500CE
:102FD00085469307270093F7F70F63F0F602411138
:102FE00022C42A843A8506C6EFB0EFAAFD57230013
:102FF000F400B240224441018280828003570500E0
:103000009307000B6313F702834745004947639C0E
:10301000E7000347150185476399E700035525003D
:1030200085456F30D0656D47C5BF8280011123147F
:10303000B1006C0022CC26CA4AC806CE2A89B684C2
:103040002315C100EF00F0462A840DE12C004A85CB
:10305000EFC0CFCD2A8419E93245B7F600002687A4
:103060009386464E15462C00EF00505F2285F240B5
:103070006244D244424905618280797193072030CD
:103080002314B1002315C1002316F1002C0093076F
:103090008002014606D62307F100EFF0BFCFB25001
:1030A00045618280C177797185073EC4894726D200
:1030B0002316F100AE84930780024C0022D44AD03C
:1030C00006D62A892307F100EF00B03E2A840DE1DD
:1030D0002C004A85EFC0AFDD2A8419E91245B7F606
:1030E000000026879386A66745462C00EF00105700
:1030F0002285B25022549254025945618280B28690
:1031000005466FF03FC9797126D2AE846C0022D497
:103110004AD04ECE06D6AA893289EF0090392A8449
:103120000DE1A6854E85EFC08FB72A8419E9324597
:10313000B7F600004A87938606480D46A685EF003D
:10314000F0512285B250225492540259F2494561FD
:1031500082807971930720202314B1002315C100C8
:103160002316F1002C0093078002014606D62307A0
:10317000F100EFF03FC2B25045618280011122CCD4
:1031800006CE2A842EC632C436C2EF50004C0DCD76
:103190000345C500B7270020A146938707BD124706
:1031A0002246B245631CD50003C56700B2862E8651
:1031B000A2856244F24005616FF03FD3B28603C539
:1031C00057002E86A285F5B7F24062440545056199
:1031D00082806FF0BFB26FF07FB26FF07FC46FF08C
:1031E0003FC479714ECEAE896C0022D426D24AD02B
:1031F00006D62A89B284EF00D02B2A840DE1CE8531
:103200004A85EFC04FC32A8419E93245B7F600005A
:103210002687938686623D468145EF0030442285AD
:10322000B250225492540259F24945618280B286CA
:1032300001466FF03FB6011122CC2E846C0026CAE5
:1032400006CEAA84EF00F026DD47630AF500930757
:1032500010102314F400A2852685EFC02FC8F24079
:103260006244D244056182802394050083D785009F
:1032700099E36FF07FAD09458280FDB7B727002045
:1032800003C7E790854763F9E702011122CC2E843A
:103290006C0026CA06CEAA84EF00B02109E9930784
:1032A00000102314F400A2852685EFC02FC3F2403E
:1032B0006244D2440561828059458280B72700204C
:1032C00023ACA78C8280B727002023AEA78C8280F6
:1032D000011122CC26CA06CE2A84AE84EF50E036F5
:1032E000A6852285EFB0DFE60DE922852316910041
:1032F000EF50A0351DC18346C500B72700202147E8
:10330000938707BD6390E60203C5670078009306C4
:10331000F0070146A285EFF05FBDF2406244D2445F
:103320000561828003C55700D5B7011126CA06CEB4
:10333000B68422CCDD4663E2B608D94663FED50AE0
:10334000A5466381D50A63EEB6049546638CD5081D
:1033500099466387D50A054441687D1863160609B6
:103360003AC6EFB0BFE2330685403247420641829B
:10337000420441803305C4004205BA85418132C60A
:10338000EF301041AA8749C181C432462390C4005E
:10339000B30580406244F240D2443E8505616FA08F
:1033A0000FEEC5466380D504C9460D44E395D5FAB2
:1033B000C167FD17E31EF6FA65B7F5466380D504CD
:1033C00063E4B600ED46D5B7930620056388D502C1
:1033D0009306200DE391D5F8C167FD170D446319DD
:1033E000F600BDBF09448DBF9306200DE392D5F8CA
:1033F000310642064182ADBF15445DBF0D444DBF4D
:10340000C167FD171D447DB7F2406244D244056197
:103410008280011122CC26CA06CE03C645002E8426
:103420001307000281469945AA8401372AC629CD8F
:103430008357040003464400930554002310F10011
:10344000835724002311F10089472312F1009307C9
:1034500080022303F10097D0FE1FE780A0DB8347A3
:1034600044008A8526852314F100EFC0EF8E2A845C
:1034700011C5324597D0FE1FE780C0CA2285F240B1
:103480006244D244056182804D44CDBF5D7186C6E1
:10349000A2C4A6C2CAC04EDE89476306F600C14771
:1034A00009446319F6040144B1C52E894C0832C69B
:1034B000B689AA84EF00E07F2A84324605EDC17701
:1034C0008507CA851305D1013ECC230EC10097D0D4
:1034D000FE1FE78020D42C082685253F2A8419E981
:1034E0005245B7F600004E879386C6531D462C08FA
:1034F000EF00D0162285B640264496440649F2597C
:1035000061618280797122D436844AD04ECE52CC09
:10351000B2892E8A3A898146130710022286D9453C
:1035200026D206D6AA84EFF05FE02AC629C12286F9
:10353000CA8523148100231241012313310197D03E
:10354000FE1FE78020CD4C002685EFC0EFA32A8424
:1035500011C5324597D0FE1FE780C0BC2285B2500E
:10356000225492540259F249624A456182804D4484
:10357000F5B7011122CC26CA06CE4AC8DD472A84F7
:10358000AE84638DF5028147035504006C00230669
:10359000F100EFC0EFA20545638DA4080345840048
:1035A000B165938505B8EFA01F95E5472301F400A9
:1035B000B7F700009387677B5CC09DA80347550160
:1035C0003149B2863306270318499C42329710438B
:1035D000E31BF6FA83D7460003564700E315F6FAD5
:1035E0008C46084797D0FE1FE780C0D349DD83474C
:1035F000540103474401850793F7F70FA30AF4002A
:1036000063FFE702B3872703184803550400BA97FE
:10361000984783D6470003D6270083D50700DD35BA
:103620003DF103458400B165938505B8EFA0BF8CDB
:103630005945F2406244D244424905618280834741
:10364000640199B7011122CC26CA06CEDD472A842F
:10365000AE84639BF50603550500EFB03FB30356F8
:10366000C40183562401035744016D162A9642066D
:103670004182B307D640C207231EC400C18363F052
:10368000E7089305C5FF3308F740635BB802BA96B5
:10369000918EC206184C8355040103550400C18263
:1036A0003E978D3515E103458400B165938505B8D6
:1036B000EFA07F845945F2406244D2440561828084
:1036C0006D1593160501F9B78147035504006C0089
:1036D0002306F100EFC0CF8E0545E38EA4FC034521
:1036E0008400B165938505B8EFA0FF80E54723010D
:1036F000F400B7F700009387677B5CC065BF854720
:10370000E9B7397126DAAE842C0022DC4AD84ED6CD
:1037100006DE2A89B289712B2A8421ED4A85EFB011
:10372000FFA683D644006D1563C5A6009316050158
:10373000C182984403D6240083D504004A85EFF063
:103740007FDC2A841DE53146A68508082306010092
:1037500097D0FE1FE78000AC83D724002245B7F640
:1037600000004E87938646745D466C00231EF10070
:10377000F5252285F2506254D2544259B259216142
:10378000828041B7BDBF797126D206D622D44AD0F5
:103790004ECE52CC56CA5AC88944C5C159CE2E8481
:1037A0002A89BA8A368B328AEFB05F9E930544002D
:1037B0008147711503D705006352A70A850793F760
:1037C000F70FB105E318FAFE8A854A85DD21AA8440
:1037D0002DE531453305AA02916593851570CD44D9
:1037E00097D0FE1FE7800086AA8921C9314633069B
:1037F000CA02A28597D0FE1FE780C0A11844835655
:10380000440003562400835504004A85EFF09FCFFF
:10381000AA841DED0245B7F60000854756879386BA
:1038200046745D464C002302F1004EC4230641015C
:10383000A3060100230761011525B25022542685F5
:1038400002599254F249624AD24A424B45618280FF
:103850004E8597D0FE1FE780E08CC5B7ED44F1BFE1
:1038600079714ECE37D60200AE89C16526D20147A6
:10387000AA8489461306861AFD15054522D406D664
:103880004AD0EF10F019054431CD2A8913073002D0
:1038900081461146F5452685EFF03FA92AC65544D5
:1038A00031C18357A900CE8601462314F100914708
:1038B0002315F10085472300F500B2472C0026852B
:1038C000A38007003247FD572301F7003247A301C9
:1038D000F700EF10B00A2A8411C5324597D0FE1FB9
:1038E000E78040842285B250225492540259F24912
:1038F00045618280411106C6EFF04FD719C5B2402D
:10390000410117D3FE1F6700E381B240410182806D
:10391000011106CE2AC6EFB04FED3245B727002081
:1039200023AC078CB727002023AE078C9145B7271F
:103930000020A388A7BCEF300060F24005616F2033
:10394000103A93970501C18763DB0712B727002060
:1039500003C517BD797122D44AD006D626D22E8946
:10396000EFA08FA42A8451CD034705009307000AD6
:103970006316F70885474C08A305F100EFB00FF474
:10398000AA840DED8347610171476375F7081387BA
:1039900017FE1377F70F9306000263F4E608858B92
:1039A000D5C7B727002083A7878D994481CB0355BE
:1039B00024001306B1004C088297AA848347B10003
:1039C00099C7084409C597C0FE1FE780A07595E018
:1039D0005247B7070001938707F07D8FB7071200A2
:1039E00093870710630CF70003476101ED476317E6
:1039F000F700035524008545EF3060482285EFA08D
:103A00004F8FB250225421653345A9009254025978
:103A1000456182803707301405073357F700058B5F
:103A20003DDF372700200327C78D49DB03475101BE
:103A300051F72306F10099472308F10003552400AC
:103A40006C0023170100EFB0FF8B8DBFB72700205C
:103A500083A7C78D9DC3035524001306B1004C08EE
:103A6000829729DDAA8483475101A9FB834761011D
:103A7000230891002306F100D1B79944EDB7014521
:103A80008280397122DC26DA06DE4AD84ED652D43C
:103A900056D25AD0A5472A84B2846399F510834739
:103AA000450203570600835A260085072302F502C4
:103AB0009307F7FFB387FA025442C207C183B69750
:103AC00003C9170083C707008346C500220933696D
:103AD000F90085476390F602330757032310060069
:103AE0008149014A130B3501931A070193DA0A0140
:103AF00063E15907C167FD176302F90C835704019D
:103B0000637EF90A050942098346C4001359090175
:103B1000231724010547035504009305E400639F20
:103B2000E6002315F100930720302316F1009307D8
:103B30008002231421012307F1002C00EFB0DFA83D
:103B400003458400B165938505B8EFA0CFBA594508
:103B5000BDA083D62400DC4083452401ED161386E6
:103B60005900C206C1823E965A85EFB08FCD05C975
:103B7000630C3A01C84003D62400B30535015295C1
:103B800097C0FE1FE780006983D724003E9A83D741
:103B90000400420A135A0A0185072390F40083D7D0
:103BA0002400BE99C20993D9090199B70347460079
:103BB000A9476310F7028347450281CF0145F250C0
:103BC0006254D2544259B259225A925A025B21612C
:103BD0008280834624011309340137D502004A86C6
:103BE00089451305051AEFB0CFC519C10545C1BFF9
:103BF0008346240137D502004A8689451305451AB4
:103C0000EFB02FC465F58346240137D502004A86FC
:103C1000894513058519EFB0CFC269F983462401A0
:103C200037D502004A86894513054518EFB06FC1A4
:103C300055FD03C74400BD47E3EAE7FAA56793874C
:103C40004712B3D7E700858BD5D383474402850756
:103C50002302F40203D9240071BDB727002003C654
:103C600087BDB727002003A7078E81476315F6009D
:103C7000814636858280BA8613078702835587FD81
:103C8000E389A5FE850793F7F70FCDB7011106CE9F
:103C90002EC6E13701CD8347A500B2451387170033
:103CA0006396E50093F707F82305F500F2400561F8
:103CB0008280011106CE2EC64D3705C5B24591C191
:103CC00088C1834785001307E00F5D456388E700DF
:103CD0001307F00F01456383E7005945F240056182
:103CE00082800945E5BF411122C42A84210506C608
:103CF00026C24AC0EFF06FAD83472400A51793F7A3
:103D0000D70F91EB0347C40085476310F7061C48A3
:103D100081443149A9E3FD5723010400A304F400C1
:103D2000230204021305C4002244B2409244024913
:103D300061468145410117C3FE1F67004354B387A5
:103D400024033E95084509C597C0FE1FE780803DC6
:103D5000850493F4F40F834744010848E3E1F4FE3B
:103D600097C0FE1FE780003C7DB7084C75F965B72A
:103D7000411122C4416406C626C29307E4FF630CC6
:103D8000F500AA8491EDD13D19E51305F4FFF13555
:103D900019C123109500B24022449244410182800F
:103DA00085476394F504EFF05FEB2A846DD5FD57EA
:103DB0002310F500834784001307F00F6384E702A4
:103DC0001307E00F638BE70083462400034594004C
:103DD00001475146A685EFF04F9122852937FD57BF
:103DE0002304F400230504007DB78947E395F5FA21
:103DF0008545EF40F02845F12685EFF01FE62A843F
:103E000055F951BF39C9034785009307F00F630681
:103E1000F704011122CC06CE2A848346250083555F
:103E200005000345950001475D46EFF00F8C034701
:103E30002400E1476319F700035504006C002306D2
:103E40000100EFB0FF97F9572304F4002285EFF04B
:103E50009FE9F24062440561828082809307F00FFF
:103E60006306F706011122CC26CA2A844EC6AE8408
:103E7000B689AA8593068500374501004AC852C411
:103E80003A89328A130545E0794606CEEFF02F9342
:103E9000A3042401230144012322340185C0130516
:103EA000C4006244F2404249B249224AA685D24443
:103EB0006146056117C3FE1F6700C335F2406244C7
:103EC000D2444249B249224A056182808280B727A2
:103ED00000202382A78E82809547639CF506834746
:103EE0004502854685072302F5028357060058429E
:103EF00003462600FD17C207C1836318D6048A074C
:103F0000BA9703C7170083C707002207D98F035743
:103F1000E50063F9E704411106C622C485072316AC
:103F2000F5002A849305C50003550500EFB00FE0A6
:103F300003458400B165938505B8EF90DFFBB2407F
:103F40002244D9473E8541018280C946B387D702C2
:103F500045BF83464600294785476396E6000347E9
:103F6000450211C381473E8582809D476392F506D5
:103F7000834745028356E50085072302F5028357F0
:103F800006005842FD178A073E97834717000347EC
:103F90000700A207D98F014763F6D704411106C66F
:103FA00022C485072A842316F5009305C50003550E
:103FB0000500EFF00FC603458400B165938505B891
:103FC000EF907FF3B240224459473A854101828005
:103FD00083464600A94705476396F6000347450216
:103FE000133717003A858280411122C406C626C2C3
:103FF000B5472A84639BF50483474502B28485074D
:104000002302F50203550500EFB04F9883D7040053
:104010001307F5FF014563C5E7020357E4000355A5
:1040200004009305C400BA972317F400EFB0CFDE65
:1040300003458400B165938505B8EF90DFEB5945E2
:10404000B2402244924441018280034746009D478A
:104050000545E317F7FE0345440213351500CDB7B8
:10406000C547639EF5068357060003572600FD17D4
:10407000B387E7020347450205072302E5025842DA
:10408000C207C1833E978347370003472700A20733
:10409000D98F41677D176395E70081473E85828010
:1040A000138717002316E5000357E500E3F7E7FE43
:1040B000411122C49305C5002A840355050006C694
:1040C000EFB0EFDE03458400B165938505B8EF904E
:1040D0009FE2B2402244D9473E8541018280834617
:1040E000460029478547E39BE6FA0347450255F713
:1040F00075B7011122CC26CA4AC852C406CE4EC694
:1041000083C7250015472A8AAE8432843689639D89
:10411000E7043686A2852685EFF01FDCAA8955E9DB
:1041200085476318F40A03474900A9476301F7026A
:1041300003C594004A8785460146D285EFE0FFDA41
:1041400019E585454A85EFE07FD21334150083C613
:10415000240003C5940001476946D285EFE0FFD8EB
:104160002685EFF05FB851A01D476398E7003686BB
:10417000A2852685EFF07FDF55B725476398E700D6
:104180003686A2852685EFF0DF8F49BF35476398D5
:10419000E7003686A2852685EFF01FE541B7454743
:1041A0006398E7003686A2852685EFF07FEBBDB7E2
:1041B0005D47639FE70003C7C50085473686A28534
:1041C0002685631DF702EFF0CFBA8547631BF50420
:1041D0008549A5476317F402835709009DE3054409
:1041E000E38709F6D947E39DF9F62285F240624458
:1041F000D2444249B249224A05618280EFF08FC41D
:10420000E9B703C594004A87A2860146D285EFE04C
:10421000DFCD71F5A2854A85EFE05FC51334150047
:10422000C1B70544D9B7397122DC06DE26DA4AD88F
:104230004ED652D456D283D705001944B1E783C96C
:1042400025002A89328A938759FE93F7D70FAE84C7
:10425000DDE7B727002083C6478E1307F00F938A48
:10426000478E19446382E602F5476394F904EFF040
:10427000DF9EAA8921C10346A5000DCE93178601B2
:10428000E18763DD070001442285F2506254D25475
:104290004259B259225A925A21618280F5454A8583
:1042A000EFE0FFCC83C7A90093E707F82385F90067
:1042B000D9BF814983D64400904483C5140003C507
:1042C00004003800EFB0CFD02A845DFD83C62400FF
:1042D00003C50A0038000146CA85EFE01FC12A84E1
:1042E00045F5B24799C323000A0083C724007547E8
:1042F000E39BE7F8E38909F82385F90071B7EFF04C
:10430000DF95AA8A49D185476391F90A83D544008C
:1043100088443000EFA07FE92A843DF503C72A00D6
:10432000C54763F2E70ADD476301F70CB7270020B2
:1043300003C59A0083C717BD639CA70A014403C73E
:104340002A008D47631FF7048357810003D7CA00F3
:1043500063F4E7002396FA0083D5CA004A85EFE0AC
:104360003FF7B727002083D787A46D47637BF70209
:1043700083D5CA005D476376B70213873500910580
:104380006349F7001307B00FBE856374F700930508
:10439000B00F1166C20513060629C1814A85EF8058
:1043A000C0515685EFF03F94C5B5834725001144B1
:1043B000E39C37ED5C41E38907EC83D544008844F6
:1043C0003000829791BFB72702009387072AB3D79F
:1043D000E700858BA1DF03C624003400D6854A851B
:1043E000EFF03FD12300AA0045B583A70A01DDB74E
:1043F00083C6240038000146CA85EFE01FAF2A8437
:104400001DFD83C524002800EFE05FA605D9230029
:104410000A0035B7011122CC3724002006CE26CA67
:104420004AC84EC652C4930904BD03C58900930708
:10443000800291653305F502938565703729002068
:104440009304098E97C0FE1FE780C0BF03C6890092
:104450009307800281453306F60288C097C0FE1F8D
:10446000E780E0E19C404D45A1C3930404BD1309DE
:10447000098E0144130A8002FD5983C78400636DCD
:10448000F4023745010013056522EFE03FE33745AD
:1044900001001305C5C8EFA03FC137450100130552
:1044A00005D7EF4000350145F2406244D24442490D
:1044B000B249224A05618280B307440303250900FB
:1044C0006146814505041374F40F3E9523103501B0
:1044D00023010500231435012305050023020502ED
:1044E000310597C0FE1FE78080D941BF014582801A
:1044F000B727002083C697BD814763E5D7000147F2
:104500003A8582802E87910503D6C5FFE30AA6FE71
:104510008507E5B70DCD834725000547890793F744
:10452000F70F6376F702411122C406C62A84835529
:104530000500034535000147F9465D46EFE0FF9A67
:10454000F9572311F400B240224441018280828055
:10455000B727002003C797BDFD56814763E3E700F7
:1045600082802310D5002301050085071105FDB7C2
:1045700001458280372600201306B6879307000284
:104580002300F60037270020FD57230DF786372735
:104590000020A306F786372700202306F7868545E7
:1045A000B7270020239CB786B72700202393078EC8
:1045B000B727002023A8078EB727002023A0079045
:1045C000B727002023AA078EB7260020B7D70200FE
:1045D0009386068793874719DCC2B7270020238478
:1045E000078EB72700209387C78009472380E600FE
:1045F0002380E7002388E7002380E7022388E7027F
:1046000037D7020013078718D4C7D8DBB7D6020004
:104610000D47238CE7029386461837270020D4CB1A
:104620000327C78E37D50200B7D602001305051A37
:104630009386861AC8C32384B70023950700238C6A
:10464000B700239D0700D0CFD4D32384070223953E
:10465000070223A60702239D0702D8DFB727002001
:10466000374701009387C7841307C77223A0070049
:10467000D8C323A407008280411106C6EFF05FE78C
:1046800011C503452500B240410182800145E5BFC7
:10469000411122C426C24AC006C6AA842E89328489
:1046A000EFF01FE511E94165CA857D15EFF05FE484
:1046B000C54711C523109500230185008147B240ED
:1046C0002244924402493E854101828029E789487B
:1046D000354763931605011106CE22CC26CA03473F
:1046E00016000346060093C7F7FF2207598EF18F85
:1046F00032C68DE7C4452A84A685EFF0FFF732461F
:104700000147630FA60022856244F240A685D24489
:1047100005616FF0FFF72D473A8582801307000887
:10472000F2406244D2443A850561828083C8050024
:1047300009486395080303A8450083471800034808
:104740000800A207B3E70701C2070D68C187130875
:1047500028906395070189476FF05FF705458280D0
:10476000011122CC372400201304D486034704000F
:1047700006CE26CA4AC84EC69307F00F6300F70458
:10478000AA892945B2842E89EF908FBB05C993076A
:10479000100B2310F500230205002311350123130C
:1047A000250123149500AA85034504006244F240C4
:1047B000D2444249B24905616F906FC6F2406244EB
:1047C000D2444249B249056182804111B727002095
:1047D00026C2AE8483A5C78E22C406C62A84EFF003
:1047E000BFE9098909C922852244B240A6859244BD
:1047F00041016FF0EF86B2402244924405454101E9
:104800008280411122C426C24AC006C6AA8413046B
:1048100045001309850B835704009DC3084409C54F
:1048200097C0FE1FE780009022853146814597C0E2
:10483000FE1FE780C0A43104231A04FEE31D24FDFB
:10484000B2402244FD572390F400024992444101B2
:104850008280B727002003C697BDB727002003A793
:10486000878F81476315F600814636858280BA8638
:104870001307870B835587F4E389A5FE850793F714
:10488000F70FCDB7B727002083A7079089CB03D7B1
:1048900047006314A700884782809C43C5BF014539
:1048A0008280411106C6F93F09C50845B240410161
:1048B00082800145E5BF011126CA9384450022CCC0
:1048C0004EC606CE4AC852C456C25AC0268781492F
:1048D0000144814681473D450356070055CED9E244
:1048E0000354470083572700B286A297C207C183AB
:1048F00085093107E392A9FE25C82E899165938524
:104900004570228597B0FE1FE780C0732A8B29CDA2
:10491000814A014A8C4485C503D6440033054B01C6
:1049200097C0FE1FE780008F83D7440088443E9ADB
:10493000420A135A0A0197B0FE1FE780A07E6389DE
:104940000A0031468145268597C0FE1FE7802093E7
:10495000850AB104E3E03AFD2326690123148900A6
:10496000054521A0630DD6000145F2406244D244C2
:104970004249B249224A924A024B0561828003565B
:104980002700E313F6FE035647003294B297420421
:10499000C2074180C183A9BF0545E37835FDA9BFA2
:1049A000B727002083A7478F99E301458280984766
:1049B0000357A7006315A7001385470082809C4317
:1049C000E5B7411106C6E93F11C503550500B240E0
:1049D000410182800145E5BF411106C6EFF05FFC51
:1049E00011C503452500B240410182804145E5BF24
:1049F000411122C42A842E8506C6F93FAA850546A0
:104A00002285EF30B04795476305F500BD47631336
:104A1000F5002145B2402244410182804111B7276F
:104A2000002022C406C603A4478F81469387478F80
:104A300029C018440356A70018406317A60285CA68
:104A400098C22E8581C921469305440097B0FE1F68
:104A5000E780407C228597B0FE1FE780A06C01456F
:104A6000B240224441018280A2863A84D1B798C3E1
:104A7000C9BF0545F5B737270020832707900146B2
:104A800013070790A9C703D847009443631CA802E3
:104A9000011106CE22CC26CA0DCA14C2AA843E85B4
:104AA0002E8497B0FE1FE780E0672C002685EFF08C
:104AB000FFF601E519C0B2471CC0F2406244D2447F
:104AC000056182803E86B68775BF14C3C1BF0545A8
:104AD0008280411122C42A84090506C6EFE0EFCE88
:104AE000FD57A301F400B240224441018280B72760
:104AF000002003C797BDB727002083A7C78F2A864A
:104B0000050781463E8583D707006388C700850671
:104B100093076500E3E8E6FE01458280411122C467
:104B2000416406C626C29307E4FF630EF500AA841B
:104B300085E1EFF0DFFB01E91305F4FFEFF03FFB48
:104B400019C123109500B240224492444101828051
:104B500085476394F504EFF09FF92A846DD5FD57DE
:104B60002310F500834724001307F00F6384E70246
:104B70001307E00F638AE700034534000147F94655
:104B80005146A685EFE06FB62285EFF09FF4FD5702
:104B90002301F400230204007DB78947E395F5FA69
:104BA0008545EF30F04D45F12685EFF05FF42A841E
:104BB00055F951BF1D71A6CACEC686CEA2CCCAC8B1
:104BC000D2C4D6C2DAC05EDEAE8483C52500F94702
:104BD000AA896397F504EFF09FF12A8411ED01444F
:104BE0002285F6406644D6444649B649264A964A46
:104BF000064BF25B256182808347250005478907C4
:104C000093F7F70FE37DF7FC034535000147F946BD
:104C10000146CE85EFE06FAD2285EFF09FEBC1B787
:104C200003AB0400B7070001938707F037071200B2
:104C3000B377FB0013070710B28A0149638AE702C2
:104C40002EC6EFF0DFEA2A89B2451DC103464500B2
:104C500005C293178601E187E3C307F84E85EFE0AD
:104C60000FB18347490093E707F82302F90085BF96
:104C7000372A00200347AA879307F00F130AAA8751
:104C80001944E30FF7F4E147E3ECB7F493D71500C9
:104C9000FD1713973700B7D70200938787BABA97E3
:104CA00003A80700E30E08F283AB4700E38A0BF288
:104CB000420B135B0B0163050B00C947E392F5F24E
:104CC00083D64400904483C5140003C5040038080B
:104CD00002982A84E31605F02C084E85829B2A84CC
:104CE00021C983C71400E39D07EE83C72400230A6C
:104CF000A10039472308F1006399E702624783471F
:104D0000170003470700A207D98F0C084E85231907
:104D1000F100EFA02FDFE30405EC14080546D945A8
:104D20004E85EFE0AFC52A8465BD83578101F1BF91
:104D300083C624009147E384F6EA03450A00380855
:104D40000146CE85EFE06F9A2A84E31B05E883C510
:104D500024002808EFE08F9119C123800A009840B1
:104D6000B7070001938707F07D8FB707120093877D
:104D70000710E306F7E6E30409E683C724002302ED
:104D8000F900B9BD011106CE2EC6EFF05FD601CDF8
:104D900083474500B245138717006396E50093F7F4
:104DA00007F82302F500F24005618280B727002052
:104DB00003A7478F19E3014615A81C4703D8A7008E
:104DC000636B050183584700B38608016355D5001E
:104DD0008146639416011843F1BF3E86C10703D391
:104DE000A7FF6317A30099C1239005013285828034
:104DF0008506C206C182F1BF397152D42E8A4ED6C1
:104E00009305E101AA89528522DC4AD856D206DEF2
:104E100026DA328936C63AC4BE8AEFF03FF9054435
:104E200035C5AA840355E1013944EFF0BFA539CD5A
:104E300003284500630C08042247B246D6874A86F9
:104E4000A6854E8502982A8431E19307E00F638F8F
:104E5000FA0203C704008947631AF702D840834760
:104E6000170003470700A207D98FC2070D67C18744
:104E700013072790639CE700834719000346090046
:104E8000D285A2075D8E4E85EFF09F8D2285F25070
:104E90006254D2544259B259225A925A21618280A4
:104EA000797122D4035425004ECEAA89228556CA90
:104EB00006D626D24AD052CC5AC85EC662C4AE8A42
:104EC000EFF03F9901E92285EFA0DFE3594429E99A
:104ED0000144B9A003C789008547AA840144631A25
:104EE000F702AA8513858900EFF0FF9C29CD03D72F
:104EF000640083D68400D04483D5440003D52900C0
:104F0000E147EFF07FEFD9472A846318F50223A623
:104F100004002685EFF0FF8E49C0D947E30AF4FA72
:104F20002285B250225492540259F249624AD24A1E
:104F3000424BB24B224C4561828061DD83D74400F5
:104F40002390FA00F9B713894400014AB94B594C30
:104F50003D4B83550900D5DDE14763067A010357D0
:104F6000C90011C3D94703572900835649000326B6
:104F7000890003D52900EFF03FE82A8463198501F1
:104F800023240900050A3109E3156AFD59B77DD9C3
:104F9000835709002390FA00F5B703D529002DB7F0
:104FA00001112317C1009307E00F1306E100014729
:104FB000894606CEEFF05FE4F240056182807971A8
:104FC00022D42A840355850026D2AE84930521017C
:104FD00006D64AD0EFF09FDD6308050E83478500B3
:104FE0002AC693F707028DCF03552101EFF07F8B7F
:104FF000AA87B24501ED8357840039452390F40018
:10500000B2502254925402594561828003552400C3
:105010004946829711C5835784002390F400CDB789
:10502000035924004A85EFF0DF8211ED41657D15BB
:10503000EFF03F8219E58357840025452390F40063
:10504000C1B723102501130745008147BD4603560C
:1050500007002DE63147B387E70213098400314684
:10506000CA8591073E9597B0FE1FE780A01A31468A
:10507000CA85480897B0FE1FE780C0190356C400D0
:105080000355240041478146DD45EFE00FAA2ACEB3
:1050900019E58357840045452390F40095B70C48E3
:1050A0000356C40097B0FE1FE780C01603552400C6
:1050B0004C08EFA0FFC029D5594599B7850731079E
:1050C000E397D7F8254581BF0545B1B7797122D45B
:1050D0002A840355850026D2AE849305E1014AD087
:1050E00006D63289EFF09FCC51C58347850093F7F0
:1050F0000702A9E7034714019307200519E3834733
:1051000044008356A4005044835584000355240072
:105110000147EFF07FCEAA8721E98347140199E781
:1051200003552400EFA0FFB4D94711E18147B250E5
:105130002254925402593E85456182802AC6035505
:10514000E101EFF00FF6AA8705C9B2450355240027
:1051500049468297AA8759DD035784002390E400CB
:105160000347140161F7E1B75947E317E5FE230050
:1051700009006DBF8547CDB7B947F9BF397122DC4A
:105180004AD84ED652D406DE26DAAA892E8A32C6EC
:105190003689EFF0DF95094415C5834725001307CD
:1051A000E00FAA845D44638FE7001307F00F5944B2
:1051B000639AE700324605E2D2854E85EFA07FB8BC
:1051C0002A8415CD2285F2506254D2544259B259E4
:1051D000225A2161828003550A009305E101231FB1
:1051E0000100EFF0BFBC0355E101EFF0EFFEAA852F
:1051F00005464E85EF3080482A845DDDE1B7930790
:10520000F00FE301F9FC374501009386240079464D
:10521000A68513054551EFD09FDAA38124015DB720
:105220003971B727002026DA83A4478F52D45AD089
:105230005ECE62CC06DE22DC4AD84ED656D266CA94
:105240002A8BAE8B328C368A99E08149B9A0804492
:1052500083DC44000149835AA4006314990184400B
:10526000E5B78357A400A28963F8670105094209DD
:10527000135909014104D5B7E3EAFBFE630C0A00A8
:10528000834504004840D28662863AC6EF907FDBB1
:10529000324769DD19C323105701F25062544E851D
:1052A000D2544259B259225A925A025BF24B624C82
:1052B000D24C2161828003D7050083D62500854723
:1052C00063E9E60439C7411183C6450026C237D5D4
:1052D00002009384550022C426862E841305051AE5
:1052E000894506C6EF90FFD5C14711CD83464400DE
:1052F000835524000355040001472686EFF05FF232
:10530000814711E1A947B240224492443E854101C0
:1053100082803E8582802E860355060083D5250037
:10532000854763E2A50205C1834646004111014756
:10533000150606C6EFF0DFEE814711E1A947B2403E
:105340003E85410182803E8582802E86035506007F
:1053500083D52500854763E2A50205C18346460043
:1053600041110147150606C6EFF09FEB814711E199
:10537000A947B2403E85410182803E8582803971D5
:105380004ED683D7250083D9050006DE22DC26DA37
:105390004AD852D456D25AD05ECE62CC66CA6AC8B7
:1053A00063E037198547638E0914416BAE8A2A8AF8
:1053B0002314010002C6014401497D1B894B054CA1
:1053C000C94C054D83D52A000147814601464E85CB
:1053D00023130100EFF0DFE4AA846300051209EC57
:1053E00013072002930661005A8695455285EFD037
:1053F000DFF32A84630805120357810083C7040082
:1054000045C70347A100630CA70741476385E7022F
:105410002C005285EFA0CFD309CD34001546D945D5
:105420005285EFD0BFD511C5324597B0FE1FE7803A
:1054300060CF8147F9A083D7A4004146130524001B
:105440002300F40083D7A400A183A300F400CC4080
:1054500097B0FE1FE78000DC490483578100850771
:10546000C207C1832314F10063F9270983D7A4007D
:10547000638567098509C20993D90901A1B7E39931
:1054800077F983D7A4000946130524002300F4000C
:1054900083D7A400A183A300F400CC4097B0FE1FE3
:1054A000E78040D7110455BF22C60359610003C7E6
:1054B000A40013052400638277033359990323055D
:1054C00071012300E40083D7A4004146A183A30017
:1054D000F400CC401379F90FA5BF23058101230007
:1054E000E40083D7A400135929001379F90FA1838D
:1054F000A300F4000946CC4055B78357810089FBCF
:10550000A947F2506254D2544259B259225A925A7F
:10551000025BF24B624CD24C424D3E85216182804F
:105520008547C5B7C547F1BFB727002003C7E79038
:10553000854763F3E706011122CC26CA4AC806CE86
:105540002A843289AE84EFF08FDA01C9034725003F
:105550009307E00F5D456308F700631C0900A6850B
:105560002285EFA0EFFAF2406244D244424905613D
:10557000828003D504009305E10023170100EFF0BA
:10558000FF820355E100EFF02FC5AA85054622856D
:10559000EF30C00E69D5C1BF5945828013F70502AF
:1055A00001C7B2856FF0CFC4411126C24AC006C6FA
:1055B00022C413F98500AA84631709001397850193
:1055C0006187635D070232853684EFF0EFC0AA85FC
:1055D00005466313090001462685EF30200A01E9DC
:1055E0000145B240224492440249410182808347EE
:1055F0009400E5DB83478400E5F7E5B793F72500E2
:10560000E5F30D45F9BF7971AE8622D42A8403D51E
:1056100006009305E10106D636C6EFF02FF909CD55
:1056200083458500B2460356E1012285EFF01FF75E
:10563000B2502254456182800545DDBF13F7050253
:1056400001C7B2856FF0CFBA411122C426C206C687
:1056500093F485002A8491E4139785016187635050
:1056600007023285EFF04FB7AA85054691E0014663
:1056700022852244B240924441016F30200093F7CA
:105680002500014591E30D45B24022449244410179
:1056900082807971AE8622D42A8403D506009305D0
:1056A000E10136C606D6EFF06FF0B24601CD834574
:1056B00085000356E1012285EFF05FF8B2502254D5
:1056C000456182800545DDBF797126D2AA840355E4
:1056D000A500C16722D44AD04ECE06D623170100BA
:1056E000FD173284B6890149630DF500050583C6AF
:1056F0000400D04042051307E1004181EFF05FB2A2
:105700002A8983C60400D04037D502008945130595
:10571000051AEF901F931DC503D4A4002285EFF056
:105720004FAA09C57D142A9442044180638409006C
:1057300023908900B25022544A8592540259F2496A
:105740004561828083C60400D04037D50200894578
:105750001305451AEF90FF8E61F183C60400D04017
:1057600037D50200894513054518EF909F8D19C95B
:10577000E30609FA8357E100E39287FA0354A9008C
:105780007D145DB703D4A40055B7397122DC26DA45
:105790004AD84ED652D456D25AD062CC06DE5ECE0D
:1057A000BE8983C785002A8AAE84C18B328C368439
:1057B0003A89C28A468B9DE783CB04008947638B75
:1057C000FB046285EFF00F8C1DC183280500638008
:1057D00008025A88D6874E87CA862286A6855285B1
:1057E000829839A03285EFF0CF8BAA8711ED394529
:1057F000F2506254D2544259B259225A925A025B20
:10580000F24B624C216182802946A685528582979F
:1058100045D5F9BFD8408347170003470700A207C3
:10582000D98FC2070D67C187930607906384D7227B
:1058300063CEF60693062780638ED70C63C1F6020B
:1058400013070780E3CFE7F62D45E39309FADC441D
:1058500003C60700CC432310C900228569A21307A1
:105860003780E390E7F62D45E39409F88547231048
:10587000F900DC44814583C707002300F40003D509
:10588000A400050542054181EFF04FD2835709007E
:105890006317051291072310F9001146814513057E
:1058A000140097B0FE1FE780809D29A293062790E1
:1058B0006383D71863CED71293063790638CD718BB
:1058C00013074790E39FE7EE2D45E39309F2DC448D
:1058D0001D472310E90003C707002300E40003C7A6
:1058E0001700A300E40003D727002301E40003D737
:1058F00027002183A301E40003C747002302E4003B
:1059000003D76700A302E40083D76700A1832303C2
:10591000F4004DA02D45E39D09ECDC446C0083C9E7
:10592000170003C70700A209B3E9E90011472310D4
:10593000E90083C707004E852300F400DC4483C7D9
:105940001700A300F400EFF06FC6AA8435C5035614
:10595000C100C1659306E100FD158329C500EFF084
:10596000BFD619ED83C60400D04037D50200894563
:105970001305451AEF90EFEC01E5FD572317F100F1
:1059800003C7090089476310F70283A54900094648
:105990001305440097B0FE1FE780C08783570900B6
:1059A00089072310F9008357E1002301F400A18344
:1059B000A301F40001452DBD23173101EDB70347C5
:1059C00005008907BA972310F9008357A500A300A3
:1059D000F4008357A500A1832301F40003460500CA
:1059E0004C411305340097B0FE1FE780A082D9B761
:1059F000C84497B0FE1FE780608B93170501C183F1
:105A00002A871D45E3E637DF6399F9002310090073
:105A1000CC4403560900CE9589B54207B3863A01B6
:105A2000418363C7E600B38737412310F900CDB740
:105A300023105901F1BF2D45E39C09DACC4452856E
:105A4000EFE09FC3231079012300A4002181A3006C
:105A5000A4008DB72D45E39D09D8DC4423107901BE
:105A600083C707002300F400DC4483C71700A300AA
:105A7000F40089B71D71CAC82A8903552500A2CC34
:105A8000CEC6D2C4D6C2DAC05EDE62DC66DA6ED6BC
:105A900086CEA6CA6AD8AE8AEF904FEF130CF5FFF8
:105AA00093170C01B72B0020C1832A8A81491384E4
:105AB0000B983EC6372B0020B72C0020C16D8357B2
:105AC000C90063F6F9008357040063CC87010355CE
:105AD000290093850B98EFA04F8E2A8D15CD594D37
:105AE00025A883278900139719009305E101BA9728
:105AF00083C4170083C70700A204DD8C2685EFF05E
:105B0000EFAAAA8515E923909A004840054D09C5DA
:105B100097A0FE1FE7800061F64066446A85D64480
:105B20004649B649264A964A064BF25B625CD25C0D
:105B3000425DB25D2561828032488348490083A678
:105B40000C8F0356E10103552900814713076B8E23
:105B5000EFF0BFC32A8D13880C8F09C523909A00DC
:105B6000484075B75C4085E7035529005147814699
:105B70001386FDFFBD45EFD04FFBB727002048C07F
:105B80001388078F09E523909A00454D71B7835715
:105B9000040003576B8E93046B8E3E976347470157
:105BA00013C7F7FF52972390E400484003D6040040
:105BB000832508003E95850997A0FE1FE780806534
:105BC0008357040003D70400C20993D90901BA9787
:105BD0002310F400EDB5397122DC2A840355250029
:105BE00006DE26DA4AD84ED652D45AD05ECE62CCE1
:105BF00066CA2E8B56D26AC8EF904FD92A8A83463E
:105C0000C4008355A4000355840078001306D40013
:105C1000130CBAFF651AEFF0AFE0420A37290020F3
:105C2000AA898144135A0A01B72B0020B72C0020FF
:105C3000130909986386090463D48405938A0C8F39
:105C40008348440083A60A000356C100035524007C
:105C50005288814713876B8ECE85138D6B8EEFF044
:105C6000DFB215C5814A0356C1008355A4004E8595
:105C70009306E100EFF05FA5AA89639D0A065DF92E
:105C8000E5E08357840029452310FB0089A0835752
:105C90000D0003560401E317F6FC83A50A004848EB
:105CA00097A0FE1FE780006855DD83274900A1E328
:105CB000035524004166454781467D169D45EFD03A
:105CC000CFE605E58357840045452310FB00F250DD
:105CD0006254D2544259B259225A925A025BF24B40
:105CE000624CD24C424D216182802322A90083DA8A
:105CF000A90095BF83274900A69723805701938762
:105D000014001397070183274900418393DA8A001F
:105D1000BA9723805701138724008326490093876D
:105D20003400420791044183C207C204C183C18089
:105D3000369711CD8356E1002300D7000327490091
:105D4000BA970357E10021832380E700E5B5FD56AC
:105D50002300D70003274900BA972380D7000DB747
:105D600003552400B72500208980239095989385BA
:105D70000598EF909FCA21DD594591BF411122C47A
:105D800006C693F705012A84328585C3EFE0DFC498
:105D9000AA8505462285EF20700E95476305F5001C
:105DA000BD47631DF502214515A893F7450099CB22
:105DB000EFE09FC20546AA8522852244B2404101F8
:105DC0006F20D00B93F7050489C7EFE0FFC00146B1
:105DD000DDB713F51500133515000605B240224452
:105DE0004101828079714AD04ECE52CC06D622D45F
:105DF00026D22A8AAE89014983D749006364F90013
:105E00000145A1A083A709001314190093041400ED
:105E10003387970003470700A29703C507002207AF
:105E20009305E100598DEFE07FF805E983A70900AC
:105E300005453E94034704002380E70083A709003B
:105E4000BE9403C70400A380E700B25022549254CA
:105E50000259F249624A45618280834585000356B2
:105E6000E1005285EFF09FF105C183A709003E9440
:105E7000034704002380E70083A70900BE9403C7FB
:105E80000400A380E700D1B70509420913590901AD
:105E9000A5B7011122CC2A8403D505009305E100A2
:105EA00006CEEFE0BFF001CD834585000356E1004B
:105EB0002285EFF0BFECF240624405618280054527
:105EC000DDBF1D71CAC82A890355250086CEA2CC24
:105ED000A6CAD2C4D6C2DAC05EDE62DC66DA2E8A18
:105EE000CEC66AD86ED6EF906FAA2AC68346C9007E
:105EF0008355A9000355890078081306D900EFF0EF
:105F00002FB2B247B7240020416B938AA7FFC20A81
:105F1000AA8B014493DA0A01372C0020B72C002009
:105F2000938404987D1B63810B1A0356C10183C5BA
:105F30008B0003552900EFF07FE4AA8D631105184B
:105F40008348490083A60C8F0356C10103552900DD
:105F50005688814713076C8EDE85EFF01F83AA8D6C
:105F600093096C8E138D0C8F631B051429C003D706
:105F7000090083D7240011076397E7003247A297EF
:105F80006D1763CAE706B72500209387059803D7E6
:105F9000270003552900938505983354E402239084
:105FA0008700EF901FC5AA8D15C1D94D05A00355D7
:105FB0002900494781465A86C545EFD00FB7C8C06A
:105FC00015E583D7AB00C54D2310FA00F6406644B3
:105FD0006E85D6444649B649264A964A064BF25B38
:105FE000625CD25C425DB25D2561828083D709002C
:105FF00091072391F400DC4003D7AB009306E10145
:10600000A2972380E7009307140013970701DC4051
:1060100041835E85BA9703D7AB0021832380E700D5
:106020000356C1018355A900EFF00FEA13072400BE
:10603000D44093073400420711044183C20742044D
:10604000AA8BC1834180369721E1FD562300D700FA
:10605000D84083250D00BA972380D700C84003D6C7
:106060000900229597A0FE1FE780C01A83D7090078
:106070003E944204418001F8835789002310FA00BE
:10608000E3960DF4A94D99B78356E10183250D00E0
:106090002300D700D840BA970357E101218323801A
:1060A000E700C84003D60900229597A0FE1FE780AD
:1060B000601683D709003E9442044180ADB583D772
:1060C000AB002310FA0045BF814D75B75D71A6C2C4
:1060D000CAC0AA840359850003552500A2C44EDE18
:1060E00052DC5AD85ED662D466D286C656DA6AD0F8
:1060F0006ECE2E8BEF908F89930BD5FF7115131AEF
:106100000501B72900200144135A0A01372C002049
:10611000B72C0020938909986359741583C6C4006D
:1061200083D5A4001307E1001386D4004A85EFF05D
:106130002F8F2A8D630B05120359A5008345850017
:106140000356E10003D52400EFF05FC3631405128A
:1061500083C8440083A60C8F0356E10003D52400B6
:106160005288814713076C8EEA85EFF00FE2930D9A
:106170006C8E13880C8F631F050E1DC883D70D000E
:1061800003D729008907630CF706B725002013877A
:1061900005988357270003D5240093850598335429
:1061A000F40223108700EF901F9115C5594525A0D3
:1061B00003D5240041664D4781467D16A545EFD0A5
:1061C000CF96B727002023A2A9001388078F1DE1CF
:1061D00023102B014545B640264496440649F25902
:1061E000625AD25A425BB25B225C925C025DF24D13
:1061F0006161828083D70D0089072391F90083D7DD
:106200000D00A29763D3770783A749000357AD001A
:10621000930A2400A2972380E70005049317040142
:1062200003A44900C183C20A3E948357AD0083256D
:10623000080093DA0A01A1832300F40003A54900B2
:1062400003D60D00569597A0FE1FE780A0FC03D44F
:106250000D00C167FD17569442044180E30EF9EA30
:10626000050942091359090145BD294519FC2310A7
:106270002B0195B76DDC11BF8357050081E7894776
:106280003E858280411126C2444122C406C64AC0CE
:1062900083C60400D0402A8437D5020089451305FF
:1062A000051AEF801FDA19C9834724002547E5172F
:1062B00093F7F70F6377F702E14729A883C6040035
:1062C000D04037D5020089451305451AEF807FD7A6
:1062D00061FD8947B2402244924402493E85410112
:1062E000828037290020835689878547130989874B
:1062F000F5D2035704003697C166E3CDE6FC9165FD
:1063000093852570314597A0FE1FE780A0D3AA840E
:10631000CD4769D13146814597A0FE1FE78020F621
:10632000835704008355090001460147B386E50001
:10633000C206C182636BF702AE97C207C18319C25E
:106340002310F90023A004002146A28513854400F0
:1063500097A0FE1FE78000ECB72700209387478FA8
:10636000984311EF84C38147B5B7504013154700D8
:1063700005072A962315D60005464DBF3E871C43C8
:10638000F5FF04C381BF011106CE22CC26CA4AC83C
:1063900009E98944F240624426854249D2440561B4
:1063A00082802AC62A84280036892314B100230556
:1063B000C100EFF07FECAA8471FDE30D09FC835767
:1063C000A400E1DB916593855570314597A0FE1FD0
:1063D000E78040C715C58357A40023200500232468
:1063E00025012312F500B7270020938707909843D3
:1063F00001E788C345B73E871C43F5FF08C359BF73
:10640000CD4449BFB72700209387878E03C7070075
:1064100015E305472380E700058909CDB72600204D
:10642000372500209386C684414691451305C580D3
:106430006FF07FF501458280B7270020A386A786ED
:106440008280C167FD176315F5002E856FE04F90C0
:10645000411106C6EFE0CF8911C5FD572310F500A5
:1064600023010500B2404101828001114AC806CED5
:1064700022CC26CA85472A896393F5044A85EFE032
:106480004FBD39E9C16437D602009385F4FF130785
:10649000E1008946130686180545EFE07FD82A8477
:1064A000FD140DC44C444A85EFF0BFF90356E100DA
:1064B00022858146A685EFF02FA12A84DDB7894782
:1064C0006396F5008545EF20A03B4DD9F24062442C
:1064D000D244424905618280EFE0AFB265B7011155
:1064E00026CAB7240020938404BD22CC03C594009F
:1064F000372400201304848FB7270020372700207B
:1065000006CE4AC84EC62320040023AE078E23269B
:10651000078E49C91389C78F9307200C3305F502ED
:106520009165938515709309C78E190542054181C0
:1065300097A0FE1FE78000B103C694009307200CCC
:1065400081453306F60208C0190697A0FE1FE780B2
:1065500000D31C4003C7940081459386870B7D556B
:1065600063ECE5069306800BB306D7020146FD55A2
:106570000507B6972320F900BE862390B600A381B5
:10658000B6002381B6002382060005069906E3665D
:10659000E6FEF9562390D70099463307D702BA97FB
:1065A00023A0F90037550100130545BBEFC0BFD14B
:1065B00037550100130545D8EF80BFAF37550100AF
:1065C0001305C5B1EF20E022F2406244D2444249B3
:1065D000B2490145056182802394A6F41386C6F46E
:1065E00023100600232406003106E31BD6FE850592
:1065F0009386860BB5B7411106C622C42A84EFC024
:106600000FB9EFD03FF7B727002023868786B7273B
:10661000002003A5C78EEFD0BFF3B7270020238D3E
:1066200087862244B240376501001305A546410123
:106630006F20201C93970501C18763D30734B727C8
:10664000002003C5C786797122D45AC806D626D23F
:106650004AD04ECE52CC56CA2E8BEF70EFD42A843D
:1066600029C9034705009307000B6311F704B724FA
:10667000002085479384048FA304F1009C402315D8
:106680000100A9E7EF00007F91659385357097A021
:10669000FE1FE780209B88C015E98347910099C7BA
:1066A0008345440013058400EFD0CFA42285EF700A
:1066B0004FC4B250225421653345AB009254025965
:1066C000F249624AD24A424B45618280372A002011
:1066D0006146814513050A9897A0FE1FE78020BAFE
:1066E00003494400894793040A98D289930A0A9877
:1066F0006314F906EF0000782390A40003552400EA
:1067000093050A98EF904FA00357240083D7040005
:106710008356840011ED63E4F6002314F4008355DE
:1067200084003A85EFC0DFBA2285EFC03F8DB5B750
:1067300063E4F6002314F40083578400D94593865C
:1067400009980D463A852390FA00EFC03FA38D4586
:1067500061DD13850998D1A09947631AF902930561
:10676000A1002285EFF02FC7AA845DDDD94763968B
:10677000F40E0509035524001379F90FD9459386C2
:1067800009984A86EFC09F9FCA8559DDD9B7A147AE
:106790006318F9009305A1002285EFF03F93E9B754
:1067A000A947631FF906035584006C00EFE00FE072
:1067B0002A89630D05140355240041669306E10000
:1067C00055477D16AD45EFC05FB6C8C0AA8649C122
:1067D000834844000358E1000356C10003552400D8
:1067E000814713070A98CA85EFE03FFAAA84631E1F
:1067F000050E0355240093050A98EF90AFB10DD50F
:106800000355240093060A982D46D945EFC01F97DB
:10681000E30C05F0AD4513050A98EFD0AF8D29B70D
:10682000B147631BF90E035584006C00EFE00FD8ED
:10683000AA8469CD0355240041669306E1005947B7
:106840007D16B545EFC07FAE23A2AA00AA8629E92E
:1068500083578400C5442315F10003471400D14732
:10686000E304F7EC8347440003552400938509981B
:106870002380FA008357A10023829A002391FA0013
:10688000EF805FA8E30205EA035524009386099888
:106890000546D945EFC09F8EE30805E8854555BDFF
:1068A000834844000358E1008357A4000356C10005
:1068B00003552400A68513070A98EFE01FEDAA846C
:1068C0000DE50355240093050A98EF906FAAE30D98
:1068D00005E403552400D94593060A983546EFC0D0
:1068E000FF89B545E30205E4ADB5D9476393F400EC
:1068F000814403A54A0097A0FE1FE780A082E3859C
:1069000004E2835784002315F10081BF835784007C
:1069100085442315F10091B7B9476318F900930531
:10692000A1002285EFF00F9581B5C1476318F900EA
:106930009305A1002285EFF0CFD83DB5C947631A72
:10694000F900130691009305A1002285EFE00FF8EE
:1069500021BDD947631DF9009305A1002285EFE011
:106960000FE6AA84E31405E0A304010075BBE14728
:10697000E31CF9DA9305A1002285EFE06FD2EDB3B5
:1069800001458280EDC2011152C42E8A854522CC78
:106990004EC656C206CE26CA4AC8AA8AB6893284CC
:1069A000EF10106ED1471DC5B727002037270020F4
:1069B00083C7C7908346D790814419E0B684BE86CA
:1069C000372700200327479093974400BA9763ED39
:1069D000D400D547F2406244D2444249B249224AE7
:1069E000924A3E85056182803E89C10703D727FF11
:1069F00009C7850493F4F40FD9BF25C09565938525
:106A000025C0130500029790FE1FE780A063232690
:106A1000A90061D11306000281459384040497A064
:106A2000FE1FE780C085231199002300090023136E
:106A300059011DC43727002083479400032647B31C
:106A40002304F900118C8327C90011841180238E3F
:106A5000870023A029018147B5BF23260900F1B78C
:106A600023044901FDB785473E858280B727002072
:106A700083C5C790B727002003A747908147639538
:106A8000F50081463685828003562700BA8619C2F2
:106A9000E30AA6FE850793F7F70F4107CDB7B7279F
:106AA000002003C6C790B727002003A7479081475F
:106AB0006315F60081463685828083552700BA86A5
:106AC00089C583454700E388A5FE850793F7F70F3F
:106AD0004107F9BFB727002083C5F790B7270020EB
:106AE00003A747B381476395F500814636858280C9
:106AF00003560700BA8619C2E30AA6FE850793F774
:106B0000F70F4107CDB7B727002003C8D790B727A5
:106B1000002083A7479001476315E800814636852A
:106B2000828003D62700BE8619CA03D66700631881
:106B3000A600D04709C603562600E302B6FE0507A5
:106B40001377F70FC107C9BF411122C4404526C2C0
:106B500006C6AA8415C0484409C59790FE1FE78061
:106B6000605C484809C59790FE1FE780A05B2285BE
:106B70009790FE1FE780005B2685414681459790F0
:106B8000FE1FE780C06FB2402244FD57A384F4008B
:106B9000924441018280011122CC2A8403552500B0
:106BA00006CE2EC6EF103018324622858145EF0002
:106BB000F07122856244F24005616FF0FFF80DC567
:106BC00003572500411122C406C62A8411CBDD4596
:106BD000EF00B07322852244B24041016FF0DFF62E
:106BE000B2402244410182808280411126C2B146D6
:106BF0009304C5FFB386D402B7270020138747B498
:106C000006C622C436978356A7006398B602484347
:106C10000DC5138447B49307F00F6306F60083474E
:106C20000500639CC7009790FE1FE780A04FB14707
:106C3000B387F402A29723A20700B24022449244F1
:106C400041018280411122C42E8426C24946AA8471
:106C50008145228506C69790FE1FE7804062A5C049
:106C600083C7C40113974700B727002083A747B302
:106C7000BA9703D707002310E40003D7270083D770
:106C800067002311E400372700200357A790231241
:106C9000E40003D704002313E40003D724002314E3
:106CA000E40003D744002315E40003D7640023164F
:106CB000E40003D784002318F4002317E400B24053
:106CC0002244924441018280B727002083C5C790A7
:106CD000B727002003A847B3B727002003A6479093
:106CE000014781476394E5003E8582808346060024
:106CF00081CE544691CA83C6C6019206C2966315D8
:106D0000D500850793F7F70F05071377F70F4106AF
:106D1000D1BF130600643386C50293069500AA8589
:106D2000377501001305E5BB6F70AFBD411122C47B
:106D300006C62A8403459500EF70EFD5FD57A304DE
:106D4000F400B240224441018280011122CC4AC8A1
:106D50004EC652C456C25AC006CE26CA2A89AE8929
:106D60000144372A0020B72A00201D4B8347DA90C0
:106D70006365F40463990902B7290020372A0020CB
:106D8000930AF00F83C7C9906367F4061144A144C6
:106D90002285050442041306F00FCA854180EFF0F6
:106DA000DFE4E31794FEF2406244D2444249B24920
:106DB000224A924A024B0561828083A74A9093142B
:106DC0004400BE9483C704009DC383D764006390CE
:106DD00027036396690103D52400EF10C07426854C
:106DE0004E868145EF00904E2685EFF0FFD50504D5
:106DF0001374F40FA5BF83274A9093144400BE94E4
:106E000083C704009DC383C794006380570383D75F
:106E10006400639C27012685EFF05FF12685D1454C
:106E2000EF00B04E2685EFF03FD205041374F40F47
:106E300091BF41677917630BE502411122C406C671
:106E400085472A846399F50022852244B240814512
:106E500041016FF09FEF89476396F5008545EF107C
:106E600030227DD1B24022444101828082809D4502
:106E70006FF0BFEDB727002003D5A7908280B7271A
:106E8000002003C78790011106CE2317A100231607
:106E9000B10085476318F70070009305E1000545D0
:106EA000EF507022F24005618280A947631CF6040E
:106EB00083C7150003C70500A207D98F2310F5006B
:106EC00083C7350003C72500A207D98F2311F5001A
:106ED00083C7550003C74500A207D98F2312F500C9
:106EE00083C7750003C76500A207D98F2313F50078
:106EF00083C7950003C78500A207D98F2314F50027
:106F0000014582800545828091476314F60283C75C
:106F1000150003C70500A207D98F2310F50083C70A
:106F2000350003C72500A207D98F2311F5000145BD
:106F30008280054582809387C5FF93960701C182B1
:106F40000D476360D7023147B387E7023727002038
:106F5000130747B4BA972381A7002390B7000145D0
:106F60008280094582809306402037270020AA8727
:106F700063F4A60093074020F1172315F790B72775
:106F800000202387B790B72700202388B7908280FE
:106F90001905956542054111938535C0418106C6A5
:106FA0009790FE1FE780000A11C5B240E9554101E4
:106FB0006F60FFACB24041018280B7270020238779
:106FC0000790B72700207971054723840790B727DA
:106FD00000202380E7B44ECEB7270020B729002039
:106FE00022D426D24AD037240020B7240020A388F8
:106FF000079037290020B72700209389F99006D6FB
:1070000052CC2AC623060490A386049023950790A9
:107010002322099023800900EF1080583245B727BA
:10702000002013060003238CA7B237250020130588
:1070300045B481459790FE1FE7806024372A0020E1
:1070400003454AB71304C4909384D490130949901C
:1070500015CD9565938545C012059790FE1FE78075
:1070600060FE37270020232AA7B20DC103464AB786
:1070700093074AB783C717002380C90081451206CA
:107080002380F4009790FE1FE780601FB727002041
:1070900003C587BD83C704009565938555C03E959C
:1070A0001375F50F2300A40012059790FE1FE780CB
:1070B00060F92320A9003DCD034604008145120656
:1070C0009790FE1FE780A01B03270900834604005A
:1070D000814725077D566398F604EF10E070B147AD
:1070E0003305F5029565938565C04205418197900A
:1070F000FE1FE78020F537270020232EA7B219C5F1
:10710000314681459790FE1FE78060172254B250A8
:1071100092540259F249624A37750100130525E37A
:1071200045616F10006D85072300C70093F7F70FC7
:10713000410755B7230004002380040079BF4111A3
:107140009397050126C206C622C44AC0C187AE84F1
:1071500063D1070A37290020034589B3EF60DFA414
:107160002A8429CD03470500930700096315F70416
:1071700003471500CD47631CF706B72600200348D8
:10718000250003C576A4372700208347E790130620
:107190006400814581461307E790AA886318D802E6
:1071A00099C12300F7008347070091C7034589B3BE
:1071B0008545EF609FCB2285EF60BF932165258DCC
:1071C000B240224492440249410182808345060034
:1071D000AE9793F5F70F93F7F80F63F4A50093F7C5
:1071E000F50F850693F6F60F0906854545BF012D77
:1071F000D9B793F715000145E1D7EF00107009CD1D
:10720000B727002083C7E79081CBB727002003C5AD
:1072100087B38545EF607FC513C5140055B7854614
:107220002A8763FBC60483C7150003C60500A207AF
:10723000D18F2310F500639CD70083C7350083C628
:107240002500A207D58F2311F500014582808946CC
:1072500001456394D70283C7350083C62500A20782
:10726000D58F2311F70083C7550083C64500A207B9
:10727000D58F2312F70082800545828091476314E1
:10728000F60283C7150003C70500A207D98F231094
:10729000F50083C7350003C72500A207D98F231146
:1072A000F500014582800545828091476314F6020E
:1072B00083C7150003C70500A207D98F2310F50067
:1072C00083C7350003C72500A207D98F2311F50016
:1072D0000145828005458280A1476314F60483C777
:1072E000150003C70500A207D98F2310F50083C737
:1072F000350003C72500A207D98F2311F50083C7E6
:10730000550003C74500A207D98F2312F50083C794
:10731000750003C76500A207D98F2313F500014547
:107320008280054582808947631CF60083C715006B
:1073300003C70500A207D98F2310F50001458280FD
:10734000054582808357260079714ECE06D622D419
:1073500026D24AD01307F007AE896372F7020947B5
:107360003AC42316F100300093F5F50FEF10801AA0
:10737000B250225492540259F24945618280035717
:107380004600D9462A89328463F8E60083576600AE
:1073900063F4F6006379F70023140100300093F5DD
:1073A000F90F4A85E1B70355060002C4EFF08FF2EA
:1073B000AA8459C1EFF05F9183C784006369F50027
:1073C0001146A246CE854A85EF10400A55B73400D3
:1073D00026869305F00F4A85EFF0CFDA75F1A247C4
:1073E00003578400DC472390E700035724002391D0
:1073F000E700035744002392E700035764002393F8
:10740000E70003D744002394E700DC4485CB93F4E2
:10741000F90F2286A6854A858297C167FD172A86BD
:10742000E311F5FA22459947F9452300F5002302B7
:107430009500EFF01F8E2DBF094661B7014651B789
:10744000A947631CF60483C7150003C70500A207FC
:10745000D98F2310F50083C7350003C72500A20785
:10746000D98F2311F50083C7550003C74500A20734
:10747000D98F2312F50083C7750003C76500A207E3
:10748000D98F2313F50083C7950003C78500A20792
:10749000D98F2314F500014582800545828083C77A
:1074A00005002300F50083C71500A300F50083C77E
:1074B000350003C72500A207D98F2311F50082806C
:1074C0002322050003C7450089476304F7000545EB
:1074D000828083D665000D47E37BD7FE9C45011172
:1074E00006CE22CC26CA4AC84EC683C4170003C69D
:1074F0000700A204D18C138644006311D60403C490
:10750000370083C72700AE8922045D8C9307C4FF30
:10751000C207C1832A89636FF70003A5890023117D
:10752000990023108900F155EF606FD52322A9003F
:10753000014531A02285EFF06FD365F10545F2409A
:107540006244D2444249B24905618280397122DCE9
:107550002E84834704004AD806DE26DA4ED6194721
:107560002A89B285639AE706034624002800EFF0D3
:10757000FFD0AA8415E903558100EFF02FCFAA8927
:107580008345140015C9378701002E861307474429
:1075900034009D454A85EF00D0424E85094681451D
:1075A00035234E85EFF04FDAF2506254268542596A
:1075B000D254B2592161828089472310F100835748
:1075C00081000A862311F1008357A1002312F100E4
:1075D0004A85EF003074C9BF4947639DE7020356EF
:1075E00024002800EFF05FCFAA845DFD372500203E
:1075F000130545B48357C50099E3814475B7034724
:107600001400834604000345E5003C000146CA859A
:10761000912659BF51476390E70203562400280082
:10762000EFF0BF88AA8449F18345140030004A85F1
:10763000EFF05FD195BF59476393E70603562400E7
:107640002800EFF07F8CAA8425F1835581004A85BC
:10765000EFF06FCB1DC958458356A1008357070033
:10766000B697C207C1832310F700C1DB5C47D1D7AF
:10767000B727002083C7E790C9D3B727002003C5E9
:1076800087B38545EF606FFE05B789473EC08357D6
:1076900081000A86834514002312F10015BF83453B
:1076A00014000A8623100100EF00D066B9B75D719F
:1076B000A6C256DA86C6A2C4CAC04EDE52DCAA8A68
:1076C00003C51500AE8432C6EFF06FBDB24501EDC3
:1076D0008144B6402644268506499644F259625AAA
:1076E000D25A61618280230205002311050083C9FB
:1076F000040085472A84639AF90003C624002808F9
:10770000EFF0FFB1AA8405492DA09D476394F904C9
:10771000034705008D47E31DF7FA03C62400280838
:107720000549EFF09FB8AA8409E505468145228501
:10773000712E2285EFF08FDF034584003C0801475E
:10774000CE862686D6853924E30509F82285EFF012
:10775000AFBF41B7CD47639DF9000347050091478F
:10776000E318F7F603C624002808EFF0DFBB59BF83
:10777000D547E39FF9F4034A05008947E31AFAF471
:1077800003C6240028080549EFF09FCBAA8455F1D1
:1077900083570102BDE3035781011306F0035C44E4
:1077A000930607FCC206C182636CD6000356A10192
:1077B000D94663F7C6008356C101D94563EFD500AA
:1077C000035524002391E7000549EF00D0550356E7
:1077D0000102D2852285692CA9BF8355E10123913D
:1077E000E7002392C7002390B7002393D700854773
:1077F0002300F400014A0149D9BF014AC9BF797188
:10780000AA8522D426D203542500AA84280806D6A5
:10781000EFF01FCBF24599E535E985452285EFF07C
:107820000FE6C1A0835781011547639BE706035705
:10783000A1018D4763FCE7046800EFF05FC60357C2
:10784000E100DD4763FCE7008345D100B70717007F
:107850008507100822853EC8EF00D04B8357E10012
:107860000357A10191076305F7002285EFF02FE090
:107870008347C10072466C00858B1106228591CF2B
:10788000EFF0FFE201C52285EFF06FDE884451D5AD
:107890009790FE1FE780008949B7EFF03FCBDDB737
:1078A00011476389E7001387A7FF42074183854695
:1078B00063EEE6023147F117B387E702372700206E
:1078C000130747B4BA9703D7070069D303C5270046
:1078D0003008A2850D205DF9035781019147E31E11
:1078E000F7F2B25022549254456182802C082285CE
:1078F000812E49FDFDB701114AC82A89314526CAA2
:1079000006CE22CC2EC6B284EF608FA331C1B24521
:107910009307000A2310F5002311B5002A8421469D
:1079200011058DC0A6859790FE1FE780A08EA285C9
:107930004A85EF60CFAE0145F2406244D2444249ED
:107940000561828081459790FE1FE7804093C5B70F
:107950000545DDB7797126D2AA841305000206D643
:1079600022D42ECE32CC36CA3AC83EC6EF604F9DE6
:1079700031C96246F2454247D246B2472A841305CE
:1079800020FA2300A400A300C4002311B4002302A2
:10799000E400A302D40013058400614691CFBE85A4
:1079A0009790FE1FE7800087A2852254B25026855B
:1079B000925445616F60AFA681459790FE1FE780A6
:1079C000008CDDB7B25022549254456182805845F4
:1079D000797122D406D62A84AE8649C383572700FC
:1079E000231DF10093072006639FF504B7270020AD
:1079F00003D6A790835767006373F600B28713F628
:107A0000F70F83552701834707018D8F93F7F70FF2
:107A100081E5890793F7F70FB297FD17B3C7C70240
:107A2000231EF1008357240083556400034584001E
:107A3000231CF10001473C080146EFF0BFF1B250B2
:107A40002254456182800347C701B727002083A7DE
:107A500047B31207BA9783D76700D9B72EC619461E
:107A6000814528089790FE1FE7806081B2465DBF80
:107A7000797122D406D626D22A848DC18147014746
:107A8000930600062E868355640003458400EFF0BC
:107A90007FECB2502254925445618280B284280017
:107AA00059469780FE1FE780807D2314910089E866
:107AB0008357240048446C002315F100EFF08F98A1
:107AC0003C00014793060006014675BF797106D652
:107AD000814799ED8357250058452316C10023148B
:107AE000F1003C0011C7835727002315F1003C002B
:107AF0002E868355650003458500014793060006E1
:107B0000EFF05FE5B25045618280411122C406C6A4
:107B10008347050011472A846395E7022E86835523
:107B200065000345850081470147CD46EFF09FE2A0
:107B30004946835564002244B240154541016FF027
:107B4000CF8A13F7B70F89466317D7000146EFF0C6
:107B50003FF25146F9BF0D476398E7002244B24017
:107B6000014641016FF09FF6B240224441018280FC
:107B700003D70500B146B727002071173307D70296
:107B8000938747B4BA97D84319EBD8412395A700F8
:107B90000145D8C303D725002394E70082805945C7
:107BA0008280797122D4404526D24AD006D6AA8452
:107BB0002E8925C0484419C59780FE1FE78080564E
:107BC000232604008357040083D5640003C5840082
:107BD0002315F1008357240001479306400623161E
:107BE000F100835784004A862317F1001C483EC8E1
:107BF00083D724002314F1003C00EFF0BFD5A30E7F
:107C0000240123280400B2502254925402594561A1
:107C100082802800314681459780FE1FE7802066DC
:107C200083D7240083D5640003C584002314F100A6
:107C300001473C00930640064A86EFF0BFD1E1B70A
:107C4000797152CC2A8A03D5050026D206D622D4D1
:107C50004AD04ECE56CAAE84EFE05FE119E18547C7
:107C6000BDA84045AA8965DC83576500E39947FFB5
:107C700083578400638707128346C401B72A002014
:107C800003A74AB39206FD173697C207035767004A
:107C9000C1832314F4006316F70093053006EFF058
:107CA0001FD35C48A5EFC840034915008347050072
:107CB00022093369F90083D7240013072900631AC6
:107CC000F702F955EF50BFDBC8C02391240103C56B
:107CD00089002686D285EFF01FC2814721E1B2508C
:107CE000225492540259F249624AD24A3E85456171
:107CF00082809565938515C04A859780FE1FE78031
:107D0000603448C8C840231C2401F955EF503FD7C0
:107D100083D72400C8C0F9172391F400484859C5F7
:107D200003D624008356A401835784013308D60068
:107D300063C007090347C40183A74AB395451207E7
:107D4000BA9783D7270063CF0705CC403695978035
:107D5000FE1FE780204C0357A40183D72400BA9765
:107D6000C20703578401C183231DF400E399E7EEA2
:107D700003D7290003C5890030002314E1005848C7
:107D8000D2852315F1003AC6EFF0FFB611C5484879
:107D90009780FE1FE7800039232A0400232C04006B
:107DA0007DBD99454E85EFE01FDF55BDA545DDBF83
:107DB0009145CDBF03D725007DC3B727002083D6CB
:107DC000A790ED4763EEE60C011122CC2E8426CA63
:107DD000AA844840914506CEEF507FCA83572400BD
:107DE000AA862300F50083572400A183A300F50091
:107DF000835704002301F50083570400A183A301E6
:107E0000F50003562400C167F917110642064182A6
:107E10006396F4042AC4314532C6EF507FD2AA8556
:107E2000CD471DC5930700F92300F5003246F957E9
:107E3000A2462311F50089472302F500B727002049
:107E40002313C50014C503C587B3EF505FDD814719
:107E5000F2406244D2443E85056182808145268598
:107E6000EF409032AA8711E9B726002003C7E690B9
:107E700065D37D172387E690E1BF09476304E502D8
:107E80001D476303E50249476302E5027D47E311AD
:107E9000E5FCB726002003C7E6908147D1BFED4738
:107EA0003E858280D1476DB791475DB789474DB711
:107EB00001114AC831471309C5FF3307E902B72743
:107EC000002026CA938447B406CE22CCBA94D84068
:107ED00029CB138447B4B727002083C6E790854792
:107EE00095CA2314A10083D7840003D5A4002C00D5
:107EF0003AC62315F100EFF0FFEB11C5C84097809B
:107F0000FE1FE7802022B147B307F902A29723A200
:107F100007008547F2406244D24442493E850561EC
:107F200082808147C5BF797126D24445372700201A
:107F30004AD083D764000359A79052CC06D622D4E6
:107F40004ECE56CA2A8A63F327013E8903D72401FD
:107F500042091359090183D7040141CB998F4A84FF
:107F600063D5270113940701418089452285EFF0ED
:107F70002F82AA89CD4A25C183D724002AC623157A
:107F800081002314F10083D7240185E383D7040102
:107F9000930925002300F50083D70401A183A300E2
:107FA000F5006376240503D4040183D72401CC446F
:107FB00022864E85BE959780FE1FE780A02503553B
:107FC0006A002C00EFF01FDFAA8A15C54E85978046
:107FD000FE1FE7802015B250225456859254025954
:107FE000F249624AD24A4561828089078DBF79147D
:107FF000420441805DBF03D7240183D704003A9433
:10800000FD17C207420403D70401C18341802390B6
:10801000F400239984006377E400D5FFFD57A38E15
:10802000F40055BF81455285EFF0BFB76DB7797148
:108030004AD03729002052CC034A199122D456CA7B
:108040005AC85EC662C406D626D24ECE5284B72A1D
:108050000020054B930BF00F372C002083A74A908C
:1080600093144400BE9483C90400639D6907DC44F3
:10807000B5CBD84725CB03D7070029CBB72700209E
:1080800083C7E79099CF2685EFF0FFE9AA8515E928
:10809000B727002083C7D79005046351F402A308D3
:1080A0008990B25022544E8592540259F249624A44
:1080B000D24A424BB24B224C45618280A3080990C0
:1080C000CDB72685EFF0FFAD8149E1BF83C7D7016A
:1080D000639A7701930520062685EFF05F8FDC44D5
:1080E000A38E07008347DC9005041374F40F6363C9
:1080F000F4000144E31444F7C1BF4111154506C61D
:10810000EFF01FDB09C50545B240410182801945EA
:10811000EFF01FDA6DF91145EFF09FD96DF51D45B0
:10812000EFF01FD96DF1B727002083C7D790E9DFA3
:10813000B24041016FF0BFEF83D705000D47F11743
:10814000C207C1836365F706DC41B5C3411122C490
:108150002E84854526C206C6AA841D2739C92685D0
:10816000352DC167F9176381F40219ED8357240097
:1081700081CF8356040019476393E6043727002014
:108180000357A79063FDE702B727002083C7E79056
:10819000A285268599C72244B240924441016FF0DE
:1081A0007FC12244B240924441016FF07F9C094557
:1081B00082805145B24022449244410182806D4503
:1081C000D5BF397126DA4ED6AA84AE895D45894578
:1081D0004AD806DE22DC328936C63AC4EFE05FDBDD
:1081E00035C522472A84014511C7B246130544000C
:1081F000B68502979357850023003401A30024011C
:10820000A301F4009547231CF100B727002083C782
:10821000E7902301A4001105231DA10022CE2C0804
:10822000268595C3EFF01FB9AA8411C522859780D2
:10823000FE1FE78020EFF250625426854259D25447
:10824000B25921618280EFF0BF92F9BFCD44E5B70A
:10825000797126D24AD052CC56CA06D6BA8A22D4CE
:108260004ECE19472E89B284368A639DE5060355A2
:1082700026000944EFE08FFF2AC62DCD5C458359C7
:10828000650083D727002390F400B247B72600206B
:1082900015472380570103C606B42391E70013074F
:1082A00016001377F70F2380E6B42382C70001E797
:1082B00005472380E6B45147631AE9001547239127
:1082C000E400DC4703D784002394E7005287A686A6
:1082D000CA854E85EFF0FFEE2A84324515C4EFE0E3
:1082E000BF8609A842867400BE85AA89EFE08FE99F
:1082F0002A8441DD2285B250225492540259F24917
:10830000624AD24A45618280F945EFE09FA0DDB71D
:1083100083D705002300F50083D70500A183A300C0
:10832000F50083D725002301F50083D72500A1831D
:10833000A301F5001145828083D705002300F500D5
:1083400083D70500A183A300F50083D7250023016F
:10835000F50083D72500A183A301F50083D745004D
:108360002302F50083D74500A183A302F50083D73C
:1083700065002303F50083D76500A183A303F500FF
:108380002145828083D705002300F50083D70500AF
:10839000A183A300F50083D725002301F50083D72F
:1083A0002500A183A301F50083D745002302F50032
:1083B00083D74500A183A302F50083D7650023037B
:1083C000F50083D76500A183A303F50083D785005B
:1083D0002304F50083D78500A183A304F500294574
:1083E000828003D705008546AA872300E50003D7CE
:1083F00005002183A300E50003D70500631DD70016
:1084000003D725002301E50003D725002183A3011D
:10841000E5001145828009456315A70203D72500B1
:1084200019452381E70003D725002183A381E700B5
:1084300003D745002382E70003D745002183A382A9
:10844000E700828083D705002300F50083D705006D
:10845000A183A300F50083D725002301F50083D76E
:108460002500A183A301F50011458280797126D2F0
:108470004AD04ECEB2842A89AE8929468145480029
:1084800022D406D636849780FE1FE78040DF23166D
:1084900091008DEC835724002312F100B7270020B0
:1084A00083D7A7902314F1005C448DC383C6C70112
:1084B00037270020032747B3920683D787003697D4
:1084C000035727002315F1002313E100378701002C
:1084D0004A8513074738540013F6F90FD545EFF0D6
:1084E0005FCE2A8911C19DE085472300F400230255
:1084F0000400014681452285EFF08FD7B250225407
:108500004A8592540259F249456182802285EFE002
:10851000AFE3EDB737870100B2861307273E2E86FB
:1085200085456FF01FCA01112317A100B78601000E
:108530004165700001489307F00F0D47938606319F
:1085400099457D1506CEEFF0BFD0F24005618280DF
:10855000B7860100B28701482E861147938686337D
:10856000C9456FF0FFCE011122CC3724002013043F
:10857000C4B726CA4AC84EC606CE2A89AE89930415
:1085800004031C4081C7CE854A8582971104E31AF3
:1085900094FEF2406244D2444249B249056182806D
:1085A000B727002003C5D7A4411122C437240020D7
:1085B00093773500130404BD0981A304F400AA973E
:1085C00006C626C22304F400A5CF1305C0033385D5
:1085D000A702A5658505B72400209780FE1FE780C8
:1085E00060A6034684009307C00381453306F60264
:1085F00023ACA4B69780FE1FE78060C883A784B72A
:1086000083468400014789077D566341D70222448F
:10861000B24092443725002013060003814513051C
:10862000C5B741011783FE1F670063C52390C700CC
:108630002381070023A5070205079387C703F1B726
:10864000B2402244924441018280B727002003C6F1
:1086500087BDB727002003A787B781476315F600BA
:10866000814636858280BA861307C703835567FC27
:10867000E389A5FE850793F7F70FCDB7011122CC4B
:108680002EC632C406CE2A84EFF03FFC2246B24505
:1086900011E9C167F9176303F4005145F2406244E0
:1086A0000561828054558347450095C213F7270121
:1086B00041456314A700154575F2C18B3D45F9DFAF
:1086C00083C7A6010145E3FBB7FC3145C1BFC18BA0
:1086D0000145E9F71545D9B7797126D24AD0B724B3
:1086E0000020416922D44ECE52CC56CA5AC806D672
:1086F000AA890144938404BD372A0020930AC00349
:108700007D19054B83C784006364F400014535A8D7
:10871000B307540303278AB7BA9703D72700631612
:10872000270105041374F40FF1BF03C5570030008F
:1087300093856700EF2061281946CE852800978031
:10874000FE1FE78020BEE31E65FDB2502254925406
:108750000259F249624AD24A424B45618280B727A8
:10876000002083C587BDC166B727002003A787B750
:10877000FD1681476395F5000146328582800358D6
:1087800027003A866306D80003480700E307A8FEDF
:10879000850793F7F70F1307C703E9BF411106C613
:1087A000EFF0BFEA11C503554501B2404101828097
:1087B0000145E5BFB727002083C687BDB727002046
:1087C00003A787B70145814711076393F6008280AD
:1087D0000346070001C605051375F50F850793F7D6
:1087E000F70F1307C703D5B7B727002003C587BD09
:1087F0008280372700209306C7B781471307C7B782
:1088000031468C4291E58A07BA9788C30145828038
:1088100085079106E397C7FE4D458280411106C644
:1088200022C4EFF09FE21DCD2A8403552500854523
:10883000EFF07FD3485409C59780FE1FE780808EF4
:1088400022851306C00381459780FE1FE78020A381
:10885000FD572311F400230204000145B2402244D5
:10886000410182800945DDBF411106C6EFF0FFDD01
:1088700011C50345C500B240410182800145E5BFF5
:10888000C167F9176304F502411122C406C62E849C
:10889000EFF0BFDBAA87014591C703C54700698C8C
:1088A00033358000B24022444101828005458280F8
:1088B000011106CE2EC6EFF05FD9854711C90357C7
:1088C0004501B24585476305B700231AB5008147C6
:1088D000F2403E850561828031CD01114AC84EC605
:1088E00037290020C16922CC26CA52C456C206CEFE
:1088F0000144AA84130909BD372A0020930AC00342
:10890000FD1983478900634BF400F2406244D2446E
:108910004249B249224A924A056182803305540392
:1089200083278AB73E958357250063833701829456
:108930000504C1BF8280B727002003C687BDB727C3
:10894000002083A787B7C166014589070147FD1647
:1089500091456313E600828003D807006309D800BD
:1089600003C8A7006315B80005051375F50F0507C3
:108970001377F70F9387C703E9BFB727002003C614
:1089800087BDB727002083A687B701478147910697
:108990006310E602858393C7F7FFC207C1830545CD
:1089A0006364E50285473395A700420541818280D3
:1089B00083C5060081C583D5C602CD8F0507137711
:1089C000F70F9386C603E9B793F61700E1FE050596
:1089D00085831375F50FE9B7797156CAAA8A2E8572
:1089E00026D24AD04ECE52CC5AC85EC662C406D6F3
:1089F00022D4AE84328B368CBA8B3E8AC2894689A9
:108A0000EFF0BFC449E141657D15EFF01FC42A8432
:108A1000554531CC1946DE8513056400A302840157
:108A20009770FE1FE780007F835701032311940096
:108A3000230264012319F4008357410323005401E6
:108A400023260402231AF4002306440123173401C9
:108A500023182401EFF07FF22318A402232A040232
:108A60002685232C04028145EFF0FFAF0145B2506B
:108A7000225492540259F249624AD24A424BB24BB2
:108A8000224C456182804545DDB7B727002083C66B
:108A900087BDB727002003A787B781476395F600F6
:108AA00041657D1582803A861307C703835547FFCA
:108AB0006395A500035526008280850793F7F70F7D
:108AC000F1BFB727002003C887BDB727002083A6C2
:108AD00087B7416601477D16954811436314E80046
:108AE0000145828083D7260036856380C704CC5A2F
:108AF0008DCD83C7350083C5250089CD938597FD2E
:108B000093F5F50FE37FB3FC9387D7FA93F7D70F6D
:108B100089EF82809385F7FD93F5F50FE3F3B8FCB9
:108B20009387D7FA93F7D70FCDDF05071377F70FA2
:108B30009386C60365B7B727002083C587BD416606
:108B4000B727002003A787B77D1681472548639480
:108B5000F50001458280835627003A85638CC60064
:108B6000545B89CA83C636009386E6FD93F6F60FFA
:108B7000E372D8FE850793F7F70F1307C703C1BF4A
:108B8000011122CC2A84494506CEEF70FFF715C1AA
:108B90002AC62285EFF07FAB09CD6244B7270020BB
:108BA000324683550503F24003C537BD05616F505A
:108BB0004FC1F24062440561828039714ED652D471
:108BC000AE892A8A93053005414526DA4AD856D21D
:108BD00006DE22DC32C63689BA8A9770FE1FE7802D
:108BE0006046CD4431C92A848944638209043246EF
:108BF0008145231AC10041469770FE1FE780206817
:108C00005686CE8522859770FE1FE780A06021469C
:108C1000630E0902CA8528089770FE1FE780805FEF
:108C2000A28650082C085285EF30704DAA84228508
:108C30009770FE1FE780004FF2506254268542591C
:108C4000D254B259225A925A216182808145280811
:108C50009770FE1FE780A062E1B7411122C440591E
:108C600026C206C6AA8429CC085409C59770FE1FDF
:108C7000E780404B285809C59770FE1FE780804A5F
:108C8000685809C59770FE1FE780C049285C09C570
:108C90009770FE1FE7800049685C09C59770FE1F4A
:108CA000E78040480325040809C59770FE1FE78048
:108CB000604722859770FE1FE780C04623AA040202
:108CC0002244B727002083D50403B240924403C551
:108CD00037BD41016F50CFD5411126C206C622C40F
:108CE000AE84EFF09F9621C54C592A84A9C183A870
:108CF000C50703A88507FC59B85983C6650003D684
:108D0000050083C525002685EF703FE82285EFF03A
:108D1000DFF4EFF05FE201CD2244B7270020B2403C
:108D2000924403C537BD854541016F500F94B24051
:108D30002244924441018280011122CC06CE2A8431
:108D40002EC6EFF09F905C5991CF83D70700B245B4
:108D5000639A870085476397F5006244F240056196
:108D60006FF0BFEFF240624405618280411106C698
:108D700022C426C2EFF0FFD421C54059AA8429C0DD
:108D8000834724008DCBB727002083A707BB89C763
:108D9000DC4399C322858297034734009307F0028E
:108DA0006310F702224403D52400B2409244814567
:108DB00041016FF07FF2B727002083A7C7BAC1BF78
:108DC000B2402244924441018280411126C24AC0ED
:108DD00006C622C4AA842E89EFF03F8731C14059CC
:108DE0005DCC83570400639C970A834734001307C4
:108DF0001002639CE70883472400D9C37C540327EF
:108E0000040883D7470105E713F717000DC318546B
:108E100003574700058B01CF93072002A301F400FD
:108E2000B24022449244024905454101828013F731
:108E3000270009CB185403574700098B01C7930734
:108E40004002E9BF918B89CB1C5483D74700918B9B
:108E500081C793076002D9B7B727002083A707BB54
:108E6000E1D3DC43D5DF22858297034734009307A3
:108E7000F0028145E316F7FA2685EFF0FFE54DB7DE
:108E8000B727002083A7C7BAE1BF1307A0026398E2
:108E9000E7006304090013092003CA85F1BF631CBE
:108EA00009002685EFF06FFA19C58347450093E75F
:108EB00007012302F500A6854A85EF70CFE18DB743
:108EC000797126D29947231DB100AA842E858D453C
:108ED00022D406D632C636C4231CF100EFE04F8BF5
:108EE0002ACE4D441DC13246A246AA8532858296BD
:108EF0002A8419E52C082685EFF00FA42A8411C5D1
:108F000072459770FE1FE780E0212685EFF05FC76E
:108F10002285B25022549254456182804111B7B6E5
:108F2000010022C42E862E849386C68F894506C6EC
:108F300026C24AC02A89EFF0BFF883450400AA84FC
:108F40004A85EFF07FD9B2402244268502499244F7
:108F500041018280B727002083A7C7BA95CB9C43E5
:108F600085CB1D71A2CC86CE984110082A843AC8C0
:108F7000D84185453ACA829701C92306A100035505
:108F800024006C00EFF09FF9F64066442561828072
:108F90008280AE8715C5785505C7834607002380B4
:108FA000D50083461700A380D5008346270123817F
:108FB000D50083468701584BA381D500D8C1828054
:108FC000414681453E851773FE1F6700432BB72737
:108FD000002083A707BB91C703A387006303030097
:108FE00002830945828037270020032747D91DC700
:108FF0005843AA8705450DC703A50708411106C6B2
:10900000930605021306050C9305050613050504D2
:109010000297B2401375F50F4101828005458280A9
:1090200082804DC9357122CD2A840355050026CB97
:109030004AC94EC756C306CF52C55AC1DEDEB68AEC
:10904000B2892E89EFF06FE0AA8439C50C18228509
:10905000EFF03FF483472400138A6400A9CBEF703C
:109060000FA12A8B014583CB5400EF704F9EAA8439
:109070000C100818EF10406A08542C10EF10606AAA
:10908000D288268A56C05E88D2875A87141030103C
:10909000CE854A85EF20B024FA406A44DA444A4932
:1090A000BA492A4A9A4A0A4BF65B0D618280EF70F0
:1090B0000F9CAA8B014503CB5400EF704F992ACE29
:1090C00008540C10EF1040652C100818EF10606564
:1090D000F2484DBF8280C14709CD1455C14791CA9E
:1090E000785501CB83C73600BD4663F4F60083474D
:1090F00087013E85828089476309051063870510D3
:10910000411106C622C426C2834715002E8423803F
:10911000F50083472500A380F500834735002381B0
:10912000F50083474500A381F50083475500858BF3
:109130009396870083D7450093F7F7EFD58F239257
:10914000F5008346550093F7F7DFA20693F6062055
:10915000DD8E2392D5000347550093F6F6BF220714
:1091600013770740558F2392E50083475500FD761E
:109170009386F67F8D87858B758FAE07D98F239267
:10918000F50083466500F99B858ADD8E2392D50024
:10919000034765009377270013F7D6FF5D8F23926F
:1091A000E5008347650093F647009377B7FFD58FB7
:1091B0002392F50003476500DD9B4D45218BD98F38
:1091C0002392F500EF705F94AA845145EF70DF930E
:1091D0000347340093F4F40FC94763629702137591
:1091E000F50F636EE500834604001147E1476368AD
:1091F000D7008346140005476363D7008147B24018
:10920000224492443E85410182803E85828015C180
:10921000AA8709458DC141112E85414693851700C6
:1092200006C69770FE1FE780E0FEB240014541018F
:10923000828009458280828089471DC595C541117C
:1092400006C603471500AE8719462380E50093053F
:109250002500138517009770FE1FE780A0FBB24022
:1092600081473E85410182803E85828015C1AA8763
:1092700009458DC141112E8541469385170006C6CB
:109280009770FE1FE78000F9B240014541018280DE
:1092900009458280828089471DC995C9411106C64A
:1092A0000347250083461500AE872207558F23907C
:1092B000E500214693053500138527009770FE1FB2
:1092C000E78040F5B24081473E85410182803E857E
:1092D000828015C1AA8709458DC141112E8541465D
:1092E0009385170006C69770FE1FE780A0F2B24074
:1092F000014541018280094582808280894719C9E0
:1093000091C903471500BD46E14763E5E6002380A8
:10931000E50081473E85828015C1AA8709458DC138
:1093200041112E8541469385170006C69770FE1F92
:10933000E78040EEB24001454101828009458280CC
:10934000828015C1AA8709458DC141112E854146EC
:109350009385170006C69770FE1FE780A0EBB2400A
:109360000145410182800945828082801DC1AA8712
:10937000094595C141112E851306000493851700F8
:1093800006C69770FE1FE780E0E8B2400145410144
:10939000828009458280828015C1AA8709458DC1D6
:1093A00041112E8541469385170006C69770FE1F12
:1093B000E78040E6B2400145410182800945828054
:1093C00082801D71A2CC2A84084586CEA6CA2306B7
:1093D00001008344050035479387F4FF93F7F70FA7
:1093E000636AF70C37D702008A07130787C0BA975A
:1093F0009C4382870C08EFF01FD0C9476312F50227
:1094000099472306F100035524006C00EFF01FB1CB
:10941000F6406644D644256182800C08EFF07FEB6D
:1094200029C98347C100E5F303552400EFF04FF548
:10943000C5B70C08EFF05FEEE5B70C08EFF01FECD6
:10944000C5B70C08EFF0BFDCE1BF0C08EFF0BFE4DC
:10945000C1BF0C08EFF09FE1E1B70C08EFF0DFDDD2
:10946000C1B70C08EFF0FFED65BF83471500230877
:10947000F10003552400EFF04F9DA1470DC10347B4
:10948000C500631BF702B727002003A707BB9D4752
:1094900019C7184309C71008A6850297AA8723068B
:1094A000F10041B70C08EFF07FEC9DBF0C08EFF026
:1094B000BFEEBDB79D47B1B7B727002003A7C7BA16
:1094C000F9B7011122CC06CE26CA4AC84EC60347B8
:1094D0000500930720092A84631CF71283471500AF
:1094E00039476395E70A8356450009676107814755
:1094F0006398E610B729002003A509BCCE84630158
:1095000005100C4403C90500631F090083470500CB
:1095100085052146A9CF29059770FE1FE78080CFDA
:1095200083A704BCB5C34945EF408FE12A841DC51C
:10953000930710FC2300F500A300250183A504BCBC
:109540000905414689059770FE1FE780A0CC83A7D7
:1095500004BCA28503C51700EF406FEC03A504BC53
:109560009770FE1FE78000BC23A004BC31A809054A
:109570009770FE1FE78000CAEF30203805494DF193
:1095800083A709BC2380270185479DA81307E00313
:10959000639EE708034725009547631FF7020355BD
:1095A0004500EFF06FAC9147E310F5FEB7270020C0
:1095B00083A7C7BAF1DB03A38700E30703FC0356C5
:1095C000E40003554400930564006244F240D24431
:1095D0004249B24905610283A147631EF7008345F2
:1095E0006400035544006244F240D2444249B24907
:1095F00005616FF08FFD930600038147E301D7FEFD
:10960000F2406244D2444249B2493E8505618280BB
:109610009306000A8147E315D7FEEFF09FDA08446E
:1096200025D59770FE1FE780E0AFB9BF8147C9BF5E
:10963000011126CA06CE22CC89441DCD95CDAA841F
:109640002E8468008D45EF60BF928347E100268538
:10965000228693F7F70393E707046C002307F100D2
:10966000EF20E03EAA8409E90D466C0013053400A2
:109670009770FE1FE78000BAF24062442685D2440C
:10968000056182805D714EDE86C6A2C4A6C2CAC0D4
:1096900052DC56DA5AD85ED6894945CD5DCA138B5D
:1096A0004500420B135B0B01AE8A2A8A93053005F5
:1096B0005A85B2849770FE1FE780C0982A84CD49EE
:1096C00049C9EF60BFBC2A895686D285935A890062
:1096D000135A0901937BF90F1305440093FAFA0F0B
:1096E000137AFA0F135989019770FE1FE78020C87B
:1096F000A301740123015401A300440123002401A8
:10970000EF603FB8AA85414608089770FE1FE780C2
:1097100000C6214734005A86A2850808EF20C059A8
:10972000AA891DE121462C0023807401A3805401E5
:1097300023814401A3812401138544009770FE1FF7
:10974000E780E0C2EF605FB522859770FE1FE7807B
:10975000609DB64026444E8596440649F259625AA9
:10976000D25A425BB25B6161828001114AC82A8988
:109770002E8506CE22CC26CA2EC6EFE01FED69C587
:10978000405969C4834754000947B24593F6B70F5F
:109790006386E600114749456392E7088357040052
:1097A0000945639DB706930484004146CA85268512
:1097B0009770FE1FE78000A64146CA851305840105
:1097C0009770FE1FE78000A5034734008546930786
:1097D000F7FE93F7F70F63E9F6041306C403328527
:1097E000C14532C6EF60CFF832469306C402A68563
:1097F0002285EFF01F838347240089CB22856244B2
:10980000F240D244424905616F108018034734008A
:10981000C947E305F7FEA301F4000145F2406244A5
:10982000D244424905618280930710050145E31740
:10983000F7FE83472400FDD322856244F240D244E0
:10984000424905616F10401B0945C9BF4945F9B739
:10985000397152D42A8A328526DA4ED606DE22DCC7
:109860004AD8AE8932C6EFE05FDEC94459C54059D7
:10987000C94441C48357040032466390C7088347F4
:109880005400A18BB1CB37290020832749D99304F9
:10989000E00FA5C79C47B5C39304840126854146C4
:1098A000D2859770FE1FE780E096832749D98325EC
:1098B000040826869C4793850504180881462E8552
:1098C0008297AA844146CE8508089770FE1FE780DC
:1098D00060A593F4F40F11E1894403473400930722
:1098E000B005631CF7002285EF10C00D83472400EC
:1098F00091CF9307C005A301F400F250625426856E
:109900004259D254B259225A216182809307E0050C
:10991000DDB729CD011126CA06CE22CCAA8409457D
:10992000A9C10D4628002E848D059770FE1FE78083
:10993000608E8347A10070002C0093F7F70393E734
:10994000070426852305F100EF20601019E90D4674
:10995000A28568009770FE1FE780C09C7D15333597
:10996000A000F2406244D2440561828009458280B1
:10997000011152C42A8A32854EC656C25AC006CE3A
:1099800022CC26CA4AC82E8BB28AB689EFE0FFCB1A
:1099900009ED8944F240624426854249D244B249E5
:1099A000224A924A024B056182805C592A89C54449
:1099B000F5F34D45EF704F951374F50F5145EF706A
:1099C000AF94E38809FC83C78901E3E487FC13753E
:1099D000F50FE360F5FC930530051305400897602B
:1099E000FE1FE7802066232AA9022A84CD445DD188
:1099F0001306400881459770FE1FE7804088A30149
:109A0000040023014401230264012310540123268E
:109A1000340723240402A30204008144E30C0AF661
:109A20002285EF00F070AA8435D54A85EFF0EFA2C9
:109A300095B7397122DC06DE26DA4AD84ED652D4E2
:109A400056D25AD05ECE62CC66CA0944630B061069
:109A500063090710AA8B3A89368BB28A2E8CEFE005
:109A6000DFBE2A8A5144630E050E93053005414539
:109A70009760FE1FE780005DAA894D447DC1834445
:109A8000190083472900A204C207BE948347090036
:109A9000BE9483473900E207BE9483278A0263E6B7
:109AA00097007D5709446399E70A63070C008347D1
:109AB0004A000544898BCDC3930C4B002146814558
:109AC0000A85C20C9760FE1FE780607B93DC0C0167
:109AD0009305300566859760FE1FE780A0562A8CA7
:109AE0004D443DC95A86D68511059770FE1FE78003
:109AF00000881146CA8562859770FE1FE78020871F
:109B0000414693058A014E859770FE1FE7802086A7
:109B100021478A866686E2854E85EF20E0192A84F1
:109B20001DE521468A8528009770FE1FE780208466
:109B300021469305490028009760FE1FE780807E3C
:109B40008547631EF502A6855E85EF706FB262855C
:109B50009760FE1FE780005D4E859760FE1FE780DF
:109B6000605C2285F2506254D2544259B259225A52
:109B7000925A025BF24B624CD24C216182800544C6
:109B8000F9B779719397050122D406D626D24AD027
:109B90004ECEC1872E8463D50704B724002093845A
:109BA00004BD03C53400EF402F802AC611CDEFF06D
:109BB0005F91B24519E503C524009307F00F631EBA
:109BC000F5002E85EF30FFF22165218DB250225431
:109BD00092540259F24945618280EF404F84EDB7BB
:109BE00093F7150091C7EFF06F9813451400F9BF74
:109BF000A1E10145E1BF850493F4F40FEFE0DFBE7E
:109C0000E3F9A4FE339599001319050113590901CD
:109C1000B3772401EDD34A85EFE03FE7C167FD1735
:109C20006305F500DD45EFF02F8B3345240179BF47
:109C300085448549E1B7B727002023A007BCB72793
:109C4000002023A807BA37A70100B7270020130771
:109C5000C72423A607BAB727002023A2E7BC37A74B
:109C60000100938747BC130787F5D8C337970100D6
:109C70001307A7BB98C737B70100B7270020130702
:109C8000471E23AAE7BA37B70100938747BB1307DC
:109C900067D4D8C337B701001307070398C782807A
:109CA000B727002083C747BD918B89C7B7270020FE
:109CB000938747BB372700202326F7BA01458280C8
:109CC000011106CE2AC6EFF01FF73245B727002054
:109CD0009945A389A7BCEFD00FA6F24037950100A4
:109CE000130585D305616FE0DFB01C5581C7A1471F
:109CF0003E858280011122CC26CA2A84AE841305B7
:109D000000049305300506CE9760FE1FE780803380
:109D100008D46305051013060004A6859760FE1F8E
:109D2000E780404F78548347270193F68700638E7E
:109D30000610145483C62600A18A63880610832760
:109D40000408E9EF93053005130500109760FE1F26
:109D5000E780402F2320A4088D4771C1A30204008F
:109D6000785483C714008346170081EF81EE83C7C0
:109D70002400918BDDEB83472701918BDDE785473D
:109D800011A889C62147A302E40099C7834754005C
:109D900093E70701A302F4006C5483C72501858B68
:109DA00091CF1C54054783C727008D8B6398E7002C
:109DB0008347640093E717002303F4008327040814
:109DC00099C78347640093E787002303F400834720
:109DD000540005476393E70C930484004146814592
:109DE00026859760FE1FE78080494146814513051F
:109DF00084019760FE1FE78080481306C403328504
:109E0000C14532C6EF60CF96832704083246BDC7EE
:109E10002285EF00703E9307000525CDA147F24053
:109E20006244D2443E850561828083C70400834634
:109E300007001547B387E70237D702001307C7C5E6
:109E4000BA97B69783C70700B1B783C6140091C607
:109E50008346170099C2E14735BF83C62400D58FDA
:109E6000918B91DF83C70400834607001547B387B2
:109E7000E70237D70200130707C4D9B79306C40215
:109E8000A6852285EFF0EF992285EF007030C1475B
:109E900051F5A301F400814759B713F787013DCF6E
:109EA000C18B930484004146B9C789052685976014
:109EB000FE1FE780203641468145130584019760E7
:109EC000FE1FE780C03B834764001306C40332854E
:109ED00093E747002303F400C14532C6EF604F8982
:109EE00083270408324699CF2285EF00F03093078C
:109EF000200545D125B7814526859760FE1FE7805F
:109F0000003855BF9306C402A6852285EFF06F91F5
:109F10002285EF00F027CD472DDD09B7094785459C
:109F2000638AE700114789456386E700194763970D
:109F3000E7008D4503550400EF60FFDD83476400B3
:109F400093E747002303F4008327040881C793079E
:109F5000100581B7C54735BF8347250063830726B2
:109F6000797122D406D626D24AD08347350013070A
:109F700050052A84639FE706034975001306C5034D
:109F8000C14593573900AA97328583C4870032C6EA
:109F9000EF501FFEB727002083A747D9A9C79C47CA
:109FA000B9C30325040893767900B3D6D44032466A
:109FB000858A93050504180893E606081305050825
:109FC00082971375F50F05E141460C081305C4028D
:109FD0009760FE1FE78000242285EF00701B930727
:109FE0006005A301F400B250225492540259456115
:109FF0008280130710026395E7021C5503270508AA
:10A0000083D7470069EB13F7071071C778550357DB
:10A0100047011377071061C393077002A301F4008F
:10A020008347340013077002639FE70C3C5885E3B5
:10A030009305300571459760FE1FE780A00028D882
:10A0400019C5714681459760FE1FE780402324585B
:10A05000B9C883C7A40191E72285EFF0CF87238D8C
:10A06000A4002858814541469760FE1FE7802021C3
:10A0700028583D478345A5019387F5FF93F7F70FD0
:10A080006364F700EF50DFEEEF30DFD43C58A145BA
:10A090002398A70013852701EF509FED2C580355F7
:10A0A0000400EF0050409307800203550400A30111
:10A0B000F400EFE08FD9414611C58357E50013D670
:10A0C00017003E96B727002003C537BD0606854515
:10A0D000EF303FEF09BF13F7072011CB7854035738
:10A0E00047011377072001C79307900205BF93F735
:10A0F00007409DD77C5483D7470193F707408DD302
:10A100009307B00221BF13078002639BE7023C580C
:10A1100089CB83D507010355040013862701EF007F
:10A12000103E1C5483D7470013F707202DC37854E3
:10A13000035747011377072039CB93079002B5B730
:10A1400013079002639CE700EF600F93AA85035505
:10A150000400EF00D0399307A00281BF1307A002CB
:10A160006393E704EF60AF90AA8585470145638458
:10A17000F500814505452EC6EF606F8D2A86B245F4
:10A1800003550400EF0030331C5483D7470093F786
:10A1900007408DC77C5483D7470193F7074099CF79
:10A1A0009307B00219B71307B0026399E700EF6095
:10A1B0004F8DAA8503550400EF00F0379307F00296
:10A1C0000DB58280411122C4405926C206C67C5476
:10A1D000AA8483D7470113F7071019C718540357E8
:10A1E0004700137707101DE313F7072019C718540A
:10A1F000035747001377072011EB93F707408DCFE4
:10A200001C5483D7470093F707409DC7930710025C
:10A21000A301F4002285EFF03FD4034734009307F5
:10A22000F0026310F702224403D52400B2409244A6
:10A23000814541016FE05FAA9307F002A301F4009A
:10A24000DDB7B2402244924441018280397122DC60
:10A25000405926DA4AD84ED606DEAA89AE8432891B
:10A26000630B043C03552500835704006384A70057
:10A27000A14429A08347240091EB9D44F2506254ED
:10A2800026854259D254B259216182809387E5FFD5
:10A2900093F7F70F2D47E362F7FE37D702008A07DF
:10A2A000130787C7BA979C438287B2852285EFF050
:10A2B000DFA3AA84E1B74146CA851305C4049760A9
:10A2C000FE1FE78020F52285F52DAA8411C1A14447
:10A2D00083473400130740056397E7009307900511
:10A2E000A301F40061BF130760056395E7009307BE
:10A2F000A005FDB7D147EDB79309C4054E8541468A
:10A30000CA859760FE1FE780E0F00325040855C961
:10A3100083473400130790056399E7002285352FA2
:10A320009307E005A301F40059A81307A00563945F
:10A33000E7088347740013D73700229783468700C6
:10A340009D8BB3D6F640B727002083A747D9858ACF
:10A3500093E606F893F6F60F81DF9C4791DB9305B1
:10A36000050818084E861305050482979374F50FA7
:10A37000E39004F041460C081305C4049760FE1FE7
:10A38000E78040FA834774004D47850793F7F70F3E
:10A39000A303F4006377F7002285C1259307E00546
:10A3A00081B7B727002003C537BD8545EF30FFAB28
:10A3B0009307500535B71307C005E381E7F68144DD
:10A3C00075BD130984004E86CA8522851408EFE006
:10A3D0005FC541469305C40408089760FE1FE780E7
:10A3E00060F4E30D05E88A861306C403CE854A852A
:10A3F000EF1030030DE12285EFE0FFCDB7270020FD
:10A400002A8783A7C7BC03550400814601468A8575
:10A410008297AA8411C1A14493072002D1B5834534
:10A420000600EFE07F8B61BF0347340093072002F3
:10A43000E315F7E47C5889EB930530057145976087
:10A44000FE1FE78020C068D86858E30805E241464F
:10A45000CA859760FE1FE780E0DB64582285EFE045
:10A460009FC7238DA400930730026DBD03473400BE
:10A4700093073002E313F7E083570600685821463C
:10A48000930529002318F50049059760FE1FE78012
:10A4900060D87C5483D7470113F7270035C7185479
:10A4A00003574700098B2DC393074002A5BD0347FF
:10A4B000340093074002E312F7DC3C5C81EB8545F6
:10A4C00059459760FE1FE780E0B728DC285CE30869
:10A4D00005EE4146CA859760FE1FE780A0D393072B
:10A4E000500289B50347340093075002E317F7D8A9
:10A4F000285C19469305190041059760FE1FE78007
:10A5000060D17C5483D74701918B9DCF1C5483D756
:10A510004700918B95CB9307600229B57C5C89EB52
:10A520009305300551459760FE1FE780A0B168DCB8
:10A53000685CE30F05D24146CA859760FE1FE7803D
:10A5400060CD7C5C7D5798CB4E85EFF0BFC785BD55
:10A550000325040813060004CA8513050504976043
:10A56000FE1FE78020CB2285EFE0FFA78347340062
:10A57000130700056395E7009307400565B31307CC
:10A580001005639CE700B727002003C537BD85454C
:10A59000EF30BF8D9307500571B313072005E3908B
:10A5A000E7E2B727002083A747D9E38307CC9C477E
:10A5B000E38007CC8325040893048400180893855E
:10A5C0000508814626862E858297035504001008CB
:10A5D000A685EF602FFD9307B005A9B303473400AC
:10A5E0009307E005E31BF7C88325040841464A8525
:10A5F0009760FE1FE78000D3AD44E30105C8032543
:10A6000004084146CA859760FE1FE780A0C02285E6
:10A61000EFE07FACB72700202A8783A7C7BC2C5860
:10A6200003550400814601468297AA8411C1A144C2
:10A630009307100275B1AD47E393F5D88346060042
:10A64000835525001306650003450500EF505FF9AB
:10A65000BDB3894761C2DDCD2300A60083C70500D5
:10A66000A300F60083C715002301F60083C7250069
:10A67000A301F60083C73500A30206002302F600FB
:10A6800083D74500A183858BA302F60003D745003D
:10A690001377072009C793E72700A302F60083D7A3
:10A6A000450093F7074099C78347560093E7470053
:10A6B000A302F60083D745001397470163580700AC
:10A6C0008347560093E78700A302F60023030600A2
:10A6D00083C74500858B2303F60003D74500098B0C
:10A6E00009C793E727002303F60083D74500918B22
:10A6F00099C78347660093E747002303F60003D713
:10A7000045008147218B19C70347660013678700FF
:10A710002303E6003E8582802E86AA8505456FF0DC
:10A720005FF32E86AA8509456FF0BFF289478DC574
:10A7300005C5411106C6AE870D47AA852380E700EF
:10A740001385170041469760FE1FE780A0ACB2401A
:10A7500081473E85410182803E85828089478DC543
:10A7600005C5411106C6AE871147AA852380E700BB
:10A770001385170041469760FE1FE780A0A9B240ED
:10A7800081473E85410182803E85828089478DC513
:10A7900005C5411106C6AE871947AA852380E70083
:10A7A0001385170041469760FE1FE780A0A6B240C0
:10A7B00081473E85410182803E85828089479DCDCB
:10A7C00015CD411106C61D472380E500035705003E
:10A7D000AE872146A380E50003570500218323812E
:10A7E000E50093052500138537009760FE1FE7807D
:10A7F00060A2B24081473E85410182803E858280D1
:10A8000089478DC505C5411106C6AE872147AA8572
:10A810002380E7001385170041469760FE1FE780FD
:10A82000609FB24081473E85410182803E858280A3
:10A83000894795C90DC9411106C625472380E50002
:10A8400003470500AE871946A380E5009305150070
:10A85000138527009760FE1FE780C09BB2408147A9
:10A860003E85410182803E85828089478DC505C530
:10A87000411106C6AE872947AA852380E7001385C4
:10A88000170041469760FE1FE780C098B24081479D
:10A890003E85410182803E858280894795C50DC5F0
:10A8A000411106C6AE873147AA852380E70013858C
:10A8B0001700130600049760FE1FE780A095B240C2
:10A8C00081473E85410182803E85828089478DC5D2
:10A8D00005C5411106C6AE873547AA852380E70026
:10A8E0001385170041469760FE1FE780A092B24093
:10A8F00081473E85410182803E858280894791C99A
:10A9000009C995472380F50083470500A380F5001A
:10A9100081473E858280894791C909C9AD47238017
:10A92000F50083470500A380F50081473E858280BE
:10A9300015C55D718A8586C6A2C42A84EFE06FE5DD
:10A9400003550400B7A601000A86938686719D45CB
:10A95000EFE00FD7B64026446161828005458280D2
:10A9600015C55D718A8586C6A2C42A84EFE06FE2B0
:10A9700003550400B7A601000A86938626729D45FA
:10A98000EFE00FD4B64026446161828005458280A5
:10A990005D71A2C49305C5022A8441460A8586C614
:10A9A0009760FE1FE780008703550400B7A60100EB
:10A9B0000A869386C672C545EFE08FD0B64026441E
:10A9C000616182805D71A2C49305C5032A844146FA
:10A9D0000A8586C69760FE1FE780C0830355040082
:10A9E000B7A601000A869386C675C545EFE04FCD30
:10A9F000B640264461618280B727002083A747D9EB
:10AA0000B1CB9C435D71A2C486C62A841305E00FB6
:10AA100095CF032504089305050C130505088297B7
:10AA200083250408130600040A85938505089750BA
:10AA3000FE1FE780207E03550400B7B60100938611
:10AA4000A6890A8693051004EFE08FC7B640264416
:10AA5000616182801305E00F8280317122DD2A84DA
:10AA60000355050026DB06DF4AD94ED752D556D30B
:10AA70005AD15ECF62CDEFD05FBD3C58AA8489EB3E
:10AA80009305300571459750FE1FE780A05B28D8DD
:10AA90002858CD470DC9714681459750FE1FE78064
:10AAA000007E032904072285EFE0EFE2230DA900D1
:10AAB0008347240037290020638A0712832749D956
:10AAC00085E39307E00FFA506A54DA544A59BA59A9
:10AAD0002A5A9A5A0A5BFA4B6A4C3E85296182804F
:10AAE00083AB0701E38F0BFC032B0408EF502FF817
:10AAF0002A8C0145EF50AFF583C754003858130B2B
:10AB00000B029309C403130AC405938A64003AC074
:10AB1000B337F0002A87930801045688B3368001C2
:10AB20005286CE855A85829B1C5403C72700230773
:10AB3000E10203C71700A306E10283C7070023064B
:10AB4000F102832749D9B5DF03AB4701E30B0BF6CD
:10AB500083C75400B337F0003ECEEF504FF1AA8BBD
:10AB60000145EF50CFEE03270408F2472AC03AC24E
:10AB7000B338700156887810930684004E86D285CB
:10AB80008800029B7C5403C727012305E10203C709
:10AB90001700A304E10283C707002304F1028327FF
:10ABA00049D903A94701EF508FEC2A8B0145EF509B
:10ABB0000FEA83C854009C082A883EC2B3381001AB
:10ABC000B33760013810930684015286CE8556C093
:10ABD0008800029903550400B7B601009386C68C1D
:10ABE0009008C545EFE0CFADAA87F1BD83C65400FC
:10ABF000832749D9032B0408B336D00083AB070160
:10AC000036CEEF50CFE62A8C0145EF504FE43C584A
:10AC1000F246130B0B02130AC4059309C403938A6B
:10AC200064002A88930801044E86D2853EC0568768
:10AC3000B33780015A85829B1C54130B010303C751
:10AC400027002307E10203C71700A306E10283C719
:10AC500007002306F102832749D983AB470183C745
:10AC60005400B337F0003ECEEF506FE02A8C014520
:10AC7000EF50EFDDF2472AC0B338800156887810D4
:10AC8000930684004E86D2855AC28800829B832513
:10AC9000040841465A859750FE1FE780A068AD47DB
:10ACA000E31205EE0DB5B7A601002E869386C67891
:10ACB000C5456FE0EFA05D71B287A2C42300B1006B
:10ACC0002A84BE8513051100194686C69750FE1FBB
:10ACD000E7804054B7B601000A8622859386068332
:10ACE000A145EFE0EF9DB640264461618280B7B692
:10ACF00001002E8693860680C5456FE06F9C5D71CE
:10AD0000B287A2C42310B1002A84BE851305210096
:10AD1000214686C69750FE1FE780C04FB7A60100A8
:10AD20000A8622859386C67BAD45EFE06F99B640D3
:10AD3000264461618280B7B601002E869386A6867E
:10AD4000C5456FE0EF97797122D406D626D28347A6
:10AD50003500130730052A846384E708130750057C
:10AD60006396E7089307A005A301F50083477500E4
:10AD7000C14513D737002A97834687009D8B13055B
:10AD8000C503B3D6F640858A93E606F893F6F60F28
:10AD900036C6EF50EF9DB246B727002083A747D9AC
:10ADA0009DCB9C478DCB0325040818081306C403CC
:10ADB000930505041305050882971375F50F01ED3A
:10ADC0001305C40241460C089750FE1FE7808044DB
:10ADD0002285EFF0FFBBB25022549254456182802D
:10ADE00093079005A301F50081467DB71307100274
:10ADF0006396E7027C550327050883D7470163194B
:10AE0000070E13F717006305070E18550357470081
:10AE1000058B79CF93072002A301F4008347340008
:10AE2000130720026390E7103C5889EB9305300527
:10AE300071459750FE1FE780E02028D82458C9C0EC
:10AE40002285EFE04FA9238DA40028588145414673
:10AE50009750FE1FE780A04228583D478345A50133
:10AE60009387F5FF93F7F70F636DF702B72700207D
:10AE700083C7F7D9CDC74146814508089750FE1FC3
:10AE8000E780E03FB72500201946938585AA08088A
:10AE90009750FE1FE780003830580C082E85EF9041
:10AEA0005013EF203FF33C58A1452398A70013858A
:10AEB0002701EF50EF8B2C5803550400EFF0BFDE55
:10AEC0009307300203550400A301F400EFD0EFF71D
:10AED000414611C58357E50013D617003E96B727A4
:10AEE000002003C537BD06068545EF308F8DE5B5DB
:10AEF00013F7270009CB185403574700098B01C7E4
:10AF00009307400211BF918BE38A07F01C5483D74B
:10AF10004700918BE38407F093076002F5BDEF5083
:10AF20002F8541B713073002639AE7023C5889CB5B
:10AF300083D507010355040013862701EFF03FDC9A
:10AF40007C5483D7470113F7270021CF18540357A8
:10AF50004700098B39C793074002ADB7130740027A
:10AF6000639CE700EF504FB1AA8503550400EFF052
:10AF70001FD893075002B9B7130750026390E70434
:10AF8000EF50EFAE0DE9814505452EC6EF502FACD1
:10AF90002A86B24503550400EFF0FFD17C5483D7D5
:10AFA0004701918B9DC71C5483D74700918B95C354
:10AFB0009307600201BF85450145C1BF13076002C9
:10AFC0006399E700EF50EFABAA8503550400EFF05B
:10AFD0009FD67C540327040883D7470119EF13F742
:10AFE000071001CF1854035747001377071011C7F4
:10AFF00093077002A301F400F9BB13F7072011CBEC
:10B000001854035747001377072001C7930790028E
:10B01000D5B793F7074091CB1C5483D7470093F7DC
:10B02000074081C79307B002F1B79307F002D9B781
:10B03000397122DC26DA4ED652D406DE4AD8AE89E1
:10B04000328AAA84EFD06FE04059414681450A8593
:10B050009750FE1FE780A02225C8035904006315FE
:10B0600099060347340093071002631FF7028327F2
:10B07000040899CF2C58A9C94A85EF1050090545F5
:10B08000F2506254D2544259B259225A21618280FC
:10B090008A861306C4059305C40313058400EF00D4
:10B0A00050381DE18A85C9BF2C5899CD83D7050139
:10B0B000639C47012146C9054E859750FE1FE780D6
:10B0C000602619C12C584DBF2685EFD00FD82A8491
:10B0D00005455DD44C54A1C983D705016395470547
:10B0E0002146C9054E859750FE1FE780A02385475E
:10B0F000631BF502B727002083C7378891C74C54DC
:10B1000083C7B501639BA70CBD452685EF10A07AC8
:10B11000B727002083A787A60145BDD31D458945D4
:10B1200082970145B1BFB727002003C707DAB729C7
:10B130000020938989A3058B3E8931C3B72700205E
:10B140000347540083C787D9631BF702B725002044
:10B150001946938595D9130564009750FE1FE78023
:10B16000601C8547631DF50083A7090381C79145CE
:10B170001D458297BD452685EF10E07309B7372737
:10B1800000200347F7D983A7090331CB034709DA26
:10B19000098B09CB81C795451D4582972685EF1000
:10B1A0004077F1BD81C78D451D4582974146814558
:10B1B00008089750FE1FE780800CB725002019462D
:10B1C000938585AA08089750FE1FE780A0040C0805
:10B1D0002E850A86EF90E05F8A85268579BD8545B4
:10B1E000C5FF6DBF797122D440594AD04ECE52CCA2
:10B1F00006D626D2AA892E8A32896303046A0355A9
:10B20000250083570400638CA700A144B250225448
:10B21000268502599254F249624A456182808344EC
:10B22000240099C09D44DDB79387F5FF93F7F70F8E
:10B230003147E369F7FE37D702008A07130787CA49
:10B24000BA979C4382871C54E9F393053005130594
:10B2500000049750FE1FE780E0DE08D45DD5034769
:10B260000900914763F4E7008D444DB70347190087
:10B270008547E3EBE7FE13060004CA859750FE1FDF
:10B28000E78040F90C547054A3020400D4415C4A96
:10B29000858AFD8E83574601F99BD58F231AF600C8
:10B2A000D841544AF59B0583058B8582F98E860625
:10B2B000DD8E231AD600DC41584AED9A8983858BAE
:10B2C00009837D8F0A07558F231AE600D4415C4A13
:10B2D0005D9B8D82858A8D83F58F8E07D98F231A8A
:10B2E000F600D841544A93F7F7EF2183058BA182EA
:10B2F000F98EA206DD8E231AD600DC41584AA583BA
:10B30000858B25837D8F9317970013F7F6DF5D8F6D
:10B31000231AE600D4415C4AA982858AA983F58F65
:10B320009396A7009377F7BFD58F231AF600D441E1
:10B33000584AAD82858A2D83758FFD769386F67F78
:10B340002E07F58FD98F231AF60083472601032590
:10B350000408A18B6381071083C72500A18B638C30
:10B36000070EE31405EA9305300513050010975006
:10B37000FE1FE78020CD2320A408E30705EE7C54C0
:10B38000A30204000347190083C6170089EA51CBC2
:10B390008347540093E70701A302F40029A0A147C3
:10B3A000A302F40075F72285EFF08FDB6C5483C79E
:10B3B0002501858B81CF1C5483C727008D8B99C7AE
:10B3C0008347640093E717002303F40083270408EE
:10B3D00099C78347640093E787002303F4008347FA
:10B3E00054000547639FE70A4146814513058400E1
:10B3F0009750FE1FE780A0E8414681451305840170
:10B400009750FE1FE780A0E7C1451305C403EF4036
:10B410003FB683270408C1C793070005A301F400C2
:10B42000F5B303C72701118B19E703472900118BD7
:10B4300019E3854795B783C7070015478346090079
:10B44000B387E70237D702001307C7C5BA97B69785
:10B4500083C7070091B719C59750FE1FE78080CCBE
:10B46000232004087C5403C7170011C703471900A1
:10B4700019C3E14715B703C72701118B09E7034734
:10B480002900118B5DD783C7070015478346090044
:10B49000B387E70237D70200130707C445BFC14788
:10B4A000B5BF13F7870121CFC18B13058400414637
:10B4B0009DCF89059750FE1FE780C0D54146814545
:10B4C000130584019750FE1FE78060DB834764000B
:10B4D000C1451305C40393E747002303F400EF407D
:10B4E0003FA98327040891CB9307200505BF814519
:10B4F0009750FE1FE780A0D8D1B7CD4705B70947C1
:10B500008945638AE700114785456386E700194747
:10B510006397E7008D4503550400EF50CFFF834745
:10B52000640093E747002303F4008327040881C7DE
:10B5300093071005E5B5C547D5B54146CA8513053E
:10B54000C4049750FE1FE780E0CC83473400130704
:10B550006005639CE700B727002003C537BD85451C
:10B56000EF20BF909307500555BD45476383E70221
:10B570009306C4021306C403930584002285EFD00A
:10B580005FAA2285EFF0CFC0AA8411C1A144D147A0
:10B5900071B5C94761B59309C4054E854146CA8551
:10B5A0009750FE1FE78000C70325040861CD83473D
:10B5B0003400130790056398E7002285EFF08FC0F1
:10B5C0009307E005A1BD1307A005639EE706B72713
:10B5D000002083A747D9E38707C403A88700E303B4
:10B5E00008C483477400930505084E8613D73700B7
:10B5F0002297834687009D8B0A87B3D6F640858ABB
:10B6000093E6060813050504029841468A8513054A
:10B61000C4049750FE1FE780E0D011E1D284228558
:10B62000EFF04FBA83477400CD461307E005850756
:10B6300093F7F70FA303F40063E4F6001307600524
:10B64000A301E400E1B61307C005E391E7BCB72707
:10B65000002083A747D9E38707BC9C47E38407BC46
:10B6600093050508130984000A8781464A862E85BA
:10B670008297035504000A86CA85EF50AFF29307FC
:10B68000B00569BB8A864E86930584002285EFD07B
:10B690005F9941469305C4040A859750FE1FE780D1
:10B6A00060C88547D284E313F5B62285EFF08FB1E9
:10B6B000AA84E31C05B4930710028DB3034734003A
:10B6C00093077002E310F7B67C5889EB93053005B9
:10B6D00071459750FE1FE780E09668D86858E303ED
:10B6E00005B4CA8541469750FE1FE780A0B20329E2
:10B6F00044072285EFD03F9E230DA90093078002C7
:10B7000031BB0347340093078002E31DF7B0835732
:10B71000060068582146930529002318F5004905BD
:10B720009750FE1FE78000AF7C5483D7470113F783
:10B73000072025CB1854035747001377072035C33C
:10B7400093079002E1B90347340093079002E31B8B
:10B75000F7AC3C5C89EB9305300559459750FE1FCB
:10B76000E780408E28DC285CE30E05AA4146CA85A6
:10B770009750FE1FE78000AA9307A00245B1034738
:10B7800034009307A002E31FF7A8285C194693052D
:10B79000190041059750FE1FE780C0A77C5483D74E
:10B7A000470193F70740B1C71C5483D7470093F76D
:10B7B0000740A1C39307B00295B103473400930734
:10B7C000B002E311F7A67C5C89EB93053005514587
:10B7D0009750FE1FE780008768DC685CE30705A2DE
:10B7E0004146CA859750FE1FE780C0A27C5C7D570A
:10B7F00098CB03D529008145EFD00FCE01BC03477C
:10B8000034009307F004E3F2E7A003250408E30EF5
:10B81000059E13060004CA85130505049750FE1FF4
:10B82000E780409F2285EFF02F9DAA842285EFD0EC
:10B830008FFB8347340013070005639FE700B7279A
:10B84000002003D6E90003C537BD85450606EF2075
:10B850004FF793073005D9B6130710056395E70036
:10B860009307600565BE13072005E391E79A9307E8
:10B87000C0056DB6034734009307E005E317F7985A
:10B88000032504084146CA859750FE1FE78080982B
:10B890002285EFF08F9CAA8439BD83450600A9BF9D
:10B8A00085478144E394F596032846008347360094
:10B8B00003472600834616008355250003460600ED
:10B8C0000145EF409FC899B28147C1463307F50053
:10B8D000B388F5000347070083C808003308F60063
:10B8E0008507334717012300E800E391D7FE8280E4
:10B8F0000147BD471308F00F3306F50083460600E5
:10B90000B388F500FD178606558F2380E8000347AE
:10B91000060093F7F70F1D83E39007FF82808147AE
:10B92000930800F8414893F6F70F3387F50063FC5E
:10B93000C600B306F50083C606002300D7008507BE
:10B94000E39307FF82806395C60023001701C5BFFC
:10B9500023000700EDB701114AC856C22E89AA8AF2
:10B9600093053005414506CE22CC26CA4EC652C4A8
:10B97000328A9740FE1FE780E06CAA849305300569
:10B9800041459740FE1FE780E06B2A84CD49A5C45E
:10B9900031CD414681459750FE1FE780408E268677
:10B9A000A2855685EF80F062AA8929E18387040089
:10B9B00063D30706A2852685EFF09FF3B7D5020073
:10B9C0004A869385C5CD2285EFF01FF083070900D5
:10B9D00063D80704A2854A85EFF09FF1B7D502002E
:10B9E00052869385C5CD2285EFF01FEE26859740C0
:10B9F000FE1FE780207311C422859740FE1FE78059
:10BA00006072F24062444E85D2444249B249224AB1
:10BA1000924A05618280CA852685EFF07FED7DB769
:10BA2000D2854A85EFF0DFECD1B781474146B306B6
:10BA3000F5003387F5000347070003C806008507B4
:10BA4000334707012380E600E393C7FE828001119C
:10BA500026CA4EC6AE84AA89930530051305000395
:10BA60004AC806CE22CC32899740FE1FE780805D0F
:10BA70002DC51306000381452A849750FE1FE780D9
:10BA800000804146CE8522859750FE1FE780208E9C
:10BA9000A6850D461305D4019750FE1FE780208D23
:10BAA00013060402930504012285EF809052AA84B4
:10BAB0000D469305D4024A859750FE1FE780208BE0
:10BAC00022859740FE1FE780E065F24062442685AC
:10BAD0004249D244B24905618280CD44FDB75D71CF
:10BAE0004EDE62D4AE892A8C93053005130500031F
:10BAF000A6C2CAC052DC56DA5AD85ED686C6A2C4DE
:10BB0000B28B368BBA84BE8A4289468A9740FE1F22
:10BB1000E7804053630505101306000381452A841E
:10BB20009740FE1FE780A0754146E2852285975029
:10BB3000FE1FE780C083414681450A859740FE1F6E
:10BB4000E780E0731D46DE850A859750FE1FE7807B
:10BB500000821D46DA85130571009750FE1FE780AD
:10BB6000008133392001B3349000414681450808F3
:10BB700023072101A30791009740FE1FE780207053
:10BB80001946D68548089740FE1FE780407E194633
:10BB9000D2851305A1019740FE1FE780407D9304E5
:10BBA00004014146CE8526859740FE1FE780207C14
:10BBB0008A852685EFF07FE7930904024E86A685E5
:10BBC0002285EF8010412A890DE94146CE852685E0
:10BBD0009740FE1FE78000640C082685EFF0FFE425
:10BBE0004E86A6852285EF80D03E2A89464541466D
:10BBF000CE859740FE1FE780807722859740FE1F05
:10BC0000E7804052B64026444A8596440649F25998
:10BC1000625AD25A425BB25B225C616182804D49BA
:10BC2000D5B7011126CA52C4AA842E8A130500036F
:10BC3000930530054AC84EC606CE22CC3289B68955
:10BC40009740FE1FE780004035C52A84A6854146FF
:10BC50009740FE1FE780A071930404012146D2851E
:10BC600026859740FE1FE7808070CA852146130510
:10BC700084019740FE1FE780806F13090402A685A8
:10BC80004A862285EF80F034AA844146CA854E85D3
:10BC90009740FE1FE780A06D22859740FE1FE7803A
:10BCA0006048F240624426854249D244B249224A61
:10BCB00005618280CD44F5B739715AD05ECE2A8BAA
:10BCC000AE8B41459305300506DE26DA52D456D2B6
:10BCD00062CC66CA6AC8368C328DBA8C22DC4AD8ED
:10BCE0004ED69740FE1FE780E035AA8A93053005BF
:10BCF00041459740FE1FE780E0342A8ACD44638E99
:10BD00000A0859C52A86D6855A85EFF0DFC4AA8469
:10BD100041E19305300541459740FE1FE7808032A1
:10BD20002A899305300541459740FE1FE780803101
:10BD3000AA89630A090E6306050E1304FD00118427
:10BD40001376FD0049C07D144204418035EE131581
:10BD500044004E86D6855E95EFF01FB7414681457B
:10BD60004A859740FE1FE7808051014D93170D01D2
:10BD7000C18363F48708BDC04A859740FE1FE780F2
:10BD8000603A638709004E859740FE1FE78080393F
:10BD900056859740FE1FE780E03863070A0052850A
:10BDA0009740FE1FE7800038F250625426854259C2
:10BDB000D254B259225A925A025BF24B624CD24C84
:10BDC000424D216182800144131544008A855E95AD
:10BDD000EFF0FFB44E86D2850A85BDBF93154D00A6
:10BDE0000A86DE954A85EFF03FAE4A868A855A85F7
:10BDF000EF80301EAA84050D95BFBDFC0A86CE8556
:10BE00004A85EFF07FAC4A868A855A85EF80701CA0
:10BE1000AA846686CA8562859740FE1FE780803FB8
:10BE2000A1BFCD4491BFCD44A9BF397162CC2A8C4A
:10BE3000594526DA4AD84ED652D456D25AD05ECE7A
:10BE400006DE22DCAE8B328BB68A3AC63E8AC289C7
:10BE5000468983440104EF10BFCE49C1916793879F
:10BE600017E92310F50085472301F5002A8432479E
:10BE70002105630C0C0493071003A301F400194679
:10BE800081459740FE1FE780803F23036401A303A1
:10BE90005401230A94002312740123174401231828
:10BEA000340123192401A285B72700206254F250DF
:10BEB000D2544259B259225A925A025BF24B624C06
:10BEC00003C507BD21616F109FD5A301040019466A
:10BED000BA859740FE1FE780E03345BFF2506254B9
:10BEE000D2544259B259225A925A025BF24B624CD6
:10BEF00021618280011122CC2A84314506CE2EC6D2
:10BF000032C436C23AC0EF10BFC329C191679387CC
:10BF100017E92310F500B2452246924602478D47A5
:10BF20002301F500A30185006244B72700202312F6
:10BF3000B5002313C5002314D5002315E500F240F6
:10BF4000AA8503C507BD05616F107FCDF24062442D
:10BF50000561828001114AC82A89394526CA06CE60
:10BF600022CC2EC6B284EF10BFBD31C1B24591675D
:10BF7000938727E92310F50091472301F500A301DA
:10BF800025012312B5002A84A6851905214697406C
:10BF9000FE1FE7802028A285B72700206244F240D8
:10BFA000D244424903C507BD05616F105FC7F24027
:10BFB0006244D24442490561828001114AC82A89FB
:10BFC000414526CA06CE22CC2EC6B284EF105FB7FA
:10BFD00029C19167B245938727E92310F50095475A
:10BFE0002A842301F50023122501214619059740D3
:10BFF000FE1FE7802022A28523179400B727002088
:10C000006244F240D244424903C537BD05616F1016
:10C010001FC1F2406244D24442490561828001114D
:10C0200022CC2A84394506CE2EC632C436C23AC046
:10C03000EF101FB129C19167938717E92310F5000D
:10C04000B24522469246024799472301F500231242
:10C050008500B727002062442313B5002314C500D0
:10C060002315D5002316E500F240AA8503C507BDB8
:10C0700005616F10DFBAF240624405618280797118
:10C0800022D406D62A842EC632C436C23AC0EFC0A5
:10C09000CFDB1DC1B245224692460247231CB100A8
:10C0A000231DC1002C081306F00F2285231ED1008A
:10C0B000231FE100EFC0CFC9B250225445618280F6
:10C0C000011122CC2A84394506CE2EC632C436C28E
:10C0D0003AC0EF10FFA629C19167938717E9231093
:10C0E000F500B2452246924602479D472301F500DE
:10C0F00023128500B727002062442313B5002314C0
:10C10000C5002315D5002316E500F240AA8503C516
:10C1100007BD05616F10BFB0F240624405618280C7
:10C120005D712AC613052002CAC04EDE52DC56DA03
:10C130005AD85ED662D466D26AD086C6A2C4A6C2D7
:10C140006ECE2E8CB28B368B3AC43E8DC28CC68A94
:10C15000035A01058359410503498105EF105F9E8C
:10C1600069C591663243938616E9A9472A8423104C
:10C17000D5002301F500930DE4002105930444014B
:10C180002247630D030693071003A301F400194629
:10C1900081459740FE1FE780800E194681456E85D8
:10C1A0009740FE1FE780A00D1946814526859740E0
:10C1B000FE1FE780C00C23037401A3036401230066
:10C1C000240323128401231D5401231E4401231F31
:10C1D0003401A285B72700202644B640964406497C
:10C1E000F259625AD25A425BB25B225C925C025DA7
:10C1F000F24D03C507BD61616F107FA2BA85A3012F
:10C20000040019469740FE1FE780C000EA856E854E
:10C2100019469740FE1FE780E0FF1946E685268510
:10C220009740FE1FE78000FF79B7B640264496444A
:10C230000649F259625AD25A425BB25B225C925C66
:10C24000025DF24D61618280011122CC2A84214578
:10C2500006CE2EC632C436C2EF109F8E15CD2246B2
:10C2600092469167938717E92310F500B245B147CD
:10C270002301F500A30185002303C500A303D50016
:10C280006244B72700202312B500F240AA8503C5F7
:10C2900007BD05616F10BF98F2406244056182805E
:10C2A00041110D4506C6EF10BF890DC5930710F962
:10C2B0002300F5009307E003A300F500C547230121
:10C2C000F500B7270020B240AA8503C507BD41018C
:10C2D0006F10FF94B24041018280011122CC2A8468
:10C2E000294506CE2EC632C436C2EF107F8515CD45
:10C2F000B24592469167938717E92310F5002246CD
:10C30000C9472301F5002302B500A30185002304DA
:10C31000D5006244B72700202313C500F240AA8548
:10C3200003C507BD05616F109F8FF2406244056130
:10C33000828001114AC82A892D4526CA06CE22CC00
:10C340002EC6B284EF10CFFF29C5B245930710F96E
:10C350002300F5009307E003A300F500CD47230178
:10C36000F500A30125012302B5002A84A685150541
:10C3700019469740FE1FE780E0E9A285B727002015
:10C380006244F240D244424903C507BD05616F10C3
:10C390001F89F2406244D244424905618280011102
:10C3A00022CC2A84214506CE2EC6EF106FF905C98E
:10C3B000B2459167938717E92310F500D147230110
:10C3C000F5002303B50023128500B727002062443F
:10C3D000F240AA8503C507BD05616F105F84F24076
:10C3E000624405618280011122CC2A84214506CE57
:10C3F0002EC632C4EF10CFF41DC52246B2459307B6
:10C4000010592310F500230185002303C500624461
:10C41000B72700202312B500F240AA8503C507BD47
:10C4200005616F10CFFFF240624405618280011107
:10C4300022CC2A84214506CE2EC632C4EF104FF0FE
:10C440001DC922469167938727E92310F500B2455D
:10C45000A1472301F50023038500A303C50062441F
:10C46000B72700202312B500F240AA8503C537BDC7
:10C4700005616F10CFFAF2406244056182800111BC
:10C4800022CC2A84314506CE2EC632C436C23AC0EA
:10C49000EF100FEB15CD22468567B2459246024755
:10C4A000938717C92310F500230185002303C500D6
:10C4B0006244B72700202312B5002314D5002315AA
:10C4C000E500F240AA8503C507BD05616F102FF591
:10C4D000F240624405618280011126CAAE844AC8D6
:10C4E0002A891385C40006CE22CC32C6EF104FE550
:10C4F0001DCD8567938717E9B2452310F500230109
:10C500009500231225012A84310508C42686974008
:10C51000FE1FE78020D0A285B72700206244F240AA
:10C52000D244424903C507BD05616F104FEFF24089
:10C530006244D244424905618280011122CC2A849E
:10C54000194506CE2EC6EF10AFDF05C98567938764
:10C5500017F92310F500B2458547A301F500230123
:10C5600085006244B72700202312B500F240AA8557
:10C5700003C507BD05616F108FEAF2406244056193
:10C580008280411122C42A840D4506C6EF104FDB7C
:10C5900005C5930710F92300F500E947A300F5004E
:10C5A000230185002244B7270020B240AA8503C595
:10C5B00007BD41016F10AFE6B240224441018280C5
:10C5C000011122CC2A84214506CE2EC6EF104FD76A
:10C5D0000DC99167938727E92310F500B2459307AA
:10C5E00000032301F500230385006244B7270020E0
:10C5F0002312B500F240AA8503C537BD05616F104F
:10C600000FE2F2406244056182800111214506CEAD
:10C610002EC632C4EF10CFD205C98567B245224677
:10C62000938707392310F50085472301F500B727C5
:10C6300000202312B5002313C500F240AA8503C5CC
:10C6400087B305616F10AFDDF240056182803971FB
:10C6500022DC1304F5FF4AD852D456D25ECE4204EF
:10C6600006DE26DA4ED65AD0894B2A8A3289B68A15
:10C67000418063967515B72B002083C70B915E8BA5
:10C6800089448DCF83C9160083C706009144A2094F
:10C69000B3E9F900B727002083D787A4F51763DF34
:10C6A000F9009307C6FF639DF90831452EC6EF10C8
:10C6B0002FC92A84B24519ED9304F00FF250625449
:10C6C00026854259D254B259225A925A025BF24BF1
:10C6D000216182804209135909012302B500231305
:10C6E0002501930700F91509A1652310F500231111
:10C6F000450185054A859740FE1FE780A09408C440
:10C7000015C983C70B919385EAFF13562900FD17BE
:10C710002388FB909740FE1FE78060B31C44A285EE
:10C7200089071CC4B727002003C587B3EF102FCF9C
:10C73000814469B722859740FE1FE780A09EADBF68
:10C740009307D6FFE3CAF9F6B1473304F402B724DE
:10C75000002083A7C4B3A29703C7A70019C78843C3
:10C7600009C59740FE1FE780E09B13854900A1653E
:10C7700042058505418103AAC4B39740FE1FE780A7
:10C78000608C83A7C4B3229A2320AA00A29788436F
:10C7900005D505472385E70083470B914A86D68553
:10C7A000FD172308FB909740FE1FE780A0A683A7F4
:10C7B000C4B33E94231324012312340195BF85474B
:10C7C000E39CF5EEB1473304F402372B00208327B6
:10C7D000CBB3DA89A29703D76700884345CB83D7C9
:10C7E0004700B306C700910763C2D70A3A95D685BA
:10C7F0009740FE1FE78000A20327CBB38144229716
:10C8000083576700CA97C207C1832313F7000357F2
:10C8100047001107E394E7EA3145EF106FB2AA85AC
:10C8200021C1930700F92310F5008327CBB323021E
:10C83000750123114501A29703D767009C43231379
:10C84000E5001CC5B727002003C587B3EF102FBD37
:10C850008327CBB33E942313040023050400B9BD02
:10C860008327CBB3A297884311C99740FE1FE78067
:10C87000608B8327CBB3A29723A0070083A7C9B3FC
:10C880003E9423130400230504005DB511C99740AD
:10C89000FE1FE780208983A7C9B3A29723A00700C2
:10C8A00083A7C9B385443E942313040023050400E1
:10C8B00031B56FA0907E6FA0D07F6FB06028054526
:10C8C000828005458280411106C6EFA0D07EB2402D
:10C8D0000145410182806FB040016FB060036FB0CD
:10C8E000A0066FB0C0086FB0C00A6FB0C00C6FB0C8
:10C8F000C00E6FB0C0106FB060126FB0601483478D
:10C90000160003460600A2075D8E6FB0A0156FB03B
:10C91000E0166FB0A0196FB0601C6FB0401F6FB011
:10C9200040256FB060276FB080296FB0A02B6FB02B
:10C93000C02D6FB0E02F03430100030E4100834E72
:10C940008100034FC100834F0101834241018343B2
:10C9500081017EC816CA1ECC7AC676C472C21AC0BD
:10C960006FB0002F6FB000346FB020366FB040381A
:10C970000545828005458280054582806FC0104153
:10C9800005458280054582806FC03047B7D60200DA
:10C9900081479386C6CE1308F00F3387F60003460F
:10C9A00007001317060141836364E5006313060162
:10C9B000828003D605006365C7002390E50082806E
:10C9C000850793F7F70FD1BF41119397050122C453
:10C9D00006C626C2C1872E8463D50702EF10CF9CFE
:10C9E000AA8409CD83470500054793C707086364F8
:10C9F000F700EF60A0312685EF10AF8F2165218D04
:10CA000021A893F7150091CFB727002083A747C42B
:10CA100091C3829713451400B240224492444101CD
:10CA2000828093F7250091CBB727002083A787C486
:10CA300091C3829713452400C5B793F7850099CB1E
:10CA4000B727002083A707C5FC5791C382971345DA
:10CA50008400D9B793F7450099CBB727002083A767
:10CA600007C5BC5791C382971345440075B793F728
:10CA7000050281CFB727002083A707C683A7070930
:10CA800091C382971345040241BF93F7050181CFFB
:10CA9000B727002083A707C683A7C70891C382973B
:10CAA0001345040195BF939725010145E3D607F689
:10CAB000B7270020938707BE83C6770003C66700A9
:10CAC00083C5570003C54700EFB0402F096505BF78
:10CAD000411126C2B7240020B72700201306801179
:10CAE000814522C42A84138504BE06C623AE07CE20
:10CAF0004AC09730FE1FE78080780145EF20600F25
:10CB00000145EF204016B7270020A385879EB70771
:10CB1000D707138404BEB1075CC8B7C70C0C938752
:10CB200007101CCCB7C7D707938707105CCCF177E9
:10CB3000938707102310F40281477D47232AF40CC2
:10CB40008327040C2328E40C61671307F79F372918
:10CB50000020D98F130989A32320F40C2324F40C7B
:10CB60008347E9000327440CA30C0402A306F40A3C
:10CB7000A30AF40AF977FD17231BF40E231CF40E05
:10CB8000FD47230DF40E93073030231DF402231EBE
:10CB9000F4022326E40CEF103FC59307C01C2317B3
:10CBA000F4068547A30FF402835749000357090190
:10CBB000A301A400A983A30CF4068D472311F40458
:10CBC000232204049306B00F938704BE63F4E600A7
:10CBD0001307B00F931507012395E7022397E70288
:10CBE00003C7C703C1811386E500118B51C3139797
:10CBF00065001307073D83C6D70342074183239689
:10CC0000E702918AADCA939665009386063DC206F7
:10CC1000C1822398D7026D45938404BEAE8663F328
:10CC2000A500ED462391D40293058014BA8663745F
:10CC3000B700930680141307C01C2390E70437073E
:10CC400016000E06130707902392D7022393C702FC
:10CC50002394D702D8DBEF80403FEF400027EF70EE
:10CC6000407B2244B2409244024941016F60C05D62
:10CC70001317360049B79316360051BF397122DCBD
:10CC80003704400026DA4ED6AE84AA899305E4FF25
:10CC9000054506DE4AD8EF101FBE498C1317040164
:10CCA000418321839317840013590401D98F2316DC
:10CCB00001001379F90F10088A854E852317F100BA
:10CCC000A306210102C002C202C402C802CA02CCE9
:10CCD00002CEEF7010308347E1010347D101A381F9
:10CCE0008400A2074207BA970347F10121802382FB
:10CCF0008400BA97F25062542380F40013D787005F
:10CD0000C183A3822401A380E4002381F40042595B
:10CD1000D254B25921618280B725002037250020E6
:10CD200001111946938505A5130585CB06CE22CCA6
:10CD300026CA4AC891644EC69730FE1FE780804DD0
:10CD40009385F4FF0145EF10DFB02A84FD550145BE
:10CD5000EF107FB2A287FD147D5933F79700B366B9
:10CD6000E500D5CA631425016307970A372400201C
:10CD7000130704BE2304F70EA18393E707FC916910
:10CD8000C1642322A70EA304F70E130404BEFD19E9
:10CD9000FD14CE850145EF10DFAB2A89FD55014515
:10CDA000EF107FADB3672501EDD7FD576314F50094
:10CDB000E30139FF935705012306F40E93578501CC
:10CDC000A306F40E8317840D2315A40E2307240F46
:10CDD0004205135989001379F9034185A307240FEC
:10CDE000658DE58F6312F5020317C40E8317A40D3A
:10CDF000658FE58F631AF7000317E40E8317C40DE0
:10CE0000658FE58FE307F7F8F2406244D244424968
:10CE1000B24905618280A6850145EF109FA32A844F
:10CE2000FD550145EF103FA5A28705BF411126C260
:10CE3000B724002006C622C44AC0938704BE03C795
:10CE4000E70383C7F703636AF70001442285B24012
:10CE5000224492440249410182802A89930510208C
:10CE6000130580079730FE1FE780C01D2A8471DDFF
:10CE7000130680078145938404BE9730FE1FE78028
:10CE8000004063150900C1572302F400BC48A1EF1C
:10CE9000E0C4A0C8E0C8232004008547238FF40223
:10CEA0008547A302F400930700F9A303F400B72712
:10CEB00000209387C7D1D84B9C4F38C47CC4FD5702
:10CEC0002309F400B727002003C5C7A42302A40642
:10CED000EF70703183472406A308A40093E737005E
:10CEE0002301F406A5B7FC4880C3E0C82320040052
:10CEF00083C7E40385075DB78347A501411122C4B9
:10CF000006C69907A306F5003C4511472306E50030
:10CF10002380E7003C450347D5002A84A380E7002F
:10CF200083471503858B91E70347050389476319F9
:10CF3000F70038448347070093E707042300F7000E
:10CF4000284493052403194609059730FE1FE780FE
:10CF5000602C28440356A4010C5421059730FE1F71
:10CF6000E780402B930730F9A303F400B24022443A
:10CF70004101828041114AC037290020930709BE30
:10CF800083A7470A06C622C426C299E3054515AA07
:10CF9000AA84130909BEEF70304A8327490A829791
:10CFA000EF30704E2A847DD19C50EC442324F50848
:10CFB00003C774009307A009631BF710854723007C
:10CFC000F51483C7F4052303F514A303F51483C7ED
:10CFD000F50003C705010148A2074207BA9703C736
:10CFE000E5001546F905BA9703C735FF1305841305
:10CFF0006207BA97232CF40883C755FF03C765FF60
:10D00000A2074207BA9703C745FFBA97232EF40831
:10D0100083C775FFA30BF40283C795FF03C785FF82
:10D02000A207D98F231CF40283C7B5FF03C7A5FF4E
:10D03000A207D98F231DF40283C7D5FF03C7C5FFFD
:10D04000A207D98F231EF40283C7F5FF03C7E5FFAC
:10D05000232E0413A207D98F231FF4028147232C08
:10D06000F4129730FE1FE780E01AF8448347370236
:10D07000FD8BA30AF40203473702ED1793F7F70F6E
:10D0800015832308E4022D476368F7028357A4033E
:10D0900005679306A7C7E917C207C18363EEF600C9
:10D0A0008356C4039307301F63E8D7008357E40314
:10D0B000130707C8637EF70203558400EF30305929
:10D0C0000145B240224492440249410182808327B3
:10D0D000890C13971701E35C07EEBC4403C70700F4
:10D0E00083C70500F98F9583858B2300F514C5B59B
:10D0F0008327890A228582978327090D0355840097
:10D10000294693F7072091E3054693050008EF5061
:10D1100070598327890C139717016359070003552A
:10D120008400514693050008EF50D0578327C90467
:10D13000BC4B13974700E35B07E403C54400A38996
:10D140000400494693050008EF50D05581B5B72734
:10D15000002083C717BE411122C406C626C24AC09A
:10D160002A848DEB0347C40085476316F70E834777
:10D17000940303471404858B631DF70C194693052C
:10D1800024041305A4039730FE1FE780A019B334CD
:10D19000A00091A883471504CDC7834775041307E2
:10D1A000000493F7070C639EE708485521C513094F
:10D1B0002404CA851305A502EF50D05B8547AA84D5
:10D1C000631AF502485489472300F4048347350065
:10D1D0001946CA8593E72700A300F4045105973048
:10D1E000FE1FE7802003B240224426850249924474
:10D1F000410182800347C40085476304F7048347E5
:10D20000C405918B9DEF8347840385EF13050404C8
:10D210009740FE1FE780C0DC48D405C5894723003E
:10D22000F4048347350019469305240493E7270047
:10D23000A300F40451059730FE1FE780A0FD85444C
:10D240005DB783478403898B91DF5C5483C71700E4
:10D2500091FB814449BF8347C405918B89FB834778
:10D26000940013F717000DC38346F4000D47639D28
:10D27000E60028406C402244B240924402494101F9
:10D280001743FE1F670083DD898BD5DB0347F4005E
:10D290009547E316F7FAF1BF4111B727002022C4E2
:10D2A00006C6938707BE23860706930710F9A303D4
:10D2B000F500B727002003A487CF0DC0B7270020B3
:10D2C00003C5B79E8545EF108F849307102733055C
:10D2D000F50222832244B24041010283B24022443B
:10D2E000410182808347650199C703476500631444
:10D2F000F7006FF07FFA0347550111CF83466500B1
:10D300006382E6022303E500B727002003C5B79E2A
:10D3100089456F009FB5F1DF0347650079FB230363
:10D32000F500DDB7F9D7E5BF6C45314783C7150078
:10D3300093F7F7032307F5006386E70093070008D8
:10D340003E85828083C705000D47BD8BA307F5008E
:10D35000E396E7FE41114AC01309250322C419468A
:10D360002A84A1054A8506C626C29730FE1FE7809B
:10D3700060FB9147630805166C44194613052404A5
:10D3800083C7050089059987858BA300F40497302E
:10D39000FE1FE78020E82285EFF07FDBA1476303D3
:10D3A000051424449D472306F4002380F400854798
:10D3B0002381F400A381F4001946CA851385440033
:10D3C0009730FE1FE78000E583C7240003C73400C1
:10D3D000990793F7F70F136787002381F400A38160
:10D3E000E4003844BA9703576406A381E70083C773
:10D3F000240038448346D4053E978357640692063A
:10D40000A183BD8BD58F2302F70003C7240081477A
:10D4100009071377F70F2381E4000356A40183461D
:10D42000C40501CA93F70604E9E7F957998F93F702
:10D43000F70F93F6060495C203C63400344413660E
:10D440000604A381C400369783461401A301D700C4
:10D4500003C7240005072381E4000356A401014704
:10D4600019CE63EEC70083C7240028440C548D07EF
:10D470003E959730FE1FE780E0D90347A40183C69D
:10D48000240093F7F60385073E97A306E400238163
:10D49000D40083471403858B91E70347040389472E
:10D4A0006319F70038448347070093E70704230014
:10D4B000F7003C448345D400A380B7000345F4053E
:10D4C000930790F9A303F400EF70405E0346D40085
:10D4D0008345F4050D459740FE1FE780A0D8EF7007
:10D4E000A0758147B2402244924402493E854101E1
:10D4F0008280F55725BF6C451307200283C71500AE
:10D5000093F7F7032307F5006391E714411122C451
:10D5100006C626C283C7050015472A84BD8BA3070C
:10D52000F500639CE7021946A10513052503973012
:10D53000FE1FE78020DF9147630305106C44194606
:10D540001305240483C7050089059987858BA300EB
:10D55000F4049730FE1FE780E0CB2285EFF03FBF59
:10D56000A14771CDB727002083A7C7A28297244483
:10D57000A14708D02306F4002380F40085472381C7
:10D58000F400A381F4001946930524031385440095
:10D590009730FE1FE78000C883C7240099072381C6
:10D5A000F40083C7340093E72700A381F400834786
:10D5B000140481CB38448347070093E707F823001E
:10D5C000F7001946930524041385A4009730FE1F25
:10D5D000E78040C483C72400990793F7F70F13F738
:10D5E000F7030507A306E4002381F400834714032F
:10D5F000858B91E70347040389476319F700384493
:10D600008347070093E707042300F7003C44834562
:10D61000D400A380B7000345F4059307A0F9A30342
:10D62000F400EF70A0480346D4008345F4050D458F
:10D630009740FE1FE78000C3EF7000608147B24053
:10D64000224492443E8541018280930700083E8532
:10D65000828041114AC037290020032689D322C481
:10D6600026C206C6930700057CD2B727002083A7F1
:10D6700007D1B70533002A84D857719B1367170069
:10D68000D8D798431377F7CF98C398431377F7CF3A
:10D690001367072098C3372700200327C7D81447EC
:10D6A000CD8E14C7B70603009386862534CA545717
:10D6B000F59A54D70347E5059376F7079843137710
:10D6C00007F8558F98C324459D472306F5008546E6
:10D6D0002380F400A38104002381D4008347B5058F
:10D6E0000D476385E7001947639BE71E8547A381C4
:10D6F000F400194693052403138544009730FE1F58
:10D70000E78040B183C7240099072381F4000347D1
:10D71000B40599476316F70483C734001385A40042
:10D7200093E72700A381F40083471403898B638563
:10D7300007164C5483C72501638007161946D10587
:10D740009730FE1FE78000AD38448347070093E71A
:10D7500007F82300F70083C7240099072381F4000A
:10D7600083C7340003C7240093E78700A381F40034
:10D770003C44BA9703576406A381E70083C724009B
:10D7800038448346D4053E97835764069206A183A6
:10D79000BD8BD58F2302F70003C7240081470907FB
:10D7A0001377F70F2381E400035684018346C405F1
:10D7B00009CA93F7060463930710F957998F93F7F3
:10D7C000F70F93F6060495C203C63400344413667B
:10D7D0000604A381C400369783461401A301D70031
:10D7E00003C7240005072381E4000356840169EA86
:10D7F000014703C624008347A4059376F6038506F4
:10D8000036979A07D18FA306E4002381F40083475B
:10D810001403858B91E70347040389476319F700D5
:10D8200038448347070093E707042300F7003C448C
:10D830000347D400A380E700930760F9A303F40033
:10D840003844832789D3B8DFB727002083C7C7A808
:10D8500081EB37E50100814513056553EF001FC4D7
:10D86000B7270020032789D39387C7D1A381070057
:10D87000238207005C43014593E717005CC303461E
:10D88000D4008345F4052244B24092440249410148
:10D890001743FE1F6700039D8347940381CB3844E1
:10D8A0008347070093E707F82300F700194693051D
:10D8B000A4039730FE1FE780E09571BDF557FDBDCD
:10D8C000E3E8C7F283C7240028444C508D073E95F7
:10D8D0009730FE1FE78000940347840119BF138728
:10D8E000E7FF1377D70F6313071093052503A38171
:10D8F000D4001946138544009730FE1FE7808091BD
:10D9000083C7240003C734001146990793F7F70F24
:10D91000136787002381F400A381E4003844BA9799
:10D9200003576406A381E70083C724003844834675
:10D93000D4053E97835764069206A183BD8BD58F8D
:10D940002302F70003C72400814709071377F70F65
:10D950002381E4008345B4058346C4056399C5006B
:10D9600093F70604D1E3F957998F93F7F70F93F6DE
:10D97000060495C283C6340093E60604A381D4004E
:10D980003444369783461401A301D70003C724000B
:10D9900005072381E4000346B4059146014763135C
:10D9A000D6020356840119CE63EEC70083C7240054
:10D9B00028444C508D073E959730FE1FE7808085A8
:10D9C000034784010346B4059146B7270020938797
:10D9D00007BE6313D61883C6C70693F6060F93E6F1
:10D9E00056002386D70631B5F557BDBF93F7B70F5D
:10D9F0000547E39FE7DEA381F4009305250319465D
:10DA0000138544009730FE1FE780C08083C7240041
:10DA100099072381F40083C7340093E72700A3818B
:10DA2000F4008347940381CB38448347070093E78E
:10DA300007F82300F700834714031385A400898B9C
:10DA4000E5CB4C5483C72501E5C71946D10597207E
:10DA5000FE1FE780207C38448347070093E707F8E0
:10DA60002300F70083C7240003C734000546990745
:10DA700093F7F70F136787002381F400A381E40075
:10DA80003844BA9703576406A381E70083C724008C
:10DA900038448346D4053E97835764069206A18393
:10DAA000BD8BD58F2302F70003C7240081470907E8
:10DAB0001377F70F2381E4008345B4058346C4053B
:10DAC0006399C50093F70604D1E7F957998F93F747
:10DAD000F70F93F6060495C283C6340093E6060456
:10DAE000A381D4003444369783461401A301D700A0
:10DAF00003C7240005072381E4000346B4058546D7
:10DB000001476313D6020356840119CE63EEC700A2
:10DB100083C7240028444C508D073E959720FE1F54
:10DB2000E780406F034784010346B405854671BD15
:10DB30008347940381CB38448347070093E707F872
:10DB40002300F70019469305A4039720FE1FE780E2
:10DB5000606C09BFF5579DBF83C6C70693F6060FD5
:10DB600093E66600BDBD011156C2B72A00205AC017
:10DB7000138B0ABE83274B0906CE22CC26CA4AC87D
:10DB80004EC652C4639607202A840945EF702013BD
:10DB900037290020032689D393070005B7290020E1
:10DBA0007CD283A709D1372A0020B7053300D85784
:10DBB000938A0ABE719B13671700D8D798431377CF
:10DBC000F7CF98C398431377F7CF1367072098C30D
:10DBD0000327CAD81447CD8E14C7B706030093860F
:10DBE000862534CA5457F59A54D703476400937670
:10DBF000F7079843137707F8558F98C38347A40016
:10DC00003844BD8B2306F4002300F7001D4724444D
