:040000006F00C0705D
:1000040000000000000000009000002072020020A8
:10001400A9BDF9F5940000200000000000000000D4
:10002400960000209800002000000000000000005E
:100034009A000020000000009C0000200000000046
:100044009E000020A0000020A2000020A4000020A8
:10005400A6000020A8000020AA000020AC00002078
:10006400AE000020B0000020B2000020B400002048
:10007400B6000020B8000020BA000020BC00002018
:10008400BE000020C0000020C2000020C4000020E8
:1000940001A001A001A001A001A001A001A001A054
:1000A40001A001A001A001A001A001A001A001A044
:1000B40001A001A001A001A001A001A001A001A034
:1000C40001A001A001A0B71700409306700523808A
:1000D400D704130780FA2380E7040100010003C654
:1000E400B7041376F60DA385C7042380070413769B
:1000F400050259CE03C6A700118A1DE22380D70446
:100104002380E7040100010003C7A7001367470029
:100114002385E7009307004B01000100FD17EDFF65
:10012400B7170040930670052380D704130780FA9D
:100134002380E704010001007D892394A7000100C6
:10014400010001000100238007042380D7042380D9
:10015400E704010001003727004093061005A303BC
:10016400D78023800704B717004013077005238046
:10017400E704130780FA2380E7040100010003C7A2
:10018400B70413670708A385E70423800704828064
:100194001376050441C603C6A700418A1DE22380E5
:1001A400D7042380E7040100010003C7A7001367F5
:1001B40007012385E7009307007D01000100FD1777
:1001C400EDFFB7170040930670052380D70413078B
:1001D40080FA2380E704010001001376F501136619
:1001E40006042394C70001000100010001002380DC
:1001F40007042380D704130660042380E7046318EC
:10020400C5000100010037270040894689BF01006D
:100214000100372700409306200591B72380D704B7
:100224002380E7040100010003D787001367070C4C
:100234002394E7000DBF41118146014681451145D4
:1002440006C6B12AB7170040130770052380E704D8
:10025400130780FA2380E7040100010003C7670441
:10026400136717002383E70423800704B240410186
:10027400828081460146814511451522B717004009
:10028400130770052380E704130780FA2380E7042B
:10029400010001007D572396E70203C76704136733
:1002A40017002383E7042380070401A0BD47330517
:1002B400F50201007D1575FD8280411122C426C21C
:1002C40006C6AA84014463179400B24022449244AF
:1002D4004101828005041305803E4204C13F4180F0
:1002E400DDB72303048015472303E48001002302C0
:1002F400A480828083076480E3CE07FE2303048006
:10030400828083076480E3CE07FE034544808280B5
:1003140083076480E3CE07FE2302A4808280411118
:1003240026C44AC24EC006C61377F50BAD47AA8948
:100334002E8995446306F70019456537653F8D445A
:100344004E854537FD59FD1463983401B240A244EB
:100354001249824941018280135509011375F50F31
:10036400453F2209CDB7011126CC06CEB7040800BB
:1003740051371545BD37713769372AC6A53F324510
:100384009377150089EB136515001375F50FF2408B
:10039400E24405618280FD14E9FC0145CDBF397159
:1003A40026DC4ADA4ED852D656D45AD25ED006DE6D
:1003B40062CE66CCB7E700E07D5783AA070022C669
:1003C40003AA470023A0E71823A2E718B7170040A1
:1003D400130770052380E704130780FA2380E704DA
:1003E40083C74704930B75FFB684E20793FBFB0FA7
:1003F4008546AA892E8B328937240040E18701572C
:1004040063FA76016308D500894613070002631373
:10041400D5000157D98F93F7F70FB71C00402382FB
:10042400FC0411472303E4801305F00F5D3D094CE0
:10043400D135636D7C11B7050700DA95378707005E
:10044400795563F2E504B3879500636EF702370BC1
:100454000800A94733EB65016399F90689E48144EF
:10046400513D26850DA0DA850945553D050903450D
:10047400F9FFFD14050B693D81C49377FB0FFDF76C
:10048400DD3569FD7D55B7170040130770052380DE
:10049400E704130780FA2380E70403C74704418B6A
:1004A4002382E704F250B7E700E023A0571123A208
:1004B4004711E25432445259C259325AA25A125B79
:1004C400825B724CE24C21618280A5476395F906F8
:1004D40085691309F00FB3069900B3742B01B69420
:1004E4001349F9FFB3749900856B33796901416B42
:1004F4009387F9FFB3F7270199E363FC340193D998
:100504004900C147E3E637FF99BF0569C1697D1911
:10051400D9B71305800D638869011305000263844C
:10052400790113051008CA85DD3B353D21DD4E995F
:10053400B3843441D9B7DA852D45D533CA94E30061
:1005440099F205097D3BA30FA9FED5BF9387F9FF57
:1005540093F7F70F6361FC0C83C71C04130730087F
:10056400631FF70437070800636BEB04B3079B00B2
:10057400B706100063F5D704334BEB008947639348
:10058400F9068980D549E38C04ECDA850945413BB9
:1005940011090327C9FF91472320E48003076480DE
:1005A400E34E07FE23033481FD17EDFBFD14110B0D
:1005B40081C49377FB0FE9FF7D3371F5E1B5B7177C
:1005C400004003C75704B70708001377070219E36D
:1005D400B78707007955E378FBEA33079B00E3FF0D
:1005E400E7F855B58547E382F9F2DA852D45053BF1
:1005F4009389F4FFE38504E6293393F7390091EBFB
:10060400832604800327090093074900E39AE6E45C
:100614003E89CE84F1BFB5476396F9001305900B6C
:10062400C93135BDB1471305B00AE38BF9FE9947CB
:100634006391F904B7050800B365BB002D45C531C6
:1006440081448D4BA14975396396740183270480D5
:100654002320F9008504E39834FF832704801317CB
:100664002B01635507002312F900D5BB2322F9009F
:10067400FDB39D476399F90281451305B0044531E3
:10068400BD442320090023220900FD599D3993F715
:100694007400CA9703C70700FD14398D2380A7008F
:1006A400E39634FF6DBBA1476392F9046D3981442D
:1006B400630D0B008D479304C0036308FB00930490
:1006C400000563048B01930440041375C507E30814
:1006D40095D81945393139390545213126850D39E2
:1006E40009453D314931E31C05D669BB91476399FE
:1006F400F90013056006F536F53E130590090DB7AC
:08070400E38F09D4F154A9BBF5
:10070C00971100209381418F178100201301C18E16
:10071C0013054000970500209385058E17060020D1
:10072C00130606FE63FAC5008322050023A05500BC
:10073C0011059105E3EAC5FE170500001305853484
:10074C00970500209385450B170600201306C60A53
:10075C0063FAC5008322050023A0550011059105FD
:10076C00E3EAC5FE170500201305050997050020CF
:10077C00938585086377B500232005001105E36D8B
:10078C00B5FEFD42739002BC8D4273904280930281
:10079C00800873A00230970200209382E28593E2D6
:1007AC0032007390523097020000938202017390D2
:1007BC001234730020304111054506C622C426C2EE
:1007CC004AC0DD221305800497000020E780208FAB
:1007DC001304A00F91208144A9281309A00F8504AC
:1007EC00B3F7840291E39520252809ED0545970080
:1007FC000020E78000ACE5B713052003970000202C
:10080C00E78020AB31286DF9630524011304A00F98
:10081C00F1BF13044006D9BF854537054000D5A06C
:10082C00B717004003A5470C5981134515000589DE
:10083C008280371700408327870A8D4513050010E7
:10084C0093E707102324F70A11A8371700408327D2
:10085C00870A93C707102324F70A8280914763EE17
:10086C00B702170700001307671F8A05BA959C414A
:10087C00BA978287B717004003A7470B1345F5FFBC
:10088C00698F23AAE70A03A7070B698F23A8E70A36
:10089C0003A7070A798D23A0A70A8280B717004007
:1008AC0083A6470B1347F5FFF98E23AAD70A83A615
:1008BC00070B558D23A8A70A83A6070A758F23A0BB
:1008CC00E70A8280B717004003A7470B498F23AA7A
:1008DC00E70A03A7070B1345F5FF45BFB717004001
:1008EC0083A6470B1347F5FF758F23AAE70A03A7C7
:1008FC00070A598D4DB7B717004003A7470B498F0F
:10090C00EDB7914763EEB7021707000013074716C0
:10091C008A05BA959C41BA978287B717004003A7FE
:10092C00470D1345F5FF698F23AAE70C03A7070DA5
:10093C00698F23A8E70C03A7070C798D23A0A70CBC
:10094C008280B717004083A6470D1347F5FFF98E39
:10095C0023AAD70C83A6070D558D23A8A70C83A615
:10096C00070C758F23A0E70C8280B717004003A7F4
:10097C00470D498F23AAE70C03A7070D1345F5FF75
:10098C0045BFB717004083A6470D1347F5FF758F7A
:10099C0023AAE70C03A7070C598D4DB7B7170040D6
:1009AC0003A7470D498FEDB721E1B7170040130797
:1009BC0070052380E704130780FA2380E704010005
:1009CC00010003C727021377F7072381E70203D738
:1009DC000702420741831377F79F42074183239015
:1009EC00E702238007048280411106C622C426C276
:1009FC004AC0010037140040130970052300240578
:100A0C00930480FA2300940401000100834724021C
:100A1C00294593E707082301F4028357040293E75F
:100A2C0007402310F40297000020E780A0872300E2
:100A3C00240523009404010001008357040293E76A
:100A4C0007202310F40223000404B24022449244F1
:100A5C0002494101828000001CFEFFFF44FEFFFFA3
:100A6C006CFEFFFF84FEFFFF9EFEFFFFAEFEFFFF4E
:100A7C00D6FEFFFFFEFEFFFF16FFFFFF30FFFFFF5E
:00000001FF
