:020000021000EC
:100000006FA0E2130000000000180118002801286A
:100010000228032800290129022903290429052986
:10002000062907290829002A012A022A032A042A64
:10003000052AA62A9CA50300961E01005A0200204C
:10004000A40200201602002004020020CC0100209F
:10005000202101004C21010028220100DE230100A3
:10006000822401000C1D0100301C0100A21C0100B3
:100070005C1C01000E290100F0030020F6200100A5
:1000800008260100D64D0300CE4F03004650030062
:10009000CC070300E0070300605702004849020054
:1000A000BE4703003E260100FE100300A6DC01004F
:1000B00034DD01008CDD0100FC310100483201001B
:1000C000B2300100869901004A940100F4A20100B7
:1000D000C4A6010070AA0100A686010044860100A2
:1000E0002E8A0100F28601001A8601009E86010018
:1000F000CC85010076870100CE8701007E87010054
:10010000828701001C880100D68701000888010051
:100110002A8D0100328D0100728701007A8701006B
:100120001A8801002E8D0100CA880100668E010028
:10013000BCB801003AB9010078B90100B29B0100D6
:10014000CA9B0100069C0100468001002A81010033
:1001500092810100465001008C4B0100587601004D
:100160000A4C01009C710100AA840300B8810300BD
:10017000A48B03000E9C0300DE9A0300E29E0300A2
:10018000CA9E0300DA9E03008A9F0300E66F030005
:100190001A9F0300D8920300FE92030026930300E7
:1001A000FA9F0300D89803006E9803006AA003002A
:1001B00048720300E47203000C730300AE72030084
:1001C000382B03006E160300FC19030052170300BE
:1001D000D22003005E480300444703001A70030066
:1001E000002B010008090300DE100300D6110300F4
:1001F000523F0300F23F0300A2410300B89F0100F9
:10020000E62A03005221030082270300EA230300A9
:100210002216030016060020CE090300069F0300E5
:10022000CE9E0300D69E0300D29E030098230100B9
:10023000049D01000E9F0300322D0300842E030055
:10024000E42E0300E28B03000A9F0300129F0300C9
:10025000D4480200169F03008A0F00209614002045
:10026000000000000000000000000000000000008E
:10027000000000000000000000000000000000007E
:100280006373B60082801C419105110523AEF5FE13
:10029000C5BFB7270020372700209387879C130707
:1002A000C7F26373F700828023A007009107D5BFD0
:1002B0005DCDAA870145D5CD8D07C207C183F19BCE
:1002C000C207C18313074003636CF702372700207E
:1002D000032587B637270020832607B66397A60233
:1002E00037270020032787BF014541C74111C207B7
:1002F00006C60545DD8D0297B24001454101828069
:1003000037270020032547B6F1B70357650031EFC3
:1003100003574500636BF704B72600203306F74008
:100320002148938606B76378C8028328050003D85E
:100330006600138687001D8F2A9661172312E60038
:10034000232016012313060010C12312F500130702
:1003500088FF2393E6002313B50083D566002105AB
:10036000B387F5402393F6008280084185BF01459D
:100370008280828009CDB727002003A387B6B727E4
:10038000002083A807B681469A8763E3170182801D
:1003900003A807006369F50A6367A80A1387870043
:1003A000E367E5FE03D66700216705076319E600EA
:1003B00037260020034746A50507230AE6A437266B
:1003C0000020130506B783D5470003576500239324
:1003D0000700130606B72E97420741832313E50053
:1003E0006387670237250020032545B66301F502C0
:1003F00003D5660009ED83D7460023A00601210737
:10040000BE95A1052392B6002313E600B687984354
:10041000E30F17F7B726002083A646B6E309D7F601
:1004200083566700ADF683D64700835547001843CF
:10043000A106AE962392D70098C383576600A10702
:100440002313F6008280BE86C28781B719CD91CD75
:1004500009CE81473387F500834607003307F5004F
:1004600085072300D700E397C7FE828019C991C989
:1004700009CA910583A7C5FF11057D16232EF5FE38
:10048000C5BF828001C919C62A960505A30FB5FE0E
:10049000E31DA6FE828081473307F50003070700AE
:1004A00019E33E8582808507C5BF01112E8626CAC5
:1004B000AA84131506019305F004418122CC06CECF
:1004C00032C6FD332A8401C53246A68541372285CE
:1004D000F2406244D24405618280854715C18DC1D6
:1004E00005C28147B306F5003387F50083C60600D1
:1004F000034707006398E6008507E315F6FE854786
:100500003E8582808147EDBF9307F6FFBE952A9610
:100510006313C5008280FD1583C715000505A30F71
:10052000F5FEFDB7AA87014581CF09CE3E96850726
:1005300003C7F7FF6317B700E31BF6FE054582808C
:10054000828001458280797126D2B724002022D48E
:1005500003A444BC06D64AD04ECE52CC56CA5AC882
:100560005EC662C44DC43729002037CAC901B72905
:100570000020814B372B0020130989BC130AFA375E
:10058000938909B7B70AC0A88357240099EF5C4440
:10059000639A0B0023A2F4BC032CC4002285D93B30
:1005A000628499A823A6FB00C5BF8327CBC082978E
:1005B000830669011C4463D806063307F54063626D
:1005C000EA0823A809008355240003450400972066
:1005D00001E0E78020DD5C405844A1CF1444B69789
:1005E0008306690163C7060063E55701B7064057F4
:1005F000B6971CC4A28B3A8441F8B7270020938792
:1006000007B7984B894663F2E606791798CBB25044
:10061000225492540259F249624AD24A424BB24B96
:10062000224C45618280E37AF5F83387FA402A97B5
:1006300079B763950B0023A2E4BCB9BF23A6EB00F6
:10064000A1BF0327490219CB63DD06003385A7400C
:1006500083A709016374F50023A8A900A28B404475
:1006600061BFE3F5A7FED697D5B723A8070045B726
:1006700001114AC837290020832709BA06CE22CCA7
:1006800026CA4EC652C456C25AC081C7829723207A
:1006900009BA930709BADC4337240020130404BACB
:1006A00091C38297832709BA63900718B724002063
:1006B000938784E783C75700938484E7858B8DC332
:1006C00003C77400A3820400914763FBE700EF00B7
:1006D000904783C77400F9178A07A2979C438297B3
:1006E000372A002093078AEB83C7C700130A8AEBD7
:1006F000918B99C3EF1020351C4491C38297372406
:100700000020B7290020930704B703A709BC03C63C
:100710001700930A04B7834704B793961700BA9655
:1007200083D60600C1CA834704B763EDC708832791
:1007300009BA230804B6EDEB83C7940091CB83C7B5
:10074000740099E7A3840400971003E0E780809089
:10075000B727002083A7C7C0E1CBB707C0A823A84D
:10076000FA00D533B7270020938787BCD8534DCFE5
:1007700083C7570103A70A016368F70A03C7740018
:10078000914763E3E70A8347CA00918BD1EF83C6A1
:100790001A0003A609BC63C3D70A6244F240D244DC
:1007A0004249B249224A924A024B0561172301E0AD
:1007B0006700839B850793F7F70F2308F4B6E3ECF4
:1007C000C7F495B786073E978355070023100700A7
:1007D000034504B7B727002083A7C7B9131725001F
:1007E000372B0020BA979C43231E0BBA829783575E
:1007F000CBBB034704B793C7F7FF7D8D9317170053
:1008000003A709BC3E97835707005D8D2310A700FF
:10081000834704B781C785072308F4B6034704B7A5
:1008200083C71A00E375F7F0F2406244D2444249AC
:10083000B249224A924A024B0561828013971700FF
:100840003297035707006DF38507B1B7AD6737C718
:100850000040BD072326F7200F100000B727002017
:10086000938707B7C84F83278726BD66BD0693C702
:10087000F7FF99836A052326D7205D8D8280411179
:10088000B7170040985F3AC6945F3247E39CE6FE94
:10089000324541018280828003278511630007125F
:1008A000411122C406C68347C5008345C5042A8476
:1008B00093F7C70F2306F500834697000356C7003A
:1008C00013958601618563F1C508635A05060345E2
:1008D000870093F6F607A304D700054693E62700A2
:1008E0006314C50093E617002306D4005C43890710
:1008F0005CC3A30AB400032504112E864C430905EA
:10090000B1368327841103465401D44303D7C7006B
:10091000B296118FD4C32396E7008947A30DF40044
:10092000B72700200347440383C7A7BD6378F704B4
:100930008347C40093E707012306F40081A093E7EF
:1009400017002306F40075B79376F60F635D050272
:1009500003458700854513E627006314B50013E6B9
:1009600017002306C400A30AD400A3040700854788
:10097000A30DF400832784119C43DDF3B24022448D
:1009800001454101828093E717002306F400A30A82
:10099000D400A3040700032504114C4309057D344A
:1009A0008327841103465401D44303D7C700B2966A
:1009B000118FD4C32396E7008D475DBF0545828024
:1009C000B727002083A787E6411122C406C6858B7E
:1009D0002A84DDEB4165130525F5976002E0E78089
:1009E00000345DC18347A5002315F5008327041259
:1009F000B5E72320A4122322A41285472310F40470
:100A0000232005008347640154412316F500034762
:100A1000D4002304E5000547A304E50037270020A0
:100A2000032707E91385170215811C437D151375EC
:100A3000F50F9CC25C43DCC21C479CC65C47DCC60D
:100A40001C4B9CCA5C4BDCCA1C4F9CCE5C4FDCCE62
:100A500019CD9386060213070702C1BF83274412EC
:100A600088C3835704042322A412850741BFB727F4
:100A70000020938707D503D7870005072394E70055
:100A8000B2402244410182808347C400230904000C
:100A9000054593C747002306F400DDB7834785016A
:100AA00093F7E70FD5E783479501DDE3034625017B
:100AB0008346C50009CA37270020834545030347FD
:100AC000B7BD63E7E50013F7060141C7014709C653
:100AD000C18A0357851B81C68356C51B369735CB04
:100AE000B727002083D687B9B7470F00938707241D
:100AF000B3C7D7021307C712411126C222C406C6C4
:100B00007D543357F702B727002083C717BEB3843D
:100B1000E700B727002083A6C7DD83A7060963F394
:100B200087003E849442F5FAB727002083A7C7C008
:100B3000829781476364A400B307A440B240224473
:100B4000B3B7970093C7170092443E854101828056
:100B500081473E858280797126D206D622D44AD03A
:100B60004ECE52CC56CA5AC85EC68347350303449C
:100B70007513AA843E941374F40F9307400263F62E
:100B800087001304B4FD1374F40F03AA841383AA1B
:100B9000C413A38B841222865285D68597A003E0C6
:100BA000E7806086058915E503CBD41201498149A8
:100BB000337B6403930B50024A865285D68597A0F7
:100BC00003E0E7804084058915C5639169031374C8
:100BD000F90F238B8412B250225492540259F249D5
:100BE000624AD24A424BB24B456182808509E20992
:100BF00093D989410509E31179FDE1BF832785096F
:100C00000356E503797193D60701BD8EC206C182F2
:100C1000358E1357764093575640898B058B5D8FE1
:100C200093573640918B5D8F93571640A18B5D8F04
:100C300093171600C18B5D8F9317360093F7070249
:100C40005D8F931756009355860093F707041E0691
:100C50005D8F1376F60F518F93D7554013D63540DD
:100C6000118A898BD18F13D67540D18F13D6154039
:100C7000218AD18F13961500418AD18F13963500A2
:100C800013760602D18F13965500137606049E053F
:100C9000D18F93F5F50FCD8FA20745465D8F3307B2
:100CA000C70222D42A8426D252CC56CA032A8413DD
:100CB000832AC4135AC806D63697420741839357EE
:100CC0007740135557400989858BC98F1355374095
:100CD0001189C98F135517402189C98F1315170022
:100CE0004189C98F1315370013750502C98F131574
:100CF000570093558700137505041E07C98F137796
:100D0000F70FD98F13D5354013D755401189098B6B
:100D1000498F13D57540498F13D515402189498FC7
:100D2000139515004189498F1395350013750502F8
:100D3000498F13955500137505049E05498F93F54A
:100D4000F50F4D8F2207D98FB387C7024AD04ECEF9
:100D50005EC662C4B697C207C18313D7774013D566
:100D600057400989058B498F13D537401189498F21
:100D700013D517402189498F139517004189498F51
:100D80001395370013750502498F1395570093D5B6
:100D90008700137505049E07498F93F7F70FD98FC6
:100DA00013D5354013D755401189098B498F13D579
:100DB0007540498F13D515402189498F139515002A
:100DC0004189498F1395350013750502498F139595
:100DD0005500137505049E05498F93F5F50F4D8F4A
:100DE0002207D98FB387C702130650025285D685D2
:100DF000B697BD8E93940601C18033F6C402137B6F
:100E0000F60F979003E0E780006005890DED8347BA
:100E1000D41201498149B3849702130C5002C18056
:100E20004A865285D685979003E0E780C05D0589A4
:100E3000937BF90F11C563863403850993F9F90F84
:100E40000509E31F89FD230B6413B2502254925409
:100E50000259F249624AD24A424BB24B224C456196
:100E600082805E8BCDB70111B727002022CC03A46E
:100E700087E026CA4AC84EC606CEAA8413092500B2
:100E8000854915C083C7140003473400858B63046C
:100E9000F700405CFDB71946930544004A85EFF022
:100EA000CFE3E31835FF2285F2406244D244424941
:100EB000B249056182804111B727002022C403A4F2
:100EC00087E026C24AC006C693042500054901E80A
:100ED0002285B24022449244024941018280A68583
:100EE0001305A40297B002E0E780A075E30225FF96
:100EF000405CF1BF4111B727002022C403A487E062
:100F000026C24AC006C693042500054901E8228589
:100F1000B24022449244024941018280A6851305D1
:100F2000A40197B002E0E780C071E30225FF405CB6
:100F3000F1BF011122CC604126CA4AC84EC652C434
:100F400006CEAA841D4A130965058549BC4463641D
:100F5000F400054581A803C7D40083474400631B00
:100F6000470503C784026304F7000040C5B7034781
:100F7000540083C75405E31AF7FE1946CA851305C2
:100F80006400EFF08FD5E31235FF0347C40083C739
:100F90009402E31CF7FC0357E40083D7A402E31692
:100FA000F7FC0145F2406244D2444249B249224A28
:100FB00005618280E31BF7FA0347540083C7540599
:100FC000E315F7FA1946CA8513056400EFF0EFD070
:100FD000E31D35F9F9B70111B727002022CC03A48E
:100FE00007E026CA06CE2AC42EC6854419E4014568
:100FF000F2406244D24405618280834791000347F6
:101000001400858B6304F7000044CDB7194693059F
:10101000A10013052400EFF04FCCE31795FE054522
:10102000C1BF011122CC37240020032744E92AC67E
:101030002EC432C206CE3C4B93F7F7F73CCB970059
:1010400003E0E78060FE032744E9B72600203C4B1D
:1010500093E707083CCB83A7C6E63245A24523A009
:10106000070003471500034825002207420842975E
:10107000034805004297034835006208429798D715
:10108000034755000348650022074208429703487A
:10109000450042970348750062084297D8D7034736
:1010A00095000348A500220742084297034885009F
:1010B00042970348B5006208429798DB0347D50082
:1010C0000348E5002207420842970348C50003454C
:1010D000F500429762052A97D8DB03C7150003C5C0
:1010E0002500220742052A9703C505002A9703C554
:1010F000350062052A9798CF03C7550003C56500E0
:10110000220742052A9703C545002A9703C57500A3
:1011100062052A97D8CF03C7950003C5A50022070B
:1011200042052A9703C585002A9703C5B5006205C5
:101130002A9798D303C7D50003C5E50022074205C7
:101140002A9703C5C50083C5F5002A97E2052E97A7
:10115000D8D3D843759BD8C3D84313671700D8C3D7
:1011600098431367170098C3124603A7C6E65C436B
:10117000858BD1EB1C4F01452300F60083A7C6E603
:101180009C4FA183A300F60083A7C6E69C4FC183B2
:101190002301F60083A7C6E69C4FE183A301F60076
:1011A00083A7C6E6D84F2302E600D84F2183A302C7
:1011B000E600D84F41832303E600D84F6183A303A1
:1011C000E60098532304E60098532183A304E60025
:1011D000985341832305E60098536183A305E600F5
:1011E000D8532306E600D8532183A306E600D8533C
:1011F00041832307E600DC53E183A307F600F240B6
:1012000062440561828001008DB75D7136D4B726D6
:1012100000203AD203A706E73ED04ACA1C5F4EC858
:1012200086C6998396C49AC29EC022DE26DC2ADA3C
:101230002ED832D642CE46CC72C676C47AC27EC092
:10124000858BB68937290020ADCF1C5F372400205D
:10125000930484E793F7F7F91CDF930784E783C7C8
:101260006700130700086319F7008327C9E69C434A
:1012700093F707042383F400834784E793F7070475
:1012800089CFB727002083A7C7C0829788C8834724
:1012900084E793F7F70B230CF4E683C7440093F736
:1012A000070485E38547A382F400B727002083A7BE
:1012B00047E9096798C7130700FC2382E400D84474
:1012C000F8D383A709E7985F1183058B19CB985F43
:1012D00085463D9B98DF37270020130787E72302C9
:1012E000D700985F1D83058B01CF985F1377F7F7C1
:1012F00098DFB7270020938787E705472382E70019
:101300008327C9E6D8430583058B19C7D843759B46
:10131000D8C3D843799BD8C37254B640A64216436B
:101320008643E2545255C2553256A256125782573E
:101330007248E2485249C249324EA24E124F824F81
:10134000616173002030B7270020B726002003A674
:1013500047E9938786E703C786E7058B11C7238292
:101360000700A3820700828003C71700058B65FB77
:10137000785275F303C75700EDB7372800200327CD
:1013800008E71C5F9583858BC5EB0DC6B72700204A
:10139000839867D9030306001C5BBD83630B0308B6
:1013A00093F7F71FB38717419A970947B3C7E70227
:1013B0002300F60085CA832708E7985B4607935702
:1013C00067016356070093E707C0C207C18303970D
:1013D0000600C207C18709C7BA970947B3C7E70222
:1013E0002390F60037270020130787E78DC983472E
:1013F000150095C7034667009386970091471376BB
:10140000060415C6369583460500054693F5F6068F
:10141000639FC500E206E186B14763CA06008327E1
:1014200008E79C5FED838D8BA305F70081473E8520
:101430008280B3871741ADBF8947D5BF411122C410
:1014400006C63724002026C2032744E959E5AE87A3
:101450007453FDFEB7240020938484E73E85B28553
:1014600023810400970003E0E780609AB7270020FB
:1014700083A707E7B70680009843558F98C3D857CE
:10148000719BD8D7832744E9A3820400A38004007A
:10149000094798C3B7F700E003A707D16D9B23A8BE
:1014A000E7D003A707D15D9B23A8E7D073005010B6
:1014B000832644E9B7270020938787E703C72700DF
:1014C000058B19E703C73700058B59C7238207002F
:1014D000B24022449244410182808D47631FF5004F
:1014E000B727002083A707E7B70680009843558FEA
:1014F00098C3D857719BD8D765BF8547E31AF5FACB
:10150000B567BD075CC70F100000832744E9096772
:10151000930600F898C737270020130787E72302B0
:10152000D70037270020832607E7094698423183F2
:101530000D8B6319C7001307E043F8D33D673D07E0
:10154000D8C7BDB7984231830D8B01E713076019E7
:10155000EDB71307E01BD5B7F8522DF395BF5D71BA
:101560004EDEB729002003A709E786C6A2C4A6C29B
:10157000CAC052DC1C4337290020372A002093F7C9
:10158000F7E793E707081CC3832689ED3707CEFFEB
:101590007D179C46130680022A84F98F9CC68327F8
:1015A0004AE9130700082800B8CBAE849305100859
:1015B000EFE05FED970003E0E78000A7970003E00E
:1015C000E780E0B283A709E79376F41FB70EFCFF2C
:1015D00023A40700984B130510F8CE851367F70373
:1015E00098CBF84F4A88B70F0400137707E0558F60
:1015F000F8CF9843F576FD16758F98C39843B706D4
:10160000330091421377F7E798C39843FD1E854353
:101610001377F7E71367071098C3032789ED130FB4
:1016200080021C47D58F1CC783274AE91307900DFA
:101630003400B8CB014793583700A69883C70800F9
:1016400013767700B3D7C740858BC5CB83A705E753
:10165000032E88ED239C0704239007060323CE0264
:101660001373D3FF23266E0203AE07001373F7072D
:10167000137E0EF833636E0023A0670003A34702B6
:101680003363F30123A26702014303DE0706630706
:10169000C30303A30703038E06001353F30062037F
:1016A0001353834163586E0003A307031353F300DE
:1016B0002380660003D307061373F30F03DE870549
:1016C000E3F5C2FD03A347023373D30123A26702EC
:1016D00083870600635CF40003C308003396C300ED
:1016E0001346F6FF337666002380C8003E8663D338
:1016F000A7002A8613158601618505071377F70F62
:101700008506E31AE7F3B640264496440649F259A3
:10171000625A61618280011132CA372600203EC4BC
:10172000832746E93AC636C8D8472ACE2ECC931628
:10173000170163D2060298479316170163DD06006E
:101740007D57B8D737270020130707B7544F8506B2
:1017500054CF116798C798470D83058B0DC3372762
:101760000020130787E78346270093E6160023012E
:10177000D700930600F82302D700214798C798475F
:10178000058B09CF37270020130787E7834617000B
:1017900093E61600A300D700054798C7984709832A
:1017A000058B09E798470583058B21CF9447372799
:1017B0000020372500208982858A638806108326C9
:1017C00005E79442B1828D8AF5EEAC4B930687E72C
:1017D000944E93F5050283C61600DDCDEDE2930627
:1017E0007006D4CF834687E793E61600230CD7E62E
:1017F000114798C7032705E75C57F19B93E717004C
:101800005CD7032746E91C479396370163D4060249
:10181000B7270020938607D503C60607938707D509
:10182000418A55CE83C7060793E707022388F60649
:1018300085671CC71C479396270163D10602B7270B
:101840000020938787E783C64700E206E18663D5D9
:10185000060085462382D70089671CC71C479396DC
:10186000070163D20602B7270020938707D583C6F6
:101870001707858AC9C683C6170793E62600A3887B
:10188000D706A1671CC77245E2455246C246324799
:10189000A247056173002030B9D285456395B60033
:1018A0009306B0063DBF89456395B6009306F006E2
:1018B0000DBF8D456395B600930630071DB793069F
:1018C000500705B79306600729BF130787E78346CC
:1018D000370093E61600A301D700094719BF83C656
:1018E00007070946BD8A6388C60083C607070D46F9
:1018F000BD8AE39FC6F291462388D70615BF83C6EB
:101900001707918ABDDE83C6170793E6860085BF59
:10191000B726002037270020938786EB130687E938
:101920000346B60183C7D700938686EB130787E982
:10193000B29793F7F70F7D466361F604A300F700B3
:1019400083471700484B05463316F600A386F6007A
:10195000698E05EE03C6160113080002814633F6B0
:10196000C7028147B355F500858993F8F70F99C9E8
:101970006317D600A300170182808117C1B78506BF
:1019800093F6F60F8507E39F07FD8280B7270020B7
:1019900083A7C7C0011122CC26CA52C406CE4AC8AA
:1019A0004EC656C25AC08297B7240020938784EB54
:1019B0008047014A6306A406B7270020138787BC27
:1019C00003076701938484EB138987BC635507067B
:1019D000018D37270020930787E983C7A701135498
:1019E0005500137AF501930987E96368F402B70A91
:1019F000C0A8370B4057293F83C6A9019C441397C1
:101A000056003E9783076901158C63C50700636321
:101A100057015A9798C4E370D4FE1604336A440100
:101A2000F24062445285D2444249B249224A924A23
:101A3000024B05618280E37D85F8B707C0A8338437
:101A40008740229579B7B727002083A7C7C04111E7
:101A500022C44AC006C626C28297372900209307AF
:101A600089EB80476308A406B72700208387E7BD7A
:101A7000130989EB63D80704018DB72400209387ED
:101A800084E983C7A70113545500938484E96363F1
:101A9000F404BD3D83C7A401032789009396570032
:101AA00036971D8C2324E900E375F4FE224403C518
:101AB0001400B2409244024981454101170303E0FA
:101AC000670023B2E37A85FAB707C0A8338487405A
:101AD000229565B7B2402244924402494101828076
:101AE000B727002003A787EDB75702009387079F0A
:101AF00083260709139656006358060083260709B4
:0E1B00001396660063440600FD17FDF3828015
:101B1000B72700203727002083A787B6032707B6FB
:101B200001456313F700828083D6670081E683D680
:101B3000470036959C43F5B7B727002083A587BC9F
:101B400037270020938787BC138605222324C7B636
:101B500003D74700938785FFB72600204111BA9726
:101B6000056523A0F6B606C61D05935637006374B7
:101B7000E500930600203307D600372500202322F6
:101B8000E5B623A0E522E1162312D60023130600B2
:101B90001CC3998FE1172312F700231307008D3F11
:101BA000B240B7270020239BA7B641018280B72708
:101BB00000203727002083A787B6832607B6014574
:101BC0006393F600828003D7670011E703D74700CD
:101BD0006373E5003A859C43E5B7B7270020B72635
:101BE000002083A787B603A606B62A87B305B540AB
:101BF0006314F6003A8529A8938687009C43E3691D
:101C0000D7FEE377F7FE2E85E3E4D5FEE3F2F5FE9B
:101C1000828023AC05FE1C4191E7010001000CC14C
:101C20008280BA8703A787FF6DFF23ACB7FE82804F
:101C30001DC18346E5FF1307F00F9147639EE60041
:101C4000411106C697E0FE1FE780004BB240814776
:101C50003E854101828095473E85828001E90145AC
:101C600082800145B2402244410182809565411144
:101C7000938505D022C4C98D2A842105C205420559
:101C8000C181418106C697E0FE1FE780A03A71D965
:101C9000FD5723200500231285002303F5002105AD
:101CA000D1B7411126C2B724002083A7C4B622C4ED
:101CB0004AC006C60144014989E7A1650D2715C43C
:101CC00001A803C7E7FF6319A70205CCA16589290D
:101CD00003A7C4B6832784FF6317E40223A6F4B6E0
:101CE000FD57232C04FE230FF4FE2285B24022442C
:101CF000924402494101828011E03E8983A787FF17
:101D000065BF3E84E5BF232CF9FED9BFB1CDB7270F
:101D1000002083C717B7411122C406C62A842E8526
:101D20006375F400894763E8870019370D45B240B1
:101D300022444101828083A785FF99E703C7E5FF1D
:101D40009307F00F6305F700E5351545CDB7372547
:101D50000020238F85FE1305C5B6653D22852244EC
:101D6000B240A16541016DAE15458280B7270020C4
:101D700023A607B68280B727002083A747BC99E334
:101D80003E85828003D727006316B70003C707008C
:101D9000E308A7FEDC47E5B7BDCD797122D406D6AE
:101DA00026D24AD04ECE01444147B3D78540858BD9
:101DB000B1CF1205314722953305E502B727002040
:101DC00003A947C08544B3948400C204C180BE897E
:101DD0002A990327090011C7032549002EC6029737
:101DE000B24531473304E40283A749C03E941C4402
:101DF00089E72320090023220900B2502254A58D2F
:101E000002599254F2492E85456182800504E31EF1
:101E1000E4F88144DDB72E858280411113970501D6
:101E200022C406C626C24AC041872E84635E0700CC
:101E30008D3D11C1F53BA1673D8C2285B240224406
:101E40009244024941018280EDD9AA870147414667
:101E5000B356E440858A9DCA9207BA97B146B387C4
:101E6000D702B726002003A946C08544B394E400F6
:101E7000C204C1803E998327090003254900829747
:101E80002320090023220900258C45BF0507E31103
:101E9000C7FC8144D5BFB727002083A787BE411167
:101EA00022C406C6372400201304049991C78297E0
:101EB0001C403E9508C031A0B727002083A7C7C0AB
:101EC000FDF70840B74703009387D73F3305F50276
:101ED000B7A72600938737ECB2403E9508C022444E
:101EE000410182800111680006CE22CC26CAEF3063
:101EF000816EFD57630BF50C37240020930684BCDC
:101F000083C756013247130484BC63F5E70AB7243C
:101F10000020938404B798483706C0A8630BC70213
:101F2000B727002083A7C7C0829732479C486373B6
:101F3000F700BA8703475401998F3E9583076401E0
:101F400063CE0700B707C0A8636AF500B70740571C
:101F50009DA88386660163D406061D8D3724002064
:101F6000930784E79C4F130484E799CBB72700209D
:101F700083A687ED3707CDFF7D179C46F98F9CC65A
:101F800019E13705C0A8B727002083A7C7BE8297ED
:101F900019E51C4C85C3EFF04137EFE011181C4CDC
:101FA00091CBB727002003A787EDB70633001C4766
:101FB000D58F1CC7F2406244D24405618280E37E23
:101FC000F5F8B307F7403E9551BF372400201304BE
:101FD00004B71C48B704C0A8E38E97FCB7270020BD
:101FE00083A7C7C0829737270020130787BC834683
:101FF00057011C48958F3E9583076701E3C007F69C
:10200000E36E95F4A1B76DC53748F6A6130808C866
:1020100089476360C80E7971B727002022D45AC857
:1020200003A847C03E8B06D626D24AD04ECE52CC0D
:1020300056CA5EC662C40144B148C147B30B14031B
:10204000137CF40F3303780103230300631D03089B
:10205000AE8AC165AA84938505F041453A8AB6895E
:10206000328997E0FE1FE780E0FC05E9B7270020F2
:1020700083A787BF99EF8147B250225492540259E7
:10208000F249624AD24A424BB24B224C3E854561EC
:102090008280814511458297F9BFB726002003A7AA
:1020A00046BC15EF23A2A6BC2300050083274BC026
:1020B0000547331487002326050023242501231117
:1020C000850023224501DE9784C323A2570123A460
:1020D0004701E38209FA2380890171BF368754479B
:1020E000F5FE48C7D1B70504E31AF4F4A14769B770
:1020F00089473E858280B727002083A787C041118A
:1021000022C406C637240020130404B789C7829767
:102110005C483E9548C84848B2402244410182800C
:10212000B727002083C717B76370F5023727002051
:1021300093171500032507BC3E9583570500DD8DD9
:102140002310B500014582800D458280B72700200D
:1021500083C717B76372F50237270020931715005E
:10216000032507BC93C5F5FF3E9583570500FD8DFC
:102170002310B500014582800D4582809307F0024F
:1021800063E1A70A31463306C502B727002083A6BC
:1021900047C02A870945B2969C42D1C7011122CC7B
:1021A0004EC60544935947003D8B3317E400131482
:1021B0000701418026CA4E85AE84A2854AC806CE54
:1021C0005D3E2A89014563070904A2854E85BD3F0E
:1021D000B727002083A7C7C08297B727002083D7DF
:1021E00087B913070064B387970293870732B3D781
:1021F000E7023E95B72700208387E7BD63C9070044
:10220000B707C0A86365F500B70740573E9523247C
:10221000A9000145F2406244D2444249B2490561F5
:10222000828009458280828001114EC6B729002034
:1022300006CE22CC26CA4AC852C4938909B783C79E
:102240001900636BF5000145F2406244D2444249F3
:10225000B249224A05618280B727002083A7C7C000
:10226000FDD3328A2E89AA84829703D489029307E8
:10227000006433044403130404323354F402B727D4
:102280000020138787BC03076701938987BC2A94C2
:1022900063490700B707C0A86365F400B707405754
:1022A0003E94CA852685C13C01C500C5054569BF68
:1022B00093E504F0C205C181414597E0FE1FE78028
:1022C00060D701E983A70903BDDFA6851145829781
:1022D0009DBF37270020832747BC8DE32322A7BC5F
:1022E00085472326050000C52311250123009500FD
:1022F000A300F5002322050055BFBA87D84775FF14
:10230000C8C7F9BF41C9797122D426D24AD04ECE6E
:1023100052CC56CA5AC85EC662C406D6B689B28ABC
:102320002E8A2A899304000C4144372B0020054C47
:10233000930B000383274BC0A6979C43A1E793759B
:10234000F400B315BC00C2055686C1811355440084
:10235000E13D0DC983274BC00145BE9423A0240154
:1023600023A244016384090023808900B2502254CF
:1023700092540259F249624AD24A424BB24B224C21
:102380004561828005041374F40FB104E31474FBF7
:102390002145E9BF09458280411122C426C24AC0B5
:1023A00006C6AA842E8932844135CA852685E13243
:1023B0000DC5B727002003D687B9930700643306FD
:1023C0008602130606323356F60250C10145B2406A
:1023D000224492440249410182802145CDBF4111EE
:1023E00022C426C24AC006C62A892E846932AA841B
:1023F00019C123110500A2854A85893BB727002012
:1024000083C707B763992701B727002003D7C7BB46
:10241000598C239E87BA014591E01945B240224468
:1024200092440249410182809307F00263E8A704C5
:102430004111B14722C43304F50226C2B72400205B
:1024400083A744C006C6A2979843894715C39377CC
:10245000F5008545B395F500C205C181118141376D
:1024600083A744C0A29723A0070023A207008147A7
:10247000B240224492443E854101828089473E8594
:102480008280411106C622C4FD3011E50145B240EB
:10249000224441018280B727002083A7C7C000459E
:1024A0008297B72700208387E7BD63D50702B74728
:1024B000F6A63305A4409387F7C7E3E9A7FC930783
:1024C00000643305F502B727002083D787B9335559
:1024D000F50275BFE37DA4FCB707C0A83E94C1BF59
:1024E0004111B727002006C623A4A7C00295B24019
:1024F000B727002023A4A7B801454101828099474E
:1025000063E9B700B72700208A05938707BABE950D
:1025100088C182803725002041117146814513050D
:1025200005BA06C622C426C23724002097E0FE1F43
:10253000E78080CD1306C002130504B7814597E0FC
:10254000FE1FE78060CCEFF02FDFB727002023A22B
:1025500007BCB727002023A407C0B727002083C7E4
:10256000F7BD130404B7854513D527008D8B3E9521
:102570008D473305F5029947B724002039051375B7
:10258000F50F2301A4003305F5021305052497E098
:10259000FE1FE78020AAB727002023A2A7C08347F9
:1025A00024001305052423AEA4B88A073E95B72757
:1025B000002023A0A7BCEFF06FFB19218347140074
:1025C00083A6C4B937260100139727003697130650
:1025D00086D910C3138717001377F70F0A0737261A
:1025E000010036971306A6E110C313873700890749
:1025F00093F7F70FA300E400B24022448A07B6978E
:1026000090C392444101828037270020130707B707
:10261000834717008346270063F0D702B7260020C0
:1026200083A6C6B913861700A300C7001397270017
:10263000369708C33E8582809307F00FE5BF1C41A3
:10264000638F071041777D8FB70600208947631994
:10265000D7100357450063050710411126C21946DC
:10266000AA849305F00F690506C622C44AC097E004
:10267000FE1FE78060C305478D47630BE50C3729D4
:102680000020930789BC9C47130489BC91C7585804
:1026900099475DEF185C4DEF1306C00381451305A4
:1026A00089BC97E0FE1FE78020B61306C003A6850D
:1026B000130589BC97E0FE1FE78080B18357C400F3
:1026C00089E7930700102316F4008347E40081E7AD
:1026D00085472307F4008357040181E7ED4723185A
:1026E000F4008347F40081E79547A307F40083478C
:1026F000240181E785472309F4008347340189E7F2
:102700008347F400A309F4008347440181E7B547F8
:10271000230AF4008347940189E793078002A30CFE
:10272000F4008347540189E79307D002A30AF40019
:1027300083C7840189E79307C003230CF4001C546A
:1027400091C78297B7270020239CA7B6E133814722
:10275000B2402244924402493E8541018280894729
:102760003E858280B727002083A7C7C0411106C6D7
:10277000829793070064B307F5023727002093067A
:1027800007B703D68602944E0145B3D7C702638FBD
:10279000F600130707B73385D74063E8F60037051F
:1027A00000B03355C502158D3E951CCFB240410196
:1027B0008280011122CC2E84B7A503000A854146F0
:1027C0009385052906CEEF705221180806043A9425
:1027D000B7270020035504FF83D7A7B9F24062440E
:1027E000AA9737450F00130505243355F5020561F7
:1027F0008280B727002083D7A7B951471D45637C46
:10280000F702794719456378F70213072003154546
:102810006373F7021307B0041145637EF7001307D3
:1028200040060D456379F700130760090945637495
:10283000F70013B5B70F8280011122CC06CE2A848F
:102840002EC6EFF04FE5B245F240818D33A5A502CB
:10285000229562441375F50F05618280011122CC27
:1028600006CE2A842EC6EFF00FE3B245F240818DEA
:1028700033A5A5022295624442054181056182800B
:10288000011122CC06CE2A842EC6EFF0CFE0B2454D
:10289000F240818D33B5A5022295624405618280A4
:1028A000B7270020138787BC18572DC3411122C4B6
:1028B00026C24AC006C6138987BC0297B7270020E4
:1028C000138707B7035787002A84938407B70DCB74
:1028D000BA876373A700AA87C207C183BA866373E6
:1028E000E400A286C206C182958F5147635AF70061
:1028F0008327C90291C38297EFE0F10D23948400EE
:10290000B240224492440249410182808280B7272A
:102910000020138787BC5857011122CC06CE1384A0
:1029200087BC01C72AC602973245B7270020938784
:1029300007B73727002015C1B7863200938626A136
:1029400094D72326A7C03725010013054576493EB5
:10295000F24062440145056182808346640113961A
:102960008601618663550602B7863200938626A1EA
:1029700023AE070094D7B7C70040FD5623A4D7263F
:10298000B70700209387C75C2326F7C06DBF13F6F7
:10299000160019CAB7862003938606D094D7B707C6
:1029A00000209387E75FCDB761762394C70291C675
:1029B000930600322395D702DDB793062003DDBFCF
:1029C000011122CC37240020930784BC884706CE0F
:1029D00026CA4AC801E90545F2406244D244424948
:1029E00005618280130484BC5C58F5D7185C65D7F8
:1029F0007000854582971844B247E30EF7FC0355F3
:102A0000C4009305E004B724002097D0FE1FE780A0
:102A10006062138704B708D3938404B74DDD03566F
:102A2000C4009305F00F014997D0FE1FE780C07DD9
:102A30008347E4009050634DF900328597D0FE1F24
:102A4000E780806B014523A0040223A2040269B73A
:102A50008355C4000844185CB387250389810509A0
:102A60003E9508C20297E9B7411122C437240020DD
:102A7000930784BC9C4726C206C6B72400204AC0E0
:102A8000938404B791EB88503DE1B24022449244D4
:102A90000249014541018280130484BC1C5CE5D7D6
:102AA0009C5091EB0355C4009305E00497D0FE1FA2
:102AB000E780405888D0885079D50356C4009305E4
:102AC000F00F014997D0FE1FE78000748347E400B0
:102AD0009050E35AF9FA8355C4001C44338525030A
:102AE000898105093E951C5C08C28297C5B797D0BD
:102AF000FE1FE780606023A0040223A2040271B7D6
:102B000001114EC6B7290020938789BC9C4726CA6D
:102B10004AC852C406CE22CC56C25AC02A8AAE84B3
:102B20003289638C071E938989BC03A7490363021A
:102B300007127D476361A71237240020130704B7EB
:102B4000832A0702130404B7639A0A0803D5C9004D
:102B50009565938515E097D0FE1FE780A04D08D0BE
:102B60002A8665C983D5C90083A7490303A58900BF
:102B70008981829783A78900832A04025CD08947D0
:102B80006316FA08C1476396F40C83D5C9009147D0
:102B9000938505FCB3C5F5028A05D69503C70500E4
:102BA0009307A0056313F70A83C71500639F4709BE
:102BB0004A852686910597D0FE1FE78060611C50EC
:102BC0005685639357130145F2406244D24442490B
:102BD000B249224A924A024B056182805850E380F2
:102BE000E7FA03D5C9009565938525E097D0FE1FC8
:102BF000E7804044AA8A31CD83D5C9002A8683A7BD
:102C0000490303A589008981829795BF8D47631B7E
:102C1000FA00C147639FF40283D5C900938545FD3F
:102C2000F199A5BF91476318FA006394440383D5D3
:102C3000C900A115F5B7C147631DFA00A14763EAB2
:102C4000970083D5C900C115E1BF1C50568563911B
:102C5000570D294595BF1307F006636CA708930A23
:102C600005FE1947B3CAEA0203D7C900372B002073
:102C7000B38AEA02BE9A93070BB7DC53130B0BB768
:102C80006395570103240B021DE003D5C90093058A
:102C9000E00497D0FE1FE780E0392A845DD983D510
:102CA000C90083A749032A86898156858297914561
:102CB0001307A005898193972500A29783C6070073
:102CC0006393E60483C61700639C460385058A0563
:102CD0002686A2954A8597D0FE1FE780604F8327FE
:102CE0000B02E38287EE228597D0FE1FE780C0406B
:102CF000D9BD1307E007E36EA7F4930A05F9ADB752
:102D000083D5270045BF83270B02E38487F4228500
:102D100097D0FE1FE780403E2DBFB727002083A538
:102D200007B985D991479306A00589831397270092
:102D30002E9703460700E31ED6F003461700631CD8
:102D4000460185078A072686BE954A8597D0FE1FCD
:102D5000E78000488DBD83572700C1BFB7270020FB
:102D6000938787BC984729C3985F1DCF8546631D0D
:102D7000D502411122C437240020130404B7105097
:102D800006C619CE83D5C7004850898102970850DE
:102D900097D0FE1FE780403623200402232204023E
:102DA000B2402244410182808280011122CC37242A
:102DB0000020930784BC56C283AA870026CA4AC84B
:102DC0004EC606CE52C42A89AE84B289130484BC8E
:102DD000638B0A1C1C5C99EB2945F2406244D24487
:102DE0004249B249224A924A056182805C58EDD735
:102DF000FD4763E7A70C372A002093070AB79C53C7
:102E0000130A0AB7B9C7084483274A02639FA70475
:102E100089476317F906C147E390F4FC0355C400E2
:102E20009147130505FC3345F5029317250003254B
:102E30000A022686CE853E959307A0052300F5005D
:102E4000A3002501110597D0FE1FE78060380145DA
:102E500069B70355C4009305E00497D0FE1FE780CF
:102E6000601D2320AA0245F185BF8355C4005C582C
:102E700003260A02898182971C442322FA0249BF51
:102E80008D47631CF900C147E398F4F40355C4006F
:102E9000130545FD9377C5FF59BF91476318F900A6
:102EA000E39C24F30355C4002115EDB7C147E31596
:102EB000F9F2A147E3E297F20355C4004115D9BFE7
:102EC0009307F00663E9A706930705FE1947B3C702
:102ED000E7020357C400372A0020B387E702BE9AEF
:102EE00093070AB79C53130A0AB7A9CF83274A024C
:102EF0006396570703250A0291461308A005FD555E
:102F000093D72600C207C183139727002A97034649
:102F10000700631406078348170003562700639CC5
:102F20002805B306D64063C6960485078A07268619
:102F3000CE853E9509BF9307E007E3EFA7E8930727
:102F400005F941BF0355C4009305E00497D0FE1F67
:102F5000E780400E2320AA0251F9BDBD8355C4006D
:102F60005C5803260A0289815685829723225A03D8
:102F700051B7A300B700B28661B70356C400B3854A
:102F800096009105130606FCE3F8C5E413863400A9
:102F90001376C60F1106B29623000701A30027017E
:102FA0002311D70059B7372A002093070AB79C533B
:102FB000130A0AB7A1C303250A0291461308A00504
:102FC000FD5593D72600C207C183139727002A9780
:102FD00003460700631206058348170003562700BF
:102FE00063982801B306D640E3D196F4A300B70056
:102FF000B286C1BF0345E4008357C4009305E004D3
:103000003305F5024205418197D0FE1FE78080021B
:103010002320AA024DF1C9B30356C4008345E4003E
:10302000B385C502338696001106E3E7C5DAB9BF5A
:103030000145828083C705002300F50083D7250062
:10304000A300F50083D72500A1832301F50083C7E2
:103050004500A301F50011458280B727002023A673
:10306000079CB727002023A4079C828029C1411117
:1030700026C206C622C4AA8401458DC52E84B7A5E2
:103080000300228541469385052A97D0FE1FE780DD
:10309000201483C7040005452306F40083C71400E9
:1030A000A306F400B24022449244410182800145CB
:1030B0008280011122CC26CA06CE0947AA84328416
:1030C0006381E50441468147639BC500638FE60049
:1030D0006397B6000DA841478147638EE600F24032
:1030E0006244D2443E85056182808A852285BD3F47
:1030F00041468A8519A88A85953F41468A85228559
:1031000031A0E39AB6FC2E86A285268597D0FE1FB5
:10311000E780E014AA87E1B7B727002023A4A79C83
:103120008280B727002023A6A79C8280011122CC91
:103130000354650006CE26CA4AC84EC641C083293C
:103140008500AE842A8803C90900814713178901C5
:10315000618763550702B147054563FA8704511437
:10316000420403552800418033878900A2864E8699
:103170008545EFD0A052B337A00085077D141355C5
:103180006900420405891379F90341802380F40022
:10319000A380A4002381240123928400014719C045
:1031A0001387190098C409476383E7000145F2407B
:1031B0006244D2444249B249056182800545C5BF97
:1031C000C167F917630AF502D94763F7B70201111E
:1031D00022CC2EC606CE2A84EF908019B2456368B1
:1031E000B50022856244F24005616FA0B037F2401D
:1031F000624405450561828005458280C167F917F3
:103200006314F5006F90C016411106C6EFA050245C
:1032100011E15D45B2404101828091476394F5021E
:10322000834705002300F600834725000347150068
:10323000A207D98F2311F6008347350001452302E9
:10324000F6008280114582804111814522C426C248
:1032500006C6AA8405252A8409E9B727002083A782
:10326000879C81C7F945268582972285B2402244F2
:1032700092444101828039714ED656D25AD006DE30
:1032800022DC26DA4AD852D4AA8A2E8BB28941EFA0
:1032900036C6AD379145EF90601FAA844D492DC9C0
:1032A000B246054A238034010544630A0B00B68503
:1032B00013851400029B0505131405014180E209E2
:1032C00093D9894163D30902C1455685EFA0902661
:1032D000654905E933868400A2852685EFC0507DC7
:1032E0002A8905E131044204418091472C08568522
:1032F000231CF10026CE231D8100EFA020302A8957
:1033000001C963070A00268597D0FE1FE780C0DE4B
:10331000F25062544A85D2544259B259225A925AB2
:10332000025B21618280BA84014AADBF011122CCC7
:1033300026CA4AC84EC606CE2A893284B689253F97
:10334000AA840DE1B727002083A7C79C81CF05473A
:103350006317E40003C4090005041374F40FA28585
:103360004A858297F240624426854249D244B24956
:1033700005618280AE86B735010001470546938519
:1033800045036DB783D705002300F50083D70500FB
:10339000A183A300F5000945828083D7050023009F
:1033A000F50083D70500A183A300F50083D725008E
:1033B0002301F50083D72500A183A301F500114562
:1033C000828083D705002300F50083D70500A18301
:1033D000A300F50083D725002301F50083D725003E
:1033E000A183A301F50083C755002302F50083C71D
:1033F0006500A302F50003D585001905420541814A
:10340000828083D705002300F50083D70500A183C0
:10341000A300F5000945828083D705002300F5004D
:1034200083D70500A183A300F50083D725002301DE
:10343000F50083D72500A183A301F5001145828003
:1034400003D54500060542054181828083D70500EA
:103450002300F50083D70500A183A300F50003D561
:103460002500090542054181828083D7050023009C
:10347000F50083D70500A183A300F50083D72500BD
:103480002301F50083D72500A183A301F50003D50F
:103490004500110542054181828083C70500230054
:1034A000F5000545828083D70500411122C406C678
:1034B0002300F50083D705002E841105A183A30EF8
:1034C000F5FE83D725009505230FF5FE83D7D5FF9D
:1034D000A183A30FF5FE03C6F5FF97D0FE1FE7807B
:1034E00020CF03454400B2402244110541018280AF
:1034F0008947639CF5008347150003470500014594
:10350000A207D98F2310F60082801145828003D74D
:103510000500D94763FEE702011122CC06CE2EC674
:103520002A84EF80F064B24683D70600636DF5000D
:1035300022856244F240B735010001470946938570
:10354000453805610DBBF240624409450561828042
:103550000945828091479DC583460500FD15C2053A
:103560008547C1816392F60213D725008D89914763
:1035700091E9914701CB05052301D6002310E60010
:1035800048C281473E85828009479147E39CE6FE19
:10359000C94733D7F502B3F5F502D1BFAE86B735CB
:1035A0000100014711469385A539F1B193F7350024
:1035B00091EB8981914789C52310B60048C28147A4
:1035C0003E8582809147EDBF03C745008947631A56
:1035D000F702011122CC2A84C84506CEAE860147E7
:1035E00019C52EC69D45EFE04FDFB2462A872285DA
:1035F0006244F240B735010019469385253C0561C8
:103600009DB90945828099E1114582808347050073
:1036100005472311F600E379F7FEFD1593F5F50F45
:1036200033D7F502B387E702E390F5FE050548C2FC
:103630002310E6000145828083C745000947AE8616
:103640006385E70041476399E700B735010001470B
:1036500021469385654A05B1094582802310B6004D
:1036600091E1014548C201458280AE86B73501002F
:103670000147294693852540FDBE2310B60091E100
:10368000014548C201458280AE86B7350100014739
:10369000314693858541C5B62310B60091E10145B9
:1036A00048C20145828003D74500854763FDE70294
:1036B000011122CC2A84884106CE0DC12EC6854533
:1036C000EFE0AFD12A8722856244B246F240B73597
:1036D0000100394693850544056171BEF24062449C
:1036E0000945056182800945828091479DC5034750
:1036F00005008D46914763F2E602FD15C205C181C2
:10370000B3C6E5023308D702639905010505231006
:10371000D6002311E60048C281473E85828083C7D8
:1037200045000947AE866385E70041476399E70096
:10373000B7350100014741469385654A2DBE0945CD
:103740008280B335B000139525008280011122CC10
:1037500026CA06CE03C785008547AA842E8449461B
:103760006310F702613C83572400491513062009B2
:1037700063C8A700F2406244D244094505618280D3
:103780000347940085476314F70013660604484016
:1037900011C58D4532C6EFE04FC43246A286624461
:1037A000F2402A872685D244B73501009385C54467
:1037B0000561D1B48D4763FFB70283471500034706
:1037C0000500F115A207D98F2310F60083473500B5
:1037D00003472500C205A207C181D98F2311F60036
:1037E0002312B60089C5110508C60145828023242D
:1037F0000600E5BF11458280011122CC2A8488454C
:1038000006CEAE8611C52EC69545EFE00FBDB24679
:103810002A8722856244F240B735010059469385D4
:10382000A546056189BCB335B0001395250082809B
:10383000AE86B7350100014761469385A54925BC91
:103840008547114563F4D702834716008345060078
:10385000A207CD8F2310F7009387E6FF2311F7000F
:1038600089476386F600090650C3014582802322FA
:103870000700E5BF0147814679468145EDBA83D708
:1038800005002300F50083D70500A183A300F50000
:103890000945828083C7250005472300F50003D52D
:1038A00005006397E7000A0505054205418182800E
:1038B000C9473305F502CDBF03D505000A0542050A
:1038C0004181828083D725002300F50003D50500C0
:1038D00083D725003305F502050542054181828025
:1038E00003D50500828003D50500828003D505003D
:1038F000828083D725002300F50003D5050083D7F8
:1039000025003305F502050542054181828083D7F4
:1039100005002300F50083D70500A183A300F5006F
:1039200083D725002301F50083D72500A183A301B8
:10393000F50003D54500110542054181828083D7FA
:1039400005002300F50083D70500A183A300F5003F
:1039500003D525000905420541818280894711452B
:10396000639BF60083471600834606000145A207C5
:10397000D58F2310F700828003D70500D947AE8684
:1039800063F9E700B745010001470D469385E587D8
:1039900071BA0945828011456393A60283471600D8
:1039A000834606000145A207D58F2310F700834701
:1039B000360083462600A207D58F2311F7008280A8
:1039C00083C725000547FD1793F7F70F6361F704D9
:1039D00083D705008DCF011122CC2A84C84106CEA1
:1039E00015C12EC68945EFE04F9F2A872285624484
:1039F000B246F240B74501001546938545890561F9
:103A00006FF0DF92F240624409450561828009450A
:103A100082809547114563F9D706411122C426C219
:103A20004AC006C683471600BA8403470600A207A9
:103A30003284D98F2390F400834736000347260051
:103A400093054400A207D98F2391F400894723826C
:103A5000F400094613855400368997C0FE1FE7809D
:103A600020779307A9FF2394F4009947631BF9007B
:103A700023A60400B2402244924402490145410178
:103A800082801904C0C4FDB7828083D705008DCF22
:103A9000011122CC2A84C84106CE15C12EC6854507
:103AA000EFE0AF932A8722856244B246F240B745E1
:103AB00001001D469385858B05616FF03F87F240BD
:103AC0006244094505618280094582809947639572
:103AD000F6048947411106C62302F7008347160002
:103AE00083460600B285A207D58F2310F7008347CF
:103AF00036008346260003464700A207D58F1305EC
:103B000057002311F700910597C0FE1FE780406C16
:103B1000B240014541018280D14711456394F600CE
:103B2000C1474DBF828083D705008DCF011122CCC4
:103B30002A84C84106CE15C12EC68945EFE0EF891B
:103B40002A8722856244B246F240B74501002546E5
:103B50009385458C05616FF06FFDF2406244094525
:103B6000056182800945828089471145639BF60083
:103B700083471600834606000145A207D58F231010
:103B8000F7008280011122CC2A84C84106CEAE867D
:103B9000014719C52EC68545EFE02F84B2462A8716
:103BA00022856244F240B74501002D469385058E7B
:103BB00005616FF0AFF711456393A60283471600C6
:103BC000834606000145A207D58F2310F7008347DF
:103BD000360083462600A207D58F2311F700828086
:103BE000011122CC2A84C84106CEAE8611C52EC64C
:103BF0008545EFD09FFEB2462A8722856244F24077
:103C0000B745010035469385658E05616FF00FF26B
:103C100093F71600114589EB89476387F600858283
:103C20002312D70010C301458280011122CC2A84BF
:103C3000C84106CE15C12EC68545EFD01FFA2A878A
:103C400022856244B246F240B74501003D46938565
:103C5000C58E05616FF08FEDF24062440945056144
:103C6000828083D705008DCF011122CC2A84C841E0
:103C700006CE15C12EC68945EFD03FF62A8722858C
:103C80006244B246F240B745010045469385258F10
:103C900005616FF0AFE9F240624409450561828039
:103CA00009458280854763FCD7022304A700A3044B
:103CB000B7008347160083450600A207CD8F231067
:103CC000F7009387E6FF2311F70089476386F60024
:103CD000090650C30145828023220700E5BF114534
:103CE0008280014781464D4681456FF02FE48D4724
:103CF000114563FBD7028347160083450600A207E0
:103D0000CD8F2310F7008347360083452600A20796
:103D1000CD8F2311F7009387C6FF2312F700638628
:103D2000A600110610C70145828023240700E5BFC5
:103D3000011122CC2A84884506CEAE8611C52EC636
:103D40009545EFD09FE9B2462A8722856244F2402A
:103D5000B74501005D469385E59005616FF00FDD85
:103D6000854711456397F600834706000145230008
:103D7000F700828001478146654681456FF00FDB81
:103D8000011122CC2A84C84106CEAE86014719C54E
:103D90002EC68D45EFD07FE4B2462A872285624445
:103DA000F240B74501006D469385E59305616FF0DC
:103DB0008FCC011122CC2A84C84106CEAE860147A1
:103DC00019C52EC68D45EFD05FE1B2462A87228500
:103DD0006244F240B745010075469385E59305615D
:103DE0006FF06FC9011106CE2EC6EF90906201C927
:103DF000B245F2400355250005616FD0607AF2406C
:103E0000494505618280B7270020A38C079EB7270C
:103E10000020238C079EB727002023A0079EB727EA
:103E2000002023A2079EB727002023A4079EB727C0
:103E3000002023A6079EB727002023AE079CB727A4
:103E4000002023AC079CB7270020239807C2130645
:103E50004038938707C32391C70271761307400B3D
:103E6000130606B82391E7002392C70211671D4687
:103E7000930600059305000A1305007D2392E700D1
:103E80002393C70241470546130810F82395E7001E
:103E90002396E7002399E700239AE700239BE70096
:103EA000239CE7002394E702239607032393B7009C
:103EB0002394B7002397D7002398D700239DA7000A
:103EC000239E0700239F0700239007022395C70224
:103ED000239707021308F007239807022392E704A9
:103EE0002393E704239FE7042390E7062391E70643
:103EF0002392E706239907031307C01C239AC702DE
:103F0000239BC702239C0702239D0702239E0702CF
:103F1000239F0702239007042391C70423940704D7
:103F2000239507042396C7042397D7042398D7041F
:103F30002399A704239A0704239B0704239C0704BF
:103F4000239DD704239ED7042393A7062394070613
:103F500023950706239607062397B7062398B706E7
:103F600023990706239AE7067D57239B0706239C80
:103F7000E7068280011126CAAA84214522CC06CEFA
:103F80002E8432C636C43AC2EFD05FCD1DC9A246D8
:103F900012473246930700FD2300F5009947A3001E
:103FA00095002301F5002303D500A303E5002312A8
:103FB000C500AA8522856244F240D24405616FD0D3
:103FC000FFD4F2406244D24405618280B7270020CA
:103FD00023A0A79E8280B727002023A2A79E8280CD
:103FE000B727002023A4A79E8280B727002023A6FE
:103FF000A79E8280011122CC4AC806CE26CA2A89F1
:104000000144B30489006368B400F2406244D244BE
:104010004249056182802EC6EFD0FFE79317050164
:10402000C183A183B2452380F4009307140093F762
:10403000F70F850463F9B700CA9709042380A70026
:104040001374F40F7DBF3E847DBF411122C4372419
:104050000020130404C103556400C16706C6FD17A0
:10406000630FF500B727002003C687D3B7250020CC
:104070009385059FEF90901AFD572313F400B240EB
:1040800022444101828009C925151375F50F1335A6
:10409000850E13451500828001458280239005001E
:1040A000C9C6797122D426D24ECE52CC5AC806D671
:1040B0004AD056CA5EC63684328AAE892A8B81447B
:1040C00063F34407B307940083C707001389140000
:1040D0004209939A070193DA0A011359090163848B
:1040E0000A04CA976341FA04B307240183CB07008B
:1040F0005E85513F0DC99387FAFF2390F9006390C5
:104100006B03130519002295B250225492540259A0
:10411000F249624AD24A424BB24B45618280D69400
:10412000C204C18071BF0145C5B70145828001113C
:1041300022CC3724002026CA4AC84EC6930704C1A1
:1041400006CE2E89D0CB8CCBC8C7AA844146930516
:10415000F00F4A8597C0FE1FE780001585491304BC
:1041600004C1631935030848C145693541469305C3
:10417000F00F268597C0FE1FE780001305496315E1
:10418000250348446244F240D2444249B249C14501
:1041900005618DB5414681454A8597C0FE1FE78080
:1041A000A010E31535FDC1B741468145268597C06E
:1041B000FE1FE780600FE30625FDF2406244D24413
:1041C0004249B24905618280411122C4372400204E
:1041D00026C24AC0AE842A8913060002814513050F
:1041E00004C106C697C0FE1FE7800002930704C102
:1041F000A3812701B7270020238E97D2EFD0803CE0
:10420000854719C1814749452308F4C0B24022447B
:104210009244024941018280814781CD19C9854775
:10422000631BF50083C7550093E707FCA382F500E5
:1042300085473E85828089476317F50083C755000F
:1042400093F7F703E5B70D478547E314E5FE03C78A
:1042500055001377F70313670704A382E500D1BF66
:1042600081478DC105C103C755009306000C8547E2
:104270001377070C6308D700930600048D47630388
:10428000D70089473E858280411122C4005D06C661
:1042900026C21DC8AA84085009C597C0FE1FE78022
:1042A000A0E5485009C597C0FE1FE780E0E4085428
:1042B00009C597C0FE1FE78020E4228597C0FE1F36
:1042C000E78080E323AC0402B240224492444101DF
:1042D000828019E9B727002083C727C191C73725F6
:1042E00000201305059D828037250020130585C217
:1042F0008280B727002003C527C18280B72700200E
:1043000003A5C7C18280B727002003A507C282800A
:10431000B727002083A747C288438280B7270020A1
:10432000938707C1D44B9842050798C203C537004D
:104330009307F00F6305F50091656FD07FDE8280F3
:10434000011122CC06CE2E8432C6EF90301D91474B
:10435000B2456310F502B727002083A7C79E95C317
:1043600003A30700630F030022856244F240056146
:104370000283B727002083A7479E81C703A3470076
:10438000D5B7F2406244054505618280011122CC17
:104390002A840355450006CE26CA4AC84EC6EF9069
:1043A00000763DC92A89834405008349C500E93D5B
:1043B0004A85EFA0207703554400EF90701137290C
:1043C00000201309899F83470900B9CB639A97049A
:1043D000B727002083C5979F2685293419E123003C
:1043E000090003554400EF9070139147631FF500D7
:1043F000B7270020938707C18356440003D767007F
:104400006395E6007D572393E700F2406244D2446F
:104410004249B2490561828081499304F00F45B752
:104420009307F00FE38FF4FA8346640003564400C9
:10443000034524004E87A685353E65B779715EC673
:10444000AA8B2E8552CC56CA5AC806D622D426D25A
:104450004AD04ECEAE8A328B368AEF90406A7DC10A
:10446000045D2A89E5C09C50614599C3130540034A
:104470009C5481C751054205418163050A007105BD
:1044800042054181DC5081C7590542054181EFD089
:10449000EFFC2A8445C96146814597C0FE1FE7802D
:1044A000A0D6B727002083C907C6639409008349B3
:1044B0000900930700FD2300F400A947A30074013D
:1044C0002301F400230364018C50231254011305CB
:1044D000840191C908C47146930A440397C0FE1F22
:1044E000E78000CF56858C5491C948C45146930A41
:1044F000450197C0FE1FE780A0CD5685630C0A00DA
:1045000008C87146D285930AC50197C0FE1FE7808F
:1045100020CC5685CC5099C548C8594697C0FE1F37
:10452000E78000CBA2854E85EFD04FFE2254B250DB
:104530009254F249624AD24A424BB24B4A850259DE
:10454000456199B3B250225492540259F249624AD9
:10455000D24A424BB24B4561828001114EC6AA89B4
:104560002E854AC806CE22CC26CA2E89EF90205925
:1045700021C9B727002083C407C699E083440500FA
:104580001945EFD0AFED2A8405CD8145194697C076
:10459000FE1FE78060C7930700FD2300F400B947C2
:1045A000A30034012301F40023122401A2856244F4
:1045B000F2404249B2492685D24405616FD00FF5D9
:1045C000F2406244D2444249B24905618280397165
:1045D0005ECEAA8B2E8526DA4ED652D456D25AD02B
:1045E00006DE22DC4AD8AE84328BB68A3A8ABE898D
:1045F00042C6EF90C05021CD2A894145EFD00FE649
:104600002A8431C54146814597C0FE1FE780C0BF5F
:10461000B727002003C507C619E103450900930722
:1046200000FD2300F400BD472301F400B247A300BE
:1046300074012312940023046401A304540123058C
:104640004401A30534015CC4A285EFD02FECF250E5
:104650006254D2544259B259225A925A025BF24BD6
:1046600021618280797126D2AA8439454AD04ECE02
:1046700006D622D42EC6B2893689EFD02FDE21C1CC
:10468000B2459307000D2310F500B1472A84231289
:10469000B5002301F500CE851905194697C0FE1F08
:1046A000E78000B323062401A2852254B2500259A8
:1046B000F24913F5F40F925445616FD02FE5B250D3
:1046C000225492540259F24945618280411126C216
:1046D000B7240020938404C103C7340006C622C453
:1046E0004AC09307F00F630CF7042A893945EFD0CD
:1046F000EFD62A8429C5930700FDB72500202300A3
:10470000F500A300250123010500938585C20D0551
:10471000194697C0FE1FE780A0AB83D78400A2850F
:1047200003C534002315F40083C714002306F400E6
:104730002244B2409244024941016FD02FDDB24081
:104740002244924402494101828001115AC02A8BBD
:10475000314526CA4EC652C456C206CE22CC4AC8DD
:10476000AE84B28A368ABA89EFD04FCF3DCD2A8443
:104770002685EF90C03811C50347C500A1476314D3
:10478000F704B727002003C937C1930700FD2300B2
:10479000F4009D47A30064012301F4002312940058
:1047A000231354012314440123153401A2856244C8
:1047B000F240D244B249224A924A024B4A854249C7
:1047C00005616FD0AFD4B727002003C9D7D3E31E4C
:1047D0000BFAB727002083A7C7AB9C47DDD7CE864F
:1047E0005286D685268582974DB7F2406244D244E0
:1047F0004249B249224A924A024B05618280011124
:1048000022CC2A84214506CE2EC6EFD02FC521C149
:10481000B245930700FD2300F500C5472301F500CD
:1048200083C73500A301F50083D745002312F500A7
:1048300083C765002303F50083C77500AA85A3031A
:10484000F50022856244F24005616FD02FCCF24022
:10485000624405618280397162CC2A8C594526DA1E
:104860004AD84ED652D456D25AD05ECE06DE22DC7C
:10487000AE8432C636C4BA8B3E8BC28A468A83590E
:10488000010403494104EFD06FBD25C932469307A7
:1048900000FDA2462300F5009547A301C500A30033
:1048A00085012301F5002A8419461105A9C2B685A0
:1048B00097C0FE1FE780C09123066401230A2401EC
:1048C00023157401231754012318440123193401BB
:1048D000A2856254F2504259B259225A925A025B4E
:1048E000F24B624C2685D25421616FD02FC2814594
:1048F00097C0FE1FE7804091C1B7F2506254D25476
:104900004259B259225A925A025BF24B624C2161CF
:104910008280411122C437240020130404C183473C
:10492000240006C626C28DCBB7240020AA851946CE
:104930001385049D97C0FE1FE780808903452400EE
:104940009385049DEFF05F8D2244B2401385049D52
:10495000924441016FC0D047B24022449244014585
:1049600041018280411126C2B7240020938704C1EF
:1049700006C622C44AC003C737009307F00F9384CA
:1049800004C16304F7042A892945EFD02FAD2A8496
:104990000DCD930700FD2300F500A147A3002501DD
:1049A0002301F50083C72400B72500209385059DCA
:1049B000A301F5001946110597C0FE1FE78040814D
:1049C00003C53400A285EFD06FB403C724008D4720
:1049D0006311F702B727002083A7879E99CB03A313
:1049E0008700630803002244B24092440249410117
:1049F0000283B2402244924402494101828079718B
:104A000022D406D626D24AD04ECE52CC56CA09441B
:104A10005DCD2A8903550500AE895144EF90200EE3
:104A2000AA8455C537270020930787D383C747003B
:104A30008546BA8AFD1793F7F70F494463F9F608DC
:104A40000347C500A1476314F700639209089C5C03
:104A50004544B5EF9165938545711305C00297B044
:104A6000FE1FE780205D88DC2A8A4D442DC1130695
:104A7000C002814597B0FE1FE78000798357090087
:104A800093064A0036852311FA00714693054900C2
:104A900036C697B0FE1FE780A07389472300FA004F
:104AA00003C5C400B2460356090083C58AD3611505
:104AB00013351500EFB090312A8463860900CE8546
:104AC0002685EFA0403201C42685EFF0EFFB22855A
:104AD000B250225492540259F249624AD24A456174
:104AE0008280B727002083C7C7D30547FD1793F7F8
:104AF000F70F637AF708894741CA011122CC26CA09
:104B00004AC84EC652C406CEAA89368AB2842E89B5
:104B1000EF80F07E2A84D14739C9485509C597B03E
:104B2000FE1FE780605DF145268597B0FE1FE78098
:104B3000007048D4CD4705CD8346C4002147814746
:104B4000639FE600630D0A000347A50103560501B4
:104B500093062501AA854E85EF90501DAA8703472D
:104B60004400630F0900136767002302E400F2406A
:104B70006244D2444249B249224A3E85056182805C
:104B800013674700DDB7C9473E8582809307B003AE
:104B900063EBA700B7270020938707C306053E9560
:104BA00003550500828041657D158280011122CC6C
:104BB0002A842E8526CA06CEAE84EF8050741DCD81
:104BC000B7470F009387F723094563E487028145C0
:104BD0000A85414697B0FE1FE7800063A685231033
:104BE00081000A85418023018100A3010100EFB00B
:104BF000207FF2406244D244056182804945D5BF9E
:104C0000B7270020238DA7D282806FB0501479710E
:104C100052CC2A8A328522D426D24AD04ECE56CAC7
:104C20005AC85EC606D662C4AE8BB28A368BBA84C8
:104C30003E89C2894684EF80906C15C92A8C631422
:104C40000A0213774B008347450015CF93E72701EE
:104C50002302FC008DEC631C0902639A090205E83B
:104C6000ED9B2302FC00832B8C0363910B08B25055
:104C7000225492540259F249624AD24A424BB24BF0
:104C8000224C45618280F59B93E70701D1B793E7FA
:104C900047002302FC0001CC1C484146A285232486
:104CA000FC0213058C0197B0FE1FE78060526393EE
:104CB0000B02D5D80325CC0209C597B0FE1FE780AB
:104CC000A043F145268597B0FE1FE7804056232676
:104CD000AC0251BFE30909F80325CC0209C597B01E
:104CE000FE1FE7806041F1454A85F1BF9DC483A75F
:104CF0000B0299EB916593853571714597B0FE1F55
:104D0000E780403323A0AB0203A50B0219C571460F
:104D1000A68597B0FE1FE780A04B6388090283A792
:104D20004B0299EB916593852571594597B0FE1F0C
:104D3000E780403023A2AB0203A54B0219C55946B8
:104D4000CE8597B0FE1FE780A0481DC483A78B02C5
:104D500099EB916593851571514597B0FE1FE780DA
:104D6000602D23A4AB0203A58B0219C55146A28571
:104D700097B0FE1FE780C0452254B2509254F249CA
:104D8000B24B224CCA865A860259424BD68552856E
:104D9000D24A624A45616FF06FEA011126CA52C4D5
:104DA00006CE22CC4AC84EC62A8AAE84EF80305541
:104DB00025C5AA893945EFC07FEA2A8431CDB727B6
:104DC000002003C907C66314090003C9090093073B
:104DD000000D2310F400AD472301F4009385690012
:104DE00013053400194697B0FE1FE780603E93F725
:104DF0001400858085882306F400A30694002315FB
:104E00004401A2856244F240D244B249224A4A8512
:104E1000424905616FC09FEFF2406244D24442496B
:104E2000B249224A05618280411122C43724002000
:104E30001304849D084006C619C597B0FE1FE7807D
:104E4000A02B23200400B2402244410182800111A2
:104E500006CE22CC26CA4AC82EC6EF80504A39CD8B
:104E6000B245B727002003C907C60CD5AA8463142E
:104E70000900034905004145EFC05FDE2A841DCDCE
:104E80009307000D2310F500A5472301F50083C704
:104E90005400938564001105A30FF5FE194697B0E1
:104EA000FE1FE780E0329C54A285F2405CC462445D
:104EB000D2444A85424905616FC05FE5F2406244D1
:104EC000D244424905618280797122D406D62A846F
:104ED0002EC6EF80D0420DCD8346C5001147AA876C
:104EE00049456393E6029C5FB24599C383C5670158
:104EF0000808EF907078B7F601009386A67710083F
:104F000089452285EF90A067B25022544561828086
:104F10005145DDBFB727002083C7C7D30547FD171D
:104F200093F7F70F637AF704894721CA411122C426
:104F300026C24AC006C6B2842E89EF80503C2A841D
:104F4000D14705C5630809008347450093E727005B
:104F50002302F5004146A6851305840197B0FE1F84
:104F6000E78000279C481CD48147B24022449244E9
:104F700002493E8541018280C9473E858280797120
:104F800022D406D62A842EC6EF80703701CDB245D2
:104F90002285230EB1006C08EF907061B25022544C
:104FA000456182805145DDBF6F80104CC16713871A
:104FB000E7FF6395E502B727002083A7479E91EBA3
:104FC000494582804945B240224492440249410108
:104FD000828003A30700E30503FE0283411122C47C
:104FE00026C24AC006C6FD172A892E84B284639A57
:104FF000F502B727002083A7479E91CF9C4381CF1E
:10500000829711E9B7270020238C279FB72700201C
:10501000A38C979E4DBFA6854A85EFE0BFDC45F582
:10502000D5B72E85EF80B02D51DD834705000D45A6
:10503000E39B27F922852244B2400249A685924487
:1050400041016FC0E0551307B0036360A70641112B
:10505000C16722C406C626C2FD172A840945638299
:10506000F502C547AE846313F4022E85EFC0005BE2
:1050700037250020130505C306042A942310940045
:105080000145B24022449244410182809307A0032B
:105090006316F4002E85EFC06051D9BFE31AE4FC1B
:1050A00013F5F50FEFC0C050E1B70945828001113B
:1050B00006CE2AC6EFE03FD5EF20606FEF10B01D9F
:1050C000EF405219B7270020938707C1130700F05C
:1050D0002391E70023820700B7270020324513877A
:1050E00087D3FD562301D700F240238CA7D29545E4
:1050F00005616F700034597193970501CAD086D647
:10510000A2D4A6D2CECED2CCD6CADAC8DEC6E2C4EB
:10511000E6C2EAC06EDEC1872E8963DC0754B7247D
:10512000002003C584D3B7290020372B0020EFC00F
:105130005FB72A8426CEB72A0020372C002093841C
:1051400009C1B72C00201DE021653345A900B650E8
:10515000265496540659F649664AD64A464BB64BEB
:10516000264C964C064DF25D6561828083470400B3
:105170001307200A639CE70003CA34000355240088
:10518000C1652286FD15EFF0AF9B8DA27247130714
:1051900087D3034A2700130710096395E71683474F
:1051A00014001547639FE7002285EFF02F9E2285AC
:1051B000EFC01FA8F24703C587D3EFC09FAE2A8474
:1051C00059B739476398E716035544008567A50723
:1051D0006315F5040C4483CB0500639D0B00850526
:1051E00091C9372500201946130585C297B0FE1FC7
:1051F000E78000FE03C709C185476315F710638880
:105200000B00238809C05E85EFF04FCC4DB789476E
:105210002388F9C0EFC0803B59BF896713872700F7
:10522000631CE504832B8400638E0B0C83C70B0087
:1052300089EF83C72B0003C71B00A207D98F2394D4
:10524000F40083C73B00A380F40003C709C189476A
:10525000631AF70A83C70B0091C7238809C003C5E7
:105260000B005DB783C5140003D584008D472388E8
:10527000F9C0EF70001FE5B795076318F5001C44EF
:1052800003C50700EFF00FEE1DB7F9771387A7FFEF
:105290002A9742074183914663F1E6049387A7FC6E
:1052A000AA97C207C18371476371F70289671387A1
:1052B000B7006310E50483A70A9EE38A07EE9C43C8
:1052C000A285E38607EE829715A03707001813071B
:1052D000F770B357F700858BA1CB83278B9EE388AC
:1052E00007EC9C43E38507EC22858297E31105ECEC
:1052F00011A81387C7006310E5021C4483C7070089
:10530000E38707EA9307F00FE303FAEAA2855285E1
:10531000EFC0DF9F45B5B9076318F50083A74C9E22
:10532000E38707E8DC4369BF896793871704E304D1
:10533000F5F8C9BF3D476399E70403554400896701
:105340001387D700E30CE5FC13879701E308E5FC1E
:10535000CD07E319F5FA03D76400C167FD17631D94
:10536000F70083A74C9EE38407E4DC43E38107E472
:105370000965A2854D0581BFB727002083A7C79E79
:10538000E38707E29C43DDB71307E003E39CE7F6FE
:105390008347240005476398E70E83476400372757
:1053A0000020930D879DE1E783A70D00D5CF83CB28
:1053B0000700214A03457400130D8400EA85EFE0DD
:1053C0003FEA83474401A303A40083580401035820
:1053D000E400035744002A86034534003EC2835745
:1053E0002401EA86DE853EC0D287EFF0CFC6834730
:1053F000340095E7DD47835804010358E4008346F1
:105400007400835544003EC2835724013EC06A871E
:10541000D28705465E85EF807027A301A40083A78D
:105420000D0081C71145EFF03FA0930B8C9F03C582
:105430000B00E30E05D6B727002083C5979FEFE04A
:105440007F9AE30605D68346340093071003638AE8
:10545000F6000356440083C50B0052873685EFE003
:105460007FB1230C0C9EA1B383CB340099B7832763
:105470008B9E83CB3400114A95DFDC4385DF814569
:105480000145829705BF29476390E70A8347640077
:1054900037270020930D879DA5EF83A70D00B5C783
:1054A00083CB0700214A03457400130D84009377D2
:1054B00025001376150089E7EA85EFE07FDA2A8672
:1054C00083470402A303C4008358C4010358A40102
:1054D00003574400034534003EC28357E401EA8683
:1054E000DE853EC0D287EFF00FB78347340085FBDF
:1054F000DD478358C4010358A401834674008355D3
:1055000044003EC28357E40111B783CB340059BF36
:1055100083278B9E83CB3400114AD1D7DC43C1D77C
:1055200081450145829741B70947639CE70083A7FE
:105530000A9EE38E07C6DC43E38B07C6228582976B
:10554000BDB12D476398E70083A70A9EE38107C694
:105550009C47DDB70D476397E70022868D450355CD
:10556000440015B119476395E706930561021305D9
:105570001031EF40C2562C1013052031EF40225657
:1055800003566400835781020355440063E8C70053
:10559000835684000357610263F7E6009305000217
:1055A000EFC0C00629B16374E6002313E40063F47E
:1055B000D7002314F4000357C4008356A4000356F5
:1055C00084008355640001488147EFC0E003C5B6FD
:1055D0001D47E389E7D231476395E7002286B1454D
:1055E000BDBF35476398E70083A70A9EE38107BCE8
:1055F000DC4799B739476396E7002285EF005007EB
:105600007DB63D476398E70083A70A9EE38107BA0A
:105610009C4B1DB741476396E7002285EF00700F52
:1056200079B645476396E7000145EF00F01E41B6A5
:105630004947639DE70083278B9EE38507CCDC43C6
:10564000E38207CC8145054582976DB94D47639C40
:10565000E70083278B9EE38707CADC43E38407CAFE
:10566000A2850945D5B76147E39EE7C82286E14593
:10567000FDB593F7150089CFB727002083A7079EB4
:1056800089C7DC4399C30145829713451900C1B40A
:1056900093F7250091CFB727002083A7879E91C756
:1056A000DC4381C78145054582971345290045B4F0
:1056B00093F745000145E38C07A8B727002083A78F
:1056C000C79D37240020130404C191CF85472302CE
:1056D000F400B727002083A7879E91C7DC4381C7CA
:1056E00081450545829748442C10EFA0303728109B
:1056F000EFF02FA2B727002083D727C581CF13064D
:1057000000643386C702B727002003C587D39145BD
:10571000EFC09FB1134549001DBC011122CC2A8462
:10572000554506CE26CAEFF06FC6AA84130540027F
:10573000EFF0CFC52AC613055002EFF02FC5AA8699
:10574000228562443246F240B3359000D24405616E
:105750006FB03072797122D406D68D472E84631FC4
:10576000F50003D7A50083D6850003D66500034561
:10577000340083D54500EFE05FFD09A889671387F2
:10578000D7006311E50403C5250019E58547B2502C
:1057900022543E8545618280B727002083A6879DDD
:1057A000F5D603C6360083C50600814802C202C092
:1057B0000148814701479106EFF0EF890545EFF079
:1057C000AFE6E9B71387E700E302E5FC138737018B
:1057D000631AE50003C5250055D9014781460146F6
:1057E000814551BFE507E303F5FAB1476319F500B9
:1057F000B727002003C537C1EFF06F8041BF416775
:105800007D178147E315E5F803C75500C947E31F36
:10581000F7F683D6E50003D6C5000355840083D58B
:10582000A500EFB0106B51C15D45EFF02FB63335D9
:10583000A000231CA1008345440003552400300828
:10584000EF80201F83578101B1F36C0813051031DD
:10585000EF40E2289305E10113052031EF402228B3
:105860008357C101035784006374F7002314F400C5
:105870008357E1010357A40063F4E7002315F40004
:10588000835584008357A40063F4B7002315B40044
:105890000357E4008356C4000356A40003552400B4
:1058A00001488147EFB01054D5B58547231CF1005E
:1058B00059B7B7270020138787D38346770013078C
:1058C000F00F638CE60851C9411122C426C24AC0B8
:1058D00006C6AA840345A500138987D34105EFC0F6
:1058E000EFB72A842DC59307000D2310F500D94783
:1058F0002301F50083D744002312F50083C7640019
:105900002303F50083C77400A303F50083C7840055
:105910002304F50083C79400A304F50003C6A40084
:105920002305C50015C2CC44410548C497B0FE1FED
:10593000E780008AA285224403457900B240924460
:10594000024941016FC08FBC23260500E5B7B24074
:10595000224492440249410182808280C1671387B8
:10596000E7FF639EE500B727002083A7879D9DC3BF
:1059700083C707000D47639DA7006FB0F045FD1773
:1059800049476397F500B727002083A7879DF5F760
:105990003A8582804947EDBF39714AD837290020BE
:1059A000832709A006DE22DC26DA4ED652D456D250
:1059B0005AD05ECE89EF0545F2506254D254425916
:1059C000B259225A925A025BF24B216182800347FC
:1059D00005008547130909A02A846302F7040346DA
:1059E0008500930695009305E1000545EFE00FEB78
:1059F000814719C183470500834604001147638826
:105A0000E602372700200327C79F8D46034717006C
:105A1000630FD70089CF01CF11E5014571BF8147E1
:105A20000145D9BF85466310D70A8D8BFDD7034545
:105A30001400130B2400DA85EFE09F82A300A4007A
:105A4000832709002A8A8149A1C7B7240020930B24
:105A5000F00F83C7A49F63FDF90203250900939A01
:105A600049005695834705006384770783471500EF
:105A7000639047071946DA85090597A0FE1FE7805E
:105A8000007E39C58324090003470400D694B9E495
:105A9000834604009147E382F6F883270900B5DFC7
:105AA000372700200346A79F9305F00F0147E30621
:105AB000E6F6BE84C10703C507FF6307B50C0507FB
:105AC0001377F70FEDB78946E319D7F4858BB9BF84
:105AD000850993F9F90FB5BF88C4F5A09147631AFA
:105AE000F706C84405C583478400034605006304E0
:105AF000F606034704009147631DF706C84419C51D
:105B000097A0FE1FE780405F23A6040003458400A2
:105B100091659385E571050597A0FE1FE78080518B
:105B200005C5034704009147631EF704C8C48347B3
:105B30008400930594000505A30FF5FE0346840039
:105B400097A0FE1FE780C068034584003335A0009E
:105B5000A5B5884441BF93059400050597A0FE1F95
:105B6000E780E06F8547E316F5F85545EFF00F82C3
:105B7000BDA8884441DD97A0FE1FE780E05723A41D
:105B8000040069B788C465B72380D4008347140034
:105B9000DA8513852400A380F400194697A0FE1F20
:105BA000E78000630345840091659385F5710505E1
:105BB00097A0FE1FE780004805C5034704009147F2
:105BC000E31CF7F0C8C483478400930594000505DF
:105BD000A30FF5FE0346840097A0FE1FE780405FF9
:105BE00083478400E39907DC034504007D151335E2
:105BF0001500D9B3397122DC26DA4ED652D406DE2E
:105C00004AD856D25AD05ECE2A849309250003453D
:105C10001500CE85B7240020EFE08FE4A300A40098
:105C20009384C49F9C400D472A8A83C717006390C2
:105C3000E70437290020832709A0814A130909A016
:105C4000638E0714B72B002003C7AB9F93970A01FD
:105C5000C18303250900138BAB9F63E7E70C8346E1
:105C60000B000327090081471306F00F79AAF1D32F
:105C7000144C034674019305E1000545EFE00FC2A3
:105C800005CD9840854683470500034717006310FC
:105C9000D7028D8BD9FF0145F2506254D25442593C
:105CA000B259225A925A025BF24B21618280894694
:105CB000858BE310D7F8F9BF83470400114763854C
:105CC000E7002D47E399E7FCB724002083A704A051
:105CD000938404A0E9D3814A0149B72B00201DA871
:105CE0008840139B4A00834704005A9503470500E8
:105CF0006311F70283471500639D47011946CE855E
:105D0000090597A0FE1FE780805501C503A904007F
:105D10005A99850A03C7AB9F93970A01C183E3E1B0
:105D2000E7FCE31809F085BF93944A0026950347E2
:105D3000050083470400631FF70A83471500639B30
:105D4000470B1946CE85090597A0FE1FE780205115
:105D500055C1832709001147BE948347040063851A
:105D6000E7002D47639EE70203AAC400834774013E
:105D700003460A006309F602528597A0FE1FE780DA
:105D8000A0370345740191659385E571050597A0DA
:105D9000FE1FE780202A1DE5E38304EC0545EDBDE9
:105DA00003AA8400E1B70C4C13051A0097A0FE1F4C
:105DB000E780E04A8547E311F5FC5545EFE01FDD3C
:105DC00061DDD1BD8347040011476385E7002D479E
:105DD0006390E702C8C4834774010505A30FF5FE6D
:105DE000034674010C4C97A0FE1FE780603E6DB720
:105DF00088C4D5B7850A89BDBA844107834507FFA2
:105E0000638AC5008507C207C183E3E7D7FE79B778
:105E100088C491A083470400CE8513852400238085
:105E2000F400834714001946A380F40097A0FE1FD6
:105E3000E780003A0345740191659385F571050586
:105E400097A0FE1FE780001F31D903470400914748
:105E5000E310F7FCC8C4834774010505A30FF5FEE2
:105E6000034674010C4C97A0FE1FE78060363DB7D7
:105E700041114AC037290020130989D3034779000B
:105E800006C622C426C29307F00F630EF70625CD7F
:105E9000AA845145EFB09FDC2A8435C59307000DD5
:105EA0002310F500D5472301F50083C734009385FF
:105EB00084002105A30DF5FE83D744001946231E57
:105EC000F5FE83C76400230FF5FE83C77400A30F9C
:105ED000F5FE97A0FE1FE780A02F83C7E400A285F0
:105EE000034579002307F40083D704012318F40045
:105EF00083C724012309F4002244B240924402499A
:105F000041016FB0BFE0B2402244924402494101D6
:105F10008280411122C437240020130484D3034714
:105F2000740006C626C29307F00F630CF70215C96A
:105F3000AA841945EFB09FD2AA8505C59307000D25
:105F40002310F500DD472301F50083D74400B2405C
:105F500092442312F50003457400224441016FB0BE
:105F6000FFDAB2402244924441018280011122CCE6
:105F700037240020832704A006CE26CA4AC84EC66E
:105F800052C48DC3130404A02E8AAA840149084078
:105F900063129902630C0A0497A0FE1FE780C015E4
:105FA00023200400F2406244D2444249B249224ACA
:105FB0000561828093194900B3073501884709C9F3
:105FC00097A0FE1FE78040131C40CE9723A4070034
:105FD0001C40CE97C84709C997A0FE1FE780C01193
:105FE0001C40BE9923A60900050955B745DD139647
:105FF0004400814597A0FE1FE7800021144081479F
:106000007D5613F7F70FE37F97F8139747003697FE
:106010002300C7008507F5B779714AD037290020DA
:106020008327C99F06D622D426D24ECE52CC56CA3A
:106030005AC85EC6C5C7B72A0020AA891309C99FD6
:10604000938AAA9F014405E1B727002083A607A0F1
:1060500099CA03C60A002A8481479305F00F13F7F3
:10606000F70F6368C708131534002105EFB01FBF91
:10607000AA8401E92145EFB07FBEAA8421C501446D
:10608000CD49930700FD2380F4008547A3803401A8
:106090002381F400A381840045C89389840023A24E
:1060A0003401014A372B0020930BF00F83C70A00FD
:1060B0006373FA0039E883270900A68503C5070042
:1060C000EFB0DFC403C50A0081454D350325090043
:1060D00097A0FE1FE780400223200900B2502254FF
:1060E00092540259F249624AD24A424BB24B45613C
:1060F0008280139747003697034707006305B70070
:1061000005041374F40F850799BF83270BA093151B
:106110004A00BE9583C70500638477032380F90096
:1061200083C71500138529007D14A380F900194643
:1061300089051374F40F97A0FE1FE7806009A10979
:10614000050A137AFA0F9DB723A20400ADB7B7274B
:10615000002083A7C79FB1C7411122C406C62A8465
:106160001DE10945EFE09FA22A8601C9B72700205B
:1061700003C587D38545EFC02F8B0545EFF0EFD9D9
:106180002A84054519C8B727002003C587D385454C
:10619000EFC0EFA4228549350545B24022444101B4
:1061A00082800145828089679386B7006316D50097
:1061B0009C4503C5070061BF9386C7006318D500DF
:1061C0009C45854603C5070019C9F5B79386170492
:1061D000E300D5FE938727048146E303F5FE368569
:1061E0008280797106D622D426D24AD04ECE52CCA5
:1061F00056CA5AC85EC662C471CD83473500AA89A3
:1062000085C7404115C05945EFE05F98931A850155
:1062100093DA8A410149372A0020130B000DB54B50
:1062200083C73900636EF900B25022549254025968
:10623000F249624AD24A424BB24B224C45618280BB
:106240008307840263CF57078327CA9F130CCA9F13
:10625000ADCB2285EFF04FF42DC5034584005105E9
:10626000EFB0DF9FAA8431CD2310650123017501B2
:1062700083470400194693052400A301F500830712
:10628000840215052303F50083471400A30FF5FED0
:1062900097A0FE1FE780C0F3034684002386C40056
:1062A0001DC61385440188C89305940097A0FE1F5E
:1062B000E78000F283270C00A68503C50700EFB036
:1062C000FFA40509130494021379F90F91BF23A8C1
:1062D0000400CDB7B727002083A7C79FB1D72D3BB8
:1062E0002254B25092540259F249624AD24A424B65
:1062F000B24B224C014545616FF02FC2797106D631
:1063000022D426D24AD04ECE52CC56CA5AC85EC6E5
:1063100062C469C583473500AA8985C7444195C0D1
:106320005945EFE0BF86931A850193DA8A41014906
:10633000372B0020930B00FD414C83C73900636E5F
:10634000F900B250225492540259F249624AD24A98
:10635000424BB24B224C456182808387F40063CA72
:106360005707130ACB9F83270A00A5C75145EFB0F3
:10637000FF8E2A8439CD23007501A3000500230177
:10638000850183C70400194693852400A301F50005
:106390008387F4001505A306F50083C71400A30F37
:1063A000F5FE97A0FE1FE780A0E283C784009385D7
:1063B00094001305C400A305F400194697A0FE1F1E
:1063C000E78000E183270A00A28503C50700EFB03C
:1063D000FF930509C1041379F90F85B7B72700208A
:1063E00083A7C79FB9DF0D392254B2509254025986
:1063F000F249624AD24A424BB24B224C01454561B6
:106400006FF0AFB15D7186C6A2C4A6C2CAC04EDE2F
:1064100052DC56DA5AD85ED662D466D26AD06ECED4
:106420006304052283473500AA848DCB832A450067
:1064300063860A025945EFE06FF593178501E187FE
:106440003EC60144372900209309000D354C9D4C70
:10645000294D994D03C734006361E402B6402644D8
:1064600096440649F259625AD25A425BB25B225CA8
:10647000925C025DF24D616182800387CA00B2477F
:10648000634FF7100327C99F130AC99F63090710B9
:1064900083CB0A0013F70B015DCB4D47639CEB06E2
:1064A00023800A005685EFF0EFF475C903C70A0090
:1064B000914703C57A0163E9E70E5105EFB00FFA82
:1064C0002A8B71CD231035012301850183C60A0073
:1064D000194693852A00A301D5008386CA001505B5
:1064E0002303D50083C61A00A30FD5FE97A0FE1F75
:1064F000E78000CE03C67A012306CB0041CA13050C
:106500004B012328AB0083A58A0197A0FE1FE780DB
:1065100020CCBDA855476398EB0005472380EA00CF
:10652000A38B0A0041B77547E389EBFE49476396A1
:10653000EB0009472380EA00B5B741476394EB00BD
:106540000D47CDBF6D47E39FEBF41147E5B713F758
:106550008B0019C32D47F9BF13F61B0013F74B002F
:1065600011C619C315475DBF2147E9B713F62B00C4
:1065700019C619C325475DB72380BA0125B701C7DE
:106580002380AA0105B723809A0129BF23280B0085
:1065900083260A00DA8503C50600EFB02FF705044D
:1065A000F10A1374F40F7DB513050502EFB00FEB7C
:1065B0002A8B75D5C9472301F5002310350103C681
:1065C0000A0093F60B0693852A00D18EA301D5000D
:1065D00083C61A0019461505A30FD5FE97A0FE1F06
:1065E000E78000BF83C68A00194693851A01A30578
:1065F000DB0083C69A0013053B012306DB0083C63C
:10660000AA00A306DB0083C6BA002307DB0083864B
:10661000CA00A307DB0083D6EA002318DB0083C689
:106620000A012309DB0097A0FE1FE78060BA03C6BA
:106630007A01A30CCB0011C613050B02232EAB006D
:10664000D9B5232E0B00A9B7B727002083A7C79F72
:10665000E38607E0EFF05F9C2644B6409644064987
:10666000F259625AD25A425BB25B225C925C025D82
:10667000F24D014561616FF04F8AB727002083A773
:10668000C79F85CB03C707008D476315A702B727B0
:10669000002003C587D34111854506C6EFB03FD41E
:1066A00013050003EFF05F97B240014541016FF021
:1066B000CF86C9473E85828079714AD0372900202C
:1066C0001309C99F8327090006D622D426D24ECEAD
:1066D0006395071037240020130484D30347440034
:1066E000C947298B5DCF9165AA849385D5711145E2
:1066F00097A0FE1FE78000942320A900CD4755C135
:1067000083C704001146A685A303F40097A0FE1FCB
:10671000E78000AC930531001305F041EF10D2295A
:10672000B7270020938707C103C427000347310020
:106730003334800011C3090413051002EFE00FC5C4
:106740001379F50F9377190093794900BDC3154567
:10675000EFE0CFC383C724002314A100194523020F
:10676000F100EFE0AFC22316A1006382090283C7E4
:10677000240013052002A302F100EFE02FC123152E
:10678000A10013053002EFE06FC02317A10083C5FD
:1067900034007C00380054004A862285EFA0306D1A
:1067A000AA87B250225492540259F2493E8545615B
:1067B0008280E147E38709FE83C724001305200296
:1067C0002302F100EFE08FBC2314A1001305300277
:1067D000EFE0CFBB2316A1005DBFC547D9B77571E8
:1067E00026C3B724002022C506C74AC1CEDED2DCAC
:1067F000938484D383C744004944A18B63870724CF
:10680000B727002083A7C79F414463900724AA8924
:10681000EFE08FF983C7840055446378F522B724ED
:10682000002083A7849D26894544639007229165B3
:106830009385C57129459790FE1FE780A07F23AC03
:10684000A49C4D44630305202946CE8597A0FE1FD6
:10685000E780009813056002EFE04FB3137AF50F5D
:1068600093775A0061446382071E13060003814533
:10687000880097A0FE1FE780209993771A009369FC
:106880002A000144A5C34145EFE04FB02316A104FF
:106890003D45EFE0AFAF2319A1043545EFE00FAF61
:1068A000231CA1043945EFE06FAE231FA10421454D
:1068B000EFE0CFAD2312A1061D45EFE02FAD83A77A
:1068C000849D2315A10683C71700638907182D45EA
:1068D000EFE0CFAB2310A1043145EFE02FAB231342
:1068E000A10405441305C002EFE04FAA98189317BE
:1068F0001400BA97239EA7FC1305B002EFE00FA97E
:10690000930484009C188604BE942399A4FC130568
:106910009002EFE0AFA7239CA4FC1305A002EFE0D8
:10692000EFA6239FA4FC13058002EFE02FA693049B
:1069300004019C188604BE94239AA4FC13057002DB
:10694000EFE0CFA4239DA4FC137A4A0063050A0854
:1069500013056003EFE08FA305049C189314140043
:10696000BE94239EA4FC13055003EFE02FA2130A4C
:1069700084009C18060A3E9A2319AAFC13053003CA
:10698000EFE0CFA0231CAAFC13054003EFE00FA00B
:10699000231FAAFC1305E002EFE04F9F41049C185F
:1069A00006043E94231AA4FC1305D002EFE00F9EC8
:1069B0008327899D231DA4FC83C71700DDC713050A
:1069C0001003EFE0AF9C2398A4FC13052003EFE035
:1069D000EF9B239BA4FC8327899D03C537009385E8
:1069E0004700EFD07F832AD69305F1031305F041CA
:1069F000EF10827CB7270020938707C183C527004B
:106A00000347F1033256B335B00011C3890583261D
:106A1000899DFC009308A10603C526003EC8930784
:106A200021053EC6BC083EC49307E1053EC2DC100A
:106A30003EC0130861049C004E879106EFA0B0434E
:106A40002A8401C50D45EFE02FBE2285BA402A44B5
:106A50009A440A49F659665A496182802545EFE011
:106A6000EF922310A10429458DBD1305F002EFE03C
:106A7000EF912398A4FC1305000391BFB7270020D2
:106A800083C7C7D30145A18B89C7372500201305CC
:106A900005CC6FD04FD4B72700207D57238D079E9C
:106AA000B7270020A38FE7D2B727002023A007A095
:106AB00037670100B72700201307671A23AE079E28
:106AC000B727002023A6E7CA376701009387C7CA04
:106AD0001307271ED8C3376701001307C72F98C7AE
:106AE0003767010013074740D8C73767010013070E
:106AF000278B98CB37670100B72700201307C7956E
:106B000023A0E7CC37570100938707CC13074775BD
:106B1000D8C38280411122C4372400201304A49FCB
:106B200026C2AA8403450400854506C6EFF00FC4BB
:106B3000B727002083C7C7D3A98BA5CF372500204F
:106B4000230094001305C5CAB7240020EFD00FC856
:106B5000938404A09C4099C74D45B240224492447E
:106B6000410182800345040019E10145FDB79165AB
:106B70009385B57112059790FE1FE780A04B88C0E2
:106B800061DD03460400814512069790FE1FE780F1
:106B9000A0678346040090408147FD5513F7F70F27
:106BA000E375D7FC1397470032972300B70085079A
:106BB000F5B7014523000400EFD04FC17DB7411167
:106BC00022C4372400200325C49D06C619C597900A
:106BD000FE1FE7806052232E049CB24022444101F4
:106BE000828001111305700306CEEFD03FFA2AC64A
:106BF00013058003EFD09FF92AC413059003EFD04B
:106C0000FFF82246B245F240AA86054505616FA00D
:106C100050255971A2D4372400208327C49D86D6DD
:106C2000A6D2CAD0CECED2CCD6CADAC80545638D9C
:106C3000070C9305F1041305F041EF10E25793059B
:106C4000F1041305F041EF102257B7270020938776
:106C500007C183C727000347F104B337F00011C30E
:106C600089070327C49D3EDE03453700930547008F
:106C7000EFD08FDA0327C49D2ADC0D45834527001A
:106C80002EDAEFD0BFF02AD81145EFD03FF0032421
:106C9000C49D2AD665450347A400034BB4003AD4EB
:106CA000EFD0DFEEAA846945EFD05FEE2A89714507
:106CB000EFD0DFEDAA896D45EFD05FED2A8A7545EB
:106CC000EFD0DFECAA8A7945EFD05FECE20462589E
:106CD000F2572257B2564256D2551375F50F93FA12
:106CE000FA0F137AFA0F93F9F90F1379F90FE18478
:106CF0002ACC56CA52C84EC64AC426C25AC09308A5
:106D000044000545EFA05012B6502654965406593B
:106D1000F649664AD64A464B65618280011122CC0B
:106D200006CE26CA8D472E846315F50603C73500A7
:106D3000B7240020E94703D54500938404C16316B6
:106D4000F70083D764006382A706EF60505B09C534
:106D5000835764002317F5000357A400835684006B
:106D6000035664008355440003453400EFD0FF9D73
:106D70000357440083D764006309F7008547F24056
:106D80006244D2443E8505618280FD572393F4001E
:106D9000F5B78967CD07631DF50083C72500314727
:106DA0006385E7004547E39BE7FCEFD00FAAF9B7FF
:106DB000B1476319F500B727002003C5D7D3EFD03B
:106DC0001FA46DBF41677D178147E31AE5FA83C6AB
:106DD00055004947E395E6FA83C54500035524006D
:106DE000300023140100EF60B03F49BF411122C4BD
:106DF00037240020130444990347040006C626C222
:106E00004AC09307F00F630DF702AA8411452E893B
:106E1000EFA0DFE415C5930700FD2300F5008947C7
:106E2000A30025012301F500A3019500AA850345D0
:106E300004002244B2409244024941016FA01FED78
:106E4000B2402244924402494101828079714AD081
:106E5000372900208327C99D22D406D626D24ECEBC
:106E600052CC56CA4544D5EFB7240020938784D32B
:106E700083C747004944958BCDC7B72700202E8A8A
:106E80009165238AA798AA89938575713145979052
:106E9000FE1FE780201A232EA99C4D4459C12300D0
:106EA0003501A30005002946D28509059790FE1FEC
:106EB000E78000328327C99D914603C7270063ED11
:106EC000E60835EB4D472381E70003C7270013672A
:106ED00007012381E700930571001305F041EF10CE
:106EE000A22D83477100F1EBB727002003C727C10C
:106EF0008D476314F70CEFD06FC02C00EF90003675
:106F00002800EFD01FA14545EFD05FC8014411C94B
:106F1000130600643306C50203C584D39145EFB060
:106F2000AFB02285B250225492540259F249624ABB
:106F3000D24A4561828085466314D700754761B7A0
:106F400089466314D7004947BDBF8D466314D700F7
:106F5000414795BF554785BF9546CA8A630ED700FE
:106F600099466316D70009472381E70031A01D46E3
:106F70006314C702238107006545EFD03FC1930723
:106F8000F007E30AF5F403A7CA9D8347270093E7B8
:106F900007042301F70081B721466314C7000547A2
:106FA000E1B725466315C7002381D700F1B7A9468D
:106FB0000544E318D7F6114745BFEFF09FC52A8473
:106FC0002DD1EFF0DFBFB1BF011126CAB7240020D9
:106FD00083A7C49D22CC06CE4AC84944B1C783C703
:106FE00007000D446392A70437290020034589D385
:106FF0008945EFB0CFBE034589D3B727002091451F
:10700000239207A0EFB0AFBD83A7C49D014781467F
:10701000A38087001306F100854785450145A30736
:10702000F100EFA0C0632A842285F2406244D2447A
:10703000424905618280011106CE22CC26CA4AC887
:107040008547631EF50637240020130444A08357A8
:107050000400A9CB37270020034747C121E71307C6
:10706000B003636CF702B724002003C584D38945BD
:10707000EFB0EFB6035604009307006403C584D352
:107080003306F6028945EFB02F9A23100400F24030
:107090006244D244424905618280938747FC2310B1
:1070A000F400F5B7B727002083A7C79DEDD362444E
:1070B000F240D244424903C50700056131B7B72405
:1070C000002083A7C49DE1D737270020130987D369
:1070D00083474900918BC5DF89476313F5062D452A
:1070E0002EC6EFA0BFB72A845DD1B245930700FD3D
:1070F0002300F500E547A30005002301F50083C741
:10710000350015051946230FF5FE83C74500950583
:10711000A30FF5FE9790FE1FE780800B03455900F3
:107120009307F00F6316F50083A7C49D03C50700FE
:10713000A2856244F240D244424905616FA01FBD5E
:10714000034587D38945EFB08FA96244F240D2440A
:107150004249B7270020239207A005616FF03FA6A0
:10716000B727002083C7C7D3958B89CFB7270020C7
:1071700083A707A191CBB727002005472383E7A06A
:107180006FF03FA64945828041458280B7270020A5
:1071900085450145238307A06FA0204DB727002018
:1071A00083C7C7D3958B638307129307C01C63FC07
:1071B000C70009458280F2406244D2444249B24944
:1071C000094505618280B727002083A7C79D638F8B
:1071D000070E01111305860022CC4AC8420506CECF
:1071E00026CA4EC6368932844181ADC991659385E0
:1071F00065719790FE1FE780E0E3AA894DDDB72413
:10720000002003A5C4A09384C4A009C59790FE1FC5
:10721000E78080EE1385890023A0A900228681459E
:1072200023A034019790FE1FE78000FE9C40228639
:10723000CA8588439790FE1FE78080F99C40A2860C
:10724000F240239287006244D2444249B2499843B3
:1072500005468D45054505616FA0E03F9165938525
:1072600055719790FE1FE780E0DCAA8929D5B724E5
:10727000002003A544A1938444A109C59790FE1F53
:10728000E78080E71385890023A0A9002286814535
:1072900023A034019790FE1FE78000F79C402286D0
:1072A000CA8588439790FE1FE78080F29C40A286A3
:1072B000F240239287006244D2444249B249984343
:1072C00005468D45054505616FA0203949458280F9
:1072D0009307C01C63FCA700094582800945F24062
:1072E0006244D2444249B2490561828045CD0111D0
:1072F00022CC2A8421054EC64205AE89916593852C
:10730000657141814AC806CE26CA9790FE1FE78064
:1073100060D22A8961D5B724002003A5C4A0938434
:10732000C4A009C59790FE1FE78000DD1305890002
:107330002320A9002286814523A024019790FE1FC7
:10734000E78080EC9C402286CE8588439790FE1F84
:10735000E78000E89C4023928700B727002083A79E
:10736000C79D8DCFB727002083C7C7D3958B8DCB03
:10737000B727002083A7C7A099CF984383D647009B
:107380006244F240D2444249B24905468D45054522
:1073900005616FA0402C01478146DDB7014581B7EB
:1073A000494535BFB727002083A7C79D95C7B72795
:1073B000002083C7C7D3958B95C3B727002083A729
:1073C000C7A081CB984383D6470005468D45054528
:1073D000C9B701478146D5BF0145828049458280B2
:1073E0009307C01C63FCA700094582800945F24051
:1073F0006244D2444249B2490561828045CD0111BF
:1074000022CC2A8421054EC64205AE89916593851A
:10741000557141814AC806CE26CA9790FE1FE78063
:1074200060C12A8961D5B724002003A544A19384B3
:1074300044A109C59790FE1FE78000CC1305890081
:107440002320A9002286814523A024019790FE1FB6
:10745000E78080DB9C402286CE8588439790FE1F84
:10746000E78000D79C4023928700B727002083A79E
:10747000C79D8DCFB727002083C7C7D3958B8DCBF2
:10748000B727002083A747A199CF984383D6470009
:107490006244F240D2444249B24905468D45054511
:1074A00005616FA0801B01478146DDB7014581B7AB
:1074B000494535BFB727002083A7C79D95C7B72784
:1074C000002083C7C7D3958B95C3B727002083A718
:1074D00047A181CB984383D6470005468D45054596
:1074E000C9B701478146D5BF0145828049458280A1
:1074F0009307C01C63F4A70009458280797122D4E8
:107500004ECE06D626D24AD0AE892A842DC1210578
:10751000916542059385757141819790FE1FE780C3
:1075200060B12A89094563060908B724002003A52C
:1075300004A1938404A109C59790FE1FE780C0BBF6
:10754000130589002320A9002286814523A0240158
:107550009790FE1FE78040CB9C402286CE858843D3
:107560009790FE1FE780C0C69C4023928700B727F4
:10757000002083A7C79D01458DCFB727002083C773
:10758000C7D34945958B95C76C001305D030EF20C4
:107590000255B247014593F7070F81CFB727002067
:1075A00083A707A18D450545944303D64700EFA067
:1075B000800BB250225492540259F24945618280A4
:1075C000B727002083A7C7A091CF03D647008C43DD
:1075D000411106C69790FE1FE78080BFB24001456B
:1075E0004101828009458280B727002083A7C7A078
:1075F0008DC7B727002003A747A1894705C30356B6
:1076000047000C43411106C69790FE1FE78040BC1F
:10761000B24081473E854101828089473E85828014
:10762000B727002083A7C7A08DC7B727002003A7CF
:1076300007A1894705C3035647000C43411106C6FD
:107640009790FE1FE780C0B8B24081473E85410158
:10765000828089473E858280797106D622D426D2DF
:107660004AD04ECE52CC8D4763FCA7008944B2501D
:107670002254268502599254F249624A4561828019
:1076800037290020034709C1C144E312F7FE9307DD
:10769000F5FF930909C193F7F70F8546AE842A8455
:1076A00003CA2900130909C163EAF6068DE1994569
:1076B0002800EFC03F94B729002003C589D3914526
:1076C00023018900EFA0BFD135E481444DB71946AD
:1076D000814528009790FE1FE78000B319462C00D3
:1076E00026859790FE1FE78080B749F119469305DC
:1076F000F00F28009790FE1FE78000B119462C007C
:1077000026859790FE1FE78080B52DF11946A68546
:1077100028009790FE1FE780A0AB71BFE31DE5F83E
:1077200003A5C9002C00EF807033AA8449D52381BA
:10773000490135BF2800EFD0CF9DAA840DED9305F8
:1077400071001305F041EF00322783447100B5FC4E
:107750008D47E31CF4F64545EFD04FC33DD5B777D1
:107760001800938707A03306F50203C589D3914516
:10777000EFA09FC2EDBD23014901D5BDB727002071
:1077800083C7C7D3918B8DC33725002041111305C3
:1077900085A006C6EFC07F85B240B72700207D5781
:1077A000239BE7C04101828001456FC01F84B7273A
:1077B00000207D57238AE798B7270020238307A05E
:1077C000B7270020239207A0B727002023A607A0F1
:1077D000B727002023AA07A0B727002023A807A0C7
:1077E00037870100B7270020938707AD1307879CD1
:1077F00098C33777010013076703D8C337770100B1
:10780000130727C198C737770100130727BED8C7CA
:10781000B7770100372700209387C7D12324F7A02B
:107820008280411126C2B724002083A7C49D06C6CA
:1078300022C48DCF2A840D45EFA04FC2AA8505C171
:10784000930700FD2300F5008D47A3008500230169
:10785000F50083A7C49D03C50700EFA02FCB19C473
:107860002244B240924441016FF06FB5B2402244CD
:10787000924441018280797152CC372A00208327BB
:10788000CA9D4AD006D622D426D24ECE56CA014927
:10789000B1C703C91700B72400208547AA8993847C
:1078A00004C16307F90483C74400054985EB0D450E
:1078B000EFA0CFBAAA8505C1930700FD2300F5000C
:1078C0009147A30035012301F5008327CA9D03C515
:1078D0000700EFA0AFC3EFF08FAE0549B2502254BE
:1078E0004A8592540259F249624AD24A45618280DD
:1078F000B727002083A7C7A0D28A85E30145EFD030
:10790000EFA82A8601CAB727002003C587D3894577
:10791000EFA09F9183A7CA9D81A8944303D64700F7
:107920009305E1000545EFC06FF769D9834705006E
:10793000858BE9D70545EFD06FA59307B0032A845F
:1079400063F0A704B727002003C587D35D6613063D
:1079500006708945EFA05FA4B7270020130444FCFC
:10796000239287A08327CA9D0947A380E70083C786
:10797000440081C72382040095B74E855D35B9BFA9
:10798000130600643306C502B5BF411122C42A8420
:107990000D4506C6EFA08FAC05C5930700FD23007B
:1079A000F500CD472301F500A30085002244B72749
:1079B0000020B240AA8503C5479941016FA00FB5C9
:1079C000B24022444101828003574500011189677A
:1079D00006CE22CC26CA938667006319D7001C45C1
:1079E000014583C50700EFF06FC035A89386870077
:1079F0006317D7001C45054583C50700EDB793867F
:107A000097006314D702B727002083A7C79D0144BE
:107A100095C718450345070051E90547A380E700CE
:107A20000545EF90303B054411A89386A700631DE0
:107A3000D7001C4503C507003D3D2A842285F2403E
:107A40006244D2440561828093866703E309D7F8D4
:107A500093867703E300D7FA93868703631BD704E3
:107A6000B724002083A7C49D0144E9DB1C4503C55E
:107A700007000DED05447D4523058100EFD00F91F2
:107A80002316A10013050002EFD04F9083A7C49DD9
:107A9000A305A1001307B100A3808700740013069B
:107AA000A10085450545EF90903BB5BFEFF07FD72E
:107AB0009DBF93869703E30ED7F69386E70363177C
:107AC000D7001C45094583C5070031BF9387F703DD
:107AD000631DF7021C4503C5070041E16C00130557
:107AE000D030EF10D27FB247414793F7070FE38CB6
:107AF000E7F29305B10013056031EF10527E0345A4
:107B0000B1008545EF90703639BF896793870704C8
:107B10000144E315F7F21C4583C40700B727002092
:107B200083C767A0268595EB0D45EFA02F93AA8507
:107B30000544E30505F0930700FD2300F500D14758
:107B4000A30095002301F500B727002083A7C79D58
:107B500003C50700EFA08F9BD5B5EFF01FE3E1B59C
:107B6000B727002083C7C7D3411106C6958B99CB91
:107B700037250020130505ADEFC08FC64D45B24037
:107B8000410182800145EFC0AFC50145CDBF03C7AC
:107B90000500937625009377D70F99C29367270046
:107BA000131885011358884113F7F7076354080029
:107BB00013E70708937685009377770F99C2936749
:107BC00087001377050293F6F70D19C393E60702B2
:107BD0002380D500634508009377A50281CB8347B6
:107BE000060093E7C7002300F60082807DFD8347EF
:107BF0000600CD9BCDBF2D456319071403C80500B2
:107C000009476310E814C841034715000345050000
:107C10002207498F42070D654187930825A0630B12
:107C2000170B011122CC26CA4AC84EC606CEBE8901
:107C3000B68432842E8963CEE800930705A0630DD5
:107C4000F702130515A06300A7062390040005455D
:107C5000B5A0930745A06309F7086348F706130525
:107C600065AAE314A7FE85472390F600DC4583C789
:107C700007002300F60091A0C8459780FE1FE7800B
:107C8000C059420541814E86637335012A8623908F
:107C9000C400420641828325C90022859780FE1FC9
:107CA000E780005319A8DC4583D70700239006011D
:107CB0002300F600A183A300F6000145F2406244D0
:107CC000D2444249B2490561828099472390F60027
:107CD0001946D1B785472390F600DC45014583C797
:107CE00007002300F6008280DC45A9CB21472390C2
:107CF000E60003D707002300E60003D7070021832F
:107D0000A300E60003D727002301E60003D72700DE
:107D10002183A301E60003D747002302E60003D72F
:107D200047002183A302E60003D767002303E60090
:107D300083D76700A183A303F60041B72390060011
:107D4000ADBF2390060005458280828083C8050070
:107D50008947639BF814DC41797122D406D626D278
:107D60004AD04ECE52CC03C8170083C707002E84DA
:107D700022083368F80042088D67135808411383BE
:107D800027A0630468102A8A3A89B684B285634CB6
:107D90000301138707A0630AE802938717A063090A
:107DA000F808854711A8138737A0630BE80A1387E3
:107DB00067AA8D47E317E8FEB25022549254025945
:107DC000F249624A3E8545618280484432C69780C6
:107DD000FE1FE7808044420541819D47E36E25FDFB
:107DE000B3099900D547B24563D43701B547E9B720
:107DF00048442686C2094A959780FE1FE780403D89
:107E0000484493D9090159463306364181454E9578
:107E10009780FE1FE780403FB727002083A7C7A1B8
:107E200099E3814751BF9C438145E5DF52853DA0E1
:107E3000AD47E31309F8E39B16FB8347160083461F
:107E400006005844A207D58F2310F700B72700205B
:107E500083A7C7A1F9D79C438545E1D78297D1B7BE
:107E6000AD47E31B09F49947E392F6F848441946F5
:107E70009780FE1FE780C035B727002083A7C7A1E2
:107E8000CDD39C43D9DF8D4555B7AD4715F7854711
:107E9000E39EF6F40347060093070008E3EEE6F0DE
:107EA000DC452380E700B5BF85473E858280B72744
:107EB00000203727002023AE07A0B72E00208947D7
:107EC000230CF798130F87998147938E4EAE59472D
:107ED000B386FE00238006008507E39BE7FEB725F7
:107EE0000020B707A0009385C599938707059CC11B
:107EF000B707E803DCC1B7270020238D07A037B6FA
:107F00000300B72700209387078913064681D0C353
:107F1000372E002037A603000947130E5E9913067B
:107F2000867E2300EE00D0C723AEE70123AEC70351
:107F300037230020B72800203728002037250020CD
:107F400037A6030037BF030037AE0300854613068C
:107F5000867F93889899130383A113087899130552
:107F60006599130F0F80130E0E7F2380E800238086
:107F7000E7002388E7002380E7022388E7022380C5
:107F8000E7042300E8002384D70023950700D0CB23
:107F9000238CD700239D070023A2E7032384D70265
:107FA0002395070223A6D703D0DB238CD702239D7A
:107FB000070223A2C7052384D704239507042310AF
:107FC00003002300D50023A667042388E70423AE1B
:107FD00017052380E7062388E7062380E708B7B85C
:107FE000030037A703001307477F9388088123A264
:107FF000E708F0CB238CD704239D070423A217079F
:108000002384D70623950706ECD7F0DB238CD7060D
:10801000239D070623AE07072384D7082395070867
:1080200023A6A70837870100B72700209387079268
:10803000130767BF98C3378701001307C7D4D8C396
:1080400023A407008280A54763EFA70CB7A703000E
:108050009387072B0A053E951C41411122C426C275
:1080600006C64AC0B2842E848287D547614563E53F
:10807000B7023729002059468145130549AE97803C
:10808000FE1FE78060182286A685130549AE9780FB
:10809000FE1FE780E0130145B240224492440249AA
:1080A0004101828089476145E398F5FE0357060048
:1080B000B7270020239CE7A0F9BFA1476145E39DB6
:1080C000F5FC372500202146A6851305C599EF202C
:1080D000C210D1B785476145E390F5FCB725002074
:1080E00093850589D04D9385850203C50400EFF083
:1080F0001FAA55B785476145E390F5FAB7250020DB
:1081000093850589D05D93858504C5B7854761450D
:10811000E394F5F803470600B7270020238BE79880
:108120009DBF094595BF094582800547630CE5025F
:108130004111AA8706C62E8599CB1147638CE702A9
:1081400025476381E7040945B24041018280B72594
:1081500000205546938545AE9780FE1FE780400777
:108160000145DDB7B727002083D787A101452390BC
:10817000F5008280B725002021469385C599EF2020
:10818000C205F9BFB727002083C767992380F50090
:10819000C1BFB72700209387A7A103C7070015E336
:1081A00005472380E700058909CDB726002037253C
:1081B0000020938606924146A545130505896F3038
:1081C000E06F0145828001111388F5FF06CE22CCB5
:1081D00026CA4AC84EC652C41378F80FAD4563ED9F
:1081E000050BB7A503000A089385852D2E983E8AB6
:1081F00083270800BA893689B28482878545EFB023
:10820000BFFC2A8419E1EFF0BF952285F240624459
:10821000D2444249B249224A056182808945EFB081
:10822000BFFA2A847DF12685EFE0DF8EF9BF914504
:10823000EFB09FF92A8471F95286CE854A85EFB056
:108240001FEFEFF0FF91EFF06FD3EF80203675BF97
:10825000A145EFB07FF72A844DF95286CE854A8535
:10826000EFB0FFEC2685EFE0FF8AEFE03F81EF8083
:10827000201561BFB145EFB03FF52A8459F552860C
:10828000CE854A85EFB0BFEA2685EFE0BF88EFE0F4
:10829000EFFEEF80E01275B7094485BF79714ECECD
:1082A000AE896C0022D426D24AD006D62A89B2845E
:1082B000EF0070772A840DE1CE854A85EFB0EFBAE2
:1082C0002A8419E93245B736010026879386C665A8
:1082D0002D468145EF1040102285B2502254925411
:1082E0000259F2494561828079714ECEAE896C00A7
:1082F00022D426D24AD006D62A89B284EF00B072A0
:108300002A840DE1CE854A85EFB04FC42A8419E94D
:108310003245B73601002687938626744D4681453F
:10832000EF10800B2285B250225492540259F24928
:1083300045618280397126DAAE844C0022DC4AD84D
:108340004ED652D406DEAA893289368AEF00B06D45
:108350002A8431EDA6856303090283D704002C002B
:108360002314F10083D724002315F1009307203054
:108370002316F100930780022307F1004E85EFB02A
:10838000AFAB2A840DE55946A6851305A100230449
:1083900021019780FE1FE780A0E31245B736010058
:1083A00052879386666025462C00EF10E0022285F6
:1083B000F2506254D2544259B259225A21618280F9
:1083C000797126D2AE846C0022D44AD04ECE06D625
:1083D000AA893289EF0030652A840DE1A6854E8591
:1083E000EFB08FAA2A8419E93245B73601004A87CF
:1083F0009386A6673546A685EF00107E2285B2508B
:10840000225492540259F24945618280BD47638CDF
:10841000F50663E9B702A5476387F50663EDB70084
:108420009947638CF5049D47638FF5049547638CEA
:10843000F50401458280B5476387F50463E1B7041D
:10844000AD47F5B7DD47638EF50263EAB700C9476C
:10845000638BF502D9476386F502C547C9BFF54767
:108460006383F50263E4B700ED47D1B793072005B6
:10847000638BF5009307200D5DBF4845828008415E
:10848000828008458280484182809307F00F630E06
:10849000F506011126CAAA841305000222CC4AC897
:1084A0004EC652C456C206CE3A89B689B28A2E8AC0
:1084B000EF90CFFA2A844D4515C8930700FB23009F
:1084C000F400A300540123114401230234011305D5
:1084D0008400614663050902CA859780FE1FE78014
:1084E00020CFA2852685EF907F820145F24062442D
:1084F000D2444249B249224A924A0561828081456A
:108500009780FE1FE78040D0E9BF094582800111B6
:1085100022CC06CE2A842306B100A306C100EF5068
:10852000005E15C18346C500B72700202147938709
:1085300087D3639EE60003C5670078009306E007D3
:108540000146A2859937F240624405618280780035
:108550009306E0070146A28503C55700E5B79307D8
:1085600000643306F6026F90FFD905C90347050082
:1085700085469307270093F7F70F63F0F602411142
:1085800022C42A843A8506C6EF901FEAFD572300CD
:10859000F400B240224441018280828003570500EA
:1085A0009307000B6313F702834745004947639C19
:1085B000E7000347150185476399E7000355250048
:1085C00085456F30905B6D47C5BF828001112314D4
:1085D000B1006C0022CC26CA4AC806CE2A89B684CD
:1085E0002315C100EF0030442A840DE12C004A8598
:1085F000EFA0DFFA2A8419E93245B7360100268751
:108600009386465515462C00EF00105D2285F240FA
:108610006244D244424905618280797193072030D7
:108620002314B1002315C1002316F1002C00930779
:108630008002014606D62307F100EFF0BFCFB2500B
:1086400045618280C177797185073EC4894726D20A
:108650002316F100AE84930780024C0022D44AD046
:1086600006D62A892307F100EF00F03B2A840DE1AA
:108670002C004A85EFB0AF8A2A8419E91245B73633
:10868000010026879386A66E45462C00EF00D05445
:108690002285B25022549254025945618280B2869A
:1086A00005466FF03FC9797126D2AE846C0022D4A2
:1086B0004AD04ECE06D6AA893289EF00D0362A8417
:1086C0000DE1A6854E85EFA09FE42A8419E9324585
:1086D000B73601004A879386064F0D46A685EF0000
:1086E000B04F2285B250225492540259F24945614A
:1086F00082807971930720202314B1002315C100D3
:108700002316F1002C0093078002014606D62307AA
:10871000F100EFF03FC2B25045618280011122CCDE
:1087200006CE2A842EC632C436C2EF50403D0DCD4F
:108730000345C500B7270020A146938787D312477A
:108740002246B245631CD50003C56700B2862E865B
:10875000A2856244F24005616FF03FD3B28603C543
:1087600057002E86A285F5B7F240624405450561A3
:1087700082806FF0BFB26FF07FB26FF07FC46FF096
:108780003FC479714ECEAE896C0022D426D24AD035
:1087900006D62A89B284EF0010292A840DE1CE85FD
:1087A0004A85EFA05FF02A8419E93245B736010007
:1087B0002687938686693D468145EF00F0412285F4
:1087C000B250225492540259F24945618280B286D5
:1087D00001466FF03FB6011122CC2E846C0026CAF0
:1087E00006CEAA84EF003024DD47630AF500930724
:1087F00010102314F400A2852685EFA03FF5F24067
:108800006244D244056182802394050083D78500A9
:1088100099E36FF07FAD09458280FDB7B72700204F
:1088200003C727A5854763F9E702011122CC2E84EF
:108830006C0026CA06CEAA84EF00F01E09E9930751
:1088400000102314F400A2852685EFA03FF0F2402B
:108850006244D2440561828059458280B727002056
:1088600023A0A7A28280B727002023A2A7A28280EC
:10887000011122CC26CA06CE2A84AE84EF502028CD
:10888000A6852285EFA0DF930DE9228523169100AE
:10889000EF50E0261DC18346C500B72700202147C1
:1088A000938787D36390E60203C567007800930639
:1088B000F0070146A285EFF05FBDF2406244D2446A
:1088C0000561828003C55700D5B7011126CA06CEBF
:1088D000B68422CCDD4663E2B608D94663FED50AEB
:1088E000A5466381D50A63EEB6049546638CD50828
:1088F00099466387D50A054441687D1863160609C1
:108900003AC6EFA0BF8F3306854032474206418208
:10891000420441803305C4004205BA85418132C614
:10892000EF30D036AA8749C181C432462390C400B3
:10893000B30580406244F240D2443E8505616F90A9
:10894000CFA9C5466380D504C9460D44E395D5FA41
:10895000C167FD17E31EF6FA65B7F5466380D504D7
:1089600063E4B600ED46D5B7930620056388D502CB
:108970009306200DE391D5F8C167FD170D446319E7
:10898000F600BDBF09448DBF9306200DE392D5F8D4
:10899000310642064182ADBF15445DBF0D444DBF57
:1089A000C167FD171D447DB7F2406244D2440561A2
:1089B0008280011122CC26CA06CE03C645002E8431
:1089C0001307000281469945AA84EFF01FF02AC6DA
:1089D00029CD835704000346440093055400231017
:1089E000F100835724002311F10089472312F1007D
:1089F000930780022303F1009770FE1FE780407DFC
:108A0000834744008A8526852314F100EFA0DFBB4D
:108A10002A8411C532459770FE1FE780E06D2285DC
:108A2000F2406244D244056182804D44CDBF5D7105
:108A300086C6A2C4A6C2CAC04EDE89476306F60037
:108A4000C1470944631AF6040144B9C52E894C088C
:108A500032C6B689AA84EF00007D2A8432460DED25
:108A6000C1778507CA851305D1013ECC230EC1000D
:108A70009770FE1FE780C0752C082685EFF07FF306
:108A80002A8419E95245B73601004E879386C65AA3
:108A90001D462C08EF0050142285B640264496440B
:108AA0000649F25961618280797122D436844AD0B4
:108AB0004ECE52CCB2892E8A3A89814613071002D3
:108AC0002286D94526D206D6AA84EFF01FE02AC610
:108AD00029C12286CA852314810023124101231350
:108AE00031019770FE1FE780A06E4C002685EFA035
:108AF000BFD02A8411C532459770FE1FE780C05F42
:108B00002285B250225492540259F249624A456178
:108B100082804D44F5B7011122CC26CA06CE4AC840
:108B2000DD472A84AE84638DF50281470355040036
:108B30006C002306F100EFA0BFCF0545638EA408AB
:108B400003458400B165938505B8EF902FE3E547B1
:108B50002301F400B7470100938767825CC0A5A892
:108B6000034755013149B2863306270318499C4211
:108B700032971043E31BF6FA83D7460003564700AB
:108B8000E315F6FA8C4608479770FE1FE780206DC4
:108B900049DD8347540103474401850793F7F70FE5
:108BA000A30AF40063F0E704B387270318480355CA
:108BB0000400BA97984783D6470003D6270083D589
:108BC0000700EFF07FEE35F103458400B165938532
:108BD00005B8EF90AFDA5945F2406244D2444249B9
:108BE000056182808347640191B7011122CC26CAB6
:108BF00006CEDD472A84AE84639CF5060355050046
:108C0000EFA0CFDF0356C40183562401035744016C
:108C10006D162A9642064182B307D640C207231E2C
:108C2000C400C18363F1E7089305C5FF3308F7402B
:108C3000635CB802BA96918EC206184C8355040143
:108C400003550400C1823E97EFF01FE615E103458E
:108C50008400B165938505B8EF904FD25945F24035
:108C60006244D244056182806D1593160501F1B707
:108C70008147035504006C002306F100EFA05FBBA1
:108C80000545E38EA4FC03458400B165938505B8D2
:108C9000EF90CFCEE5472301F400B747010093875B
:108CA00067825CC065BF8547E9B7397126DAAE8453
:108CB0002C0022DC4AD84ED606DE2A89B289A523AA
:108CC0002A8421ED4A85EFA06FD383D644006D1529
:108CD00063C5A60093160501C182984403D62400FB
:108CE00083D504004A85EFF03FDC2A841DE5314638
:108CF000A6850808230601009770FE1FE780404DF7
:108D000083D724002245B73601004E879386467BE1
:108D10005D466C00231EF100C1252285F25062548D
:108D2000D2544259B259216182806FF01FF86FF01E
:108D3000DFF7797126D206D622D44AD04ECE52CC55
:108D400056CA8944BDC935CA32892E84AA893A8A4D
:108D5000B68AEFA0AFCA13064400814771150357C6
:108D600006006356A706850793F7F70F3106E31849
:108D7000F9FE8A854E854529AA8421E11844835647
:108D8000440003562400835504004E85EFF0DFD1E4
:108D9000AA8405E50245B7360100854752879386C8
:108DA000467B5D464C002302F10022C423062101CC
:108DB000A3060100230751010525B2502254268540
:108DC00002599254F249624AD24A45618280ED4486
:108DD000EDB779714ECE37B60300AE89C16526D2A4
:108DE0000147AA8489461306C681FD15054522D48C
:108DF00006D64AD0EF105017054431CD2A89130703
:108E0000300281461146F5452685EFF01FAC2AC693
:108E1000554431C18357A900CE8601462314F10081
:108E200091472315F10085472300F500B2472C0038
:108E30002685A38007003247FD572301F7003247FC
:108E4000A301F700EF1010082A8411C5324597706E
:108E5000FE1FE780602A2285B250225492540259A4
:108E6000F24945618280411106C6EFF02FDA19C53B
:108E7000B24041011773FE1F67000328B240410151
:108E80008280011106CE2AC6EFA02F9D3245B7275A
:108E9000002023A007A2B727002023A207A2914504
:108EA000B7270020A38CA7D2EF30A058F24005616D
:108EB0006F20B03793970501C18763DB0712B7278F
:108EC000002003C597D3797122D44AD006D626D282
:108ED0002E89EF801FDD2A8451CD034705009307BB
:108EE000000A6316F70885474C08A305F100EFA0B8
:108EF000EFA3AA840DED8347610171476375F708FD
:108F0000138717FE1377F70F9306000263F4E60842
:108F1000858BD5C7B727002083A707A2994481CBAB
:108F2000035524001306B1004C088297AA84834796
:108F3000B10099C7084409C59770FE1FE780C01BA0
:108F400095E05247B7070001938707F07D8FB70779
:108F5000120093870710630CF70003476101ED4788
:108F60006317F700035524008545EF300041228543
:108F7000EF801FCCB250225421653345A900925492
:108F80000259456182803707301405073357F700CF
:108F9000058B3DDF37270020032747A249DB034726
:108FA000510151F72306F10099472308F1000355B9
:108FB00024006C0023170100EFA0CFBB8DBFB727A3
:108FC000002083A747A29DC3035524001306B100C8
:108FD0004C08829729DDAA8483475101A9FB834766
:108FE0006101230891002306F100D1B79944EDB740
:108FF00001458280397122DC26DA06DE4AD84ED657
:1090000052D456D25AD0A5472A84B2846399F51017
:109010008347450203570600835A2600850723022B
:10902000F5029307F7FFB387FA025442C207C183E0
:10903000B69703C9170083C707008346C5002209F6
:109040003369F90085476390F6023307570323100D
:1090500006008149014A130B3501931A070193DA7F
:109060000A0163E15907C167FD176302F90C8357D1
:109070000401637EF90A050942098346C4001359B5
:109080000901231724010547035504009305E40053
:10909000639FE6002315F100930720302316F100AB
:1090A00093078002231421012307F1002C00EFA075
:1090B000AFD803458400B165938505B8EF900F8C58
:1090C0005945BDA083D62400DC4083452401ED161C
:1090D00013865900C206C1823E965A85EF907FFDE5
:1090E00005C9630C3A01C84003D62400B305350115
:1090F00052959770FE1FE780A00D83D724003E9AFB
:1091000083D70400420A135A0A0185072390F4000A
:1091100083D72400BE99C20993D9090199B703479F
:109120004600A9476310F7028347450281CF0145F6
:10913000F2506254D2544259B259225A925A025BA6
:1091400021618280834624011309340137B503006D
:109150004A86894513054581EF90BFF519C105453C
:10916000C1BF8346240137B503004A8689451305EC
:109170008581EF901FF465F58346240137B5030020
:109180004A8689451305C580EF90BFF269F9834689
:10919000240137A503004A8689451305857FEF9092
:1091A0005FF155FD03C74400BD47E3EAE7FAA56751
:1091B00093874712B3D7E700858BD5D38347440203
:1091C00085072302F40203D9240071BDB7270020CC
:1091D00003C607D4B727002003A787A281476315DA
:1091E000F600814636858280BA861307870283554A
:1091F00087FDE389A5FE850793F7F70FCDB701112A
:1092000006CE2EC6EFF09FFC01CD8347A500B245E8
:10921000138717006396E50093F707F82305F50019
:10922000F24005618280011106CE2EC6EFF01FFAD2
:1092300005C5B24591C188C1834785001307E00F7A
:109240005D456388E7001307F00F01456383E7007E
:109250005945F240056182800945E5BF411122C4AC
:109260002A84210506C626C24AC0EFF00FB0834704
:109270002400A51793F7D70F91EB0347C400854748
:109280006310F7061C4881443149A9E3FD572301C7
:109290000400A304F400230204021305C4002244C2
:1092A000B240924402496146814541011773FE1F55
:1092B000670083F5B38724033E95084509C5977079
:1092C000FE1FE78060E3850493F4F40F83474401B5
:1092D0000848E3E1F4FE9770FE1FE780E0E17DB708
:1092E000084C75F965B7411122C4416406C626C20F
:1092F0009307E4FF630EF500AA8485E1EFF01FED0C
:1093000001E91305F4FFEFF07FEC19C1231095007C
:10931000B240224492444101828085476395F5041E
:10932000EFF0DFEA2A846DD5FD572310F50083475F
:1093300084001307F00F6385E7021307E00F638BC8
:10934000E700834624000345940001475146A68563
:10935000EFF0AF932285EFF07FF0FD572304F40088
:109360002305040075B78947E394F5FA8545EF4076
:10937000701C59FD2685EFF07FE52A844DF949BF21
:1093800039C9034785009307F00F6306F7040111FD
:1093900022CC06CE2A84834625008355050003454A
:1093A000950001475D46EFF04F8E03472400E147EB
:1093B0006319F700035504006C0023060100EFA0B9
:1093C0002FC7F9572304F4002285EFF03FE9F2405C
:1093D00062440561828082809307F00F6306F7067E
:1093E000011122CC26CA2A844EC6AE84B689AA852B
:1093F00093068500379501004AC852C43A89328ADB
:1094000013050538794606CEEFF06F95A3042401C5
:10941000230144012322340185C01305C4006244A2
:10942000F2404249B249224AA685D24461460561CA
:109430001773FE1F6700C3D9F2406244D244424909
:10944000B249224A056182808280B72700202386A4
:10945000A7A282809547639CF5068347450285460F
:1094600085072302F502835706005842034626006B
:10947000FD17C207C1836318D6048A07BA9703C7CA
:10948000170083C707002207D98F0357E50063F948
:10949000E704411106C622C485072316F5002A8475
:1094A0009305C50003550500EFA04F8F03458400C9
:1094B000B165938505B8EF807FCCB2402244D9478F
:1094C0003E8541018280C946B387D70245BF8346A6
:1094D0004600294785476396E6000347450211C3C6
:1094E00081473E8582809D476392F506834745020A
:1094F0008356E50085072302F5028357060058428C
:10950000FD178A073E978347170003470700A20706
:10951000D98F014763F6D704411106C622C48507D7
:109520002A842316F5009305C50003550500EFF0C6
:109530004FC803458400B165938505B8EF801FC40B
:10954000B240224459473A85410182808346460011
:10955000A94705476396F6000347450213371700EE
:109560003A858280411122C406C626C2B5472A84A4
:10957000639BF50483474502B28485072302F50205
:1095800003550500EF909FC783D704001307F5FF2D
:10959000014563C5E7020357E40003550400930542
:1095A000C400BA972317F400EFA00F8E0345840080
:1095B000B165938505B8EF807FBC5945B240224420
:1095C000924441018280034746009D470545E317C9
:1095D000F7FE0345440213351500CDB7C547639E1A
:1095E000F5068357060003572600FD17B387E702E9
:1095F0000347450205072302E5025842C207C1831B
:109600003E978347370003472700A207D98F41675A
:109610007D176395E70081473E8582801387170099
:109620002316E5000357E500E3F7E7FE411122C4E6
:109630009305C5002A840355050006C6EFA02F8EAA
:1096400003458400B165938505B8EF803FB3B24010
:109650002244D9473E8541018280834646002947FE
:109660008547E39BE6FA0347450255F775B70111B5
:1096700022CC26CA4AC852C406CE4EC683C725008D
:1096800015472A8AAE8432843689639DE70436867C
:10969000A2852685EFF01FDCAA8955E98547631866
:1096A000F40A03474900A9476301F70203C5940080
:1096B0004A8785460146D285EFE03FDD19E58545BD
:1096C0004A85EFE0BFD41334150083C6240003C5D8
:1096D000940001476946D285EFE03FDB2685EFF035
:1096E000FFB751A01D476398E7003686A2852685FF
:1096F000EFF07FDF55B725476398E7003686A285F0
:109700002685EFF03F8F49BF35476398E7003686DF
:10971000A2852685EFF01FE541B745476398E7002E
:109720003686A2852685EFF07FEBBDB75D47639F48
:10973000E70003C7C50085473686A2852685631DD9
:10974000F702EFF04FBD8547631BF5048549A54738
:109750006317F402835709009DE30544E38709F684
:10976000D947E39DF9F62285F2406244D24442494A
:10977000B249224A05618280EFF02FC7E9B703C5DD
:1097800094004A87A2860146D285EFE01FD071F58A
:10979000A2854A85EFE09FC713341500C1B7054481
:1097A000D9B7397122DC06DE26DA4AD84ED652D431
:1097B00056D283D705001944B1E783C925002A8909
:1097C000328A938759FE93F7D70FAE84DDE7B72728
:1097D000002083C6C7A21307F00F938AC7A21944BB
:1097E0006382E602F5476394F904EFF03F9EAA898D
:1097F00021C10346A5000DCE93178601E18763DDE5
:10980000070001442285F2506254D2544259B259A1
:10981000225A925A21618280F5454A85EFE03FCF76
:1098200083C7A90093E707F82385F900D9BF8149C9
:1098300083D64400904483C5140003C50400380057
:10984000EFA00F802A845DFD83C6240003C50A00B3
:1098500038000146CA85EFE05FC32A8445F5B24768
:1098600099C323000A0083C724007547E39BE7F8E8
:10987000E38909F82385F90071B7EFF03F95AA8ACB
:1098800049D18547639CF90883D54400884430005A
:10989000EF90BF982A843DF503C72A00C54763FDB2
:1098A000E708DD47630CF70AB727002003C59A00D5
:1098B00083C797D36397A70A014403C72A008D473C
:1098C000631AF7048357810003D7CA0063F4E700E3
:1098D0002396FA0083D5CA004A85EFE07FF9B727BF
:1098E000002083D787BD6D476376F70283D6CA0011
:1098F0005D476371D7021307B00FBE856374F7002D
:109900009305B00F1166C20513060629C1814A8569
:10991000EF7090495685EFF07F94EDB583472500B1
:109920001144E39137EF5C41E38E07EC83D54400AB
:10993000884430008297B9BFB72702009387072A6F
:10994000B3D7E700858BADD303C624003400D6859A
:109950004A85EFF0DFD12300AA006DB583A70A0185
:10996000DDB783C6240038000146CA85EFE0FFB1A9
:109970002A8421F583C524002800EFE03FA90DDDEE
:1099800023000A001DBF011126CAB724002006CEFD
:1099900022CC4AC84EC652C4938784D303C58700DD
:1099A0009307800291653305F50293856570976092
:1099B000FE1FE7802068B727002023A4A7A229C1A3
:1099C000938484D3138987A20144130A8002FD592A
:1099D00083C78400636FF402379501001305257A6D
:1099E000EFE0DFE7379501001305E51FEF90CFF2B9
:1099F000379501001305652EEF40E02A014511A0BF
:109A00004D45F2406244D2444249B249224A05617E
:109A10008280B3074403032509006146814505049C
:109A20001374F40F3E952310350123010500231410
:109A30003501230505002302050231059760FE1F4D
:109A4000E780807C71B70145828083D705006387FA
:109A5000A70083D745006395A70091052E858280D6
:109A600083D78500A105E38BA7FE8145C5BF0DCD3A
:109A7000834725000547890793F7F70F6376F702B9
:109A8000411122C406C62A848355050003453500CA
:109A90000147F9465D46EFE05F9FF9572311F40057
:109AA000B240224441018280828001458280372673
:109AB00000201306369B930700022300F600372789
:109AC0000020FD572309F79A37270020A302F79AB1
:109AD000372700202302F79A8545B72700202398CF
:109AE000B79AB7270020239707A2B727002023AAF9
:109AF00007A2B727002023A207A4B727002023AC82
:109B000007A2B7260020B7B703009386869A9387EB
:109B10008780DCC2B7270020238807A2B727002050
:109B20009387C79209472380E6002380E7002388B4
:109B3000E7002380E7022388E70237A70300D4C7A2
:109B40001307C77FB7A60300D8DB9386867F0D4730
:109B5000D4CB238CE70237B50300B7B60300372711
:109B600000201307C7AF130545819386C681D8DF50
:109B7000C8C32384B70023950700238CB700239D17
:109B80000700D0CFD4D3238407022395070223A64E
:109B90000702239D070237A70100B72700209387FC
:109BA000C796130767C623A00700D8C323A40700DE
:109BB0008280411106C6EFF05FE911C5034525001B
:109BC000B240410182800145E5BF411122C426C255
:109BD0004AC006C6AA842E893284EFF01FE711E935
:109BE0004165CA857D15EFF05FE6C54711C52310B5
:109BF0009500230185008147B240224492440249E6
:109C00003E854101828029E78948354763931605DF
:109C1000011106CE22CC26CA0347160003460600D1
:109C200093C7F7FF2207598EF18F32C68DE7C445DF
:109C30002A84A685EFF0FFF732460147630FA6009E
:109C400022856244F240A685D24405616FF0FFF799
:109C50002D473A85828013070008F2406244D244BF
:109C60003A850561828083C8050009486395080329
:109C700003A845008347180003480800A207B3E77C
:109C80000701C2070D68C187130828906395070173
:109C900089476FF05FF705458280011122CC372498
:109CA00000201304549A0347040006CE26CA4AC86B
:109CB0004EC69307F00F6300F704AA892945B284C2
:109CC0002E89EF70BFF905C99307100B2310F5001B
:109CD00023020500231135012313250123149500C8
:109CE000AA85034504006244F240D2444249B24985
:109CF00005616F80AF81F2406244D2444249B2496B
:109D000005618280411126C2AE84B725002093856B
:109D1000C5AF22C406C62A84EFF0BFE9098909C984
:109D200022852244B240A685924441016FF06F8A99
:109D3000B24022449244054541018280411122C42F
:109D400026C24AC006C6AA841304450013090504A6
:109D5000835704009DC3084409C59760FE1FE78030
:109D6000A0392285314681459760FE1FE780C049B2
:109D70003104231A04FEE31D24FDB2402244FD57A2
:109D80002390F4000249924441018280B7270020C9
:109D900083A7C7A303D707006300A70283D60704DE
:109DA000138707046388A6001387070883D707086B
:109DB0006396A7003A8582803E87EDBF0147DDBFED
:109DC000B727002083A747A489CB03D74700631494
:109DD000A700884782809C43C5BF0145828041110E
:109DE00006C6EFF0FFFD09C50845B240410182807B
:109DF0000145E5BF011126CA9384450022CC4EC619
:109E000006CE4AC852C456C25AC026878149014468
:109E10008146814715450356070055CED9E20354C4
:109E2000470083572700B286A297C207C1838509DE
:109E30003107E392A9FE25C82E8991659385457067
:109E400022859760FE1FE780E01E2A8B29CD814A7C
:109E5000014A8C4485C503D6440033054B01976005
:109E6000FE1FE780E03683D7440088443E9A420ACA
:109E7000135A0A019760FE1FE780002863890A00D1
:109E80003146814526859760FE1FE780E037850AC9
:109E9000B104E3E03AFD2326690123148900054556
:109EA00021A0630DD6000145F2406244D2444249EC
:109EB000B249224A924A024B05618280035627002A
:109EC000E313F6FE035647003294B2974204C207EA
:109ED0004180C183A9BF0545E37835FDA9BFB727F8
:109EE000002083A787A399E3014582809847035701
:109EF000A7006315A7001385470082809C43E5B740
:109F0000411106C6EFF0BFFD11C503550500B24073
:109F1000410182800145E5BF411106C6EFF03FFCDB
:109F200011C503452500B240410182804145E5BF8E
:109F3000411122C42A842E8506C6EFF0FFFDAA85B2
:109F400005462285EF30D03E95476305F500BD47B5
:109F50006313F5002145B240224441018280411142
:109F6000B727002022C406C603A487A3814693878F
:109F700087A329C018440356A70018406317A602F8
:109F800085CA98C22E8581C92146930544009760F1
:109F9000FE1FE780E02322859760FE1FE780C01543
:109FA0000145B240224441018280A2863A84D1B761
:109FB00098C3C9BF0545F5B737270020832747A4B5
:109FC0000146130747A4A9C703D847009443631C5D
:109FD000A802011106CE22CC26CA0DCA14C2AA8438
:109FE0003E852E849760FE1FE78000112C00268599
:109FF000EFF0FFF601E519C0B2471CC0F240624421
:10A00000D244056182803E86B68775BF14C3C1BF46
:10A0100005458280411122C42A84090506C6EFE065
:10A02000CFD4FD57A301F400B24022444101828005
:10A03000B727002083A707A403D707006300A70260
:10A0400083D66700138767006388A6001387C7005D
:10A0500083D7C7006396A7003A8582803E87EDBF0D
:10A060000147DDBF411122C4416406C626C29307E1
:10A07000E4FF630EF500AA8485E1EFF07FFB01E9C0
:10A080001305F4FFEFF0DFFA19C123109500B24079
:10A09000224492444101828085476394F504EFF0A5
:10A0A0003FF92A846DD5FD572310F500834724001E
:10A0B0001307F00F6384E7021307E00F638AE700DA
:10A0C000034534000147F9465146A685EFE0EFBB52
:10A0D0002285EFF03FF4FD572301F4002302040032
:10A0E0007DB78947E395F5FA8545EF30B04445F1F2
:10A0F0002685EFF0FFF32A8455F951BF1D71A6CADA
:10A10000CEC686CEA2CCCAC8D2C4D6C2DAC05EDE63
:10A11000AE8483C52500F947AA896397F504EFF05B
:10A120003FF12A8411ED01442285F6406644D6446D
:10A130004649B649264A964A064BF25B256182801B
:10A14000834725000547890793F7F70FE37DF7FC61
:10A15000034535000147F9460146CE85EFE0EFB2F1
:10A160002285EFF03FEBC1B703AB0400B707000156
:10A17000938707F037071200B377FB001307071028
:10A18000B28A638AE7022EC6EFF09FEA2A89B245B7
:10A1900005C5034645000DC293178601E187E3C458
:10A1A00007F84E85EFE0AFB68347490093E707F81D
:10A1B0002302F9008DBF0149372A002003472A9B5B
:10A1C0009307F00F130A2A9B1944E30FF7F4E147B2
:10A1D000E3ECB7F493D71500FD1713973700B7A733
:10A1E000030093878730BA9703A80700E30E08F2AD
:10A1F00083AB4700E38A0BF2420B135B0B01630551
:10A200000B00C947E392F5F283D64400904483C51E
:10A21000140003C50400380802982A84E31605F0E8
:10A220002C084E85829B2A8421C983C71400E39D94
:10A2300007EE83C72400230AA10039472308F10051
:10A240006399E70262478347170003470700A207A5
:10A25000D98F0C084E852319F100EF90AF91E304DC
:10A2600005EC14080546D9454E85EFE02FCB2A842E
:10A2700065BD83578101F1BF83C624009147E38404
:10A28000F6EA03450A0038080146CE85EFE0EF9F65
:10A290002A84E31B05E883C524002808EFE00F9714
:10A2A00019C123800A009840B7070001938707F07F
:10A2B0007D8FB707120093870710E306F7E6E304E4
:10A2C00009E683C724002302F900B9BD011106CEB7
:10A2D0002EC6EFF0FFD501CD83474500B245138769
:10A2E00017006396E50093F707F82302F500F240A4
:10A2F00005618280B727002003A787A319E30146E1
:10A3000015A81C4703D8A700636B050183584700B5
:10A31000B38608016355D50081466394160118433E
:10A32000F1BF3E86C10703D3A7FF6317A30099C1FE
:10A3300023900501328582808506C206C182F1BF65
:10A34000397152D42E8A4ED69305E101AA895285DD
:10A3500022DC4AD856D206DE26DA328936C63AC41C
:10A36000BE8AEFF03FF9054435C5AA840355E101E3
:10A370003944EFF0FFA439CD03284500630C0804ED
:10A380002247B246D6874A86A6854E8502982A84F9
:10A3900031E19307E00F638FFA0203C70400894796
:10A3A000631AF702D8408347170003470700A20744
:10A3B000D98FC2070D67C18713072790639CE700F9
:10A3C0008347190003460900D285A2075D8E4E859A
:10A3D000EFF0BF8C2285F2506254D2544259B259E8
:10A3E000225A925A21618280797122D40354250025
:10A3F0004ECEAA89228556CA06D626D24AD052CC3B
:10A400005AC85EC662C4AE8AEFF05F9801E9228541
:10A41000EF905F96594429E90144B9A003C7890028
:10A420008547AA840144631AF702AA851385890027
:10A43000EFF05F9C29CD03D7640083D68400D0441D
:10A4400083D5440003D52900E147EFF07FEFD947DA
:10A450002A846318F50223A604002685EFF01F8ED8
:10A4600049C0D947E30AF4FA2285B25022549254E3
:10A470000259F249624AD24A424BB24B224C4561E0
:10A48000828061DD83D744002390FA00F9B71389F5
:10A490004400014A914B594C154B83550900D5DDB9
:10A4A000E14763067A010357C90011C3D94703572F
:10A4B0002900835649000326890003D52900EFF0BF
:10A4C0003FE82A846319850123240900050A31091C
:10A4D000E3156AFD59B77DD9835709002390FA0027
:10A4E000F5B703D529002DB701112317C100930734
:10A4F000E00F1306E1000147894606CEEFF05FE466
:10A50000F24005618280797122D42A840355850046
:10A5100026D2AE849305210106D64AD0EFF09FDD06
:10A520006308050E8347850093F7070295CF2AC677
:10A5300003552101EFF0BF8AAA87B24501ED835789
:10A54000840039452390F400B250225492540259A9
:10A5500045618280035524004946829711C583577F
:10A5600084002390F400CDB7035924004A85EFF00E
:10A57000FF8111ED41657D15EFF05F8119E583578E
:10A58000840025452390F400C1B72310250113074B
:10A59000450081479546035607002DE63147B387AE
:10A5A000E702130984003146CA8591073E959760FA
:10A5B000FE1FE780E0C13146CA8548089760FE1F4C
:10A5C000E78000C10356C40003552400414781467B
:10A5D000DD45EFE08FAF2ACE19E58357840045456E
:10A5E0002390F40095B70C480356C4009760FE1FF3
:10A5F000E78000BE035524004C08EF906FF329D587
:10A60000594599B785073107E397D7F8254581BFA5
:10A610000545B1B7797122D42A840355850026D225
:10A62000AE849305E1014AD006D63289EFF09FCC83
:10A6300051C58347850093F70702A9E70347140133
:10A640009307200519E3834744008356A400504430
:10A6500083558400035524000147EFF07FCEAA877D
:10A6600021E98347140199E703552400EF906FE730
:10A67000D94711E18147B2502254925402593E8584
:10A68000456182802AC60355E101EFF04FF5AA87A4
:10A6900005C9B2450355240049468297AA8759DD6A
:10A6A000035784002390E4000347140161F7E1B7E6
:10A6B0005947E317E5FE230009006DBF8547CDB775
:10A6C000B947F9BF397122DC4AD84ED652D406DEDA
:10A6D00026DAAA892E8A32C63689EFF07F95094498
:10A6E00015C5834725001307E00FAA845D44638FD7
:10A6F000E7001307F00F5944639AE700324605E27A
:10A70000D2854E85EF90EFEA2A8415CD2285F2504E
:10A710006254D2544259B259225A2161828003555F
:10A720000A009305E101231F0100EFF0BFBC0355B0
:10A73000E101EFF06FFEAA8505464E85EF30403F00
:10A740002A845DDDE1B79307F00FE301F9FC37A53B
:10A750000100938624007946A6851305E5A6EFD06F
:10A760001FE0A38124015DB73971B727002026DAE5
:10A7700083A487A352D45AD05ECE62CC06DE22DCFC
:10A780004AD84ED656D266CA2A8BAE8B328C368ABF
:10A7900099E08149B9A0804483DC44000149835A8F
:10A7A000A400631499018440E5B78357A400A289EB
:10A7B00063F8670105094209135909014104D5B736
:10A7C000E3EAFBFE630C0A00834504004840D2869E
:10A7D00062863AC6EF80FF8D324769DD19C32310C8
:10A7E0005701F25062544E85D2544259B259225AFE
:10A7F000925A025BF24B624CD24C2161828003D7A9
:10A80000050083D62500854763E9E60439C7411171
:10A8100083C6450026C237B503009384550022C481
:10A8200026862E8413054581894506C6EF807F88DC
:10A83000C14711CD834644008355240003550400CD
:10A8400001472686EFF05FF2814711E1A947B24048
:10A85000224492443E85410182803E8582802E863C
:10A860000355060083D52500854763E2A50205C18F
:10A870008346460041110147150606C6EFF0DFEE9C
:10A88000814711E1A947B2403E85410182803E8562
:10A8900082802E860355060083D52500854763E216
:10A8A000A50205C18346460041110147150606C6AB
:10A8B000EFF09FEB814711E1A947B2403E8541018E
:10A8C00082803E85828039714ED683D7250083D918
:10A8D000050006DE22DC26DA4AD852D456D25AD0F7
:10A8E0005ECE62CC66CA6AC863E037198547638E5C
:10A8F0000914416BAE8A2A8A2314010002C601445E
:10A9000001497D1B894B054CC94C054D83D52A0057
:10A910000147814601464E8523130100EFF0DFE435
:10A92000AA846300051209EC130720029306610054
:10A930005A8695455285EFD05FF92A84630805123F
:10A940000357810083C7040045C70347A100630C78
:10A95000A70741476385E7022C005285EF904F8699
:10A9600009CD34001546D9455285EFD03FDB11C5DE
:10A9700032459750FE1FE78020788147F9A083D7A2
:10A98000A4004146130524002300F40083D7A4004B
:10A99000A183A300F400CC409760FE1FE7804083B2
:10A9A0004904835781008507C207C1832314F1003E
:10A9B00063F9270983D7A400638567098509C2095C
:10A9C00093D90901A1B7E39977F983D7A400094680
:10A9D000130524002300F40083D7A400A183A3005F
:10A9E000F400CC409750FE1FE780807E110455BFD5
:10A9F00022C60359610003C7A40013052400638223
:10AA0000770333599903230571012300E40083D7A9
:10AA1000A4004146A183A300F400CC401379F90FB0
:10AA2000A5BF230581012300E40083D7A4001359A7
:10AA300029001379F90FA183A300F4000946CC4043
:10AA400055B78357810089FBA947F2506254D2540D
:10AA50004259B259225A925A025BF24B624CD24C82
:10AA6000424D3E85216182808547C5B7C547F1BF0C
:10AA7000B727002003C727A5854763F3E706011121
:10AA800022CC26CA4AC806CE2A843289AE84EFF088
:10AA90002FDA01C9034725009307E00F5D456308DE
:10AAA000F700631C0900A6852285EF906FADF24088
:10AAB0006244D24442490561828003D50400930573
:10AAC000E10023170100EFF0FF820355E100EFF0F2
:10AAD000AFC4AA8505462285EF30800569D5C1BF80
:10AAE0005945828013F7050201C7B2856FF04FC444
:10AAF000411126C24AC006C622C413F98500AA84A1
:10AB000063170900139785016187635D070232852A
:10AB10003684EFF06FC0AA8505466313090001462D
:10AB20002685EF30E00001E90145B240224492441D
:10AB300002494101828083479400E5DB834784001A
:10AB4000E5F7E5B793F72500E5F30D45F9BF797112
:10AB5000AE8622D42A8403D506009305E10106D6E9
:10AB600036C6EFF02FF909CD83458500B24603566E
:10AB7000E1012285EFF01FF7B25022544561828037
:10AB80000545DDBF13F7050201C7B2856FF04FBA67
:10AB9000411122C426C206C693F485002A8491E49A
:10ABA000139785016187635007023285EFF0CFB6B6
:10ABB000AA85054691E0014622852244B24092448E
:10ABC00041016F20F07693F72500014591E30D4593
:10ABD000B24022449244410182807971AE8622D4EF
:10ABE0002A8403D506009305E10136C606D6EFF0A8
:10ABF0006FF0B24601CD834585000356E101228501
:10AC0000EFF05FF8B2502254456182800545DDBF08
:10AC1000797126D2AA840355A500C16722D44AD0EF
:10AC20004ECE06D623170100FD173284B68901499E
:10AC3000630DF500050583C60400D04042051307E7
:10AC4000E1004181EFF05FB22A8983C60400D04061
:10AC500037B50300894513054581EF808FC51DC5B4
:10AC600003D4A4002285EFF0AFA909C57D142A946E
:10AC7000420441806384090023908900B250225429
:10AC80004A8592540259F2494561828083C6040084
:10AC9000D04037B50300894513058581EF806FC12A
:10ACA00061F183C60400D04037A503008945130530
:10ACB000857FEF800FC019C9E30609FA8357E100C9
:10ACC000E39287FA0354A9007D145DB703D4A4006E
:10ACD00055B7397122DC26DA4AD84ED652D456D22C
:10ACE0005AD062CC06DE5ECEBE8983C785002A8A32
:10ACF000AE84C18B328C36843A89C28A468B9DE7FA
:10AD000083CB04008947638BFB046285EFF04F8B94
:10AD10001DC183280500638008025A88D6874E87A4
:10AD2000CA862286A6855285829839A03285EFF0A0
:10AD30000F8BAA8711ED3945F2506254D254425913
:10AD4000B259225A925A025BF24B624C21618280C4
:10AD50002946A6855285829745D5F9BFD8408347B5
:10AD6000170003470700A207D98FC2070D67C187E5
:10AD7000930607906384D72263CEF6069306278056
:10AD8000638ED70C63C1F60213070780E3CFE7F6A3
:10AD90002D45E39309FADC4403C60700CC43231096
:10ADA000C900228569A213073780E390E7F62D4595
:10ADB000E39409F885472310F900DC44814583C7F3
:10ADC00007002300F40003D5A400050542054181D6
:10ADD000EFF04FD283570900631705129107231034
:10ADE000F90011468145130514009750FE1FE780B6
:10ADF000A04129A2930627906383D71863CED71268
:10AE000093063790638CD71813074790E39FE7EEBC
:10AE10002D45E39309F2DC441D472310E90003C7E5
:10AE200007002300E40003C71700A300E40003D7D2
:10AE300027002301E40003D727002183A301E400B6
:10AE400003C747002302E40003D76700A302E4001E
:10AE500083D76700A1832303F4004DA02D45E39D14
:10AE600009ECDC446C0083C9170003C70700A20982
:10AE7000B3E9E90011472310E90083C707004E85B5
:10AE80002300F400DC4483C71700A300F400EFF0B4
:10AE90006FC6AA8435C50356C100C1659306E1009B
:10AEA000FD158329C500EFF0BFD619ED83C6040058
:10AEB000D04037B50300894513058581EF806F9F2A
:10AEC00001E5FD572317F10003C709008947631007
:10AED000F70283A549000946130544009750FE1F59
:10AEE000E780002F8357090089072310F900835753
:10AEF000E1002301F400A183A301F40001452DBD6D
:10AF000023173101EDB7034705008907BA972310CE
:10AF1000F9008357A500A300F4008357A500A1837F
:10AF20002301F400034605004C41130534009750FB
:10AF3000FE1FE780E029D9B7C8449750FE1FE7807D
:10AF4000C02D93170501C1832A871D45E3E637DF2E
:10AF50006399F90023100900CC4403560900CE95EB
:10AF600089B54207B3863A01418363C7E600B387D8
:10AF700037412310F900CDB723105901F1BF2D45FA
:10AF8000E39C09DACC445285EFE0BFC2231079017B
:10AF90002300A4002181A300A4008DB72D45E39DCB
:10AFA00009D8DC442310790183C707002300F4008B
:10AFB000DC4483C71700A300F40089B71D71CAC819
:10AFC0002A8903552500A2CCCEC6D2C4D6C2DAC087
:10AFD0005EDE62DC66DA6ED686CEA6CA6AD8AE8A35
:10AFE000EF80CFA1130CF5FF93170C01B72B0020B6
:10AFF000C1832A8A814913848BB03EC6372B002037
:10B00000B72C0020C16D8357C90063F6F900835740
:10B01000040063CC87010355290093858BB0EF8032
:10B02000DFC02A8D15CD594D25A883278900139798
:10B0300019009305E101BA9783C4170083C707007D
:10B04000A204DD8C2685EFF0EFAAAA8515E92390EE
:10B050009A004840054D09C59750FE1FE780C0097A
:10B06000F64066446A85D6444649B649264A964A19
:10B07000064BF25B625CD25C425DB25D2561828010
:10B0800032488348490083A64CA30356E101035587
:10B09000290081471307EBA2EFF0BFC32A8D138865
:10B0A0004CA309C523909A00484075B75C4085E7DA
:10B0B00003552900514781461386FDFFBD45EFD05A
:10B0C000DF80B727002048C0138847A309E52390F5
:10B0D0009A00454D71B7835704000357EBA29304C0
:10B0E000EBA23E976347470113C7F7FF52972390A0
:10B0F000E400484003D60400832508003E958509F6
:10B100009750FE1FE780C00C8357040003D704004C
:10B11000C20993D90901BA972310F400EDB539712A
:10B1200022DC2A840355250006DE26DA4AD84ED6CC
:10B1300052D45AD05ECE62CC66CA2E8B56D26AC822
:10B14000EF80CF8B2A8A8346C4008355A400035521
:10B15000840078001306D400130CBAFF651AEFF0D0
:10B16000AFE0420A37290020AA898144135A0A0114
:10B17000B72B0020B72C0020130989B0638609047F
:10B1800063D48405938A4CA38348440083A60A00B1
:10B190000356C10003552400528881471387EBA250
:10B1A000CE85138DEBA2EFF0DFB215C5814A0356B1
:10B1B000C1008355A4004E859306E100EFF05FA522
:10B1C000AA89639D0A065DF9E5E083578400294555
:10B1D0002310FB0089A083570D0003560401E317D9
:10B1E000F6FC83A50A0048489750FE1FE780200719
:10B1F00055DD83274900A1E30355240041664547F7
:10B2000081467D169D45EFD04FEC05E583578400C0
:10B2100045452310FB00F2506254D2544259B259B2
:10B22000225A925A025BF24B624CD24C424D21613F
:10B2300082802322A90083DAA90095BF83274900D1
:10B24000A69723805701938714001397070183273C
:10B250004900418393DA8A00BA9723805701138704
:10B2600024008326490093873400420791044183D8
:10B27000C207C204C183C180369711CD8356E10055
:10B280002300D70003274900BA970357E100218321
:10B290002380E700E5B5FD562300D70003274900CA
:10B2A000BA972380D7000DB703552400B725002097
:10B2B0008980239495B0938585B0EF800FFD21DDC3
:10B2C000594591BF411122C406C693F705012A844E
:10B2D000328585C3EFE05FC4AA8505462285EF204D
:10B2E000300595476305F500BD47631DF50221450F
:10B2F00015A893F7450099CBEFE01FC20546AA8534
:10B3000022852244B24041016F20900293F7050448
:10B3100089C7EFE07FC00146DDB713F5150013358F
:10B3200015000605B24022444101828079714AD05D
:10B330004ECE52CC06D622D426D22A8AAE890149D4
:10B3400083D749006364F9000145A1A083A70900E0
:10B350001314190093041400338797000347070060
:10B36000A29703C5070022079305E100598DEFE07E
:10B370007FF805E983A7090005453E9403470400CB
:10B380002380E70083A70900BE9403C70400A380BD
:10B39000E700B250225492540259F249624A456180
:10B3A0008280834585000356E1005285EFF09FF1CE
:10B3B00005C183A709003E94034704002380E700EA
:10B3C00083A70900BE9403C70400A380E700D1B798
:10B3D0000509420913590901A5B7011122CC2A8494
:10B3E00003D505009305E10006CEEFE0BFF001CDE7
:10B3F000834585000356E1002285EFF0BFECF24063
:10B400006244056182800545DDBF1D71CAC82A8975
:10B410000355250086CEA2CCA6CAD2C4D6C2DAC0B5
:10B420005EDE62DC66DA2E8ACEC66AD86ED6EF7031
:10B43000FFDC2AC68346C9008355A900035589004D
:10B4400078081306D900EFF02FB2B247B7240020D6
:10B45000416B938AA7FFC20AAA8B014493DA0A01BF
:10B46000372C0020B72C0020938484B07D1B63818F
:10B470000B1A0356C10183C58B0003552900EFF059
:10B480007FE4AA8D631105188348490083A64CA365
:10B490000356C10103552900568881471307ECA2C2
:10B4A000DE85EFF01F83AA8D9309ECA2138D4CA3C8
:10B4B000631B051429C003D7090083D72400110793
:10B4C0006397E7003247A2976D1763CAE706B7256F
:10B4D0000020938785B003D7270003552900938563
:10B4E00085B03354E40223908700EF808FF7AA8D54
:10B4F00015C1D94D05A003552900494781465A86F3
:10B50000C545EFD08FBCC8C015E583D7AB00C54D8E
:10B510002310FA00F64066446E85D6444649B64983
:10B52000264A964A064BF25B625CD25C425DB25D93
:10B530002561828083D7090091072391F400DC40C4
:10B5400003D7AB009306E101A2972380E70093079E
:10B55000140013970701DC4041835E85BA9703D737
:10B56000AB0021832380E7000356C1018355A90066
:10B57000EFF00FEA13072400D4409307340042078A
:10B5800011044183C2074204AA8BC18341803697CC
:10B5900021E1FD562300D700D84083250D00BA973E
:10B5A0002380D700C84003D6090022959750FE1F7C
:10B5B000E78000C283D709003E944204418001F82D
:10B5C000835789002310FA00E3960DF4A94D99B72B
:10B5D0008356E10183250D002300D700D840BA9798
:10B5E0000357E10121832380E700C84003D6090007
:10B5F00022959750FE1FE780A0BD83D709003E9497
:10B6000042044180ADB583D7AB002310FA0045BF9B
:10B61000814D75B75D71A6C2CAC0AA840359850061
:10B6200003552500A2C44EDE52DC5AD85ED662D441
:10B6300066D286C656DA6AD06ECE2E8BEF701FBCED
:10B64000930BD5FF7115131A0501B729002001448A
:10B65000135A0A01372C0020B72C0020938989B097
:10B660006359741583C6C40083D5A4001307E10091
:10B670001386D4004A85EFF02F8F2A8D630B0512B5
:10B680000359A500834585000356E10003D5240036
:10B69000EFF05FC36314051283C8440083A64CA374
:10B6A0000356E10003D52400528881471307ECA21A
:10B6B000EA85EFF00FE2930DECA213884CA3631F11
:10B6C000050E1DC883D70D0003D729008907630C19
:10B6D000F706B7250020138785B08357270003D5C9
:10B6E0002400938585B03354F40223108700EF8043
:10B6F0008FC315C5594525A003D5240041664D4784
:10B7000081467D16A545EFD04F9CB727002023A288
:10B71000A900138847A31DE123102B014545B6401E
:10B72000264496440649F259625AD25A425BB25BA9
:10B73000225C925C025DF24D6161828083D70D00D4
:10B7400089072391F90083D70D00A29763D3770768
:10B7500083A749000357AD00930A2400A2972380D2
:10B76000E70005049317040103A44900C183C20A3A
:10B770003E948357AD008325080093DA0A01A18324
:10B780002300F40003A5490003D60D0056959750F9
:10B79000FE1FE780E0A303D40D00C167FD17569498
:10B7A00042044180E30EF9EA0509420913590901EF
:10B7B00045BD294519FC23102B0195B76DDC11BF40
:10B7C0008357050099E309458280411126C244410F
:10B7D00022C406C64AC083C60400D0402A8437B5B6
:10B7E0000300894513054581EF70BF8C59C5834718
:10B7F000240025476145E51793F7F70F636BF708BA
:10B80000372900200357099B05451309099B51C39C
:10B8100083570400BA974167634DF7069165938596
:10B82000257031459750FE1FE780C080AA844D45A2
:10B83000ADC0835704008355090001460147B38614
:10B84000E500C206C182636CF704AE97C207C183EC
:10B8500019C22310F90023A004002146A2851385F4
:10B8600044009750FE1FE780A096B72700209387DB
:10B8700087A398431DEF84C381A083C60400D040F2
:10B8800037B50300894513058581EF709F8225F147
:10B890000945B2402244924402494101828050400D
:10B8A0001315470005072A962315D600054641BF04
:10B8B0003E871C43F5FF04C30145E1BF011106CEDD
:10B8C00022CC26CA4AC809E98944F2406244268546
:10B8D0004249D244056182802AC62A8428003689DA
:10B8E0002314B1002305C100EFF09FEDAA8471FD80
:10B8F000E30D09FC8357A400E1DB91659385557046
:10B9000031459740FE1FE780E07215C58357A400BC
:10B9100023200500232425012312F500B72700204A
:10B92000938747A4984301E788C345B73E871C43E4
:10B93000F5FF08C359BFCD4449BFB72700209387FF
:10B9400007A303C7070015E305472380E700058920
:10B9500009CDB7260020372500209386C69641469C
:10B9600091451305C5926FF07FF501458280B72799
:10B970000020A382A79A828041677D176310E502A9
:10B980007D572390E500238105002392E500238362
:10B9900005002394E500238505008280411106C639
:10B9A000EFE0AF8A11C5FD572310F5002301050014
:10B9B000B2404101828001114AC806CE22CC26CA7B
:10B9C00085472A896393F5044A85EFE02FBC39E95E
:10B9D000C16437A603009385F4FF1307E10089468D
:10B9E0001306C67F0545EFE03FD82A84FD140DC439
:10B9F0004C444A85EFF05FF80356E100228581460A
:10BA0000A685EFF0EFA02A84DDB789476396F5009D
:10BA10008545EF2020324DD9F2406244D24442495C
:10BA200005618280EFE08FB165B791654111938523
:10BA300015701305200D06C69740FE1FE780805F36
:10BA4000B727002023AEA7A29306050CAA877D572F
:10BA50002390E7002392070023A6070023980700FE
:10BA600023AC0700239E070023A2070223940702AA
:10BA700023A80702239A070223AE0702938707042D
:10BA8000E398F6FCB727002023A0D7A4F957231387
:10BA9000E50C2314E50C2316E50C2317E50C231005
:10BAA000F50C2311E50C2305050C2308050C2302D6
:10BAB000050C37A501001305C50FEFC0DFDA37A568
:10BAC00001001305C52CEF70CFE537A50100130564
:10BAD0004506EF20401DB240014541018280011121
:10BAE00006CE2AC6EFC0AFBCEFD07FFC3245B727E9
:10BAF00000207D572382A79AB72700209387C7AFDE
:10BB00002381070023830700238507002390E70094
:10BB10002392E7002394E700F240B727002023890F
:10BB2000A79A37C501001305659B05616F20A01713
:10BB300093970501C18763D30734B727002003C556
:10BB4000479A797122D45AC806D626D24AD04ECE08
:10BB500052CC56CA2E8BEF60CF942A8429C9034752
:10BB600005009307000B6311F704B72400208547F5
:10BB7000938444A3A304F1009C4023150100A9E78A
:10BB8000EF00007F9165938535709740FE1FE78039
:10BB9000604A88C015E98347910099C783454400EE
:10BBA00013058400EFD02FAC2285EF606F88B25070
:10BBB000225421653345AB0092540259F249624A3E
:10BBC000D24A424B45618280372A00206146814536
:10BBD00013058AB09740FE1FE780006303494400C5
:10BBE000894793048AB0D289930A8AB06314F9060C
:10BBF000EF0000782390A4000355240093058AB039
:10BC0000EF709FD70357240083D704008356840026
:10BC100011ED63E4F6002314F400835584003A85A3
:10BC2000EFC01FC52285EFC07F97B5B763E4F6006C
:10BC30002314F40083578400D945938689B00D46B8
:10BC40003A852390FA00EFC07FAD8D4561DD138505
:10BC500089B0D1A09947631AF9029305A100228502
:10BC6000EFF0EFCBAA845DDDD9476396F40E0509AA
:10BC7000035524001379F90FD945938689B04A8674
:10BC8000EFC0DFA9CA8559DDD9B7A1476318F9000C
:10BC90009305A1002285EFF0FF97E9B7A947631F3D
:10BCA000F906035584006C00EFE0CFE42A89630DA8
:10BCB00005140355240041669306E10055477D169F
:10BCC000AD45EFC09FC0C8C0AA8649C183484400A3
:10BCD0000358E1000356C1000355240081471307B0
:10BCE0008AB0CA85EFE0FFFEAA84631E050E0355E5
:10BCF000240093058AB0EF70FFE80DD503552400AA
:10BD000093068AB02D46D945EFC05FA1E30C05F03C
:10BD1000AD4513058AB0EFD00F9529B7B147631B26
:10BD2000F90E035584006C00EFE0CFDCAA8469CDE6
:10BD30000355240041669306E10059477D16B54539
:10BD4000EFC0BFB823A2AA00AA8629E983578400BE
:10BD5000C5442315F10003471400D147E304F7EC71
:10BD60008347440003552400938589B02380FA005B
:10BD70008357A10023829A002391FA00EF708FDF8E
:10BD8000E30205EA03552400938689B00546D945A8
:10BD9000EFC0DF98E30805E8854555BD83484400BA
:10BDA0000358E1008357A4000356C1000355240043
:10BDB000A68513078AB0EFE0DFF1AA840DE50355ED
:10BDC000240093058AB0EF70BFE1E30D05E403554D
:10BDD0002400D94593068AB03546EFC03F94B54557
:10BDE000E30205E4ADB5D9476393F400814403A5AC
:10BDF0004A009740FE1FE7802030E38504E2835726
:10BE000084002315F10081BF8357840085442315E6
:10BE1000F10091B7B9476318F9009305A100228595
:10BE2000EFF0CF9981B5C1476318F9009305A100E0
:10BE30002285EFF08FDD3DB5C947631AF90013067F
:10BE400091009305A1002285EFE0CFFC21BDD947E9
:10BE5000631DF9009305A1002285EFE0CFEAAA84D3
:10BE6000E31405E0A304010075BBE147E31CF9DA24
:10BE70009305A1002285EFE02FD7EDB30145828025
:10BE8000EDC2011152C42E8A854522CC4EC656C23F
:10BE900006CE26CA4AC8AA8AB6893284EF109069AB
:10BEA000D1471DC5B72700203727002083C707A526
:10BEB000834617A5814419E0B684BE863727002043
:10BEC000032787A493974400BA9763EDD400D5471E
:10BED000F2406244D2444249B249224A924A3E85E3
:10BEE000056182803E89C10703D727FF09C7850402
:10BEF00093F4F40FD9BF25C09565938525C013052C
:10BF000000029740FE1FE780E0122326A90061D1BE
:10BF1000130600028145938404049740FE1FE780C6
:10BF2000A02E2311990023000900231359011DC4D9
:10BF30003727002083479400032687CC2304F90089
:10BF4000118C8327C90011841180238E870023A0C0
:10BF500029018147B5BF23260900F1B72304490110
:10BF6000FDB785473E858280B727002083C507A59A
:10BF7000B727002003A787A481476395F500814672
:10BF80003685828003562700BA8619C2E30AA6FEC8
:10BF9000850793F7F70F4107CDB7B727002003C6F2
:10BFA00007A5B727002003A787A481476315F600DC
:10BFB00081463685828083552700BA8689C58345A8
:10BFC0004700E388A5FE850793F7F70F4107F9BF00
:10BFD000B727002083C537A5B727002003A787CC44
:10BFE00081476395F50081463685828003560700B8
:10BFF000BA8619C2E30AA6FE850793F7F70F410731
:10C00000CDB7B727002003C817A5B727002083A7FF
:10C0100087A401476315E80081463685828003D6F0
:10C020002700BE8619CA03D667006318A600D0474A
:10C0300009C603562600E302B6FE05071377F70F7D
:10C04000C107C9BF411122C4404526C206C6AA8401
:10C0500015C0484409C59740FE1FE780E0094848DD
:10C0600009C59740FE1FE780200922859740FE1FE3
:10C07000E78080082685414681459740FE1FE7807E
:10C08000A018B2402244FD57A384F4009244410119
:10C090008280011122CC2A840355250006CE2EC6AB
:10C0A000EF103015324622858145EF00706E2285F3
:10C0B0006244F24005616FF0FFF80DC5035725009B
:10C0C000411122C406C62A8411CBDD45EF00307031
:10C0D00022852244B24041016FF0DFF6B240224493
:10C0E000410182808280411126C2B1469304C5FF7E
:10C0F000B386D402B7270020138707CD06C622C413
:10C1000036978356A7006398B60248430DC513843B
:10C1100007CD9307F00F6306F60083470500639C85
:10C12000C7009740FE1FE78020FDB147B387F402A8
:10C13000A29723A20700B240224492444101828088
:10C14000411122C42E8426C24946AA8481452285F3
:10C1500006C69740FE1FE780200BA5C083C7C40119
:10C1600013974700B727002083A787CCBA9703D738
:10C1700007002310E40003D7270083D767002311AB
:10C18000E400372700200357E7A42312E40003D775
:10C1900004002313E40003D724002314E40003D78E
:10C1A00044002315E40003D764002316E40003D7FA
:10C1B00084002318F4002317E400B2402244924480
:10C1C00041018280B727002083C507A5B72700203B
:10C1D00003A887CCB727002003A687A4014781477F
:10C1E0006394E5003E8582808346060081CE5446F6
:10C1F00091CA83C6C6019206C2966315D50085070B
:10C2000093F7F70F05071377F70F4106D1BF130612
:10C2100000643386C50293069500AA8537C50100E0
:10C220001305A50B6F600F8E411122C406C62A8428
:10C2300003459500EF604F9FFD57A304F400B24003
:10C24000224441018280011122CC4AC84EC652C408
:10C2500056C25AC006CE26CA2A89AE890144372A58
:10C260000020B72A00201D4B83471AA56365F404FC
:10C2700063990902B7290020372A0020930AF00F9A
:10C2800083C709A56367F4061144A1442285050408
:10C2900042041306F00FCA854180EFF0DFE4E31794
:10C2A00094FEF2406244D2444249B249224A924A40
:10C2B000024B0561828083A78AA493144400BE9434
:10C2C00083C704009DC383D76400639027036396EC
:10C2D000690103D52400EF10C07126854E86814583
:10C2E000EF00104B2685EFF0FFD505041374F40F13
:10C2F000A5BF83278AA493144400BE9483C7040077
:10C300009DC383C794006380570383D76400639CF5
:10C3100027012685EFF05FF12685D145EF00304BF0
:10C320002685EFF03FD205041374F40F91BF4167E7
:10C330007917630BE502411122C406C685472A849A
:10C340006399F50022852244B240814541016FF096
:10C350009FEF89476396F5008545EF10B01D7DD1AD
:10C36000B24022444101828082809D456FF0BFED42
:10C37000B727002003D5E7A48280B727002003C792
:10C38000C7A4011106CE2317A1002316B1008547CB
:10C390006318F70070009305E1000545EF50802118
:10C3A000F24005618280A947631CF60483C715002B
:10C3B00003C70500A207D98F2310F50083C73500F6
:10C3C00003C72500A207D98F2311F50083C75500A5
:10C3D00003C74500A207D98F2312F50083C7750054
:10C3E00003C76500A207D98F2313F50083C7950003
:10C3F00003C78500A207D98F2314F5000145828069
:10C400000545828091476314F60283C7150003C770
:10C410000500A207D98F2310F50083C7350003C795
:10C420002500A207D98F2311F5000145828005451B
:10C4300082809387C5FF93960701C1820D47636091
:10C44000D7023147B387E70237270020130707CD0C
:10C45000BA972381A7002390B70001458280094540
:10C4600082809306402037270020AA8763F4A60025
:10C4700093074020F1172317F7A4B727002023893B
:10C48000B7A4B7270020238AB7A482801905956531
:10C4900042054111938535C0418106C69740FE1F74
:10C4A000E78040B911C5B240E95541016F50EFF244
:10C4B000B24041018280B7270020238907A4B72713
:10C4C0000020238607A4B7270020A38607A4B72748
:10C4D0000020A38A07A4B72700200111239707A4EF
:10C4E000B72700202386A7CC4EC637250020B729C2
:10C4F0000020130505CD22CC26CA4AC837240020C7
:10C50000B7240020372900201306000381459389B2
:10C5100039A506CE52C4230804A4A38804A4232466
:10C5200009A423800900372A00209740FE1FE780D6
:10C53000A0CDEF10C05403450AD0130404A5938482
:10C5400014A5130989A415CD9565938545C01205D9
:10C550009740FE1FE78000AE372700202324A7CC9A
:10C560000DC103460AD093070AD083C71700238062
:10C57000C900814512062380F4009740FE1FE78022
:10C58000A0C8B727002003C507D483C7040095655A
:10C59000938555C03E951375F50F2300A400120531
:10C5A0009740FE1FE78000A92320A90031C503465C
:10C5B0000400814512069740FE1FE780E0C4032770
:10C5C000090083460400814725077D56639FF600D6
:10C5D0006244F240D2444249B249224A37C501007E
:10C5E0001305E53205616F10006C85072300C70055
:10C5F00093F7F70F4107D9BF2300040023800400FD
:10C60000C1BF41119397050126C206C622C44AC084
:10C61000C187AE8463D1070A372900200345C9CCFE
:10C62000EF502FE82A8429CD03470500930700091E
:10C630006315F70403471500CD47631CF706B726BB
:10C6400000200348250003C576BD37270020834717
:10C6500027A51306640081458146130727A5AA88EC
:10C660006318D80299C12300F7008347070091C7D8
:10C670000345C9CC8545EF50BFAA2285EF504FDB5B
:10C680002165258DB24022449244024941018280B5
:10C6900083450600AE9793F5F70F93F7F80F63F411
:10C6A000A50093F7F50F850693F6F60F0906854565
:10C6B00045BF012DD9B793F715000145E1D7EF002C
:10C6C000107009CDB727002083C727A581CBB727D6
:10C6D000002003C5C7CC8545EF509FA413C51400A7
:10C6E00055B785462A8763FBC60483C7150003C672
:10C6F0000500A207D18F2310F500639CD70083C7E4
:10C70000350083C62500A207D58F2311F50001450A
:10C710008280894601456394D70283C7350083C66A
:10C720002500A207D58F2311F70083C7550083C6C4
:10C730004500A207D58F2312F7008280054582802D
:10C7400091476314F60283C7150003C70500A207CB
:10C75000D98F2310F50083C7350003C72500A20732
:10C76000D98F2311F50001458280054582809147CC
:10C770006314F60283C7150003C70500A207D98F0B
:10C780002310F50083C7350003C72500A207D98F02
:10C790002311F5000145828005458280A14763147D
:10C7A000F60483C7150003C70500A207D98F23101D
:10C7B000F50083C7350003C72500A207D98F2311D1
:10C7C000F50083C7550003C74500A207D98F231280
:10C7D000F50083C7750003C76500A207D98F23132F
:10C7E000F50001458280054582808947631CF6007B
:10C7F00083C7150003C70500A207D98F2310F500D2
:10C8000001458280054582808357260079714ECE8E
:10C8100006D622D426D24AD01307F007AE89637217
:10C82000F70209473AC42316F100300093F5F50FDB
:10C83000EF10001BB250225492540259F249456144
:10C84000828003574600D9462A89328463F8E6007D
:10C850008357660063F4F6006379F7002314010040
:10C86000300093F5F90F4A85E1B70355060002C47D
:10C87000EFF00FF6AA8459C1EFF0DF9483C784006C
:10C880006369F5001146A246CE854A85EF10C00ABD
:10C8900055B7340026869305F00F4A85EFF04FDE3A
:10C8A00075F1A24703578400DC472390E700035744
:10C8B00024002391E700035744002392E700035725
:10C8C00064002393E70003D744002394E700DC448B
:10C8D00085CB93F4F90F2286A6854A858297C16796
:10C8E000FD172A86E311F5FA22459947F9452300F9
:10C8F000F50023029500EFF09F912DBF094661B727
:10C90000014651B7A947631CF60483C7150003C746
:10C910000500A207D98F2310F50083C7350003C790
:10C920002500A207D98F2311F50083C7550003C73F
:10C930004500A207D98F2312F50083C7750003C7EE
:10C940006500A207D98F2313F50083C7950003C79D
:10C950008500A207D98F2314F50001458280054583
:10C96000828083C705002300F50083C71500A3005C
:10C97000F50083C7350003C72500A207D98F23110F
:10C98000F50082802322050003C745008947630420
:10C99000F7000545828083D665000D47E37BD7FE0F
:10C9A0009C45011106CE22CC26CA4AC84EC683C475
:10C9B000170003C60700A204D18C1386440063113C
:10C9C000D60403C4370083C72700AE8922045D8CD8
:10C9D0009307C4FFC207C1832A89636FF70003A5C9
:10C9E00089002311990023108900F155EF50EF9E23
:10C9F0002322A900014531A02285EFF0EFD665F191
:10CA00000545F2406244D2444249B2490561828000
:10CA1000397122DC2E84834704004AD806DE26DAE8
:10CA20004ED619472A89B285639AE7060346240041
:10CA30002800EFF0FFD0AA8415E903558100EFF03C
:10CA4000AFD2AA898345140015C937E701002E86A5
:10CA50001307079134009D454A85EF00D0424E856B
:10CA60000946814535234E85EFF0CFDDF250625403
:10CA700026854259D254B2592161828089472310B8
:10CA8000F100835781000A862311F1008357A1002A
:10CA90002312F1004A85EF00B074C9BF4947639D76
:10CAA000E702035624002800EFF05FCFAA845DFD63
:10CAB00037250020130505CD8357C50099E3814430
:10CAC00075B703471400834604000345E5003C00A6
:10CAD0000146CA85912659BF51476390E702035624
:10CAE00024002800EFF03F8CAA8449F1834514000C
:10CAF00030004A85EFF05FD195BF59476393E70651
:10CB0000035624002800EFF0FF8FAA8425F18355F7
:10CB100081004A85EFF0EFCE1DC958458356A1002C
:10CB200083570700B697C207C1832310F700C1DB04
:10CB30005C47D1D7B727002083C727A5C9D3B7271C
:10CB4000002003C5C7CC8545EF508FDD05B7894769
:10CB50003EC0835781000A86834514002312F100EA
:10CB600015BF834514000A8623100100EF005067AB
:10CB7000B9B75D71A6C256DA86C6A2C4CAC04EDE77
:10CB800052DCAA8A03C51500AE8432C6EFF0EFC0AE
:10CB9000B24501ED8144B6402644268506499644B7
:10CBA000F259625AD25A6161828023020500231130
:10CBB000050083C9040085472A84639AF90003C6E7
:10CBC00024002808EFF0FFB1AA8405492DA09D4755
:10CBD0006394F904034705008D47E31DF7FA03C684
:10CBE000240028080549EFF09FB8AA8409E5054606
:10CBF00081452285712E2285EFF00FE303458400E5
:10CC00003C080147CE862686D6853924E30509F8F7
:10CC10002285EFF02FC341B7CD47639DF90003474D
:10CC200005009147E318F7F603C624002808EFF043
:10CC3000DFBB59BFD547E39FF9F4034A0500894795
:10CC4000E31AFAF403C6240028080549EFF09FCB45
:10CC5000AA8455F183570102BDE3035781011306EE
:10CC6000F0035C44930607FCC206C182636CD600E5
:10CC70000356A101D94663F7C6008356C101D945C1
:10CC800063EFD500035524002391E7000549EF0029
:10CC9000505603560102D2852285692CA9BF8355BF
:10CCA000E1012391E7002392C7002390B70023936B
:10CCB000D70085472300F400014A0149D9BF014A42
:10CCC000C9BF7971AA8522D426D203542500AA842B
:10CCD000280806D6EFF01FCBF24599E535E98545E2
:10CCE0002285EFF08FE9C1A0835781011547639B2F
:10CCF000E7060357A1018D4763FCE7046800EFF0E6
:10CD00005FC60357E100DD4763FCE7008345D100C0
:10CD1000B70717008507100822853EC8EF00504C62
:10CD20008357E1000357A10191076305F7002285AE
:10CD3000EFF0AFE38347C10072466C00858B1106AC
:10CD4000228591CFEFF0FFE201C52285EFF0EFE100
:10CD5000884451D59730FE1FE780003A49B7EFF07D
:10CD60003FCBDDB711476389E7001387A7FF420771
:10CD70004183854663EEE6023147F117B387E70248
:10CD800037270020130707CDBA9703D7070069D3C9
:10CD900003C527003008A2850D205DF903578101E6
:10CDA0009147E31EF7F2B2502254925445618280BB
:10CDB0002C082285812E49FDFDB701114AC82A8918
:10CDC000314526CA06CE22CC2EC6B284EF401FE9DA
:10CDD00031C1B2459307000A2310F5002311B500B5
:10CDE0002A84214611058DC0A6859730FE1FE78055
:10CDF000203EA2854A85EF407FF10145F240624422
:10CE0000D24442490561828081459730FE1FE78008
:10CE1000A03FC5B70545DDB7797126D2AA841305B1
:10CE2000000206D622D42ECE32CC36CA3AC83EC62E
:10CE3000EF40DFE231C96246F2454247D246B2478F
:10CE40002A84130520FA2300A400A300C4002311A0
:10CE5000B4002302E400A302D40013058400614659
:10CE600091CFBE859730FE1FE7808036A285225481
:10CE7000B2502685925445616F405FE981459730F5
:10CE8000FE1FE7806038DDB7B250225492544561EE
:10CE900082805845797122D406D62A84AE8649C349
:10CEA00083572700231DF10093072006639FF50495
:10CEB000B727002003D6E7A4835767006373F60003
:10CEC000B28713F6F70F83552701834707018D8F2C
:10CED00093F7F70F81E5890793F7F70FB297FD17DF
:10CEE000B3C7C702231EF100835724008355640093
:10CEF00003458400231CF10001473C080146EFF084
:10CF0000BFF1B2502254456182800347C701B72761
:10CF1000002083A787CC1207BA9783D76700D9B7B9
:10CF20002EC61946814528089730FE1FE780C02D80
:10CF3000B2465DBF797122D406D626D22A848DC12D
:10CF400081470147930600062E86835564000345FA
:10CF50008400EFF07FECB2502254925445618280FD
:10CF6000B284280059469730FE1FE780E029231439
:10CF7000910089E88357240048446C002315F10090
:10CF8000EFF00F9C3C00014793060006014675BF79
:10CF9000797106D6814799ED8357250058452316A8
:10CFA000C1002314F1003C0011C78357270023154B
:10CFB000F1003C002E86835565000345850001473E
:10CFC00093060006EFF05FE5B250456182804111A3
:10CFD00022C406C68347050011472A846395E702E9
:10CFE0002E86835565000345850081470147CD4660
:10CFF000EFF09FE24946835564002244B240154554
:10D0000041016FF04F8E13F7B70F89466317D700B2
:10D010000146EFF03FF25146F9BF0D476398E70034
:10D020002244B240014641016FF09FF6B2402244D3
:10D030004101828003D70500B146B7270020711750
:10D040003307D702938707CDBA97D84319EBD84156
:10D050002395A7000145D8C303D725002394E700F3
:10D06000828059458280797122D4404526D24AD0A7
:10D0700006D6AA842E8925C0484419C59730FE1FBC
:10D08000E7808007232604008357040083D56400CB
:10D0900003C584002315F10083572400014793063C
:10D0A00040062316F100835784004A862317F100B7
:10D0B0001C483EC883D724002314F1003C00EFF045
:10D0C000BFD5A30E240123280400B2502254925449
:10D0D0000259456182802800314681459730FE1F04
:10D0E000E780801283D7240083D5640003C58400C1
:10D0F0002314F10001473C00930640064A86EFF0F6
:10D10000BFD1E1B7797152CC2A8A03D5050026D266
:10D1100006D622D44AD04ECE56CAAE84EFE0DFE423
:10D1200019E18547BDA84045AA8965DC835765009C
:10D13000E39947FF83578400638707128346C4013E
:10D14000B72A002003A78ACC9206FD173697C2079C
:10D1500003576700C1832314F4006316F700930597
:10D160003006EFF01FD35C48A5EFC8400349150017
:10D170008347050022093369F90083D72400130788
:10D180002900631AF702F955EF403FA5C8C0239163
:10D19000240103C589002686D285EFF01FC281478E
:10D1A00021E1B250225492540259F249624AD24AC1
:10D1B0003E85456182809565938515C04A85973087
:10D1C000FE1FE78020E748C8C840231C2401F9550A
:10D1D000EF40BFA083D72400C8C0F9172391F40003
:10D1E000484859C503D624008356A40183578401B7
:10D1F0003308D60063C007090347C40183A78ACC5C
:10D2000095451207BA9783D7270063CF0705CC400F
:10D2100036959730FE1FE780A0FB0357A40183D704
:10D220002400BA97C20703578401C183231DF40069
:10D23000E399E7EE03D7290003C5890030002314E2
:10D24000E1005848D2852315F1003AC6EFF0FFB649
:10D2500011C548489730FE1FE78000EA232A0400E2
:10D26000232C04007DBD99454E85EFE09FE255BD1E
:10D27000A545DDBF9145CDBF03D725007DC3B727A9
:10D28000002083D6E7A4ED4763EEE60C011122CC23
:10D290002E8426CAAA844840914506CEEF40FF93CB
:10D2A00083572400AA862300F50083572400A18316
:10D2B000A300F500835704002301F5008357040001
:10D2C000A183A301F50003562400C167F9171106D5
:10D2D000420641826396F4042AC4314532C6EF40C7
:10D2E000FF97AA85CD471DC5930700F92300F500D8
:10D2F0003246F957A2462311F50089472302F5006B
:10D30000B72700202313C50014C503C5C7CCEF40C1
:10D31000FF9F8147F2406244D2443E85056182808E
:10D3200081452685EF40A03AAA8711E9B72600205B
:10D3300003C726A565D37D172389E6A4E1BF094766
:10D340006304E5021D476303E50249476302E50202
:10D350007D47E311E5FCB726002003C726A58147DA
:10D36000D1BFED473E858280D1476DB791475DB70C
:10D3700089474DB701114AC831471309C5FF330723
:10D38000E902B727002026CA938407CD06CE22CC17
:10D39000BA94D84029CB138407CDB727002083C681
:10D3A00027A5854795CA2314A10083D7840003D5F8
:10D3B000A4002C003AC62315F100EFF0FFEB11C5D5
:10D3C000C8409730FE1FE78020D3B147B307F9026A
:10D3D000A29723A207008547F2406244D244424903
:10D3E0003E85056182808147C5BF797126D244455B
:10D3F000372700204AD083D764000359E7A452CCD2
:10D4000006D622D44ECE56CA2A8A63F327013E8915
:10D4100003D7240142091359090183D7040141CBE1
:10D42000998F4A8463D52701139407014180894568
:10D430002285EFF0AF85AA89CD4A25C183D7240084
:10D440002AC6231581002314F10083D7240185E324
:10D4500083D70401930925002300F50083D7040135
:10D46000A183A300F5006376240503D4040183D7C8
:10D470002401CC4422864E85BE959730FE1FE7805E
:10D4800020D503556A002C00EFF01FDFAA8A15C5CE
:10D490004E859730FE1FE78020C6B2502254568535
:10D4A00092540259F249624AD24A45618280890700
:10D4B0008DBF7914420441805DBF03D7240183D717
:10D4C00004003A94FD17C207420403D70401C18344
:10D4D00041802390F400239984006377E400D5FF12
:10D4E000FD57A38EF40055BF81455285EFF0BFB7BD
:10D4F0006DB779714AD03729002052CC034A59A51B
:10D5000022D456CA5AC85EC662C406D626D24ECEA9
:10D510005284B72A0020054B930BF00F372C0020C4
:10D5200083A78AA493144400BE9483C90400639D16
:10D530006907DC44B5CBD84725CB03D7070029CBF7
:10D54000B727002083C727A599CF2685EFF0FFE9ED
:10D55000AA8515E9B727002083C717A505046351DD
:10D56000F402A30A89A4B25022544E85925402595F
:10D57000F249624AD24A424BB24B224C4561828008
:10D58000A30A09A4CDB72685EFF0FFAD8149E1BF1D
:10D5900083C7D701639A7701930520062685EFF0AC
:10D5A0005F8FDC44A38E070083471CA5050413741A
:10D5B000F40F6363F4000144E31444F7C1BF411165
:10D5C000154506C6EFF01FDB09C50545B240410110
:10D5D00082801945EFF01FDA6DF91145EFF09FD900
:10D5E0006DF51D45EFF01FD96DF1B727002003C57C
:10D5F00017A569DDB24041016FF0BFEF83D7050089
:10D600000D47F117C207C1836365F706DC41B5C357
:10D61000411122C42E84854526C206C6AA84192F2C
:10D6200039C926853525C167F9176381F40219EDDB
:10D630008357240081CF8356040019476393E6047F
:10D64000372700200357E7A463FDE702B727002030
:10D6500083C727A5A285268599C72244B240924454
:10D6600041016FF07FC12244B240924441016FF00A
:10D670007F9C094582805145B24022449244410139
:10D6800082806D45D5BF397126DA4ED6AA84AE891F
:10D690005D4589454AD806DE22DC328936C63AC461
:10D6A000EFE0DFDE35C522472A84014511C7B246C7
:10D6B00013054400B6850297935785002300340173
:10D6C000A3002401A301F4009547231CF100B72710
:10D6D000002083C727A52301A4001105231DA10055
:10D6E00022CE2C08268595C3EFF01FB9AA8411C558
:10D6F00022859730FE1FE78020A0F25062542685D5
:10D700004259D254B25921618280EFF0BF92F9BFE1
:10D71000CD44E5B7797126D24AD052CC56CA06D646
:10D72000BA8A22D44ECE19472E89B284368A63969D
:10D73000E506035526000944EFE01F832AC635C5D8
:10D740005C458359650083D727002390F400B247D6
:10D75000B726002015472380570103C6D6A423917E
:10D76000E70093051600A386B6A42382C700D1461E
:10D770006319D9002391E400DC4703D78400239484
:10D78000E7005287A686CA854E85EFF0DFEF2A8430
:10D79000324515C4EFE01F8B09A842867400BE8590
:10D7A000AA89EFE0EFED2A845DD12285B2502254A0
:10D7B00092540259F249624AD24A45618280F9453F
:10D7C000EFE0FFA4DDB783D705002300F50083D782
:10D7D0000500A183A300F50083D725002301F500F0
:10D7E00083D72500A183A301F5001145828083D74B
:10D7F00005002300F50083D70500A183A300F500F1
:10D8000083D725002301F50083D72500A183A30139
:10D81000F50083D745002302F50083D74500A18397
:10D82000A302F50083D765002303F50083D76500C5
:10D83000A183A303F5002145828083D7050023003F
:10D84000F50083D70500A183A300F5000945828078
:10D8500083D705002300F50083D70500A183A3002B
:10D86000F50083D725002301F50083D72500A18388
:10D87000A301F50083D745002302F50083D74500B7
:10D88000A183A302F50083D765002303F50083D7A6
:10D890006500A183A303F50083D785002304F50069
:10D8A00083D78500A183A304F5002945828003D78F
:10D8B00005008546AA872300E50003D705002183DC
:10D8C000A300E50003D70500631DD70003D725009B
:10D8D0002301E50003D725002183A301E5001145BD
:10D8E000828009456315A70203D7250019452381C6
:10D8F000E70003D725002183A381E70003D7450074
:10D900002382E70003D745002183A382E7008280BA
:10D9100083D705002300F50083D70500A183A3006A
:10D92000F50083D725002301F50083D72500A183C7
:10D93000A301F50011458280797126D24AD04ECEDE
:10D94000B2842A89AE8929468145480022D406D668
:10D9500036849730FE1FE780208B231691008DECD4
:10D96000835724002312F100B727002083D7E7A4B0
:10D970002314F1005C448DC383C6C7013727002000
:10D98000032787CC920683D7870036970357270053
:10D990002315F1002313E10037E701004A8513073F
:10D9A0000785540013F6F90FD545EFF0DFCD2A892E
:10D9B00011C19DE085472300F400230204000146C5
:10D9C00081452285EFF00FD7B25022544A859254F8
:10D9D0000259F249456182802285EFE0AFE6EDB75A
:10D9E00037E70100B2861307E78A2E8685456FF078
:10D9F0009FC901112317A100B7D60100416570002E
:10DA000001489307F00F0D479386667C99457D1575
:10DA100006CEEFF03FD0F24005618280B7D601001C
:10DA2000B28701482E8611479386E67EC9456FF07E
:10DA30007FCE37E70100B2861307A7832E86CD4538
:10DA40006FF07FC4011122CC37240020130484D04E
:10DA500026CA4AC84EC606CE2A89AE899304040354
:10DA60001C4081C7CE854A8582971104E31A94FE33
:10DA7000F2406244D2444249B24905618280B727EC
:10DA8000002003C5F7BD411122C493773500372428
:10DA900000200981AA97130484D306C62304F40046
:10DAA000A9C31305C0033385A702A5658505972083
:10DAB000FE1FE780205803478400B727002023A2D9
:10DAC000A7D0FD560905814763C1E702B7270020AB
:10DAD000938787D01387070323A007009107E39D4F
:10DAE000E7FEB2402244410182802310D500230189
:10DAF00005002325050285071305C503F1B7B727E0
:10DB0000002003C607D4B727002003A747D08147CA
:10DB10006315F600814636858280BA861307C703EF
:10DB2000835567FCE389A5FE850793F7F70FCDB70B
:10DB3000011122CC2EC632C406CE2A84EFF03FFC5F
:10DB40002246B24511E9C167F9176303F400514554
:10DB5000F24062440561828054558347450095C276
:10DB600013F7270141456314A700154575F2C18BD2
:10DB70003D45F9DF83C7A6010145E3FBB7FC31450D
:10DB8000C1BFC18B0145E9F71545D9B7797126D2D7
:10DB90004AD0B7240020416922D44ECE52CC56CA76
:10DBA0005AC806D6AA890144938484D3372A002010
:10DBB000930AC0037D19054B83C784006364F40096
:10DBC000014535A8B307540303274AD0BA9703D7B2
:10DBD00027006316270105041374F40FF1BF03C572
:10DBE0005700300093856700EFA0E17C1946CE8591
:10DBF00028009720FE1FE7808066E31E65FDB25077
:10DC0000225492540259F249624AD24A424B456127
:10DC10008280B727002083C507D4C166B7270020BC
:10DC200003A747D0FD1681476395F500014632856D
:10DC30008280035827003A866306D800034807000D
:10DC4000E307A8FE850793F7F70F1307C703E9BF9C
:10DC5000411106C6EFF0BFEA11C503554501B240B8
:10DC6000410182800145E5BFB727002083C607D464
:10DC7000B727002003A747D00145814711076393C9
:10DC8000F60082800346070001C605051375F50FEF
:10DC9000850793F7F70F1307C703D5B7B7270020FA
:10DCA00003C507D4828037270020930687D0814799
:10DCB000130787D031468C4291E58A07BA9788C30B
:10DCC0000145828085079106E397C7FE4D45828016
:10DCD000411106C622C4EFF09FE21DCD2A840355F0
:10DCE00025008545EFF01FD6485409C59720FE1F33
:10DCF000E780804022851306C00381459720FE1FE0
:10DD0000E7808050FD572311F400230204000145F1
:10DD1000B2402244410182800945DDBF411106C65F
:10DD2000EFF0FFDD11C50345C500B240410182801F
:10DD30000145E5BFC167F9176304F502411122C42B
:10DD400006C62E84EFF0BFDBAA87014591C703C545
:10DD50004700698C33358000B24022444101828003
:10DD600005458280011106CE2EC6EFF05FD98547AA
:10DD700011C903574501B24585476305B700231A0A
:10DD8000B5008147F2403E850561828031CD0111A9
:10DD90004AC84EC637290020C16922CC26CA52C4BF
:10DDA00056C206CE0144AA84130989D3372A00201B
:10DDB000930AC003FD1983478900634BF400F240C6
:10DDC0006244D2444249B249224A924A0561828061
:10DDD0003305540383274AD03E9583572500638338
:10DDE000370182940504C1BF8280B727002003C693
:10DDF00007D4B727002083A747D0C166014589070C
:10DE00000147FD1691456313E600828003D80700A1
:10DE10006309D80003C8A7006315B800050513758A
:10DE2000F50F05071377F70F9387C703E9BFB727E8
:10DE3000002003C607D4B727002083A647D0014798
:10DE4000814791066310E602858393C7F7FFC207F7
:10DE5000C18305456364E50285473395A700420504
:10DE60004181828083C5060081C583D5C602CD8FDE
:10DE700005071377F70F9386C603E9B793F61700E4
:10DE8000E1FE050585831375F50FE9B7797156CA6B
:10DE9000AA8A2E8526D24AD04ECE52CC5AC85EC609
:10DEA00062C406D622D4AE84328B368CBA8B3E8ABC
:10DEB000C2894689EFF0BFC449E141657D15EFF0A5
:10DEC0001FC42A84554531CC1946DE8513056400EC
:10DED000A30284019720FE1FE780802F8357010350
:10DEE00023119400230264012319F4008357410392
:10DEF0002300540123260402231AF40023064401BC
:10DF00002317340123182401EFF07FF22318A40211
:10DF1000232A04022685232C04028145EFF09FB2B8
:10DF20000145B250225492540259F249624AD24AEF
:10DF3000424BB24B224C456182804545DDB7B72745
:10DF4000002083C607D4B727002003A747D0814706
:10DF50006395F60041657D1582803A861307C703F5
:10DF6000835547FF6395A5000355260082808507EA
:10DF700093F7F70FF1BFB727002003C807D4416616
:10DF8000B727002003A747D07D16814785482D433A
:10DF9000314E6314F80001458280835627003A858C
:10DFA0006382C602545B99CE83C506006397150150
:10DFB00083C616006378DE00828089E583C616007A
:10DFC000E37CD3FC850793F7F70F1307C703D1B79B
:10DFD000B727002083C507D44166B727002003A7D1
:10DFE00047D07D16814725486394F500014582801E
:10DFF000835627003A85638BC600545B81CA83C66B
:10E000001600E51693F6F60FE373D8FE850793F72F
:10E01000F70F1307C703C9BF894791C909C99547B6
:10E020002380F50083470500A380F50081473E85E6
:10E03000828039714ED652D4AE892A8A9305300532
:10E04000414526DA4AD856D206DE22DC32C6368967
:10E05000BA8A9720FE1FE780E0FDCD4431C92A84AB
:10E0600089446382090432468145231AC10041462E
:10E070009720FE1FE78040195686CE85228597207F
:10E08000FE1FE780E0142146630E0902CA852808B6
:10E090009720FE1FE780C013A28650082C085285E7
:10E0A000EF300055AA8422859720FE1FE780C00428
:10E0B000F250625426854259D254B259225A925A89
:10E0C00021618280814528089720FE1FE780C013C8
:10E0D000E1B789478DC505C5411106C6AE87194709
:10E0E000AA852380E7001385170041469720FE1F6D
:10E0F000E780000EB24081473E85410182803E8527
:10E100008280894795C90DC9411106C625472380DC
:10E11000E50003470500AE871946A380E500930597
:10E120001500138527009720FE1FE780600AB24084
:10E1300081473E85410182803E85828089478DC529
:10E1400005C5411106C6AE872147AA852380E70091
:10E150001385170041469720FE1FE7806007B240F5
:10E1600081473E85410182803E85828089479DCDE1
:10E1700015CD411106C61D472380E5000357050054
:10E18000AE872146A380E500035705002183238144
:10E19000E50093052500138537009720FE1FE780D3
:10E1A0002003B24081473E85410182803E858280C6
:10E1B00089478DC505C5411106C6AE870D47AA859D
:10E1C0002380E7001385170041469720FE1FE78054
:10E1D0002000B24081473E85410182803E85828099
:10E1E00089478DC505C5411106C6AE871147AA8569
:10E1F0002380E7001385170041469720FE1FE78024
:10E2000020FDB24081473E85410182803E8582806B
:10E2100089478DC505C5411106C6AE872947AA8520
:10E220002380E7001385170041469720FE1FE780F3
:10E2300020FAB24081473E85410182803E8582803E
:10E24000B727002023AC07A4B727002023AE07A4DC
:10E25000B727002023A007A637070200B727002012
:10E26000938787971307278B98C337E70100130716
:10E27000276ED8C337E701001307270398C7B727CE
:10E28000002037070200938747981307E70098C3D9
:10E2900037F701001307078BD8C337F701001307BF
:10E2A000C71098C78280C14709CD144DC14791CA94
:10E2B000784D01CB83C73600BD4663F4F600834733
:10E2C00087013E858280411122C43724002026C266
:10E2D000930484A54AC02A89884006C649C5130408
:10E2E00084A5631E0900834705002146B1CB29059B
:10E2F0009720FE1FE780C0ED1C400545B9CF49457A
:10E30000EF30DF95AA840DC5930710FC2300F500BC
:10E31000A30025010C400905414689059720FE1FF1
:10E32000E78000EB1C40A68503C51700EF301F9E59
:10E3300008409720FE1FE78020DC2320040029A846
:10E3400009059720FE1FE780A0E8EF30202A054945
:10E3500045F59C40238027010545B2402244924464
:10E360000249410182800145CDBF1C4D639F0716C4
:10E37000411122C426C22A84AE844145930530054A
:10E3800006C69720FE1FE780E0CA08CCCD4763048D
:10E390000510A68541469720FE1FE78060E3834570
:10E3A0000400F9ED7C4C184CD04B5443058A858A07
:10E3B0006307D60083D64701F99A239AD700D04B3A
:10E3C000544305828582058A858A6307D60083D6F1
:10E3D0004701F59A239AD700D04B5443098289828A
:10E3E000058A858A6307D60083D64701ED9A239A6A
:10E3F000D700D04B54430D828D82058A858A6307EE
:10E40000D60083D64701DD9A239AD700D04B5443D8
:10E410002182A182058A858A6308D60083D64701B6
:10E4200093F6F6EF239AD700D04B54432582A5826A
:10E43000058A858A6308D60083D6470193F6F6DFFE
:10E44000239AD700D04B54432982A982058A858A12
:10E450006308D60083D6470193F6F6BF239AD70008
:10E46000D44B5843AD822D83858A058B638AE600A1
:10E4700003D74701FD769386F67F758F239AE700D1
:10E4800003C714007C4C11CF03C7170019CB954765
:10E49000A301F4008147B240224492443E854101E9
:10E4A000828003C72400118B19E703C72701118B52
:10E4B00019E38547F1BF03C7070083C6040081C580
:10E4C000B687BA863E871146E147E366E6FCE36419
:10E4D000D6FC95473307F702B7A703009387473E5B
:10E4E000BA97B69783C7070065B7C5473E85828050
:10E4F000AE8715C5784D05C7834607002380D50034
:10E5000083461700A380D500834627012381D500C9
:10E5100083468701584BA381D500D8C182804146EC
:10E5200081453E851723FE1F670003CEB7270020D5
:10E5300083A7C7A591C703A38700630303000283D2
:10E5400009458280011122CC2A84494506CEEF601C
:10E55000EFE315C12AC62285EFF06FDA09CD6244D8
:10E56000B7270020324683550503F24003C5B7D3D1
:10E5700005616F307FCBF240624405618280797122
:10E5800026D29947231DB100AA842E858D4522D419
:10E5900006D632C636C4231CF100EFD03FEF2ACE98
:10E5A0004D441DC13246A246AA85328582962A84F0
:10E5B00019E52C082685EFF06F842A8411C5724571
:10E5C0009720FE1FE78040B32685EFF0BFF7228536
:10E5D000B2502254925445618280011122CC93059D
:10E5E000C5012A8441460A8506CE9720FE1FE78092
:10E5F00020BE03554400B7E601000A869386061B39
:10E60000C545EFF0DFF7F2406244056182800111F9
:10E6100022CC9305C5022A8441460A8506CE97205E
:10E62000FE1FE780E0BA03554400B7E601000A8602
:10E630009386061EC545EFF09FF4F24062440561E3
:10E640008280B7E601002E869386260DC5456FF0C1
:10E650001FF30111B28722CC2300B1002A84BE85AA
:10E6600013051100194606CE9720FE1FE78040B61D
:10E67000B7E601000A86228593862610A145EFF0B1
:10E680001FF0F240624405618280B7E601002E86E9
:10E690009386C613C5456FF09FEE0111B28722CC59
:10E6A0002310B1002A84BE8513052100214606CE21
:10E6B0009720FE1FE780C0B1B7E601000A862285D9
:10E6C0009386C616AD45EFF09FEBF24062440561BC
:10E6D0008280B7E601002E8693860621C5456FF03D
:10E6E0001FEA011106CE22CC26CA834405008547C5
:10E6F000639BF4048347150019472A84639AE7044F
:10E700001C4D83D7470013F7071019C7784D0357DF
:10E7100047011377071021E313F7072001CB784C4B
:10E720000357470113770720631B071093F7074030
:10E7300081CB7C4C83D7470193F707406392071640
:10E74000C947A300F400F2406244D24405618280CC
:10E7500031476398E70A3C5085E3930530057145DE
:10E760009720FE1FE780008D28D019C5714681458E
:10E770009720FE1FE78040A92450B9C883C7A40191
:10E7800091E72285EFF03FB2238DA40081452685D5
:10E7900041469720FE1FE78020A728503D4783452C
:10E7A000A5019387F5FF93F7F70F6364F700EF5028
:10E7B0007F84EF304FEE3C50A1452398A70013858E
:10E7C0002701EF503F832C5003554400EFF07FE7C3
:10E7D000B54703554400A300F400EFF04FB24146A3
:10E7E00011C58357E50013D617003E966244B7273C
:10E7F0000020F240D24403C5B7D3854505616F3090
:10E80000BFA23547639AE7023C5189CB83D5070104
:10E810000355450013862701EFF03FE81C4C83D7D2
:10E82000470013F7072039CB784C0357470113777C
:10E83000072029C7B94771BF3947639BE700EF50ED
:10E84000FFABAA8503554400EFF03FE4BD4751B745
:10E850003D476394E704EF50DFA9AA85630D950255
:10E86000814526852EC6EF50DFA62A86B245035580
:10E870004400EFF01FDE1C4C83D7470093F707409E
:10E88000E38007EC7C4C83D7470193F70740E3898B
:10E8900007EAC1473DBF8144E9B74147E392E7EA50
:10E8A000EF507FA6AA8503554400EFF09FE249BDD3
:10E8B000797106D622D426D283440500A5E4834785
:10E8C000150019472A846394E7067C4D83D74701D6
:10E8D00013F7170011C7184D03574700058B39EB85
:10E8E00013F7270019C7184C03574700098B631506
:10E8F0000714918B99C71C4C83D74700918B639C5D
:10E9000007187C4C83D7470113F70710630D0718CE
:10E91000184C035747001377071063060718B147D1
:10E92000A300F400B25022549254456182801D47E6
:10E930006397E70C3C5089EB9305300571459710C0
:10E94000FE1FE780206F28D02450C9C02285EFF039
:10E950009F95238DA4008145268541469720FE1F63
:10E96000E780808A28503D478345A5019387F5FFBE
:10E9700093F7F70F636DF702B727002083C777EE91
:10E98000A5CF4146814508089720FE1FE780C08734
:10E99000B72500201946938585C208089720FE1FD9
:10E9A000E780008330500C082E85EF103162EF3085
:10E9B0008FCE3C50A1452398A70013852701EF5027
:10E9C0006FE32C5003554400EFF0BFC7A147035538
:10E9D0004400A300F400EFF08F92414611C5835725
:10E9E000E50013D617003E96B727002003C5B7D31E
:10E9F0008545EF307F833DB7EF50CFDF4DBF2147D7
:10EA00006399E7023C5189CB83D507010355450043
:10EA100013862701EFF07FC87C4C83D7470113F79B
:10EA2000270021CF184C03574700098B39C7A5474A
:10EA300079BF2547639BE700EF505F8CAA8503559C
:10EA40004400EFF09FC4A94759B729476392E704F0
:10EA5000EF503F8A8547AA856304F50081458544C8
:10EA600026852EC6EF50FF862A86B2450355440000
:10EA7000EFF03FBE7C4C83D74701918BE38307E8DF
:10EA80001C4C83D74700918BE38D07E6AD4781B7D8
:10EA90002D47E398E7E6EF501F87AA85035544000A
:10EAA000EFF03FC3B9BD13F7072009CB184C03574C
:10EAB00047001377072019C3B9479DB593F707405F
:10EAC00089CB1C4C83D7470093F7074099C3C147B4
:10EAD00081BDC947B1B515CD01118A8522CC06CEBD
:10EAE0002A84EFF0FFA0834704000355440089CF38
:10EAF000B7F601009386266B0A869D45EFF03FA886
:10EB0000F240624405618280B7F601009386C66BCD
:10EB1000E5B705458280B7270020AA8503C5B7D38E
:10EB20006F30FF8B411122C4405926C206C6AA8409
:10EB300031C4084C09C59710FE1FE780E05B2850E0
:10EB400009C59710FE1FE780205B685009C5971024
:10EB5000FE1FE780605A285409C59710FE1FE78002
:10EB6000A059685409C59710FE1FE780E058228518
:10EB70009710FE1FE780405823AA0402224403D5C1
:10EB80000403B240924441016FF0FFF8411126C2E4
:10EB900006C622C4AE84EFE09FF621C54C592A84F4
:10EBA000A9C183A8C50603A88506FC51B85183C630
:10EBB000650003D6450083C505002685EF602F85D7
:10EBC0002285EFF03FF6EFF0AFC001CD2244B7272A
:10EBD0000020B240924403C5B7D3854541016F3050
:10EBE0002FD4B2402244924441018280411122C478
:10EBF000405926C206C67C4CAA8483D7470113F726
:10EC0000071019C7184C03574700137707101DE367
:10EC100013F7072019C7184C03574700137707202D
:10EC200011EB93F707409DCB1C4C83D7470093F71C
:10EC300007408DC79947A300F4002285EFF07FAA13
:10EC400003471400C947631FF700224403D524007B
:10EC5000B2409244814541016FF05FF3C947A30080
:10EC6000F400E5B7B2402244924441018280411150
:10EC700006C622C426C2EFF00FB039C14059AA849B
:10EC800021C08347040085CBB727002083A7C7A5F1
:10EC900089C7DC4399C32285829703471400C9477B
:10ECA0006310F702224403D52400B2409244814508
:10ECB00041016FF0BFEDB727002083A707A6C9BFAA
:10ECC000B2402244924441018280411126C24AC08E
:10ECD00006C622C4AA842E89EFE07FE20DCD4059FA
:10ECE00055C4835744006393970A83471400194718
:10ECF0006395E70883470400A5CF7C4C83D7470181
:10ED000013F7170005C3184C03574700058B19CBA1
:10ED10009D47A300F400B2402244924402490545B5
:10ED20004101828013F7270001CB184C035747009D
:10ED3000098B19C3A547F1BF918B81CB1C4C83D79D
:10ED40004700918B99C3AD47E9B7B727002083A748
:10ED5000C7A5F1D3DC43E1D3228582970347140092
:10ED6000C9478145E319F7FA2685EFF03FE265B719
:10ED7000B727002083A707A6E9BF45476398E700A8
:10ED80006304090013092003CA85F9BF631C090045
:10ED90002685EFE0DFD619C58347450093E70701D5
:10EDA0002302F500A6854A85EF502FFBADB7411130
:10EDB000B7E6010022C42E862E84938686018945FB
:10EDC00006C626C24AC02A89EFF06FFB83450400BD
:10EDD000AA844A85EFF09FDBB2402244268502498F
:10EDE000924441018280B727002083A707A695CBD4
:10EDF0009C4385CB797122D406D6984110082A8489
:10EE00003AC8D84185453ACA829701C92306A1006C
:10EE1000035524006C00EFF09FF9B2502254456175
:10EE200082808280011122CC06CE2A842EC6EFE099
:10EE30001FCD5C5991CF83D74700B245639A8700B5
:10EE400085476397F5006244F24005616FF09FCDFE
:10EE5000F240624405618280411106C6EFF02F8EB8
:10EE6000C167FD176307F500B240DD4541016FF052
:10EE7000FFD1B240410182802300B50082800111A0
:10EE800026CA4EC6AE84AA89930530051305000331
:10EE90004AC806CE22CC32899710FE1FE78080191F
:10EEA0002DC51306000381452A849710FE1FE780B5
:10EEB000A0354146CE8522859710FE1FE780003D94
:10EEC000A6850D461305D4019710FE1FE780003C70
:10EED00013060402930504012285EF10310FAA8462
:10EEE0000D469305D4024A859710FE1FE780003A2D
:10EEF00022859710FE1FE7802020F240624426857D
:10EF00004249D244B24905618280CD44FDB7814770
:10EF10004146B306F5003387F5000347070003C8F1
:10EF200006008507334707012380E600E393C7FE09
:10EF300082805D714EDE62D4AE892A8C93053005E5
:10EF400013050003A6C2CAC052DC56DA5AD85ED6F0
:10EF500086C6A2C4B28B368BBA84BE8A4289468AE0
:10EF60009710FE1FE780000D6305051013060003D0
:10EF700081452A849710FE1FE78000294146E285DB
:10EF800022859710FE1FE7806030414681450A8543
:10EF90009710FE1FE78040271D46DE850A859710E3
:10EFA000FE1FE780A02E1D46DA851305710097101D
:10EFB000FE1FE780A02D33392001B3349000414675
:10EFC0008145080823072101A30791009710FE1F20
:10EFD000E78080231946D68548089710FE1FE780F2
:10EFE000E02A1946D2851305A1019710FE1FE7807C
:10EFF000E029930404014146CE8526859710FE1F23
:10F00000E780C0288A852685EFF07FF09309040207
:10F010004E86A6852285EF10617B2A890DE941463F
:10F02000CE8526859710FE1FE780801A0C0826855E
:10F03000EFF0FFED4E86A6852285EF1021792A8913
:10F0400046454146CE859710FE1FE7802024228545
:10F050009710FE1FE780400AB64026444A85964432
:10F060000649F259625AD25A425BB25B225C616134
:10F0700082804D49D5B7011126CA52C4AA842E8A6E
:10F0800013050003930530054AC84EC606CE22CCB0
:10F090003289B6899710FE1FE780C0F935C52A84EA
:10F0A000A68541469710FE1FE780401E9304040189
:10F0B0002146D28526859710FE1FE780201DCA8530
:10F0C0002146130584019710FE1FE780201C1309B9
:10F0D0000402A6854A862285EF10416FAA84414624
:10F0E000CA854E859710FE1FE780401A228597102B
:10F0F000FE1FE7806000F240624426854249D24408
:10F10000B249224A05618280CD44F5B75D71A2C43F
:10F11000A6C24EDE52DC86C6CAC0AE89328AAA8436
:10F12000EFE0FF9D4059414681450A859710FE1F3B
:10F13000E780800D41CC0359440063199908834747
:10F140000400C9E70347140099476313F704140840
:10F150001306C4049305C40213057400EFF0BFF155
:10F1600035E52285EFF02F942A860C080A85971042
:10F17000FE1FE780E0058A854A85EF206048054547
:10F18000B640264496440649F259625A616182802B
:10F190002C508DCDC54683D705016310D70A631265
:10F1A000FA022146C9054E859710FE1FE780200B05
:10F1B00085476318F5002285EFF0EF8E2A862C50E4
:10F1C00075B7930520032685EFF05F9C2685EFE059
:10F1D0001F932A8459C14C55C9C183D70501639E29
:10F1E00047072146C9054E859710FE1FE780200777
:10F1F00085472A896313F5064C540A8503C6A50181
:10F200009710FE1FE780C0FCB727002083C7579CDC
:10F2100091C75C5483C7B701639A270FBD45268504
:10F22000EF204038B727002083A787BF0145A9DB1F
:10F230001D45894582970145A1B7E319FAF8214692
:10F24000C9054E859710FE1FE78060018547E31FC3
:10F25000F5F62C5003C6A50111BFB727002003C740
:10F2600087EEB7290020938989BC058B3E8931C37D
:10F27000B72700200347540083C707EE631BF7023C
:10F28000B72500201946938515EE130564009710E5
:10F29000FE1FE780C0FC8547631DF50083A70903B7
:10F2A00081C791451D458297BD452685EF20802F5A
:10F2B000F9B537270020034777EE83A7090331CB41
:10F2C000034789EE098B09CB81C795451D45829778
:10F2D0002685EF20203365B581C78D451D45829772
:10F2E0004146814508109710FE1FE780E0F1B725E1
:10F2F00000201946938585C208109710FE1FE780ED
:10F3000020ED0C100A862E85EF10414C8A8526854B
:10F31000ADB58545C5FF6DBF8147C1463307F500D3
:10F32000B388F5000347070083C808003308F600D8
:10F330008507334717012300E800E391D7FE828059
:10F340000147BD471308F00F3306F500834606005A
:10F35000B388F500FD178606558F2380E800034724
:10F36000060093F7F70F1D83E39007FF8280814724
:10F37000930800F8414893F6F70F3387F50063FCD4
:10F38000C600B306F50083C606002300D700850734
:10F39000E39307FF82806395C60023001701C5BF72
:10F3A00023000700EDB701114AC856C22E89AA8A68
:10F3B00093053005414506CE22CC26CA4EC652C41E
:10F3C000328A9710FE1FE780E0C6AA8493053005B5
:10F3D00041459710FE1FE780E0C52A84CD49A5C4AA
:10F3E00031CD414681459710FE1FE780E0E126863A
:10F3F000A2855685EF10813DAA8929E18387040003
:10F4000063D30706A2852685EFF09FF3B7A5030017
:10F410004A86938505402285EFF01FF08307090097
:10F4200063D80704A2854A85EFF09FF1B7A50300D2
:10F430005286938505402285EFF01FEE26859710B2
:10F44000FE1FE78060CB11C422859710FE1FE78066
:10F45000A0CAF24062444E85D2444249B249224A8F
:10F46000924A05618280CA852685EFF07FED7DB7DF
:10F47000D2854A85EFF0DFECD1B739715AD05ECE34
:10F480002A8BAE8B41459305300506DE26DA52D431
:10F4900056D262CC66CA6AC8368C328DBA8C22DCEF
:10F4A0004AD84ED69710FE1FE780C0B8AA8A9305A7
:10F4B000300541459710FE1FE780C0B72A8ACD442A
:10F4C000638E0A0859C52A86D6855A85EFF0BFEDA6
:10F4D000AA8441E19305300541459710FE1FE7805E
:10F4E00060B52A899305300541459710FE1FE780D6
:10F4F00060B4AA89630A090E6306050E1304FD00B1
:10F5000011841376FD0049C07D144204418035EE1C
:10F51000131544004E86D6855E95EFF0FFDF414619
:10F5200081454A859710FE1FE78000CE014D931755
:10F530000D01C18363F48708BDC04A859710FE1F83
:10F54000E78080BB638709004E859710FE1FE78028
:10F55000A0BA56859710FE1FE78000BA63070A001D
:10F5600052859710FE1FE78020B9F250625426851D
:10F570004259D254B259225A925A025BF24B624C0F
:10F58000D24C424D216182800144131544008A858A
:10F590005E95EFF0DFDD4E86D2850A85BDBF9315FF
:10F5A0004D000A86DE954A85EFF01FD74A868A8588
:10F5B0005A85EF10A121AA84050D95BFBDFC0A86CE
:10F5C000CE854A85EFF05FD54A868A855A85EF1049
:10F5D000E11FAA846686CA8562859710FE1FE780B0
:10F5E00020BFA1BFCD4491BFCD44A9BF894761C20F
:10F5F000DDCD2300A60083C70500A300F60083C766
:10F6000015002301F60083C72500A301F60083C778
:10F610003500A30206002302F60083D74500A1832C
:10F62000858BA302F60003D745001377072009C78F
:10F6300093E72700A302F60083D7450093F707401E
:10F6400099C78347560093E74700A302F60083D784
:10F65000450013974701635807008347560093E717
:10F660008700A302F6002303060083C74500858BAD
:10F670002303F60003D74500098B09C793E727004A
:10F680002303F60083D74500918B99C78347660013
:10F6900093E747002303F60003D745008147218BFA
:10F6A00019C703476600136787002303E6003E85FA
:10F6B00082802E86AA8505456FF05FF32E86AA8587
:10F6C00009456FF0BFF24DC95971A2D42A84035580
:10F6D0004500A6D2CAD0CECED6CA86D6D2CCDAC8FB
:10F6E000DEC6B68AB2892E89EFE06FC1AA8439C519
:10F6F0000C182285EFE0DFDF83470400138A6400E3
:10F70000A9CBEF401FBF2A8B014583CB5400EF40AC
:10F710005FBCAA840C100818EFF0BFF9084C2C103D
:10F72000EFF0DFF9D288268A56C05E88D2875A87E2
:10F7300014103010CE854A85EFF0AFFFB650265436
:10F7400096540659F649664AD64A464BB64B656109
:10F750008280EF401FBAAA8B014503CB5400EF40D3
:10F760005FB72ACE084C0C10EFF0BFF42C1008182D
:10F77000EFF0DFF4F2484DBF8280894791C909C993
:10F78000AD472380F50083470500A380F50081473E
:10F790003E858280011122CC4AC806CE26CA2A8420
:10F7A000EFE0BFBC2A8901CDE1476302F510214992
:10F7B000F24062444A85D2444249056182807C4CD1
:10F7C00083C72701858B91CF1C4C054783C7270032
:10F7D0008D8B6398E7008347640093E7170023034A
:10F7E000F4008344340089476391F40203554400D4
:10F7F0008545EF508FDA8347640093E74700230382
:10F80000F4008D47A300F40065B70D476390E40250
:10F81000035544008945EF504FD883476400A30047
:10F82000940093E747002303F40059B71147E38F8F
:10F83000E4FA05476390E40493047400A300F40021
:10F840004146814526859710FE1FE780E09B130601
:10F85000C4023285C14532C6EF40CFF93246228517
:10F860009306C401A685EFF01FE62285EFE0FFD6E0
:10F8700021D135BF1547E39DE4F293047400A30042
:10F88000F4004146814526859710FE1FE780C0970A
:10F890006C4C4146268589059710FE1FE7804093F2
:10F8A0008347640093E747002303F4004DB70D49F5
:10F8B00001B7397122DC405926DA4AD84ED606DE25
:10F8C000AA89AE8432896308042003552500835732
:10F8D0004400638BA700A144F2506254268542592C
:10F8E000D254B259216182808347040099E39D4438
:10F8F000E5B7AD47E3EDB7FE9387E5FF93F7F70F65
:10F900002547E366F7FE37A703008A071307873604
:10F91000BA979C438287B2852285EFF0BFE7AA841D
:10F9200065BF4146CA851305C4039710FE1FE780D3
:10F93000208A2285EFE0BFCDAA8411C1A14495475A
:10F94000A300F40051BF9309C404CA8541464E8503
:10F950009710FE1FE780C0871309740014084E86B5
:10F96000CA852285EFF03FD641469305C4030808B7
:10F970009710FE1FE780A08E8547E31FF5F48A8667
:10F980001306C402CE854A85EFF0EFEE11ED228515
:10F99000EFE07F912A8703554400814601468A851E
:10F9A000EFE02FE9AA8411C1A144994751BF034751
:10F9B00014009D47E31DF7F27C5089EB9305300559
:10F9C00071459700FE1FE780E06668D0685005D15A
:10F9D0004146CA859700FE1FE780807F2285EFE0C1
:10F9E0009F8C7C50238DA700A147A300F400814485
:10F9F000E5B56850E30D05EE03471400A147E31891
:10FA0000F7EE835706009305290021462318F500D9
:10FA100049059700FE1FE780A07B7C4C83D74701F8
:10FA200013F727002DC3184C03574700098B21CF2C
:10FA3000A54765BF03471400A547E31AF7EA3C54FE
:10FA400081EB854559459700FE1FE780A05E28D4CD
:10FA5000285419C54146CA859700FE1FE7804077A4
:10FA6000A94761B703471400A947E312F7E82854F0
:10FA700019469305190041059700FE1FE780407560
:10FA80007C4C83D74701918B95CF1C4C83D7470083
:10FA9000918B8DCBAD4791BF7C5489EB930530059D
:10FAA00051459700FE1FE780E05868D46854E3048E
:10FAB00005E24146CA859700FE1FE78060717C54CD
:10FAC0007D5798CB4E85EFF06F9215B783450600B2
:10FAD000EFF0CF8B29BFAD47E39BF5F083460600DF
:10FAE000835525001306650003450500EF409FB7C9
:10FAF000FDBD15C1AA8709458DC141112E8541461D
:10FB00009385170006C69700FE1FE780606CB24021
:10FB100001454101828009458280828089471DC557
:10FB200095C5411106C603471500AE8719462380C7
:10FB3000E50093052500138517009700FE1FE78059
:10FB40002069B24081473E85410182803E858280A6
:10FB500015C1AA8709458DC141112E85414693855E
:10FB6000170006C69700FE1FE7808066B240014579
:10FB70004101828009458280828089471DC995C9DB
:10FB8000411106C60347250083461500AE872207AC
:10FB9000558F2390E50021469305350013852700F6
:10FBA0009700FE1FE780C062B24081473E85410159
:10FBB00082803E85828015C1AA8709458DC1411189
:10FBC0002E8541469385170006C69700FE1FE780E5
:10FBD0002060B240014541018280094582808280D7
:10FBE000094711CD89CD83471500A14601472380E0
:10FBF000F500FD1793F7F70F63F3F60061473A85B9
:10FC0000828015C1AA8709458DC141112E854146C3
:10FC10009385170006C69700FE1FE780605BB24021
:10FC200001454101828009458280828089476309BC
:10FC3000051063870510411106C622C426C28347FA
:10FC400015002E842380F50083472500A380F5004E
:10FC5000834735002381F50083474500A381F500E4
:10FC600083475500858B9396870083D7450093F78C
:10FC7000F7EFD58F2392F5008346550093F7F7DF12
:10FC8000A20693F60620DD8E2392D5000347550089
:10FC900093F6F6BF220713770740558F2392E500AE
:10FCA00083475500FD769386F67F8D83858B758F10
:10FCB000AE07D98F2392F50083466500F99B858AAC
:10FCC000DD8E2392D500034765009377270013F755
:10FCD000D6FF5D8F2392E5008347650093F64700CA
:10FCE0009377B7FFD58F2392F50003476500DD9B1F
:10FCF0004D45218BD98F2392F500EF403FE9AA842F
:10FD00005145EF40BFE80347340093F4F40F1375F7
:10FD1000F50FC94763609702636EE50083460400F0
:10FD20001147E1476368D7008346140005476363C2
:10FD3000D7008147B240224492443E8541018280EF
:10FD40003E85828015C1AA8709458DC141112E8546
:10FD500041469385170006C69700FE1FE78040477F
:10FD6000B2400145410182800945828082807971DB
:10FD700022D42A84084506D626D2230601008344CD
:10FD8000050029479387F4FF93F7F70F6362F70C99
:10FD900037A703008A0713070739BA979C4382875E
:10FDA0000C08EFF0BFE8C9476312F5029947230634
:10FDB000F100035524006C00EFE07FFFB2502254A5
:10FDC0009254456182800C08EFF0FFDE29C9834719
:10FDD000C100E5F303552400EFE0CFF6C5B70C08EA
:10FDE000EFF03FE2E5B70C08EFF09FDFC5B70C0876
:10FDF000EFF03FD0E1BF0C08EFF03FD8C1BF0C08D7
:10FE0000EFF01FD5E1B70C08EFF05FD1C1B70C08D8
:10FE1000EFF05FF365BF834715002308F10003553A
:10FE20002400EFD0DFCDA1470DC10347C500631308
:10FE3000F702B727002003A7C7A59D4719C7184396
:10FE400009C71008A6850297AA872306F10041B7C3
:10FE50009D47B1BFB727002003A707A6F9BF4111EF
:10FE600022C406C603470500930720092A846313AA
:10FE7000F70A8347150039476393E7028356450025
:10FE80000967610781476392E6081C452244B24036
:10FE900003C507009385170041016FE0CFC2130728
:10FEA000E0036397E708034725009547631EF702C1
:10FEB00003554500EFD09FE691476304F500854761
:10FEC000A9A0B727002083A707A6F5DB03A3870017
:10FED000E30703FE0356E400035544009305640062
:10FEE0002244B24041010283A147631BF7008345CE
:10FEF0006400035544002244B24041016FE0FFDC3E
:10FF0000930600038147E304D7FEB24022443E85B6
:10FF1000410182809306000A8147E318D7FEEFF083
:10FF20001FE5084449DD9700FE1FE780E01C41BF44
:10FF30008147E1BF411122C426C206C62A84EFE0F0
:10FF4000CFC2AA8419C9E1476301F50CA144B240AC
:10FF5000224426859244410182802285EFE0BFB78A
:10FF60006C4C83C72501858B91CF1C4C054783C7FB
:10FF700027008D8B6398E7008347640093E71700A1
:10FF80002303F4008347340009476391E70289455E
:10FF900003554400EF407FE08347640093E7470048
:10FFA0002303F4009147A300F40055B79386D7FFCD
:10FFB00093F6F60F05466364D6008545D1BF63927C
:10FFC000C702A300E4004146814513057400970071
:10FFD000FE1FE7806023C1451305C402EF408F81F7
:10FFE000BDB79546E395D7F6A300E40041468905E1
:10FFF000130574009700FE1FE780801D834764008F
:020000022000DC
:1000000093E747002303F400F9B78D4489B779716A
:1000100022D4405926D24AD04ECE06D6AA89AE84E2
:100020003289630A04200355250083574400638BFB
:10003000A700A144B2502254268502599254F24995
:10004000456182800347040085476314F7009D449F
:10005000D5B79387F5FF93F7F70F2547E369F7FEC9
:1000600037A703008A071307C73BBA979C438287C9
:10007000B2852285EFF01FECAA846DBF4146CA8588
:100080001305C4039700FE1FE78080140347140084
:1000900091476305F7029306C4011306C402930552
:1000A00074002285EFF02FE22285EFE00FD3AA84BF
:1000B00011C1A1449547A300F400ADBF8D47A30033
:1000C000F400814485BF9307C4043E85CA85414638
:1000D0003E899700FE1FE780A00F8A864A86930517
:1000E00074002285EFF02FDE41469305C4030A8594
:1000F0009700FE1FE780A0168547E31DF5F22285D5
:10010000EFE0EFD0AA8415F5994775B703471400BF
:10011000B147E31EF7F27C5089EB9305300571453A
:100120009700FE1FE78000F168D068500DD141466E
:10013000CA859700FE1FE780A0092285EFE0AF96F1
:100140007C50238DA700B5479DBF6850E30105F0A3
:1001500003471400B547E31CF7EE835706009305E9
:10016000290021462318F50049059700FE1FE78066
:1001700020067C4C83D7470113F707203DC3184C5A
:10018000035747001377072029CFB9470DBF03470F
:100190001400B947E31DF7EA3C5489EB9305300599
:1001A00059459700FE1FE780E0E828D4285419C578
:1001B0004146CA859700FE1FE7808001BD4701B711
:1001C00003471400BD47E314F7E828541946930584
:1001D000190041059700FE1FE78080FF7C4C83D704
:1001E000470193F707409DCF1C4C83D7470093F7F7
:1001F00007408DCBC147E1B57C5489EB93053005B1
:1002000051459700FE1FE780E0E268D46854E3029E
:1002100005E24146CA859700FE1FE78060FB7C54DB
:100220007D5798CB03D529008145EFE03F9651BD1E
:1002300083450600DDBF8547E395F5E803284600C2
:100240008347360003472600834616008355250062
:10025000034606000145EF408FB7A5B5011126CA38
:1002600006CE22CC89441DCD95CDAA842E8468006B
:100270008D45EF303FD88347E1002685228693F7EE
:10028000F70393E707046C002307F100EFE03FBF9B
:10029000AA8409E90D466C00130534009700FE1F7F
:1002A000E78000F3F24062442685D24405618280F3
:1002B0005D714EDE86C6A2C4A6C2CAC052DC56DA42
:1002C0005AD85ED6894945CD5DCA138B4500420B8D
:1002D000135B0B01AE8A2A8A930530055A85B284D6
:1002E0009700FE1FE78000D52A84CD4949C9EF4019
:1002F0002F822A895686D285935A8900135A09017A
:10030000937BF90F1305440093FAFA0F137AFA0F4F
:10031000135989019700FE1FE78040F7A30174017C
:1003200023015401A300440123002401EF30BFFD49
:10033000AA85414608089700FE1FE78020F521475F
:1003400034005A86A2850808EFF02F93AA891DE190
:1003500021462C0023807401A38054012381440191
:10036000A3812401138544009700FE1FE78000F25B
:10037000EF30DFFA22859700FE1FE780E0D7B64016
:1003800026444E8596440649F259625AD25A425B37
:10039000B25B61618280011106CE2AC6EFD05FEAAE
:1003A0003245B72700209945A38DA7D2EFC06F88AB
:1003B000F24037F50100130545E205616FD0BF8EAD
:1003C000B727002083C7C7D3A18B89C7B7270020D1
:1003D0009387879737270020232EF7A40145828033
:1003E000797152CC2A8A2E8506D622D426D24AD0BA
:1003F0004ECE2EC6EFD0AFF045C5405945C4834719
:1004000034008949F91793F7F70F63EDF90883571B
:100410004400B24589446394B70613097400414609
:10042000D2854A859700FE1FE78080DA1306C40252
:100430003285C14532C6EF30FFBB32469306C40158
:10044000CA852285EFF02FA80347040083471400D4
:100450000DC30D4781446394E702A3003401228554
:100460002254B25092540259F249624A45616FE0F7
:10047000CF961147639EE700A30094008144B250D9
:100480002254268502599254F249624A456182807B
:100490000D478144E395E7FE9547A300F400C1B7FB
:1004A0008944F1BFC944E1BF79719397050122D412
:1004B00006D626D24AD04ECEC1872E8463D50704F5
:1004C000B7240020938484D303C53400EF106FFD5C
:1004D0002AC611CDEFF0BF98B24519E503C5240037
:1004E0009307F00F631EF5002E85EF106FF4216562
:1004F000218DB250225492540259F24945618280B2
:10050000EF10DF80EDB793F7150091C7EFE02FF6FE
:1005100013451400F9BF8DE90145E1BF850493F44B
:10052000F40FEFD0AFF7E3F9A4FE33959900131958
:10053000050113590901B3772401EDD34A85EFE092
:10054000BF913345240175B785448549D9BF29CD6D
:10055000011126CA06CE22CCAA840945A9C10D469E
:1005600028002E848D059700FE1FE78060C6834714
:10057000A10070002C0093F7F70393E7070426858A
:100580002305F100EFE0BF8F19E90D46A285680051
:100590009700FE1FE780A0CC7D153335A000F24008
:1005A0006244D2440561828009458280B7270020D9
:1005B00083C7C7D3918B89C7B727002093874798F4
:1005C000372700202320F7A601458280011152C45D
:1005D0002A8A32854EC656C25AC006CE22CC26CAB8
:1005E0004AC82E8BB28AB689EFD06FD109ED894403
:1005F000F240624426854249D244B249224A924A94
:10060000024B056182805C592A89C544F5F34D454A
:10061000EF40CFD71374F50F5145EF402FD7E38844
:1006200009FC83C78901E3E487FC1375F50FE360D8
:10063000F5FC93053005130500079700FE1FE780C2
:10064000609F232AA9022A84CD445DD113060007A6
:1006500081459700FE1FE78020BBA3000400230014
:1006600044012301640123125401232E3405232C59
:100670000400A301040063170A008547A300F400E7
:100680008144BDB72285EFE00FC58547A300F40084
:10069000AA8439DD4A85EFE0EFC899BF397122DCC1
:1006A00006DE26DA4AD84ED652D456D25AD05ECE7C
:1006B00062CC66CA0944630B061063090710AA8B53
:1006C0003A89368BB28A2E8CEFD06FC32A8A514476
:1006D000630E050E9305300541459700FE1FE78028
:1006E0006095AA894D447DC1834419008347290040
:1006F000A204C207BE9483470900BE948347390011
:10070000E207BE9483278A0263E697007D57094477
:100710006399E70A63070C0083474A000544898B05
:10072000CDC3930C4B00214681450A85C20C97002E
:10073000FE1FE78060AD93DC0C01930530056685F4
:100740009700FE1FE780008F2A8C4D443DC95A86D2
:10075000D68511059700FE1FE78040B31146CA8574
:1007600062859700FE1FE78060B2414693058A01CB
:100770004E859700FE1FE78060B121478A86668616
:10078000E2854E85EFE07FCF2A841DE521468A85EC
:1007900028009700FE1FE78060AF214693054900BF
:1007A00028009700FE1FE78080AB8547631EF50297
:1007B000A6855E85EF40AFE962859700FE1FE78062
:1007C000A0934E859700FE1FE78000932285F2508C
:1007D0006254D2544259B259225A925A025BF24B95
:1007E000624CD24C216182800544F9B7397162CCE8
:1007F0002A8C594526DA4AD84ED652D456D25AD0E7
:100800005ECE06DE22DCAE8B328BB68A3AC63E8ADC
:10081000C289468983440104EF104FC449C19167DE
:10082000938717E92310F50085472301F5002A84F3
:1008300032472105630C0C0493071003A301F40055
:10084000194681459700FE1FE780009C2303640141
:10085000A3035401230A94002312740123174401B3
:100860002318340123192401A285B72700206254DC
:10087000F250D2544259B259225A925A025BF24B68
:10088000624C03C587D321616F104FC8A3010400D8
:100890001946BA859700FE1FE780809345BFF25046
:1008A0006254D2544259B259225A925A025BF24BC4
:1008B000624C21618280797156CAAA8A130510039D
:1008C00026D24AD04ECE52CC06D622D42EC6328A5A
:1008D000B684BA893E89EF106FB82DC1B24537464C
:1008E000020193078500130616E92A845CC110C132
:1008F00023045501A304B5001946D28529059700A4
:10090000FE1FE780E08CCE852308940013051401B8
:1009100026869700FE1FE780A08B23082403A2856C
:10092000B72700202254B25092540259F249624A29
:10093000D24A03C587D345616F104FBDB2502254D0
:1009400092540259F249624AD24A456182800111A9
:1009500022CC2A84314506CE2EC632C436C23AC0D5
:10096000EF10CFAF29C19167938717E92310F500E6
:10097000B2452246924602478D472301F500A30166
:1009800085006244B72700202312B5002313C50059
:100990002314D5002315E500F240AA8503C587D3AB
:1009A00005616F10AFB6F2406244056182800111AB
:1009B0004AC82A89394526CA06CE22CC2EC6B28418
:1009C000EF10CFA931C1B2459167938727E9231072
:1009D000F50091472301F500A30125012312B5007D
:1009E0002A84A6851905214697F0FD1FE780407EE1
:1009F000A285B72700206244F240D244424903C591
:100A000087D305616F108FB0F2406244D2444249EF
:100A10000561828001114AC82A89414526CA06CE4D
:100A200022CC2EC6B284EF106FA329C19167B245C4
:100A3000938727E92310F50095472A842301F500C1
:100A4000231225012146190597F0FD1FE780407804
:100A5000A28523179400B72700206244F240D244B5
:100A6000424903C5B7D305616F104FAAF2406244F3
:100A7000D244424905618280011122CC2A84394541
:100A800006CE2EC632C436C23AC0EF102F9D29C101
:100A90009167938717E92310F500B24522469246E5
:100AA000024799472301F50023128500B72700204C
:100AB00062442313B5002314C5002315D500231663
:100AC000E500F240AA8503C587D305616F100FA426
:100AD000F240624405618280797122D406D62A846C
:100AE0002EC632C436C23AC0EFD06F811DC1B245A6
:100AF000224692460247231CB100231DC1002C0848
:100B00001306F00F2285231ED100231FE100EFC042
:100B1000FFF0B250225445618280011122CC2A8418
:100B2000394506CE2EC632C436C23AC0EF100F93F6
:100B300029C19167938717E92310F500B245224632
:100B4000924602479D472301F50023128500B727EF
:100B5000002062442313B5002314C5002315D500DB
:100B60002316E500F240AA8503C587D305616F10FF
:100B7000EF99F2406244056182805D712AC61305D7
:100B80002002CAC04EDE52DC56DA5AD85ED662D493
:100B900066D26AD086C6A2C4A6C26ECE2E8CB28B96
:100BA000368B3AC43E8DC28CC68A035A01058359DE
:100BB000410503498105EF106F8A69C5916632438B
:100BC000938616E9A9472A842310D5002301F5004E
:100BD000930DE4002105930444012247630D0306AD
:100BE00093071003A301F4001946814597F0FD1FF8
:100BF000E7808061194681456E8597F0FD1FE7808B
:100C0000A06019468145268597F0FD1FE780C05FEB
:100C100023037401A303640123002403231284012A
:100C2000231D5401231E4401231F3401A285B7272D
:100C300000202644B64096440649F259625AD25AD8
:100C4000425BB25B225C925C025DF24D03C587D3CE
:100C500061616F10AF8BBA85A3010400194697F04C
:100C6000FD1FE780E056EA856E85194697F0FD1F67
:100C7000E78000561946E685268597F0FD1FE78038
:100C8000205579B7B640264496440649F259625A2F
:100C9000D25A425BB25B225C925C025DF24D6161B2
:100CA000828079715EC6AA8B61454ECE52CC56CAFF
:100CB0005AC862C406D622D426D24AD02E8BB28A13
:100CC000368ABA893E8CEF007FF92DCD37470B016C
:100CD000130717E913048500AA8418C140C101490C
:100CE0001305240023007401A30064011946D6856E
:100CF00097F0FD1FE780C04D1305940023044401C5
:100D00001946CE8597F0FD1FE780804CA30784012C
:100D100003C7340005091379F90F4104E362E9FCC4
:100D20002254B7270020B2500259F249624AD24AEF
:100D3000424BB24B224CA68503C587D392544561E2
:100D40006F00DFFCB250225492540259F249624AB9
:100D5000D24A424BB24B224C45618280011122CCD7
:100D60002A84214506CE2EC632C436C2EF001FEFBC
:100D700015CD224692469167938717E92310F50017
:100D8000B245B1472301F500A30185002303C50047
:100D9000A303D5006244B72700202312B500F24018
:100DA000AA8503C587D305616F005FF6F2406244F0
:100DB000056182805D71A6C28344C1052AC6CAC08E
:100DC000138544024EDE52DC56DA5AD85ED662D41F
:100DD00066D26AD06ECE86C6A2C42EC4B28D368DBF
:100DE000BA8C3E8CC28B468B835A0105034A41055F
:100DF000E6490659EF009FE649CD3243A245374602
:100E00000D0193078500130616E92A845CC12304AB
:100E1000650010C1A304B5001946EE85290597F0B9
:100E2000FD1FE780E03ACE852308A401A3089401C2
:100E300023098401A3097401230A6401231B5401BB
:100E4000230C440113059401194697F0FD1FE78018
:100E5000203813054402A30F940008D0CA852686C3
:100E600097F0FD1FE780C036A285B72700202644F3
:100E7000B64096440649F259625AD25A425BB25B76
:100E8000225C925C025DF24D03C587D361616F0005
:100E9000FFE7B640264496440649F259625AD25AB0
:100EA000425BB25B225C925C025DF24D61618280CA
:100EB00001112AC6514506CE22CCEF003FDA1DC9EA
:100EC000B2459167938717E92310F500B9472A8443
:100ED0002380F5000905414697F0FD1FE780402F6C
:100EE000A285B72700206244F24003C587D305617D
:100EF0006F00DFE1F24062440561828079714AD07F
:100F000037290020930889D306D622D426D24ECE84
:100F100052CC56CA5AC85EC662C403C3780093084E
:100F2000F00F630013092A8C13850701C289BE8460
:100F30003A8AB68A328BAE8BEF005FD22A8435C1F3
:100F40009307000D2310F500D9472301F500231264
:100F5000850123037501A303650123045501A3043F
:100F6000450123059500130989D38DC8410548C45F
:100F70002686CE8597F0FD1FE7808025A285225426
:100F800003457900B25092540259F249624AD24A5A
:100F9000424BB24B224C45616F005FD723260500C0
:100FA000F1BFB250225492540259F249624AD24AD5
:100FB000424BB24B224C45618280411122C42A84AB
:100FC000194506C6EF009FC90DC59167938717E9BC
:100FD0002310F500C1472301F50023128500B72730
:100FE00000202244B240AA8503C587D341016F0087
:100FF000FFD1B24022444101828041110D4506C615
:10100000EF00DFC50DC5930710F92300F500930726
:10101000E003A300F500C5472301F500B727002032
:10102000B240AA8503C587D341016F003FCEB240CD
:1010300041018280011122CC2A84294506CE2EC688
:1010400032C436C2EF009FC115CDB24592469167BA
:10105000938717E92310F5002246C9472301F500BD
:101060002302B500A30185002304D5006244B727FD
:1010700000202313C500F240AA8503C587D305616C
:101080006F00DFC8F24062440561828001114AC8E6
:101090002A892D4526CA06CE22CC2EC6B284EF0060
:1010A000FFBB29C5B245930710F92300F50093074C
:1010B000E003A300F500CD472301F500A3012501BE
:1010C0002302B5002A84A6851505194697F0FD1F51
:1010D000E7800010A285B72700206244F240D24486
:1010E000424903C587D305616F005FC2F240624485
:1010F000D244424905618280011122CC2A842145D3
:1011000006CE2EC6EF009FB505C9B24591679387FD
:1011100017E92310F500D1472301F5002303B5009B
:1011200023128500B72700206244F240AA8503C538
:1011300087D305616F009FBDF240624405618280E4
:10114000011122CC2A84214506CE2EC632C4EF00DE
:10115000FFB01DC52246B245930710592310F50074
:10116000230185002303C5006244B7270020231212
:10117000B500F240AA8503C587D305616F001FB98A
:10118000F240624405618280011122CC2A8421450B
:1011900006CE2EC632C4EF007FAC1DC92246916731
:1011A000938727E92310F500B245A1472301F500F5
:1011B00023038500A303C5006244B7270020231240
:1011C000B500F240AA8503C5B7D305616F001FB40F
:1011D000F240624405618280011122CC2A843145AB
:1011E00006CE2EC632C436C23AC0EF003FA715CD98
:1011F00022468567B24592460247938717C9231056
:10120000F500230185002303C5006244B7270020B1
:101210002312B5002314D5002315E500F240AA855A
:1012200003C587D305616F007FAEF240624405615C
:101230008280011126CAAE844AC82A891385C40057
:1012400006CE22CC32C6EF007FA11DCD85679387E5
:1012500017E9B2452310F50023019500231225015B
:101260002A84310508C4268697F0FD1FE78040F6E2
:10127000A285B72700206244F240D244424903C508
:1012800087D305616F009FA8F2406244D24442496F
:1012900005618280011122CC2A84194506CE2EC612
:1012A000EF00DF9B05C98567938717F92310F500C9
:1012B000B2458547A301F500230185006244B727A5
:1012C00000202312B500F240AA8503C587D305612B
:1012D0006F00DFA3F240624405618280411122C4A5
:1012E0002A840D4506C6EF007F9705C5930710F9C0
:1012F0002300F500E947A300F500230185002244FF
:10130000B7270020B240AA8503C587D341016F00EB
:10131000FF9FB240224441018280011122CC2A84E5
:10132000214506CE2EC6EF007F930DC991679387A6
:1013300027E92310F500B245930700032301F500C8
:10134000230385006244B72700202312B500F24032
:10135000AA8503C5B7D305616F005F9BF240624465
:10136000056182800111214506CE2EC632C4EF00F0
:10137000FF8E05C98567B24522469387073923103A
:10138000F50085472301F500B72700202312B5009B
:101390002313C500F240AA8503C5C7CC05616F00C1
:1013A000FF96F24005618280397122DC4ED652D41C
:1013B0005AD006DE26DA4AD856D25ECE094B2A8AA1
:1013C0003284B6896399651337290020834749A57C
:1013D000CA8A8944C9C783C7160003C70600930693
:1013E000C6FFA207D98F372700202314F7D4BA8469
:1013F000639ED70831452EC6EF005F86AA8449C197
:10140000B245420441802302B500231385009307AF
:1014100000F91504A1652310F50023114501850588
:10142000228597F0FD1FE780E0C088C429C5834767
:1014300049A59385E9FF13562400FD17230AF9A453
:1014400097F0FD1FE780C0DA9C44A68589079CC4FD
:10145000B727002003C5C7CCEF005F8B8144F25053
:10146000625426854259D254B259225A925A025B8A
:10147000F24B21618280268597F0FD1FE780C0C76F
:10148000B7270020239507D48544D1BF1307D6FF83
:10149000E3C8E7FEB727002003C747A6138A47A67D
:1014A0003729002001CB032549D409C597F0FD1F3A
:1014B000E78080C403D584D4A16585051105420564
:1014C000418197F0FD1FE780E0B62322A9D44DDDCE
:1014D00083C74AA52286CE85FD17238AFAA497F0F2
:1014E000FD1FE780E0CEB7270020239587D48547EE
:1014F0002300FA00A5B7372900208357A9D4CA8B47
:10150000C1D7B724002003D784D4B72A0020B386DC
:10151000C700110703A54AD46348D7063E95CE8578
:1015200097F0FD1FE780C0CA0356A9D483D784D49F
:101530008144329442044180231589D49107E310F9
:10154000F4F23145EF008FF1AA850DCD930700F934
:101550002310F5008357A9D4231145012302650107
:101560002313F50083A74AD41CC5B727002003C561
:10157000C7CCEF00AFF9B7270020231509D4238289
:1015800007A6F1BD03A54AD409C597F0FD1FE78062
:10159000A0B6B727002023950BD4238207A6EDB56C
:1015A0006F2041726F2081736F20114B6F20F17695
:1015B0006F204176411106C6EF208172B24001458D
:1015C000410182806F20A1776F20C1796F20017D5A
:1015D0006F20217F6F2031016F2031036F201105B3
:1015E0006F2011076F2011096F20B10A6F20B10C15
:1015F0008347160003460600A2075D8E6F20F10D9B
:101600006F20310F6F20F1116F20D13E6F20B1415B
:101610006F20B1476F20D1496F20F14B6F20114EE1
:101620006F2031506F20515203430100030E4100DF
:10163000834E8100034FC100834F0101834241016A
:10164000834381017EC816CA1ECC7AC676C472C294
:101650001AC06F2071516F2071566F2091586F2002
:10166000B15A6F20D15C6F20F15E6F2011616F2045
:1016700031636F2051656F2071676F50A1226F50E9
:1016800081346F5001376F50013F411122C406C6AB
:101690002A84835765000347450083465500034667
:1016A00025008345350003550500EF50E14311E95E
:1016B00083458400035504002244B24041016F5029
:1016C000C14EB2402244410182806F5061486F5048
:1016D000E1531307A5FF420785672A8841831385D5
:1016E000A7C7636CE502138707C801456368B702A3
:1016F00063E605031307301F6362C702138766FFA3
:1017000042074183938767C763EAE700050633060C
:10171000B6028E063325D600828001458280B7A6A8
:1017200003008147938606411308F00F3387F600C4
:10173000034607001317060141836364E500631342
:101740000601828003D605006365C7002390E5008B
:101750008280850793F7F70FD1BF41119397050159
:1017600022C406C626C2C1872E8463D50702EF00B5
:101770004FD3AA8409CD83470500054793C70708BF
:101780006364F700EFA0D01C2685EF006FCA2165C7
:10179000218D21A893F7150091CFB727002083A7AB
:1017A00087DB91C3829713451400B24022449244D0
:1017B0004101828093F7250091CBB727002083A7B2
:1017C000C7DB91C3829713452400C5B793F7850003
:1017D00099CBB727002083A747DCBC5B91C38297D6
:1017E00013458400D9B793F7450099CBB72700205C
:1017F00083A747DCFC5791C382971345440075B714
:1018000093F7050281CFB727002083A747DD83A781
:10181000070991C382971345040241BF93F705015D
:1018200081CFB727002083A747DD83A7C70891C3CF
:1018300082971345040195BF939725010145E3D68F
:1018400007F6B7270020938707D583C6770003C61E
:10185000670083C5570003C54700EF20515C096549
:1018600005BF411126C2B7240020B727002022C49B
:10187000130680112A848145138504D506C64AC003
:1018800023A407E697F0FD1FE7800098B727002004
:10189000A38987B6B707D707138404D5B1075CC8F7
:1018A000B7A70C0C938717141CCCB7A7D70793873F
:1018B00017145CCCE977938717147D472310F40243
:1018C0002328E40C81470327040C232AF40CB78750
:1018D00001049387F79F5D8F8327440C37290020ED
:1018E000130989BC93E7E7092322F40C2326F40C9F
:1018F000835749002320E40C2324E40CA983A30686
:10190000F40AA30AF40AF977FD17231BF40E231C2B
:10191000F40EFD47230DF40E85679387F7F0231D22
:10192000F402231EF402A30C0402EF009FEC9307C1
:10193000C01C2319F4068547A30FF40283574900FE
:10194000A301A40023220404A983A30EF4068D4757
:101950002311F404835709019306B00F138704D5AC
:1019600063F4F6009307B00F139607012315F702EF
:101970002317F7028347C7034182918BC1CF931787
:1019800066009387073D8346D703C207C1832316AA
:10199000F702918AC1C6931666009386063DC20679
:1019A000C1822318D7026D45938504D5B28663732F
:1019B000A600ED462391D50213068014BE8663F47B
:1019C000C70093068014139606018567418223128F
:1019D000D70293878784938404D563F3C700BE86B8
:1019E0009307C01C2310F704B707160093870790CE
:1019F0002393D4022314C7025CDBEFF05009EF50AD
:101A0000202EEFE0303D2244B24092440249410191
:101A10006FA030489307E6008E07B5B79306E6003F
:101A20008E06B5BF397122DC3704400026DA4ED667
:101A3000AE84AA899305E4FF054506DE4AD8EF0087
:101A40003FE4498C131704014183218393178400D9
:101A500013590401D98F231601001379F90F1008C7
:101A60008A854E852317F100A306210102C002C218
:101A700002C402C802CA02CC02CEEFE0305583474E
:101A8000E1010347D101A3818400A2074207BA976D
:101A90000347F101218023828400BA97F2506254F7
:101AA0002380F40013D78700C183A3822401A3807D
:101AB000E4002381F4004259D254B259216182805A
:101AC000B72500203725002001111946938525BE32
:101AD000130585E206CE22CC26CA4AC891644EC6BA
:101AE00097E0FD1FE780C06E9385F4FF0145EF008E
:101AF000FFD62A84FD550145EF009FD8A287FD142B
:101B00007D5933F79700B366E500D5CA6314250104
:101B10006307970A37240020130704D52304F70E20
:101B2000A18393E707FC9169C1642322A70EA30454
:101B3000F70E130404D5FD19FD14CE850145EF0001
:101B4000FFD12A89FD550145EF009FD3B3672501D9
:101B5000EDD7FD576314F500E30139FF93570501F5
:101B60002306F40E93578501A306F40E8317840D04
:101B70002315A40E2307240F420513598900137956
:101B8000F9034185A307240F658DE58F6312F502E4
:101B90000317C40E8317A40D658FE58F631AF70032
:101BA0000317E40E8317C40D658FE58FE307F7F87D
:101BB000F2406244D2444249B24905618280A6851E
:101BC0000145EF00BFC92A84FD550145EF005FCBF9
:101BD000A28705BF411126C2B724002006C622C431
:101BE0004AC0938704D503C7E70383C7F703636A33
:101BF000F70001442285B240224492440249410147
