:040000006F10104C21
:100004000000000000000000900000208005002097
:10001400A9BDF9F5940000200000000000000000D4
:10002400960000209800002000000000000000005E
:100034009A000020000000009C0000200000000046
:100044009E000020A0000020A2000020A4000020A8
:10005400A6000020A8000020AA000020AC00002078
:10006400AE000020B0000020B2000020B400002048
:10007400D0000020B8000020BA000020BC000020FE
:10008400BE000020C0000020C2000020C4000020E8
:1000940001A001A001A001A001A001A001A001A054
:1000A40001A001A001A001A001A001A001A001A044
:1000B40001A001A001A001A001A001A001A001A034
:1000C40001A001A001A0411106C6EF003039F5BF1F
:1000D400B7170040130700032388E7028547173743
:1000E4000000232BF77C7300203041118146014628
:1000F4008145114506C65D2BB72700401147238370
:10010400E780B7F700E003A707D16D9B23A8E7D0EA
:1001140003A707D15D9B23A8E7D07300501001000B
:100124000100B2404101828041118146014681456E
:10013400114506C6A52BB727004011472383E78046
:10014400B717004003C7E70283C6E70483D78703D2
:1001540011661377F70F93E6360063E5C700719BCA
:1001640013671700B7170040930570052380B70481
:10017400130680FA2380C7040100010023820702CA
:100184002387E7022387D70403C7B704136707024B
:10019400A385E7042380070437F700E0832607D10B
:1001A40093E646002328D7D0832607D1DD9A232857
:1001B400D7D073005010010001002380B7042380BE
:1001C400C7040100010003C7B7041377F70DA38523
:1001D400E70423800704B240410182800111B7176C
:1001E400004006CE22CC26CA4AC883C6E70203C60C
:1001F400E70483D78703116793F6F60F1366360077
:1002040063E5E700F19A93E61600B7170040130878
:10021400700523800705930580FA2380B704010045
:100224000100238207022387D7022387C704238080
:10023400070437F600E0832606D193E64600232818
:10024400D6D003D7070213770760498F6575110568
:10025400498F420741830100238007052380B704A7
:100264000100010083C6F70037F40700B7F400E08B
:1002740093E60604A387D70083C6B7046104130971
:10028400F00F93E60602A385D7042390E70283A721
:1002940004D1DD9B23A8F4D07300501001000100A9
:1002A40013056004192E81463000A285194502C445
:1002B40023160100E52E8347D100E38A27FDB717F3
:1002C4000040130770052380E704130780FA238096
:1002D400E7040100010003C7B7041377F70DA385F2
:1002E400E70423800704F2406244D2444249056192
:1002F400828001114EC681460146AA898145114575
:1003040006CE22CC26CA4AC85526B716004083C753
:10031400E60203C7E60483D68603116693F7F70F54
:100324001367370063E5C600F19B93E717003714A2
:1003340000401309700523002405930480FA230068
:10034400940401000100230204022307F40223079A
:10035400E4042300040413055002AD28B7F700E0B9
:1003640003A707D11367470023A8E7D02300240578
:1003740023009404010001000347F40013670704F9
:10038400A307E4002567B3E9E9002310340303A7B6
:1003940007D15D9B23A8E7D0730050100100010032
:1003A4008146014681451145112623002405230079
:1003B4009404010001008347640493E717002303B6
:1003C400F40423000404F2406244D2444249B24992
:1003D40005618280B7170040930670052380D70417
:1003E400130780FA2380E7040100010003C6B70461
:1003F4001376F60DA385C70423800704137605023C
:1004040059CE03C6A700118A1DE22380D704238096
:10041400E7040100010003C7A70013674700238511
:10042400E7009307004B01000100FD17EDFFB7172C
:100434000040930670052380D704130780FA2380B5
:10044400E704010001007D892394A7000100010055
:1004540001000100238007042380D7042380E704DC
:10046400010001003727004093061005A303D7803D
:1004740023800704B7170040130770052380E7049F
:10048400130780FA2380E7040100010003C7B704BF
:1004940013670708A385E704238007048280137683
:1004A400050441C603C6A700418A1DE22380D70480
:1004B4002380E7040100010003C7A70013670701B5
:1004C4002385E7009307007D01000100FD17EDFF80
:1004D400B7170040930670052380D704130780FAEA
:1004E4002380E704010001001376F5011366060476
:1004F4002394C700010001000100010023800704C8
:100504002380D704130660042380E7046318C5001E
:100514000100010037270040894689BF010001001E
:10052400372700409306200591B72380D704238002
:10053400E7040100010003D787001367070C239425
:10054400E7000DBF4111814601468145114506C6AC
:10055400B12AB7170040130770052380E704130777
:1005640080FA2380E7040100010003C767041367CE
:1005740017002383E70423800704B24041018280EB
:1005840081460146814511451522B71700401307DE
:1005940070052380E704130780FA2380E704010031
:1005A40001007D572396E70203C76704136717000A
:1005B4002383E7042380070401A0BD473305F50224
:1005C40001007D1575FD8280411122C426C206C634
:1005D400AA84014463179400B24022449244410126
:1005E400828005041305803E4204C13F4180DDB78B
:1005F4002303048015472303E48001002302A4801D
:10060400828083076480E3CE07FE23030480828014
:1006140083076480E3CE07FE03454480828083071A
:100624006480E3CE07FE2302A4808280411126C4A5
:100634004AC24EC006C61377F50BAD47AA892E8968
:1006440095446306F70019456537653F8D444E852B
:100654004537FD59FD1463983401B240A244124950
:10066400824941018280135509011375F50F453FF5
:100674002209CDB7011126CC06CEB70408005137A4
:100684001545BD37713769372AC6A53F324593777B
:10069400150089EB136515001375F50FF240E2445C
:1006A40005618280FD14E9FC0145CDBF397126DC6A
:1006B4004ADA4ED852D656D45AD25ED006DE62CE2C
:1006C40066CCB7E700E07D5783AA070022C603AAD9
:1006D400470023A0E71823A2E718B7170040130721
:1006E40070052380E704130780FA2380E70483C797
:1006F4004704930B75FFB684E20793FBFB0F854613
:10070400AA892E8B328937240040E187015763FA86
:1007140076016308D5008946130700026313D500E8
:100724000157D98F93F7F70FB71C00402382FC04BD
:1007340011472303E4801305F00F5D3D094CD135C7
:10074400636D7C11B7050700DA9537870700795583
:1007540063F2E504B3879500636EF702370B080074
:10076400A94733EB65016399F90689E48144513D56
:1007740026850DA0DA850945553D05090345F9FF90
:10078400FD14050B693D81C49377FB0FFDF7DD353F
:1007940069FD7D55B7170040130770052380E704F2
:1007A400130780FA2380E70403C74704418B23829D
:1007B400E704F250B7E700E023A0571123A2471142
:1007C400E25432445259C259325AA25A125B825BE1
:1007D400724CE24C21618280A5476395F9068569D4
:1007E4001309F00FB3069900B3742B01B69413499F
:1007F400F9FFB3749900856B33796901416B938771
:10080400F9FFB3F7270199E363FC340193D9490055
:10081400C147E3E637FF99BF0569C1697D19D9B7B7
:100824001305800D6388690113050002638479014F
:1008340013051008CA85DD3B353D21DD4E99B3848F
:100844003441D9B7DA852D45D533CA94E30099F2FA
:1008540005097D3BA30FA9FED5BF9387F9FF93F745
:10086400F70F6361FC0C83C71C0413073008631F74
:10087400F70437070800636BEB04B3079B00B70664
:10088400100063F5D704334BEB0089476393F906F3
:100894008980D549E38C04ECDA850945413B11098B
:1008A4000327C9FF91472320E48003076480E34EB4
:1008B40007FE23033481FD17EDFBFD14110B81C4E6
:1008C4009377FB0FE9FF7D3371F5E1B5B71700406E
:1008D40003C75704B70708001377070219E3B7875C
:1008E40007007955E378FBEA33079B00E3FFE7F859
:1008F40055B58547E382F9F2DA852D45053B9389A1
:10090400F4FFE38504E6293393F7390091EB83265A
:1009140004800327090093074900E39AE6E43E892B
:10092400CE84F1BFB5476396F9001305900BC93126
:1009340035BDB1471305B00AE38BF9FE99476391BE
:10094400F904B7050800B365BB002D45C5318144E2
:100954008D4BA14975396396740183270480232044
:10096400F9008504E39834FF8327048013172B01CF
:10097400635507002312F900D5BB2322F900FDB308
:100984009D476399F90281451305B0044531BD447F
:100994002320090023220900FD599D3993F774008F
:1009A400CA9703C70700FD14398D2380A700E39677
:1009B40034FF6DBBA1476392F9046D398144630D23
:1009C4000B008D479304C0036308FB0093040005E8
:1009D40063048B01930440041375C507E30895D899
:1009E4001945393139390545213126850D390945EE
:1009F4003D314931E31C05D669BB91476399F90040
:100A040013056006F536F53E130590090DB7E38F1F
:100A140009D4F154A9BB19CD91CD09CE81473387AF
:100A2400F500834607003307F50085072300D70048
:100A3400E397C7FE828019C991C909CA910583A7A2
:100A4400C5FF11057D16232EF5FEC5BF828001C9A1
:100A540019C62A960505A30FB5FEE31DA6FE8280DE
:100A640081473307F5000307070019E33E858280B9
:100A74008507C5BF01112E8626CAAA84131506014F
:100A84009305F004418122CC06CE32C6EF00F07902
:100A94002A8401C53246A685BD3F2285F2406244C0
:100AA400D24405618280854715C18DC105C2814745
:100AB400B306F5003387F50083C606000347070035
:100AC4006398E6008507E315F6FE85473E85828038
:100AD4008147EDBF9307F6FFBE952A966313C500C1
:100AE4008280FD1583C715000505A30FF5FEFDB72C
:100AF400AA87014581CF09CE3E96850703C7F7FF34
:100B04006317B700E31BF6FE05458280828001452A
:100B140082807971973700009387C7DF22D480439E
:100B240006D626D24AD04ECE52CC56CA5AC85EC633
:100B340062C45DCC37C9C901814B173A0000130A5E
:100B4400EAE197340000938424DD1309F937973AD6
:100B54000000938AEAD6B709C0A8370B40578357D9
:100B6400240095E35C44639D0B00173700002323A6
:100B7400F7DA032CC4002285EF005078628499A828
:100B840023A6FB00FDB783270A00829783866401AE
:100B94001C4463DB06063307F5406367E9089737AF
:100BA400000023A707D2835524000345040097308F
:100BB40000E0E78080875C405844A9CF1444B6978E
:100BC4008386640163C5060063E33701DA971CC4B6
:100BD400A28B3A8449F497370000938767CE9C4BE5
:100BE40009476378F706F917173700002322F7CE71
:100BF400B250225492540259F249624AD24A424BA8
:100C0400B24B224C45618280E377F5F83387F94093
:100C14002A9761B763970B009737000023ACE7CEA0
:100C240089BF23A6EB00B1B7D85009CF63DF060014
:100C34003385A74083A70A016376F5009737000040
:100C440023A8A7C8A28B404471B7E3F3A7FECE97AD
:100C5400C5B79737000023AD07C659BF411122C459
:100C6400173400001304C4C81C4006C626C24AC078
:100C740091C782979737000023AC07C65C4091C3A5
:100C840082971C406390071C9737000083C757E284
:100C9400858B95C797370000A38C07E017370000B2
:100CA400034737E1914763FCE700BD2B973700000A
:100CB40083C737E0F9178A07A2979C4382971739AD
:100CC40000001309A9E28347C900918B99C3EF007F
:100CD40030491C4491C3829797340000938444C3E1
:100CE4009840173600000346B6BD9737000083C707
:100CF40027BD93961700BA9683D60600D5CA9737B0
:100D0400000083C7E7BB63EFC70A97370000238956
:100D140007BA1C40639807129737000083C797D916
:100D240091CF9737000083C7D7D889EB9737000056
:100D3400A38207D8970001E0E780809797370000E7
:100D44009387C7C19C43638F070EB707C0A81737A3
:100D54000000232FF7B6753B973700009387C7BB76
:100D6400DC53EDC317370000130787B5184B9737CB
:100D7400000083C7B7BB6367F70C1737000003474E
:100D840057D3914763E0E70C8347C900918BDDEBB0
:100D940090409736000083C6B6B263CBD70A22448C
:100DA400B240924402494101172300E06700E34145
:100DB400850793F7F70F973600002383F6B0E3E631
:100DC400C7F235BF86073E978355070023100700F7
:100DD40097370000239C07B297370000938707B129
:100DE4009C43173500000345A5AD13172500BA979A
:100DF4009C4382979737000083D747B11737000089
:100E0400034707AC93C7F7FF7D8D931717009840EE
:100E14003E97835707005D8D2310A7009737000086
:100E240083C707AA91C7850717370000230AF7A8C5
:100E3400173700000347C7A89737000083C757A890
:100E4400E375F7ECB24022449244024941018280A6
:100E5400139717003297035707006DF7850735BFBF
:100E6400AD6737C70040BD072326F7200F100000E9
:100E7400973700009387C7A4C84F83278726BD668A
:100E8400BD0693C7F7FF99836A052326D7205D8D96
:100E940082804111B7170040985F3AC6945F324789
:100EA400E39CE6FE3245410182808280011197373E
:100EB40000009387A7CB22CC03A4070B26CA06CE37
:100EC4002AC42EC6854419E40145F2406244D24442
:100ED400056182808347910003471400858B630476
:100EE400F7000044CDB719469305A100130524006B
:100EF4005D3EE31895FE0545C9BF011122CC1734A8
:100F04000000130464BC18402AC62EC432C206CEA4
:100F14003C4B93F7F7F73CCB97F000E0E780007683
:100F24001840973600009386A6B73C4B93E7070812
:100F34003CCB9C423245A24523A007000347150041
:100F440003482500220742084297034805004297B8
:100F5400034835006208429798D703475500034871
:100F64006500220742084297034845004297034818
:100F7400750062084297D8D7034795000348A50037
:100F84002207420842970348850042970348B50068
:100F94006208429798DB0347D5000348E50022071F
:100FA400420842970348C5000345F500429762058D
:100FB4002A97D8DB03C7150003C52500220742057D
:100FC4002A9703C505002A9703C5350062052A97A9
:100FD40098CF03C7550003C56500220742052A9729
:100FE40003C545002A9703C5750062052A97D8CF23
:100FF40003C7950003C5A500220742052A9703C528
:1010040085002A9703C5B50062052A9798D303C7BC
:10101400D50003C5E500220742052A9703C5C5008C
:1010240083C5F5002A97E2052E97D8D3D843759B3C
:10103400D8C3D84313671700D8C39843136717005E
:1010440098C3124698425C43858BD1E71C4F0145F7
:101054002300F6009C429C4FA183A300F6009C420F
:101064009C4FC1832301F6009C429C4FE183A30162
:10107400F6009C42D84F2302E600D84F2183A302F6
:10108400E600D84F41832303E600D84F6183A303CE
:10109400E60098532304E60098532183A304E60052
:1010A400985341832305E60098536183A305E60022
:1010B400D8532306E600D8532183A306E600D85369
:1010C40041832307E600DC53E183A307F600F240E3
:1010D4006244056182800100B5B75D713AD2173769
:1010E40000001307279C36D414433ED022DE9C5EB6
:1010F4004ACA86C6998396C49AC29EC026DC2ADA56
:101104002ED832D642CE46CC72C876C67AC47EC2B7
:10111400858B3A841739000013098998D1CB9C5EDA
:10112400973400009384849893F7F7F99CDE17377B
:1011340000000347079893070008631BF700832701
:1011440009009C4393F70704173700002303F7961D
:1011540083C7040093F707049DC397270000938770
:10116400E77F9C4382979737000023A9A79483C7FE
:10117400040093F7F70B173700002309F79283C78E
:10118400440093F707048DE7854717370000A30150
:10119400F79297370000938727939C43096798C772
:1011A400130700FC973600002384E690D844F8D354
:1011B4001C40985F1183058B09CB985F3D9B98DF9A
:1011C4000547973600002385E68E985F1D83058BBF
:1011D40011CB985F1377F7F798DF8547173700002F
:1011E4002308F78C83270900D8430583058B19C787
:1011F400D843759BD8C3D843799BD8C37254B6409F
:10120400A64216438643E2545255C2553256A2565C
:10121400125782577248E2485249424EB24E224F08
:10122400924F616173002030973700009387C7891C
:101234009443973700009387678703C70700058B9C
:1012440011CB973700002385078697370000A381C9
:101254000786828003C71700058B65F7F85271FF74
:1012640083C75700DDB7173800001308A883032786
:1012740008001C5F9583858BD5EB1DC6973700004E
:101284009387C78E83986704030306001C5BBD83A2
:10129400630B030893F7F71FB38717419A9709471E
:1012A400B3C7E7022300F60085CA83270800985BCA
:1012B4004607935767016356070093E707C0C207C1
:1012C400C18303970600C207C18709C7BA970947B4
:1012D400B3C7E7022390F6009DC98347150085CB69
:1012E4009726000083C6E67C93F6060413879700CE
:1012F400914785CA3A950347050085461376F70654
:101304006311D60262076187B147634C07008327E4
:1013140008009C5FED838D8B17270000A30DF778E1
:1013240081473E858280B3871741ADBF8947D5BFCA
:10133400411122C406C6172400001304E47818409F
:1013440049E9AE877453FDFE3E85B28597270000B8
:10135400238F077497F000E0E780800F9727000041
:10136400938747749C43B70680009843558F98C36E
:10137400D857719BD8D797270000A38B077297275C
:101384000000A38507721C40094798C3B7F700E023
:1013940003A707D16D9B23A8E7D003A707D15D9BC3
:1013A40023A8E7D073005010144017270000130738
:1013B400E76F83472700858B89EB83473700858B4D
:1013C400D9C7972700002385076EB2402244410104
:1013D40082808D476310F502972700009387876CFE
:1013E4009C43B70680009843558F98C3D857719B88
:1013F400D8D75DBF8547E319F5FAB567BD075CC764
:101404000F1000001C400967094698C7130700F82D
:1014140097260000238EE6681727000013078768C5
:101424001443984231830D8B6319C7001307E043BB
:10143400F8D33D673D07D8C785BF984231830D8BEC
:1014440001E713076019EDB71307E01BD5B7FC528A
:10145400ADF3A5BF5D714EDE9729000093898964C1
:1014640003A7090086C6A2C4A6C2CAC052DC1C4394
:101474001729000013098969172A0000130ACA648E
:1014840093F7F7E793E707081CC383260900370798
:10149400CEFF7D179C46130680022A84F98F9CC6D2
:1014A40083270A00130700082800B8CBAE849305ED
:1014B4001008EFF0CFD997F000E0E780201C97F0F8
:1014C40000E0E780202983A709009376F41FB70E74
:1014D400FCFF23A40700984B130510F8CE8513676F
:1014E400F70398CBF84F4A88B70F0400137707E047
:1014F400558FF8CF9843F576FD16758F98C39843AA
:10150400B706330091421377F7E798C39843FD1E5B
:1015140085431377F7E71367071098C30327090078
:10152400130F80021C47D58F1CC783270A0013079B
:10153400900D3400B8CB014793583700A69883C761
:10154400080013767700B3D7C740858BDDC79C416D
:10155400032E0800239C0704239007060323CE02CE
:101564001373D3FF23266E0203AE07001373F7072A
:10157400137E0EF833636E0023A0670003A34702B3
:101584003363F30123A26702014303DE0706630703
:10159400C30303A30703038E06001353F30062037C
:1015A4001353834163586E0003A307031353F300DB
:1015B4002380660003D307061373F30F03DE870546
:1015C400E3F5C2FD03A347023373D30123A26702E9
:1015D40083870600635CF40003C308003396C300EA
:1015E4001346F6FF337666002380C8003E8663D335
:1015F400A7002A8613158601618505071377F70F5F
:101604008506E31BE7F3B640264496440649F2599F
:10161400625A61618280011136C897260000938660
:10162400A64A3EC49C423AC632CAD8472ACE2ECCD9
:1016340013161701635506029847131617016350D2
:1016440006027D57B8D71727000013076727584F9E
:101654000507172600002323E628116798C7984733
:101664000D83058B1DC317270000034747441367E9
:10167400170017260000230CE642130700F817266C
:1016840000002307E642214798C79847058B09CFF6
:101694001727000003479741136717001726000018
:1016A400A306E640054798C798470983058B09E7D1
:1016B40098470583058B39CF9847172600001306F2
:1016C400E63E172500001305E53D0983058B630CF1
:1016D40007101841184331830D8B63130710AC4B6B
:1016E400184E93F5050203471700E9C57DE7130774
:1016F4007006D8CF034706001367170017260000AB
:101704002306E63A114798C718415C57F19B93E7C3
:1017140017005CD79C4298479316370163D606029C
:101724009726000083C6864BC18A1727000013073B
:10173400E743E1C60347070713670702972600003C
:10174400238EE648056798C798479316270163D107
:101754000602172700000347A7356207618763570E
:1017640007000547972600002384E634096798C7D5
:1017740098479316070163D606029726000083C68E
:10178400F645858A172700001307473EC9C6034755
:1017940017071367270097260000A381E6442167F3
:1017A40098C77245E2455246C2463247A247056190
:1017B400730020300DDF85456315B7001307B006AD
:1017C4000DBF89456315B7001307F0061DB78D4596
:1017D4006315B7001307300729BF1307500711BF5C
:1017E4001307600739B70347360013671700172636
:1017F4000000A30EE62A094739B7834607070946BE
:10180400BD8A6388C600034707078D463D8BE31BEB
:10181400D7F2114725B783461707918AC9D20347E0
:1018240017071367870085BF172700001307072AC8
:101834008346B7019727000083C7172CB69793F701
:10184400F70FFD4663EAF6044C4B97260000A38F7E
:10185400F6269727000083C7772705473317F70035
:1018640097260000A38AF6286D8F1DEF97260000A7
:1018740083C6D628B3F6D70213050002814733D6B0
:10188400F500058A13F8F70F09CE6399E600972748
:101894000000A38D0723828081177DB70507137786
:1018A400F70F8507E39DA7FC8280972700009387A5
:1018B400E70A9C43011122CC4EC606CE26CA4AC86A
:1018C40052C456C2829797270000938727228047E5
:1018D40081496305A406BE84972700009387C70344
:1018E400038767013E8963550706018D135455002C
:1018F4009727000083C7271F9379F501636DF402CE
:10190400370AC0A8B70A405705379C4497260000F9
:1019140083C6661D139756003E9783076901158C8D
:1019240063C507006363470156979727000023A305
:10193400E71CE37BD4FC1604B3693401F24062442F
:101944004E85D2444249B249224A924A0561828074
:10195400E37D85F8B707C0A833848740229579B71B
:1019640097270000938787FF9C43411122C406C632
:1019740026C28297972700009387471780476309F9
:10198400A406BE8497270000938707F9838767011D
:1019940063D80704018D135455009727000083C7AB
:1019A40087146367F404493598449727000083C774
:1019B40087139396570036971D8C9726000023AB08
:1019C400E612E372F4FE2244B2409244172500006A
:1019D4000345D50F8145410117F300E06700A31BC0
:1019E400E37A85FAB707C0A833848740229565B7A0
:1019F400B240224492444101828097270000938799
:101A0400E7109843B75702009387079F8326070977
:101A1400139656006358060083260709139666003A
:101A240063440600FD17FDF3828071C5AA87014552
:101A3400E9C58D07C207C183F19BC207C1831307A0
:101A44004003636FF702172700001307E7110843E9
:101A5400172700001307C71014436398A60217271B
:101A64000000130767EB185B014541CB4111C20726
:101A740006C60545DD8D0297B240014541018280CD
:101A8400172700001307070ED9B70357650035E37E
:101A940003574500636FF704B306F7402146637CA0
:101AA400D60203280500938687001D8FAA96611726
:101AB40017260000035626E12392E60023A0060120
:101AC4002393060014C12312F500130786FF9726FB
:101AD4000000239AE6DE2313B5009725000083D582
:101AE40085DEB387F54017270000231EF7DC2105A8
:101AF400828008419DB70145828082800DC197276D
:101B040000009387670603A30700972700009387C5
:101B1400270583A8070081469A8763E3170182801B
:101B240003A80700636DF50A636BA80A138787008F
:101B3400E367E5FE03D66700216705076317E60040
:101B440003C7818B0507238CE18A972500009385C1
:101B540025D703D6470003D76500239307003297A0
:101B64004207418317250000231FE5D4638A6702D7
:101B740017250000130505FF08416303F50203D58B
:101B8400660019ED83D7460023A0060121073E967F
:101B940021062392C600972700002396E7D2B68732
:101BA4009843E30E17F7972600009386A6FB94420A
:101BB400E307D7F683566700BDF283D64700035682
:101BC40047001843A106B2962392D70098C383D73F
:101BD4006500A107172700002317F7CE8280BE8671
:101BE400C28725BF011197270000938727F822CCCD
:101BF40003A4870B26CA4AC84EC606CEAA84130974
:101C04002500854915C083C7140003473400858B1C
:101C14006304F700405CFDB71946930544004A8508
:101C2400EFE07FE8E31835FF2285F2406244D244B6
:101C34004249B24905618280411197270000938788
:101C4400E7F222C403A4870B26C24AC006C6930443
:101C54002500054901E82285B24022449244024904
:101C640041018280A6851305A402979001E0E780D4
:101C740080B4E30225FF405CF1BF411197270000C7
:101C84009387C7EE22C403A4870B26C24AC006C6A4
:101C940093042500054901E82285B2402244924478
:101CA400024941018280A6851305A401979001E0B1
:0C1CB400E78060B0E30225FF405CF1BF58
:101CC000971100209381019A17610020130181333D
:101CD0001305400097E5FF1F9385C53217060020C6
:101CE000130606FE63FAC5008322050023A05500F3
:101CF00011059105E3EAC5FE17B50100130505922C
:101D0000970500209385C5FB1386018463FAC500FF
:101D10008322050023A0550011059105E3EAC5FEC5
:101D20001385018497250020938505F66377B50018
:101D3000232005001105E36DB5FEFD42739002BC42
:101D40008D42739042809302800873A0023097E224
:101D5000FF1F9382222B93E232007390523097023E
:101D600000009382420E73901234730020303D4382
:101D70002A876373C3029377F700BDEFADE59376CF
:101D800006FF3D8ABA960CC34CC30CC74CC741072B
:101D9000E36BD7FE11E28280B306C3408A06970246
:101DA000000096966780A6002307B700A306B70039
:101DB0002306B700A305B7002305B700A304B700A7
:101DC0002304B700A303B7002303B700A302B7009F
:101DD0002302B700A301B7002301B700A300B70097
:101DE0002300B700828093F5F50F93968500D58D7B
:101DF00093960501D58D61B7939627009702000051
:101E000096968682E78086FA9680C1171D8F3E9649
:101E1000E374C3F8A5B7058905C5411117A50100ED
:101E20001305451D06C6EF90410381453D45A1249C
:101E3000B2409306803E794689450545410131AC63
:101E4000828041111305800406C697E0FF1FE780DA
:101E5000A05885457D55EF00906385457D55EF0081
:101E6000706D371700408327870A8D4513050020C2
:101E700093E707202324F70AEF007061EF10200397
:101E800017A5010013050542EF80317D9123852DB3
:101E900017050000130565F83D28EF30116FEF00BE
:101EA000D01797E0FF1FE78040222380018423A200
:101EB0000184B717004003A7070CB706C0FFFD1643
:101EC000758F23A0E70C03A7070DB7064000558FB9
:101ED00023A8E70C828023A2A1841306400689452B
:101EE000172500200345059D6F102065B71700409A
:101EF00083A7470C3707400083C60184F98F13B7C7
:101F00001700638DE6002380E18489EB9387418489
:101F100003A30700630403000545028382807971EF
:101F200022D426D24AD04ECE52CC56CA06D61379E7
:101F3000F50013844194854493899184138A8184A4
:101F4000914A631209022254B25092540259F24942
:101F5000624AD24A172500200345C59501468545AA
:101F600045616F10805DB3779900A9C783470A0068
:101F700003C7090023000400E58FD98FA384F184EF
:101F80002312D4002301C400A300B40099E123006C
:101F9000540136C632C42EC2EF10C0458347040038
:101FA000B2462246924593E7270008C42300F40076
:101FB00033499900860493F4F40F310459B79377A9
:101FC00015001387818485CB8547B7160040639E33
:101FD000F50083A7860A93F7F7EF23A4F60A834751
:101FE00007005D8D2384A184828083A7860A93E7FE
:101FF000071023A4F60AE5F5834707001345F5FF0C
:102000007D8DCDB7011122CC26CA4AC84EC652C416
:1020100006CEAE899374F500138941940544214A94
:1020200089E8F2406244D2444249B249224A0561F9
:102030008280B3F7840089CFCE85639649018345BA
:10204000090093C5150022852300B900A18C853FA6
:1020500006041374F40F3109E1B7AA8711C909CA3C
:1020600081CA9307300663E3C70055BD854559BF54
:1020700081453E85EDBFA14763EFB70297A60100FA
:10208000938646F81397250036971C43411106C6E0
:10209000B69782879306803E154685457D3FB240C0
:1020A0000145410182809306803E15469305200339
:1020B000F5B7893FEDB70145828037170040832788
:1020C000070A411106C693E707102320F70A814546
:1020D0003D450D3F8566938606FA7946A945054537
:1020E0003D3DB240238A01964101828083C74197DA
:1020F0006395071679714ECEC16922D426D24AD093
:1021000052CC56CA5AC85EC662C406D666C26AC0F7
:1021100013844194014C3D498544138A9184930A68
:102120004006FD19130B4006930BF00FB3F7240183
:10213000E1C783470400898BD5CFEF10A02B1C4447
:102140002A8D6368F50E83460400834C240093F7C0
:102150001600BDCB33079B41F99A81452685937CB8
:10216000F70F2300D400A13D0346040093774600F7
:1021700099EF83461400638C7601FD1693F6F60FF3
:10218000A300D40089E6134626002300C400834739
:102190000400898BB1C303574400330797033357B7
:1021A000570393170701337737016A97C18318C420
:1021B00063050C08A1C33E876373FC006287131C90
:1021C0000701135C0C013DA093E6160085452685AA
:1021D0002300D400ED3365BF83450A002685E58DD5
:1021E000B335B000493D03470A0093C7F4FFF98FA8
:1021F000A384F18433C92401860493F4F40F3104D9
:10220000E31609F2630D0C022254B25092540259A3
:10221000F249624AD24A424BB24B924C024D62861C
:10222000224C171500200345E568854545616F1070
:10223000C030898FC207C183A5BF3E8C65BFB25035
:10224000225492540259F249624AD24A424BB24B4A
:10225000224C924C024D45618280828041119396BE
:102260002500AA852D4506C697E0FF1FE78040445C
:10227000B240014541018280411126C2939425005C
:1022800022C44AC02A843289A686AA8501462545E9
:1022900006C697E0FF1FE780A041A6864A86A28572
:1022A000294597E0FF1FE780A040B24022449244B6
:1022B0000249014541018280011122CC06CE37142A
:1022C000004026CA4AC84EC652C483447405034A15
:1022D000B4058349840503499405E92B8347A40584
:1022E00093F4F40F137AFA0F93E71700230DF40415
:1022F00093F9F90F1379F90FB717004003C7A70532
:10230000058B6DFF03D5C705A38D4705238C3705C6
:10231000A38C2705A38B9704F2406244D244424920
:10232000B249224A0561828041119397050122C476
:1023300006C6C1872E8463DA0700EF00704319C117
:10234000EF00F03B2165218D39A093F7150081CB7B
:10235000713B13451400B24022444101828093F73F
:10236000250091CF61361306000A89451715002014
:1023700003454554EF10601C13452400E9BF9397B3
:10238000250163D10702EFE0006837F6020013066B
:1023900006E08965171500200345C551EF10E019C7
:1023A000096555B7939715010145E3D607FA17A5B7
:1023B00001001305E5CBEF80512A130600649165F7
:1023C000171500200345054FEF1020171165A5BF15
:1023D0001D71494697A50100938505C517A5010004
:1023E000130545EC86CE97E0FF1FE780006C01E9FE
:1023F00017A50100130585C4EF80312601A0B7F6AB
:1024000000E0795798CAFD57DCCA0567B7E700E0D6
:1024100023A0E7101306F00290C223A0E7180100E2
:1024200001001306C0038145480897E0FF1FE780BD
:10243000406297070020938767C13ECA89679387E8
:102440000780231CF100ED472312F1029547A301F9
:10245000F10285472303F102A167938707E03ECE8F
:10246000970700009387C7DFBEC4970700009387D4
:10247000E7E0BEC6B547A305F102971700009387B2
:10248000279D3EDA97070000938747E33EDE8D677E
:102490009387D7D0B7F507002314F1028146970739
:1024A0000000938707167000E10519453EDC97E0B0
:1024B000FF1FE780E01F58088147994670003E964D
:1024C0000346060085070507A30CC700E398D7FE5F
:1024D000D24791C70357810185676373F70001A055
:1024E0004808EF100049AA8501C917A50100130586
:1024F00025B6EF80F10401A0F640256182804111EC
:1025000017050000130585E206C622C4EF10A0429D
:10251000171400201304043A2300A40091208D2AEC
:10252000693E6132034504002244B24037F602009E
:10253000130606E0896541016F102000B7170040BF
:10254000130770052380E704130780FA2380E7044C
:1025500001000100C8DB9717002023AF07348280F9
:102560004111054506C622C426C24AC0C52E3714ED
:1025700000400D45130970055D2E930480FA230079
:10258000240523009404010001008347F40213058D
:10259000800C93F7D70FA307F4028347F40293E765
:1025A0001700A307F4022300040497E0FF1FE7804D
:1025B000E0010545AD2E230024052300940401000D
:1025C00001008347F4021305000293E74700A307C5
:1025D000F4022300040497E0FF1FE78040FE130588
:1025E000607E8147014781466546A14545262244D4
:1025F000B24092440249014541016F10406501110A
:1026000022CC2A84680006CE26CAEF003001A52518
:102610006367A4003305A440F54763EBA700324588
:10262000EF0090010945F2406244D2440561828086
:10263000228529373245EF00300037370040834785
:10264000574093F70704B9C3971400209384C42616
:102650009C400D45E9FB694597E0FF1FE78040B8C6
:102660009C408DC31305D402B707C0A863F7A70029
:10267000370540571305D5022295C93597E0FF1F4E
:10268000E780E0A60545AD2C014571BF010045BFBF
:10269000B7170040130770052380E704130780FA7B
:1026A0002380E7040100010003C7E70013678700E8
:1026B0002387E70003C7170313670702A388E7020E
:1026C0002380070437070010B7E700E023A0E710D6
:1026D000828089476305F50263E6A7008547630AA0
:1026E000F50082808D476301F50299476303F50287
:1026F000828017A501001305E5996F80017617A563
:1027000001001305259AD5BF17A501001305859A69
:10271000EDB717A501001305A59BC5B70111939748
:10272000050122CC06CE26CAC1872E8463D00702BB
:1027300003C5A184EF00D00319C1EF00407C2165DF
:10274000218DF2406244D2440561828093F71500E6
:1027500091CB17F5FF1F1305E570EF10F10313453B
:102760001400C5B793F785000145E1DFB136BD22FE
:10277000930485DAA68517A501001305A58FEF80C0
:10278000215C9307E10078009306A10030009305D7
:102790006100480059260357A1000358E100835700
:1027A000C10083568100035661008355410017A57F
:1027B00001001305E58CEF80A15893D7844017F7EB
:1027C000FF1FA30DF75097F7FF1F238A97508357DA
:1027D000A10097F6FF1F93862650614617F7FF1F4B
:1027E000A30FF74E8357C100854503C5A18417F792
:1027F000FF1F2307F74E8357E10017F7FF1FA301C1
:10280000F74EEF40902613060064A14503C5A1844E
:10281000EF00B052134584002DB7011117050000D9
:10282000130505F006CE22CCEF10E0101384A1842E
:1028300085472300A4002307F1001306E1008D471C
:10284000854513055030A307F100EF3081281306AA
:10285000F100854513058030EF30A12717F6FF1FE3
:1028600013060649C14513057030EF30812617F66F
:10287000FF1F1306E644D54513056030EF30612590
:102880009305000A0D45EF20F0539305000A11450A
:10289000EF205053034504008545EF00D038034531
:1028A000040013060064A145EF003049F240624481
:1028B00005618280B717004003C777051377E70FDC
:1028C000A38BE704130700F8A38DE7043D47238C8F
:1028D000E70413075003A38CE7048280B7F70700CF
:1028E000DC4B13D7070111E36547C207C1831D8D78
:1028F000A9473305F502ED473345F5023A95828045
:10290000B717004003C7E704930670052380D70478
:102910000D89930680FA1377C70F498F2380D70458
:10292000010001002387E704238007048280B71792
:10293000004003C7E702930670052380D7040D8982
:10294000930680FA1377C70F498F2380D7040100BD
:1029500001002387E70223800704828037170040A5
:102960008347E702120593067005BD8B2300D70449
:10297000C98F930680FA93F7F70F2300D70401005D
:1029800001002307F70223000704828041112A83F4
:10299000014E930E407E130F0019930F400663E41F
:1029A0006E0E9308001913034006B3781503854E85
:1029B0000D4FA14F337365020D891335150063EE7A
:1029C000BE0E1308F6FF79467298420813580801A4
:1029D0003307C70213D61700BE0732976146B3F616
:1029E000C60213068070B386C6023697A166F58FBD
:1029F00042075D8FB716004083C7F60293F70708BA
:102A0000A307F1000346F10083C7F60293F7070816
:102A1000E394C7FE8347F100B716004093F7F70F22
:102A2000FDC7B7170040930670052380D7049306AF
:102A300080FA2380D7040100010023AA070383C67C
:102A4000170311667D1693E60608A388D702D45BA8
:102A5000C85F93854703A98EF18EF5FA930670053A
:102A60002380D704930680FA2380D7040100010055
:102A700098C103C7170313670704A388E7022380DD
:102A80000704410182807D133368E3039308E01655
:102A9000630E08003368F3039308D0166308080038
:102AA0009378330093B818009388D81633081E0122
:102AB000131E0801135E0E01DDB56393E50305489F
:102AC000638608000148630303002A88710872982E
:102AD000FD15131E0801C205135E0E01C181C5B5A7
:102AE00013F8150063F4BF007908D5B71338180040
:102AF000E5BF83C7F60293F70708A307F100034673
:102B0000F10083C7F60293F70708E394C7FE8347F3
:102B1000F10093F7F70FF1DF29B7B718004003A8CA
:102B2000C80303D3A80383D888034111060393D8AD
:102B3000F8004A08B30E13019308407E22C626C44B
:102B40004AC21358280123101501930F001993024C
:102B5000D01693034006130FC01603530500B37835
:102B6000F30363800810B3787302638108109378CD
:102B7000330013BE1800130EDE166350C8092390ED
:102B8000050005449944F94FF542130900199303D0
:102B9000400683D80500138F18006394880A0353F6
:102BA0000500337E2303630C0E08B378730263863B
:102BB00008009378330063840808F148635C1805C3
:102BC0002390E5010508231006010566130606E1BA
:102BD000B3D5CE023244A244124933F6CE0223903A
:102BE000B6009306C0033356D602B3F6DE022310B6
:102BF000C7002390D7004101828093B818009388C2
:102C0000D816330818414208050313580801231049
:102C10006500A1B78548630B0E00337E73028148BF
:102C200063060E009378330093B81800F108330858
:102C300018414208135808012390E50199BFF5484F
:102C4000B5BF13F3180063F8140163180300E3D948
:102C500002F7F948E9BFE31C03FEE3D30FF7FD4891
:102C6000F9B7E3DE02F19308E01661BFE3590FF113
:102C70009308D01679B74111B7170040985F3AC64C
:102C8000945F3247E39CE6FE3245410182809147E2
:102C900063EEB70217970100130747448A05BA95F8
:102CA0009C41BA978287B717004003A7470B13458B
:102CB000F5FF698F23AAE70A03A7070B698F23A8EB
:102CC000E70A03A7070A798D23A0A70A8280B7170E
:102CD000004083A6470B1347F5FFF98E23AAD70AB6
:102CE00083A6070B558D23A8A70A83A6070A758F0D
:102CF00023A0E70A8280B717004003A7470B498F3C
:102D000023AAE70A03A7070B1345F5FF45BFB7172B
:102D1000004083A6470B1347F5FF758F23AAE70AE8
:102D200003A7070A598D4DB7B717004003A7470BF4
:102D3000498FEDB7914763EEB7021797010013076C
:102D4000273B8A05BA959C41BA978287B7170040FE
:102D500003A7470D1345F5FF698F23AAE70C03A7C7
:102D6000070D698F23A8E70C03A7070C798D23A013
:102D7000A70C8280B717004083A6470D1347F5FFC5
:102D8000F98E23AAD70C83A6070D558D23A8A70C6F
:102D900083A6070C758F23A0E70C8280B71700402D
:102DA00003A7470D498F23AAE70C03A7070D134577
:102DB000F5FF45BFB717004083A6470D1347F5FF42
:102DC000758F23AAE70C03A7070C598D4DB7B717CA
:102DD000004003A7470D498FEDB7B717004003D553
:102DE0008700420541819377050491EB9377F501C4
:102DF0003755E801130505803345F5028280937746
:102E0000050C130700046397E7009377F501374536
:102E10009C1CCDB72165130505D0828037E700E003
:102E20001C435443A183E206D58F1CC1FD572320C8
:102E3000F7182322F718828013178500B7E700E000
:102E400023A0E710618123A2A7108280B7F700E0DA
:102E50008847CC478280814737370040A14663C40A
:102E6000C700328582800345B740E38EA6FE3385D6
:102E7000F5000345050085072304A740CDB74111A0
:102E800022C406C62A84913F2947B307E502B2400F
:102E90008D83B3D7870222449507B3D7E70237372C
:102EA0000040C207C1832316F7404101828071654B
:102EB00041111305052006C6D937B737004013075F
:102EC00070F82381E7400D47A381E7401307000412
:102ED000A380E74005472387E740B2404101828055
:102EE00023AC05FE1C4191E7010001000CC182806A
:102EF000BA8703A787FF6DFF23ACB7FE82801DC191
:102F00008346E5FF1307F00F9147639EE6004111EA
:102F100006C697F0FF1FE780A0BEB24081473E85FE
:102F20004101828095473E85828001E9014582808A
:102F30000145B2402244410182809565411193854B
:102F400005D022C4C98D2A842105C2054205C1814C
:102F5000418106C697F0FF1FE78060AD71D9FD572C
:102F600023200500231285002303F5002105D1B796
:102F700017170020130787941C43411122C426C24F
:102F80004AC006C601440149BA8489E7A165B5274C
:102F90001DC401A803C7E7FF631AA7020DCCA165F2
:102FA00059219840832784FF6319E40217170020F2
:102FB0002326F790FD57232C04FE230FF4FE2285D1
:102FC000B2402244924402494101828011E03E898C
:102FD00083A787FF5DBF3E84E5BF232CF9FED9BFE1
:102FE000B1CD411122C406C62A849717002083C799
:102FF000378D2E856375F400894763E887000137B4
:103000000D45B24022444101828083A785FF99E7A4
:1030100003C7E5FF9307F00F6305F700CD351545AE
:10302000CDB7238F85FE17150020130525894D3D4B
:1030300022852244B240A1654101F5A61545828052
:103040009717002023AC078682809717002093876C
:10305000678C9C4399E33E85828003D727006316E3
:10306000B70003C70700E308A7FEDC47E5B7C9C1FF
:10307000797122D406D626D24AD04ECE0144414799
:10308000B3D78540858BA5C31205314722953305FB
:10309000E502971700209387E78B03A90700854473
:1030A000B3948400C204C180BE892A990327090011
:1030B00011C7032549002EC60297B2453147330494
:1030C000E40283A709003E941C4489E723200900F9
:1030D00023220900B2502254A58D02599254F2497C
:1030E0002E85456182800504E31CE4F88144DDB748
:1030F0002E85828041111397050122C406C626C27F
:103100004AC041872E84635E07009D3511C1C53BCF
:10311000A1673D8C2285B24022449244024941017C
:103120008280EDD9AA8701474146B356E440858A9B
:103130008DCE9207BA97B146B387D7029716002073
:103140009386468103A906008544B394E400C20433
:10315000C1803E99832709000325490082972320D7
:10316000090023220900258C75B70507E31FC7FA5C
:103170008144D5BF970700209387077A9C5341115C
:1031800022C406C61384818099C782971C403E954D
:1031900023A4A18039A0970700209387277C9C4314
:1031A000EDF70840B74703009387D73F3305F50293
:1031B000B7A72600938737ECB24022443E9523A45C
:1031C000A180410182800111680006CE22CC26CA6E
:1031D000EFB05060FD576300F50E324797060020B0
:1031E000938686739707002083C75774B68463F964
:1031F000E70A170400201304A46C18483706C0A877
:10320000630EC70297070020938747759C438297F8
:1032100032471C486373F700BA871707002003473B
:10322000F770998F3E958387640163CE0700B707D7
:10323000C0A8636AF500B7074057A5A88386660152
:1032400063D506061D8D17140020130424861C4C1C
:1032500081CF971700209387678B94433707CDFF63
:103260007D179C46F98F9CC619E13705C0A89707C2
:1032700000209387676ADC53829719E51C4C8DC345
:10328000EFD0B00BEFD020041C4C99CB9717002047
:103290009387C7879843B70633001C47D58F1CC751
:1032A000F2406244D24405618280E37DF5F8B307C1
:1032B000F7403E9549BF97040020938464609C4882
:1032C0003704C0A8E38E87FC97070020938707691F
:1032D0009C4382979C481707002003473765998FC6
:1032E0003E95970700209387276383876701E3CC88
:1032F00007F4E36A85F481B77DC93748F6A6130859
:1033000008C889476366C80E7971970700209387BC
:10331000676422D45AC803A807003E8B06D626D27B
:103320004AD04ECE52CC56CA5EC662C40144B148A1
:10333000C147B30B1403137CF40F33037801032349
:1033400003006311030AAE8AC165AA84938505F060
:1033500041453A8AB689328997E0FF1FE780206DA0
:103360000DE9970700209387275B9C5B99EF8147C6
:10337000B250225492540259F249624AD24A424B04
:10338000B24B224C3E854561828081451145829732
:10339000F9BF970700209387E757984321E39707E2
:1033A000002023A9A7562300050083270B0005470B
:1033B00033148700232605002324250123118500CB
:1033C00023224501DE9784C323A2570123A447018A
:1033D000E38F09F82380890159BF36875447F5FEEA
:1033E00048C7D1B70504E316F4F4A14751B789479C
:1033F0003E85828097070020938707569C434111A2
:1034000022C406C6170400201304844B81CB829784
:103410005C483E959707002023AEA74A4848B24033
:103420002244410182809707002083C77749637156
:10343000F502170700201307A74D9317150008433F
:103440003E9583570500DD8D2310B5000145828030
:103450000D4582809707002083C797466373F50266
:10346000170700201307C74A93171500084393C591
:10347000F5FF3E9583570500FD8D2310B5000145EE
:1034800082800D4582809307F00263E5A70A3146EA
:103490003306C502970700209387C74B94432A87BA
:1034A0000945B2969C42C9CB011122CC4EC60544B7
:1034B000935947003D8B3317E400131407014180F3
:1034C00026CA4E85AE84A2854AC806CEBD3E2A894C
:1034D0000145630A0904A2854E85AD3F9707002088
:1034E0009387C7479C4382979707002083D7C73F9E
:1034F000B38797021307006493870732B3D7E702B5
:103500003E9597070020938727418387670163C90A
:103510000700B707C0A86365F500B70740573E9599
:103520002324A9000145F2406244D2444249B249F1
:10353000056182800945828082809707002083C7C9
:1035400037386364F5000145828097070020938730
:10355000E7409C43EDDB011122CC26CA4AC84EC687
:1035600006CEB2892E89AA848297170400200354BC
:10357000A437330434039307006413040432335430
:10358000F402970700209387273903876701BE89D4
:103590002A9463490700B707C0A86365F400B7071A
:1035A00040573E94CA8526854D3401C500C5054562
:1035B00015A093E504F0C205C181414597E0FF1FC6
:1035C000E780E04619ED83A7090381C7A685114569
:1035D00082970145F2406244D2444249B2490561B2
:1035E0008280970700209387E7329C439DE39707EB
:1035F000002023A1A73285472326050000C52311FB
:10360000250123009500A300F5002322050045B7FE
:10361000BA87D84775FFC8C7F9BF51C9797122D495
:1036200026D24AD04ECE52CC56CA5AC85EC662C4C2
:1036300006D6B689B28A2E8A2A899304000C4144A0
:10364000170B0020130B0B31054C930B0003832742
:103650000B00A6979C43A1E79375F400B315BC003B
:10366000C2055686C18113554400C13D0DC983274B
:103670000B000145BE9423A0240123A244016384CE
:10368000090023808900B250225492540259F24911
:10369000624AD24A424BB24B224C456182800504B9
:1036A0001374F40FB104E31474FB2145E9BF094519
:1036B0008280411122C426C24AC006C6AA842E892D
:1036C0003284A53DCA852685EFF03F980DC51706C3
:1036D0000020035666213306860293070064130612
:1036E00006323356F60250C10145B240224492449C
:1036F0000249410182802145CDBF411122C426C229
:103700004AC006C62A892E84EFF03F94AA8419C1C4
:1037100023110500A2854A85353B9707002083C702
:10372000271A639B27019707002083D7271E5D8CEC
:1037300097070020239C871C014591E01945B24062
:10374000224492440249410182809307F00263E8D7
:10375000A7044111B14722C43304F50226C29704DD
:1037600000209384241F9C4006C6A2979843894753
:103770000DC39377F5008545B395F500C205C1816A
:103780001181A53F9C40A29723A0070023A2070018
:103790008147B240224492443E854101828089475C
:1037A0003E858280411106C622C4EFF01F8A11E5D2
:1037B0000145B2402244410182809707002093874F
:1037C000E7199C4300458297970700209387C71409
:1037D0008387670163D50702B747F6A63305A44080
:1037E0009387F7C7E3E6A7FC930700643305F50268
:1037F0009707002083D7470F3355F5025DBFE37D60
:10380000A4FCB707C0A83E94C1BF411106C69707E4
:10381000002023A3A7140295B2409707002023ADF0
:10382000A70A014541018280994763E9B7008A05EB
:10383000970700209387C70BBE9588C182804111EE
:1038400071468145170500201305850A06C622C466
:1038500026C297D0FF1FE780C01F1306C002814514
:10386000170500201305C50597D0FF1FE780601ED0
:10387000EF20615B9707002023AE07089707002021
:1038800023AC070C9707002083C7770A13D52700BE
:103890008D8B3E958D473305F502170400201304E8
:1038A0002402994785459704002093842404390510
:1038B0001375F50F2301A4003305F5021305052444
:1038C00097E0FF1FE780A0169707002023A4A70812
:1038D000834724001305052488C08A073E9597076F
:1038E000002023A7A702EFF0AFF53521834714008E
:1038F000944017F6FFFF1306C677139727003697F5
:1039000010C3138717001377F70F0A07369717F6B8
:10391000FFFF1306667E10C313873700890793F7EE
:10392000F70FA300E400B24022448A07B69790C381
:103930009244410182809707002083C777F81707D8
:103940000020034707F863F3E70217070020130777
:10395000E7F918439386170017060020A302D6F64E
:1039600093962700369708C33E8582809307F00F11
:10397000E5BF1C416387071641777D8FB70600209E
:1039800089476311D71603574500630D071441118A
:1039900026C21946AA849305F00F690506C622C4FB
:1039A00097D0FF1FE780001505478D476305E51297
:1039B00017040020130444F61C4481CB585899473F
:1039C000631B0710185C631807101306C0038145BA
:1039D00017050020130545F497D0FF1FE780600707
:1039E0001306C003A685170500201305E5F297D03E
:1039F000FF1FE78080029707002083D7A7F299E78F
:103A00009307001017070020231EF7F097070020E8
:103A100083C767F191E78547170700202305F7F073
:103A20009707002083D747F091E7ED47170700205D
:103A3000231CF7EE9707002083C7F7EE91E7954721
:103A400017070020A301F7EE9707002083C7E7EDD3
:103A500091E78547170700202309F7EC9707002017
:103A600083C7B7EC99E78347F40017070020A30E3C
:103A7000F7EA9707002083C767EB91E7B547170779
:103A800000202305F7EA9707002083C777EA99E724
:103A90009307800217070020A30CF7E89707002080
:103AA00083C7D7E899E79307D00217070020A30F31
:103AB000F7E683C7840199E79307C003170700203F
:103AC0002308F7E61C5491C7829797070020239D8F
:103AD000A7DEB5338147B240224492443E8541017E
:103AE000828089473E85828097070020938707E779
:103AF0009C43411106C6829793070064B307F50201
:103B00009706002083D646DE17070020130747DB01
:103B1000184F0145B3D7D7026300F7023385E7405A
:103B20006368F700370500B03355D502198D3E950F
:103B3000170700202322F7DAB2404101828097075D
:103B4000002083D787DA51471D45637CF702794708
:103B500019456378F7021307200315456373F702CD
:103B60001307B0041145637EF700130740060D45A7
:103B70006379F7001307600909456374F70013B50B
:103B8000B70F8280011122CC06CE2A842EC6EFF018
:103B90006FDEB245F240818D33A5A50222956244C5
:103BA0001375F50F05618280011122CC06CE2A849F
:103BB0002EC6EFF02FDCB245F240818D33A5A50271
:103BC000229562444205418105618280011122CC27
:103BD00006CE2A842EC6EFF0EFD9B245F240818D91
:103BE00033B5A502229562440561828097070020C3
:103BF000938787D2985739CB411122C426C206C673
:103C0000BE84029717070020035707CC2A8415CBE0
:103C1000BA876373A700AA87C207C183BA86637392
:103C2000E400A286C206C182958F5147635BF7000C
:103C3000DC5491C38297EFC0105D97070020239555
:103C400087C8B24022449244410182808280970713
:103C50000020938767CCDC57011106CE81C72AC6A6
:103C60008297324515C5B7873200938727A117077A
:103C70000020232BF7C69707002023A1A7CE170506
:103C800000001305A5E65136F2400145056182802A
:103C90009707002083C7A7C9139787016187635CD3
:103CA00007029707002023AB07C2B787320093872C
:103CB00027A1170700202329F7C27D57B7C7004067
:103CC00023A4E72697D7FF1F9387C719170700205C
:103CD0002326F7C86DB713F7170011CFB787200356
:103CE000938707D0170700202320F7C097D7FF1F1F
:103CF0009387671AE1BF6177970600202396E6BE97
:103D000081CB93070032170700202310F7BEF9BFBD
:103D100093072003CDBF011122CC17040020130408
:103D2000A4BF084406CE26CA4AC801E90545F240A8
:103D30006244D2444249056182805C58E5DB185CEC
:103D400075D77000854582971844B247E300F7FEA7
:103D50009305E004170500200355C5BC97E0FF1F3D
:103D6000E780E0CC17070020232CA7B661D1170607
:103D70000020035626BB9305F00F97D0FF1FE78066
:103D800040CD814417090020130989B3970700200B
:103D900083C767B90326090263C1F402328597E03D
:103DA000FF1FE780E0D501459707002023AA07B24F
:103DB0009707002023A807B29DBF9705002083D551
:103DC00065B6B38795020844185C898185043E95E1
:103DD00008C2029765BF411122C4170400201304D2
:103DE000A4B31C4426C206C64AC09704002093848C
:103DF00024AD91EB885025EDB24022449244024913
:103E00000145410182801C5CF5D79C5099EF9305D8
:103E1000E004170500200355E5B097E0FF1FE78099
:103E200000C19707002023ADA7AA885061D51706C7
:103E30000020035626AF9305F00F97D0FF1FE780B1
:103E400040C101499707002083C7E7AD9050E35375
:103E5000F9FA9705002083D5E5AC338525031C448A
:103E6000898105093E951C5C08C28297E1BF97E0F5
:103E7000FF1FE780E0C89707002023A307A6970746
:103E8000002023A107A68DBF011156C2970A00206A
:103E9000938A8AA883A78A0022CC4AC84EC606CE37
:103EA00026CA52C45AC0AA892E8432896385072241
:103EB00003A74A03630707147D476366A7149704A3
:103EC00000209384E49F03AA040263170A0A9565FD
:103ED000938515E0170500200355C5A497E0FF1F43
:103EE000E780E0B49707002023ACA79E2A86630AE8
:103EF000051083A74A0303A58A009705002083D5F0
:103F000065A28981829783A78A0003AA0402170702
:103F100000202329F79C8947639CF908C147631255
:103F2000F40E9705002083D5E59F938505FC914706
:103F3000B3C5F5028A05D29503C705009307A0050E
:103F4000631DF70A83C715006399370B4A852286DC
:103F5000910597D0FF1FE78040AC9C50528563933A
:103F600047150145F2406244D2444249B249224ACF
:103F7000924A024B05618280D850E38EE7F895653E
:103F8000938525E0170500200355C59997E0FF1F8D
:103F9000E780E0A92A8A35C52A8683A74A0303A5B4
:103FA0008A009705002083D5E59789818297A5B778
:103FB0008D47639DF900C1476315F4049705002000
:103FC00083D54596938545FDF199B5B79147639A99
:103FD000F900631834039705002083D5A594A11533
:103FE000E5B7C147639FF900A14763EC87009705D8
:103FF000002083D52593C115C1BF9C50528563977E
:10400000470D294585B71307F006568B6361A70A4C
:10401000130A05FE1947334AEA021707002003571F
:104020006790970A0020938AAA89330AEA023E9A87
:1040300083A74A026395470183A40A029DE493057E
:10404000E004170500200355E58D97E0FF1FE7808A
:10405000009EAA845DD583274B039705002083D556
:10406000658C2A8689815285829791451307A00520
:10407000898193972500A69783C607006393E6047A
:1040800083C61700639C360385058A052286A6959C
:104090004A8597D0FF1FE780409883A70A02E382F2
:1040A00097EC268597E0FF1FE78080A55DBD13078D
:1040B000E007E368A7F4130A05F985B783D527005D
:1040C00045BF83A70A02E38E97F2268597E0FF1F7C
:1040D000E78000A33DB797F7FF1F9387677E8C5358
:1040E0008DD191479306A0058983139727002E97BA
:1040F00003460700E317D6F003461700631C36019A
:1041000085078A072286BE954A8597D0FF1FE780DC
:10411000C09081BD83572700C1BF97F7FF1F9387CA
:10412000A77F984739C79C5FA9C705476313E50474
:10413000411122C417F4FF1F13048478105006C6DF
:104140000DC6485097F5FF1F83D5C57D898182979D
:10415000085097E0FF1FE780A09A97F7FF1F23A161
:10416000077897F7FF1F23AF0776B240224441013B
:1041700082808280011117F7FF1F1307E7794EC66F
:104180008329870022CC26CA4AC806CE52C456C20A
:10419000AA842E843289638A09201C5FBA8A99EB2B
:1041A0002945F2406244D2444249B249224A924AE5
:1041B000056182805C5BEDD7FD4763E9A70E97F947
:1041C000FF1F9389E96F83A70902B1CB03A58A007A
:1041D00083A749026395A70689476393F408C147FB
:1041E000E310F4FC17F5FF1F0355C5739147130542
:1041F00005FC3345F5029317250003A50902228625
:10420000CA853E959307A0052300F500A3009500FD
:10421000110597D0FF1FE7804080014559B79305EE
:10422000E00417F5FF1F0355E56F97E0FF1FE780D8
:10423000008097F7FF1F23A5A76A49F995B783A7C1
:104240004A0303A6090297F5FF1F83D5A56D89814F
:10425000829783A78A0017F7FF1F2325F768ADBF52
:104260008D47639EF400C147E31CF4F217F5FF1F6E
:104270000355456B130545FD9377C5FFBDBF9147BA
:10428000639AF400E31E94F017F5FF1F0355856948
:104290002115DDB7C147E395F4F0A147E3E287F0CC
:1042A00017F5FF1F035505684115F9B79307F00689
:1042B00063EAA706930705FE1947B3C7E70217F796
:1042C000FF1F0357276617FAFF1F130A6A5FB3879A
:1042D000E702BE9983270A02A9CF83274A02639A7D
:1042E000370703250A0291461308A005FD5593D709
:1042F0002600C207C183139727002A9703460700A9
:10430000631D060783481700035627006395980628
:10431000B306D64063CF860485078A072286CA85FE
:104320003E95C5BD9307E007E3ECA7E6930705F9C3
:1043300079B79305E00417F5FF1F0355A55E97D0E5
:10434000FF1FE780C06E97F7FF1F23ABA75851F5FB
:1043500081BD83A74A0303260A0297F5FF1F83D571
:10436000655C89814E85829797F7FF1F23AC37578D
:104370008DBFA300B700B2869DBFB385860017F638
:10438000FF1F0356265A9105130606FCE3FAC5E003
:10439000130634001376C60F1106B29623000701E8
:1043A000A30097002311D70085BF97F7FF1F9387BE
:1043B00027519453BE89A1C203A50902914613084F
:1043C000A005FD5593D72600C207C1831397270088
:1043D0002A9703460700631606058348170003560D
:1043E000270063989800B306D640E3D786F2A3006F
:1043F000B700B286C1BF8357C70017F5FF1F03453B
:1044000085529305E0043305F5024205418197D0BA
:10441000FF1FE780C06197F7FF1F23A3A74C49FD4B
:1044200041B317F6FF1F0356E64F97F5FF1F83C5ED
:10443000854FB385C502338686001106E3E2C5D6F3
:1044400081BF01458280011106CE2EC6EF70E03695
:1044500001C9B245F2400355250005616FA09016D1
:10446000F240494505618280A38A0186238A01863C
:1044700023AE018423A0018623A2018623A4018602
:1044800023AC018423AA018497F7FF1F9387474F2A
:10449000130640382391C70271761307400B1306A9
:1044A00006B82391E7002392C70211671D469306C1
:1044B00000059305000A1305007D2392E70023936E
:1044C000C70241470546130810F82395E7002396D5
:1044D000E7002399E700239AE700239BE700239C4A
:1044E000E7002394E7022396070323900700239312
:1044F000B7002394B7002397D7002398D700239DB4
:10450000A700239E0700239F0700239007022395FF
:10451000C702239707021308F00723980702239284
:10452000E7042393E704239FE7042390E7062391FE
:10453000E7062392E706239907031307C01C239A73
:10454000C702239BC702239C0702239D0702239EC9
:104550000702239F0702239007042391C704239493
:104560000704239507042396C7042397D7042398A9
:10457000D7042399A704239A0704239B0704239CA9
:104580000704239DD704239ED7042393A7062394CF
:10459000070623950706239607062397B706239851
:1045A000B70623990706239AE7067D57239B07063C
:1045B000239CE7068280011126CAAA84214522CCC9
:1045C00006CE2E8432C636C43AC2EFE01F961DC90D
:1045D000A24612473246930700FD2300F500994793
:1045E000A30095002301F5002303D500A303E500F4
:1045F0002312C500AA8522856244F240D244056197
:104600006FE01F9EF2406244D2440561828023AE77
:10461000A184828023A0A186828023A2A186828099
:1046200023A4A1868280011122CC4AC806CE26CAC4
:104630002A890144B30489006368B400F2406244EB
:10464000D2444249056182802EC6EFE0BFB2931783
:104650000501C183A183B2452380F40093071400B0
:1046600093F7F70F850463F9B700CA97090423800D
:10467000A7001374F40F7DBF3E847DBFC16717F59B
:10468000FF1F0355452EFD176304F502411117F670
:10469000FF1F0346663F9385C18606C6EF605072D2
:1046A000B240FD5717F7FF1F231FF72A41018280F1
:1046B000828009C925151375F50F1335850E13452D
:1046C000150082800145828023900500C9C679715A
:1046D00022D426D24ECE52CC5AC806D64AD056CA7A
:1046E0005EC63684328AAE892A8B814463F34407DE
:1046F000B307940083C70700138914004209939AF3
:10470000070193DA0A011359090163840A04CA975D
:104710006341FA04B307240183CB07005E85513F50
:104720000DC99387FAFF2390F90063906B0313057B
:1047300019002295B250225492540259F249624A09
:10474000D24A424BB24B45618280D694C204C180AA
:1047500071BF0145C5B701458280411126C2AE84B3
:1047600022C497F7FF1F23A7C72097F7FF1F23A196
:10477000B72097F7FF1F23ABA71E2A844146930556
:10478000F00F26854AC006C6054997C0FF1FE7807F
:1047900060366310250597F7FF1F9387671C884BCA
:1047A000C145513541469305F00F228597C0FF1F43
:1047B000E7804034854463189502224497F7FF1F31
:1047C0009387071AB24092440249C847C145410144
:1047D00099BD41468145268597C0FF1FE7808031FE
:1047E000E31225FD4DBF41468145228597C0FF1F3D
:1047F000E7804030E30395FCB240224492440249F2
:1048000041018280411122C426C22E84AA8413064B
:104810000002814517F5FF1F1305851406C697C0D2
:10482000FF1FE780002397F7FF1FA38C971297F7CE
:10483000FF1F238D8724EFA0E05A854719C18147C8
:104840004945B240224417F7FF1F230BF71092444B
:1048500041018280814781CD19C98547631BF500DD
:1048600083C7550093E707FCA382F50085473E8583
:10487000828089476317F50083C7550093F7F703D4
:10488000E5B70D478547E314E5FE03C755001377E9
:10489000F70313670704A382E500D1BF81478DC1E9
:1048A00005C103C755009306000C85471377070C15
:1048B0006308D700930600048D476303D700894738
:1048C0003E858280411122C4005D06C626C21DC8F5
:1048D000AA84085009C597D0FF1FE780602248507E
:1048E00009C597D0FF1FE780A021085409C597D0BC
:1048F000FF1FE780E020228597D0FF1FE780402040
:1049000023AC0402B240224492444101828009ED6A
:1049100097F7FF1F83C7E70417F5FF1F1305C505AA
:1049200081CB1385C184828017F5FF1F1305C50451
:10493000828017F5FF1F0345C502828097F7FF1F8E
:1049400093870702C847828097F7FF1F9387470125
:10495000884B828097F7FF1F93878700DC4B884343
:10496000828097F7FF1F9387A7FFD84B1C438507CB
:104970001CC317F5FF1F0345D5FE9307F00F630512
:10498000F50091656FE03FAA8280011122CC06CE2E
:104990002E8432C6EF6030739147B245631FF50035
:1049A000938781869C438DC303A30700630E030096
:1049B00022856244F24005610283938701869C430D
:1049C00081C703A34700DDB7F24062440545056196
:1049D0008280011122CC2A840355450006CE26CAC6
:1049E0004AC84EC6EF60504C35C52A89834405003D
:1049F0008349C500C13D4A85EF7010480355440006
:104A0000EF60B06783C74187B1CB6399970483C5D3
:104A100051872685EFF03FA319E1238A01860355CC
:104A20004400EF60506A9147631FF500035744004C
:104A300097F7FF1F83D727F36317F700FD5717F783
:104A4000FF1F2312F7F2F2406244D2444249B249B6
:104A50000561828081499304F00F6DB79307F00FD1
:104A6000E38FF4FA834664000356440003452400B0
:104A70004E87A685893665B779715EC6AA8B2E8565
:104A800052CC56CA5AC806D622D426D24AD04ECEC6
:104A9000AE8A328B368AEF6030417DC1045D2A894F
:104AA000E5C09C50614599C3130540039C5481C7E0
:104AB00051054205418163050A00710542054181A6
:104AC000DC5081C7590542054181EFE00FC62A84B9
:104AD00045C96146814597C0FF1FE78080F797F978
:104AE000FF1F83C9E9EC6394090083490900930718
:104AF00000FD2300F400A947A30074012301F40082
:104B0000230364018C50231254011305840191C9BD
:104B100008C47146930A440397C0FF1FE780E0EF83
:104B200056858C5491C948C45146930A450197C093
:104B3000FF1FE78080EE5685630C0A0008C87146A7
:104B4000D285930AC50197C0FF1FE78000ED568507
:104B5000CC5099C548C8594697C0FF1FE780E0EB85
:104B6000A2854E85EFE0CFC72254B2509254F2494D
:104B7000624AD24A424BB24B4A850259456199B3C7
:104B8000B250225492540259F249624AD24A424BDC
:104B9000B24B4561828001114EC6AA892E854AC852
:104BA00006CE22CC26CA2E89EF60103021C997F498
:104BB000FF1F83C4E4DF99E0834405001945EFE05B
:104BC000CFB62A8405CD8145194697C0FF1FE780DF
:104BD00040E8930700FD2300F400B947A300340127
:104BE0002301F40023122401A2856244F2404249C9
:104BF000B2492685D24405616FE08FBEF24062441F
:104C0000D2444249B2490561828039715ECEAA8B95
:104C10002E8526DA4ED652D456D25AD006DE22DC63
:104C20004AD8AE84328BB68A3A8ABE8942C6EF60D1
:104C3000B02721CD2A894145EFE02FAF2A8431C525
:104C40004146814597C0FF1FE780A0E017F5FF1F91
:104C5000034505D619E103450900930700FD23002C
:104C6000F400BD472301F400B247A30074012312EE
:104C7000940023046401A304540123054401A30503
:104C800034015CC4A285EFE0AFB5F2506254D25457
:104C90004259B259225A925A025BF24B21618280E8
:104CA000797126D2AA8439454AD04ECE06D622D46E
:104CB0002EC6B2893689EFE04FA721C1B2459307CE
:104CC000000D2310F500B1472A842312B5002301FB
:104CD000F500CE851905194697C0FF1FE780E0D380
:104CE00023062401A2852254B2500259F24913F539
:104CF000F40F925445616FE0AFAEB250225492541B
:104D00000259F2494561828017F7FF1F034777C5B3
:104D10009307F00F630DF706411126C2AA843945A7
:104D200022C406C64AC0EFE04FA02A8439C99307BF
:104D300000FD2300F500A30095002301050097F571
:104D4000FF1F938565C30D05194697C0FF1FE780B8
:104D5000C0CC17F9FF1F1309A9C083578900A2858A
:104D600017F5FF1F0345F5BF2315F400834719000E
:104D70002306F4002244B2409244024941016FE00C
:104D80002FA6B2402244924402494101828082808F
:104D900001115AC02A8B314526CA4EC652C456C28A
:104DA00006CE22CC4AC8AE84B28A368ABA89EFE0EF
:104DB000CF9735CD2A842685EF60100F11C50347A4
:104DC000C500A1476314F70417F9FF1F034979B918
:104DD000930700FD2300F4009D47A3006401230115
:104DE000F4002312940023135401231444012315C7
:104DF0003401A2856244F240D244B249224A924A26
:104E0000024B4A85424905616FE08F9D17F9FF1FEC
:104E10000349D9C7E31E0BFA938781909C439C47B3
:104E2000C5DBCE865286D6852685829755B7F24059
:104E30006244D2444249B249224A924A024B056135
:104E40008280011122CC2A84214506CE2EC6EFE0B5
:104E5000CF8D21C1B245930700FD2300F500C54762
:104E60002301F50083C73500A301F50083D7450072
:104E70002312F50083C765002303F50083C775007F
:104E8000AA85A303F50022856244F24005616FE024
:104E90002F95F240624405618280397162CC2A8C80
:104EA000594526DA4AD84ED652D456D25AD05ECE7A
:104EB00006DE22DCAE8432C636C4BA8B3E8BC28A92
:104EC000468A8359010403494104EFE00F8625C94E
:104ED0003246930700FDA2462300F5009547A30143
:104EE000C500A30085012301F5002A841946110598
:104EF000A9C2B68597C0FF1FE78020B223066401D0
:104F0000230A240123157401231754012318440193
:104F100023193401A2856254F2504259B259225ADF
:104F2000925A025BF24B624C2685D25421616FE0AB
:104F30002F8B814597C0FF1FE780A0B1C1B7F2500A
:104F40006254D2544259B259225A925A025BF24BDD
:104F5000624C2161828097F7FF1F83C787A08DCBAA
:104F60004111AA8519461385C18406C697C0FF1F43
:104F7000E780A0AA9385C18417F5FF1F0345659EAE
:104F8000EFF05F8DB2401385C18441016F901066D0
:104F90000145828017F7FF1F0347B79C9307F00F67
:104FA0006305F708411126C2AA84294522C406C612
:104FB000EFD0BFF72A8429C1930700FD2300F50035
:104FC000A1472301F500A300950097F7FF1F9387E2
:104FD000279983C727009385C1841105A30FF5FE88
:104FE000194697C0FF1FE78040A3A28517F5FF1F52
:104FF00003453597EFD0DFFE17F7FF1F034767968E
:105000008D47631FF700938741869C4391CB03A391
:105010008700630703002244B240924441010283A7
:10502000B240224492444101828017F7FF1F034798
:1050300047938D47631AF700938741869C4389C73E
:1050400003A38700E31D03FC8280797122D406D676
:1050500026D24AD04ECE52CC094455CD2A8903558A
:1050600005002E8A5144EF602064AA844DC597F74D
:10507000FF1F83C7A7A1FD1793F7F70F0547494403
:10508000637BF7080347C500A1476314F700631467
:105090000A089C5C4544C1E39165938545711305FD
:1050A000C00297D0FF1FE780809888DCAA894D4412
:1050B0003DC11306C002814597C0FF1FE78060997C
:1050C000835709009386490036852391F90071467C
:1050D0009305490036C697C0FF1FE78000948947B3
:1050E0002380F90003C5C400B246035609006115C8
:1050F00097F5FF1F83C5459913351500EF80307F65
:105100002A8463060A00D2852685EF70500201C406
:105110002685EFF02FFB2285B2502254925402597B
:10512000F249624A4561828097F7FF1F83C707965D
:10513000FD1793F7F70F0547637AF708894741CAC8
:10514000011122CC26CA4AC84EC652C406CEAA892C
:10515000368AB2842E89EF6020552A84D14739C916
:10516000485509C597D0FF1FE7808099F1452685EE
:1051700097C0FF1FE780409048D4CD4705CD8346B8
:10518000C40021478147639FE600630D0A0003477F
:10519000A5010356050193062501AA854E85EF60FA
:1051A000706EAA8703474400630F09001367670006
:1051B0002302E400F2406244D2444249B249224A06
:1051C0003E850561828013674700DDB7C9473E858C
:1051D00082809307B00363EBA70097E7FF1F9387D5
:1051E000277A06053E9503550500828041657D15A9
:1051F0008280011122CC2A842E8526CA06CEAE8456
:10520000EF60804A1DCDB7470F009387F72309450C
:1052100063E4870281450A85414697C0FF1FE78006
:105220004083A685231081000A85418023018100E7
:10523000A3010100EF80104DF2406244D2440561A9
:1052400082804945D5BF97F7FF1F2380A7848280BE
:105250006F803062797152CC2A8A328522D426D26C
:105260004AD04ECE56CA5AC85EC606D662C4AE8B67
:10527000B28A368BBA843E89C2894684EF60C042C6
:1052800015C92A8C63140A0213774B008347450023
:1052900015CF93E727012302FC008DEC631C090264
:1052A000639A090205E8ED9B2302FC00832B8C0323
:1052B00063910B08B250225492540259F249624A47
:1052C000D24A424BB24B224C45618280F59B93E718
:1052D0000701D1B793E747002302FC0001CC1C482B
:1052E0004146A2852324FC0213058C0197B0FF1FC1
:1052F000E780A07263930B02D5D80325CC0209C5C1
:1053000097C0FF1FE780C07FF145268597B0FF1F3C
:10531000E78080762326AC0251BFE30909F8032514
:10532000CC0209C597C0FF1FE780807DF1454A8503
:10533000F1BF9DC483A70B0299EB916593853571ED
:10534000714597C0FF1FE780806E23A0AB0203A5C5
:105350000B0219C57146A68597B0FF1FE780E06B69
:105360006388090283A74B0299EB916593852571A8
:10537000594597C0FF1FE780806B23A2AB0203A5AE
:105380004B0219C55946CE8597B0FF1FE780E068EC
:105390001DC483A78B0299EB9165938515715145C7
:1053A00097C0FF1FE780A06823A4AB0203A58B0270
:1053B00019C55146A28597B0FF1FE78000662254A9
:1053C000B2509254F249B24B224CCA865A860259C4
:1053D000424BD6855285D24A624A45616FF0CFE989
:1053E000011126CA52C406CE22CC4AC84EC62A8A09
:1053F000AE84EF60602B25C5AA893945EFD0FFB296
:105400002A8431CD17E9FF1F0349895A6314090023
:1054100003C909009307000D2310F400AD472301D1
:10542000F4009385690013053400194697B0FF1FF7
:10543000E780A05E93F71400858085882306F4003A
:10544000A306940023154401A2856244F240D2448D
:10545000B249224A4A85424905616FD07FB8F2407D
:105460006244D2444249B249224A0561828093870C
:105470004185884301CD411106C697C0FF1FE780D3
:105480002068B24023AA01844101828082800111F8
:1054900006CE22CC26CA4AC82EC6EF60E02039CDFF
:1054A000B24517E9FF1F0349A950AA840CD563141C
:1054B0000900034905004145EFD03FA72A841DCDCF
:1054C0009307000D2310F500A5472301F50083C7BE
:1054D0005400938564001105A30FF5FE194697B09B
:1054E000FF1FE78080539C54A285F2405CC4624455
:1054F000D2444A85424905616FD09FAEF240624472
:10550000D244424905618280797122D406D62A8428
:105510002EC6EF60601901CDB2452285230EB10081
:105520006C08EF70403DB250225445618280514575
:10553000DDBF6F60002EC1671387E7FF6394E5024C
:10554000938701869C4391EB494582804945B2404F
:105550002244924402494101828003A30700E305EB
:1055600003FE0283411122C426C24AC006C6FD17AB
:105570002A892E84B2846395F502938701869C4321
:1055800091CB9C4381CB829711E5238A2187A38A03
:10559000918675BFA6854A85EFE0FFEA4DF9F5B71C
:1055A0002E85EF6060105DD1834705000D45E390C7
:1055B00027FB22852244B2400249A685924441013C
:1055C0006F9050001307B0036360A7064111C167D5
:1055D00022C406C626C2FD172A8409456382F50245
:1055E000C547AE846313F4022E85EF90B00417E52F
:1055F000FF1F1305E53806042A9423109400014583
:10560000B24022449244410182809307A003631672
:10561000F4002E85EF90807BD9BFE31AE4FC13F5EC
:10562000F50FEF90E07AE1B709458280011106CECF
:105630002AC6EFE07FE3EF20000EEF104059EF00A5
:10564000012F324597E7FF1F93878731130700F03B
:105650002391E700238207007D5797E7FF1F938779
:10566000A7422381E7002380A700F240954505610A
:105670006F40301F1D7193970501CAC886CEA2CC1A
:10568000A6CACEC6D2C4D6C2DAC05EDE62DC66DA94
:105690006AD86ED6C1872E8963DE075817E5FF1FCB
:1056A0000345853EEFD0DF8C8964416A856A797B4A
:1056B0002A84938BD4007D1AA50A130CABFF1DE03E
:1056C00021653345A900F6406644D6444649B649AB
:1056D000264A964A064BF25B625CD25C425DB25D42
:1056E00025618280834704001307200A639DE70039
:1056F0000355240097E9FF1F83C9B9262286D28566
:10570000EFF0AFA859A21307100997E9FF1F83C94B
:10571000C9376398E7188347140015476390E70279
:105720002285EFF00FAB2285EFD06FFD17E5FF1F4D
:1057300003458535EFD0DF832A8451B73947639B12
:10574000E71803554400631B55050C4483CC050042
:10575000639D0C00850591C9194617E5FF1F1305C8
:10576000A52197B0FF1FE780402B17E7FF1F0347D6
:10577000271F85476317F712638A0C0097E7FF1FFF
:105780002380071E6685EFF02FD871BF894717E782
:10579000FF1F2307F71CEF90206571B79387240044
:1057A000631AF506832C8400638D0C0E83C70C00EE
:1057B0008DE383C72C0003C71C00A207D98F17E70E
:1057C000FF1F2313F71A83C73C0017E7FF1FA30926
:1057D000F71817E7FF1F0347A71889476313F70C4C
:1057E00083C70C0081CB97E7FF1F238B071603C5E8
:1057F0000C0051BF8D4797E5FF1F83C5751617E550
:10580000FF1F0355651617E7FF1F230BF714EF4023
:105810005008F1BF938754006318F5001C4403C57A
:105820000700EFF02FF701B7B3078501C207C18367
:1058300011476372F7049307ABFCAA97139707010C
:105840004183F14763F1E7029387B4006312F504E3
:105850009387C1859C43E38807EC9C43A285E3843E
:1058600007EC82971DA0B70700189387F770B3D78E
:10587000E700858BB9CB938741869C43E38507EA94
:105880009C43E38207EA22858297E31E05E811A87C
:105890009387C4006310F5021C4483C70700E384A8
:1058A00007E89307F00FE380F9E8A2854E85EFD073
:1058B0002FF3ADBD9387E4006319F500938701864C
:1058C0009C43E38207E6DC4351BF93871404E30162
:1058D000F5F8C1BF3D476397E70403554400E30F64
:1058E00075FD93879401E30BF5FC93873401E31A6C
:1058F000F5FA97E7FF1F83D70707639E4701938752
:1059000001869C43E38107E2DC43E38E07E0A28546
:1059100013853401B9B7938781869C43E38507E0FB
:105920009C43E5B71307E003E39DE7F683472400B4
:1059300005476397E70E83476400938D4185F1E344
:1059400083A70D00D5CB83CC0700A1490345740084
:10595000130D8400EA85EFE07FF483474401A3033D
:10596000A400835804010358E400035744002A8626
:10597000034534003EC283572401EA86E6853EC0D3
:10598000CE87EFF08FD18347340095E7DD4783580A
:1059900004010358E40083467400835544003EC26A
:1059A000835724016A8705463EC06685CE87EF602F
:1059B0002004A301A40083A70D0081C71145EFF0C7
:1059C0001FAB03C54187E30005D683C55187EFE0D0
:1059D0009FA7E30A05D48346340093071003638A24
:1059E000F600035644004E8783C541873685EFE0B5
:1059F0009FBC238A018605BB97ECFF1F83CC7CF6F6
:105A0000A9B7938741869C4397ECFF1F83CC7CF515
:105A100091498DDFDC439DDB8145014582973DB790
:105A20002947639EE70A83476400138D4185C9EBCC
:105A300083270D00C9C383CC0700A1490345740027
:105A4000930D8400937725001376150089E7EE8582
:105A5000EFE0DFE42A8683470402A303C4008358EF
:105A6000C4010358A40103574400034534003EC257
:105A70008357E401EE86E6853EC0CE87EFF0EFC1A6
:105A80008347340095E7DD478358C4010358A401D8
:105A900083467400835544003EC28357E4016E87F9
:105AA00005463EC06685CE87EF509074A301A400E2
:105AB00083270D0019B797ECFF1F83CC9CEAB5BF75
:105AC000938741869C4397ECFF1F83CC9CE99149C7
:105AD000B5D7DC43A5D781450145829785B70947EE
:105AE000639DE7009387C1859C43E38E07C2DC4337
:105AF000E38B07C2228582973DB12D476399E7006A
:105B00009387C1859C43E38007C29C47D5B70D4767
:105B10006397E70022868D4503554400D5B61947A3
:105B20006395E7069305610113051031EFF0D06727
:105B30002C0813052031EFF03067035664008357BB
:105B400081010355440063E8C7008356840003576E
:105B5000610163F7E60093050002EF90A02CE1B627
:105B60006374E6002313E40063F4D7002314F40005
:105B70000357C4008356A400035684008355640071
:105B800001488147EF90C02979BE1D47E38BE7D0DC
:105B900031476395E7002286B145BDBF354763991C
:105BA000E7009387C1859C43E38F07B6DC4789B73D
:105BB00039476396E7002285EF007003ADB63D4795
:105BC0006399E7009387C1859C43E38E07B49C4BA0
:105BD00005B741476396E7002285EF00300BA1B679
:105BE00045476396E7000145EF00101A2DBE49476F
:105BF000639EE700938741869C43E38407CADC43A6
:105C0000E38107CA81450545829761B94D47639D88
:105C1000E700938741869C43E38507C8DC43E38222
:105C200007C8A2850945CDB76147E39CE7C6228630
:105C3000E145DDB593F7150081CF9387C1859C437E
:105C400089C7DC4399C30145829713451900A5BC58
:105C500093F7250089CF938741869C4391C7DC4306
:105C600081C781450545829713452900A9BC93F753
:105C700045000145E38907A4938781859C4399CF1B
:105C8000854717E7FF1F230FF7CC938741869C4377
:105C900091C7DC4381C781450545829797E7FF1F80
:105CA000938707CCC8472C08EF80A00D2808EFF099
:105CB0008FAA97E7FF1F83D7C7CE81CF1306006453
:105CC0003386C702914517E5FF1F0345E5DBEFD09B
:105CD000DF8613454900C5BA011122CC2A845545F7
:105CE00006CE26CAEFF0EFCEAA8413054002EFF0ED
:105CF0004FCE2AC613055002EFF0AFCDAA862285FB
:105D000062443246F240B3359000D24405616F9050
:105D10004017797122D406D68D472E84631FF50073
:105D200003D7A50083D6850003D66500034534005C
:105D300083D54500EFF0CF8509A889671387D70081
:105D40006310E50403C5250019E58547B2502254C8
:105D50003E8545618280938741859443FDD603C685
:105D6000360083C50600814802C202C0014881474F
:105D700001479106EFF06F920545EFF04FEFF1B755
:105D80001387E700E303E5FC13873701631AE50097
:105D900003C525005DD9014781460146814559BFAC
:105DA000E507E304F5FAB1476319F50017E5FF1FAE
:105DB000034535BBEFF0EF8849BF41677D17814749
:105DC000E316E5F803C75500C947E310F7F883D693
:105DD000E50003D6C5000355840083D5A500EF90E8
:105DE000C00A51C15D45EFF0CFBE3335A000231C82
:105DF000A10083454400035524003008EF50A07DE6
:105E000083578101B9F36C0813051031EFF0D039D5
:105E10009305E10113052031EFF010398357C101DB
:105E2000035784006374F7002314F4008357E101DF
:105E30000357A40063F4E7002315F400835584009E
:105E40008357A40063F4B7002315B4000357E4009C
:105E50008356C4000356A40003552400014881471B
:105E6000EF80107ADDB58547231CF10059B717E79D
:105E7000FF1F0347D7C19307F00F6309F70859C500
:105E8000411122C426C206C6AA840345A5004105C5
:105E9000EFD0AF892A8435C59307000D2310F50094
:105EA000D9472301F50083D744002312F50083C7A7
:105EB00064002303F50083C77400A303F50083C7C0
:105EC00084002304F50083C79400A304F50003C6EF
:105ED000A4002305C5001DC2CC44410548C497B0A9
:105EE000FF1FE78080B3A2852244B240924417E5A9
:105EF000FF1F0345D5B941016FD08F8E23260500C2
:105F0000DDB7B24022449244410182808280C16761
:105F10001387E7FF639DE500938741859C4395C305
:105F200083C707000D47639CA7006F80B06CFD1707
:105F300049476396F500938741859C43FDF73A8571
:105F400082804947EDBF79714AD01389C187832781
:105F5000090006D622D426D24ECE52CC56CA5AC8F2
:105F600081EF0545B250225492540259F249624AD7
:105F7000D24A424B456182800347050085472A8407
:105F80006301F70403468500930695009305E1003D
:105F90000545EFE06FF3814719C18347050083464C
:105FA000040011476387E6021387818718438D46F3
:105FB00003471700630FD70089CF01CF11E50145D3
:105FC00055B781470145E1BF8546631DD7048D8BD9
:105FD000FDD703451400130B2400DA85EFE01F8C76
:105FE000A300A400832709002A8A81499304F00FA3
:105FF000B1E3834604009147E383F6FC832709005D
:10600000DDDF03C6618701479305F00FE309E6FA78
:10601000BE84C10703C507FF6305B51005071377E5
:10602000F70FEDB78946E31CD7F8858B55B785097F
:1060300093F9F90F83C76187E3FDF9FA0325090096
:10604000939A4900569583470500E38297FE83475C
:106050001500E39E47FD1946DA85090597B0FF1F35
:10606000E780A0A469D58324090003470400D694DF
:10607000C9D09147631CF706C84405C5834784000F
:10608000034605006306F606034704009147631FB5
:10609000F706C84419C597C0FF1FE78060A623A66E
:1060A00004000345840091659385E571050597C05B
:1060B000FF1FE780C09705C50347040091476310A1
:1060C000F706C8C483478400930594000505A30F11
:1060D000F5FE0346840097B0FF1FE7800094034558
:1060E00084003335A000BDBD88C49DA8884471B725
:1060F00093059400050597B0FF1FE780009B854737
:10610000E314F5F85545EFF0CF8CBDA8884451D97C
:1061100097C0FF1FE780C09E23A4040059B788C41E
:1061200055B72380D40083471400DA8513852400F3
:10613000A380F400194697B0FF1FE780008E034547
:10614000840091659385F571050597C0FF1FE78071
:10615000008E05C5034704009147E317F7F8C8C44C
:1061600083478400930594000505A30FF5FE0346BD
:10617000840097B0FF1FE780408A83478400E39242
:1061800007DE034504007D1513351500E1BB797169
:1061900022D426D24ECE52CC06D64AD056CA5AC89F
:1061A0002A849309250003451500CE8593848187B1
:1061B000EFE0CFEEA300A4009C400D472A8A83C7DE
:1061C0001700639BE7001389C18783270900814A71
:1061D00063910718054535A0FDD7144C034674019B
:1061E0009305E1000545EFE02FCE1DC99840854697
:1061F0008347050003471700631FD7008D8BE1F726
:106200000145B250225492540259F249624AD24A8C
:10621000424B456182808946858BE316D7FAC5B724
:106220008347040011476385E7002D47E39AE7FCA5
:106230009384C1879C40E9D7814A01491DA88840C1
:10624000139B4A00834704005A95034705006311D6
:10625000F70283471500639D47011946CE8509055E
:1062600097B0FF1FE780608401C503A904005A9915
:10627000850A93970A0103C76187C183E3E1E7FCBD
:10628000E31309F4B5BF93944A002695034705002C
:1062900083470400631EF70A83471500639A470B80
:1062A0001946CE85090597B0FF1FE78000804DC1D4
:1062B000832709001147BE94834704006385E700E4
:1062C0002D47639DE70203AAC40083477401034678
:1062D0000A006308F602528597C0FF1FE7804082DC
:1062E0000345740191659385E571050597B0FF1F1E
:1062F000E780E07315E5E39F04ECADA003AA8400FA
:10630000E9B70C4C13051A0097A0FF1FE780E0794E
:106310008547E312F5FC5545EFE0BFEB69DDCDB5F0
:106320008347040011476385E7002D476390E70228
:10633000C8C4834774010505A30FF5FE0346740125
:106340000C4C97A0FF1FE780406D75B788C4D5B788
:10635000850A93970A0103C76187C1830325090052
:10636000E3E3E7F283C66187032709008147130649
:10637000F00F11A8BA844107834507FF638AC5005F
:106380008507C207C183E3E7D7FEA9B588C499A0F2
:1063900083470400CE85138524002380F4008347BF
:1063A00014001946A380F40097A0FF1FE780E06661
:1063B0000345740191659385F571050597B0FF1F3D
:1063C000E780E066E30805E0034704009147E31F28
:1063D000F7FAC8C4834774010505A30FF5FE034609
:1063E00074010C4C97A0FF1FE7802063E5B317D71B
:1063F000FF1F0347D7699307F00F6308F70851C5DC
:10640000411126C2AA84514522C406C6EFC0FFB17D
:106410002A843DC59307000D2310F500D5472301BD
:10642000F50083C73400938584002105A30DF5FE94
:1064300083D744001946231EF5FE83C76400230F4B
:10644000F5FE83C77400A30FF5FE97A0FF1FE7803A
:10645000C05C83C7E400A28517D5FF1F03453563E1
:106460002307F40083D704012318F40083C7240111
:106470002309F4002244B240924441016FC05FB648
:10648000B2402244924441018280828017D7FF1F8C
:106490000347F75F9307F00F6304F70431C141111D
:1064A00022C42A84194506C6EFC03FA8AA850DC597
:1064B0009307000D2310F500DD472301F5008357F6
:1064C00044002244B2402312F50017D5FF1F0345B4
:1064D000155C41016FC0DFB0B240224441018280AF
:1064E0008280011122CC1384C1871C4006CE26CAAB
:1064F0004AC84EC652C499CF2E8AAA840149084080
:1065000063129902630C0A0497B0FF1FE780405F93
:1065100023AE0186F2406244D2444249B249224A43
:106520000561828093194900B3073501884709C97D
:1065300097B0FF1FE780C05C1C40CE9723A40700E4
:106540001C40CE97C84709C997B0FF1FE780405B42
:106550001C40BE9923A60900050955B745DD1396D1
:106560004400814597A0FF1FE780A04E144081475B
:106570007D5613F7F70FE37F97F813974700369789
:106580002300C7008507F5B7011152C4138A81871C
:1065900083270A0006CE22CC26CA4AC84EC656C257
:1065A0005AC0C9CF2A89014419ED9387C187944302
:1065B00099CA03C661872A8481479305F00F13F7B0
:1065C000F70F6367C708131534002105EFC0FF9567
:1065D000AA8401E92145EFC05F95AA8421C5014441
:1065E0004D49930700FD2380F4008547A3802401D3
:1065F0002381F400A38184005DC41389840023A255
:1066000024018149938AC187130BF00F83C76187E7
:1066100063F3F90031E883270A00A68503C5070064
:10662000EFC01F9C814503C56187653D03250A00B6
:1066300097B0FF1FE780C04C23AC0186F240624454
:10664000D2444249B249224A924A024B05618280B1
:10665000139747003697034707006305B700050403
:106660001374F40F8507A1BF83A70A00939549000F
:10667000BE9583C70500638467032300F90083C7C1
:106680001500130529007D14A300F900194689059A
:106690001374F40F97A0FF1FE780203821098509A4
:1066A00093F9F90FA5B723A20400B5B793878187A3
:1066B0009C43B1C7411122C406C62A841DE1094585
:1066C000EFE03FB12A8601C9854517D5FF1F034575
:1066D000A53BEFC09FE60545EFF00FE02A84054596
:1066E00019C8854517D5FF1F0345053AEFD0EF8040
:1066F0002285593D0545B240224441018280014531
:10670000828089679386B7006316D5009C4503C5D0
:10671000070069BF9386C7006318D5009C4585466E
:1067200003C5070019C9F5B793861704E300D5FE22
:10673000938727048146E303F5FE368582807971CD
:1067400006D622D426D24AD04ECE52CC56CA5AC8E9
:106750005EC679C983473500AA8985C7404115C0FF
:106760005945EFE01FA7931A850193DA8A41014941
:10677000138A8187130B000DB54B83C73900636DF6
:10678000F900B250225492540259F249624AD24A54
:10679000424BB24B456182808307840263CD570729
:1067A00083270A00ADCB2285EFF0EFF92DC5034515
:1067B00084005105EFC06FF7AA8431CD2310650125
:1067C0002301750183470400194693052400A301A2
:1067D000F5008307840215052303F50083471400A1
:1067E000A30FF5FE97A0FF1FE78020230346840038
:1067F0002386C4001DC61385440188C893059400F0
:1068000097A0FF1FE780602183270A00A68503C5A4
:106810000700EFC0EFFC0509130494021379F90F88
:10682000A9BF23A80400CDB7938781879C43B1DB20
:10683000A13B2254B25092540259F249624AD24AC0
:10684000424BB24B014545616FF00FC9797106D6D5
:1068500022D426D24AD04ECE52CC56CA5AC85EC690
:1068600071C183473500AA8985C7444195C0594500
:10687000EFE03F96931A850193DA8A410149138A22
:106880008187130B00FDC14B83C73900636DF9008D
:10689000B250225492540259F249624AD24A424BAF
:1068A000B24B456182808387F40063C85707832712
:1068B0000A00A5C75145EFC04FE72A8439CD230010
:1068C0006501A30005002301750183C70400194673
:1068D00093852400A301F5008387F4001505A30622
:1068E000F50083C71400A30FF5FE97A0FF1FE780F4
:1068F000C01283C78400938594001305C400A305C8
:10690000F400194697A0FF1FE780201183270A0093
:10691000A28503C50700EFC0AFEC0509C1041379D8
:10692000F90F9DB7938781879C43BDD3EFF0DFC5F7
:106930002254B25092540259F249624AD24A424B0E
:10694000B24B014545616FF02FB95D7186C6A2C497
:10695000A6C2CAC04EDE52DC56DA5AD85ED662D41F
:1069600066D26AD06ECE630F0520834735002A8930
:1069700085CB404115C45945EFE0BF85931785018C
:10698000E1873EC6814493898187130A000DC94B74
:10699000354C9D4C294D994D8347390063E1F402F4
:1069A000B640264496440649F259625AD25A425B8E
:1069B000B25B225C925C025DF24D61618280830772
:1069C000C400324763CCE71083A70900638807102F
:1069D000034B040093770B01D5CBCD47631BFB061C
:1069E000230004002285EFF08FFA6DC9834704006D
:1069F0001147034574016368F70E5105EFC0EFD2EC
:106A0000AA8A69CD231045012301850103470400AB
:106A1000194693052400A301E5000307C4001505EA
:106A20002303E50003471400A30FE5FE97A0FF1F13
:106A3000E780A0FE034674012386CA0059C6138569
:106A40004A0123A8AA000C4C97A0FF1FE780E0FC96
:106A5000BDA8D5476318FB0085472300F400A30BAE
:106A6000040049B7F547E309FBFEC9476316FB007D
:106A700089472300F400BDB7C1476314FB008D476D
:106A8000CDBFED47E310FBF69147E5B793778B0059
:106A900099C3AD47F9BF93761B0093774B0091C61E
:106AA00099C395475DBFA147E9B793762B0099C677
:106AB00099C3A5475DB72300B4012DB781C7230053
:106AC000A4010DB72300940131BF23A80A0003A736
:106AD0000900D68503450700EFC08FD085047104F7
:106AE00093F4F40F55BD13050502EFC00FC4AA8A35
:106AF00075D52310450123017501834604001377E2
:106B00000B061946558FA301E500034714009305B2
:106B100024001505A30FE5FE97A0FF1FE780E0EF17
:106B200003478400194693051401A385EA0003472F
:106B3000940013853A012386EA000347A400A38644
:106B4000EA000347B4002387EA000307C400A387D1
:106B5000EA000357E4002398EA000347040123896D
:106B6000EA0097A0FF1FE78040EB03467401A38C67
:106B7000CA0011C613850A0223AEAA00E9B523AEE6
:106B80000A00B1B7938781879C43E38B07E0EFF05E
:106B9000BF9F2644B64096440649F259625AD25ADB
:106BA000425BB25B225C925C025DF24D0145616129
:106BB0006FF08F9297D7FF1F83C747EDA18B17D533
:106BC000FF1F1305E5E491E301456FD0BFA4238BBC
:106BD0000186FD5717D7FF1FA30BF7EA23AE0186E7
:106BE00023AC018697D7FF1F938747E11707000063
:106BF000130767B198C317070000130787B4D8C3FA
:106C0000170700001307C7C498C71707000013072A
:106C100007D4D8C717F7FFFF1307A72598CB97D737
:106C2000FF1F9387E7DE17F7FFFF1307872E98C331
:106C300017F7FFFF1307270ED8C38280411122C424
:106C400085452A8403C5618706C6EFF09F8997D7DB
:106C5000FF1F83C7A7E3A98BB5CB17D5FF1F13056C
:106C6000E5D9238B8186EFD09F9A1384C1871C407E
:106C700091C74D45B24022444101828003C56187DE
:106C800019E10145C5BF91659385B571120597B0AE
:106C9000FF1FE780C0D923AEA18661DD03C66187EF
:106CA0001206814597A0FF1FE780A0DA104083C637
:106CB00061878147FD5513F7F70FE374D7FC1397EE
:106CC000470032972300B7008507F5B70145238BAE
:106CD0000186EFD0DF9375B793878185884301CD17
:106CE000411106C697B0FF1FE78080E1B24023AC98
:106CF000018441018280828001111305700306CE58
:106D0000EFE02FCD2AC613058003EFE08FCC2AC415
:106D100013059003EFE0EFCB2246B245F240AA867E
:106D2000054505616F8020155971A2D413848185B2
:106D30001C4086D6A6D2CAD0CECED2CCD6CADAC80D
:106D40000545F9C79305F1041305F041EFD0B07381
:106D50009305F1041305F041EFD0F0728346F1047E
:106D600017D7FF1F0347E7BFB337E00091C289077A
:106D700018403EDE0345370093054700EFD09FAD36
:106D800018402ADC0D45834527002EDAEFE06FC45A
:106D90002AD81145EFE0EFC300402AD665450347E6
:106DA000A400034BB4003AD4EFE0AFC2AA84694513
:106DB000EFE02FC22A897145EFE0AFC1AA896D4586
:106DC000EFE02FC12A8A7545EFE0AFC0AA8A794566
:106DD000EFE02FC0E2046258F2572257B2564256F3
:106DE000D2551375F50F93FAFA0F137AFA0F93F938
:106DF000F90F1379F90FE1842ACC56CA52C84EC64E
:106E00004AC426C25AC0930844000545EF800003D7
:106E1000B650265496540659F649664AD64A464B09
:106E200065618280011122CC06CE8D472E846316C7
:106E3000F50603C73500E94703D545006318F70099
:106E400097D7FF1F83D727B26385A706EF40D005EA
:106E500009C5835764002317F5000357A400835620
:106E60008400035664008355440003453400EFD08A
:106E70003FF20357440097D7FF1F83D7C7AE63087D
:106E8000F7008547F24062443E8505618280FD57E8
:106E900017D7FF1F2319F7ACEDB78967CD07631D1F
:106EA000F50083C7250031476385E7004547E39A2E
:106EB000E7FCEFD0AFFCF1B7B1476319F50017D588
:106EC000FF1F0345B5BCEFD0DFF765BF41677D17F6
:106ED0008147E319E5FA83C655004947E394E6FA8A
:106EE00083C5450003552400300023140100EF4002
:106EF000606941BF03C7C1809307F00F6305F704C2
:106F0000411122C42A84114526C206C6AE84EFC0B0
:106F1000CF810DC5930700FD2300F5008947A3002D
:106F200095002301F500A30185002244B24092445C
:106F3000AA8503C5C18041016FC08F8AB240224437
:106F4000924441018280828079714AD0138981857F
:106F50008327090022D406D626D24ECE52CC4544F1
:106F6000C5EF97D7FF1F83C767B2958B4944CDC73D
:106F7000AE8991652386A180AA8493857571314578
:106F800097B0FF1FE780A0AA23ACA1844D4449C558
:106F900023009500A30005002946CE85090597A08A
:106FA000FF1FE78080A783270900914603C72700BA
:106FB00063EEE6083DEB4D472381E70003C727005A
:106FC000136707012381E700930571001305F04162
:106FD000EFD0704B83477100F9EB17D7FF1F0347C2
:106FE00047988D476315F70CEFD05F952C00EF6045
:106FF00050592800EFD03FF64545EFE08F9D014402
:1070000001CD130600643306C502914517D5FF1F55
:10701000034585A7EFC06FD22285B2502254925407
:107020000259F249624A4561828085466314D7005D
:10703000754759B789466314D7004947B5BF8D4690
:107040006314D70041478DBF5547BDB795464A8A5F
:10705000630ED70099466316D70009472381E700DE
:1070600031A01D466314C702238107006545EFE088
:107070004F969307F007E309F5F403270A008347C7
:10708000270093E707042301F7003DBF214663145F
:10709000C7000547E1B725466315C7002381D70020
:1070A000F1B7A9460544E319D7F6114745BFEFF0FC
:1070B000BFC72A8435D1EFF03FC2B9BF011126CA3C
:1070C000938481859C4022CC06CE4944A9C783C7BE
:1070D00007000D446391A704894517D5FF1F034599
:1070E000A59AEFC08FE1914517D5FF1F0345C599BC
:1070F00023900188EFC06FE09C4001478146A38048
:1071000087001306F100854785450145A307F10077
:10711000EF7030562A842285F2406244D2440561E1
:107120008280011106CE22CC26CA85476319F50656
:1071300083D70188B1CB17D7FF1F0347A78229E761
:107140001307B003636DF702894517D5FF1F034589
:10715000A593EFC08FDA9307006403D60188330646
:10716000F602894517D5FF1F03450592EFC0EFBC16
:1071700023900188F2406244D24405618280938763
:1071800047FC2390F188FDB7938781859C43FDD30D
:107190006244F240D24403C50700056105B79384F9
:1071A00081859C40E1DB97D7FF1F83C7278E918B9A
:1071B000F1D389476313F5062D452EC6EFB0FFD6F0
:1071C0002A844DD9B245930700FD2300F500E54719
:1071D000A30005002301F50083C7350015051946F6
:1071E000230FF5FE83C745009505A30FF5FE97A075
:1071F000FF1FE780808217D5FF1F0345358993075E
:10720000F00F6315F5009C4003C50700A28562449A
:10721000F240D24405616FB0BFDC894517D5FF1F2E
:1072200003458586EFC06FCD6244F240D24423907F
:10723000018805616FF05FAA97D7FF1F83C7078595
:10724000958B91CB9387C1889C4381CB85472381C4
:10725000F1886FF07FAA4945828041458280238171
:107260000188854501456F70904197D7FF1F83C7FF
:10727000E781958B638C07109307C01C63FCC700E4
:1072800009458280F2406244D2444249B2490945EC
:1072900005618280938781859C436389070E011174
:1072A0001305860022CC4AC8420506CE26CA4EC621
:1072B000368932844181B5C591659385657197A002
:1072C000FF1FE780C076AA8955DD938481888840B6
:1072D00009C597B0FF1FE780A0821385890023A00E
:1072E000A9002286814523A431899790FF1FE7805A
:1072F00040769C402286CA8588439790FF1FE7808E
:10730000C0719C40A286F240239287006244D2441E
:107310004249B249984305468D45054505616F7060
:10732000D03491659385557197A0FF1FE780207039
:10733000AA8929D993840189884009C597A0FF1F8C
:10734000E780007C1385890023A0A900228681455F
:1073500023A831899790FF1FE780A06F9C40228669
:10736000CA8588439790FF1FE780206B9C40A286C8
:10737000F240239287006244D2444249B249984382
:1073800005468D45054505616F70702E4945828023
:107390009307C01C63FCA700094582800945F240A1
:1073A0006244D2444249B249056182805DC50111FF
:1073B00022CC2A8421054EC64205AE89916593856B
:1073C000657141814AC806CE26CA97A0FF1FE78093
:1073D00000662A8961D593848188884009C597A071
:1073E000FF1FE780E071130589002320A900228692
:1073F000814523A421899790FF1FE78080659C40E9
:107400002286CE8588439790FF1FE78000619C40CD
:1074100023928700938781859C4385CF97C7FF1F61
:1074200083C7C766958B85CB938781889C4399CF0B
:10743000984383D647006244F240D2444249B2495D
:1074400005468D45054505616F703022014781462F
:10745000DDB70145A9B7494599B7938781859C4315
:107460008DC797C7FF1F83C76762958B8DC39387AF
:1074700081889C4381CB984383D6470005468D4540
:107480000545D9B701478146D5BF014582804945A9
:1074900082809307C01C63FCA700094582800945D0
:1074A000F2406244D2444249B249056182805DC5DE
:1074B000011122CC2A8421054EC64205AE89916570
:1074C0009385557141814AC806CE26CA97A0FF1FF1
:1074D000E780E0552A8961D593840189884009C5F0
:1074E00097A0FF1FE780C061130589002320A90032
:1074F0002286814523A821899790FF1FE780605548
:107500009C402286CE8588439790FF1FE780E050FD
:107510009C4023928700938781859C4385CF97C7A2
:10752000FF1F83C7A756958B85CB938701899C4303
:1075300099CF984383D647006244F240D2444249EF
:10754000B24905468D45054505616F7050120147EA
:107550008146DDB70145A9B7494599B7938781852C
:107560009C438DC797C7FF1F83C74752958B8DC319
:10757000938701899C4381CB984383D64700054676
:107580008D450545D9B701478146D5BF0145828064
:10759000494582809307C01C63F4A7000945828097
:1075A000797122D44ECE06D626D24AD0AE892A840C
:1075B00031CD21059165420593857571418197A073
:1075C000FF1FE780C0462A890945630109089384A3
:1075D000C188884009C597A0FF1FE7806052130546
:1075E00089002320A9002286814523A6218997901E
:1075F000FF1FE78000469C402286CE8588439790F7
:10760000FF1FE78080419C402392870093878185FC
:107610009C43014585CF97C7FF1F83C72747958B9D
:1076200049458DC76C001305D030EFE0E037B24715
:10763000014593F7070F99CB9387C1889C438D45EC
:107640000545944303D64700EF703003B2502254EF
:1076500092540259F24945618280938781889C4304
:1076600091CF03D647008C43411106C69790FF1F68
:10767000E780A03AB24001454101828009458280FD
:10768000938781889C4385C793870189984389475D
:1076900005C3035647000C43411106C69790FF1FD0
:1076A000E780A037B24081473E854101828089470B
:1076B0003E858280938781889C4385C79387C18854
:1076C0009843894705C3035647000C43411106C63A
:1076D0009790FF1FE7806034B24081473E854101AB
:1076E000828089473E85828097C7FF1F83C7073AFC
:1076F000918B99CF41111385418806C6EFC05FF287
:10770000B240FD5717C7FF1F231FF7244101828096
:1077100001456FC0FFF0FD572386F180238101886A
:107720002390018823A4018823A8018823A6018827
:1077300093878197170700001307E71C98C3170763
:1077400000001307479ED8C317F7FFFF1307075E14
:1077500098C717F7FFFF1307675AD8C797F7FFFFB8
:107760009387876C23A2F1888280411126C293847B
:1077700081859C4006C622C485CF2A840D45EFB082
:10778000CFFAAA8519CD930700FD2300F5008D4798
:10779000A30085002301F5009C4003C50700EFB05E
:1077A0003F8419C42244B240924441016FF0CFD2C9
:1077B000B240224492444101828079714ECE938935
:1077C000818583A7090026D206D622D44AD052CC7E
:1077D0008144A1C783C4170085472A896388F404BC
:1077E00097C7FF1F83C70718854485EB0D45EFB08A
:1077F000CFF3AA8505C1930700FD2300F50091474B
:10780000A30025012301F50083A7090003C5070094
:10781000EFB00FFDEFF04FCC8544B25022542685D7
:1078200002599254F249624A456182809387818865
:107830009C434E8A85E30145EFD0BF992A8601CA51
:10784000894517C5FF1F03452524EFB01FCF8327A8
:107850000A00B1A0944303D647009305E100054513
:10786000EFC09FE669D983470500858BE9D70545B9
:10787000EFD03F969307B0032A8463F2A7045D66B6
:1078800013060670894517C5FF1F0345E51F13043E
:1078900044FCEFB01FE22390818883A709000947C9
:1078A000A380E70097C7FF1F83C7C70B91C797C780
:1078B000FF1F2389070A95B74A85453DB9BF1306BF
:1078C00000643306C502A5BF411122C42A840D45B8
:1078D00006C6EFB08FE515C1930700FD2300F50044
:1078E000CD47A30085002301F5002244B240AA85BC
:1078F00003C5C18041016FB0AFEEB24022444101E7
:107900008280035745000111896706CE22CC26CA22
:10791000938667006319D7001C45014583C507009E
:10792000EFF04FDD2DA8938687006317D7001C4525
:10793000054583C50700EDB7938697006313D7020B
:10794000938781859C43014495C7184503450700EB
:1079500041E90547A380E7000545EF70604905440C
:1079600011A89386A700631DD7001C4503C5070017
:10797000A9352A842285F2406244D244056182807E
:1079800093866703E30AD7F893867703E301D7FA70
:10799000938687036319D704938481859C400144AF
:1079A000F1DB1C4503C5070005ED05447D452305B6
:1079B0008100EFD01F822316A10013050002EFD033
:1079C0005F819C40A305A1001307B100A38087003D
:1079D00074001306A10085450545EF70804941B745
:1079E000EFF0BFD8ADBF93869703E300D7F8938637
:1079F000E7036317D7001C45094583C507000DB78A
:107A00009387F703631DF7021C4503C507002DED9F
:107A10006C001305D030EFD03079B247414793F76F
:107A2000070FE38EE7F29305B10013056031EFD045
:107A3000B0770345B1008545EF7060440DB78967A5
:107A4000938707040144E317F7F21C4583C407003A
:107A500083C7218826858DEB0D45EFB00FCDAA8514
:107A60000544E30905F0930700FD2300F500D14725
:107A7000A30095002301F500938781859C4303C5EE
:107A80000700EFB0EFD5FDB58135D1BD411197C7E6
:107A9000FF1F83C7A7FF06C6958B89CB13858197E8
:107AA000EFC0BFB74D45B240410182800145EFC0F4
:107AB000DFB60145CDBF0145828083D705006387CE
:107AC000A70083D745006395A70091052E85828086
:107AD00083D78500A105E38BA7FE8145C5BF0DCDEA
:107AE000834725000547890793F7F70F6376F70269
:107AF000411122C406C62A8483550500034535007A
:107B00000147F9465D46EFF0203AF9572311F4009A
:107B1000B240224441018280828001458280938567
:107B2000B1819307000285462380F500FD57238D20
:107B3000F1802387F180A386F180239CD180239A52
:107B4000018823AC018823A4018A23AE018813860F
:107B5000018197570100938767AA5CC2238B018834
:107B600097A7FF1F9387C71909472300E6002380C3
:107B7000E7002388E7002380E7022388E7021757FE
:107B800001001307E7A6D8DB0D472384D700D0C731
:107B9000238CD700238CE70217550100130585A617
:107BA0001387C19817560100130646A49756010083
:107BB0009386C6A5D8DFC8C323950700D0CB239DE5
:107BC0000700CCCFD4D3238407022395070223A632
:107BD0000702239D0702170700001307670C97A7EA
:107BE000FF1F9387E71523A00700D8C323A407002E
:107BF0008280411106C6D13511C503452500B2402A
:107C0000410182800145E5BF411122C426C24AC01C
:107C100006C6AA842E8932844D3509E94165CA8594
:107C20007D15613DC54711C52310950023018500D1
:107C30008147B2402244924402493E8541018280FC
:107C400039E38948354763911605011106CE22CCE8
:107C500026CA034716000346060093C7F7FF22070C
:107C6000598EF18F32C69DE3C4452A84A6855137CB
:107C700032460147630EA60022856244F240A68583
:107C8000D244056151B72D473A8582801307000819
:107C9000F2406244D2443A850561828083C805007F
:107CA00009486394080303A8450083471800034864
:107CB0000800A207B3E70701C2070D68C1871308D0
:107CC0002890639407018947A5BF0545828003C7B3
:107CD000E1809307F00F630AF70441114AC02A8933
:107CE000294522C426C206C63284AE84EFB0EFA373
:107CF0001DC59307100B2310F50023020500231464
:107D0000850022442311250123139500B24092449B
:107D10000249AA8503C5E18041016FB06FACB24052
:107D2000224492440249410182808280411126C24C
:107D3000AE849385C19822C406C62A845D3D098914
:107D400009C922852244B240A685924441016FF0C0
:107D5000C043B24022449244054541018280411112
:107D600022C426C24AC006C6AA84130445001309C9
:107D70000504835704009DC3084409C597A0FF1F4D
:107D8000E78000D82285314681459790FF1FE78024
:107D900040CC3104231A04FEE31D24FDB2402244EA
:107DA000FD572390F4000249924441018280938759
:107DB000018A9C4303D707006300A70283D6070408
:107DC000138707046388A6001387070883D707086B
:107DD0006396A7003A8582803E87EDBF0147DDBFED
:107DE0009387818A9C4399C703D74700E31CA7FE6A
:107DF0008847828001458280411106C6D53709C572
:107E00000845B240410182800145E5BF011126CA03
:107E10009384450022CC4EC606CE4AC852C456C2F0
:107E20005AC026878149014481468147154503563A
:107E3000070055CED9E20354470083572700B28686
:107E4000A297C207C18385093107E392A9FE25C81D
:107E50002E89916593854570228597A0FF1FE78045
:107E600000BD2A8B29CD814A014A8C4485C503D6A1
:107E7000440033054B019790FF1FE78000BA83D77A
:107E8000440088443E9A420A135A0A0197A0FF1FF1
:107E9000E78000C763890A003146814526859790AF
:107EA000FF1FE78000BB850AB104E3E03AFD23260B
:107EB000690123148900054521A0630DD600014501
:107EC000F2406244D2444249B249224A924A024BA9
:107ED0000561828003562700E313F6FE0356470030
:107EE0003294B2974204C2074180C183A9BF0545BD
:107EF000E37835FDA9BF9387C1899C4399E3014588
:107F0000828098470357A700E319A7FE138547000F
:107F10008280411106C6C53711C503550500B24020
:107F2000410182800145E5BF411106C6E93711C50F
:107F300003452500B240410182804145E5BF411122
:107F400022C42A842E8506C6C537AA850546228501
:107F5000EF30C07895476305F500BD476313F50022
:107F60002145B240224441018280411122C42A8429
:107F7000090506C6EFF06001FD57A301F400B24009
:107F80002244410182809387418A9C4303D70700A2
:107F90006300A70283D66700138767006388A60083
:107FA0001387C70083D7C7006396A7003A858280EE
:107FB0003E87EDBF0147DDBF411122C4416406C6C3
:107FC00026C29307E4FF630CF500AA8491ED653F98
:107FD00019E51305F4FF453F19C123109500B24080
:107FE000224492444101828085476392F504613FB7
:107FF0002A8475D5FD572310F50083472400130705
:10800000F00F6383E7021307E00F638AE70003457D
:1080100034000147F9465146A685EFE0F068228515
:10802000A937FD572301F400230204004DBF8947FF
:10803000E397F5FA8545EF30900A55F12685A1378B
:108040002A8445FD69BF5D71A6C24EDE86C6A2C404
:10805000CAC052DC56DA5AD8AE8483C52500F94727
:10806000AA896394F50405372A8409ED0144228521
:10807000B640264496440649F259625AD25A425BA7
:1080800061618280834725000547890793F7F70FD1
:10809000E37EF7FC034535000147F9460146CE85EE
:1080A000EFE090602285D135D1B783AA0400B707ED
:1080B0000001938707F037071200B3F7FA001307A0
:1080C0000710328A6389E7022EC6753D2A89B245B8
:1080D00005C5034645000DC293178601E187E3C736
:1080E00007F84E85EFE090648347490093E707F86F
:1080F0002302F900A5BF014903C7A1819307F00F2F
:108100001944E306F7F6E147E3E3B7F693D7150022
:10811000FD178E07174701001307C7FEBA9703A87C
:108120000700E30608F403AB4700E3020BF4C20ABE
:1081300093DA0A0163850A00C947E39AF5F283D608
:108140004400904483C5140003C504003808029815
:108150002A8411FD2C084E85029B2A8421C983C7DD
:108160001400E39607F083C72400230AA1003947CF
:108170002308F1006399E70262478347170003472A
:108180000700A207D98F0C084E852319F100EFE0F4
:108190002005E30D05EC14080546D9454E85EFE0B2
:1081A000F0642A84E9B583578101F1BF83C62400B6
:1081B0009147E38DF6EA38080146CE8503C5A181D3
:1081C000EFE0904E2A84E31405EA83C524002808D2
:1081D000EFE0B04519C123000A009840B70700013D
:1081E000938707F07D8FB707120093870710E30F7F
:1081F000F7E6E30D09E683C724002302F90085BDF5
:10820000011106CE2EC6EFF01FD801CD83474500E1
:10821000B245138717006396E50093F707F823022A
:10822000F500F240056182809387C189984319E384
:10823000014615A81C4703D8A700636B05018358A6
:108240004700B38608016355D50081466394160143
:108250001843F1BF3E86C10703D3A7FF6317A300EE
:1082600099C123900501328582808506C206C182AC
:10827000F1BF397152D42E8A4ED69305E101AA89F5
:10828000528522DC4AD856D206DE26DA328936C634
:108290003AC4BE8A513F054435C5AA840355E1015D
:1082A0003944EFF0FFB339CD03284500630C0804CF
:1082B0002247B246D6874A86A6854E8502982A84EA
:1082C00031E19307E00F638FFA0203C70400894787
:1082D000631AF702D8408347170003470700A20735
:1082E000D98FC2070D67C18713072790639CE700EA
:1082F0008347190003460900D285A2075D8E4E858B
:10830000EFF0FF9C2285F2506254D2544259B25988
:10831000225A925A21618280797122D40354250015
:108320004ECEAA89228556CA06D626D24AD052CC2B
:108330005AC85EC662C4AE8AEFF07FA701E9228503
:10834000EFE0A03A594421E90144B1A003C78900F4
:108350008547AA8401446319F702AA851385890019
:10836000EFF0DFAA21CD03D7640083D68400D04488
:1083700083D5440003D52900E147E53DD9472A8448
:108380006318F50223A604002685EFF05F9D49C01F
:10839000D947E30BF4FA2285B25022549254025981
:1083A000F249624AD24A424BB24B224C456182802A
:1083B00061DD83D744002390FA00F9B713894400A4
:1083C000014A914B594C154B83550900D5DDE147C6
:1083D00063067A010357C90011C3D947035729001F
:1083E000835649000326890003D52900EFF07FE872
:1083F0002A846319850123240900050A3109E3153C
:108400006AFD59B77DD9835709002390FA00F5B763
:1084100003D5290035B7797122D42A840355850004
:1084200026D2AE849305210106D64AD0EFF0DFDFD5
:108430006308050E8347850093F7070295CF2AC688
:1084400003552101EFF05F9BAA87B24501ED8357E9
:10845000840039452390F400B250225492540259BA
:1084600045618280035524004946829711C5835790
:1084700084002390F400CDB7035924004A85EFF01F
:108480001F9311ED41657D15EFF07F9219E583573C
:10849000840025452390F400C1B72310250113075C
:1084A000450081479546035607002DE63147B387BF
:1084B000E702130984003146CA8591073E959780EB
:1084C000FF1FE78080553146CA8548089780FF1F07
:1084D000E780A0540356C400035524004147814659
:1084E000DD45EFE0103C2ACE19E583578400454571
:1084F0002390F40095B70C480356C4009780FF1FE3
:10850000E780A051035524004C08EFE0C01929D59D
:10851000594599B785073107E397D7F8254581BFB6
:108520000545B1B7797122D42A840355850026D236
:10853000AE849305E1014AD006D63289EFF0DFCE52
:1085400051C58347850093F70702A9E70347140144
:108550009307200519E3834744008356A400504441
:1085600083558400035524000147EFF09FD0AA876C
:1085700021E98347140199E703552400EFE0C00D7A
:10858000D94711E18147B2502254925402593E8595
:10859000456182802AC60355E101EFF0FF85AA8775
:1085A00005C9B2450355240049468297AA8759DD7B
:1085B000035784002390E4000347140161F7E1B7F7
:1085C0005947E317E5FE230009006DBF8547CDB786
:1085D000B947F9BF397122DC4AD84ED652D406DEEB
:1085E00026DAAA892E8A32C63689EFF0DF99094445
:1085F00015C5834725001307E00FAA845D44638FE8
:10860000E7001307F00F5944639AE700324605E28A
:10861000D2854E85EFE0200E2A8415CD2285F250BA
:108620006254D2544259B259225A21618280035570
:108630000A009305E101231F0100EFF0FFBE03557F
:10864000E101EFF07F8EAA8505464E85EF300009E7
:108650002A845DDDE1B79307F00FE301F9FC93860F
:1086600024007946A68517F5FFFF13058547EFE03F
:108670001011A38124015DB739719387C18926DA6E
:10868000844352D45AD05ECE62CC06DE22DC4AD875
:108690004ED656D266CA2A8BAE8B328C368A99E079
:1086A0008149B9A0804483DC44000149835AA40075
:1086B000631499018440E5B78357A400A28963F845
:1086C000670105094209135909014104D5B7E3EAD5
:1086D000FBFE630C0A00834504004840D286628694
:1086E0003AC6EFD0100A324769DD19C3231057018B
:1086F000F25062544E85D2544259B259225A925A7B
:10870000025BF24B624CD24C2161828003D70500A0
:1087100083D62500854763E9E60439C7411183C63E
:10872000450026C29384550022C426862E84174510
:108730000100130525ED894506C6EFD09004C14719
:1087400011CD83464400835524000355040001479E
:108750002686EFF07FF2814711E1A947B24022441B
:1087600092443E85410182803E8582802E8603555B
:10877000060083D52500854763E2A50205C183462F
:10878000460041110147150606C6EFF0FFEE81478E
:1087900011E1A947B2403E85410182803E85828039
:1087A0002E860355060083D52500854763E2A50282
:1087B00005C18346460041110147150606C6EFF084
:1087C000BFEB814711E1A947B2403E85410182805C
:1087D0003E85828039714ED683D7250083D9050026
:1087E00006DE22DC26DA4AD852D456D25AD05ECEE1
:1087F00062CC66CA6AC863E037198547638E09147C
:10880000416BAE8A2A8A2314010002C60144014941
:108810007D1B894B054CC94C054D83D52A0001476A
:10882000814601464E8523130100EFF0FFE4AA8440
:108830006300051209EC13072002930661005A86B3
:1088400095455285EFE0F0052A8463080512035729
:10885000810083C7040045C70347A100630CA70735
:1088600041476385E7022C005285EFD0D02C09CD1B
:1088700034001546D9455285EFE0407711C53245A1
:108880009790FF1FE780C0278147F9A083D7A400F6
:108890004146130524002300F40083D7A400A183DC
:1088A000A300F400CC409780FF1FE7800017490425
:1088B000835781008507C207C1832314F10063F940
:1088C000270983D7A400638567098509C20993D95D
:1088D0000901A1B7E39977F983D7A40009461305E5
:1088E00024002300F40083D7A400A183A300F40094
:1088F000CC409780FF1FE7804012110455BF22C66D
:108900000359610003C7A4001305240063827703A1
:1089100033599903230571012300E40083D7A40090
:108920004146A183A300F400CC401379F90FA5BF01
:10893000230581012300E40083D7A40013592900F3
:108940001379F90FA183A300F4000946CC4055B771
:108950008357810089FBA947F2506254D25442598F
:10896000B259225A925A025BF24B624CD24C424D9F
:108970003E85216182808547C5B7C547F1BF13F7A2
:10898000050201C7B2856FF08FDB411126C24AC0D4
:1089900006C622C413F98500AA8463170900139739
:1089A00085016187635D070232853684EFF0CFD79A
:1089B000AA8505466313090001462685EF2010525B
:1089C00001E90145B24022449244024941018280BA
:1089D00083479400E5DB83478400E5F7E5B793F729
:1089E0002500E5F30D45F9BF7971AE8622D42A84BE
:1089F00003D506009305E10106D636C6EFF0DF8207
:108A000001CD83458500B2460356E1012285853FAD
:108A1000B2502254456182800545DDBF13F705023F
:108A200001C7B2856FF0AFD1411122C426C206C67C
:108A300093F485002A8491E413978501618763503C
:108A400007023285EFF04FCEAA85054691E0014638
:108A500022852244B240924441016F20304893F76E
:108A60002500014591E30D45B24022449244410165
:108A700082807971AE8622D42A8403D506009305BC
:108A8000E10136C606D6EFF02FFAB24619C9834582
:108A900085000356E10122855137B25022544561C9
:108AA00082800545DDBF797126D2AA840355A500D1
:108AB000C16722D44AD04ECE06D623170100FD1737
:108AC0003284B6890149630DF500050583C60400AB
:108AD000D04042051307E1004181EFF0FFB92A8938
:108AE00083C60400D040894517450100130585B1B0
:108AF000EFD020491DC503D4A4002285EFF06FC13B
:108B000009C57D142A94420441806384090023909E
:108B10008900B25022544A8592540259F249456163
:108B2000828083C60400D0408945174501001305A3
:108B3000A5ADEFD0004561F183C60400D040894562
:108B400017450100130585AAEFD0A04319C9E30614
:108B500009FA8357E100E39287FA0354A9007D14D0
:108B60005DB703D4A40055B7397122DC26DA4AD8A0
:108B70004ED652D456D25AD062CC06DE5ECEBE89D4
:108B800083C785002A8AAE84C18B328C36843A89A9
:108B9000C28A468B9DE783CB04008947638BFB0425
:108BA0006285EFF0EFA31DC18328050063800802F2
:108BB0005A88D6874E87CA862286A685528582988D
:108BC00039A03285EFF04FA3AA8711ED3945F25055
:108BD0006254D2544259B259225A925A025BF24B11
:108BE000624C216182802946A6855285829745D5AF
:108BF000F9BFD8408347170003470700A207D98F62
:108C0000C2070D67C187930607906384D72263CE9E
:108C1000F60693062780638ED70C63C1F60213070E
:108C20000780E3CFE7F62D45E39309FADC4403C65A
:108C30000700CC432310C900228569A2130737809F
:108C4000E390E7F62D45E39409F885472310F900F2
:108C5000DC44814583C707002300F40003D5A4004A
:108C6000050542054181EFF02FDC835709006317AA
:108C7000051291072310F9001146814513051400D0
:108C80009780FF1FE780E0DC29A29306279063838B
:108C9000D71863CED71293063790638CD718130773
:108CA0004790E39FE7EE2D45E39309F2DC441D472F
:108CB0002310E90003C707002300E40003C71700DF
:108CC000A300E40003D727002301E40003D7270013
:108CD0002183A301E40003C747002302E40003D774
:108CE0006700A302E40083D76700A1832303F40095
:108CF0004DA02D45E39D09ECDC446C0083C91700B1
:108D000003C70700A209B3E9E90011472310E900EE
:108D100083C707004E852300F400DC4483C7170097
:108D2000A300F400EFF04FD0AA8435C50356C1006C
:108D3000C1659306E100FD158329C500EFF0BFD69C
:108D400019ED83C60400D04089451745010013057D
:108D5000A58BEFD0002301E5FD572317F10003C7D2
:108D6000090089476310F70283A5490009461305E6
:108D700044009780FF1FE78040CA83570900890796
:108D80002310F9008357E1002301F400A183A3011C
:108D9000F40001452DBD23173101EDB70347050050
:108DA0008907BA972310F9008357A500A300F400A0
:108DB0008357A500A1832301F400034605004C411D
:108DC000130534009780FF1FE78020C5D9B7C8443A
:108DD0009780FF1FE78000C993170501C1832A8789
:108DE0001D45E3E637DF6399F90023100900CC4401
:108DF00003560900CE9589B54207B3863A014183EF
:108E000063C7E600B38737412310F900CDB72310BD
:108E10005901F1BF2D45E39C09DACC445285EFE0BE
:108E20005FDD231079012300A4002181A300A400A9
:108E30008DB72D45E39D09D8DC442310790183C704
:108E400007002300F400DC4483C71700A300F400EC
:108E500089B75D71CAC02A89035525004EDE52DCF0
:108E600056DA5AD85ED662D466D26AD06ECE86C63C
:108E7000A2C4A6C22E8BEFD0C024130CF5FF931D05
:108E80000C01C16BAA8A8149138A819993DD0D0176
:108E9000938C8189138D4189FD1B8357C90063F62B
:108EA000F90083D7819963CC870103552900938505
:108EB0008199EFD0E06EAA841DCDD9442DA88327D7
:108EC0008900139719009305E100BA9703C41700AE
:108ED00083C7070022045D8C2285EFF0EFB4AA85DA
:108EE0001DE923108B0003254A00854409C597908E
:108EF000FF1FE780E0C0B640264426850649964419
:108F0000F259625AD25A425BB25B225C925C025DB9
:108F1000F24D616182808348490083A60C000356AC
:108F2000E100035529006E8881476A87EFF0DFC3AF
:108F3000AA8411C523108B0003254A0045BF83274F
:108F40004A0085E303552900514781465E86BD45A9
:108F5000EFE0201523AEA19809E523108B00C5444E
:108F600059BF83D7819903D741893E9763475701FA
:108F700013C7F7FF5697239AE18803254A0083A574
:108F80000C0003D641893E959780FF1FE780E0A83B
:108F900083570A0003570D008509C209BA97239C1D
:108FA000F19893D90901D5BD397122DC2A84035582
:108FB000250006DE26DA4AD84ED652D45AD05ECEE6
:108FC00062CC66CAAE8B56D2EFD0A00F2A8A8346F7
:108FD000C4008355A4000355840078001306D40010
:108FE000930CBAFF651AEFF02FE9420A416B2A8908
:108FF0008144135A0A01138C8189938981997D1BBD
:109000006302090463D094058348440083260C005E
:109010000356C100035524005288814713874189B4
:10902000CA85EFF07FB415C5814A0356C100835548
:10903000A4004A859306E100EFF0FFA62A89639B0E
:109040000A065DFDF1EC8357840029452390FB005F
:1090500081A00356040183D74189E317F6FC8325D9
:109060000C0048489780FF1FE78020A455DD83A7A8
:10907000490095EF03552400454781465A869D4592
:10908000EFE020021DE18357840045452390FB005B
:10909000F2506254D2544259B259225A925A025B47
:1090A000F24B624CD24C2161828023AEA198835A4C
:1090B000A900A5BF83A74900A697238057019387DE
:1090C00014001397070183A74900418393DA8A00AC
:1090D000BA97238057011387240083A649009387FA
:1090E0003400420791044183C207C204C183C18096
:1090F000369711CD8356E1002300D70003A749001E
:10910000BA970357E10021832380E700D5BDFD56C0
:109110002300D70003A74900BA972380D7001DB7C3
:1091200003552400898093858199239C9198EFD0E1
:10913000202D39DD5945A9BF411122C406C693F738
:1091400005012A84328585C3EFE01FDEAA85054626
:109150002285EF20A05895476305F500BD47631DA4
:10916000F502214515A893F7450099CBEFE0DFDB29
:109170000546AA8522852244B24041016F2000564F
:1091800093F7050489C7EFE03FDA0146DDB713F531
:109190001500133515000605B240224441018280B6
:1091A00079714AD04ECE52CC06D622D426D22A8A03
:1091B000AE89014983D749006364F9000145A1A044
:1091C00083A7090013141900930414003387970030
:1091D00003470700A29703C5070022079305E10094
:1091E000598DEFF06F8405E983A7090005453E948A
:1091F000034704002380E70083A70900BE9403C748
:109200000400A380E700B250225492540259F2495C
:10921000624A45618280834585000356E10052859C
:10922000EFF09FF105C183A709003E9403470400B6
:109230002380E70083A70900BE9403C70400A3802E
:10924000E700D1B70509420913590901A5B7011172
:1092500022CC2A8403D505009305E10006CEEFE079
:10926000BFFC01CD834585000356E1002285EFF068
:10927000BFECF2406244056182800545DDBF397173
:1092800026DAAA840355250006DE22DC4ED652D407
:1092900056D25AD05ECE62CC66CA6AC82E8A4AD8E6
:1092A000EFC03062AA8A83C6C40083D5A40003D568
:1092B0008400138CAAFF78001386D400EFF0CFBB94
:1092C000420CC16CAA890144135C0C01138B4189C7
:1092D000938B8189FD1CED1A138D8199638F091879
:1092E0000356C10083C5890003D52400EFF0DFE4F5
:1092F0002A89631F051683C8440083A60B00035602
:10930000C10003D524006288814713874189CE8537
:10931000EFF09F852A89631D05141DC803D7418975
:10932000110783D7A1996395E700A29763C65707F2
:1093300083D7A1993354F40203D5240093858199EE
:10934000239C8198EFD040292A891DC159490DA03D
:1093500003D52400494781466686C545EFD0705441
:1093600023AEA1980DE583D7A90045492310FA0043
:10937000F25062544A85D2544259B259225A925AF2
:10938000025BF24B624CD24C424D2161828083578A
:109390000B009107239DF19883274D0003D7A90067
:1093A0009306E100A2972380E70093071400139728
:1093B000070183274D0041834E85BA9703D7A90043
:1093C00021832380E7000356C10083D5A400EFF07A
:1093D0008FED1307240083264D00930734004207C6
:1093E00011044183C2074204AA89C1834180369790
:1093F00039E1FD562300D70003274D0083A50B005C
:10940000BA972380D70003254D0003D641892295C2
:109410009770FF1FE780606083570B003E94420403
:109420004180E31704F083D784002310FA00E3118E
:1094300009F4294935BF8356E10083A50B002300B9
:10944000D70003274D00BA970357E10021832380FB
:10945000E70003254D0003D6418922959770FF1F31
:10946000E780A05B83570B003E9442044180BDB56A
:1094700083D7A9002310FA006DB701495DB75D716C
:10948000A6C2CAC0AA840359850003552500A2C4F8
:109490004EDE56DA5AD85ED662D466D26AD086C616
:1094A00052DC6ECE2E8BEFC0D041930BD5FF7115E1
:1094B000931905010144138DD40093D90901138C2C
:1094C0004189938C8189938A8199635C741383C6E3
:1094D000C40083D5A4001307E1006A864A85EFF033
:1094E000AF99AA8D630F05100359A5008345850028
:1094F0000356E10003D52400EFF01FC463180510E4
:1095000083C8440083A60C000356E10003D5240061
:109510004E88814713874189EE85EFF0EFE46317AA
:10952000050E1DC483D7418903D7A1998907630418
:10953000F70683D7A1993354F40203D52400938509
:109540008199239C8198EFC0707515C1594505A07C
:1095500003D5240041664D4781467D16A545EFD0D1
:10956000503423AEA1981DE123102B014545B64090
:10957000264496440649F259625AD25A425BB25B7B
:10958000225C925C025DF24D6161828083570C0027
:109590008907239DF19883D74189A29763D37707E1
:1095A00083A74A0003D7AD00130A2400A2972380A3
:1095B000E70005049317040103A44A00C183420A8B
:1095C0003E9483D7AD0083A50C00135A0A01A183F2
:1095D0002300F40003A54A0003D6418952959770F1
:1095E000FF1FE780804303540C00C167FD175294AE
:1095F00042044180E30BF9EC0509420913590901C2
:10960000E9B529451DF423102B0195B76DDC15B77D
:1096100041677D176310E5027D572390E5002381A4
:1096200005002392E500238305002394E5002385AC
:1096300005008280411106C6EFE02FC811C5FD5715
:109640002310F50023010500B24041018280011181
:109650004AC806CE22CC26CA85472A896393F504D8
:109660004A85EFE0CFF439E9C1649385F4FF13072D
:10967000E100894617360100130686F70545EFE03D
:10968000BFFF2A84FD140DC44C444A85EFF05FF8F7
:109690000356E10022858146A685EFF0CFC02A84DB
:1096A000DDB789476396F5008545EF2040234DD906
:1096B000F2406244D244424905618280EFE02FEAE1
:1096C00065B791654111938515701305200D06C688
:1096D0009780FF1FE780A03523A0A18AAA87930661
:1096E000050C7D572390E7002392070023A607006F
:1096F0002398070023AC0700239E070023A207023C
:109700002394070223A80702239A070223AE070225
:1097100093870704E398F6FC23A2D18AF957231311
:10972000E50C2314E50C2316E50C2317E50C231098
:10973000F50C2311E50C2305050C2308050C230269
:10974000050C17F5FFFF13054590EFD0900F17F5A7
:10975000FFFF130525ABEFC0700917F5FFFF1305D9
:10976000E585EF20000FB2400145410182800111E3
:1097700006CE2AC6EFD0E02CEFE06FBA32457D5717
:10978000A386A1809387C1982381070023830700C4
:1097900023850700F2402390E7002392E7002394FB
:1097A000E700238DA18017050000130585EA0561F8
:1097B0006F20200A93970501C18763D20732797120
:1097C00003C5D18022D452CC06D626D24AD04ECE62
:1097D0002E8AEF90EFF92A8421C9034705009307E9
:1097E000000B6310F7048547A304F1009387818978
:1097F0009C4323150100A1E7EF00007B9165938551
:1098000035709780FF1FE780802223ACA18805E98F
:109810008347910099C78345440013058400EFD026
:1098200010202285EF90AFEDB250225421653345D0
:10983000AA0092540259F249624A45618280614607
:109840008145138581999770FF1FE7808020034928
:1098500044008947938981996313F906EF00C07426
:10986000239CA19803552400CE85EFC030280357D0
:10987000240083D781998356840011ED63E4F600B8
:109880002314F400835584003A85EFD0E07B2285D1
:10989000EFD0C072B5BF63E4F6002314F400835721
:1098A0008400D9450D46239CF198938681993A8589
:1098B000EFD0C0738D4561DD13858199C1A09947B3
:1098C000631AF9029305A1002285EFF0EFEDAA8457
:1098D0005DDDD9476395F40E05090355240013791E
:1098E000F90FD945938681994A86EFD02070CA85B1
:1098F00059DDD9B7A1476318F9009305A100228566
:10990000EFF0FFB7E9B7A947631DF90603558400D7
:109910006C00EFE07F91AA846309051403552400CD
:1099200041669306E10055477D16AD45EFD060775F
:1099300023AEA198AA863DCD834844000358E10098
:109940000356C10003552400A68581474E87EFF0DA
:10995000AFA1AA84631A050E03552400CE85EFC07B
:10996000D039E30605F203552400CE862D46D945AD
:10997000EFD0C067E30D05F0AD454E85EFD0300A5E
:1099800039B7B1476319F90E035584006C00EFE055
:10999000BF89AA84630B050C035524004166930616
:1099A000E10059477D16B545EFD0A06F23AEA198D1
:1099B000AA8629E983578400C5442315F10003478B
:1099C0001400D147E305F7EC834744000355240016
:1099D00093858199238CF1988357A100239DF19859
:1099E000238E9198EFC0C07FE30305EA035524005E
:1099F000938681990546D945EFD0405FE30905E894
:109A000085455DBD834844000358E1008357A400A9
:109A10000356C10003552400A6854E87EFF0CF946E
:109A2000AA841DE103552400CE85EFC0D032E300A7
:109A300005E603552400D945CE863546EFD0005BB8
:109A4000B545E30605E48DBDD9476393F400814431
:109A500003A549009780FF1FE780800AE38904E29D
:109A6000835784002315F10099BF835784008544F0
:109A70002315F100A9B7B9476318F9009305A100B0
:109A80002285EFF00FBDA1B5C1476318F90093051A
:109A9000A1002285EFF0AFFE1DBDC947631AF90092
:109AA000130691009305A1002285EFE0BFA705B53D
:109AB000D947631DF9009305A1002285EFE0BF950A
:109AC000AA84E31805E0A3040100D1B3E147E31041
:109AD000F9DC9305A1002285EFE01F84CDBB014591
:109AE0008280E9CE011152C42E8A854522CC4EC611
:109AF00056C206CE26CA4AC8AA8AB6893284EF1050
:109B0000105ED14715C183C7418B83C6518B8144F9
:109B100019E0B684BE861387C18A18439397440020
:109B2000BA9763EDD400D547F2406244D24442492B
:109B3000B249224A924A3E85056182803E89C10728
:109B400003D727FF09C7850493F4F40FD9BF2DC0AD
:109B50009565938525C0130500029780FF1FE78058
:109B600000ED2326A90061D11306000281459384EC
:109B700004049770FF1FE780C0ED231199002300B4
:109B800009002313590105C817A7FF1F1307C7E8CA
:109B90008347940010432304F900118C8327C900E4
:109BA00011841180238E870023A029018147ADBF36
:109BB00023260900E9B723044901FDB785473E85FF
:109BC00082809387C18A984383C5418B814763957F
:109BD000F50081463685828003562700BA8619C271
:109BE000E30AA6FE850793F7F70F4107CDB79387E2
:109BF000C18A984303C6418B81476315F6008146AD
:109C00003685828083552700BA8689C583454700FB
:109C1000E388A5FE850793F7F70F4107F9BF97A7DC
:109C2000FF1F938767DF984383C5718B81476395D7
:109C3000F50081463685828003560700BA8619C230
:109C4000E30AA6FE850793F7F70F4107CDB7938781
:109C5000C18A9C4303C8518B01476315E8008146C4
:109C60003685828003D62700BE8619CA03D66700D0
:109C70006318A600D04709C603562600E302B6FEC5
:109C800005071377F70FC107C9BF411122C440452B
:109C900026C206C6AA8415C0484409C59780FF1F7E
:109CA000E78000E6484809C59780FF1FE78040E548
:109CB00022859780FF1FE780A0E4268541468145E5
:109CC0009770FF1FE780E0D8B2402244FD57A3847D
:109CD000F400924441018280011122CC2A84035570
:109CE000250006CE2EC6EF10100B32462285814588
:109CF000EF00D06722856244F24005616FF0FFF803
:109D00000DC503572500411122C406C62A8411CB74
:109D1000DD45EF00906922852244B24041016FF099
:109D2000DFF6B2402244410182808280411126C286
:109D300031479304C5FF3387E40297A7FF1F93873A
:109D400027CE06C622C43E978356A7006397B60265
:109D5000484305C53E849307F00F6306F60083472A
:109D60000500639CC7009780FF1FE78060D9B1475B
:109D7000B387F402A29723A20700B2402244924480
:109D800041018280411122C42E8426C24946AA8400
:109D90008145228506C69770FF1FE78080CBADC046
:109DA00083C7C4011397470097A7FF1F9387C7C6B0
:109DB0009C43BA9703D707002310E40003D727007A
:109DC00083D767002311E4001387218B0357070013
:109DD0002312E40003D704002313E40003D7240074
:109DE0002314E40003D744002315E40003D76400E0
:109DF0002316E40003D784002318F4002317E4009B
:109E0000B240224492444101828097A7FF1F93876A
:109E1000A7C003A807009387C18A904383C5418BDD
:109E2000014781476394E5003E85828083460600B2
:109E300081CE544691CA83C6C6019206C296631566
:109E4000D500850793F7F70F05071377F70F41063E
:109E5000D1BF130600643386C50293069500AA8518
:109E600017050000130505EA6F902FFB411122C46E
:109E700006C62A8403459500EF903F8DFD57A30445
:109E8000F400B240224441018280011122CC4AC830
:109E90004EC652C456C206CE26CA2A89AE8901448D
:109EA000138AC18A9D4A83C7518B6362F404639706
:109EB00009029389C18A130AF00F83C7418B636635
:109EC000F4061144A1442285050442041306F00F50
:109ED000CA854180EFF09FE5E31794FEF2406244AB
:109EE000D2444249B249224A924A0561828083277C
:109EF0000A0093144400BE9483C704009DC383D713
:109F00006400639027036396590103D52400EF1082
:109F1000806826854E868145EF0050452685EFF006
:109F2000DFD605041374F40FBDBF83A70900931493
:109F30004400BE9483C704009DC383C7940063801C
:109F4000470383D76400639C27012685EFF01FF247
:109F50002685D145EF0070452685EFF01FD3050417
:109F60001374F40F99BF41677917630BE502411130
:109F700022C406C685472A846399F50022852244B7
:109F8000B240814541016FF05FF089476396F5006B
:109F90008545EF10D0147DD1B2402244410182802A
:109FA00082809D456FF07FEE03D5218B8280011169
:109FB00006CE2317A1002316B10003C7018B8547E6
:109FC0006318F70070009305E1000545EF409060CD
:109FD000F24005618280A947631CF60483C715001F
:109FE00003C70500A207D98F2310F50083C73500EA
:109FF00003C72500A207D98F2311F50083C7550099
:10A0000003C74500A207D98F2312F50083C7750047
:10A0100003C76500A207D98F2313F50083C79500F6
:10A0200003C78500A207D98F2314F500014582805C
:10A030000545828091476314F60283C7150003C764
:10A040000500A207D98F2310F50083C7350003C789
:10A050002500A207D98F2311F5000145828005450F
:10A0600082809387C5FF93960701C1820D47636085
:10A07000D70231473387E70297A7FF1F9387479A95
:10A08000BA972381A7002390B70001458280094534
:10A09000828013074020AA876374A700930740209B
:10A0A000F1172399F18A238BB18A238CB18A82809C
:10A0B0001905956542054111938535C0418106C654
:10A0C0009780FF1FE780A09611C5B240E955410176
:10A0D0006FB01060B24041018280411197A7FF1F0D
:10A0E000238EA7921306000317A5FF1F13054593A0
:10A0F000814506C6238A018A238B018AA38B018AA4
:10A10000A38A018A2388018AA388018AA38C018AF1
:10A110002399018A23A6018A9770FF1FE780609325
:10A12000EF10605017A5FF1F0345859231C195655B
:10A13000938545C012059780FF1FE780408F17A7C2
:10A14000FF1F232BA78C0DC597A7FF1F9387479051
:10A1500083C7170017A6FF1F0346868F8145A38A72
:10A16000F18AA38BC18A12069770FF1FE780608E69
:10A170009387518B83C7070017A5FF1F03454591A0
:10A1800095653E951375F50F238AA18A938555C071
:10A1900012059780FF1FE780808923A6A18A31C11D
:10A1A00003C6418B120681459770FF1FE780608AC6
:10A1B0009387C18A984383C6418B814725077D5683
:10A1C000639AF600B24017050000130505DA410155
:10A1D0006F10206885072300C70093F7F70F41072A
:10A1E000C5B7238A018AA38A018AE9BF41119397DF
:10A1F000050126C206C622C4C187AE8463DE0708F5
:10A2000017A5FF1F03458581EF809FD62A8439C992
:10A2100003470500930700096313F704034715007C
:10A22000CD476319F706034525009795FF1F83C5A2
:10A23000956F83C7618B93066400014601472E88A2
:10A240006319E50219C2238BF18A83C7618B81CB25
:10A2500085451795FF1F0345657CEF90CF9C2285B0
:10A26000EF80FFC92165258DB2402244924441010F
:10A27000828003C60600B29713F6F70F9377F80FA4
:10A280006374B6009377F60F05071377F70F890607
:10A2900005467DB72125E1B793F715000145E9D7BC
:10A2A000EF00506D19C983C7618B81CB8545179528
:10A2B000FF1F0345A576EF900F9713C514006DB7E8
:10A2C00085462A8763FBC60483C7150003C60500BD
:10A2D000A207D18F2310F500639CD70083C73500F8
:10A2E00083C62500A207D58F2311F5000145828082
:10A2F000894601456394D70283C7350083C625008C
:10A30000A207D58F2311F70083C7550083C64500E8
:10A31000A207D58F2312F7008280054582809147DE
:10A320006314F60283C7150003C70500A207D98F7F
:10A330002310F50083C7350003C72500A207D98F76
:10A340002311F50001458280054582809147631401
:10A35000F60283C7150003C70500A207D98F231093
:10A36000F50083C7350003C72500A207D98F231145
:10A37000F5000145828005458280A1476314F604FB
:10A3800083C7150003C70500A207D98F2310F50066
:10A3900083C7350003C72500A207D98F2311F50015
:10A3A00083C7550003C74500A207D98F2312F500C4
:10A3B00083C7750003C76500A207D98F2313F50073
:10A3C00001458280054582808947631CF60083C76A
:10A3D000150003C70500A207D98F2310F50001451A
:10A3E0008280054582808357260079714ECE06D63D
:10A3F00022D426D24AD01307F007AE896372F7023F
:10A4000009473AC42316F100300093F5F50FEF1019
:10A410006017B250225492540259F2494561828029
:10A4200003574600D9462A89328463F8E6008357E9
:10A43000660063F4F6006379F7002314010030002E
:10A4400093F5F90F4A85E1B70355060002C4EFF012
:10A450000FFDAA8459C1EFF05F9B83C78400636935
:10A46000F5001146A246CE854A85EF10000755B784
:10A47000340026869305F00F4A85EFF08FE675F1DC
:10A48000A24703578400DC472390E70003572400CA
:10A490002391E700035744002392E7000357640029
:10A4A0002393E70003D744002394E700DC4485CBE3
:10A4B00093F4F90F2286A6854A858297C167FD1716
:10A4C0002A86E311F5FA22459947F9452300F5005C
:10A4D00023029500EFF0FF972DBF094661B70146B3
:10A4E00051B7A947631CF60483C7150003C70500CD
:10A4F000A207D98F2310F50083C7350003C72500B5
:10A50000A207D98F2311F50083C7550003C7450063
:10A51000A207D98F2312F50083C7750003C7650012
:10A52000A207D98F2313F50083C7950003C78500C1
:10A53000A207D98F2314F50001458280054582804A
:10A5400083C705002300F50083C71500A300F500AD
:10A5500083C7350003C72500A207D98F2311F50053
:10A5600082802322050003C7450089476304F70062
:10A570000545828083D665000D47E37BD7FE9C4569
:10A58000011106CE22CC26CA4AC84EC683C4170083
:10A5900003C60700A204D18C138644006311D604BD
:10A5A00003C4370083C72700AE8922045D8C93075C
:10A5B000C4FFC207C1832A89636FF70003A589001E
:10A5C0002311990023108900F155EFB07010232258
:10A5D000A900014531A02285EFF0AFDE65F1054508
:10A5E000F2406244D2444249B249056182803971E5
:10A5F00022DC2E84834704004AD806DE26DA4ED6B3
:10A6000019472A89B285639AE70603462400280081
:10A61000EFF0FFD0AA8415E903558100EFF06FDA5F
:10A62000AA898345140015C92E8617170000130741
:10A6300087E834009D454A85EF00903F4E850946E6
:10A6400081452D234E85EFF04FE4F250625426856C
:10A650004259D254B2592161828089472310F100B6
:10A66000835781000A862311F1008357A10023122A
:10A67000F1004A85EF001071C9BF4947639DE702A9
:10A68000035624002800EFF05FCFAA845DFD979762
:10A69000FF1F83D7A73999E3814445BF03471400BF
:10A6A000834604003C000146CA851795FF1F0345F9
:10A6B0000538812659BF51476390E70203562400AD
:10A6C0002800EFF05F91AA8449F18345140030001F
:10A6D0004A85EFF05FD195BF59476391E70603566E
:10A6E00024002800EFF01F95AA8425F183558100EE
:10A6F0004A85EFF0CFD50DC958458356A100835741
:10A700000700B697C207C1832310F700D1D75C4773
:10A71000C1D783C7618BC9D385451795FF1F0345F3
:10A72000E52FEF805FD015B789473EC08357810082
:10A730000A86834514002312F10025BF83451400C7
:10A740000A8623100100EF00F063B9B75D71A6C25D
:10A7500056DA86C6A2C4CAC04EDE52DCAA8A03C537
:10A760001500AE8432C6EFF08FC8B24501ED8144CA
:10A77000B6402644268506499644F259625AD25A72
:10A7800061618280230205002311050083C9040052
:10A7900085472A84639AF90003C624002808EFF04D
:10A7A0003FB2AA8405492DA09D476394F90403474D
:10A7B00005008D47E31DF7FA03C624002808054964
:10A7C000EFF0DFB8AA8409E5054681452285792E98
:10A7D0002285EFF0AFE9034584003C080147CE86AF
:10A7E0002686D6853924E30509F82285EFF0EFC9DE
:10A7F00041B7CD47639DF900034705009147E31832
:10A80000F7F603C624002808EFF01FBC59BFD54750
:10A81000E39FF9F4034A05008947E31AFAF403C6F3
:10A82000240028080549EFF0DFCBAA8455F18357AF
:10A830000102BDE3035781011306F0035C44930654
:10A8400007FCC206C182636CD6000356A101D9463B
:10A8500063F7C6008356C101D94563EFD5000355A0
:10A8600024002391E7000549EF00F052035601024E
:10A87000D2852285712CA9BF8355E1012391E70080
:10A880002392C7002390B7002393D7008547230066
:10A89000F400014A0149D9BF014AC9BF7971AA85AB
:10A8A00022D426D203542500AA84280806D6EFF025
:10A8B0005FCBF24599E535E985452285EFF02FEF2D
:10A8C000C1A0835781011547639BE7060357A10188
:10A8D0008D4763FCE7046800EFF09FC60357E10073
:10A8E000DD4763FCE7008345D100B7071700850704
:10A8F000100822853EC8EF00F0488357E100035757
:10A90000A10191076305F7002285EFF08FE98347E6
:10A91000C10072466C00858B1106228591CFEFF045
:10A92000FFE201C52285EFF0CFE7884451D597704B
:10A93000FF1FE780E01C49B7EFF07FCBDDB7114781
:10A940006389E7001387A7FF42074183854663EECB
:10A95000E6023147F117B387E7021797FF1F130786
:10A96000270CBA9703D7070069D303C5270030081F
:10A97000A2850D205DF9035781019147E31EF7F28F
:10A98000B25022549254456182802C082285892E2F
:10A9900049FDFDB701114AC82A89314526CA06CEAC
:10A9A00022CC2EC6B284EF804FD831C1B245930776
:10A9B000000A2310F5002311B5002A842146110551
:10A9C0008DC0A6859760FF1FE7802005A2854A8578
:10A9D000EF800FE10145F2406244D24442490561F3
:10A9E000828081459760FF1FE780A006C5B70545B7
:10A9F000DDB7797126D2AA841305000206D622D4C7
:10AA00002ECE32CC36CA3AC83EC6EF800FD231C9FC
:10AA10006246F2454247D246B2472A84130520FADD
:10AA20002300A400A300C4002311B4002302E40007
:10AA3000A302D40013058400614691CFBE859760C0
:10AA4000FF1FE78080FDA2852254B25026859254D4
:10AA500045616F80EFD881459760FF1FE78060FFF9
:10AA6000DDB7B250225492544561828058457971C5
:10AA700022D406D62A84AE8651C383572700231DCD
:10AA8000F10093072006639FF5049387218B03D67B
:10AA90000700835767006373F600B28713F6F70F5A
:10AAA00083552701834707018D8F93F7F70F81E5C2
:10AAB000890793F7F70FB297FD17B3C7C702231E95
:10AAC000F100835724008355640003458400231C50
:10AAD000F10001473C080146EFF0BFF1B2502254AB
:10AAE000456182800347C7019797FF1F9387C7F28D
:10AAF0009C431207BA9783D76700D1B72EC6194671
:10AB0000814528089760FF1FE780A0F4B24655BF33
:10AB1000797122D406D626D22A848DC18147014775
:10AB2000930600062E868355640003458400EFF0EB
:10AB30005FECB2502254925445618280B284280066
:10AB400059469760FF1FE780C0F02314910089E801
:10AB50008357240048446C002315F100EFF08FA2C6
:10AB60003C00014793060006014675BF797106D681
:10AB7000814799ED8357250058452316C1002314BA
:10AB8000F1003C0011C7835727002315F1003C005A
:10AB90002E86835565000345850001479306000610
:10ABA000EFF03FE5B25045618280411122C406C6F4
:10ABB0008347050011472A846395E7022E86835553
:10ABC00065000345850081470147CD46EFF07FE2F0
:10ABD0004946835564002244B240154541016FF057
:10ABE000EF9413F7B70F89466317D7000146EFF0CC
:10ABF0003FF25146F9BF0D476398E7002244B24047
:10AC0000014641016FF09FF6B2402244410182802B
:10AC100083D705003147F1173387E7029797FF1F66
:10AC2000938707E0BA97D84319EBD8412395A7003B
:10AC30000145D8C303D725002394E70082805945F6
:10AC40008280797122D4404526D24AD006D6AA8481
:10AC50002E8925C0484419C59770FF1FE78040EA38
:10AC6000232604008357040083D5640003C58400B1
:10AC70002315F1008357240001479306400623164D
:10AC8000F100835784004A862317F1001C483EC810
:10AC900083D724002314F1003C00EFF09FD5A30ECE
:10ACA000240123280400B2502254925402594561D1
:10ACB00082802800314681459760FF1FE78060D978
:10ACC00083D7240083D5640003C584002314F100D6
:10ACD00001473C00930640064A86EFF09FD1E1B75A
:10ACE000797152CC2A8A03D5050026D206D622D401
:10ACF0004AD04ECE56CAAE84EFE0BFEC19E185478C
:10AD000049A04045AA8965DC83576500E39947FF60
:10AD100083578400638907128346C401979AFF1FF3
:10AD2000938A8ACF03A70A009206FD173697C207B7
:10AD300003576700C1832314F4006316F7009305DB
:10AD40003006EFF0BFD25C48A5EFC84003491500BC
:10AD50008347050022093369F90083D724001307CC
:10AD60002900631AF702F955EFB08016C8C0239185
:10AD7000240103C589002686D285EFF0BFC1814733
:10AD800021E1B250225492540259F249624AD24A05
:10AD90003E85456182809565938515C04A8597708B
:10ADA000FF1FE780C0C848C8C840231C2401F955CC
:10ADB000EFB0001283D72400C8C0F9172391F40024
:10ADC000484859C503D624008356A40183578401FB
:10ADD0003308D60063C007090347C40183A70A00EC
:10ADE00095451207BA9783D7270063CF0705CC4054
:10ADF00036959760FF1FE78040C20357A40183D7B1
:10AE00002400BA97C20703578401C183231DF400AD
:10AE1000E397E7EE03D7290003C589003000231428
:10AE2000E1005848D2852315F1003AC6EFF09FB6ED
:10AE300011C548489770FF1FE78080CC232A040083
:10AE4000232C04006DBD99454E85EFE0FFE845BD1C
:10AE5000A545DDBF9145CDBF03D7250069CF83D67A
:10AE6000218BED4763EAE60C011122CC2E8426CA21
:10AE7000AA844840914506CEEFB080058357240050
:10AE8000AA862300F50083572400A183A300F500C0
:10AE9000835704002301F50083570400A183A30115
:10AEA000F50003562400C167F917110642064182D6
:10AEB0006396F4042AC4314532C6EF800F87AA8511
:10AEC000CD471DC5930700F93246A2462300F50081
:10AED000F9572311F50089472302F5002313C50014
:10AEE00014C51795FF1F034565B3EF806F8F81472A
:10AEF000F2406244D2443E850561828081452685C8
:10AF0000EF307078AA8701E903C7618B75D37D178D
:10AF1000238BE18AF1BF09476302E5021D47630104
:10AF2000E50249476300E5027D47E313E5FC03C7FB
:10AF3000618B8147E1BFED473E858280D1474DBFA0
:10AF400091477DB789476DB7011122CC4AC831447A
:10AF50001309C5FF330489029797FF1F938747ACF6
:10AF600006CE26CA3E94584031C783C6618BBE8444
:10AF7000854795CA2314A100835784000355A40074
:10AF80002C003AC62315F100EFF01FED11C5484023
:10AF90009770FF1FE780C0B6B147B307F902A697C5
:10AFA00023A207008547F2406244D24442493E85CD
:10AFB000056182808147C5BF797126D244451387D8
:10AFC000218B4AD083D764000359070052CC06D6A0
:10AFD00022D44ECE56CA2A8A63F327013E8903D76C
:10AFE000240142091359090183D7040141CB998FE8
:10AFF0004A8463D52701139407014180894522853E
:10B00000EFF00F8BAA89CD4A25C183D724002AC629
:10B01000231581002314F10083D7240185E383D70E
:10B020000401930925002300F50083D70401A183BF
:10B03000A300F5006376240503D4040183D724011B
:10B04000CC4422864E85BE959760FF1FE780E09C2A
:10B0500003556A002C00EFF03FE0AA8A15C54E8523
:10B060009770FF1FE780C0A9B250225456859254B2
:10B070000259F249624AD24A4561828089078DBFEE
:10B080007914420441805DBF03D7240183D70400B3
:10B090003A94FD17C207420403D70401C1834180DB
:10B0A0002390F400239984006377E400D5FFFD57D3
:10B0B000A38EF40055BF81455285EFF09FB86DB760
:10B0C00001114EC683C9918B22CC52C456C25AC0BC
:10B0D00006CE26CA4AC84E84138AC18A854A130BF3
:10B0E000F00F83270A0093144400BE9403C90400A0
:10B0F00063175907DC44A5C7D84735C303D70700F2
:10B1000039C383C7618B89CF2685EFF0FFEAAA8513
:10B1100015E5050483C7518B635FF400A38C818A16
:10B12000F24062444A85D2444249B249224A924A94
:10B13000024B05618280A38C018ADDB72685EFF082
:10B140005FB00149F1BF83C7D701639A67019305D7
:10B1500020062685EFF09F91DC44A38E07000504AE
:10B160001374F40F83C7518B6363F4000144E31A33
:10B1700034F7C1BF4111154506C6EFF0FFDC09C524
:10B180000545B240410182801945EFF0FFDB6DF9C2
:10B190001145EFF07FDB6DF51D45EFF0FFDA6DF146
:10B1A00003C5518B79DDB24041016FF07FF183D748
:10B1B00005000D47F117C207C1836361F706DC4143
:10B1C000B1CF411122C42E84854526C206C6AA8469
:10B1D000392739C526851525C167F917638FF4000E
:10B1E00009ED8357240091CB835604001947639FD0
:10B1F000E60203D7218B63FBE70283C7618BA2853D
:10B20000268599C72244B240924441016FF0DFC4C1
:10B210002244B240924441016FF09F9F09458280D1
:10B220005145B24022449244410182806D45D5BFD0
:10B23000397126DA4ED6AA84AE895D4589454AD849
:10B2400006DE22DC328936C63AC4EFE07FE625C549
:10B2500022472A84014511C7B24613054400B6852A
:10B2600002979357850023003401A3002401230192
:10B27000A400A301F40011059547231DA100231C80
:10B28000F10022CE83C7618B2C08268595C3EFF091
:10B29000BFBCAA8411C522859770FF1FE780408636
:10B2A000F250625426854259D254B25921618280AB
:10B2B000EFF01F96F9BFCD44E5B7797126D24AD099
:10B2C00052CC56CA06D6BA8A22D44ECE19472E89F7
:10B2D000B284368A6394E506035526000944EFE0FC
:10B2E0005F8E2AC625C55C458359650083D7270034
:10B2F0002390F400B24715472380570103C6118BF2
:10B3000093061600A388D18A2391E7002382C70001
:10B31000D1466319D9002391E400DC4703D78400A8
:10B320002394E7005287A686CA854E85EFF05FF02A
:10B330002A84324515C4EFE05F9509A8428674005F
:10B34000BE85AA89EFE0EFF92A844DD52285B25057
:10B35000225492540259F249624AD24A456182808B
:10B36000F945EFE01FAFDDB783D705002300F500F7
:10B3700083D70500A183A300F50083D7250023010F
:10B38000F50083D72500A183A301F5001145828034
:10B3900083D705002300F50083D70500A183A30010
:10B3A000F50083D725002301F50083D72500A1836D
:10B3B000A301F50083D745002302F50083D745009C
:10B3C000A183A302F50083D765002303F50083D78B
:10B3D0006500A183A303F5002145828083D7050082
:10B3E0002300F50083D70500A183A300F5000945DC
:10B3F000828083D705002300F50083D70500A18351
:10B40000A300F50083D725002301F50083D725008D
:10B41000A183A301F50083D745002302F50083D75C
:10B420004500A183A302F50083D765002303F5003F
:10B4300083D76500A183A303F50083D78500230488
:10B44000F50083D78500A183A304F50029458280F8
:10B4500003D705008546AA872300E50003D705002A
:10B460002183A300E50003D70500631DD70003D7A0
:10B4700025002301E50003D725002183A301E50072
:10B480001145828009456315A70203D72500194598
:10B490002381E70003D725002183A381E70003D799
:10B4A00045002382E70003D745002183A382E700FC
:10B4B000828083D705002300F50083D70500A18390
:10B4C000A300F50083D725002301F50083D72500CD
:10B4D000A183A301F50011458280797126D24AD05B
:10B4E0004ECEB2842A89AE8929468145480022D4AD
:10B4F00006D636849750FF1FE780A055231691008B
:10B5000095EC835724002312F1009387218B83D776
:10B5100007002314F1005C4495C383C6C701178755
:10B52000FF1F1307674F1843920683D7870036978C
:10B53000035727002315F1002313E1004A8517075D
:10B540000000130747EB540013F6F90FD545EFF051
:10B550003FCE2A8911C19DE085472300F4002302D4
:10B560000400014681452285EFF08FDAB250225463
:10B570004A8592540259F249456182802285EFE062
:10B58000CFF0EDB7B286170700001307A7EC2E86A1
:10B5900085456FF0FFC901112317A10041657000B7
:10B5A00001489307F00F0D4797060000938606DCCD
:10B5B00099457D1506CEEFF05FD0F240056182809F
:10B5C000B28701482E86114797060000938686DCD5
:10B5D000C9456FF09FCEB28617070000130747E0FA
:10B5E0002E86CD456FF0DFC4011122CC26CA4AC891
:10B5F0004EC606CE2A89AE891784FF1F1304C445A0
:10B600009784FF1F938444481C4081C7CE854A8598
:10B6100082971104E31A94FEF2406244D2444249F4
:10B62000B249056182801785FF1F03455530937726
:10B6300035000981AA971787FF1F230BF744A5C779
:10B640001305C0033385A702A5654111850506C60C
:10B650009760FF1FE780A03D9787FF1F23ACA73EA1
:10B660001787FF1F0347C74209058147FD5663C27D
:10B67000E7029787FF1F9387273E1787FF1F130750
:10B68000A74023A007009107E39DE7FEB2404101D8
:10B6900082802310D500230105002325050285079C
:10B6A0001305C503E9B782809787FF1F9387873A01
:10B6B00098431786FF1F0346A63D81476315F60092
:10B6C000814636858280BA861307C703835567FC97
:10B6D000E389A5FE850793F7F70FCDB7011122CCBB
:10B6E0002EC632C406CE2A84EFF01FFC2246B24595
:10B6F00011E9C167F9176303F4005145F240624450
:10B700000561828054558347450095C213F7270190
:10B7100041456314A700154575F2C18B3D45F9DF1E
:10B7200083C7A6010145E3FBB7FC3145C1BFC18B0F
:10B730000145E9F71545D9B7797126D2C16422D4FC
:10B740004AD04ECE52CC56CA06D62A890144978991
:10B75000FF1F93892930130AC003FD14854A978778
:10B76000FF1F83C7E7326364F400014535A8B307C0
:10B77000440303A70900BA9703D72700631697006D
:10B7800005041374F40FE1BF03C55700300093851F
:10B790006700EF90C0671946CA8528009750FF1FC1
:10B7A000E780A030E31E55FDB25022549254025956
:10B7B000F249624AD24A456182809787FF1F938788
:10B7C0006729C16698439785FF1F83C5652C81470C
:10B7D000FD166395F50001463285828003582700E7
:10B7E0003A866306D80003480700E307A8FE8507EA
:10B7F00093F7F70F1307C703E9BF411106C6EFF030
:10B80000BFEA11C503554501B2404101828001459F
:10B81000E5BF9787FF1F9387E72398439786FF1F0E
:10B8200083C606278147110701456393F60082808E
:10B830000346070001C605051375F50F850793F745
:10B84000F70F1307C703D5B71785FF1F0345452417
:10B8500082801787FF1F130727208147BA8631464A
:10B860000C4391E58A07B69788C301458280850716
:10B870001107E397C7FE4D458280411106C622C4D9
:10B88000EFF09FE21DCD2A84035525008545EFF09A
:10B89000BFD5485409C59760FF1FE7806026228501
:10B8A0001306C00381459750FF1FE780801AFD579C
:10B8B0002311F400230204000145B2402244410157
:10B8C00082800945DDBF411106C6EFF0FFDD11C5DD
:10B8D0000345C500B240410182800145E5BFC16713
:10B8E000F9176304F502411122C406C62E84EFF055
:10B8F000BFDBAA87014591C703C54700698C333573
:10B900008000B240224441018280054582800111BD
:10B9100006CE2EC6EFF05FD9854711C90357450102
:10B92000B24585476305B700231AB5008147F24049
:10B930003E850561828021CD01114AC8416922CC32
:10B9400026CA4EC652C406CE0144AA849789FF1F58
:10B9500093894910130AC0037D199787FF1F83C776
:10B960002713634AF400F2406244D2444249B24988
:10B97000224A056182803305440383A709003E956E
:10B98000835725006383270182940504F9B78280D9
:10B990009787FF1F9387070C94431786FF1F034663
:10B9A000260F0147910681476310E602858393C7FE
:10B9B000F7FFC207C18305456364E50285473395F8
:10B9C000A70042054181828083C5060081C583D5D9
:10B9D000C602CD8F05071377F70F9386C603E9B725
:10B9E00093F61700E1FE050585831375F50FE9B79A
:10B9F000797156CAAA8A2E8526D24AD04ECE52CC0A
:10BA00005AC85EC662C406D622D4AE84328B368C47
:10BA1000BA8B3E8AC2894689EFF01FC949E1416568
:10BA20007D15EFF07FC82A84554531CC1946DE8557
:10BA300013056400A30284019750FF1FE780E0FD17
:10BA40008357010323119400230264012319F40096
:10BA5000835741032300540123260402231AF400D0
:10BA6000230644012317340123182401EFF05FF269
:10BA70002318A402232A04022685232C04028145CC
:10BA8000EFF09FB60145B250225492540259F24948
:10BA9000624AD24A424BB24B224C456182804545B4
:10BAA000DDB79787FF1F9387E7FA98439786FF1FB5
:10BAB00083C606FE81476395F60041657D15828049
:10BAC0003A861307C703835547FF6395A5000355BF
:10BAD00026008280850793F7F70FF1BF9787FF1F36
:10BAE000938747F7416698431788FF1F034848FA32
:10BAF00081477D1685482D43314E6314F80001457A
:10BB00008280835627003A856382C602545B99CEB1
:10BB100083C506006397150183C616006378DE00AF
:10BB2000828089E583C61600E37CD3FC850793F702
:10BB3000F70F1307C703D1B79787FF1F938787F1C5
:10BB4000416698439785FF1F83C585F481477D161D
:10BB500025486394F50001458280835627003A8585
:10BB6000638BC600545B81CA83C61600E51693F644
:10BB7000F60FE373D8FE850793F7F70F1307C70394
:10BB8000C9BF894791C909C995472380F5008347F3
:10BB90000500A380F50081473E85828039714ED62D
:10BBA00052D4AE892A8A93053005414526DA4AD80F
:10BBB00056D206DE22DC32C63689BA8A9760FF1F6B
:10BBC000E780E0E6CD4431C92A84894463820904D0
:10BBD00032468145231AC10041469750FF1FE78036
:10BBE00040E75686CE8522859750FF1FE780E0E22A
:10BBF0002146630E0902CA8528089750FF1FE78077
:10BC0000C0E1A28650082C085285EF30E01FAA84BC
:10BC100022859760FF1FE780A0EEF25062542685D0
:10BC20004259D254B259225A925A21618280814596
:10BC300028089750FF1FE780C0E1E1B789478DC50D
:10BC400005C5411106C6AE871947AA852380E700BE
:10BC50001385170041469750FF1FE78000DCB24074
:10BC600081473E85410182803E858280894795C912
:10BC70000DC9411106C625472380E500034705008D
:10BC8000AE871946A380E5009305150013852700AC
:10BC90009750FF1FE78060D8B24081473E85410141
:10BCA00082803E85828089478DC505C5411106C6C3
:10BCB000AE872147AA852380E700138517004146F8
:10BCC0009750FF1FE78060D5B24081473E85410114
:10BCD00082803E85828089479DCD15CD411106C663
:10BCE0001D472380E50003570500AE872146A3804A
:10BCF000E5000357050021832381E5009305250016
:10BD0000138537009750FF1FE78020D1B24081474D
:10BD10003E85410182803E85828089478DC505C56B
:10BD2000411106C6AE870D47AA852380E70013851B
:10BD3000170041469750FF1FE78020CEB240814751
:10BD40003E85410182803E85828089478DC505C53B
:10BD5000411106C6AE871147AA852380E7001385E7
:10BD6000170041469750FF1FE78020CBB240814724
:10BD70003E85410182803E85828089478DC505C50B
:10BD8000411106C6AE872947AA852380E70013859F
:10BD9000170041469750FF1FE78020C8B2408147F7
:10BDA0003E85410182803E85828023AE018A23A0A8
:10BDB000018C23A2018C9767FF1F938727F9171720
:10BDC00000001307C76198C3170700001307074750
:10BDD000D8C3170700001307A7DC98C79767FF1F92
:10BDE000938787F7172700001307E7D498C317072F
:10BDF000000013078761D8C317170000130747E532
:10BE000098C78280C14709CD144DC14791CA784D6A
:10BE100001CB83C73600BD4663F4F6008347870134
:10BE20003E858280411122C41384C18B4AC02A8975
:10BE3000084006C626C241C5A284631E0900834786
:10BE400005002146B1CB29059750FF1FE780E0BCD4
:10BE50009C400545B9CF4945EF702F8D2A840DC50B
:10BE6000930710FC2300F500A30025018C40090571
:10BE7000414689059750FF1FE78020BA9C40A28564
:10BE800003C51700EF70CF9588409760FF1FE780CC
:10BE900020C723AE018A29A809059750FF1FE78014
:10BEA000C0B7EF203076054945F51C4023802701B7
:10BEB0000545B24022449244024941018280014535
:10BEC000CDBF1C4D639F0716411122C426C22A8490
:10BED000AE8441459305300506C69760FF1FE78095
:10BEE00000B508CCCD4763040510A68541469750A0
:10BEF000FF1FE78080B283450400F9ED7C4C184CAD
:10BF0000D04B5443058A858A6307D60083D6470100
:10BF1000F99A239AD700D04B544305828582058A2B
:10BF2000858A6307D60083D64701F59A239AD700FE
:10BF3000D04B544309828982058A858A6307D600DB
:10BF400083D64701ED9A239AD700D04B54430D82F4
:10BF50008D82058A858A6307D60083D64701DD9ADC
:10BF6000239AD700D04B54432182A182058A858A27
:10BF70006308D60083D6470193F6F6EF239AD700DD
:10BF8000D04B54432582A582058A858A6308D60052
:10BF900083D6470193F6F6DF239AD700D04B54435C
:10BFA0002982A982058A858A6308D60083D647013B
:10BFB00093F6F6BF239AD700D44B5843AD822D8316
:10BFC000858A058B638AE60003D74701FD76938651
:10BFD000F67F758F239AE70003C714007C4C11CFBE
:10BFE00003C7170019CB9547A301F4008147B2405E
:10BFF000224492443E854101828003C72400118B74
:10C0000019E703C72701118B19E38547F1BF03C760
:10C01000070083C6040081C5B687BA863E871146ED
:10C02000E147E366E6FCE364D6FC95473307F70295
:10C03000970701009387C71A3E97369783470700F3
:10C0400065B7C5473E858280AE8715C5784D05C763
:10C05000834607002380D50083461700A380D500C0
:10C06000834627012381D50083468701584BA3814E
:10C07000D500D8C18280414681453E851753FF1FB8
:10C080006700239D9387018C9C4391C703A387007E
:10C0900063030300028309458280011122CC2A84B4
:10C0A000494506CEEF90EF9215C12AC62285EFF0E2
:10C0B000AFDF09CD6244324683550503F240178550
:10C0C000FF1F0345959C05616F702FC7F2406244C6
:10C0D00005618280797126D29947231DB100AA8417
:10C0E0002E858D4522D406D632C636C4231CF100D7
:10C0F000EFD01FFC2ACE4D441DC13246A246AA8570
:10C10000328582962A8419E52C082685EFF02F8A3D
:10C110002A8411C572459760FF1FE780609E2685BF
:10C12000EFF0BFF72285B2502254925445618280CD
:10C13000011122CC9305C5012A8441460A8506CE09
:10C140009750FF1FE780608D035544000A869706CD
:10C1500000009386C6BCC545EFF0DFF7F2406244AD
:10C1600005618280011122CC9305C5022A844146D3
:10C170000A8506CE9750FF1FE780208A03554400AA
:10C180000A8697060000938686BCC545EFF09FF4AB
:10C19000F2406244056182802E86970600009386F5
:10C1A00026AAC5456FF01FF30111B28722CC2300E8
:10C1B000B1002A84BE8513051100194606CE97509A
:10C1C000FF1FE78080850A862285970600009386F8
:10C1D00026AAA145EFF01FF0F2406244056182807B
:10C1E0002E8697060000938646ACC5456FF09FEEFD
:10C1F0000111B28722CC2310B1002A84BE85130519
:10C200002100214606CE9750FF1FE78000810A8655
:10C21000228597060000938646ACAD45EFF09FEB74
:10C22000F2406244056182802E8697060000938664
:10C2300006B5C5456FF01FEA011106CE22CC26CA0D
:10C24000834405008547639BF40483471500194721
:10C250002A84639AE7041C4D83D7470013F707101D
:10C2600019C7784D035747011377071021E313F7D8
:10C27000072001CB784C0357470113770720631B36
:10C28000071093F7074081CB7C4C83D7470193F786
:10C29000074063920716C947A300F400F2406244C6
:10C2A000D2440561828031476398E70A3C5085E3B8
:10C2B0009305300571459750FF1FE780407728D0E0
:10C2C00019C5714681459740FF1FE780807824504B
:10C2D000B9C883C7A40191E72285EFF0BFB2238DCF
:10C2E000A4008145268541469740FF1FE780607680
:10C2F00028503D478345A5019387F5FF93F7F70F36
:10C300006364F700EF802FB2EF60DFE63C50A14599
:10C310002398A70013852701EF80EFB02C50035519
:10C320004400EFF07FE7B54703554400A300F40055
:10C33000EFF08FB7414611C58357E50013D61700BC
:10C340003E966244F240D2441775FF1F0345F573D1
:10C35000854505616F706F9E3547639AE7023C51D2
:10C3600089CB83D507010355450013862701EFF0DC
:10C370003FE81C4C83D7470013F7072039CB784C94
:10C38000035747011377072029C7B94771BF3947BA
:10C39000639BE700EF808FDAAA8503554400EFF036
:10C3A0003FE4BD4751B73D476394E704EF806FD842
:10C3B000AA85630D9502814526852EC6EF802FD56F
:10C3C0002A86B24503554400EFF01FDE1C4C83D78C
:10C3D000470093F70740E38007EC7C4C83D7470185
:10C3E00093F70740E38907EAC1473DBF8144E9B7B6
:10C3F0004147E392E7EAEF802FD5AA850355440031
:10C40000EFF09FE249BD797106D622D426D283444B
:10C410000500A5E48347150019472A846394E706BD
:10C420007C4D83D7470113F7170011C7184D0357E9
:10C430004700058B39EB13F7270019C7184C035732
:10C440004700098B63150714918B99C71C4C83D740
:10C450004700918B639C07187C4C83D7470113F7E7
:10C460000710630D0718184C035747001377071080
:10C4700063060718B147A300F400B2502254925447
:10C48000456182801D476397E70C3C5089EB93051B
:10C49000300571459750FF1FE780605928D0245020
:10C4A000C9C02285EFF01F96238DA4008145268503
:10C4B00041469740FF1FE780C05928503D478345BC
:10C4C000A5019387F5FF93F7F70F636DF702977751
:10C4D000FF1F83C79764A5CF414681450808974051
:10C4E000FF1FE780005719469775FF1F9385C548C2
:10C4F00008089740FF1FE780405230500C082E85F7
:10C50000EF30305BEF601FC73C50A1452398A70078
:10C5100013852701EF802F912C5003554400EFF035
:10C52000BFC7A14703554400A300F400EFF0CF9725
:10C53000414611C58357E50013D617003E96854541
:10C540001775FF1F03457554EF603FFF3DB7EF8040
:10C550008F8D4DBF21476399E7023C5189CB83D52D
:10C5600007010355450013862701EFF07FC87C4C77
:10C5700083D7470113F7270021CF184C03574700F3
:10C58000098B39C7A54779BF2547639BE700EF8033
:10C59000EFBAAA8503554400EFF09FC4A94759B7E5
:10C5A00029476392E704EF80CFB88547AA856304E3
:10C5B000F5008145854426852EC6EF804FB52A8635
:10C5C000B24503554400EFF03FBE7C4C83D7470192
:10C5D000918BE38307E81C4C83D74700918BE38D55
:10C5E00007E6AD4781B72D47E398E7E6EF80CFB583
:10C5F000AA8503554400EFF03FC3B9BD13F70720E8
:10C6000009CB184C035747001377072019C3B947C4
:10C610009DB593F7074089CB1C4C83D7470093F710
:10C62000074099C3C14781BDC947B1B50DCD0111BF
:10C630008A8522CC06CE2A84EFF01FA1834704000E
:10C640000355440097160000938606BB89E79716AA
:10C650000000938606BB0A869D45EFF0BFA7F24017
:10C6600062440561828005458280AA851775FF1F97
:10C670000345B5416F706F88411122C4405926C2ED
:10C6800006C6AA8431C4084C09C59750FF1FE7802D
:10C690002047285009C59750FF1FE7806046685023
:10C6A00009C59750FF1FE780A045285409C597503A
:10C6B000FF1FE780E044685409C59750FF1FE780DB
:10C6C000204422859750FF1FE780804323AA04025D
:10C6D000224403D50403B240924441016FF0FFF8B5
:10C6E000411126C206C622C4AE84EFE0FFFB21C57D
:10C6F0004C592A84A9C183A8C50603A88506FC5104
:10C70000B85183C6650003D6450083C5050026855C
:10C71000EF805FB42285EFF03FF6EFF0EFC101CD7F
:10C720002244B24092441775FF1F034515368545D4
:10C7300041016F605FCFB240224492444101828048
:10C74000411122C4405926C206C67C4CAA8483D714
:10C75000470113F7071019C7184C03574700137701
:10C7600007101DE313F7072019C7184C035747009C
:10C770001377072011EB93F707409DCB1C4C83D711
:10C78000470093F707408DC79947A300F40022851F
:10C79000EFF09FAA03471400C947631FF700224424
:10C7A00003D52400B2409244814541016FF05FF30C
:10C7B000C947A300F400E5B7B240224492444101C6
:10C7C0008280411106C622C426C2EFF02FB121C1DA
:10C7D0004059AA840DCC834704009DC79387018CE0
:10C7E0009C4389C7DC4399C3228582970347140081
:10C7F000C947631EF700224403D52400B240924487
:10C80000814541016FF0DFED9387418CD1BFB2408C
:10C810002244924441018280411126C24AC006C688
:10C8200022C4AA842E89EFE03FE80DCD40595DC0B7
:10C83000835744006390970A834714001947639213
:10C84000E70883470400BDCB7C4C83D7470113F72F
:10C85000170005C3184C03574700058B19CB9D479C
:10C86000A300F400B240224492440249054541012C
:10C87000828013F7270001CB184C03574700098B20
:10C8800019C3A547F1BF918B81CB1C4C83D74700BF
:10C89000918B99C3AD47E9B79387018C9C43F9D33A
:10C8A000DC43E9D32285829703471400C9478145B9
:10C8B000E31AF7FA2685EFF0BFE26DB79387418C54
:10C8C000F1BF45476398E70063040900130920039B
:10C8D000CA85CDB7631C09002685EFE0FFDC19C5CA
:10C8E0008347450093E707012302F500A6854A85A3
:10C8F000EF806FAA85BF411122C42E862E8497F641
:10C90000FFFF93864628894506C626C24AC02A8963
:10C91000EFF04FFC83450400AA844A85EFF05FDC0A
:10C92000B240224426850249924441018280938785
:10C93000418C9C4395CB9C4385CB797122D406D600
:10C94000984110082A843AC8D84185453ACA829746
:10C9500001C92306A100035524006C00EFF0BFF9C4
:10C96000B2502254456182808280011122CC06CED1
:10C970002A842EC6EFE05FD35C5991CF83D747005E
:10C98000B245639A870085476397F5006244F24099
:10C9900005616FF07FCEF2406244056182804111F3
:10C9A00006C6EFF00F90C167FD176307F500B240B0
:10C9B000DD4541016FF0DFD2B240410182800111BB
:10C9C00026CA4EC6AE84AA89930530051305000316
:10C9D0004AC806CE22CC32899750FF1FE780200537
:10C9E0002DC51306000381452A849740FF1FE78069
:10C9F00040064146CE8522859740FF1FE780C00D47
:10CA0000A6850D461305D4019740FF1FE780C00C93
:10CA100013060402930504012285EF309009AA84CD
:10CA20000D469305D4024A859740FF1FE780C00A50
:10CA300022859750FF1FE780A00CF24062442685B4
:10CA40004249D244B24905618280CD44FDB7814755
:10CA50004146B306F5003387F5000347070003C8D6
:10CA600006008507334707012380E600E393C7FEEE
:10CA700082805D714EDE62D4AE892A8C93053005CA
:10CA800013050003A6C2CAC052DC56DA5AD85ED6D5
:10CA900086C6A2C4B28B368BBA84BE8A4289468AC5
:10CAA0009750FF1FE780A0F86305051013060003E9
:10CAB00081452A849740FF1FE780A0F94146E2851F
:10CAC00022859740FF1FE7802001414681450A8566
:10CAD0009740FF1FE780E0F71D46DE850A859740F7
:10CAE000FF1FE78060FF1D46DA8513057100974040
:10CAF000FF1FE78060FE33392001B33490004146C8
:10CB00008145080823072101A30791009740FF1FD3
:10CB1000E78020F41946D68548089740FF1FE78034
:10CB2000A0FB1946D2851305A1019740FF1FE7809E
:10CB3000A0FA930404014146CE8526859740FF1F45
:10CB4000E78080F98A852685EFF07FF0930904025B
:10CB50004E86A6852285EF30C0752A890DE94146AB
:10CB6000CE8526859740FF1FE78020EB0C082685A1
:10CB7000EFF0FFED4E86A6852285EF3080732A897F
:10CB800046454146CE859740FF1FE780E0F4228569
:10CB90009750FF1FE780C0F6B64026444A8596446A
:10CBA0000649F259625AD25A425BB25B225C616119
:10CBB00082804D49D5B7011126CA52C4AA842E8A53
:10CBC00013050003930530054AC84EC606CE22CC95
:10CBD0003289B6899750FF1FE78060E535C52A8402
:10CBE000A68541469740FF1FE78000EF93040401AC
:10CBF0002146D28526859740FF1FE780E0EDCA8554
:10CC00002146130584019740FF1FE780E0EC1309DC
:10CC10000402A6854A862285EF30A069AA8441468F
:10CC2000CA854E859740FF1FE78000EB228597500D
:10CC3000FF1FE780E0ECF240624426854249D2447F
:10CC4000B249224A05618280CD44F5B75D71A2C424
:10CC5000A6C24EDE52DC86C6CAC0AE89328AAA841B
:10CC6000EFE09FA44059414681450A859740FF1F48
:10CC7000E78020DE41CC03594400631999088347BB
:10CC80000400C9E70347140099476313F704140825
:10CC90001306C4049305C40213057400EFF0BFF13A
:10CCA00035E52285EFF00F962A860C080A85974015
:10CCB000FF1FE78080D68A854A85EF20E01505456D
:10CCC000B640264496440649F259625A6161828010
:10CCD0002C508DCDC54683D70501631FD70863123D
:10CCE000FA022146C9054E859740FF1FE780E0DB29
:10CCF00085476318F5002285EFF0CF902A862C50E7
:10CD000075B7930520032685EFF09F9D2685EFE0FC
:10CD1000BF992A8451C14C55C1C183D70501639D78
:10CD200047072146C9054E859740FF1FE780E0D79A
:10CD300085472A896312F5064C540A8503C6A50166
:10CD40009740FF1FE78060CD83C7D18291C75C54B5
:10CD500083C7B701639D270FBD452685EF20C00619
:10CD60009777FF1F938747BB9C5B0145B1DB1D4550
:10CD7000894582970145A9B7E31AFAF82146C90502
:10CD80004E859740FF1FE78040D28547E310F5F8B6
:10CD90002C5003C6A50119BF9777FF1F938707D8AB
:10CDA00003C707009779FF1F938909B73E89058B51
:10CDB00031C3034754009777FF1F83C7A7D5631B71
:10CDC000F70219469775FF1F9385D5D413056400A4
:10CDD0009740FF1FE78060CD8547631DF50083A75F
:10CDE000090381C791451D458297BD452685EF10F2
:10CDF000B07DF1B51777FF1F034737D283A709032B
:10CE000031CB03470900098B09CB81C795451D45E7
:10CE100082972685EF2080005DB581C78D451D4531
:10CE200082974146814508109740FF1FE78060C206
:10CE300019469775FF1F938525B408109740FF1F6B
:10CE4000E780A0BD0C100A862E85EF3080468A85CB
:10CE50002685A5B58545C5FF6DBF8147C14633070A
:10CE6000F500B388F5000347070083C808003308BE
:10CE7000F6008507334717012300E800E391D7FE4A
:10CE800082800147BD471308F00F3306F500834643
:10CE90000600B388F500FD178606558F2380E8004D
:10CEA0000347060093F7F70F1D83E39007FF828087
:10CEB0008147930800F8414893F6F70F3387F50050
:10CEC00063FCC600B306F50083C606002300D70046
:10CED0008507E39307FF82806395C600230017014F
:10CEE000C5BF23000700EDB701114AC856C22E89FD
:10CEF000AA8A93053005414506CE22CC26CA4EC6E5
:10CF000052C4328A9750FF1FE78060B2AA8493050B
:10CF1000300541459750FF1FE78060B12A84CD4915
:10CF2000A5C431CD414681459740FF1FE78060B2DF
:10CF30002686A2855685EF30C037AA8929E18387E6
:10CF4000040063D30706A2852685EFF09FF34A8687
:10CF500097F500009385852A2285EFF01FF083075F
:10CF6000090063D80704A2854A85EFF09FF1528635
:10CF700097F50000938585282285EFF01FEE268522
:10CF80009750FF1FE780C0B711C422859750FF1F3D
:10CF9000E78000B7F24062444E85D2444249B2492C
:10CFA000224A924A05618280CA852685EFF07FED8C
:10CFB0007DB7D2854A85EFF0DFECD1B739715AD011
:10CFC0005ECE2A8BAE8B41459305300506DE26DA10
:10CFD00052D456D262CC66CA6AC8368C328DBA8CAC
:10CFE00022DC4AD84ED69750FF1FE78040A4AA8A79
:10CFF0009305300541459750FF1FE78040A32A8ADB
:10D00000CD44638E0A0859C52A86D6855A85EFF025
:10D01000BFEDAA8441E19305300541459750FF1FBC
:10D02000E780E0A02A899305300541459750FF1F0E
:10D03000E780E09FAA89630A090E6306050E1304C0
:10D04000FD0011841376FD0049C07D144204418027
:10D0500035EE131544004E86D6855E95EFF0FFDF62
:10D06000414681454A859740FF1FE780809E014DDC
:10D0700093170D01C18363F48708BDC04A8597509B
:10D08000FF1FE780E0A7638709004E859750FF1FC9
:10D09000E78000A756859750FF1FE78060A66307CB
:10D0A0000A0052859750FF1FE78080A5F250625416
:10D0B00026854259D254B259225A925A025BF24BF7
:10D0C000624CD24C424D21618280014413154400D0
:10D0D0008A855E95EFF0DFDD4E86D2850A85BDBF7D
:10D0E00093154D000A86DE954A85EFF01FD74A86D4
:10D0F0008A855A85EF30E01BAA84050D95BFBDFCDB
:10D100000A86CE854A85EFF05FD54A868A855A859C
:10D11000EF30201AAA846686CA8562859740FF1F71
:10D12000E780A08FA1BFCD4491BFCD44A9BF89475F
:10D1300061C2DDCD2300A60083C70500A300F60071
:10D1400083C715002301F60083C72500A301F6005D
:10D1500083C73500A30206002302F60083D74500EB
:10D16000A183858BA302F60003D745001377072020
:10D1700009C793E72700A302F60083D7450093F77A
:10D18000074099C78347560093E74700A302F6007C
:10D1900083D745001397470163580700834756001C
:10D1A00093E78700A302F6002303060083C7450028
:10D1B000858B2303F60003D74500098B09C793E746
:10D1C00027002303F60083D74500918B99C7834737
:10D1D000660093E747002303F60003D74500814725
:10D1E000218B19C703476600136787002303E600F6
:10D1F0003E8582802E86AA8505456FF05FF32E86D8
:10D20000AA8509456FF0BFF24DC95971A2D42A848D
:10D2100003554500A6D2CAD0CECED6CA86D6D2CC29
:10D22000DAC8DEC6B68AB2892E89EFE0EFC7AA84D3
:10D2300039C50C182285EFE03FE183470400138ACB
:10D240006400A9CBEF70EFEE2A8B014583CB54002D
:10D25000EF70EFEBAA840C100818EFF0BFF9084C40
:10D260002C10EFF0DFF9D288268A56C05E88D2876C
:10D270005A8714103010CE854A85EFF08FFFB650D4
:10D28000265496540659F649664AD64A464BB64B3A
:10D2900065618280EF70EFE9AA8B014503CB5400F2
:10D2A000EF70EFE62ACE084C0C10EFF0BFF42C1014
:10D2B0000818EFF0DFF4F2484DBF8280011122CC54
:10D2C0004AC806CE26CA2A84EFE0BFBF2A8901CD0C
:10D2D000E1476302F5102149F24062444A85D24495
:10D2E0004249056182807C4C83C72701858B91CFA1
:10D2F0001C4C054783C727008D8B6398E700834745
:10D30000640093E717002303F40083443400894743
:10D310006391F402035544008545EF806F8C834789
:10D32000640093E747002303F4008D47A300F40053
:10D3300065B70D476390E402035544008945EF80CB
:10D340002F8A83476400A300940093E747002303D8
:10D35000F40059B71147E38FE4FA05476390E404FA
:10D3600093047400A300F40041468145268597305C
:10D37000FF1FE780006E1306C4023285C14532C626
:10D38000EF706FAA324622859306C401A685EFF09E
:10D39000BFE72285EFE0DFD921D135BF1547E39DF7
:10D3A000E4F293047400A300F4004146814526850D
:10D3B0009730FF1FE780E0696C4C41462685890560
:10D3C0009730FF1FE78060658347640093E747005D
:10D3D0002303F4004DB70D4901B7397122DC4059E0
:10D3E00026DA4AD84ED606DEAA89AE843289630987
:10D3F00004200355250083574400638BA700A144F4
:10D40000F250625426854259D254B2592161828029
:10D410008347040099E39D44E5B7AD47E3EDB7FECC
:10D420009387E5FF93F7F70F2547E366F7FE17F7B6
:10D430000000130727D38A07BA979C43BA978287BD
:10D44000B2852285EFF09FE7AA845DBF4146CA8579
:10D450001305C4039730FF1FE780205C2285EFE0AF
:10D460007FD0AA8411C1A1449547A300F40049BF0D
:10D470009309C404CA8541464E859730FF1FE78053
:10D48000C0591309740014084E86CA852285EFF02E
:10D49000BFD741469305C40308089730FF1FE780B4
:10D4A000C0608547E31EF5F48A861306C402CE8564
:10D4B0004A85EFF04FF011ED2285EFE0BF942A8707
:10D4C00003554400814601468A85EFE02FEDAA848A
:10D4D00011C1A144994751BF034714009D47E31C64
:10D4E000F7F27C5089EB9305300571459740FF1F9B
:10D4F000E780E05368D0685019DD4146CA8597300F
:10D50000FF1FE78080512285EFE0DF8F7C50238D65
:10D51000A700A147A300F4008144DDB56850E30CE7
:10D5200005EE03471400A147E317F7EE8357060003
:10D530009305290021462318F50049059730FF1F60
:10D54000E780A04D7C4C83D7470113F727002DC3FC
:10D55000184C03574700098B21CFA54765BF0347E8
:10D560001400A547E319F7EA3C5481EB854559457A
:10D570009740FF1FE780A04B28D4285419C5414687
:10D58000CA859730FF1FE7804049A94761B7034725
:10D590001400A947E311F7E8285419469305190028
:10D5A00041059730FF1FE78040477C4C83D74701F8
:10D5B000918B95CF1C4C83D74700918B8DCBAD477A
:10D5C00091BF7C5489EB9305300551459740FF1F6F
:10D5D000E780E04568D46854E30305E24146CA8524
:10D5E0009730FF1FE78060437C547D5798CB4E8572
:10D5F000EFF00F9515B783450600EFF06F8E29BF4A
:10D60000AD47E39BF5F083460600835525001306DE
:10D61000650003450500EF70AFE8FDBD15C1AA87A1
:10D6200009458DC141112E8541469385170006C6D7
:10D630009730FF1FE780603EB24001454101828084
:10D6400009458280828089471DC595C5411106C65E
:10D6500003471500AE8719462380E5009305250092
:10D66000138517009730FF1FE780203BB2408147AA
:10D670003E85410182803E85828015C1AA87094589
:10D680008DC141112E8541469385170006C69730FE
:10D69000FF1FE7808038B240014541018280094583
:10D6A0008280828089471DC995C9411106C60347FA
:10D6B000250083461500AE872207558F2390E5008D
:10D6C000214693053500138527009730FF1FE7801B
:10D6D000C034B24081473E85410182803E858280D0
:10D6E00015C1AA8709458DC141112E8541469385F3
:10D6F000170006C69730FF1FE7802032B240014571
:10D7000041018280094582808280094711CD89CDFF
:10D7100083471500A14601472380F500FD1793F7C5
:10D72000F70F63F3F60061473A85828015C1AA8737
:10D7300009458DC141112E8541469385170006C6C6
:10D740009730FF1FE780602DB24001454101828084
:10D750000945828082808947630905106387051027
:10D76000411106C622C426C2834715002E84238099
:10D77000F50083472500A380F5008347350023810A
:10D78000F50083474500A381F50083475500858B4D
:10D790009396870083D7450093F7F7EFD58F2392B1
:10D7A000F5008346550093F7F7DFA20693F60620AF
:10D7B000DD8E2392D5000347550093F6F6BF22076E
:10D7C00013770740558F2392E50083475500FD7678
:10D7D0009386F67F8D83858B758FAE07D98F2392C5
:10D7E000F50083466500F99B858ADD8E2392D5007E
:10D7F000034765009377270013F7D6FF5D8F2392C9
:10D80000E5008347650093F647009377B7FFD58F10
:10D810002392F50003476500DD9B4D45218BD98F91
:10D820002392F500EF70FF9AAA845145EF707F9A1A
:10D830000347340093F4F40F1375F50FC947636081
:10D840009702636EE500834604001147E147636871
:10D85000D7008346140005476363D7008147B24071
:10D86000224492443E85410182803E85828015C1DA
:10D87000AA8709458DC141112E8541469385170020
:10D8800006C69730FF1FE7804019B24001454101AD
:10D890008280094582808280797122D42A84084559
:10D8A00006D626D223060100834405002947938724
:10D8B000F4FF93F7F70F6362F70C17F700001307F5
:10D8C000E78C8A07BA979C43BA9782870C08EFF0D7
:10D8D0009FE8C9476312F50299472306F1000355F3
:10D8E00024006C00EFF02F81B25022549254456115
:10D8F00082800C08EFF0DFDE29C98347C100E5F321
:10D9000003552400EFE06FF9C5B70C08EFF01FE2F4
:10D91000E5B70C08EFF07FDFC5B70C08EFF01FD0BC
:10D92000E1BF0C08EFF01FD8C1BF0C08EFF0FFD427
:10D93000E1B70C08EFF03FD1C1B70C08EFF03FF3AF
:10D9400065BF834715002308F10003552400EFD07D
:10D95000BFD5A14705C10347C5006312F7029387EE
:10D96000018C98439D4719C7184309C71008A6851D
:10D970000297AA872306F10049B79D47B9BF93874D
:10D98000418CC5B7411122C406C603470500930761
:10D9900020092A846312F70A8347150039476393E5
:10D9A000E702835645000967610781476391E608EE
:10D9B0001C452244B24003C507009385170041016E
:10D9C0006FE04FC61307E0036396E708034725009F
:10D9D0009547631DF70203554500EFD0DFEE9147F1
:10D9E0006304F5008547A1A09387418C9C43FDDB30
:10D9F00003A38700E30803FE0356E4000355440035
:10DA0000930564002244B24041010283A147631B95
:10DA1000F70083456400035544002244B2404101AD
:10DA20006FE09FDF930600038147E304D7FEB24017
:10DA300022443E85410182809306000A8147E31813
:10DA4000D7FEEFF07FE5084451DD9740FF1FE780E8
:10DA5000200B49BF8147E1BF411122C426C206C63F
:10DA60002A84EFE00FC6AA8419C9E1476301F50CC7
:10DA7000A144B240224426859244410182802285FD
:10DA8000EFE0DFBA6C4C83C72501858B91CF1C4C2E
:10DA9000054783C727008D8B6398E70083476400A1
:10DAA00093E717002303F400834734000947639189
:10DAB000E702894503554400EF709F928347640055
:10DAC00093E747002303F4009147A300F40055B700
:10DAD0009386D7FF93F6F60F05466364D600854517
:10DAE000D1BF6392C702A300E400414681451305FC
:10DAF00074009730FF1FE780C0F5C1451305C402CD
:10DB0000EF607FB2BDB79546E395D7F6A300E4007A
:10DB100041468905130574009730FF1FE780E0EF49
:10DB20008347640093E747002303F400F9B78D446B
:10DB300089B7797122D4405926D24AD04ECE06D622
:10DB4000AA89AE843289630B0420035525008357CC
:10DB50004400638BA700A144B25022542685025989
:10DB60009254F2494561828003470400854763145B
:10DB7000F7009D44D5B79387F5FF93F7F70F254737
:10DB8000E369F7FE17E70000130707638A07BA97F0
:10DB90009C43BA978287B2852285EFF0FFEBAA8477
:10DBA00065BF4146CA851305C4039730FF1FE78050
:10DBB000C0E60347140091476305F7029306C401CA
:10DBC0001306C402930574002285EFF0EFE322856B
:10DBD000EFE00FD6AA8411C1A1449547A300F40039
:10DBE000A5BF8D47A300F4008144BDB79307C404CB
:10DBF0003E85CA8541463E899730FF1FE780E0E1B8
:10DC00008A864A86930574002285EFF0EFDF41464D
:10DC10009305C4030A859730FF1FE78000E9854715
:10DC2000E31CF5F22285EFE0EFD3AA840DF59947C6
:10DC300075B703471400B147E31DF7F27C5089EB39
:10DC40009305300571459740FF1FE78040DE68D09F
:10DC5000685005D14146CA859730FF1FE780E0DB59
:10DC60002285EFE02F9A7C50238DA700B5479DBFFA
:10DC70006850E30005F003471400B547E31BF7EED7
:10DC8000835706009305290021462318F50049050E
:10DC90009730FF1FE78060D87C4C83D7470113F78C
:10DCA00007203DC3184C035747001377072029CF9F
:10DCB000B9470DBF03471400B947E31CF7EA3C54CA
:10DCC00089EB9305300559459740FF1FE78020D623
:10DCD00028D4285419C54146CA859730FF1FE780CC
:10DCE000C0D3BD4701B703471400BD47E313F7E8AE
:10DCF000285419469305190041059730FF1FE78006
:10DD0000C0D17C4C83D7470193F707409DCF1C4C73
:10DD100083D7470093F707408DCBC147E1B57C54CB
:10DD200089EB9305300551459740FF1FE78020D0D0
:10DD300068D46854E30105E24146CA859730FF1F65
:10DD4000E780A0CD7C547D5798CB03D52900814531
:10DD5000EFE01F9951BD83450600DDBF8547E39580
:10DD6000F5E803284600834736000347260083462C
:10DD7000160083552500034606000145EF60FFE8C5
:10DD8000A5B5011126CA06CE22CC89441DCD95CD5C
:10DD9000AA842E8468008D45EF60FF888347E100E8
:10DDA0002685228693F7F70393E707046C00230781
:10DDB000F100EFE0DFC0AA8409E90D466C0013050D
:10DDC00034009730FF1FE78040C5F240624426854B
:10DDD000D244056182805D714EDE86C6A2C4A6C2B1
:10DDE000CAC052DC56DA5AD85ED6894945CD5DCADA
:10DDF000138B4500420B135B0B01AE8A2A8A9305F5
:10DE000030055A85B2849740FF1FE78040C22A84BC
:10DE1000CD4949C9EF601FB42A895686D285935AE5
:10DE20008900135A0901937BF90F1305440093FAF3
:10DE3000FA0F137AFA0F135989019730FF1FE78001
:10DE4000A0C9A301740123015401A30044012300CC
:10DE50002401EF607FAFAA85414608089730FF1F75
:10DE6000E78080C7214734005A86A2850808EFF072
:10DE7000EF94AA891DE121462C0023807401A38020
:10DE8000540123814401A381240113854400973068
:10DE9000FF1FE78060C4EF60DFAC22859740FF1F63
:10DEA000E78000C6B64026444E8596440649F2599E
:10DEB000625AD25A425BB25B61618280011106CE26
:10DEC0002AC6EFD09FEE324599459767FF1FA38E74
:10DED000A7BAEFC00F99F24017F5FFFF130525A968
:10DEE00005616FD01F979767FF1F83C727BAA18B64
:10DEF0001747FF1F130787E591E3014723A0E18C34
:10DF000001458280797152CC2A8A2E8506D622D488
:10DF100026D24AD04ECE2EC6EFD00FF945C5405975
:10DF200045C4834734008949F91793F7F70F63ED28
:10DF3000F90883574400B24589446394B70613092E
:10DF400074004146D2854A859730FF1FE780E0ACD8
:10DF50001306C4023285C14532C6EF60CFEC3246AB
:10DF60009306C401CA852285EFF00FAA0347040077
:10DF7000834714000DC30D4781446394E702A30057
:10DF8000340122852254B25092540259F249624A15
:10DF900045616FE0EF991147639EE700A30094008D
:10DFA0008144B2502254268502599254F249624A61
:10DFB000456182800D478144E395E7FE9547A300C4
:10DFC000F400C1B78944F1BFC944E1BF79719397A7
:10DFD000050122D406D626D24AD04ECEC1872E8441
:10DFE00063D507041765FF1F034535AAEF405FF8A7
:10DFF0002AC605C1EFF01F99B24509E91765FF1F51
:10E000000345A5A89307F00F631EF5002E85EF408A
:10E010001FEF2165218DB250225492540259F249CA
:10E0200045618280EF40DFFBEDB793F7150091C7A4
:10E03000EFE02FF913451400F9BF8DE90145E1BF69
:10E04000850493F4F40FEFD03F80E3F9A4FE3395F9
:10E0500099001319050113590901B3772401EDD370
:10E060004A85EFE0DF933345240175B78544854940
:10E07000D9BF29CD011126CA06CE22CCAA840945D2
:10E08000A9C10D4628002E848D059730FF1FE7801B
:10E09000C0988347A10070002C0093F7F70393E723
:10E0A000070426852305F100EFE07F9119E90D466D
:10E0B000A28568009730FF1FE780209F7D153335CC
:10E0C000A000F2406244D24405618280094582800A
:10E0D0009767FF1F83C7879B918B1747FF1F130706
:10E0E000A7C791E3014723A2E18C0145828001117A
:10E0F00052C42A8A32854EC656C25AC006CE22CC97
:10E1000026CA4AC82E8BB28AB689EFD0EFD909ED5C
:10E110008944F240624426854249D244B249224AA7
:10E12000924A024B056182805C592A89C544F5F305
:10E130004D45EF700F8A1374F50F5145EF706F89DD
:10E14000E38809FC83C78901E3E487FC1375F50FB5
:10E15000E360F5FC93053005130500079740FF1FAA
:10E16000E780E08C232AA9022A84CD445DD11306DE
:10E17000000781459730FF1FE780A08DA3000400B2
:10E18000230044012301640123125401232E34058A
:10E19000232C0400A301040063170A008547A30091
:10E1A000F4008144BDB72285EFE04FC88547A30046
:10E1B000F400AA8439DD4A85EFE00FCC99BF3971AC
:10E1C00022DC06DE26DA4AD84ED652D456D25AD0AF
:10E1D0005ECE62CC66CA0944630B06106309071061
:10E1E000AA8B3A89368BB28A2E8CEFD0EFCB2A8A53
:10E1F0005144630E050E9305300541459740FF1FBE
:10E20000E780E082AA894D447DC183441900834799
:10E210002900A204C207BE9483470900BE94834725
:10E220003900E207BE9483278A0263E697007D5790
:10E2300009446399E70A63070C0083474A000544D1
:10E24000898BCDC3930C4B00214681450A85C20CB6
:10E250009720FF1FE780E07F93DC0C0193053005DA
:10E2600066859730FF1FE780807C2A8C4D443DC92E
:10E270005A86D68511059730FF1FE780E085114645
:10E28000CA8562859730FF1FE78000854146930568
:10E290008A014E859730FF1FE780008421478A86D8
:10E2A0006686E2854E85EFE07FD12A841DE5214612
:10E2B0008A8528009730FF1FE7800082214693055A
:10E2C000490028009720FF1FE780207E8547631EB6
:10E2D000F502A6855E85EF708F9B62859740FF1FD4
:10E2E000E78000824E859740FF1FE780608122858E
:10E2F000F2506254D2544259B259225A925A025B95
:10E30000F24B624CD24C216182800544F9B73971DD
:10E3100062CC2A8C594526DA4AD84ED652D456D2E7
:10E320005AD05ECE06DE22DCAE8B328BB68A3AC67F
:10E330003E8AC289468983440104EF401FBF49C118
:10E340009167938717E92310F50085472301F500AE
:10E350002A8432472105630C0C0493071003A301A0
:10E36000F400194681459720FF1FE780806E230344
:10E370006401A3035401230A940023127401231798
:10E3800044012318340123192401A2856254F25058
:10E39000D2544259B259225A925A025BF24B624C01
:10E3A0001755FF1F0345456E21616F407FC3A301D1
:10E3B00004001946BA859720FF1FE780006645BF15
:10E3C000F2506254D2544259B259225A925A025BC4
:10E3D000F24B624C21618280011122CC2A843145AA
:10E3E00006CE2EC632C436C23AC0EF401FB429C191
:10E3F0009167938717E92310F5008D472301F500F6
:10E40000A3018500B2452246924602476244F2408B
:10E410002312B5002313C5002314D5002315E500EE
:10E42000AA851755FF1F0345256605616F405FBB31
:10E43000F24062440561828001114AC82A89394547
:10E4400026CA06CE22CC2EC6B284EF401FAE31C102
:10E45000B2459167938727E92310F5009147A301FF
:10E4600025012312B5002A842301F500A68519058C
:10E4700021469720FF1FE780405AA2856244F24060
:10E48000D24442491755FF1F0345056005616F409F
:10E490003FB5F2406244D244424905618280011195
:10E4A0004AC82A89414526CA06CE22CC2EC6B28445
:10E4B000EF40BFA729C19167B245938727E9231091
:10E4C000F50095472A84231225012301F5002146F2
:10E4D00019059720FF1FE7804054A2852317940059
:10E4E0006244F240D24442491755FF1F0345F55993
:10E4F00005616F40FFAEF2406244D244424905617B
:10E500008280011122CC2A84394506CE2EC632C41F
:10E5100036C23AC0EF407FA129C19167938717E9BE
:10E520002310F50099472301F500B2452246924693
:10E530000247231285006244F2402313B5002314DE
:10E54000C5002315D5002316E500AA851755FF1F22
:10E550000345855305616F40BFA8F24062440561E1
:10E560008280797122D406D62A842EC632C436C25D
:10E570003AC0EFD06F931DC1B24522469246024782
:10E58000231CB100231DC1002C081306F00F2285A7
:10E59000231ED100231FE100EFD08F82B2502254FE
:10E5A00045618280011122CC2A84394506CE2EC6CF
:10E5B00032C436C23AC0EF405F9729C19167938752
:10E5C00017E92310F5009D472301F500B2452246C7
:10E5D00092460247231285006244F2402313B5009D
:10E5E0002314C5002315D5002316E500AA85175569
:10E5F000FF1F0345654905616F409F9EF2406244DD
:10E60000056182805D712AC613052002CAC04EDEF4
:10E6100052DC56DA5AD85ED662D466D26AD086C642
:10E62000A2C4A6C26ECE2E8CB28B368B3AC43E8D5F
:10E63000C28CC68A035A01058359410503498105E5
:10E64000EF40BF8E69C591663243938616E9A947AC
:10E650002A842310D5002301F500930DE400210541
:10E66000930444012247630D030693071003A3019B
:10E67000F400194681459720FF1FE780803D194629
:10E6800081456E859720FF1FE780A03C1946814594
:10E6900026859720FF1FE780C03B23037401A30357
:10E6A00064012300240323128401231D5401231E2B
:10E6B0004401231F3401A2852644B64096440649EE
:10E6C000F259625AD25A425BB25B225C925C025DA2
:10E6D000F24D1755FF1F0345253B61616F405F9069
:10E6E000BA85A301040019469720FF1FE780E03296
:10E6F000EA856E8519469720FF1FE780003219468C
:10E70000E68526859720FF1FE780203179B7B64040
:10E71000264496440649F259625AD25A425BB25B89
:10E72000225C925C025DF24D61618280011122CC1B
:10E730002A84214506CE2EC632C436C2EF40EFFEF3
:10E7400015CD224692469167938717E92310F5006D
:10E75000B1472301F500A3018500B2452303C5009D
:10E76000A303D5006244F2402312B500AA851755D1
:10E77000FF1F0345653105616F409F86F24062448B
:10E780000561828001112AC6514506CE22CCEF4098
:10E79000CFF91DC9B2459167938717E92310F5009A
:10E7A000B9472A842380F500090541469720FF1FB9
:10E7B000E780A026A2856244F2401755FF1F03455B
:10E7C000A52C05616F40DF81F240624405618280C3
:10E7D000411122C42A84194506C6EF400FF50DC524
:10E7E0009167938717E92310F500C1472301F500CE
:10E7F000231285002244B240AA851755FF1F034506
:10E80000A52841016F40CFFDB240224441018280E2
:10E8100041110D4506C6EF404FF10DC5930710F9A4
:10E820002300F5009307E003A300F500C54723018B
:10E83000F500B240AA851755FF1F0345E5244101A5
:10E840006F400FFAB24041018280011122CC2A842C
:10E85000294506CE2EC632C436C2EF400FED15CD87
:10E86000B24592469167938717E92310F500C9478F
:10E870002302B5002301F500A30185002304D50080
:10E8800022466244F2402313C500AA851755FF1F94
:10E890000345851F05616F40AFF4F2406244056196
:10E8A000828001114AC82A892D4526CA06CE22CC6B
:10E8B0002EC6B284EF406FE729C5B245930710F921
:10E8C0002300F5009307E003A300F500CD47A30163
:10E8D00025012302B5002A842301F500A68515052C
:10E8E00019469720FF1FE7804013A2856244F2403B
:10E8F000D24442491755FF1F0345051905616F4072
:10E900002FEEF2406244D2444249056182800111F7
:10E9100022CC2A84214506CE2EC6EF400FE105C940
:10E92000B2459167938717E92310F500D147230378
:10E93000B5002301F500231285006244F240AA8548
:10E940001755FF1F0345451405616F406FE9F240FD
:10E95000624405618280011122CC2A84214506CEC1
:10E960002EC632C4EF406FDC1DC5224693071059F6
:10E970002310F50023018500B2452303C50062443E
:10E98000F2402312B500AA851755FF1F0345C50F96
:10E9900005616F40EFE4F24062440561828001113D
:10E9A00022CC2A84214506CE2EC632C4EF40EFD7B2
:10E9B0001DC922469167938727E92310F500A147D7
:10E9C0002301F500B24523038500A303C50062447B
:10E9D000F2402312B500AA851755FF1F0345F50A1B
:10E9E00005616F40EFDFF2406244056182800111F2
:10E9F00022CC2A84314506CE2EC632C436C23AC055
:10EA0000EF40AFD215CD22468567938717C92310F3
:10EA1000F50023018500B2452303C5009246024755
:10EA20006244F2402312B5002314D5002315E500FB
:10EA3000AA851755FF1F0345250505616F404FDA6D
:10EA4000F240624405618280011126CAAE844AC840
:10EA50002A891385C40006CE22CC32C6EF40EFCC03
:10EA60001DCD8567B245938717E9230195002312D1
:10EA700025012A842310F500310508C42686972035
:10EA8000FF1FE78080F9A2856244F240D2444249E8
:10EA90001755FF1F034545FF05616F406FD4F240D6
:10EAA0006244D244424905618280011122CC2A8409
:10EAB000194506CE2EC6EF404FC705C98567938717
:10EAC00017F92310F500854723018500A301F50000
:10EAD000B2456244F2402312B500AA851755FF1FC4
:10EAE000034585FA05616F40AFCFF240624405618E
:10EAF0008280411122C42A840D4506C6EF40EFC230
:10EB000005C5930710F92300F500E947A300F500B8
:10EB1000230185002244B240AA851755FF1F0345F3
:10EB2000A5F641016F40CFCBB24022444101828023
:10EB3000011122CC2A84214506CE2EC6EF40EFBE1D
:10EB40000DC99167938727E92310F5009307000308
:10EB50002301F500B245230385006244F2402312ED
:10EB6000B500AA851755FF1F034535F205616F40B3
:10EB70002FC7F2406244056182800111214506CE13
:10EB80002EC632C4EF406FBA05C98567938707392F
:10EB90002310F500B245224685472301F500F240D7
:10EBA0002312B5002313C500AA851755FF1F03457F
:10EBB000E5E605616F40CFC2F24005618280797160
:10EBC00022D44AD04ECE56CA06D626D252CC5AC8E5
:10EBD000894AAA893284368963985513938A818B2E
:10EBE00083C7818B568A8944C1C783C7160003C770
:10EBF0000600A207D98F1757FF1F231FF7E8130737
:10EC0000C6FF639DE70831452EC6EF400FB2AA84C8
:10EC100041C1B245420441802302B500231385005F
:10EC2000930700F91504A1652310F50023113501A0
:10EC3000850522859730FF1FE78060DF88C421C5E6
:10EC400083C70A009305E9FF13562400FD17238CA0
:10EC5000F18A9720FF1FE78040DE9C44A685175568
:10EC6000FF1F0345A5DB89079CC4EF406FB78144B4
:10EC7000B2502254268502599254F249624AD24A2D
:10EC8000424B4561828026859730FF1FE78040E731
:10EC90009757FF1F239307E08544D9BF1307D6FF7B
:10ECA000E3C8E7FE83C7818C99CB9757FF1F9387F3
:10ECB00067DE884309C59730FF1FE78060E417557A
:10ECC000FF1F035565DD1105A165420585054181DD
:10ECD0009730FF1FE780A0D51757FF1F232CA7DA17
:10ECE00045DD83470A002286CA85FD17238CF18AF9
:10ECF0009720FF1FE78060D29757FF1F239F87D879
:10ED000085472384F18CA5B79757FF1F83D7E7D892
:10ED1000175BFF1F130B6BD8C1D31757FF1F035788
:10ED2000A7D7175AFF1F130AEAD6B386C7001107E1
:10ED300003250A00634CD7063E95CA859720FF1F1E
:10ED4000E780A0CD03560B008144329442044180F9
:10ED50009757FF1F239387D49757FF1F83D7C7D396
:10ED60009107E317F4F03145EF402F9CAA850DCDB4
:10ED7000930700F92310F50083570B002311350189
:10ED8000230255012313F50083270A001CC51755DC
:10ED9000FF1F0345A5C8EF40AFA49757FF1F239E51
:10EDA00007CE2384018CE9B503250A0009C59730F5
:10EDB000FF1FE780E0D49757FF1F239007CE2384DF
:10EDC000018CD9BD6F3080096F30A00A6F3040537D
:10EDD0006F30800D411106C6EF30C009B2400145C9
:10EDE000410182806F30E00E6F30E0106F30E01232
:10EDF0006F30C0146F30A0166F3080186F30801ADB
:10EE00006F30801C6F30201E8347160003460600BB
:10EE1000A2075D8E6F30601F6F30A0206F306023BF
:10EE20006F3020266F30E0286F30C02B6F30E02D20
:10EE30006F3000306F3020326F30403403430100B8
:10EE4000030E4100834E8100034FC100834F010137
:10EE500083424101834381017EC816CA1ECC7AC613
:10EE600076C472C21AC06F30C0336F30C0386F3092
:10EE7000E03A6F30003D6F30203F6F3040416F30DF
:10EE800060436F3080456F4010531307A5FF420762
:10EE900085672A8841831385A7C7636CE5021387BA
:10EEA00007C801456368B70263E605031307301F0F
:10EEB0006362C702138766FF42074183938767C770
:10EEC00063EAE70005063306B6028E063325D60050
:10EED0008280014582809757FF1F938727C9FC478F
:10EEE0009C5799E33E85828003D78701E30CA7FEF8
:10EEF00093878705FDB79757FF1F938727C783A77A
:10EF0000C7080145054791E3828083C6B700639334
:10EF1000E60005059C43C5BF411122C491452A84E2
:10EF2000014506C6EF401FC6231AA4041757FF1F4A
:10EF30000357C7CD854763FEE7048357C41B0357B8
:10EF4000841B9756FF1F83D6269A035564053E9768
:10EF5000B7470F0093870724B3C7D70213071727B4
:10EF60008356C40585451303F5FF130E80023357FE
:10EF7000F7028357E4039D8E83270409B386A60214
:10EF8000BE969757FF1F938767BE83A8C70863E69F
:10EF90006500B2402244410182803388C503C687A0
:10EFA0007D56369881E7231AB404E5B76314F4005C
:10EFB0001C40F5DB83AEC7086398AE0003A60709C3
:10EFC0003306C8403376A6026364E6009C43D9BF8B
:10EFD000890575BF9757FF1F83C7B78E63820718D0
:10EFE00041114AC006C62A8922C426C27D55630C37
:10EFF000090E9757FF1F938767B783A6C708E5C613
:10F000009754FF1F938444918388640137450F0010
:10F01000130FF5231753FF1F0353038D975FFF1F34
:10F0200083CF0F917D54854E13050524370EC0A85C
:10F030009D429303204EB700405703C7B60083A7F5
:10F040000609631AD70703D7E60703D6A603637832
:10F05000C70A83C506016394D50B83A58611C5E154
:10F0600083A5460AC9ED83C5F600639A550883D582
:10F070008603198E03A74609B385C5023346650288
:10F08000B385750233D7E502B3D5C5027E97420733
:10F0900041832392E6083386F50063C50800636365
:10F0A000C6010696B3076702FA97B3D7A70263D2E1
:10F0B0000804B307F64063F387003E849442B5FE2C
:10F0C0009757FF1F938787899C4382976368A4049F
:10F0D000B307A4402320F900832709002947636F61
:10F0E000F70423200900B24022449244024941011E
:10F0F0008280E370F6FCB307FE40B2976DBF03D782
:10F100004608330767027A973357A70263D408008B
:10F11000998F55B7E3FEE7FEF297DDBFB307854051
:10F1200063DB070083876401E3C407FAB707C0A85D
:10F13000A297898F45B72320090079BFD9172320CB
:10F14000F9008387640163D50700130564FF61BF7D
:10F15000A547E3EC87FE3705C0A85915229561B78E
:10F160007D5582809757FF1F938747A083A7870904
:10F17000411122C426C206C62A84AE846396A70023
:10F180009757FF1F23A007A88327041281CB03559D
:10F190008400014693050008EF00D05083572404F3
:10F1A00081CB035584004D4693051008EF00904F26
:10F1B00003558400154693051008EF00B04E230553
:10F1C000040023080400230994041757FF1F035762
:10F1D000E7A3854763E6E70085450145EF40CFE4B7
:10F1E000B24022449244014541018280411122C42F
:10F1F00006C62A8483278411D9E783270412D5E71A
:10F200000325041109C59730FF1FE780608F034570
:10F2100074029307F00F6304F500EF400FD303452A
:10F2200064029307F00F6304F500EF400FD203452B
:10F2300084029307F00F6304F500EF400FD10355EC
:10F240008400112A9747FF1F9387076D9C4785CB42
:10F250009757FF1F83D7879B9DE39747FF1F938790
:10F260002766885309CD9730FF1FE780608997474D
:10F27000FF1F23A707669747FF1F23A50766B24016
:10F28000224441018280C84309C59730FF1FE780AF
:10F2900020878327841103D7A700136707F02395DE
:10F2A000E7009C43232CF410B1B703D7A700C84351
:10F2B000136707F02395E70009C59730FF1FE78024
:10F2C0002084832704129C432320F4123DB79757D0
:10F2D000FF1F9387A78983A7C70899E33E8582808C
:10F2E00003D78700E30CA7FE9C43C5BF9757FF1FBA
:10F2F0009387C78783A7C709C1669745FF1F83C543
:10F3000095620147FD1603D6A700630BA6006309AB
:10F31000D60005071377F70FC107E3F6E5FE81472F
:10F320003E85828041119757FF1F9387278422C40F
:10F3300003A4C70906C609E8B24022449757FF1F35
:10F3400023A4078C4101828022859720FF1FE7803C
:10F35000207B0040CDB7411122C41754FF1F130476
:10F36000E4808326C40806C60147B687A5C703D62E
:10F3700087006317A60615EF98429756FF1F23AD27
:10F38000E6863E859720FF1FE78080778327040964
:10F3900023A007009757FF1F83D747879DE7EFF00C
:10F3A0007FF89757FF1F23A90784B24022444101E9
:10F3B0008280832604096397F6009756FF1F23AFC8
:10F3C000E682C1B7944314C36DBFFD171757FF1FE3
:10F3D000231EF7829757FF1F83D74783F9F7C1B7DB
:10F3E0003E879C4361B7614681451755FF1F130552
:10F3F000A5801713FF1F6700C3658327C508035641
:10F400008508797193D60701BD8EC206C182358EFB
:10F410001357764093575640898B058B5D8F9357D2
:10F420003640918B5D8F93571640A18B5D8F93175C
:10F430001600C18B5D8F9317360093F707025D8F1F
:10F44000931756009355860093F707041E065D8FA9
:10F450001376F60F518F93D7554013D63540118A46
:10F46000898BD18F13D67540D18F13D61540218A41
:10F47000D18F13961500418AD18F139635001376DC
:10F480000602D18F13965500137606049E05D18F80
:10F4900093F5F50FCD8FA20745465D8F3307C70261
:10F4A00022D42A8426D252CC56CA032A8409832A1B
:10F4B000C4095AC806D63697420741839357774006
:10F4C000135557400989858BC98F135537401189CA
:10F4D000C98F135517402189C98F1315170041890A
:10F4E000C98F1315370013750502C98F13155700FF
:10F4F00093558700137505041E07C98F1377F70FFF
:10F50000D98F13D5354013D755401189098B498FB1
:10F5100013D57540498F13D515402189498F13950F
:10F5200015004189498F1395350013750502498FE0
:10F5300013955500137505049E05498F93F5F50F36
:10F540004D8F2207D98FB387C7024AD04ECE5EC6F1
:10F5500062C4B697C207C18313D7774013D557400B
:10F560000989058B498F13D537401189498F13D5E8
:10F5700017402189498F139517004189498F1395A9
:10F58000370013750502498F1395570093D58700EF
:10F59000137505049E07498F93F7F70FD98F13D57D
:10F5A000354013D755401189098B498F13D57540C4
:10F5B000498F13D515402189498F1395150041892D
:10F5C000498F1395350013750502498F1395550022
:10F5D000137505049E05498F93F5F50F4D8F22078E
:10F5E000D98FB387C702130650025285D685B697C6
:10F5F000BD8E93940601C18033F6C402137BF60FCF
:10F60000EFB0E06505891DE9834714080149814988
:10F61000B3849702130C5002C1804A865285D68566
:10F62000EFB0E0630589937BF90F11C5638634035E
:10F63000850993F9F90F0509E31189FF230F640781
:10F64000B250225492540259F249624AD24A424B71
:10F65000B24B224C456182805E8BCDB7834715004B
:10F660000347250083464500A2074207BA97034790
:10F670000500FD8A0548BA97034735009305000247
:10F6800001456207BA9701473316E8007D8E01C62F
:10F6900005051375F50F0507E318B7FE81472146E9
:10F6A00033D7F640058B01C705051375F50F8507A0
:10F6B000E398C7FE828001458280411106C6EFF0C3
:10F6C0001FC1B240133515000605410182806FF05D
:10F6D000DFFE411106C6EFF09FBF0DC10357A50520
:10F6E0008356850503564507835525070355850031
:10F6F000EF40E05A0145B240410182800945E5BF33
:10F70000011106CE22CCEFF09FBC59C10346B500D3
:10F7100005472A849747FF1F938747456316E604EA
:10F72000F84F094515CF0346F40283461704835862
:10F73000C4030358A40383578403835584000345FB
:10F74000A4021307270432C00546EF40A0538347A5
:10F75000F40023050402014593E71700A307F40012
:10F76000F24062440561828003A7470809456DDBCA
:10F77000834657078358C4030358A403835784035D
:10F78000835584000345A4021307670702C075BFB1
:10F790000945F9B7011122CC06CE2A84EFF03FB318
:10F7A0002DCD8347A5020347051523138100A3022E
:10F7B000F1008347F514A304E1002304F100A9E359
:10F7C00083473515030755152306F10083073514C4
:10F7D0002305F100631DF7008947A305F1004800E8
:10F7E000EF40A04F0145F24062440561828003076B
:10F7F00045156314F7008547CDB7A3050100C5B7CC
:10F80000834765152305F10083471515A305F1000E
:10F810008347B5152306F100D9B70945E9B70111AA
:10F8200022CC06CE2A84EFF09FAA29CD8307651546
:10F83000A30481002180230581001307F007638F53
:10F84000E70203472503998FA305F10083470516B7
:10F8500013F7070101C72306010039A093F7070238
:10F8600081CF85472306F1002800EF40E04601459F
:10F87000F2406244056182808947EDB7FD57A305D8
:10F88000F100D1BF0945EDB7411106C6EFF03FA425
:10F8900019C98345051403558500EF40A043014570
:10F8A000B240410182800945E5BF9375F50F011112
:10F8B0002E8506CE22CC2EC6EFA0E00C0DC12A84E8
:10F8C0008346E506B245034575010546EF40004015
:10F8D0000145A30B0400F2406244056182800945A2
:10F8E000DDBF411106C6EF40203EB2400145410157
:10F8F000828041119747FF1F9387472722C4E05B0F
:10F9000006C6094511C80355240BEF40A03B9307D9
:10F91000F00F2319F40A0145B240224441018280CC
:10F920009747FF1F93878724FC5B99CB4111138571
:10F93000070B06C6EF40C038B24001454101828046
:10F9400009458280411106C622C4EFF05F980DC9B7
:10F9500083467514034665142A8483558500034540
:10F96000A5028506050693F6F60F1376F60FEF400F
:10F97000E034014523050402B24022444101828063
:10F980000945DDBF397106DE22DC26DA4AD8EFF000
:10F990001F94630705168346B50005472A849747D9
:10F9A000FF1F9387A71C639EE60AE44F0945C1C465
:10F9B00083C704031946898BC9C793852403280884
:10F9C0009710FF1FE780600583C714041389240480
:10F9D0001946898BB5CFCA8508109710FF1FE7809D
:10F9E000C003CC541946910528109710FF1FE780DB
:10F9F000C0028347F4028358840383C61404034679
:10FA0000B400835584000345A4023EC48357C40355
:10FA10001308010238103EC28357A4033EC03C08BD
:10FA2000EF4060288347F40023050402014593E773
:10FA30001700A307F400F2506254D25442592161D6
:10FA40008280814528089710FF1FE7808000ADBFA6
:10FA5000814508109710FF1FE780A0FF1946CA854F
:10FA600061B783A447080945F9D483C744061946FA
:10FA7000898BB5C39385640628089710FF1FE7801C
:10FA8000C0F983C74407138964071946898BB9CB2A
:10FA9000CA8508109710FF1FE78020F883A5440847
:10FAA0001946281091059710FF1FE78000F783A7DC
:10FAB000440883C7370093E72700A38AF4068358D6
:10FAC000840383C654070346B4008355840003456A
:10FAD000A40202C425BF814528089710FF1FE780B4
:10FAE00040F745B7081081459710FF1FE78060F683
:10FAF0001946CA8528109710FF1FE78000F2C1B78A
:10FB0000094515BF411106C6EFF06FFC0DC1035743
:10FB1000851B8356651B0356C51B8355A51B0355C3
:10FB20008500EF4000180145B2404101828009453F
:10FB3000E5BF411106C622C4EFF06FF90DC92A8452
:10FB40000357A505835685050356450783552507A5
:10FB500003558500EF40601483471401014593E786
:10FB60004700A308F400B2402244410182800945C5
:10FB7000DDBF411106C6EFF08FF509CD035685189C
:10FB80009305051803558500EF40E0100145B2408C
:10FB9000410182800945E5BF411106C622C4EFF04C
:10FBA0000FF30DC12A841306051083558500034504
:10FBB000A502EF40000E014523050402B240224495
:10FBC000410182800945DDBF411106C622C4EFF024
:10FBD0000FF00DC52A840357A505835685050356E6
:10FBE0006505835585000345A502EF40400A0145A0
:10FBF00023050402B2402244410182800945DDBF51
:10FC000001111375F50F06CEEF90F05739C99747DC
:10FC1000FF1F9387A7F583A7070D93F707209DC3C1
:10FC200002C402C202C0814801488147014781469F
:10FC3000054681451305C003EF40E0060145F2404B
:10FC400005618280834695031307A50302C081489E
:10FC500001488147054681451305C003EF408002F6
:10FC6000F1BF0945E9BF9747FF1F938727F003A717
:10FC70004708094529CB83A7070D011106CE93F745
:10FC800007208DC302C402C202C0814801488147D7
:10FC90000147814601468145EF40E000F2400145C1
:10FCA00005618280835807020358A701835707051F
:10FCB00083465707014602C0130767078145094578
:10FCC000EF30507CE1BF8280014582800145828017
:10FCD0000145828001458280014582800145828004
:10FCE00001458280014582800145828001458280F4
:10FCF00001458280014582800145828001458280E4
:10FD00000145828001458280411106C622C426C277
:10FD100083470500130700086395E7028347150032
:10FD20001307500205446364F7068A0717C70000EB
:10FD30001307C74DBA979C4303552500829701448A
:10FD4000B9A01307100805446393E704834715001F
:10FD50004D476389E70E6363F7022147638EE70827
:10FD60003147638EE70A15476393E7020355250081
:10FD7000EFF0EFD52A841DE9094411A81307000309
:10FD8000638FE70E636BF7006947638FE70C22858B
:10FD9000B240224492444101828013077005638E71
:10FDA000E70E138417F033348000D5B7832785110D
:10FDB00095C7035625040506420641829C43130756
:10FDC0001600420741839DE72311C40401CA8355ED
:10FDD00084000545EF30F069231104040345A402B3
:10FDE0000346240583558400EF3070672285EFF0C9
:10FDF000EFBFB1B73A86D9B703552500EFF02FCD45
:10FE00002A843DD90346A504835585000345A502F0
:10FE10003336C000EF30F064230504020DB70355FC
:10FE20002500EFF0CFCA2A8421D903570505835650
:10FE3000E5040346D504835585000345A502EF304C
:10FE40009062D9BF03552500EFF06FC8AA840DD585
:10FE500003562504014405DE835585000545EF3032
:10FE600050612391040425B703552500EFF02FC6F8
:10FE7000E30405F00345A502EF30F05FC9B5035573
:10FE80002500EFF0CFC42A84E30805EE83558500F2
:10FE90000345A502EF30705E41B703552500EF30F2
:10FEA000105E71BD011122CC2A84114506CE2EC6EA
:10FEB00032C4EF308F871DC1B24522462311850021
:10FEC0002300B500A300C5006244F240AA8517458F
:10FED000FF1F0345159F05616F308F90F24062440C
:10FEE000114505618280411106C622C4EFF02FBE84
:10FEF00041C183270512230D05002A84A5C30347AA
:10FF0000F500058B19EB03558400014693050008A5
:10FF1000EFF05FF939C5014581A8D44303C6C70096
:10FF200083C58700035585008906EF30705505E5C8
:10FF30008327041203D7A700A3840700136707F0E1
:10FF40002395E7009C432320F4128357040481C7C0
:10FF5000FD172310F40483270412D5F7231004049B
:10FF60005DBF8547230DF400B240224441018280E9
:10FF70000945DDBF41119747FF1F938727BF26C261
:10FF80009744FF1F938444B422C4E05B9C4006C6A0
:10FF90004AC098430D8B05C3B84B619BB8CB9843BF
:10FFA0001367870098C39C438D83858B89C70100A5
:10FFB0000100010001009747FF1F9387A7AE9443FC
:10FFC00037C7898E130767ED98C637575500130753
:10FFD0005755D8C2034724029306F00F3E896307A2
:10FFE000D700FD57A300E4022301F40203451402E5
:10FFF00089476303F500014598405C4393E7170088
:020000021000EC
:100000005CC3930710FA2305F4009747FF1F83C7CB
:1000100077AA81CF1747FF1F0347C7A995476316E4
:10002000F7009747FF1FA38707A81747FF1F03473E
:1000300057A89D476318F700930770101747FF1FD5
:10004000231AF7A695471747FF1FA304F7A60146F3
:100050009747FF1F238C07A49305F00F9747FF1FB7
:10006000238807A4112B90409747FF1FA38207A462
:100070009747FF1FA38C07A285471CC2832709004F
:10008000B705330098431377F7E798C3984313777E
:10009000F7E71367071098C31747FF1F130707A752
:1000A00018431447CD8E14C79306900D34CA545785
:1000B000F59A54D7034794009376F707984313773C
:1000C00007F8558F98C3B240224492440249410137
:1000D000828041119747FF1F938747A922C406C614
:1000E000E05B9747FF1F83C7F79C81CF1747FF1F30
:1000F0000347479C89476316F7009747FF1FA38B69
:10010000079A9746FF1F83C6D69A9387A6FF93F751
:10011000F70F0547636AF7009747FF1F238CD798AF
:100120009747FF1FA388E7982525684023150400FB
:10013000230404009720FF1FE780809C9145231033
:10014000040423220404232404041735FF1F034559
:100150005577EF308FDAA1451735FF1F03457576C8
:10016000EF30AFD9034514039307F00F6307F50091
:10017000EF30AFDDFD57A308F402034504039307F6
:10018000F00F6307F500EF304FDCFD572308F40252
:10019000B240224441018280011126CA9744FF1FC8
:1001A0009384C49C22CC03A4040B4AC84EC652C4F8
:1001B00056C206CE2A898149130A2500854A29E8B4
:1001C0009305802031459720FF1FE78040862A84D1
:1001D00001453DC083471900194693052900A30036
:1001E000F400130524009710FF1FE780008383A706
:1001F000040BA1EF9747FF1F23A287A2232404002B
:1002000083C7C40A85071747FF1F2307F7A025A048
:1002100003471400834719006305F700A2890044CF
:1002200079BF1946D285130524009710FF1FE78078
:10023000C087E31555FF0545F2406244D244424968
:10024000B249224A924A05618280E38909FA23A4CD
:1002500089006DB79747FF1F9387479103A5070B49
:1002600011E99747FF1F23AB079A9747FF1F238585
:10027000079A8280411106C622C400459720FF1FBD
:10028000E7800088228575F8B24022449747FF1F17
:1002900023A607989747FF1F238007984101828074
:1002A0009747FF1F9387878C23A8070A2386070A8F
:1002B0008280411106C69710FF1FE78040C4B240FC
:1002C0000145410182801736FF1F1306A67D1C429F
:1002D000B7068000B71501809843938585E7558F51
:1002E00098C39843B7060010558F98C31307001D95
:1002F000D8DB1737FF1F0347676393169701CD8E2F
:10030000D4D7D457B70500821377F703FD15ED8EC8
:100310006607558FD8D7371700409307700523001D
:10032000F704930780FA2300F7049736FF1F83C66C
:10033000E65FB54763FBD7028357270293E70701C0
:100340002311F7021842B7070900938737081CD317
:1003500037E700E0D147A309F7049717FF1F9387FA
:1003600007D893E717007CD7828083572702C207FC
:10037000C183BD9BC207C183E1B79307C00363E29A
:10038000A706130780029547636BA704714791473F
:100390006367A70459478D476363A70449478947A3
:1003A000636FA70239478547636BA70231478147CF
:1003B0006367A7022947FD576363A7022147F557E3
:1003C000636FA7001947ED57636BA7000D47E1570F
:1003D0006367A7000547C1576373A700D1573E85E0
:1003E00082809947EDBFC5576340F5065557894749
:1003F000634AE504655791476346E50471579D4795
:100400006342E5047957A547634EE502AD47634B68
:100410000502B54705C90547BD476305E50209471C
:10042000CD476301E5020D47DD47630DE500114748
:10043000F5476309E50015479307D0036314E5000A
:10044000930790023E8582808547EDBF9737FF1F57
:10045000938787659C4399CB944BD04B9842518F9F
:1004600098C294439C479842D98F9CC29737FF1FEC
:10047000938747631736FF1F13060665937625009B
:100480009843032806009737FF1F83C7C762C1C67A
:100490001443F578FD18B3F616010963B3E6660058
:1004A00014C3D1769388F6FF14438E050D4E9385C1
:1004B000B50293876723B3F61601631CC503116564
:1004C000C98E14C335673D072326E8000F100000CE
:1004D0001842930600F88605232467001736FF1F8D
:1004E0002308D65CBE958605BD676CD3BD075CC787
:1004F000828014C335673D072326E8000F100000F3
:100500001842930600F8232467001736FF1F2301C3
:10051000D65A8E05C1BFF5769388F6FF1443058938
:100520009387E709B3F6160105C514C335673D0780
:100530002326E8000F10000018428966AD0514C795
:10054000930600F81736FF1F2304D6568A0559BFB5
:100550000565C98E14C335673D072326E8000F10D3
:10056000000018428966A90514C7930600F81736DB
:10057000FF1F230FD65271BF9737FF1F9387C752B4
:100580009C4389CFD44303A887009842336707016F
:1005900098C2D447DC4B9842D98F9CC29737FF1F33
:1005A00093874750137725009C4335C39843F576CE
:1005B000FD16758F8966558F98C337070900130795
:1005C000670898D3372737001307F72D98CB3727BD
:1005D00030084517D8CB371703001307976198CF1A
:1005E0000D671307E78D98D73767000113070731A9
:1005F0009E05D8D3938545369737FF1F23AEB74A5C
:1006000011C606069737FF1F23A8C74A82803707FF
:1006100009001307370898D33727100813071790D6
:10062000D8CB371703001307476298CF0D6713071E
:10063000E78B98D73767000113070731D8D3757751
:100640009306F7FF984305489505758F631C0501D0
:1006500098C337272D001307072D98CB8E05938558
:10066000C50359BF8566558F98C3372737001307D1
:10067000072D98CB9205E5B79737FF1F83C79743A0
:100680008DE71737FF1F0347D7429307B7FF93F74D
:10069000F70F894663EBF6009737FF1F238CE7407F
:1006A00085471737FF1FA307F7408280411106C611
:1006B0001737FF1F034707409D476310F70497371D
:1006C000FF1F83C7A740858B1736FF1F034636429F
:1006D0009736FF1F83C6A641B5C79737FF1F93877D
:1006E000E740C84325C1834515000905F92B11C50D
:1006F00085471737FF1FA30FF73A1737FF1F034729
:10070000673B9547631CF7009737FF1F93870746A2
:10071000FC5B83C7B70095CBEFF0DF851737FF1F72
:100720000347473999476312F7029737FF1F9387AB
:10073000E74383A7470883C7770081CBB2404101D5
:100740006F90D0638145014555B7B2404101828029
:100750001737FF1F130747371C4394438D8A85C201
:10076000B44BE19AB4CB944393E6860094C39C4384
:100770008D83858B89C70100010001000100973737
:10078000FF1F9387273294439C4293F7F7E793E741
:1007900007089CC29737FF1F938747379043B706D8
:1007A000CEFFFD161C46F58F1CC61C431307000820
:1007B000B8CB9737FF1F9387272F9C4399CBD44300
:1007C00090479842518F98C2944BDC4B9842D98FF6
:1007D0009CC29737FF1FA38E072C82801737FF1FFD
:1007E0001307872E1C43411106C683A8070022C4A5
:1007F0003A8893F8380063810802B84B619BB8CB04
:1008000098431367870098C39C438D83858B89C762
:1008100001000100010001009737FF1F938787281F
:100820009C431734FF1F1304642837033300D85741
:10083000719B13671700D8D703280800584823284E
:10084000E80698431377F7E798C398431377F7E7D9
:100850001367071098C31737FF1F1307272B184379
:1008600083288700B3E86800232417019308A00DAC
:10087000232818059308000A23221807D1C94C57CA
:1008800013650504F5994CD71377F507884313755D
:1008900005F8598D3747767188C31307971298C7A3
:1008A0003757550013075755D8C39737FF1F238075
:1008B00007209737FF1FA38C071E9737FF1F238939
:1008C000071E83274800B6850145F99B2322F800BF
:1008D0009710FF1FE78000A69737FF1F9387C71C5D
:1008E000984311C7544318479C42D98F9CC28347F1
:1008F0003400858B91CB9737FF1F83D7A7278507B8
:100900001737FF1F2318F726B24022444101828087
:100910004C57F5994CD71377F5078843137505F8AD
:10092000598D37C7898E88C3130767ED8DBF0111B5
:1009300026CA4AC84EC6C1643709006AB70900AC66
:1009400022CC52C406CE0544FD141309690E9389C6
:10095000E90C130A000205E49305000F4145EF304E
:100960006FA2B7B7006A4205938767CE5D8DF240EC
:100970006244D2444249B249224A05618280A68536
:100980000145EF306FA29317850013F7071033E589
:10099000270119C333E5370181470147E145B356C4
:1009A000F50085073356F500858A058A6307D6006A
:1009B00005071377F70F63E4E504E39247FF8147E8
:1009C0001306F003ED463357F5001377F70305CB15
:1009D0006307C7028507E398D7FE1357850093770F
:1009E000F50F1377F70FE394E7F813570501137723
:1009F000F70FE39EE7F613578501E39AE7F6050440
:100A00001374F40F89BF9737FF1F9387270A9C4FF2
:100A1000CDC7411106C622C426C24AC0392A173999
:100A2000FF1F13092908F129EFF0FF898327090027
:100A3000F576FD1698439734FF1F9384240D1734E1
:100A4000FF1F13046408758F98C39843B7063300DB
:100A50001377F7E798C398431377F7E713670710FF
:100A600098C398401C47D58F1CC71C401307D00D56
:100A7000B8CBC125EF10403D0125BD2D032709004E
:100A80001C4393F7F7E793E707081CC39440370725
:100A9000CEFF7D179C46F98F9CC61C4013070008AB
:100AA000B8CBEFF07FBDB24022449737FF1FA3823F
:100AB0000700924402494101828082809737FF1FDC
:100AC00023A407FEB7C70040138707309736FF1FE0
:100AD00023A8E6FC138707209736FF1F23A6E6FE10
:100AE0009387071037D7004041119736FF1F23AF78
:100AF000E6001737FF1F2327F7FA06C61737FF1F31
:100B00001307C7FA8547A303F7009737FF1F93879B
:100B1000A7E09C431CCF938707115CCBEFF0BFEE9F
:100B2000B7E700E037071000B24023A0E71037070F
:100B3000200023A0E710410182809737FF1F938791
:100B4000A7F89C431307C00893066007D8CBD4CFFF
:100B5000D8D31306C003D0D7D8DBD0DFF8C31737FC
:100B6000FF1F1307A7F4184FF4C7F8DB41677D1781
:100B700098C73D673D07D8C737E700E0D547230949
:100B8000F7049717FF1F938747A993E717003CD7F0
:100B900082809737FF1F938767F794439737FF1F2C
:100BA000938747F09C436387051037B724001307EA
:100BB000F7E96366A7089843137707F813675702A6
:100BC00098C313F7150001CB93F5050341476390D4
:100BD000E50E13050583D856370810FE7D181367F8
:100BE0002700D8D64167130707A03356E5023375AF
:100BF000E5021307A00F7D8A93154601F042337674
:100C000006014D8EF0C23706FCFF2A053355E5027A
:100C1000F842718F3A053981598DE8C21737FF1FA5
:100C20000347C7EA098B19CB98431377F7079366F5
:100C300007049843137707F8558F98C382803707C6
:100C400025001306F7486363A6023767DBFF130727
:100C500007932A971306007D3357C7027D179043E9
:100C60001377F707137606F8518F99BF13070749D3
:100C70006318E5009843137707F81367670289B78D
:100C800037D725001307F777636DA7003767DBFFBA
:100C9000130707932A971306007D3357C702791766
:100CA0007DBF9843137707F81367770211BF1305C9
:100CB00085C115B7D8561375F507759BD8D69843D7
:100CC000137707F8598D88C391BF9737FF1F938714
:100CD000E7E983A7870991CF054582800545F24062
:100CE0006244D2444249B249224A924A024B0561C7
:100CF0008280011126CA9734FF1F938424DD9C440F
:100D000006CE22CC4AC84EC652C456C25AC0F9D7E3
:100D10001739FF1F130949DB8327090098430D8BFF
:100D200005C3B84B619BB8CB98431367870098C342
:100D30009C438D83858B89C7010001000100010060
:100D40001734FF1F130484DA8347C400B68A328B3A
:100D5000918BAE892A8A89EB9735FF1F83C505D70A
:100D600093F70504639C071481451735FF1F03455E
:100D7000F5D5EFF01FE21735FF1F034525D5118587
:100D800001469735FF1F83C525D60D89EFF0CFFEAD
:100D90001737FF1F130707D194441C4394C7D4444B
:100DA000D4C383C7040083260900BA84858BDCC2C0
:100DB0009737FF1FA38D67D39737FF1F238957D31B
:100DC000DC42858BB1CF5C4085E31735FF1F0345BF
:100DD000B5D19305900409059710FF1FE78020C542
:100DE0009737FF1F23A6A7D05C40E38907EE17378C
:100DF000FF1F0347C7CF2380E7005C4063060A0C50
:100E00006384090CA380370148404E86D2850905CA
:100E10009700FF1FE78060C0832709005840B8DBB8
:100E2000EFF09F858347E40093E747001737FF1FE4
:100E30002305F7CC930700041737FF1F2308F7C6D5
:100E40009737FF1F238607C69D471737FF1FA3024B
:100E5000F7C69737FF1F938727AC9C5791CB130694
:100E60000064C1451735FF1F034545C9EF20EFEC6E
:100E70009737FF1FA38E07C2832609009737FF1FEE
:100E8000A38607C2984085479CC21C43370633009F
:100E9000014593F7F7E71CC31C4393F7F7E793E784
:100EA00007101CC39737FF1F938747C698431C47FB
:100EB000D18F1CC79307900DBCCA15B593F50503D8
:100EC00093E51500C84075B5A3800700B1B7973703
:100ED000FF1F9387A7C39443056713071710D8C64E
:100EE000514701007D1775FF98432326070051479E
:100EF00001007D1775FF98438567938717105CC7BE
:100F00008280411106C6EFF09FFC9737FF1F938741
:100F1000E7BF9C43130700483703009098D7B847B2
:100F20007D13370E0020337767003367C701B8C7DA
:100F3000B847B70600F9FD16758F37060004518FC4
:100F4000B8C7B8473706F9FF7D16419B136797006E
:100F5000B8C7B847B7080080B70E0002718FB8C78E
:100F6000B847370600FF7D1633671701B8C7F84743
:100F700045757D1E619B13673700F8C7F8471377E7
:100F8000F7F813670703F8C7EC4793F5F58F93E578
:100F90000530ECC7F847718FF8C7F847116633671B
:100FA000D701F8C703A807051307F5FF7D75337848
:100FB000E8003368C80023A8070503A847057D1586
:100FC000137808FF1368480023AA0705F04B13663F
:100FD0000608F0CBF04B698EF0CBC85F798D2167A6
:100FE000598DC8DFCC5F37070040F58DB3E5D501DB
:100FF000CCDFD05FB70570003376C601598ED0DFE5
:10100000D05709674D8ED0D7D057F18ED4D7D4574B
:1010100075767D16F18ED98ED4D7D4573706FDFF5D
:101020007D1637070200F18ED98ED4D7945BC19A12
:1010300094DB945B93F6F6F094DB945B93F6F68F77
:1010400094DB985BB70600504D8F98DB985B337745
:101050006700558F98DB985FB70608FFFD16758F00
:10106000B7068800558F98DF985FB368170123ACE7
:101070001703B240410182801737FF1F130707A9EA
:101080001C4341767D16B44BF18EB4CB94473706A2
:101090002000D18E94C7D44793E60601D4C7D44725
:1010A000BD9AD4C701000100010001001443056688
:1010B000DC4693E70701DCC6DC42D18FDCC283A7A4
:1010C000C609A183858BE5DF010001000100010055
:1010D0001C43416603A7C709B44BD18EB4CB9376AA
:1010E000F701B84B019B558FB8CB9847B706E0FF87
:1010F000FD16758F98C782809737FF1F938707A1CA
:101100009C4341777D17B44F4166F98EB4CF944725
:10111000D18E94C7D44793F6F6EFD4C7D443758FD6
:10112000D8C3D44793E60610D4C7D843518FD8C349
:101130008280397122DC1734FF1F1304249D1C4068
:1011400006DE26DA4AD84ED652D456D25AD05ECED1
:1011500062CC66CA6AC86EC6D843FD76FD161377A0
:10116000F7EFD8C39857758F98D7D857B7060200AE
:101170003D9BD8D79847558F98C7D8431367070129
:10118000D8C303C7918C83C6A18C558F61EFD84318
:1011900081749384F40F799BD8C3985FB16693866A
:1011A00006F0658F558F98DFD84313671700D8C3B3
:1011B0009710FF1FE780A0841C4003A7070913773F
:1011C000F703A384E18C03A7470929831377F70763
:1011D0002385E18CD843B96693860670799BD8C382
:1011E000985F658F558F98DFD84313671700D8C372
:1011F0009710FF1FE780A0801C4003A70709137703
:10120000F7039736FF1FA385E69003A747092983B5
:101210001377F7079736FF1FA388E68ED843B56686
:1012200093860630799BD8C3985F658F558F98DF7A
:10123000D84313671700D8C39700FF1FE780207CAF
:1012400018408327070993F7F7039736FF1F238179
:10125000F68C83274709A98393F7F7071737FF1FF2
:101260002304F78A1C40173CFF1F034C6C8A83C67B
:10127000918C03A7070AB386864113F6F600419BBB
:10128000518F23A0E70A130760023387E602130693
:10129000700283A5070A7D7E130EFE0F93F5F5F00D
:1012A0001305400245737D13130430023347C70210
:1012B000B708F1FFFD1813082002930E10027D4FAE
:1012C000F94FF542F1436D4DD14B454BBD44394982
:1012D000314AAD4AB5493D8B12074D8F93055002F7
:1012E00023A0E70A3387B60283A5070AB3F5C50131
:1012F0003347C7023D8B22074D8F23A0E70A338770
:10130000A60283A5070A370500F17D15B3F5650030
:101310003347C7023D8B32074D8F23A0E70A33873F
:10132000860283A5070A6144B3F515013347C70256
:101330003D8B42074D8F23A0E70A3387060383A521
:10134000070A370810FF7D18B3F505013347C702B8
:101350003D8B52074D8F23A0E70A3387D60383A521
:10136000070AB70E0010FD1EE98D3347C7023D8BFB
:1013700062074D8F23A0E70A139756003347C70231
:101380009315C70103A7070A3377D7014D8F23A011
:10139000E70A3387E6035D4F3347C7029375F700CB
:1013A00003A7470A419B4D8F23A2E70A3387F60321
:1013B00083A5470AD94F93F5F5F03347C7023D8B14
:1013C00012074D8F23A2E70A3387560283A5470AE7
:1013D000D542B3F5C5013347C7023D8B22074D8F78
:1013E00023A2E70A3387760283A5470ACD43B3F5E4
:1013F00065003347C7023D8B32074D8F23A2E70AB2
:101400003387A60383A5470A494DB3F51501334732
:10141000C7023D8B42074D8F23A2E70A69473387F6
:10142000E60283A5470AB3F505013347C7023D8BA2
:1014300052074D8FE54523A2E70A3387B60283A5FD
:10144000470AE98D3347C7023D8B62074D8F23A2C0
:10145000E70A338786020D443347C7029315C70155
:1014600003A7470A3377D7014D8F23A2E70A3387B3
:10147000E603254F3347C7029375F70003A7870A92
:10148000419B4D8F23A4E70A3387F60383A5870A80
:101490009D4F93F5F5F03347C7023D8B12074D8FF3
:1014A00023A4E70A3387560283A5870A9942B3F536
:1014B000C5013347C7023D8B22074D8F23A4E70A9E
:1014C0003387760383A5870AB3F565003347C702E0
:1014D0003D8B32074D8F23A4E70A3387760283A51D
:1014E000870A9543B3F515013347C7023D8B420781
:1014F0004D8F23A4E70A3387A60383A5870A294DC6
:10150000B3F505013347C7023D8B52074D8F23A426
:10151000E70A3387660383A5870AE98D3347C70245
:101520003D8B62074D8F93954600B3C5C50223A43A
:10153000E70A03A7870A3377D701F2054D8FB385F2
:10154000960223A4E70A03A7C70A419BB3C5C502B5
:10155000BD894D8F23A6E70A3387260383A5C70AD3
:1015600093F5F5F03347C7023D8B12074D8FB3C596
:10157000860223A6E70A03A7C70A3377C701BD89F6
:10158000A2054D8F23A6E70A3387460383A5C70A22
:10159000B3F565003347C7023D8B32074D8F23A655
:1015A000E70A3387560383A5C70AB3F51501334706
:1015B000C7023D8B42074D8F23A6E70A3387A60358
:1015C00083A5C70AB3F505013347C7023D8B520710
:1015D0004D8F23A6E70A3387E60383A5C70AE98D63
:1015E0003347C7023D8B62074D8F93953600B3C5D5
:1015F000C50223A6E70A03A7C70A3377D701F20576
:101600004D8FB385F60323A6E70A03A7070B419B7B
:10161000B3C5C502BD894D8F23A8E70A338756029B
:1016200083A5070B93F5F5F03347C7023D8B1207EF
:101630004D8F23A8E70A3387760283A5070BB3F5FE
:10164000C5013347C7023D8B22074D8F23A8E70A08
:10165000139726003347C70283A5070BB3F5650030
:101660003D8B32074D8FB3C5360323A8E70A03A786
:10167000070B33771701BD89C2054D8F23A8E70AF1
:10168000139716003347C70283A5070BB3F505016F
:101690003D8B52074D8FB3C5C60223A8E70A03A7A7
:1016A000070B698FBD89E2054D8F23A8E70A03A7C1
:1016B000070B930580023377D70123A8E70A172782
:1016C000FF1F0347F7443307EC40B34DB70283AC29
:1016D000470B93FC0CFFB34B770393FDFD00B3EC7A
:1016E000BC0123AA970B83AC470BCD4D93FCFCF0B8
:1016F00093FBFB00920BB3EB7C0123AA770BB30B9C
:10170000870283AC470BB3FCCC01B3CBBB0293FB8A
:10171000FB00A20BB3EB7C01B34CA70323AA770B0E
:1017200083AB470BB3FB6B0093FCFC00B20CB3EB39
:101730009B0123AA770BA14BB34B770383AC470BD9
:10174000B3FC1C0193FBFB00C20BB3EB7C0123AA8F
:10175000770BB30B570283AC470BB3FC0C01B3CB35
:10176000BB0293FBFB00D20BB3EB7C0123AA770BEC
:10177000B30BF70383AC470BB3FCAC00B3CBBB029A
:1017800093FBFB00E20BB3EB7C01B34C770223AA83
:10179000770B83AB470BB3FBDB01F20CB3EB9B0185
:1017A000B30CE70323AA770B83AB870B93FB0BFFE9
:1017B000B3CCBC02B30A570393FCFC00B3EB9B0110
:1017C00023AC770B914B83AC870B93FCFCF0B34BB2
:1017D0007703330A470393FBFB00920BB3EB7C01C7
:1017E00023AC770B83AB870BD54CB3FBCB01B3CAD0
:1017F000BA02B309370393FAFA00A20AB3EA5B010B
:1018000023AC570B83AA870BD94BB3FA6A00334A30
:10181000BA0233092703137AFA00320A33EA4A017B
:1018200023AC470B03AA870BE14A337A1A01B3C9E9
:10183000B902B304970293F9F900C209B3693A01F6
:1018400023AC370B83A9870B654AB3F909013349E8
:10185000B902B3C4B4021379F900520933E929017A
:1018600023AC270B03A9870BE9493379A900330B74
:101870006703BD88E204B36499001319470023ACE1
:10188000970A83A4870BB3F4D4013349B902334BCD
:10189000BB027209B3E4240123AC970A83A4C70BEB
:1018A000C198137BFB0033EB6401C944B304970276
:1018B00023AE670B03A9C70B5D4B1379F9F0B3C4D3
:1018C000B402BD889204B364990023AE970AB304AE
:1018D000B70303A9C70BF54D3379C901B3C4B402EB
:1018E000BD88A204B364990023AE970A8944B34427
:1018F000970203A9C70B33796900BD88B204B364AA
:10190000990023AE970AB304970303A9C70BF94CB8
:1019100033791901B3C4B402BD88C204B364990019
:1019200023AE970AB304770303A9C70BFD4B3379A2
:101930000901B3C4B402BD88D204B364990023AED4
:10194000970AB304670303A9C70B130B100233797B
:10195000A900B3C4B402BD88E204B364990023AE05
:10196000970AB304570303A9C70B930A20023379DC
:10197000D901B3C4B402F204B364990023AE970A48
:10198000B304470303A9070C130A3002137909FFB4
:10199000B3C4B402BD88B364990023A0970CB30408
:1019A000370303A9070C930940021379F9F0B3C474
:1019B000B402BD889204B36499006D4923A0970CCA
:1019C000B304270303A9070C3379C901B3C4B402D4
:1019D000BD88A204B364990023A0970CF144B3041A
:1019E000970203A9070C33796900B3C4B402BD8818
:1019F000B204B364990023A0970CB304B70303A9FE
:101A0000070C33791901B3C4B402BD88C204B364AE
:101A1000990023A0970CB304970303A9070C33790B
:101A20000901B3C4B402BD88D204B364990023A0F1
:101A3000970CB304770303A9070C3379A900B3C447
:101A4000B402BD88E204B364990023A0970C9314F8
:101A50005700B3C4B4021399C40183A4070C33061E
:101A6000C702B3F4D401B3E4240123A0970C03A963
:101A7000470C137909FFB3046703B3C4B402BD88EC
:101A8000B364990023A2970CB304570303A9470C2E
:101A90001379F9F0B3C4B402BD889204B364990019
:101AA00023A2970CB304470303A9470C3379C90158
:101AB000B3C4B402BD88A204B364990023A2970CF6
:101AC000B304370303A9470C33796900B3C4B402E4
:101AD000BD88B204B36499001309500223A2970C85
:101AE000B304270303A9470C33791901B3C4B40223
:101AF000BD88C204B364990023A2970C93046002CA
:101B0000B304970203A9470C33790901B3C4B402A3
:101B10003346B602BD88D204B364990023A2970C61
:101B200083A4470CE98C3D8A6206458E23A2C70C2C
:101B300003A6470C9314C7013376D601458E23A222
:101B4000C70C130690023306C70283A4870CC19802
:101B50003346B6023D8A458E23A4C70C1306A00265
:101B60003306C702B345B60203A6870C1376F6F018
:101B7000BD899205D18D23A4B70C9725FF1F83C57E
:101B8000A5F81726FF1F034636F83386C540B30471
:101B9000A60303A9870C3379C901B3C4E40293E413
:101BA0008400BD88A204B364990023A4970CB304F5
:101BB000E60303A9870C33796900B3C4E40293E414
:101BC0008400BD88B204B364990023A4970C9314D5
:101BD0003600B3C4E40203A9870C3379190193E4F6
:101BE0008400BD88C204B364990023A4970CB30495
:101BF000F60303A9870C33790901B3C4E40293E423
