:040000006F00006528
:1000040000000000000000006F0080086F00401E28
:1000140000000000000000000000000000000000DC
:1000240000000000000000000000000000000000CC
:100034006F004006000000006F00E00500000000B3
:100044006F0080056F0060056F0040056F0020059C
:100054006F0000056F00E0046F00C00400000000A2
:100064006F0060046F0040046F0020046F00000400
:100074006F00E0036F00C003000000006F00600326
:100084006F0040036F0020036F0000036F00E00265
:1000940001A001A001A001A001A001A001A001A054
:1000A40001A001A001A001A001A001A001A001A044
:1000B40001A001A001A001A001A001A0B717004068
:1000C400930670052380D704130780FA2380E7047E
:1000D40003C6B7041376F60DA385C704238007046B
:1000E400137605022DC603C6A700118A0DE22380EC
:1000F400D7042380E70403C7A700136747002385B9
:10010400E7009307004B01000100FD17EDFFB7174F
:100114000040930670052380D704130780FA2380D8
:10012400E7047D892394A700010001000100010078
:10013400238007042380D7042380E7049306100553
:1001440037270040A303D7802380070482801376D7
:1001540005046DDE03C6A700418A0DE22380D7049F
:100164002380E70403C7A700136707012385E7007B
:100174009307007D01000100FD17EDFFB717004054
:10018400930670052380D704130780FA7D892380A2
:10019400E704136505042394A7000100010001008E
:1001A4000100238007042380D7042380E7049306F7
:1001B40030053727004079B7411181460146814512
:1001C400114506C6912AB71700401307700523800E
:1001D400E704130780FA2380E70403C7670413675F
:1001E40017002383E70423800704B240410182807F
:1001F40081460146814511450522B7170040130782
:1002040070052380E704130780FA2380E7047D57F1
:100214002396E70203C76704136717002383E704E1
:100224002380070401A0BD473305F50201007D15B5
:1002340075FD8280411122C426C206C6AA840144E7
:1002440063179400B2402244924441018280050421
:100254001305803E4204C13F4180DDB7230304807F
:1002640015472303E48001002302A48082808307CE
:100274006480E3CE07FE23030480828083076480C6
:10028400E3CE07FE03454480828083076480E3CE87
:1002940007FE2302A4808280411126C44AC24EC0B4
:1002A40006C61377F50BAD47AA892E8995446306D4
:1002B400F70019456537653F8D444E854537FD592F
:1002C400FD1463983401B240A244124982494101A9
:1002D4008280135509011375F50F453F2209CDB7E7
:1002E400011126CC06CEB704080051371545BD3799
:1002F400713769372AC6A53F32459377150089EBD4
:10030400136515001375F50FF240E2440561828010
:10031400FD14E9FC0145CDBF397126DC4ADA4ED81B
:1003240052D656D45AD25ED006DE62CE66CCB7E739
:1003340000E07D5783AA070022C603AA470023A032
:10034400E71823A2E718B7170040130770052380A6
:10035400E704130780FA2380E70483C74704930B59
:1003640075FFB684E20793FBFB0F8546AA892E8BA3
:10037400328937240040E187015763FA7601630824
:10038400D5008946130700026313D5000157D98F9E
:1003940093F7F70FB71C00402382FC041147230393
:1003A400E4801305F00F5D3D094CD13563697C1180
:1003B400B70707003E9B378707007955637EEB023A
:1003C400B3079B00636AF702A9476399F90689E4B6
:1003D4008144713D26850DA0DA850945753D0509E1
:1003E4000345F9FFFD14050B4D3581C49377FB0FCD
:1003F400FDF7FD3569FD7D55B717004013077005FE
:100404002380E704130780FA2380E70403C7470423
:10041400418B2382E704F250B7E700E023A0571191
:1004240023A24711E25432445259C259325AA25AB1
:10043400125B825B724CE24C21618280A54763951A
:10044400F90685691309F00FB3069900B3742B01FB
:10045400B6941349F9FFB3749900856B3379690134
:10046400416B9387F9FFB3F7270199E363FC3401E8
:1004740093D94900C147E3E637FF99BF0569C169CC
:100484007D19D9B71305800D63886901130500022E
:100494006384790113051008CA85FD3B913521DD7C
:1004A4004E99B3843441D9B7DA852D45F533CA94CE
:1004B400E30099F20509D933A30FA9FED5BF9387A9
:1004C400F9FF93F7F70F636CFC0803C75C04B707E5
:1004D40008001377070219E3B78707007955E37D0E
:1004E400FBF033079B00E3E9E7F089476390F904E5
:1004F4008980D549E38E04ECDA850945713B1109FD
:100504000327C9FF91472320E48003076480E34E57
:1005140007FE23033481FD17EDFBFD14110B81C489
:100524009377FB0FE9FF6D3B71F5F1B58547E387E1
:10053400F9F4DA852D458D339389F4FFE38A04E8D1
:10054400353B93F7390091EB832604800327090098
:1005540093074900E39FE6E63E89CE84F1BFB547A1
:100564006396F9001305900BD5399DB5B147130572
:10057400B00AE38BF9FE9947639EF902DA852D45AB
:10058400213B81448D4BA149D5396396740183275E
:1005940004802320F9008504E39834FF8327048032
:1005A40013172B01635507002312F90015B52322F5
:1005B400F90039BD9D476399F90281451305B004DB
:1005C400E139BD442320090023220900FD597D316E
:1005D40093F77400CA9703C70700FD14398D23806D
:1005E400A700E39634FFEDB3A1476392F904CD3934
:1005F4008144630D0B008D479304C0036308FB0023
:100604009304000563048B01930440041375C50728
:10061400E30095DC194599319939054581312685E1
:10062400AD3109459D316D39E31405DAE9B39147DC
:100634006399F900130560061531153913059009FE
:0C06440025B7E38709D8F15469B3000022
:10065000974100209381011B178100201301819A8B
:1006600013054000973500209385C51917360020E3
:100670001306067E63FAC5008322050023A05500F9
:1006800011059105E3EAC5FE170500001305453184
:1006900097450020938505971746002013068696F8
:1006A00063FAC5008322050023A0550011059105BA
:1006B000E3EAC5FE174500201305C59497450020C1
:1006C000938545946377B500232005001105E36DFC
:1006D000B5FE9302800873A0023097320020938207
:1006E000621293E2120073905230970200009382DC
:1006F000020173901234730020304111054506C683
:1007000022C426C24AC0DD2213058004973000208F
:10071000E780001B1304A00F91208144A92813092E
:10072000A00F8504B3F7840291E39520252809EDF5
:10073000054597300020E7802030E5B713052003FA
:1007400097300020E780402F31286DF963052401A0
:100750001304A00FF1BF13044006D9BF8545370528
:100760004000D5A0B717004003A5470C5981134599
:10077000150005898280371700408327870A8D4539
:100780001305001093E707102324F70A11A8371761
:1007900000408327870A93C707102324F70A828023
:1007A000914763EEB702170700001307E71C8A059D
:1007B000BA959C41BA978287B717004003A7470BA9
:1007C0001345F5FF698F23AAE70A03A7070B698F73
:1007D00023A8E70A03A7070A798D23A0A70A828026
:1007E000B717004083A6470B1347F5FFF98E23AADE
:1007F000D70A83A6070B558D23A8A70A83A6070A45
:10080000758F23A0E70A8280B717004003A7470B24
:10081000498F23AAE70A03A7070B1345F5FF45BF36
:10082000B717004083A6470B1347F5FF758F23AA20
:10083000E70A03A7070A598D4DB7B717004003A76A
:10084000470B498FEDB7914763EEB70217070000DA
:100850001307C7138A05BA959C41BA978287B717C1
:10086000004003A7470D1345F5FF698F23AAE70C46
:1008700003A7070D698F23A8E70C03A7070C798D41
:1008800023A0A70C8280B717004083A6470D13470B
:10089000F5FFF98E23AAD70C83A6070D558D23A843
:1008A000A70C83A6070C758F23A0E70C8280B717CF
:1008B000004003A7470D498F23AAE70C03A7070DA4
:1008C0001345F5FF45BFB717004083A6470D1347F3
:1008D000F5FF758F23AAE70C03A7070C598D4DB7B9
:1008E000B717004003A7470D498FEDB705E9371744
:1008F0000040930770052300F704930780FA230054
:10090000F70483570702C207C18393F7F79FC20713
:10091000C1832310F7022300070482800111B7F579
:10092000070081463000B105194506CE97300020FA
:10093000E780C01EA24713972701634A0702B71733
:100940000040130770052380E704130780FA238013
:10095000E70403D70702136707402390E70203D792
:100960000702136707202390E70223800704F24061
:100970000561828044FEFFFF6CFEFFFF94FEFFFFD7
:10098000ACFEFFFFC6FEFFFFD6FEFFFFFEFEFFFF31
:0C09900026FFFFFF3EFFFFFF58FFFFFFA8
:00000001FF
