:020000021000EC
:100000006FD091320000000000180118002801286C
:100010000228032800290129022903290429052986
:10002000062907290829002A012A022A032A042A64
:10003000052AA62AA0E10200EE0E0100DA10010056
:100040001A1101008A100100781001006A3900209D
:100050003E110100221201004A120100A413010006
:100060003C140100FE0D01002E0D0100980D010051
:100070005A0D010020180100A63900203811010096
:100080009815010090A702004EA90200C0A9020025
:10009000026602001266020052020200A6F501008A
:1000A000C69D0200C6150100486C0200AEB20100F8
:1000B00034B301008CB3010062200100AE200100C6
:1000C000241F0100367201000C6D01002C7B010021
:1000D000F87E0100A08201008A5F0100285F010014
:1000E00006630100D65F0100FE5E0100825F010031
:1000F000B05E010052600100AA6001005A60010078
:100100005E600100FA600100B2600100E46001007D
:10011000FE650100066601004E60010056600100A8
:10012000F660010002660100A26101003A67010069
:10013000909001000A9101003891010016740100AD
:100140002E7401006A7401006C590100345A0100D8
:100150008C5A0100583C0100CE3701001C530100AD
:1001600040380100705201006AC20200F2BF020072
:100170009EC802007AD60200AED50200ECD802007A
:10018000E8D8020032B3020080D90200A4B0020015
:1001900010D9020022CF02003CCF020060CF020043
:1001A000F0D90200E6D302007CD3020060DA02003C
:1001B000B2B202003AB302005EB3020000B3020022
:1001C00060830200487202007C78020028730200FB
:1001D000727D0200669E02005C9D0200D4B00200A7
:1001E000A2190100A26702002C6C0200FE6C020042
:1001F0002A99020064990200DC990200FC77010050
:1002000020830200EA7D020082750200168002004F
:1002100004720200B014010060680200C085020090
:10022000268802006E880200D48602007613010040
:100230006475010050F50100DCC8020000000000F8
:100240006373B60082801C419105110523AEF5FE53
:10025000C5BF938781B4138701FF6373F700828062
:0802600023A007009107D5BFA0
:1002680049C5AA870145C1C58D07C207C183F19B4E
:10027800C207C183130740036366F70203A501B5EC
:1002880083A681B46393A60203A781D3014525C33E
:100298004111C20706C60545DD8D0297B2400145EA
:1002A8004101828003A5C1B4E1BF0357650005EF92
:1002B800035745006369F702B306F74021466370A8
:1002C800D6021041938687001D8FAA96611790C2A7
:1002D8002392E6002393060014C12312F50023138A
:1002E800B50021058280084171BF01458280828066
:1002F80009C903A801B583A581B40147C28763E38F
:10030800B70082809443636DF50663EBA6061386F7
:100318008700E368C5FE03D56700216605066317F5
:10032800C50003C641C10506238AC1C0239307003F
:100338006383070303A6C1B4630FF600035667007F
:1003480019EA83D7470014C383564700B697A10715
:100358002312F700BA879843E305B7FA83A6C1B416
:10036800E301D7FA83566700C9FE83D647000356D0
:1003780047001843A106B2962392D70098C38280FB
:100388003E87B687ADBF09CDB71700401307700584
:100398002380E704130780FA2380E7042396A70243
:1003A800828019C1814799E982803387F5008346A5
:1003B80007003307F50085072300D700E397C7FE3A
:1003C800E5B719C1FD5781E98280910503A7C5FFEB
:1003D8001105232EE5FE7D16E319F6FEF5B77971B2
:1003E80026D283A781D606D622D44AD04ECE52CC66
:1003F80056CA938481D681C7829723A00400DC4023
:1004080089CB03D5C1B54137DC40829703D5E1B527
:100418009D3F9C40639C0714938781F383C75700D3
:10042800138981F3858B85C303477900A3020900EB
:10043800914763FAE700052B83477900F9178A0784
:10044800A6979C43829783C781F8918B89C7973079
:1004580002E0E780C0639C4491C38297938641D4AD
:1004680003A781B503C61600138A81B5138441D446
:100478008347040093961700BA9683D60600638FC5
:10048800060C8347040063FBC70686073E9783551F
:1004980007002310070003D5C1B5938941B62EC6BE
:1004A80023900900CD350345040083A701B713172E
:1004B8002500B245BA979C438297AA8A03D5E1B52D
:1004C800D9358347040003D50900139717008327FC
:1004D8000A001345F5FF33755501BA9703D707008E
:1004E800598D2390A700834704000347140085070C
:1004F80093F7F70F2300F40063E4E70023000400F8
:100508009C40ADE703A781B6938481B625C3834792
:10051800B90081CB8347790089E7973002E0E7800B
:1005280020EE9C408297AA8431C11C48AA971CC817
:1005380083A7C1B685CF03D5C1B5B135268597D078
:1005480000E0E780C0652254B25092540259F24943
:10055800624AD24A03D5E1B5456135B5850793F7B7
:10056800F70F2300F400E3E5C7F021BFB25022548F
:1005780092540259F249624AD24A4561828091678F
:10058800B7C600409387373023A6F6200F10000027
:10059800938741D4884F83A781C6316713073730C3
:1005A800F053B7071000FD17918F99833A0523A6DA
:1005B800E6205D8D82804111B7170040985F3AC6EA
:1005C800945F3247E39CE6FE324541018280411147
:1005D80006C6D53703C6C1D1058A15CA9307303375
:1005E8003307F502B337F5023983CA07938541D437
:1005F800D98FD849938641D401456307F7006370C2
:10060800F7023385E740DCC9B24041018280E54703
:100618003307F502B337F5022583DE07C1BF376517
:100628003D0809C637856F0813050590198D3E9555
:10063800DCCAD9BF0327C50F8346B50083A701F5D8
:1006480058439386160295829043FD1693F6F60F4B
:1006580010C3D04350C3904710C7D04750C7904BE2
:1006680010CBD04B50CB904F10CFD04F50CF91C61E
:100678001307070293870702C1BF82808347E501FA
:1006880093F7E70FE1EB2A870345F50161E5034698
:1006980007018346870019C68345A70283C7D1D1BE
:1006A80063E7F50093F70601C5CB814709CA83477D
:1006B80007150346F714C18AA207D18F81CA83465A
:1006C8003715034747152207558FBA97D1C703A790
:1006D80041ED411122C406C67D548326070863F301
:1006E80086003684184375FB938681D083C64601FD
:1006F800138781D013968601618663560602938715
:10070800C71395830347E701BA97635F06021D8CF9
:1007180083A741B782973335A400B24022441345DA
:10072800150041018280858A9387C71289CA8A0782
:100738009387F7031305D007B3D7A702E1B7860756
:10074800FD071305D003CDBFE373F4FC3705C0A83C
:100758002A9475BF0145828082805D7126DC3AD279
:1007680003A781C53ED04EC81C5F86C696C4998330
:100778009AC29EC022DE2ADA2ED832D636D442CE8B
:1007880046CC4ACA72C676C47AC27EC0858B938428
:1007980081C5B9CF1C5F138481F393F7F7F91CDF88
:1007A80083C781F393F7070499CB83A741B782974F
:1007B80008C883C781F393F7F70B238CF1F28547B9
:1007C800A302F4008347440093F7070489EB83A747
:1007D80081C65844B8D3930700FC2302F40083076A
:1007E800640063D7070083A741C59C432303F40033
:1007F80098401C5F8583858BC1CBF5571CDF0100B2
:1008080001000100010001000100010001000100D8
:1008180001000100010001000100010001000100C8
:1008280001000100010001000100010001000100B8
:1008380001000100010001000100010001000100A8
:100848000100010001000100010001000100010098
:100858000100010001000100010001000100010088
:100868000100010001000100010001000100010078
:10087800010001000100010001000100010083A73F
:1008880081C613075004B8CB98401C5F9183858BB1
:1008980081CFBD571CDF83A781C6054723A807045E
:1008A800938781F32382E70083A741C5D843058353
:1008B800058B19C7D843759BD8C3D843799BD8C330
:1008C8007254B640A64216438643E2545255C25566
:1008D8003256A256125782577248E2485249C249C4
:1008E800324EA24E124F824F61617300203083A6B0
:1008F80081C6938781F3B85219CB03C72700058BAC
:1009080019E703C73700058B7DD72382070082804C
:1009180083A741C699CB944BD04B9842518F98C22C
:1009280094439C479842D98F9CC283A781C6B7C677
:100938000040A8CB9305C00313062003138781F357
:1009480083A78620C18393F7F70363E9F50083A79C
:100958008620C18393F7F7036366F6008347470051
:10096800858BF9DF828083A681C6938781F3B8528D
:1009780019C703C70700058B11C723820700A38285
:100988000700828003C71700058B75D3FDB783A7BF
:1009980041C699CB944BD04B9842518F98C29443FF
:1009A8009C479842D98F9CC283A681C637C700400E
:1009B800C145A8CA654683278720C18393F7F703F3
:1009C80063FBF50083278720C18393F7F7036364EC
:1009D800F600BC52EDF3828003A781C5AA87185F91
:1009E8001583058B25EF0345150015051377C51FDE
:1009F80019C6B386E70083C626002300D60085C53E
:100A080083C6E1F3094593F60604B1CAB386E70045
:100A180083C63600054693F5F6066392C504E206DA
:100A2800E18663CE06023385E70083471500034756
:100A38000500A20793F70770D98F93960701C18223
:100A480013F60640138701C619C693E606802310DD
:100A5800D700014582802310F700E5BF0545828055
:100A680001113EC42ECC83A581C636C83AC694452A
:100A78002ACE32CA1397060142C246C0418393F870
:100A88001620138881C63A86938781F3638F0802FC
:100A980093F60620DDCE83C62700B708001093E63C
:100AA80016002381D70093060019B4D1930600F8E5
:100AB8002382D70083A581C5D455F19A93E62600F1
:100AC800D4D59441B3E6160194C19376261081CE0D
:100AD8001376061051CA83C681F393E61600238C59
:100AE800D1F22394070003C647001347F7FF4207D4
:100AF80062066186418383260800635F0600131639
:100B08001701635A0606AC520D466367B6000546E0
:100B18002382C700BC52FDFF8387C1D163DD070074
:100B280093170701C18763DC0704F052894763E420
:100B3800C700FC52FDFF9C467245E2457D8F98C672
:100B48005246C2463247A24712488248056173009E
:100B5800203083C617002394070093E61600A3806D
:100B6800D7002382070095B783C6370093E616009F
:100B7800A381D700BDB705462382C70071BFDC46F5
:100B880013960701635C0600B7071000FD17FCD237
:100B9800938741D4904F050690CF71BFA1675D8FB1
:100BA80059BF938741F7138641F50346B60183C7BA
:100BB8005701938641F7138741F5B29793F7F70FDB
:100BC8007D466361F604A300F70083471700484B8E
:100BD80005463316F600A38AF600698E05EE03C6AD
:100BE800960113080002814633F6C7028147B355C0
:100BF800F500858993F8F70F99C96317D600A30004
:100C0800170182808117C1B7850693F6F60F85070D
:100C1800E39F07FD828003A701C7B75702009387A8
:100C2800279F8326070913965600635806008326D4
:100C380007091396660063440600FD17FDF38280DA
:100C480083A581D0938781D01386052223A8C1B4B8
:100C580003D74700938785FFBA97056523A4F1B4A6
:100C68001D05930600206364E5009356370033079B
:100C7800D60023A6E1B423A0E522E1162312D6006C
:100C8800231306001CC3998FE1172312F7002313BF
:100C98000700828083A701B503A781B401456313C8
:100CA800F700828083D6670081E683D647003695B1
:100CB8009C43F5B783A701B583A681B40145639327
:100CC800F600828003D7670011E703D747006373F4
:100CD800E5003A859C43E5B783A701B503A681B42F
:100CE8002A87B305B5406314F6003A8529A8938688
:100CF80087009C43E369D7FEE377F7FE2E85E3E49C
:100D0800D5FEE3F2F5FE828023AC05FE1C4191E797
:100D1800010001000CC18280BA8703A787FF6DFF1D
:100D280023ACB7FE82801DC18346E5FF1307F00F91
:100D38009147639EE600411106C69730FF1FE78082
:100D480060B7B24081473E854101828095473E8524
:100D5800828001E9014582800145B2402244410177
:100D68008280411122C42A84210542059305D004BA
:100D7800418106C69730FF1FE780C0AA71DDFD5785
:100D880023200500231285002303F5002105F1B770
:100D9800411126C222C44AC083A741B506C60144F0
:100DA8000149938441B589E7A165CD2B05C401A804
:100DB80003C7E7FF6317A70215C8A165AD2E9840C2
:100DC800832784FF6316E4029CC0FD57232C04FE8E
:100DD800230FF4FE2285B240224492440249410185
:100DE800828011E03E8983A787FF75BF3E84E5BFF7
:100DF800232CF9FED9BFB9C583C751D4411122C4E8
:100E080006C62A842E856368F400313F0D45B2403A
:100E180022444101828083A785FF99E703C7E5FF44
:100E28009307F00F6305F700FD3D1545CDB7238FF8
:100E380085FE138541B5C93D22852244B240A1658E
:100E48004101D5AC1545828023AA01B4828083A7CD
:100E5800C1B699E33E85828003D727006316B700A1
:100E680003C70700E308A7FEDC47E5B741119397DE
:100E780005014AC006C622C426C2C1872E8963DE80
:100E88000700393711C1453521653345A900B240FE
:100E980022449244024941018280AA860145E5D94B
:100EA80001443D47B3578940858B8DCB83A401B658
:100EB800BD4791E28147A2978E070545BE94331539
:100EC8008500131405019C40C8404180829723A0E7
:100ED800040023A204003345240155BF0504E3138D
:100EE800E4FC0144CDBF83A781D2411122C406C6C8
:100EF800138481B085C7829708C00840B7470300AC
:100F08009387D73F3305F502B7A72600938737ECB9
:100F1800B2403E9508C0224441018280184083A710
:100F280041D5BA971CC0D1BF011122CC938741D4B7
:100F380006CE26CA4AC883C6170003A681B51384FD
:100F480041D4814713F7F70F6362D708938781F37A
:100F580003C777009147138981F363E0E70883C7E4
:100F680081F8918BBDEB6800EFF0601CFD566300C3
:100F7800D50C938781D083C737013247938481D0BA
:100F880063FDE704404403C744016304D406058BAA
:100F980039CB51473304E40263F187049730FF1FCC
:100FA800E780A0BDB2476373F400A28703C734018A
:100FB800998F3E958387440163C20704B707C0A889
:100FC800636EF502B70740573E950DA8850713973E
:100FD800170032970357E7FF35D7F2406244D244EF
:100FE800424905618280130790023304E4020580B8
:100FF80065B762076187635707001D8D19E93705D3
:10100800C0A801A8E37BF5FE3707C0A8B307F740DF
:101018003E9583A7C1D2829769F183278901D5DFDD
:10102800EF508178EF50115FEF50A16B7DB75C44B2
:10103800E385A7FA138781D003474701938481D0BA
:10104800058B0DC351443384870283C73401E3F60B
:1010580087F89730FF1FE78040B283C734011D8CA3
:10106800229589BF13049002338487020580F1BF5B
:101078002A9609E582800505A30FB5FEE31DC5FE86
:10108800D5BF81473307F5000307070019E33E85FD
:1010980082808507C5BF01112E8626CAAA8413152A
:1010A80006019305F004418122CC06CE32C6972072
:1010B800FF1FE78020772A8419C53246A685973016
:1010C800FF1FE780408A2285F2406244D2440561CE
:1010D800828081476314F600054582803307F50056
:1010E8008507B386F5000347070083C6F6FFE38349
:1010F800E6FE014582809307F6FFBE952A966313A4
:10110800C5008280FD1583C715000505A30FF5FEF0
:10111800FDB7814711E9014582803307F500034790
:101128000700E31AB7FE8507E319F6FE0545828036
:1011380003A541D5828083C751D4637EF5009317F8
:10114800150003A581B53E9583570500DD8D231055
:10115800B500014582800D458280011126CA93871A
:1011680041D422CC4AC84EC652C456C206CE5AC032
:101178007D57D8C703A4C1B62A8A8149938441D42C
:10118800938AC1B6138981D0184481476374EA00F1
:10119800B3074741032749021CC409C7D84463F36E
:1011A800E700DCC4A9E78355240085ED5C44639916
:1011B800090423A0FA00032BC40022859720FF1FEF
:1011C800E780406F5A8469F0832749028DCF6244D3
:1011D800F240D2444249B249224A924A024B05613E
:1011E800A1B303450400813F5C4081CB1CC48357F5
:1011F8002400CDDFA2894044F9B71C44C5DBC5BF34
:1012080023A6F9004DBFF2406244D2444249B24994
:10121800224A924A024B0561828083C751D4637087
:10122800F5029317150003A581B593C5F5FF3E9503
:1012380083570500FD8D2310B500014582800D45BB
:10124800828083C751D46364F500014582804111CF
:1012580022C426C24AC006C62A842E89B284C53E44
:1012680001C504C5054515A0936504F0C205C181F3
:1012780041459720FF1FE780E05A11ED83A781D3EE
:1012880081C7A285114582970145B2402244924404
:101298000249410182801387C1B61C4385E308C314
:1012A80085472326050004C5231125012300850051
:1012B800A300F5002322050075B7BA87D84775FF44
:1012C800C8C7F9BF5DC1397122DC26DA4AD84ED6C3
:1012D80052D45AD05ECE66CA6AC806DE56D262CCEE
:1012E8006EC63689328AAE89AA840144394D854B47
:1012F800F94C03A701B6131C3400937AF40F6297D4
:101308001C43938D01B6A9EF13B5FA0013451500D8
:10131800B3978B0063765D01930714FFB397FB00C7
:1013280093950701C1815286293F1DC983A70D00E6
:101338000145E29784C323A237016304090023000F
:101348005901F2506254D2544259B259225A925A0F
:10135800025BF24B624CD24C424DB24D216182800D
:101368000504E31894F92145E9BF09458280411134
:1013780022C426C24AC006C6AA842E893284D13520
:10138800CA852685E93409C940C10145B2402244CD
:1013980092440249410182802145CDBF411122C4B6
:1013A80026C24AC006C6AA842E8955342A8419C181
:1013B8002311050083C741D463949700239221B772
:1013C800CA852685993D014511E01945B240224458
:1013D80092440249410182807547636BA70483A642
:1013E80001B6411126C293143500A696944222C430
:1013F80006C6AA87138401B6094595C613B5F70032
:101408003947134515006373F700C5178545B3952C
:10141800F500C205C18159371C400145A69723A094
:10142800070023A20700B24022449244410182806F
:1014380009458280411106C6193C09C50845B240D4
:10144800410182800145E5BFF54763ECA70483A706
:1014580001B613173500BA979843894721C7011178
:1014680026CA06CE9334F50022CCB94793C414009B
:1014780063F3A700451505443314A40042044180D2
:101488002EC62685A2857D378947324609C5A2859D
:101498002685453B8147F2406244D2443E8505613A
:1014A800828089473E858280239EA1B4239FB1B460
:1014B8008280411106C623A4A1B60295B24023AC8E
:1014C800A1D4014541018280994763E8B700939709
:1014D8002500938581D6BE9588C18280411106C6B4
:1014E80022C426C2EFF0CFF571468145138581D617
:1014F8004136138441D4130640028145138541D4F3
:10150800853E23A601B623A401B683C741D293051D
:10151800101013D527008D8B3E958D473305F502A6
:101528009947938401B735051375F50F2301A40076
:101538003305F5021305050F9720FF1FE780802E5E
:1015480023A0A1B6834724001305050F88C08A0786
:101558003E9523ACA1B4EFF03F8F212E83471400B2
:101568009840B7160100139627003A96938646E7E7
:1015780014C213862700850793F7F70FA300C4004A
:10158800B24022448A07BA9794C3924441018280A8
:10159800138741D4834717008346270063FED7008B
:1015A80083A601B713861700A300C7001397270067
:1015B800369708C33E8582809307F00FE5BF1C412C
:1015C800638E071241777D8FB7060020894763181D
:1015D800D7120357450063040712411126C2194662
:1015E800AA849305F00F590506C622C44AC01536C9
:1015F80005478D47630DE50E938781D09C4713847B
:1016080081D091C7585899477DE3185C6DE313065C
:10161800C0038145138581D0A13C1306C003A6856C
:10162800138581D09720FF1FE780E0338357C400DC
:1016380089E7930700102316F4008347E40081E745
:1016480085472307F4008347F40081E7ED47A307A4
:10165800F4008347040181E795472308F400834792
:10166800140181E78547A308F4008347540189E7FB
:1016780083470401A30AF4008347240181E7D14783
:101688002309F4008347E40195E3034744019307E2
:10169800C00293168701E18663C806009377170096
:1016A80093B717009387D702230FF40083473401B9
:1016B80095E3034744019307C00293168701E18627
:1016C80063C806009377170093B717009387D7026C
:1016D800A309F40083C7D40181E78947A30EF40066
:1016E8001C5481C782972395A1D4CD3B8147B24032
:1016F8002244924402493E854101828089473E85C1
:101708008280011122CC06CE2A842EC6EFF0AFFDCE
:10171800B245F240818D33A5A50222956244137526
:10172800F50F05618280011122CC06CE2A842EC6CF
:10173800EFF06FFBB245F240818D33A5A5022295EB
:1017480062444205418105618280011122CC06CEA6
:101758002A842EC6EFF02FF9B245F240818D33B5B9
:10176800A5022295624405618280138781D01857AB
:10177800011122CC06CE26CA4AC84EC6138481F36C
:1017880031CF138981D00297138741D4035767005B
:10179800AA84938941D42DCFBA876373A700AA87F7
:1017A800C207C183BA8663F3E400A686C206C18273
:1017B800958F5147635EF7048327C90291C38297C7
:1017C80085472304F400EF50015323939900F24016
:1017D8006244D2444249B249056182808347840009
:1017E8008DE783479400850793F7F70FA304F40068
:1017F800A18BF1DF85472314F4006244F240D24400
:101808004249B24905616F508154A3040400F5B7F9
:1018180083478400CDDFD5B7138781D0585701118E
:1018280022CC06CE138481D001C72AC6029732453E
:10183800938741B701CD88C337450020130565B9A3
:101848008D39F240624401450561828003074401F5
:10185800635C0700138741D4232C07003747002017
:10186800130767B498C3C9BF374700201307E7B702
:10187800D5BF011122CC938781D0884706CE26CACE
:101888004AC801E90545F2406244D244424905612B
:101898008280138481D05C58F5D7185C65D77000B6
:1018A800854582971844B247E30EF7FC0355C400F8
:1018B8009305E0049720FF1FE780C0F6138741D403
:1018C80048CF938441D45DDD0356C4009305F00FDF
:1018D8000149EFF0EFF98347E400D04C634DF9007C
:1018E80032859720FF1FE780E0FC014523AE040006
:1018F80023A0040249BF8355C4000844185CB38779
:101908002503898105093E9508C20297E9B7411167
:1019180022C4938781D09C4726C206C64AC09384B6
:1019280041D491EBC84C2DE1B24022449244024983
:10193800014541018280138481D01C5CE5D7DC4CD1
:1019480091EB0355C4009305E0049720FF1FE7803F
:1019580060EDC8CCC84C79D50356C4009305F00F88
:101968000149EFF0EFF08347E400D04CE35CF9FA6B
:101978008355C4001C4433852503898105093E9598
:101988001C5C08C28297C5B79720FF1FE78080F2CA
:1019980023AE040023A0040241BF01114EC6938761
:1019A80081D09C4726CA4AC852C406CE22CC56C209
:1019B8005AC02A8AAE8432896388071E938981D0E7
:1019C80003A74903630007127D47636FA7101387B6
:1019D80041D4832AC701138441D4639A0A0803D5E2
:1019E800C9009565938515E09720FF1FE78080E380
:1019F80048CC2A8665C983D5C90083A7490303A5AE
:101A080089008981829783A78900832AC4011CD011
:101A180089476316FA08C1476396F40C83D5C90051
:101A28009147938505FCB3C5F5028A05D69503C78A
:101A380005009307A0056313F70A83C71500639F82
:101A480047094A85268691059720FF1FE780A0F160
:101A58005C4C5685639157130145F2406244D24469
:101A68004249B249224A924A024B05618280185083
:101A7800E380E7FA03D5C9009565938525E09720AB
:101A8800FF1FE78020DAAA8A31CD83D5C9002A86CC
:101A980083A7490303A589008981829795BF8D474C
:101AA800631BFA00C147639FF40283D5C90093857D
:101AB80045FDF199A5BF91476318FA006394440363
:101AC80083D5C900A115F5B7C147631DFA00A14721
:101AD80063EA970083D5C900C115E1BF5C4C568500
:101AE800639F570B294595BF1307F006636AA7083C
:101AF800930A05FE1947B3CAEA0203D7C900B38A95
:101B0800EA02BE9A938741D49C53138B41D46395C0
:101B180057010324CB011DE003D5C9009305E00458
:101B28009720FF1FE78000D02A844DDD83D5C900A8
:101B380083A749032A868981568582979145130789
:101B4800A005898193972500A29783C60700639310
:101B5800E60483C61700639C460385058A05268626
:101B6800A2954A859720FF1FE780E0DF8327CB01F6
:101B7800E38487EE22859720FF1FE780A0D3E9BD85
:101B88001307E007E360A7F6930A05F9BDB783D505
:101B9800270045BF8327CB01E38687F4228597205A
:101BA800FF1FE78020D13DBF83A501D685DD914782
:101BB8009306A0058983139727002E9703460700ED
:101BC800E312D6F203461700631C460185078A070D
:101BD8002686BE954A859720FF1FE780C0D8ADBDF1
:101BE80083572700C1BF938781D098471DCF985F3F
:101BF8000DCF8546631BD502411122C4138441D4FD
:101C0800504C06C619CE83D5C70008508981029763
:101C1800484C9720FF1FE780E0C9232E04002320AB
:101C28000402B2402244410182808280011122CC08
:101C3800938781D056C283AA870026CA4AC84EC64F
:101C480006CE52C42A89AE84B289138481D06387B0
:101C58000A1C1C5C99EB2945F2406244D244424973
:101C6800B249224A924A056182805C58EDD7FD4705
:101C780063E5A70C938741D4DC4F138A41D4B9C7D5
:101C8800084483270A02639FA70489476317F90654
:101C9800C147E392F4FC0355C4009147130505FCC2
:101CA8003345F502931725000325CA012686CE85FC
:101CB8003E959307A0052300F500A3002501110513
:101CC8009720FF1FE78020CA014579B70355C40054
:101CD8009305E0049720FF1FE780C0B4232EAA00D5
:101CE80045F195BF8355C4005C580326CA01898114
:101CF80082971C442320FA0249BF8D47631CF900D0
:101D0800C147E39AF4F40355C400130545FD9377DE
:101D1800C5FF59BF91476318F900E39E24F30355A3
:101D2800C4002115EDB7C147E317F9F2A147E3E471
:101D380097F20355C4004115D9BF9307F00663E72E
:101D4800A706930705FE1947B3C7E7020357C40060
:101D5800B387E702BE9A938741D4DC4F138A41D4F4
:101D6800A9CF83270A02639657070325CA0191461C
:101D78001308A005FD5593D72600C207C183139702
:101D880027002A97034607006314060783481700AD
:101D980003562700639C2805B306D64063C69604FD
:101DA80085078A072686CE853E9519BF9307E007E3
:101DB800E3E3A7EA930705F951BF0355C400930568
:101DC800E0049720FF1FE780E0A5232EAA0051F921
:101DD80059B58355C4005C580326CA0189815685C4
:101DE800829723205A0351B7A300B700B28661B780
:101DF8000356C400B38596009105130606FCE3FC60
:101E0800C5E4138634001376C60F1106B296230074
:101E18000701A30027012311D70059B7938741D49D
:101E2800DC4F138A41D4A1C30325CA019146130884
:101E3800A005FD5593D72600C207C1831397270035
:101E48002A970346070063120605834817000356BE
:101E5800270063982801B306D640E3D396F4A3007D
:101E6800B700B286C1BF0345E4008357C400930599
:101E7800E0043305F502420541819720FF1FE78002
:101E8800609A232EAA004DF1F9B30356C400834586
:101E9800E400B385C502338696001106E3EDC5DA82
:101EA8008DB70145828083C705002300F50083D7DD
:101EB8002500A300F50083D72500A1832301F500A1
:101EC80083C74500A301F5001145828023AE01B602
:101ED80023AC01B6828029C1411126C206C622C49C
:101EE800AA8401458DC52E84B7E5020022854146A6
:101EF800938585FE9720FF1FE780E0A683C704002F
:101F080005452306F40083C71400A306F400B24075
:101F1800224492444101828001458280011122CCF1
:101F280026CA06CE0947AA8432846381E50441465D
:101F38008147639BC500638FE6006397B6000DA8D1
:101F480041478147638EE600F2406244D2443E85B1
:101F5800056182808A852285BD3F41468A8519A808
:101F68008A85953F41468A85228531A0E39AB6FC49
:101F78002E86A2852685EFF0CF95AA87F1B723ACE8
:101F8800A1B6828023AEA1B68280011122CC03546F
:101F9800650006CE26CA4AC84EC641C083298500B8
:101FA800AE842A8803C9090081471317890161870C
:101FB80063550702B147054563FA87045114420483
:101FC80003552800418033878900A2864E868545BF
:101FD800EFB0D034B337A00085077D1413556900DE
:101FE800420405891379F90341802380F400A38012
:101FF800A4002381240123928400014719C0138778
:10200800190098C409476383E7000145F240624418
:10201800D2444249B249056182800545C5BFC167BE
:10202800F917630AF502D94763F7B702011122CC01
:102038002EC606CE2A84EF70B026B2456368B50076
:1020480022856244F24005616F904031F24062445B
:1020580005450561828005458280C167F9176314CB
:10206800F5006F70F023411106C6EF90201F11E1B3
:102078005D45B2404101828091476394F5028347F0
:1020880005002300F6008347250003471500A20733
:10209800D98F2311F6008347350001452302F60046
:1020A8008280114582804111814522C426C206C61C
:1020B800AA84392D2A8419E583A781B781C7F945F0
:1020C800268582972285B24022449244410182802B
:1020D80039714ED656D25AD006DE22DC26DA4AD8D4
:1020E80052D4AA8A2E8BB28941EF36C6BD379145A4
:1020F800EF70502BAA844D492DC9B246054A23805A
:1021080034010544630A0B00B68513851400029B4D
:102118000505131405014180E20993D9894163D368
:102128000902C1455685EF906020654905E9338667
:102138008400A2852685EFB0E0622A8905E1310492
:102148004204418091472C085685231CF10026CE75
:10215800231D8100EF8050302A8901C963070A00D6
:1021680026859710FF1FE780E074F25062544A8575
:10217800D2544259B259225A925A025B2161828042
:10218800BA84014AADBF011122CC26CA4AC84EC63C
:1021980006CE2A893284B689253FAA8419ED83A7F9
:1021A800C1B781CF05476317E40003C409000504DC
:1021B8001374F40FA2854A858297F24062442685FB
:1021C8004249D244B24905618280AE86B7250100F2
:1021D800014705469385E5EA7DB783D705002300C7
:1021E800F50083D70500A183A300F5000945828087
:1021F80083D705002300F50083D70500A183A3003A
:10220800F50083D725002301F50083D72500A18396
:10221800A301F5001145828083D705002300F5004E
:1022280083D70500A183A300F50083D725002301E8
:10223800F50083D72500A183A301F50083C75500C6
:102248002302F50083C76500A302F50003D58500C6
:10225800190542054181828083D705002300F500D6
:1022680083D70500A183A300F5000945828083D7A1
:1022780005002300F50083D70500A183A300F5001E
:1022880083D725002301F50083D72500A183A30167
:10229800F5001145828003D54500060542054181B8
:1022A800828083D705002300F50083D70500A1832A
:1022B800A300F50003D52500090542054181828068
:1022C80083D705002300F50083D70500A183A30069
:1022D800F50083D725002301F50083D72500A183C6
:1022E800A301F50003D5450011054205418182800F
:1022F80083C705002300F5000545828083D70500C4
:10230800411122C406C62300F50083D705002E8498
:102318001105A183A30EF5FE83D725009505230F8C
:10232800F5FE83D7D5FFA183A30FF5FE03C6F5FFFE
:102338009710FF1FE780206303454400B240224402
:102348001105410182808947639CF5008347150088
:10235800034705000145A207D98F2310F6008280A4
:102368001145828003D70500D94763FEE7020111B2
:1023780022CC06CE2EC62A84EF708072B24683D74E
:102388000600636DF50022856244F240B72501001E
:10239800014709469385251E05611DBBF24062442D
:1023A8000945056182800945828091479DC583461C
:1023B8000500FD15C2058547C1816392F60213D752
:1023C80025008D89914791E9914701CB05052301A6
:1023D800D6002310E60048C281473E85828009471F
:1023E8009147E39CE6FEC94733D7F502B3F5F502FA
:1023F800D1BFAE86B7250100014711469385851FD9
:10240800C1B993F7350091EB8981914789C52310AC
:10241800B60048C281473E8582809147EDBF03C719
:1024280045008947631AF702011122CC2A84C8455E
:1024380006CEAE86014719C52EC69D45EFE0DF8959
:10244800B2462A8722856244F240B7250100194620
:10245800938505220561ADB90945828099E1114549
:1024680082808347050005472311F600E379F7FECC
:10247800FD1593F5F50F33D7F502B387E702E3901F
:10248800F5FE050548C22310E6000145828083C792
:1024980045000947AE866385E70041476399E70031
:1024A800B7250100014721469385453015B10945F7
:1024B80082802310B60091E1014548C2014582801F
:1024C800AE86B7250100014729469385052609B13F
:1024D8002310B60091E1014548C201458280AE86CD
:1024E800B72501000147314693856527D5B62310E6
:1024F800B60091E1014548C20145828003D74500F5
:10250800854763FDE702011122CC2A84884106CE63
:102518000DC12EC68545EFE02FFC2A87228562442F
:10252800B246F240B725010039469385E529056191
:1025380045B6F240624409450561828009458280BA
:1025480091479DC5034705008D46914763F2E60212
:10255800FD15C205C181B3C6E5023308D7026399E8
:10256800050105052310D6002311E60048C281475E
:102578003E85828083C745000947AE866385E700AC
:1025880041476399E700B725010001474146938514
:1025980045303DBE09458280B335B000139525000E
:1025A8008280011122CC26CA06CE03C78500854742
:1025B800AA842E8449466311F702EFF01FAA8357B5
:1025C800240049151306200963C8A700F240624495
:1025D800D244094505618280034794008547631406
:1025E800F70013660604484011C58D4532C6EFE072
:1025F800AFEE3246A2866244F2402A872685D2444C
:10260800B72501009385A52A0561D9B48D4763FFD5
:10261800B7028347150003470500F115A207D98FB4
:102628002310F6008347350003472500C205A2079B
:10263800C181D98F2311F6002312B60089C511056F
:1026480008C60145828023240600E5BF1145828023
:10265800011122CC2A84884506CEAE8611C52EC625
:102668009545EFE06FE7B2462A8722856244F2403B
:10267800B725010059469385852C05616FF05FA544
:10268800B335B000139525008280AE86B7250100CA
:10269800014761469385852F6FF09FA385471145B4
:1026A80063F4D7028347160083450600A207CD8F3F
:1026B8002310F7009387E6FF2311F7008947638605
:1026C800F600090650C30145828023220700E5BFB2
:1026D80001478146794681456FF09F9F83D7050062
:1026E8002300F50083D70500A183A300F500094561
:1026F800828083C7250005472300F50003D5050020
:102708006397E7000A050505420541818280C947AC
:102718003305F502CDBF03D505000A054205418101
:10272800828083D725002300F50003D5050083D7D1
:1027380025003305F502050542054181828003D550
:102748000500828003D50500828003D505008280BC
:1027580083D725002300F50003D5050083D725007E
:102768003305F502050542054181828083D70500BE
:102778002300F50083D70500A183A300F50083D7C4
:1027880025002301F50083D72500A183A301F500C7
:1027980003D54500110542054181828083D7050094
:1027A8002300F50083D70500A183A300F50003D516
:1027B8002500090542054181828089471145639BAF
:1027C800F60083471600834606000145A207D58F09
:1027D8002310F700828003D70500D947AE8663FA35
:1027E800E700B725010001470D469385456E6FF058
:1027F8009F990945828011456393A6028347160075
:10280800834606000145A207D58F2310F7008347AA
:10281800360083462600A207D58F2311F700828051
:1028280083C725000547FD1793F7F70F6361F70482
:1028380083D705008DCF011122CC2A84C84106CE4A
:1028480015C12EC68945EFE02FC92A872285624423
:10285800B246F240B725010015469385A56F05617C
:102868006FF07F92F2406244094505618280094514
:1028780082809547114563F9D706411122C426C2C3
:102888004AC006C683471600BA8403470600A20753
:102898003284D98F2390F4008347360003472600FB
:1028A80093054400A207D98F2391F4008947238216
:1028B800F40009461385540036899710FF1FE780F6
:1028C800800A9307A9FF2394F4009947631BF90032
:1028D80023A60400B2402244924402490145410122
:1028E80082801904C0C4FDB7828083D705008DCFCC
:1028F800011122CC2A84C84106CE15C12EC68545B1
:10290800EFE08FBD2A8722856244B246F240B725A0
:1029180001001D469385E57105616FF0DF86F24081
:10292800624409450561828009458280994763951B
:10293800F6048947411106C62302F70083471600AB
:1029480083460600B285A207D58F2310F700834778
:1029580036008346260003464700A207D58F130595
:1029680057002311F70091059710FF1FE780A0FF7C
:10297800B240014541018280D14711456394F60078
:10298800C1474DBF828083D705008DCF011122CC6E
:102998002A84C84106CE15C12EC68945EFE0CFB3BB
:1029A8002A8722856244B246F240B72501002546AF
:1029B8009385A57205616FF00FFDF24062440945E9
:1029C800056182800945828089471145639BF6002D
:1029D80083471600834606000145A207D58F2310BA
:1029E800F7008280011122CC2A84C84106CEAE8627
:1029F800014719C52EC68545EFE00FAEB2462A87B6
:102A080022856244F240B72501002D4693856574FE
:102A180005616FF04FF711456393A60283471600CF
:102A2800834606000145A207D58F2310F700834788
:102A3800360083462600A207D58F2311F70082802F
:102A4800011122CC2A84C84106CEAE8611C52EC6F5
:102A58008545EFE06FA8B2462A8722856244F24096
:102A6800B725010035469385C57405616FF0AFF150
:102A780093F71600114589EB89476387F60085822D
:102A88002312D70010C301458280011122CC2A8469
:102A9800C84106CE15C12EC68545EFE0EFA32A87AB
:102AA80022856244B246F240B72501003D4693852F
:102AB800257505616FF02FEDF24062440945056107
:102AC800828083D705008DCF011122CC2A84C8418A
:102AD80006CE15C12EC68945EFE00FA02A872285AC
:102AE8006244B246F240B725010045469385857594
:102AF80005616FF04FE9F240624409450561828043
:102B080009458280854763FCD7022304A700A304F4
:102B1800B7008347160083450600A207CD8F231010
:102B2800F7009387E6FF2311F70089476386F600CD
:102B3800090650C30145828023220700E5BF1145DD
:102B48008280014781464D4681456FF0CFE38D472E
:102B5800114563FBD7028347160083450600A20789
:102B6800CD8F2310F7008347360083452600A20740
:102B7800CD8F2311F7009387C6FF2312F7006386D2
:102B8800A600110610C70145828023240700E5BF6F
:102B9800011122CC2A84884506CEAE8611C52EC6E0
:102BA8009545EFE06F93B2462A8722856244F2404A
:102BB800B72501005D469385457705616FF0AFDC69
:102BC800854711456397F6008347060001452300B2
:102BD800F700828001478146654681456FF0AFDA8C
:102BE800011122CC2A84C84106CEAE86014719C5F8
:102BF8002EC68D45EFE04F8EB2462A872285624465
:102C0800F240B72501006D469385457A05616FF05E
:102C18002FCC011122CC2A84C84106CEAE860147AA
:102C280019C52EC68D45EFE02F8BB2462A8722851F
:102C38006244F240B725010075469385457A0561DF
:102C48006FF00FC9011106CE2EC6EF80C05D01C915
:102C5800B245F2400355250005616FB07015F2408A
:102C6800494505618280A38401BA238401BA23A857
:102C780001B823AA01B823AC01B823AE01B823A632
:102C880001B823A401B8938741D83707B40098C383
:102C98003747A000D8C3370710009306070A94C720
:102CA800B7065000C106D4C7930607054107D8CB1D
:102CB8003707D007410798CF3707840398D337C71A
:102CC8000700130707B8D8D3416794CB93060701C9
:102CD800130717F8D8D7417723AE070094D798DBA6
:102CE8008280011126CAAA84214522CC06CE2E84D0
:102CF80032C636C43AC2EFE0CF851DC9A246124794
:102D08003246930700FD2300F5009947A30095007C
:102D18002301F5002303D500A303E5002312C50012
:102D2800AA8522856244F240D24405616FE0AF8CE7
:102D3800F2406244D2440561828023A8A1B882800F
:102D480023AAA1B8828023ACA1B8828023AEA1B8FF
:102D58008280011122CC4AC806CE26CA2A8901449B
:102D6800B30489006368B400F2406244D244424923
:102D7800056182802EC6EFE00F9793170501C18386
:102D8800A183B2452380F4009307140093F7F70F4B
:102D9800850463F9B700CA9709042380A700137450
:102DA800F40F7DBF3E847DBF411122C4138481DBB3
:102DB80003556400C16706C6FD17630BF50003C61B
:102DC800C1C3938501BAEF806029FD572313F4002E
:102DD800B24022444101828009C925151375F50FB7
:102DE8001335850E134515008280014582802380A6
:102DF8000500F94763E2C708797122D426D24ECE7E
:102E080056CA5AC806D64AD052CC5EC63684B2894B
:102E1800AE8A2A8B814463FF3405B307940003CA42
:102E28000700138914001379F90F63050A04B3071F
:102E38002A0163C1F904B307240183CB07005E8527
:102E4800613F0DC99307FAFF2380FA0063906B0373
:102E5800130519002295B250225492540259F2498E
:102E6800624AD24A424BB24B45618280D29493F473
:102E7800F40F55B70145C5B701458280011122CC31
:102E880026CA4AC84EC6938781DB06CE2E89D0CB88
:102E98008CCBC8C7AA8441469305F00F4A85EFE05A
:102EA8004FA78549138481DB631735030848C1455B
:102EB8004D3541469305F00F2685EFE08FA505496E
:102EC8006313250348446244F240D2444249B2495C
:102ED800C1450561BDBD414681454A85EFE06FA307
:102EE800E31935FDE1B7414681452685EFE06FA23C
:102EF800E30A25FDF2406244D2444249B2490561E1
:102F08008280011122CC26CA4EC6AE84AA89130635
:102F18000002138581DB814506CE4AC8EFE04F9554
:102F2800138981DBA38F91C2A3013901EFB0006A35
:102F3800138481DB854719C1814749452300F40083
:102F4800F2406244D2444249B249056182808147D5
:102F580081CD19C98547631BF50083C7550093E7E1
:102F680007FCA382F50085473E8582808947631761
:102F7800F50083C7550093F7F703E5B70D47854775
:102F8800E314E5FE03C755001377F7031367070437
:102F9800A382E500D1BF81478DC105C103C7550094
:102FA8009306000C85471377070C6308D700930630
:102FB80000048D476303D70089473E85828041110D
:102FC80022C4005D06C626C21DC8AA84085009C5C9
:102FD8009710FF1FE780008E485009C59710FF1F04
:102FE800E780408D085409C59710FF1FE780808C43
:102FF80022859710FF1FE780E08B23AC0402B240C4
:103008002244924441018280938781DB09E903C706
:1030180027001385870111C7138501B8828013859E
:103028008701828003C5A1DB828003A541DC828001
:1030380003A581DC828083A7C1DC884382809387D3
:1030480081DBD44B9842050798C203C53700930724
:10305800F00F6305F50091656FE0EF8D8280011137
:1030680022CC06CE2E8432C6EF80C02A9147B245C4
:10307800631EF50083A7C1B985C303A30700630DC9
:10308800030022856244F2400561028383A741B9A7
:1030980081C703A34700E5B7F240624405450561CF
:1030A8008280011122CC2A840355450006CE26CA07
:1030B8004AC84EC6EF80600735C52A898344050093
:1030C8008349C500ED3D4A85EF80107D03554400D6
:1030D800EF80C01F138981BA83470900A1CB63978A
:1030E800970483C591BA2685EFF0DFB519E123006F
:1030F800090003554400EF80E0219147631DF50066
:10310800938781DB8356440003D767006395E60005
:103118007D572393E700F2406244D2444249B249C2
:103128000561828081499304F00F6DB79307F00F12
:10313800E381F4FC834664000356440003452400FD
:103148004E87A685EFF0FFB96DB779715EC6AA8B79
:103158002E8552CC56CA5AC806D622D426D24AD070
:103168004ECEAE8A328B368AEF70307C79CD045DD4
:103178002A89E1CC9C50614599C3130540039C54AE
:1031880081C751054205418163050A007105420561
:103198004181DC5081C7590542054181EFD07FBB91
:1031A8002A8445C561468145EFD09FEC83C941DB40
:1031B8006394090083490900930700FD2300F40084
:1031C800A947A30074012301F400230364018C5070
:1031D800231254011305840191C908C47146930A46
:1031E80044039700FF1FE780007856858C5491C9E7
:1031F80048C45146930A45019700FF1FE780A0760F
:103208005685630C0A0008C87146D285930AC50121
:103218009700FF1FE78020755685CC5099C548C890
:1032280059469700FF1FE7800074A2854E85EFD0AE
:103238009FBC2254B2509254F249624AD24A424B3D
:10324800B24B4A85025945619DBBB25022549254F3
:103258000259F249624AD24A424BB24B45618280D6
:1032680001114EC6AA892E854AC806CE22CC26CA86
:103278002E89EF70906B21C583C441DB99E08344AC
:1032880005001945EFD0FFAC2A8415C981451946B8
:10329800EFD01FDE930700FD2300F400B947A30019
:1032A80034012301F40023122401A2856244F24070
:1032B8004249B2492685D24405616FD0DFB3F24056
:1032C8006244D2444249B2490561828039715ECE76
:1032D800AA8B2E8526DA4ED652D456D25AD006DE7E
:1032E80022DC4AD8AE84328BB68A3A8ABE8942C674
:1032F800EF70B06321C92A894145EFD09FA52A8480
:1033080031C141468145EFD0BFD603C541DB19E144
:1033180003450900930700FD2300F400BD4723017E
:10332800F400B247A300740123129400230464013B
:10333800A304540123054401A30534015CC4A285F8
:10334800EFD07FABF2506254D2544259B259225A4C
:10335800925A025BF24B21618280797126D2AA844B
:1033680039454AD04ECE06D622D42EC6B2893689E1
:10337800EFD03F9E21C1B2459307000D2310F50001
:10338800B1472A842312B5002301F500CE8519051B
:1033980019469700FF1FE780005D23062401A285D8
:1033A8002254B2500259F24913F5F40F9254456170
:1033B8006FD07FA4B250225492540259F249456109
:1033C8008280411126C2938481DB03C7340006C67C
:1033D80022C44AC09307F00F630AF7042A893945C3
:1033E800EFD03F972A8439C1930700FD2300F500E9
:1033F800A300250123010500938584010D051946C5
:103408009700FF1FE780205683D78400A28503C555
:1034180034002315F40083C714002306F400224463
:10342800B2409244024941016FD0FF9CB24022440D
:103438009244024941018280011156C2AA8A31454B
:1034480026CA4AC84EC652C406CE22CCAE84328A98
:10345800B6893A89EFD0FF8F39C52A842685EF705F
:10346800D04C1DCD03450500930700FD2300F40053
:103478009D47A30054012301F40023129400231351
:1034880044012314340123152401A2856244F24027
:10349800D2444249B249224A924A05616FD0BF9547
:1034A80003C5B1DBD1B7F2406244D2444249B249C4
:1034B800224A924A05618280397162CC2A8C594528
:1034C80026DA4AD84ED652D456D25AD05ECE06DE26
:1034D80022DCAE8432C636C4BA8B3E8BC28A468A98
:1034E8008359010403494104EFD0BF8635C53246EC
:1034F800930700FDA2462300F5009547A301C500E8
:10350800A30085012301F5002A8419461105A9C2E3
:10351800B6859700FF1FE780004523066401230A4C
:103528002401231574012317540123184401231976
:103538003401A2856254F2504259B259225A925A21
:10354800025BF24B624C2685D25421616FD0BF8A50
:103558008145EFD0FFB1D1B7F2506254D2544259ED
:10356800B259225A925A025BF24B624C2161828014
:10357800411122C4138481DB8347240006C626C276
:103588009DC7AA851946138501B89700FF1FE780D4
:10359800803D03452400938501B8EFF05F9B2244EA
:1035A800B240138501B8924441016FB0E002B240C5
:1035B80022449244014541018280411126C29387E9
:1035C80081DB06C622C44AC003C737009307F00F41
:1035D800938481DB6302F7042A892945EFD06FF7CA
:1035E8002A841DC9930700FD2300F500A147A30005
:1035F80025012301F50083C72400938501B8A301A1
:10360800F500194611059700FF1FE780C03503C56F
:103618003400A285EFD02FFE03C724008D47631F17
:10362800F70083A781B999CB03A387006308030038
:103638002244B2409244024941010283B2402244EA
:103648009244024941018280797122D406D626D259
:103658004AD04ECE52CC56CA09445DC92A89035570
:103668000500AE895144EF70502CAA8455C1938748
:10367800C1C383C737008546BA8AFD1793F7F70F8A
:10368800494463F7F6080347C500A1476314F700E8
:10369800639009089C5C4544A5EF91659385457145
:1036A8001305C0029700FF1FE780C01788DC2A8A2D
:1036B8004D4439CD1306C0028145EFD07F9B835717
:1036C800090093064A0036852311FA0071469305CE
:1036D800490036C69700FF1FE780E0288947230086
:1036E800FA0003C5C400B2460356090083C5C1C326
:1036F800611513351500EFA0A0352A8463860900EB
:10370800CE852685EF80304401C42685EFF03F8BB7
:103718002285B250225492540259F249624AD24A3E
:103728004561828083C7F1C30547FD1793F7F70FFB
:103738006378F708894751C6011122CC26CA4AC8BE
:103748004EC652C406CEAA89368AB2842E89EF7034
:10375800D01D2A84D14729C9485509C59700FF1F9C
:10376800E7804015F1452685EFD0FF9248D4CD4734
:1037780005CD8346C40021478147639FE600630D5A
:103788000A000347A5010356050193062501AA85EA
:103798004E85EF80A033AA8703474400630F0900D2
:1037A800136767002302E400F2406244D2444249AE
:1037B800B249224A3E850561828013674700DDB71A
:1037C800C9473E858280E14763EAA7009317150041
:1037D800138541D83E9503550500828041657D15C6
:1037E8008280011122CC2A842E8526CA06CEAE8478
:1037F800EF70B0130DCDB7470F009387F723094536
:1038080063E2870281450A854146EFD07F86A68517
:10381800231081000A85418023018100A301010052
:10382800EFA08005F2406244D24405618280494598
:10383800D5BFA38EA1C282806FA0A01A797152CC85
:103848002A8A328522D426D24AD04ECE56CA5AC89F
:103858005EC606D662C4AE8BB28A368BBA843E89FF
:10386800C2894684EF70700C15C92A8C63140A0249
:1038780013774B008347450015CF93E727012302B1
:10388800FC008DEC631C0902639A090205E8ED9BB4
:103898002302FC00832B8C03639F0B06B250225437
:1038A80092540259F249624AD24A424BB24B224CD4
:1038B80045618280F59B93E70701D1B793E74700FD
:1038C8002302FC0001CC1C484146A2852324FC02AB
:1038D80013058C019700FF1FE780E00863910B0236
:1038E800D5D80325CC0209C59700FF1FE78080FCC7
:1038F800F1452685EFD02FFA2326AC0261BFE30BF2
:1039080009F80325CC0209C59700FF1FE78080FA54
:10391800F1454A85C5B79DC483A70B0299EB91650C
:103928009385357171459700FF1FE780A0EF23A0AD
:10393800AB0203A50B0219C57146A6859700FF1FA8
:10394800E78060026388090283A74B0299EB9165BF
:103958009385257159459700FF1FE780A0EC23A2A6
:10396800AB0203A54B0219C55946CE859700FF1F28
:10397800E78060FF1DC483A78B0299EB916593854F
:10398800157151459700FF1FE780C0E923A4AB02DA
:1039980003A58B0219C55146A2859700FF1FE78032
:1039A80080FC2254B2509254F249B24B224CCA863F
:1039B8005A860259424BD6855285D24A624A456197
:1039C8006FF0AFF8011126CA52C406CE22CC4AC8FD
:1039D8004EC62A8AAE84EF70407535C1AA8939452A
:1039E800EFD02FB72A8421CD03C941DB6314090026
:1039F80003C909009307000D2310F400AD47230104
:103A0800F400938569001305340019469700FF1FD9
:103A1800E78060F593F71400858085882306F40015
:103A2800A306940023154401A2856244F240D244BF
:103A3800B249224A4A85424905616FD0CFBBF2405C
:103A48006244D2444249B249224A05618280411106
:103A580022C4138481B8084006C619C59700FF1F01
:103A6800E78040E523200400B240224441018280DF
:103A7800011106CE22CC26CA4AC82EC6EF70E06ACB
:103A880029CDB24503C941DB0CD5AA8463140900CA
:103A9800034905004145EFD0CFAB2A841DCD9307DC
:103AA800000D2310F500A5472301F50083C7540036
:103AB800938564001105A30FF5FE19469700FF1FB3
:103AC800E78060EA9C54A285F2405CC46244D24418
:103AD8004A85424905616FD00FB2F2406244D24430
:103AE800424905618280797122D406D62A842EC67D
:103AF800EF70A0630DCD8346C5001147AA874945DD
:103B08006393E6029C5FB24599C383C567010808C1
:103B1800EF80500CB7D60100938666C5100889451A
:103B28002285EF70507FB250225445618280514502
:103B3800DDBF83C7F1C30547FD1793F7F70F637A16
:103B4800F704894721CA411122C426C24AC006C6C1
:103B5800B2842E89EF70605D2A84D14705C5630859
:103B680009008347450093E727002302F5004146F3
:103B7800A685130584019700FF1FE780C0DE9C48D7
:103B88001CD48147B2402244924402493E854101F7
:103B98008280C9473E858280797122D406D62A84DC
:103BA8002EC6EF70805801CDB2452285230EB10094
:103BB8006C08EF80C075B25022544561828051452F
:103BC800DDBF6F70206BC1671387E7FF6393E50262
:103BD80083A741B991EB494582804945B2402244C7
:103BE800924402494101828003A30700E30503FED2
:103BF8000283411122C426C24AC006C6FD172A897B
:103C08002E84B2846394F50283A741B991CB9C4377
:103C180081CB829711E5238421BBA38491BA7DBF10
:103C2800A6854A85EFF00F8255F9F5B72E85EF7016
:103C3800C04F45D5834705000D45E39127FB2285F5
:103C48002244B2400249A685924441016FA0501611
:103C580061476360A7044111416722C406C626C2B2
:103C68007D172A8409456381E502C547AE8463153B
:103C7800F4002E85EFA0D01D93171400138441D8AB
:103C8800A297239097000145B240224492444101F3
:103C9800828009458280011106CE2AC6EFE0BFFC6A
:103CA800EF10401BD12DEF905105938781DB13074F
:103CB80000F02391E7002382070032451387C1C330
:103CC800FD56A300D700F240238EA1C29545056199
:103CD8006F50B0681D7193970501A6CA86CEA2CC15
:103CE800CAC8CEC6D2C4D6C2DAC05EDE62DC66DA24
:103CF8006AD86ED6C187AE8463D0074603C5C1C3F0
:103D0800EFD00F892A8D138481DB63130D0221659F
:103D1800258DF6406644D6444649B649264A964A11
:103D2800064BF25B625CD25C425DB25D25618280CB
:103D380083470D001307200A639CE70003493400FA
:103D480003552D00C1656A86FD15EFF04FB105A238
:103D58001387C1C303491700130710096396E714B3
:103D680083471D001547639EE7006A85EFF06FB330
:103D78006A85EFC05FFB03C5C1C3EFD06F812A8D91
:103D880069B739476396E71403554D008567A5075A
:103D98006314F50483258D0003CA0500631B0A001C
:103DA800850581C91946138501DD9700FF1FE78046
:103DB80080BB0347040085476318F70E63080A00B1
:103DC800230004005285EFF0CFDF5DB78947230059
:103DD800F400EFA0300069BF096793072700631C50
:103DE800F504032A8D0063010A0C83470A0089EF52
:103DF80083472A0003471A00A207D98F2314F40027
:103E080083473A00A300F400034704008947631D71
:103E1800F70883470A0091C72300040003450A00F6
:103E28005DB783451400035584008D472300F400D3
:103E3800EF507055E5B7930757006319F5008327CE
:103E48008D0003C50700EFF04FF71DB7F977E917A5
:103E5800AA97C207C183914663EEF60083A781B98A
:103E6800E38807F09C43E38507F06A858297E311AE
:103E780005F01DA82D07631EE50083A701B9E38996
:103E880007EE9C43E38607EE0965EA852D058297D0
:103E9800F9BF89671387C7006311E50283278D007F
:103EA80083C70700E38607EC9307F00FE302F9ECFA
:103EB800EA854A85EFC03FF47DBDB907E316F5FEF4
:103EC80083A741B9E38607EADC43EA85E9F34DB500
:103ED8003D476397E70403554D0089671387D7006B
:103EE800E300E5FE13879701E30CE5FCCD07E31D2E
:103EF800F5FA03576400C167FD17631DF70083A730
:103F080041B9E38707E6DC43E38407E60965EA8508
:103F18004D05B5BF83A7C1B9E38C07E49C43EDB752
:103F28001307E003E392E7F883472D0005476393FF
:103F3800E70E83476D00938D81B8F1E383A70D00E9
:103F4800C5CF03CA0700214903457D00130C8D0026
:103F5800E285EFF04F8483474D01A303AD008358FA
:103F68000D010358ED0003574D002A8603453D0017
:103F78003EC283572D01E286D2853EC0CA87EFF044
:103F8800AFD383473D0095E7DD4783580D010358BC
:103F9800ED0083467D0083554D003EC283572D01B9
:103FA8003EC06287CA8705465285EF70E04BA30181
:103FB800AD0083A70D0081C71145EFF05FA9138AF3
:103FC80081BA03450A00E30505DA83C591BAEFE033
:103FD8007FC7E30F05D883463D0093071003638A24
:103FE800F60003564D0083450A004A873685EFE000
:103FF8005FCF238401BAADBB034A3400A9B783A7B6
:1040080081B9034A34001149A1D3DC4395DF014546
:1040180082971DBF2947639DE70883476D00938DED
:1040280081B8A5EF83A70D00B5C703CA07002149CA
:1040380003457D00130C8D0093772500137615003A
:1040480089E7E285EFE03FF52A8683470D02A3035F
:10405800CD008358CD010358AD0103574D000345EA
:104068003D003EC28357ED01E286D2853EC0CA8735
:10407800EFF08FC483473D008DFFDD478358CD01A6
:104088000358AD0183467D0083554D003EC28357DA
:10409800ED0139B7034A340059BF83A781B9034AF0
:1040A80034001149D1D7DC43C1D70145829749B7BC
:1040B8000947639CE70083A701B9E38B07CADC4380
:1040C800E38807CA6A85829765B12D476398E70038
:1040D80083A701B9E38E07C89C47DDB70D476397EF
:1040E800E7006A868D4503554D0085B11947E39D64
:1040F800E7DA9305610113051031EF90C14A2C08E6
:1041080013052031EF90214A03566D008357810132
:1041180003554D0063E8C70083568D0003576101BE
:1041280063F7E60093050002EFA0805191B1637434
:10413800E6002313ED0063F4D7002314FD000357B2
:10414800CD008356AD0003568D0083556D000148A0
:104158008147EFA0A04E29B993F7150099CB83A703
:1041680001B989C7DC4399C30145829713C5140077
:104178004DB693F7250099CB83A781B989C7DC434E
:1041880099C30545829713C5240061B693F7450086
:104198000145E38007B883A7C1B8138481DB99CBB5
:1041A80085472302F40083A781B989C7DC4399C3F3
:1041B8000545829748442C08EF9080552808EFF071
:1041C8002FBB83D761DA91CB130600643386C7020D
:1041D80003C5C1C39145EFD0CF8613C5440015BEB2
:1041E800411122C42A84554506C6EFF0CFDDB33508
:1041F800A00022852244B24041016FA0603F79713E
:1042080022D406D68D472E84631FF50003D7A50058
:1042180083D6850003D665000345340083D5450061
:10422800EFF08FA109A889671387D700631FE502FC
:1042380003C5250019E58547B25022543E854561DE
:10424800828083A681B8E5DA03C6360083C50600F6
:10425800814802C202C00148814701479106EFF038
:10426800AFA50545EFF0AFFEF9B71387E700E30404
:10427800E5FC13873701631AE50003C5250045DD12
:10428800014781460146814561BFE507E305F5FA27
:1042980041677D178147E311E5FA03C75500C94710
:1042A800E31BF7F883D6E50003D6C5000355840061
:1042B80083D5A500EFA0403A51C15D45EFF0AFD0DE
:1042C8003335A000231CA100834544000355240076
:1042D8003008EF60105A83578101B1FF6C0813054D
:1042E8001031EF90412C9305E10113052031EF9037
:1042F800812B8357C101035784006374F70023148B
:10430800F4008357E1010357A40063F4E700231581
:10431800F400835584008357A40063F4B700231581
:10432800B4000357E4008356C4000356A4000355A1
:10433800240001488147EFA0602EF5BD8547231C66
:10434800F10059B7C1671387E7FF639CE50083A7AE
:1043580081B88DC383C707000D47639BA7006FA073
:10436800202BFD1749476395F50083A781B8E5FB26
:104378003A8582804947EDBF238A01BA23AE01BA44
:1043880023AC01BA37570100938781DD1307878172
:1043980098C33757010013070785D8C3375701005B
:1043A8001307479698C7374701009387C1BA130781
:1043B800C73498C33747010013076720D8C38280E2
:1043C80039714AD883A7C1BB06DE22DC26DA4ED66D
:1043D80052D456D25AD05ECE89EF0545F250625477
:1043E800D2544259B259225A925A025BF24B216175
:1043F80082800347050085471389C1BB2A8463006F
:10440800F70403468500930695009305F1000545DA
:10441800EFE0FF9D814719C18347050083460400EB
:1044280011476386E60203A781BB8D460347170041
:10443800630FD70089CF01CF11E5014545B7814703
:104448000145E9BF8546631AD7088D8BFDD703451B
:104458001400130B2400DA85EFE0FFB3A300A400D7
:10446800832709002A8A8149A1C3930BF00F83C7C8
:1044780041BB63FBF90203250900939A490056954D
:10448800834705006380770783471500639C4705CA
:104498001946DA850905EFC0DFC329C58324090059
:1044A80003470400D694A9E4834604009147E386B1
:1044B800F6F883270900D1D303C641BB9305F00F53
:1044C8000147E30CE6F6BE84C10703C507FF630591
:1044D800B50C05071377F70FEDB78946E31FD7F437
:1044E800858BADB7850993F9F90F51B788C4E5A055
:1044F8009147631AF706C84405C5834784000346F5
:1045080005006304F606034704009147631BF7069A
:10451800C84419C597F0FE1FE780C03923A60400D8
:104528000345840091659385E571050597F0FE1FA5
:10453800E780402F05C5034704009147631CF70433
:10454800C8C483478400930594000505A30FF5FEAE
:104558000346840097F0FE1FE780E040034584008F
:104568003335A000A5BD884441BF930594000505D7
:10457800EFC03FB68547E318F5F85545EFF0AFA40F
:10458800BDA8884451DD97F0FE1FE780A03223A420
:10459800040079B788C475B72380D4008347140012
:1045A800DA8513852400A380F400194697F0FE1FCE
:1045B800E780603B0345840091659385F5710505A7
:1045C80097F0FE1FE780002605C5034704009147C2
:1045D800E31EF7F0C8C483478400930594000505DB
:1045E800A30FF5FE0346840097F0FE1FE780A0376F
:1045F80083478400E39307DE034504007D151335E4
:104608001500E9BB011122CC83A7C1BB06CE26CA7F
:104618004AC84EC652C48DC31384C1BB2E8AAA840D
:104628000149084063129902630C0A0497F0FE1FBF
:10463800E780402823200400F2406244D2444249E3
:10464800B249224A0561828093194900B3073501AE
:10465800884709C997F0FE1FE780C0251C40CE9700
:1046680023A407001C40CE97C84709C997F0FE1F2E
:10467800E78040241C40BE9923A60900050955B7C8
:1046880045DD139644008145EFC09F9E1440814745
:104698007D5613F7F70FE37197FA1397470036978C
:1046A8002300C7008507F5B779714AD083A781BB76
:1046B80006D622D426D24ECE52CC56CA5AC85EC688
:1046C800D1CFAA89138981BB938A41BB014411EDDB
:1046D80083A6C1BB99CA03C60A002A8481479305E9
:1046E800F00F13F7F70F6366C70813153400210599
:1046F800EFC02FE6AA8401E92145EFC08FE5AA841F
:1047080031C10144CD49930700FD2380F40085475A
:10471800A38034012381F400A381840055C49389C4
:10472800840023A23401014A930BF00F83C70A00C7
:104738006373FA0039E883270900A68503C50700D3
:10474800EFC06FEB03C50A0081456D3D03250900E5
:1047580097F0FE1FE780001623200900B25022546C
:1047680092540259F249624AD24A424BB24B4561CD
:104778008280139747003697034707006305B70001
:1047880005041374F40F8507A9BF83A7C1BB93154C
:104798004A00BE9583C70500638477032380F90028
:1047A80083C71500138529007D14A380F9001946D5
:1047B80089051374F40F97F0FE1FE780C01AA1094A
:1047C800050A137AFA0F9DB723A20400ADB7411169
:1047D80022C406C62A8405E10945EFE0DFFE2A86E1
:1047E80011C503C5C1C38545EFC0BFA50545EFF099
:1047F8003F9F2A8409C903C5C1C38545EFC01FBAB5
:104808002285EFF07FEAB2402244054541018280CB
:1048180089671387B7006319E50083A781BB95C330
:104828009C4503C5070065B71387C7008147631B0D
:10483800E5009C4503C50700854709C583A781BBDB
:10484800FDF381473E858280797106D622D426D22F
:104858004AD04ECE52CC56CA5AC85EC662C461CD42
:1048680083473500AA8995C3404105C05945EFE003
:104878009FF5931A850193DA8A410149130B000DBC
:10488800B54B83C73900636EF900B2502254925475
:104898000259F249624AD24A424BB24B224C456114
:1048A80082808307840263CF570783A781BB138C59
:1048B80081BBADCB2285EFF0BFB02DC50345840089
:1048C8005105EFC00FC9AA8431CD2310650123011A
:1048D800750183470400194693052400A301F500D8
:1048E8008307840215052303F50083471400A30FEB
:1048F800F5FE97F0FE1FE780000703468400238635
:10490800C4001DC61385440188C89305940097F018
:10491800FE1FE780400583270C00A68503C5070016
:10492800EFC06FCD0509130494021379F90F91BFF5
:1049380023A80400CDB783A781BBA1DBEFF0DFD6A6
:104948002254B25092540259F249624AD24A424B16
:10495800B24B224C014545616FF09F88797106D6AC
:1049680022D426D24AD04ECE52CC56CA5AC85EC697
:1049780062C479C183473500AA8995C3444185C07B
:104988005945EFE05FE4931A850193DA8A410149BA
:10499800930B00FD414C83C73900636EF900B25098
:1049A800225492540259F249624AD24A424BB24BBB
:1049B800224C456182808387F40063CA5707138AB3
:1049C80081BB83270A00A5C75145EFC08FB82A8449
:1049D80039CD23007501A30005002301850183C794
:1049E8000400194693852400A301F5008387F40089
:1049F8001505A306F50083C71400A30FF5FE97F06D
:104A0800FE1FE78040F683C7840093859400130552
:104A1800C400A305F400194697F0FE1FE780A0F430
:104A280083270A00A28503C50700EFC0CFBC05098C
:104A3800C1041379F90F85B783A781BBADD3EFF014
:104A4800BFC62254B25092540259F249624AD24A1D
:104A5800424BB24B224C014545616FF06FF883A77A
:104A680081BB95C703C707008D476313A70203C51A
:104A7800C1C34111854506C6EFC05F921305000307
:104A8800EFF09FC2B240014541016FF06FF5C94791
:104A98003E858280797126D2938481BB9C4006D65C
:104AA80022D4BDEF03C7F1C3C947298B25C7916538
:104AB8002A849385D571114597F0FE1FE78080D62B
:104AC80088C0CD4721C91146A28597F0FE1FE7800F
:104AD80080E91545EFE03FCFAA841945EFE0BFCE46
:104AE8002AC69305F1011305F041EF700150938731
:104AF80081DB83C627000347F1013246B336D00075
:104B080011C389060347340003452400A685EF90A6
:104B1800F02DAA87B250225492543E854561828076
:104B2800C547CDBF83C7F1C35D71A2C486C6A6C2FF
:104B3800CAC04EDE52DC56DA5AD8A18B4944638A81
:104B4800070E83A781BB41446395070E2A89EFF0BE
:104B58004F8783C781C25544637DF50C83A781B80D
:104B680045446398070C91659385C571294597F06D
:104B7800FE1FE78020CB23A4A1B84D445DC9294678
:104B8800CA8597F0FE1FE78000DE83A781B883C738
:104B98001700DDCB2D45EFE01FC32A843145EFE038
:104BA8009FC22A899305F1021305F041EF70E14392
:104BB800938781DB83C727000347F102B337F000EF
:104BC80011C3890741453ECEEFE0FFBF2A8B3D4523
:104BD800EFE07FBFAA8A3545EFE0FFBE2A8A394554
:104BE800EFE07FBEAA892145EFE0FFBD2ACC1D4535
:104BF800EFE07FBD03A781B82ACA034537009305B4
:104C08004700EFE0CFB403A781B8E2485248034613
:104C18002700F247AA865AC6228556C452C24EC0F9
:104C28001107CA85EF90101D2A8401C50D45EFE0D4
:104C38001FE22285B640264496440649F259625A34
:104C4800D25A425B616182802545EFE0DFB72A8452
:104C58002945B1B783C7F1C30145A18B99C3138512
:104C6800C1BA6FE0EF8D411122C4138441BB26C243
:104C7800AA8403450400854506C6EFF0BF9883C79C
:104C8800F1C3A98BB5C723009400138581DDEFE03C
:104C9800CF8A9384C1BB9C4099C74D45B2402244FA
:104CA8009244410182800345040019E10145FDB7A2
:104CB80091659385B571120597F0FE1FE78080B660
:104CC80088C061DD0346040081451206EFC04FBA73
:104CD8008346040090408147FD5513F7F70FE377AB
:104CE800D7FC1397470032972300B7008507F5B71D
:104CF800014523000400EFE04F844DBF411122C459
:104D080003A5C1B806C619C597F0FE1FE78080BA8B
:104D180023A601B8B240224441018280011122CC6D
:104D280006CE26CA8D472E846313F50603C73500C1
:104D3800E94703D54500938481DB6316F70083D7E1
:104D480064006382A706EF60403E09C5835764008C
:104D58002317F5000357A400835684000356640004
:104D68008355440003453400EFE00FED035744003A
:104D780083D764006309F7008547F2406244D24450
:104D88003E8505618280FD572393F400F5B7896756
:104D9800CD07631DF50083C7250031476385E7000C
:104DA8004547E39BE7FCEFE02F80F9B741677D17A4
:104DB8008147E314E5FC83C655004947E39FE6FABB
:104DC80083C5450003552400300023140100EF601B
:104DD80020255DB7797122D483A7C1B806D626D21B
:104DE8004AD00545B5C30D45EFE0FF9DAA8411459E
:104DF800EFE07F9D2A899305F1011305F041EF70DB
:104E0800C11E938781DB83C627000347F101B336B0
:104E1800D00011C3890683A7C1B836C603C53700B9
:104E280093854700EFE0AF9203A6C1B8B2462A8740
:104E38008348B6000348A6009307460003462600A9
:104E4800CA852685EF908079B2502254925402592F
:104E5800456182807D572386E1B0239001BC23A45D
:104E680001BC23A601BC23A801BC375701009387C6
:104E780041DE130727EF98C3375701001307071DB3
:104E8800D8C3375701001307C7DD98C7B7570100C4
:104E9800938747D223A2F1BC8280411126C283A7FF
:104EA800C1B806C622C48DCF2A840D45EFB07FEA6B
:104EB800AA8505C1930700FD2300F5008D47A300CF
:104EC80085002301F50083A7C1B803C50700EFB02B
:104ED8009FF219C42244B240924441016FF01FE28C
:104EE800B2402244924441018280797126D283548F
:104EF8004500896706D622D44AD04ECE52CC56CA2F
:104F080013876700639EE40283A7C1B8014481CF79
:104F180018450345070015E10547A380E700054547
:104F2800EF90806C05442285B25022549254025965
:104F3800F249624AD24A45618280EFF01FF6DDB736
:104F480013879700636797041384C1B0034704006D
:104F58009307F00FE308F7FC1C45114503C9070048
:104F6800EFB03FDFAA855DDD930700FD2300F50064
:104F780089472301F500F977E117BE9493B414002B
:104F8800A3002501A301950003450400EFB0BFE687
:104F980051BFA9070144E398F4F883A7C1B8CE8AA2
:104FA800D9D3184503C417008547034A0700138956
:104FB80081DB630CF40283474900ADF70D45EFB080
:104FC8005FD9AA8505C1930700FD2300F500914725
:104FD800A30045012301F50083A7C1B803C5070055
:104FE800EFB07FE1EFF09FD135BF83A781BC91EF90
:104FF8000145EFE04FFD2A8611C603C5C1C38945A7
:10500800EFC02FA483A7C1B8A9A003C60700938641
:1050180017009305F1000545EFD07FDD71D983476F
:105028000500858BF1D70545EFE0EFF99307B0034D
:10503800AA8463F9A70203C5C1C35D661306067097
:105048008945EFC0CFB2938444FC239091BC83A7D9
:10505800C1B80947A380E7008347490089CB2302E9
:105068000900D1B5130600643306C50271B752852D
:10507800EFF0BFE24DBD79714ECE83A7C1B822D4FF
:1050880006D626D24AD052CC454489EB9387C1C371
:1050980083C7370013F7570019EB49442285B250EC
:1050A800225492540259F249624A4561828003A708
:1050B80081BC414465D7034707006DD3858B2E8992
:1050C8002A8AC9C7834709000547F91793F7F70FD5
:1050D800E365F7FC916593857571314597E0FE1F8F
:1050E800E780407423A6A1B84D444DD9230045015B
:1050F800A30005002946CA85090597F0FE1FE78029
:105108008086930571001305F041EF60116E8347A7
:105118007100A9E703C7A1DB8D476311F704EFD03E
:10512800DFF02C00EF80C05E2800EFE06FC445453B
:10513800EFE06FE901443DD1130600643306C50270
:1051480003C5C1C39145EFC0CF8F89BFEFE07FA7EB
:105158002A84EF60E014E377A4F6ADBFEFF09FC7B1
:105168002A840DDDEFF09FB915BF411126C283A730
:10517800C1B806C622C44AC0A1C383C707000D44EC
:10518800639DA70203C5C1C38945EFC02FA103C50D
:10519800C1C39145239001BCEFC04FA0A38E01DA93
:1051A80083A7C1B80145A38087002244B240924436
:1051B800024941016F90404349442285B24022444C
:1051C8009244024941018280411106C622C426C286
:1051D80085476315F506138401BC83570400A1C7EE
:1051E80003C7C1DB29E31307B0036369F70203C5EB
:1051F800C1C38945EFC08F9A035604009307006422
:1052080003C5C1C33306F6028945EFC08F83231057
:105218000400B2402244924441018280938747FCB3
:105228002310F400FDB783A7C1B8E5D72244B240E4
:10523800924403C5070041016FF03FF383A7C1B84B
:10524800E9DB9387C1C383C73700918BF9D303C5C3
:10525800C1C38945EFC08F942244B2409244239041
:1052680001BC41016FF09FA983C7F1C3958BD9CFCA
:10527800B9CD83A781BCD9CBFD4763EBC70811C261
:10528800C1CA411122C44AC006C626C22386A1B09B
:1052980036893284A1C1938481BC88407D4681458A
:1052A8000505EFB0FFDC8840CA852286050597E032
:1052B800FE1FE780406B8C402285238085002244B6
:1052C800B24092440249850541016F90603183A73D
:1052D80001BD55B7938401BD88407D4681450505CC
:1052E800EFB01FD98840CA852286050597E0FE1FC2
:1052F800E78060678C402285238085002244B24085
:1053080092440249850541016F90C02D494582802C
:1053180009458280797106D622D426D24AD04ECE4B
:1053280052CC8D4763FCA70009442285B250225411
:1053380092540259F249624A4561828003C781DB6F
:105348004144E314F7FE938781DB83C92700930761
:10535800F5FF93F7F70F85462E842A89938481DB1E
:1053680063E4F60695E199452800EFD09F9E03C5B2
:10537800C1C3914523812401EFC04F82A382040059
:1053880029CC2381340155B7194681452800EFB04F
:105398003FCE19462C002285EFB0BFD351F51946F0
:1053A8009305F00F2800EFB0BFCC19462C002285DA
:1053B800EFB03FD235F9A2851946280097E0FE1FC5
:1053C800E780605A014465B70144E312E5FAC8442E
:1053D8002C00EF80E0332A8459BF6314090001448C
:1053E800A9B72800EFE0CF982A8441FD8D47E3183C
:1053F800F9FE4545EFE02FBD1375F50FA382A40014
:1054080079DD03C5C1C35D66130606709145EFB02B
:105418001FF621BF83C7F1C3918B89CF4111138533
:1054280041BC06C6EFD09F92B2407D57239FE1DA78
:105438004101828001456FD07F91411122C403A5AB
:1054480081BC06C626C24AC0138481BC19C597E030
:10545800FE1FE78020462320040003A501BD938496
:1054680001BD19C597E0FE1FE780C04423A00400D2
:105478001389C1C383473900958BADCB138541DEB2
:10548800EFD07F8C83473900958B81EB4D45B24037
:10549800224492440249410182801169930569714D
:1054A8001305000297E0FE1FE780C03708C079DDCA
:1054B800130600028145EFB0BFBB93055971130570
:1054C800000297E0FE1FE780E03588C001C9130697
:1054D80000028145EFB0DFB9014555BF084097E0AC
:1054E800FE1FE780203D232004004DB70145EFD083
:1054F8009F85DDB703C70500937625009377D70FFF
:1055080099C293672700131885011358884113F728
:10551800F7076354080013E7070893768500937725
:10552800770F99C2936787001377050293F6F70DF3
:1055380019C393E607022380D500634508009377D3
:10554800A50281CB8347060093E7C7002300F60036
:1055580082807DFD83470600CD9BCDBF2D45631717
:10556800071403C805000947631EE812C84103472A
:105578001500034505002207498F42070D6541873D
:10558800930825A06309170B011122CC26CA4AC823
:105598004EC606CEBE89B68432842E8963CEE80014
:1055A800930705A0630DF702130515A0630EA70462
:1055B800239004000545A5A0930745A06307F708B5
:1055C8006346F706130565AAE314A7FE85472390EB
:1055D800F600DC4583C707002300F60081A0C84514
:1055E800EFB03FAA420541814E86637335012A8692
:1055F8002390C400420641828325C900228597E092
:10560800FE1FE780403619A8DC4583D707002390A2
:1056180006012300F600A183A300F6000145F2402D
:105628006244D2444249B249056182809947239035
:10563800F6001946D1B785472390F600DC450145A9
:1056480083C707002300F6008280DC45A9CB2147E9
:105658002390E60003D707002300E60003D70700DE
:105668002183A300E60003D727002301E60003D720
:1056780027002183A301E60003D747002302E600A1
:1056880003D747002183A302E60003D7670023035B
:10569800E60083D76700A183A303F60041B72390F0
:1056A8000600ADBF2390060005458280828083C82E
:1056B800050089476391F814DC41797122D406D634
:1056C80026D24AD04ECE52CC03C8170083C7070053
:1056D8002E8422083368F80042088D671358084161
:1056E800138327A0630A680E2A8A3A89B684B2858A
:1056F800634C0301138707A0630AE802938717A086
:105708006303F808854711A8138737A06303E80ADD
:10571800138767AA8D47E317E8FEB25022549254C4
:105728000259F249624A3E8545618280484432C640
:10573800EFB03F95420541819D47E36025FFB309DE
:105748009900D547B24563D43701B547F9B74844FE
:105758002686C2094A9597E0FE1FE780C020484484
:1057680093D9090159463306364181454E95EFB024
:105778003F9083A781BD99E3814745B79C43814505
:10578800E5DF52852DA0AD47E31909F8E39F16FB25
:1057980083471600834606005844A207D58F231076
:1057A800F70083A781BDE9DB9C438545F1D7829744
:1057B800E1B7AD47E31309F69947E398F6F848448B
:1057C800194697E0FE1FE780001A83A781BDCDD751
:1057D8009C43DDD38D4575B7AD4721F38547E396E7
:1057E800F6F60347060093070008E3E8E6F2DC450F
:1057F8002380E70051B785473E85828023AC01BCF2
:1058080089472388F1B0138F01B18147938E01DF57
:105818005947B386FE00238006008507E39BE7FE11
:10582800B707A000938541B1938707059CC1B707C7
:10583800E803DCC1238B01BC37E60200938781A013
:105848001306464CD0C337E602000947138ED1B081
:10585800130686492300EE00D0C723AEE70123AE26
:10586800C70337E6020037EF020037EE020085462D
:105878001306864A938811B1138341BD1388F1B08A
:105888001385E1B0130F0F4B130E0E4A2380E80067
:105898002380E7002388E7002380E7022388E702C4
:1058A8002380E7042300E8002384D700239507001A
:1058B800D0CB238CD700239D070023A2E7032384A2
:1058C800D7022395070223A6D703D0DB238CD70260
:1058D800239D070223A2C7052384D7042395070421
:1058E800231003002300D50023A667042388E704B8
:1058F80023AE17052380E7062388E7062380E708F9
:10590800B7E8020037E702001307474A9388084CB4
:1059180023A2E708F0CB238CD704239D070423A2F6
:1059280017072384D70623950706ECD7F0DB238CCB
:10593800D706239D070623AE07072384D708239598
:10594800070823A6A70837570100938781A91307DB
:10595800475698C3375701001307676BD8C323A46A
:1059680007008280A54763E1A70CB7E70200938789
:1059780087FF0A053E951C41411122C426C206C66E
:105988004AC0B2842E848287D547614563E1B70255
:1059980059468145138501DFEFB08FED2286A68534
:1059A800138501DF97E0FE1FE780E0FB0145B24069
:1059B8002244924402494101828089476145E39823
:1059C800F5FE03570600239AE1BCCDB7A147614510
:1059D800E39FF5FC2146A685138541B1EF80C154AC
:1059E800F1B785476145E394F5FC938581A0D04DD7
:1059F8009385850203C50400EFF0DFAF45BF8547F7
:105A08006145E396F5FA938581A0D05D9385850479
:105A1800D5B785476145E39CF5F80347060023871A
:105A2800E1B069B7094561B7094582800547630A4E
:105A3800E5024111AA8706C62E8599CB11476388CE
:105A4800E7022547638BE7020945B240410182809E
:105A58005546938501DF97E0FE1FE780C0F00145BA
:105A6800EDB783D741BD01452390F50082802146DB
:105A7800938541B1EF80414BDDB783C7E1B0238007
:105A8800F500F1BF938761BD03C7070011EF054714
:105A98002380E700058909C9938681A94146A54560
:105AA800138581A06F30405E014582800111138803
:105AB800F5FF06CE22CC26CA4AC84EC652C4137871
:105AC800F80FAD4563ED050BB7E502000A089385AD
:105AD80005022E983E8A83270800BA893689B2843F
:105AE80082878545EFD0EFC12A8419E1EFF0FF9452
:105AF8002285F2406244D2444249B249224A0561B1
:105B080082808945EFD0EFBF2A847DF12685EFF0AA
:105B18008F95F9BF9145EFD0CFBE2A8471F952868F
:105B2800CE854A85EFD08FB5EFF03F91EFF09F8E8D
:105B3800EF70D07075BFA145EFD0AFBC2A844DF986
:105B48005286CE854A85EFD06FB32685EFF0AF91A8
:105B5800EFF04F90EF70105161BFB145EFD06FBAC1
:105B68002A8459F55286CE854A85EFD02FB12685ED
:105B7800EFF06F8FEFF00F8EEF70D04E75B70944CE
:105B880085BF79714ECEAE896C0022D426D24AD018
:105B980006D62A89B284EF00F0742A840DE1CE85F6
:105BA8004A85EFC0FF912A8419E93245B7260100DA
:105BB80026879386A64B2D468145EF10800D2285BA
:105BC800B250225492540259F24945618280797147
:105BD8004ECEAE896C0022D426D24AD006D62A8967
:105BE800B284EF0030702A840DE1CE854A85EFC07B
:105BF8005F9B2A8419E93245B726010026879386D8
:105C0800065A4D468145EF10C0082285B2502254ED
:105C180092540259F24945618280397126DAAE847C
:105C28004C0022DC4AD84ED652D406DEAA893289E4
:105C3800368AEF00306B2A8431EDA68563030902AA
:105C480083D704002C002314F10083D724002315E4
:105C5800F100930720302316F100930780022307F1
:105C6800F1004E85EFC0BF822A840DE55946A6850E
:105C78001305A1002304210197E0FE1FE780A0CEB1
:105C88001245B726010052879386464625462C00C2
:105C9800EF1020002285F2506254D2544259B25972
:105CA800225A21618280797126D2AE846C0022D476
:105CB8004AD04ECE06D6AA893289EF00B0622A842D
:105CC8000DE1A6854E85EFC09F812A8419E93245EA
:105CD800B72601004A879386864D3546A685EF008C
:105CE800507B2285B250225492540259F2494561A0
:105CF8008280BD47638CF50663E9B702A5476387D1
:105D0800F50663EDB7009947638CF5049D47638FEB
:105D1800F5049547638CF50401458280B547638790
:105D2800F50463E1B704AD47F5B7DD47638EF502C7
:105D380063EAB700C947638BF502D9476386F50262
:105D4800C547C9BFF5476383F50263E4B700ED476C
:105D5800D1B793072005638BF5009307200D5DBF2E
:105D68004845828008418280084582804841828077
:105D78009307F00F630CF506011126CAAA841305D0
:105D8800000222CC4AC84EC652C456C206CE3A8930
:105D9800B689B28A2E8AEFA0DFFB2A844D4515C842
:105DA800930700FB2300F400A300540123114401CE
:105DB8002302340113058400614663050902CA857C
:105DC80097E0FE1FE78020BAA2852685EFB0AF8254
:105DD8000145F2406244D2444249B249224A924AB9
:105DE800056182808145EFB0AFA8F9BF094582807F
:105DF800011122CC06CE2A842306B100A306C100D5
:105E0800EF50A03219CD0347C500A147631FF70023
:105E180003C5C1B178009306E0070146A285EFF0FB
:105E28003FF5F24062440561828078009306E007FE
:105E38000146A28503C5D1B1DDB7930700643306D7
:105E4800F6026FB02FC805C90347050085469307BA
:105E5800270093F7F70F63F0F602411122C42A8452
:105E68003A8506C6EFB04FD7FD572300F400B2407D
:105E78002244410182808280035705009307000B6A
:105E88006313F702834745004947639CE7000347CC
:105E9800150185476399E7000355250085456F304F
:105EA80090406D47C5BF828001112314B1006C007A
:105EB80022CC26CA4AC806CE2A89B6842315C10030
:105EC800EF0050422A840DE12C004A85EFC06FD2C2
:105ED8002A8419E93245B726010026879386263B8E
:105EE80015462C00EF00F05A2285F2406244D24455
:105EF8004249056182807971930720302314B100EB
:105F08002315C1002316F1002C00930780020146D7
:105F180006D62307F100EFF05FD0B25045618280CA
:105F2800C177797185073EC4894726D22316F100C7
:105F3800AE84930780024C0022D44AD006D62A8920
:105F48002307F100EF00103A2A840DE12C004A855E
:105F5800EFC04FE22A8419E91245B72601002687C7
:105F68009386865445462C00EF00B0522285B250E5
:105F780022549254025945618280B28605466FF0D8
:105F8800DFC9797126D2AE846C0022D44AD04ECEB5
:105F980006D6AA893289EF00F0342A840DE1A68555
:105FA8004E85EFC02FBC2A8419E93245B726010077
:105FB8004A879386E6340D46A685EF00904D2285E4
:105FC800B250225492540259F24945618280797143
:105FD800930720202314B1002315C1002316F100D4
:105FE8002C0093078002014606D62307F100EFF044
:105FF800DFC2B25045618280011122CC06CE2A84CC
:106008002EC632C436C2EF5040120DC98346C500B1
:10601800A14712472246B245639CF60003C5C1B1A9
:10602800B2862E86A2856244F24005616FF05FD485
:10603800B28603C5D1B12E86A285F5B7F240624477
:106048000545056182806FF0DFB36FF09FB36FF095
:106058009FC56FF05FC579714ECEAE896C0022D4B2
:1060680026D24AD006D62A89B284EF00B0272A84DD
:106078000DE1CE854A85EFC06FC82A8419E93245FB
:10608800B726010026879386664F3D468145EF0077
:1060980050402285B250225492540259F249456127
:1060A8008280B28601466FF05FB7011122CC2E8440
:1060B8006C0026CA06CEAA84EF00D022DD47630A08
:1060C800F500930710102314F400A2852685EFC06D
:1060D8004FCDF2406244D24405618280239405008A
:1060E80083D7850099E36FF09FAE094582806FF0F2
:1060F800FFFE03C721C1854763FBE702011122CCDC
:106108002E846C0026CA06CEAA84EF00B01DDD4797
:10611800630AF500930700102314F400A28526856E
:10612800EFC02FC8F2406244D244056182805945CD
:10613800828023A0A1BE828023A2A1BE82800111F9
:1061480022CC26CA06CE2A84AE84EF40107EA685CD
:106158002285EFB0DFEC0DE5228523169100EF4094
:10616800D07C19CD0347C500A1476310F70203C5CA
:10617800C1B178009306F0070146A285EFF05FBF32
:10618800F2406244D2440561828078009306F007A9
:106198000146A28503C5D1B1D5B7011126CA06CEDD
:1061A800B68422CCDD4663E2B608D94663FED50A3A
:1061B800A5466381D50A63EEB6049546638CD50877
:1061C80099466387D50A054441687D186316060910
:1061D8003AC6EFB09FE8330685403247420641820F
:1061E800420441803305C4004205BA85418132C664
:1061F800EF30501BAA8749C181C432462390C4009E
:10620800B30580406244F240D2443E8505616FA0E8
:10621800BFACC5466380D504C9460D44E395D5FA9D
:10622800C167FD17E31EF6FA65B7F5466380D50426
:1062380063E4B600ED46D5B7930620056388D5021A
:106248009306200DE391D5F8C167FD170D44631936
:10625800F600BDBF09448DBF9306200DE392D5F823
:10626800310642064182ADBF15445DBF0D444DBFA6
:10627800C167FD171D447DB7F2406244D2440561F1
:106288008280011122CC26CA06CE03C645002E8480
:106298001307000281469945AA84EFF01FF02AC629
:1062A80029CD835704000346440093055400231066
:1062B800F100835724002311F10089472312F100CC
:1062C800930780022303F10097D0FE1FE780A0699F
:1062D800834744008A8526852314F100EFC02F9454
:1062E8002A8411C5324597D0FE1FE780A05C22851D
:1062F800F2406244D244056182804D44CDBF5D7155
:1063080086C6A2C4A6C2CAC04EDE89476306F60086
:10631800C1470944631AF6040144B9C52E894C08DB
:1063280032C6B689AA84EF00E07B2A8432460DED96
:10633800C1778507CA851305D1013ECC230EC1005C
:1063480097D0FE1FE78020622C082685EFF07FF3A8
:106358002A8419E95245B72601004E879386A6403C
:106368001D462C08EF00F0122285B64026449644BC
:106378000649F25961618280797122D436844AD003
:106388004ECE52CCB2892E8A3A8981461307100222
:106398002286D94526D206D6AA84EFF01FE02AC65F
:1063A80029C12286CA85231481002312410123139F
:1063B800310197D0FE1FE780005B4C002685EFC0B7
:1063C8002FA92A8411C5324597D0FE1FE780804E39
:1063D8002285B250225492540259F249624A4561C8
:1063E80082804D44F5B7011122CC26CA06CE4AC890
:1063F800DD472A84AE84638DF50281470355040086
:106408006C002306F100EFC04FA80545638CA40873
:1064180003458400B165938505B8EFB0EF82E54781
:106428002301F400B7270100938787685CC095A80B
:10643800034755013149B2863306270318499C4260
:1064480032971043E31BF6FA83D7460003564700FA
:10645800E315F6FA8C460847EFA0BFC759DD834716
:10646800540103474401850793F7F70FA30AF40083
:1064780063F0E704B3872703184803550400BA9765
:10648800984783D6470003D6270083D50700EFF047
:10649800BFEE25F503458400B165938505B8EFA0E7
:1064A800BFFA5945F2406244D244424905618280AC
:1064B80083476401A1B7011122CC26CA06CEDD4765
:1064C8002A84AE84639CF50603550500EFB0FFB837
:1064D8000356C40183562401035744016D162A96B6
:1064E80042064182B307D640C207231EC400C183B7
:1064F80063F1E7089305C5FF3308F740635CB8020A
:10650800BA96918EC206184C8355040103550400AF
:10651800C1823E97EFF05FE615E103458400B1655F
:10652800938505B8EFA05FF25945F2406244D24422
:10653800056182806D1593160501F1B781470355F2
:1065480004006C002306F100EFC02F940545E38E8C
:10655800A4FC03458400B165938505B8EFA0DFEE80
:10656800E5472301F400B7270100938787685CC0DB
:1065780065BF8547E9B7397126DAAE842C0022DC7D
:106588004AD84ED606DE2A89B289A92B2A8421ED5B
:106598004A85EFB09FAC83D644006D1563C5A6004D
:1065A80093160501C182984403D6240083D50400BC
:1065B8004A85EFF07FDC2A841DE53146A685080868
:1065C8002306010097D0FE1FE780E03983D7240017
:1065D8002245B72601004E87938646615D466C00CA
:1065E800231EF1007D252285F2506254D25442596F
:1065F800B259216182806FF01FF86FF0DFF779716F
:1066080026D206D622D44AD04ECE52CC56CA894477
:10661800BDC935CA32892E84AA893A8AB68AEFB0AA
:10662800DFA313064400814771150357060063561C
:10663800A706850793F7F70F3106E318F9FE8A8551
:106648004E854D21AA8421E11844835644000356FF
:106658002400835504004E85EFF01FD2AA8405E577
:106668000245B726010085475287938646615D46F5
:106678004C002302F10022C423062101A3060100D5
:10668800230751013925B2502254268502599254C4
:10669800F249624AD24A45618280ED44EDB7797188
:1066A8004ECE37E60200AE89C16526D20147AA84DC
:1066B80089461306C64CFD15054522D406D64AD090
:1066C800EF10500D054431CD2A8913073002814659
:1066D8001146F5452685EFF05FAC2AC6554431C111
:1066E8008357A900CE8601462314F100914723154C
:1066F800F10085472300F500B2472C002685A380CA
:1067080007003247FD572301F7003247A301F7007E
:10671800EF10007E2A8411C5324597D0FE1FE7800E
:1067280060192285B250225492540259F2494561A7
:106738008280411106C6EFF0CFDB19C5B240410196
:1067480017D3FE1F67000317B24041018280A38E52
:10675800A1B08280238EA1B08280011106CE2AC604
:10676800EFB0CFF6FD57A38EF1B03245238EF1B0CE
:1067780023A001BE23A201BE9145238EA1BCEF3008
:10678800C03DF24005616F20D02593970501C18770
:1067980063D3071203C5C1BD797122D44AD006D686
:1067A80026D22E89EFA0CFDE2A8441CD03470500EB
:1067B8009307000A6314F70885474C08A305F100FE
:1067C800EFB0AFFCAA841DE9834761017147637389
:1067D800F708138717FE1377F70F9306000263F283
:1067E800E608858BD5C383A701BE994481CB0355A1
:1067F80024001306B1004C088297AA848347B1008D
:1068080099C7084409C597D0FE1FE780A00A95E0FC
:106818005247B7070001938707F07D8FB70712002B
:1068280093870710630CF70003476101ED4763176F
:10683800F700035524008545EF30E0262285EFA0B8
:106848008FCEB250225421653345A9009254025983
:10685800456182803707301405073357F700058BE9
:1068680049D303A741BE59DB0347510141FB230626
:10687800F10099472308F100035524006C00231701
:106888000100EFB09F949DBF83A741BE9DC30355F0
:1068980024001306B1004C0882972DD1AA8483479F
:1068A8005101A9FF83476101230891002306F100E4
:1068B800E1B79944EDB701458280397122DC26DAC7
:1068C80006DE4AD84ED652D456D25AD0A5472A8484
:1068D800B2846399F5108347450203570600835A2B
:1068E800260085072302F5029307F7FFB387FA020C
:1068F8005442C207C183B69703C9170083C707006C
:106908008346C50022093369F90085476390F6027A
:1069180033075703231006008149014A130B350139
:10692800931A070193DA0A0163E15907C167FD1752
:106938006302F90C83570401637EF90A05094209C9
:106948008346C40013590901231724010547035539
:1069580004009305E400639FE6002315F100930704
:1069680020302316F1009307800223142101230706
:10697800F1002C00EFB0BFB103458400B1659385E9
:1069880005B8EFA07FAC5945BDA083D62400DC40F4
:1069980083452401ED1613865900C206C1823E962E
:1069A8005A85EFB0AFD705C9630C3A01C84003D682
:1069B8002400B3053501529597D0FE1FE780A0FA51
:1069C80083D724003E9A83D70400420A135A0A0147
:1069D80085072390F40083D72400BE99C20993D970
:1069E800090199B703474600A9476310F70283478F
:1069F800450281CF0145F2506254D2544259B259EE
:106A0800225A925A025B216182808346240113092B
:106A1800340137E502004A8689451305454CEFB035
:106A2800EFCF19C10545C1BF8346240137E50200F0
:106A38004A8689451305854CEFB04FCE65F58346E8
:106A4800240137E502004A8689451305C54BEFB096
:106A5800EFCC69F98346240137E502004A86894567
:106A68001305854AEFB08FCB55FD03C74400BD47DA
:106A7800E3EAE7FAA56793874712B3D7E700858B60
:106A8800D5D38347440285072302F40203D924009F
:106A980071BD03C681C203A781BE81476315F60095
:106AA800814636858280BA8613078702835587FD1B
:106AB800E389A5FE850793F7F70FCDB7011106CE39
:106AC8002EC6EFF01FFD01CD8347A500B245138701
:106AD80017006396E50093F707F82305F500F240E1
:106AE80005618280011106CE2EC6EFF09FFA05C51A
:106AF800B24591C188C1834785001307E00F5D4502
:106B08006388E7001307F00F01456383E7005945E1
:106B1800F240056182800945E5BF411122C42A84FB
:106B2800210506C626C24AC0EFF0EFB1834724000C
:106B3800A51793F7D70F91EB0347C4008547631E4A
:106B4800F7041C48814431499DEFFD572301040097
:106B5800A304F400230204021305C4002244B24033
:106B6800924402496146814541016FA06FD0B387C5
:106B780024033E95084509C597D0FE1FE78080D3BA
:106B8800850493F4F40F834744010848E3E1F4FED5
:106B980097D0FE1FE78000D24DBF084C75F975B736
:106BA800411122C4416406C626C29307E4FF630E5E
:106BB800F500AA8485E1EFF0DFED01E91305F4FFA4
:106BC800EFF03FED19C123109500B24022449244E2
:106BD8004101828085476395F504EFF09FEB2A8495
:106BE8006DD5FD572310F500834784001307F00F78
:106BF8006385E7021307E00F638BE70083462400F1
:106C08000345940001475146A685EFF06F9622850B
:106C1800EFF0BFF0FD572304F4002305040075B717
:106C28008947E394F5FA8545EF40407059FD26857C
:106C3800EFF03FE62A844DF949BF39C9034785007B
:106C48009307F00F6306F704011122CC06CE2A84BD
:106C580083462500835505000345950001475D4699
:106C6800EFF00F9103472400E1476319F70003553C
:106C780004006C0023060100EFB03FA1F95723047C
:106C8800F4002285EFF07FE9F240624405618280DA
:106C980082809307F00F6306F706011122CC26CAFB
:106CA8002A844EC6AE84B689AA85930685003775B0
:106CB80001004AC852C43A89328A130525C4794664
:106CC80006CEEFF08F97A304240123014401232269
:106CD800340185C01305C4006244F2404249B249F8
:106CE800224AA685D2446146056117D3FE1F670074
:106CF80083C7F2406244D2444249B249224A0561FC
:106D0800828082802386A1BE82809547639CF50697
:106D180083474502854685072302F5028357060007
:106D2800584203462600FD17C207C1836318D604DC
:106D38008A07BA9703C7170083C707002207D98FA6
:106D48000357E50063F9E704411106C622C4850725
:106D58002316F5002A849305C50003550500EFB0F6
:106D68004FE903458400B165938505B8EFA0CFEDE1
:106D7800B2402244D9473E8541018280C946B38743
:106D8800D70245BF83464600294785476396E600F4
:106D98000347450211C381473E8582809D47639220
:106DA800F506834745028356E50085072302F50269
:106DB800835706005842FD178A073E9783471700F6
:106DC80003470700A207D98F014763F6D70441118B
:106DD80006C622C485072A842316F5009305C50034
:106DE80003550500EFF0EFC903458400B1659385AD
:106DF80005B8EFA06FE5B240224459473A854101F2
:106E0800828083464600A94705476396F6000347F4
:106E18004502133717003A858280411122C406C6FD
:106E280026C2B5472A84639BF50483474502B2848A
:106E380085072302F50203550500EFB00FA283D79B
:106E480004001307F5FF014563C5E7020357E40093
:106E5800035504009305C400BA972317F400EFB054
:106E68000FE803458400B165938505B8EFA0CFDD31
:106E78005945B2402244924441018280034746006A
:106E88009D470545E317F7FE0345440213351500F2
:106E9800CDB7C547639EF5068357060003572600FE
:106EA800FD17B387E7020347450205072302E502FA
:106EB8005842C207C1833E978347370003472700DC
:106EC800A207D98F41677D176395E70081473E8503
:106ED8008280138717002316E5000357E500E3F7C0
:106EE800E7FE411122C49305C5002A840355050015
:106EF80006C6EFB02FE803458400B165938505B851
:106F0800EFA08FD4B2402244D9473E854101828008
:106F18008346460029478547E39BE6FA034745022F
:106F280055F775B7011122CC26CA4AC852C406CEF5
:106F38004EC683C7250015472A8AAE84328436890F
:106F4800639DE7043686A2852685EFF01FDCAA89B3
:106F580055E985476318F40A03474900A9476301BF
:106F6800F70203C594004A8785460146D285EFE0BB
:106F78003FE019E585454A85EFE0BFD71334150092
:106F880083C6240003C5940001476946D285EFE013
:106F98003FDE2685EFF07FB851A01D476398E700D4
:106FA8003686A2852685EFF07FDF55B7254763989B
:106FB800E7003686A2852685EFF03F9049BF354722
:106FC8006398E7003686A2852685EFF01FE541B76E
:106FD80045476398E7003686A2852685EFF07FEB64
:106FE800BDB75D47639FE70003C7C5008547368681
:106FF800A2852685631DF702EFF0EFBE8547631B68
:10700800F5048549A5476317F402835709009DE3F2
:107018000544E38709F6D947E39DF9F62285F2404E
:107028006244D2444249B249224A05618280EFF063
:107038008FC8E9B703C594004A87A2860146D2855E
:10704800EFE01FD371F5A2854A85EFE09FCA13349C
:107058001500C1B70544D9B7397122DC06DE26DA36
:107068004AD84ED652D456D283D705001944A1E740
:1070780083C925002A89328A938759FE93F7D70F47
:10708800AE84CDE783C6C1BE1307F00F938AC1BE95
:1070980019446382E602F5476394F904EFF07F9F91
:1070A800AA8921C10346A5000DCE93178601E18761
:1070B80063DD070001442285F2506254D2544259DC
:1070C800B259225A925A21618280F5454A85EFE0E9
:1070D8003FD283C7A90093E707F82385F900D9BFF2
:1070E800814983D64400904483C5140003C5040035
:1070F8003800EFB0AFDA2A845DFD83C6240003C5EB
:107108000A0038000146CA85EFE09FC62A8445F583
:10711800B24799C323000A0083C724007547E39B3D
:10712800E7F8E38909F82385F90071B7EFF07F964E
:10713800AA8A49D185476397F90883D544008844CA
:107148003000EFA07FF32A843DF503C72A00C54726
:1071580063F8E708DD476307F70A03C59A0083C7A2
:10716800C1BD6394A70A014403C72A008D4763176A
:10717800F7048357810003D7CA0063F4E700239616
:10718800FA0083D5CA004A85EFE07FFB83C771D137
:107198006D476375F70283D6CA005D476370D702EF
:1071A8001307B00F93F5F70F6374F7009305B00F4B
:1071B8001166130606294A85EF7000405685EFF0E0
:1071C800DF95D5BD834725001144E39637EF5C4131
:1071D800E38307EE83D54400884430008297A5B73F
:1071E800B72702009387072AB3D7E700858BB5D75F
:1071F80003C624003400D6854A85EFF0BFD22300A9
:10720800AA0055BD83A70A01DDB783C6240038004C
:107218000146CA85EFE0DFB52A8439F583C5240025
:107228002800EFE01FAD21D123000A0035BF01116E
:1072380026CA03C581C29307800291653305F5020A
:107248009385657006CE22CC4AC84EC652C497C0F4
:10725800FE1FE780205D23A4A1BE1DCD138981BE3A
:107268000144130A8002FD5983C781C2636FF40287
:107278003775010013050506EFE0BFEB3775010010
:10728800130545ACEFA0BFCF37750100130585BACC
:10729800EF406001014511A04D45F2406244D244DF
:1072A8004249B249224A05618280B3074403032553
:1072B80009006146814505041374F40F3E952310B7
:1072C8003501230105002314350123050500230298
:1072D80005023105EF90DFD941BF0145828083D790
:1072E80005006387A70083D745006395A70091052C
:1072F8002E85828083D78500A105E38BA7FE814573
:10730800C5BF0DCD834725000547890793F7F70FBC
:107318006376F702411122C406C62A848355050004
:10732800034535000147F9465D46EFE07FA4F9576C
:107338002311F400B2402244410182808280014539
:1073480082801386B1B2930700022300F600FD572E
:107358002385F1B2A38FF1B0238FF1B08545239433
:10736800B1B2239701BE23AA01BE23A201C023AC58
:1073780001BEB7E70200938601B29387874BDCC250
:10738800238801BE938741AA09472380E60023800A
:10739800E7002388E7002380E7022388E70237E72E
:1073A8000200D4C71307C74AB7E60200D8DB9386A2
:1073B800864A0D47D4CB238CE70237E50200B7E6AF
:1073C8000200138781E01305454C9386C64CD8DF2D
:1073D800C8C32384B70023950700238CB700239DD7
:1073E8000700D0CFD4D3238407022395070223A60E
:1073F8000702239D070237770100938741AE1307E1
:10740800A74C23A00700D8C323A4070082804111FA
:1074180006C6EFF0DFEC11C503452500B240410177
:1074280082800145E5BF411122C426C24AC006C672
:10743800AA842E893284EFF09FEA11E94165CA8552
:107448007D15EFF0DFE9C54711C52310950023012D
:1074580085008147B2402244924402493E85410159
:10746800828029E78948354763931605011106CEBE
:1074780022CC26CA034716000346060093C7F7FF27
:107488002207598EF18F32C68DE7C4452A84A68516
:10749800EFF0FFF732460147630FA60022856244EA
:1074A800F240A685D24405616FF0FFF72D473A8573
:1074B800828013070008F2406244D2443A8505618D
:1074C800828083C8050009486395080303A845001E
:1074D8008347180003480800A207B3E70701C2075B
:1074E8000D68C187130828906395070189476FF0D5
:1074F8005FF705458280011122CC1384F1B103475F
:10750800040006CE26CA4AC84EC69307F00F630089
:10751800F704AA892945B2842E89EF909F8305C96B
:107528009307100B2310F5002302050023113501E2
:107538002313250123149500AA85034504006244FA
:10754800F240D2444249B24905616F90DF8AF24065
:107558006244D2444249B24905618280411126C23F
:10756800AE84938581E022C406C62A84EFF03FEA00
:10757800098909C922852244B240A685924441015D
:107588006FF0EF91B2402244924405454101828058
:10759800411122C426C24AC006C6AA841304450063
:1075A80013090504835704008DC3084409C597C00F
:1075B800FE1FE7802030228531468145EF905FAB82
:1075C8003104231A04FEE31F24FDB2402244FD5770
:1075D8002390F400024992444101828083A7C1BFED
:1075E80003D707006300A70283D60704138707049D
:1075F8006388A6001387070883D707086396A70040
:107608003A8582803E87EDBF0147DDBF83A741C031
:1076180089CB03D747006314A700884782809C431F
:10762800C5BF01458280411106C6EFF03FFE09C57E
:107638000845B240410182800145E5BF011126CAD3
:107648009384450022CC4EC606CE4AC852C456C2C0
:107658005AC026878149014481468147154503560A
:10766800070045CEC9E20354470083572700B28676
:10767800A297C207C18385093107E392A9FE35C4E1
:107688002E89916593854570228597C0FE1FE780F6
:1076980060192A8B39C9814A014A8C4485C503D6A9
:1076A800440033054B0197C0FE1FE780C02B83D7EA
:1076B800440088443E9A420A135A0A0197C0FE1FA2
:1076C800E780401F63870A00314681452685EF9091
:1076D8003F9A850AB104E3E23AFD2326690123149F
:1076E8008900054521A0630DD6000145F24062449A
:1076F800D2444249B249224A924A024B05618280E9
:1077080003562700E313F6FE035647003294B29758
:107718004204C2074180C183B9BF0545E37835FDFE
:10772800B9BF83A781BF99E3014582809847035772
:10773800A7006315A7001385470082809C43E5B71F
:10774800411106C6EFF0FFFD11C503550500B24013
:10775800410182800145E5BF411106C6EFF07FFC7B
:1077680011C503452500B240410182804145E5BF6E
:10777800411122C42A842E8506C6EFF0FFFDAA8592
:1077880005462285EF30101D95476305F500BD4776
:107798006313F5002145B240224441018280411122
:1077A80022C406C603A481BF8146938781BF29C02E
:1077B80018440356A70018406317A60285CA98C242
:1077C8002E8581C921469305440097C0FE1FE78096
:1077D8008019228597C0FE1FE780C00D0145B24081
:1077E800224441018280A2863A84D1B798C3C9BF96
:1077F8000545F5B783A741C00146138741C0A9C70E
:1078080003D847009443631CA802011106CE22CC7A
:1078180026CA0DCA14C2AA843E852E8497C0FE1FAC
:10782800E78040092C002685EFF07FF701E519C0B5
:10783800B2471CC0F2406244D244056182803E8651
:10784800B68775BF14C3C1BF05458280411122C4E4
:107858002A84090506C6EFE00FDFFD57A301F400EF
:10786800B24022444101828083A701C003D70700A8
:107878006300A70283D66700138767006388A600A2
:107888001387C70083D7C7006396A7003A8582800D
:107898003E87EDBF0147DDBF411122C4416406C6E2
:1078A80026C29307E4FF630EF500AA8485E1EFF092
:1078B800BFFB01E91305F4FFEFF01FFB19C123100B
:1078C8009500B240224492444101828085476394E6
:1078D800F504EFF07FF92A846DD5FD572310F500E4
:1078E800834724001307F00F6384E7021307E00FB0
:1078F800638AE700034534000147F9465146A685E7
:10790800EFE00FC72285EFF07FF4FD572301F40065
:10791800230204007DB78947E395F5FA8545EF30E2
:10792800F02045F12685EFF03FF42A8455F951BF40
:107938001D71A6CACEC686CEA2CCCAC8D2C4D6C22B
:10794800DAC05EDEAE8483C52500F947AA8963974D
:10795800F504EFF07FF12A8411ED01442285F64009
:107968006644D6444649B649264A964A064BF25BCF
:1079780025618280834725000547890793F7F70F1C
:10798800E37DF7FC034535000147F9460146CE85FE
:10799800EFE00FBE2285EFF07FEBC1B703AB040029
:1079A800B7070001938707F037071200B377FB008A
:1079B80013070710B28A638AE7022EC6EFF0DFEAE0
:1079C8002A89B24505C5034645000DC293178601AD
:1079D800E187E3C407F84E85EFE08FC1834749008C
:1079E80093E707F82302F9008DBF014903C7A1B245
:1079F8009307F00F138AA1B21944E301F7F6E147A0
:107A0800E3EEB7F493D71500FD1713973700B7E7E0
:107A1800020093870705BA9703A80700E30008F454
:107A280083AB4700E38C0BF2420B135B0B0163053E
:107A38000B00C947E394F5F283D64400904483C50C
:107A4800140003C50400380802982A84E31805F0D6
:107A58002C084E85829B2A8421C983C71400E39F82
:107A680007EE83C72400230AA10039472308F10041
:107A78006399E70262478347170003470700A20795
:107A8800D98F0C084E852319F100EFA00FF4E306F7
:107A980005EC14080546D9454E85EFE0EFD52A8454
:107AA80075BD83578101F1BF83C624009147E386E2
:107AB800F6EA03450A0038080146CE85EFE04FABE9
:107AC8002A84E31D05E883C524002808EFE06FA297
:107AD80019C123800A009840B7070001938707F06F
:107AE8007D8FB707120093870710E308F7E6E306D0
:107AF80009E683C724002302F9008DB5011106CEDB
:107B08002EC6EFF07FD601CD83474500B2451387D7
:107B180017006396E50093F707F82302F500F24093
:107B28000561828003A781BF19E3014615A81C4798
:107B380003D8A700636B050183584700B386080183
:107B48006355D5008146639416011843F1BF3E86FC
:107B5800C10703D3A7FF6317A30099C123900501A9
:107B6800328582808506C206C182F1BF397152D43E
:107B78002E8A4ED69305E101AA89528522DC4AD87D
:107B880056D206DE26DA328936C63AC4BE8AEFF005
:107B98007FF9054435C5AA840355E1013944EFF05E
:107BA800FFA639CD03284500630C08042247B246D6
:107BB800D6874A86A6854E8502982A8431E193079E
:107BC800E00F638FFA0203C704008947631AF702BC
:107BD800D8408347170003470700A207D98FC20779
:107BE8000D67C18713072790639CE7008347190037
:107BF80003460900D285A2075D8E4E85EFF0BF8F40
:107C08002285F2506254D2544259B259225A925A99
:107C180021618280797122D4035425004ECEAA892D
:107C2800228556CA06D626D24AD052CC5AC85EC633
:107C380062C4AE8AEFF09F9A01E92285EFA09FF90E
:107C4800594429E90144B9A003C789008547AA8492
:107C58000144631AF702AA8513858900EFF01F9E75
:107C680029CD03D7640083D68400D04483D544004B
:107C780003D52900E147EFF07FEFD9472A8463183D
:107C8800F50223A604002685EFF09F9049C0D94746
:107C9800E30AF4FA2285B250225492540259F24966
:107CA800624AD24A424BB24B224C4561828061DD26
:107CB80083D744002390FA00F9B713894400014A96
:107CC800914B594C154B83550900D5DDE1476306A7
:107CD8007A010357C90011C3D947035729008356AE
:107CE80049000326890003D52900EFF03FE82A84DC
:107CF8006319850123240900050A3109E3156AFD82
:107D080059B77DD9835709002390FA00F5B703D5F1
:107D180029002DB701112317C1009307E00F13069F
:107D2800E1000147894606CEEFF05FE4F2400561C5
:107D38008280797122D42A840355850026D2AE84A4
:107D48009305210106D64AD0EFF0DFDD6308050E62
:107D58008347850093F7070295CF2AC6035521016B
:107D6800EFF07F8CAA87B24501ED8357840039452F
:107D78002390F400B25022549254025945618280F3
:107D8800035524004946829711C5835784002390E0
:107D9800F400CDB7035924004A85EFF03F8411ED74
:107DA80041657D15EFF09F8319E5835784002545CC
:107DB8002390F400C1B7231025011307450081471C
:107DC8009546035607002DE63147B387E7021309A6
:107DD80084003146CA8591073E9597C0FE1FE7800B
:107DE80080B83146CA85480897C0FE1FE780A0B70B
:107DF8000356C4000355240041478146DD45EFE0A2
:107E0800CFB92ACE19E58357840045452390F4005D
:107E180095B70C480356C40097C0FE1FE780A0B46E
:107E2800035524004C08EFA0BFD629D5594599B76A
:107E380085073107E397D7F8254581BF0545B1B7D1
:107E4800797122D42A840355850026D2AE849305FD
:107E5800E1014AD006D63289EFF0DFCC51C583471D
:107E6800850093F70702A9E7034714019307200544
:107E780019E3834744008356A40050448355840083
:107E8800035524000147EFF07FCEAA8721E98347F5
:107E9800140199E703552400EFA0BFCAD94711E19F
:107EA8008147B2502254925402593E8545618280DE
:107EB8002AC60355E101EFF00FF7AA8705C9B245B5
:107EC8000355240049468297AA8759DD0357840041
:107ED8002390E4000347140161F7E1B75947E3171A
:107EE800E5FE230009006DBF8547CDB7B947F9BF47
:107EF800397122DC4AD84ED652D406DE26DAAA894F
:107F08002E8A32C63689EFF03F96094415C5834755
:107F180025001307E00FAA845D44638FE700130769
:107F2800F00F5944639AE700324605E2D2854E8540
:107F3800EFA03FCE2A8415CD2285F2506254D25448
:107F48004259B259225A2161828003550A00930589
:107F5800E101231F0100EFF0FFBC0355E101EFF041
:107F6800AFFFAA8505464E85EF30C01E2A845DDD29
:107F7800E1B79307F00FE301F9FC37750100938629
:107F880024007946A6851305A530EFD01FEBA38101
:107F980024015DB7397126DA83A481BF52D45AD03F
:107FA8005ECE62CC06DE22DC4AD84ED656D266CAEF
:107FB8002A8BAE8B328C368A99E08149B9A08044ED
:107FC80083DC44000149835AA40063149901844066
:107FD800E5B78357A400A28963F867010509420938
:107FE800135909014104D5B7E3EAFBFE630C0A0003
:107FF800834504004840D28662863AC6EF901FF255
:10800800324769DD19C323105701F25062544E8577
:10801800D2544259B259225A925A025BF24B624CDC
:10802800D24C2161828003D7050083D6250085477D
:1080380063E9E60439C7411183C6450026C237E51E
:1080480002009384550022C426862E841305454CCD
:10805800894506C6EF909FECC14711CD8346440081
:10806800835524000355040001472686EFF09FF24C
:10807800814711E1A947B240224492443E8541011B
:1080880082803E8582802E860355060083D5250092
:10809800854763E2A50205C18346460041110147B1
:1080A800150606C6EFF01FEF814711E1A947B24058
:1080B8003E85410182803E8582802E8603550600DA
:1080C80083D52500854763E2A50205C1834646009E
:1080D80041110147150606C6EFF0DFEB814711E1B4
:1080E800A947B2403E85410182803E858280397130
:1080F8004ED683D7250083D9050006DE22DC26DA92
:108108004AD852D456D25AD05ECE62CC66CA6AC811
:1081180063E037198547638E0914416BAE8A2A8A52
:108128002314010002C6014401497D1B894B054CFB
:10813800C94C054D83D52A000147814601464E8525
:1081480023130100EFF01FE5AA846300051209EC70
:1081580013072002930661005A8695455285EFE081
:10816800CF832A84630805120357810083C704005C
:1081780045C70347A100630CA70741476385E7028A
:108188002C005285EFA0CFE909CD34001546D9451A
:108198005285EFD07FE611C5324597B0FE1FE780C4
:1081A80060718147F9A083D7A400414613052400D4
:1081B8002300F40083D7A400A183A300F400CC40DB
:1081C80097B0FE1FE780207A49048357810085070E
:1081D800C207C1832314F10063F9270983D7A400D8
:1081E800638567098509C20993D90901A1B7E3998C
:1081F80077F983D7A4000946130524002300F40067
:1082080083D7A400A183A300F400CC4097B0FE1F3D
:10821800E7806075110455BF22C60359610003C782
:10822800A4001305240063827703335999032305B7
:1082380071012300E40083D7A4004146A183A30071
:10824800F400CC401379F90FA5BF23058101230061
:10825800E40083D7A400135929001379F90FA183E7
:10826800A300F4000946CC4055B78357810089FB29
:10827800A947F2506254D2544259B259225A925ADA
:10828800025BF24B624CD24C424D3E8521618280AA
:108298008547C5B7C547F1BF03C721C1854763F304
:1082A800E706011122CC26CA4AC806CE2A8432899A
:1082B800AE84EFF06FDB01C9034725009307E00F99
:1082C8005D456308F700631C0900A6852285EFA0B9
:1082D8003F91F2406244D24442490561828003D50D
:1082E80004009305E10023170100EFF0BF83035555
:1082F800E100EFF06FC6AA8505462285EF2090655C
:1083080069D5C1BF5945828013F7050201C7B285F7
:108318006FF00FC6411126C24AC006C622C413F91F
:108328008500AA8463170900139785016187635D37
:10833800070232853684EFF02FC2AA8505466313FB
:10834800090001462685EF20F06001E90145B240A9
:108358002244924402494101828083479400E5DB2C
:1083680083478400E5F7E5B793F72500E5F30D4566
:10837800F9BF7971AE8622D42A8403D50600930505
:10838800E10106D636C6EFF0EFF909CD8345850041
:10839800B2460356E1012285EFF01FF7B25022548E
:1083A800456182800545DDBF13F7050201C7B28527
:1083B8006FF00FBC411122C426C206C693F4850093
:1083C8002A8491E4139785016187635007023285F7
:1083D800EFF08FB8AA85054691E001462285224430
:1083E800B240924441016F20F05693F725000145B1
:1083F80091E30D45B2402244924441018280797153
:10840800AE8622D42A8403D506009305E10136C638
:1084180006D6EFF02FF1B24601CD8345850003560D
:10842800E1012285EFF05FF8B25022544561828065
:108438000545DDBF797126D2AA840355A500C16719
:1084480022D44AD04ECE06D623170100FD17328417
:10845800B6890149630DF500050583C60400D040BF
:1084680042051307E1004181EFF0DFB22A8983C694
:108478000400D04037E5020089451305454CEF90CC
:10848800FFA91DC503D4A4002285EFF06FAB09C571
:108498007D142A9442044180638409002390890052
:1084A800B25022544A8592540259F2494561828059
:1084B80083C60400D04037E5020089451305854C82
:1084C800EF90DFA561F183C60400D04037E50200D4
:1084D80089451305854AEF907FA419C9E30609FA6F
:1084E8008357E100E39287FA0354A9007D145DB72E
:1084F80003D4A40055B7397122DC26DA4AD84ED6FF
:1085080052D456D25AD062CC06DE5ECEBE8983C71C
:1085180085002A8AAE84C18B328C36843A89C28A15
:10852800468B9DE783CB04008947638BFB046285F8
:10853800EFF0CF8D1DC183280500638008025A889B
:10854800D6874E87CA862286A6855285829839A004
:108558003285EFF04F8DAA8711ED3945F2506254FC
:10856800D2544259B259225A925A025BF24B624C87
:10857800216182802946A6855285829745D5F9BF13
:10858800D8408347170003470700A207D98FC207BF
:108598000D67C187930607906380D72263CCF606E0
:1085A80093062780638CD70C63C1F60213070780F4
:1085B800E3CFE7F62D45E39309FADC4403C6070049
:1085C800CC432310C900228559A213073780E390B2
:1085D800E7F62D45E39409F885472310F900DC44B4
:1085E800814583C707002300F40003D5A4000505CF
:1085F80042054181EFF00FD3835709006315051237
:1086080091072310F9001146814513051400EF80E6
:108618003FA629A2930627906381D71863CED71265
:1086280093063790638AD71813074790E391E7F0CA
:108638002D45E39509F2DC441D472310E90003C7E3
:1086480007002300E40003C71700A300E40003D7D2
:1086580027002301E40003D727002183A301E400B6
:1086680003C747002302E40003D76700A302E4001E
:1086780083D76700A1832303F4004DA02D45E39F12
:1086880009ECDC446C0083C9170003C70700A20982
:10869800B3E9E90011472310E90083C707004E85B5
:1086A8002300F400DC4483C71700A300F400EFF0B4
:1086B8006FC7AA8435C50356C100C1659306E1009A
:1086C800FD158329C500EFF0FFD619ED83C6040018
:1086D800D04037E5020089451305854CEF901F848B
:1086E80001E5FD572317F10003C709008947631007
:1086F800F70283A5490009461305440097B0FE1FF9
:10870800E78060268357090089072310F9008357FB
:10871800E1002301F400A183A301F40001453DBD5C
:1087280023173101EDB7034705008907BA972310CE
:10873800F9008357A500A300F4008357A500A1837F
:108748002301F400034605004C411305340097B09B
:10875800FE1FE7804021D9B7C844EF809F92931746
:108768000501C1832A871D45E3EA37DF6399F900CC
:1087780023100900CC4403560900CE95A9B5420739
:10878800B3863A01418363C7E600B38737412310B4
:10879800F900CDB723105901F1BF2D45E39009DC4D
:1087A800CC445285EFE0BFC6231079012300A40012
:1087B8002181A300A4009DB72D45E39109DADC448B
:1087C8002310790183C707002300F400DC4483C722
:1087D8001700A300F40099B71D71CAC82A89035568
:1087E8002500A2CCCEC6D2C4D6C2DAC05EDE62DC18
:1087F80066DA6ED686CEA6CA6AD8AE8AEF90FF85AC
:10880800130CF5FF93170C01C1832A8A814913843D
:1088180041E13EC6C16D8357C90063F6F90083572D
:10882800040063CC870103552900938541E1EFA03B
:10883800CFA52A8D15CD594D25A8832789001397D3
:1088480019009305E101BA9783C4170083C707008D
:10885800A204DD8C2685EFF0EFACAA8515E92390FC
:108868009A004840054D09C597B0FE1FE78080046F
:10887800F64066446A85D6444649B649264A964A29
:10888800064BF25B625CD25C425DB25D2561828020
:1088980032488348490083A641BF0356E101035586
:1088A800290081471387E1BEEFF0FFC42A8D1388A2
:1088B80041BF09C523909A00484075B75C4095E3CD
:1088C80003552900514781461386FDFFBD45EFD06A
:1088D800DF8C48C0138841BF09E523909A00454DB5
:1088E80041BF8357040003D7E1BE9384E1BE3E979E
:1088F8006347470113C7F7FF52972390E4004840A6
:1089080003D60400832508003E95850997B0FE1F0D
:10891800E78060058357040003D70400C20993D990
:108928000901BA972310F400FDB5397122DC2A84B5
:108938000355250006DE26DA4AD84ED652D45AD038
:108948005ECE62CC66CA2E8B56D26AC8EF90EFF024
:108958002A8A8346C4008355A400035584007800FE
:108968001306D400130CBAFF651AEFF0AFE2420AFF
:10897800AA898144135A0A01138941E163860904CB
:1089880063D48405938A41BF8348440083A60A00C0
:108998000356C10003552400528881471387E1BE5E
:1089A800CE85138DE1BEEFF01FB515C5814A03567C
:1089B800C1008355A4004E859306E100EFF09FA700
:1089C800AA89639B0A065DF9F1EC8357840029455F
:1089D8002310FB003DA883570D0003560401E3173D
:1089E800F6FC83A50A004848EF80AFEE61D18327E3
:1089F8004900A1E3035524004166454781467D1699
:108A08009D45EFD08FF905E5835784004545231030
:108A1800FB00F2506254D2544259B259225A925A27
:108A2800025BF24B624CD24C424D21618280232280
:108A3800A90083DAA900A5BF83274900A697238048
:108A4800570193871400139707018327490041832F
:108A580093DA8A00BA972380570113872400832664
:108A6800490093873400420791044183C207C20436
:108A7800C183C180369711CD8356E1002300D7000A
:108A880003274900BA970357E10021832380E700B1
:108A9800F5B5FD562300D70003274900BA97238070
:108AA800D7001DB7035524008980239A91E0938548
:108AB80041E1EF909FE331DD5945A1BF411122C447
:108AC80006C693F705012A84328585C3EFE0DFC81F
:108AD800AA8505462285EF20E06795476305F500DE
:108AE800BD47631DF502214515A893F7450099CBAD
:108AF800EFE09FC60546AA8522852244B24041017F
:108B08006F20406593F7050489C7EFE0FFC401466D
:108B1800DDB713F51500133515000605B2402244DC
:108B28004101828079714AD04ECE52CC06D622D4E9
:108B380026D22A8AAE89014983D749006364F9009D
:108B48000145A1A083A70900131419009304140078
:108B58003387970003470700A29703C5070022073A
:108B68009305E100598DEFE0FFFB05E983A70900B4
:108B780005453E94034704002380E70083A70900C6
:108B8800BE9403C70400A380E700B2502254925455
:108B98000259F249624A456182808345850003563D
:108BA800E1005285EFF09FF105C183A709003E94CB
:108BB800034704002380E70083A70900BE9403C786
:108BC8000400A380E700D1B7050942091359090138
:108BD800A5B7011122CC2A8403D505009305E1002D
:108BE80006CEEFE03FF401CD834585000356E10052
:108BF8002285EFF0BFECF2406244056182800545B2
:108C0800DDBF1D71CAC82A890355250086CEA2CCAE
:108C1800A6CAD2C4D6C2DAC05EDE62DC66DA2E8AA2
:108C2800CEC66AD86ED6EF904FC32AC68346C9000F
:108C38008355A9000355890078081306D900EFF079
:108C48006FB5B247416B938AA7FFC20AAA8B01444A
:108C580093DA0A01938441E17D1B638F0B18035655
:108C6800C10183C58B0003552900EFF03FE5AA8DAC
:108C7800631F05168348490083A641BF0356C101F7
:108C880003552900568881471387E1BEDE85EFF03A
:108C98009F86AA8D9389E1BE138D41BF6319051480
:108CA8001DCC03D7090083D7240011076397E70079
:108CB8003247A2976D1763C8E706938741E103D748
:108CC800270003552900938541E13354E40223909A
:108CD8008700EF901FDFAA8D15C1D94D05A0035558
:108CE8002900494781465A86C545EFD00FCBC8C0F1
:108CF80015E583D7AB00C54D2310FA00F64066444E
:108D08006E85D6444649B649264A964A064BF25BD2
:108D1800625CD25C425DB25D2561828083D70900C6
:108D280091072391F400DC4003D7AB009306E101DF
:108D3800A2972380E7009307140013970701DC40EC
:108D480041835E85BA9703D7AB0021832380E70070
:108D58000356C1018355A900EFF0CFED1307240096
:108D6800D44093073400420711044183C2074204E8
:108D7800AA8BC1834180369721E1FD562300D70095
:108D8800D84083250D00BA972380D700C84003D662
:108D98000900229597B0FE1FE780E0BC83D7090041
:108DA8003E944204418011F8835789002310FA0049
:108DB800E3960DF4A94D99B78356E10183250D007B
:108DC8002300D700D840BA970357E10121832380B5
:108DD800E700C84003D60900229597B0FE1FE78038
:108DE80080B883D709003E9442044180BDB583D73B
:108DF800AB002310FA0045BF814D75B75D71A6C25F
:108E0800CAC0AA840359850003552500A2C44EDEB2
:108E180052DC5AD85ED662D466D286C656DA6AD092
:108E28006ECE2E8BEF906FA3930BD5FF7115131A8F
:108E380005010144135A0A01938941E163557415E8
:108E480083C6C40083D5A4001307E1001386D400A9
:108E58004A85EFF02F942A8D630705120359A50060
:108E6800834585000356E10003D52400EFF01FC5B4
:108E78006310051283C8440083A641BF0356E1006E
:108E880003D52400528881471387E1BEEA85EFF0B5
:108E98008FE6938DE1BE138841BF631B050E0DC895
:108EA80083D70D0003D7290089076308F7061387BE
:108EB80041E18357270003D52400938541E13354CA
:108EC800F40223108700EF901FAC05C5594515A083
:108ED80003D5240041664D4781467D16A545EFD050
:108EE800CFAB23A2A900138841BF1DE123102B019A
:108EF8004545B640264496440649F259625AD25A24
:108F0800425BB25B225C925C025DF24D61618280E1
:108F180083D70D0089072391F90083D70D00A29705
:108F280063D3770783A749000357AD00930A24004A
:108F3800A2972380E70005049317040103A44900BE
:108F4800C183C20A3E948357AD008325080093DA93
:108F58000A01A1832300F40003A5490003D60D00EC
:108F6800569597B0FE1FE78000A003D40D00C16797
:108F7800FD17569442044180E302F9EC05094209C1
:108F88001359090165BD29451DF023102B0195B71B
:108F98006DDC31BF8357050099E309458280411193
:108FA80026C2444122C406C64AC083C60400D04033
:108FB8002A8437E5020089451305454CEF801FF6E2
:108FC80059C18347240025476145E51793F7F70FF3
:108FD8006367F70803D781B20545138981B241C396
:108FE80083570400BA974167634BF70691659385E9
:108FF8002570314597B0FE1FE780C082AA844D4591
:10900800B9CC835704008355090001460147B3864C
:10901800E500C206C182636AF704AE97C207C1833E
:1090280019C22310F90023A004002146A285138544
:10903800440097B0FE1FE7800093938781BF984351
:109048001DEF84C381A083C60400D04037E5020029
:1090580089451305854CEF807FEC25F50945B2401D
:10906800224492440249410182805040131547002E
:1090780005072A962315D600054651BF3E871C438F
:10908800F5FF04C30145E1BF011106CE22CC26CA73
:109098004AC809E98944F240624426854249D244D3
:1090A800056182802AC62A84280036892314B100E3
:1090B8002305C100EFF01FEEAA8471FDE30D09FC42
:1090C8008357A400E1DB916593855570314597A0DE
:1090D800FE1FE780207505C58357A40023200500DF
:1090E800232425012312F500938741C0984301E703
:1090F80088C355B73E871C43F5FF08C369BFCD44F5
:1091080059BF938701BF03C7070011EF05472380A5
:10911800E700058909C9938641AE41469145138503
:1091280041AA6FF07FF601458280A38FA1B08280AB
:1091380041677D176310E5027D572390E500238181
:1091480005002392E500238305002394E500238589
:1091580005008280411106C6EFE06F9811C5FD57E2
:109168002310F50023010500B2404101828001115E
:109178004AC806CE22CC26CA85472A896393F504B5
:109188004A85EFE0AFC539E9C16437E60200938547
:10919800F4FF1307E10089461306C64A0545EFE0C8
:1091A8007FDF2A84FD140DC44C444A85EFF05FF834
:1091B8000356E10022858146A685EFF0AFA72A84F1
:1091C800DDB789476396F5008545EF2020164DD910
:1091D800F2406244D244424905618280EFE04FBBCD
:1091E80065B791654111938515701305200D06C665
:1091F80097A0FE1FE780006323AEA1BE9306050C6F
:10920800AA877D572390E7002392070023A607002B
:109218002398070023AC0700239E070023A2070218
:109228002394070223A80702239A070223AE070202
:1092380093870704E398F6FC23A0D1C0F9572313BA
:10924800E50C2314E50C2316E50C2317E50C231075
:10925800F50C2311E50C2305050C2308050C230246
:10926800050C3785010013058593EFC0FFEC3785A2
:109278000100130545B0EF80FFD0378501001305C5
:10928800058AEF204002B240014541018280011168
:1092980006CE2AC6EFC08FD6EFE0AF8A32457D579B
:1092A800238FA1B0938781E02381070023830700E0
:1092B800238507002390E7002392E7002394E70023
:1092C800F2402385A1B237950100130565170561A2
:1092D8006F10707D93970501C18763DB073203C563
:1092E800E1B1797122D45AC806D626D24AD04ECED8
:1092F80052CC56CA2E8BEF70BFA92A8439C50347B2
:1093080005009307000B631FF7028547938441BF4D
:10931800A304F1009C4023150100A9E7EF00407861
:1093280091659385357097A0FE1FE780A04F88C090
:1093380015E98347910099C78345440013058400C4
:10934800EFD02FBF2285EF701F9EB25022542165A7
:109358003345AB0092540259F249624AD24A424B11
:109368004561828061468145138541E1EF705FD098
:10937800034944008947938441E1D289938A41E1B2
:109388006314F906EF00C0712390A400035524006C
:10939800938541E1EF902FC40357240083D704003D
:1093A8008356840011ED63E4F6002314F40083551A
:1093B80084003A85EFC0BFD82285EFC0FFAB95BFC8
:1093C80063E4F6002314F40083578400D945938698
:1093D80041E10D463A852390FA00EFC0FFC18D4563
:1093E80061DD138541E1D1A09947631AF90293051C
:1093F800A1002285EFF06FD3AA845DDDD94763967B
:10940800F40E0509035524001379F90FD9459386FD
:1094180041E14A86EFC05FBECA8559DDD9B7A14789
:109428006318F9009305A1002285EFF03F9DE9B785
:10943800A947631FF906035584006C00EFE08FEE1F
:109448002A89630D05140355240041669306E1003B
:1094580055477D16AD45EFC05FD4C8C0AA8649C13F
:10946800834844000358E1000356C1000355240013
:109478008147138741E1CA85EFF0EF87AA84631E0D
:10948800050E03552400938541E1EF90AFD50DD526
:1094980003552400938641E12D46D945EFC0DFB539
:1094A800E30C05F0AD45138541E1EFD08FA829B74E
:1094B800B147631BF90E035584006C00EFE08FE69B
:1094C800AA8469CD0355240041669306E1005947F3
:1094D8007D16B545EFC07FCC23A2AA00AA8629E94C
:1094E80083578400C5442315F10003471400D1476E
:1094F800E304F7EC8347440003552400938541E1D6
:109508002380FA008357A10023829A002391FA004E
:10951800EF80BFCBE30205EA03552400938641E1BF
:109528000546D945EFC05FADE30805E8854555BD5B
:10953800834844000358E1008357A4000356C10040
:1095480003552400A685138741E1EFE0DFFAAA84DA
:109558000DE503552400938541E1EF906FCEE30DAF
:1095680005E403552400D945938641E13546EFC00B
:10957800BFA8B545E30205E4ADB5D9476393F40048
:10958800814403A54A0097A0FE1FE780A032E38527
:1095980004E2835784002315F10081BF83578400B8
:1095A80085442315F10091B7B9476318F90093056D
:1095B800A1002285EFF04FA281B5C1476318F900D9
:1095C8009305A1002285EFF0CFE33DB5C947631AA3
:1095D800F900130691009305A1002285EFE05F864C
:1095E80021BDD947631DF9009305A1002285EFE04D
:1095F8004FF4AA84E31405E0A304010075BBE14716
:10960800E31CF9DA9305A1002285EFE0AFE0EDB3A2
:1096180001458280F9C6011152C42E8A854522CCA3
:109628004EC656C206CE26CA4AC8AA8AB689328407
:10963800EF10D04FD1470DC183C701C183C611C1F7
:10964800814419E0B684BE8603A781C0939744007D
:10965800BA9763EDD400D547F2406244D2444249F8
:10966800B249224A924A3E85056182803E89C107F5
:1096780003D727FF09C7850493F4F40FD9BF21CC7A
:109688009565938525C01305000297A0FE1FE78006
:1096980060192326A90061D113060002814593842D
:1096A8000404EF70FF9C2311990023000900231381
:1096B80059010DC48347940003A681C12304F9000E
:1096C800118C8327C90011841180238E870023A061
:1096D8002901814751B723260900C1BF2304490145
:1096E800FDB785473E85828083C501C103A781C038
:1096F80081476395F50081463685828003562700A9
:10970800BA8619C2E30AA6FE850793F7F70F410741
:10971800CDB703C601C103A781C081476315F60011
:1097280081463685828083552700BA8689C5834558
:109738004700E388A5FE850793F7F70F4107F9BFB0
:1097480083C531C103A781C181476395F50081466F
:109758003685828003560700BA8619C2E30AA6FE38
:10976800850793F7F70F4107CDB703C811C183A742
:1097780081C001476315E80081463685828003D69B
:109788002700BE8619CA03D667006318A600D0470B
:1097980009C603562600E302B6FE05071377F70F3E
:1097A800C107C9BF411122C4404526C206C6AA84C2
:1097B80015C0484409C597A0FE1FE780A00F484878
:1097C80009C597A0FE1FE780E00E228597A0FE1F1F
:1097D800E780400E268541468145EF707F89B2407B
:1097E8002244FD57A384F400924441018280011170
:1097F80022CC2A840355250006CE2EC6EF1070030E
:10980800324622858145EF00706222856244F2402B
:1098180005616FF03FF90DC503572500411122C4BA
:1098280006C62A8411CBDD45EF0030642285224428
:10983800B24041016FF01FF7B240224441018280DB
:109848008280411126C2B1469304C5FFB386D40273
:109858001387C1E206C622C436978356A7006398C9
:10986800B60248430DC51384C1E29307F00F63069F
:10987800F60083470500639CC70097A0FE1FE7809A
:109888006003B147B387F402A29723A20700B2404E
:109898002244924441018280411122C42E8426C26E
:1098A8004946AA848145228506C6EF706FFCA1CC83
:1098B80083C7C4011397470083A781C1BA9703D709
:1098C80007002310E40003D7270083D7670023117C
:1098D800E40003D7E1C02312E40003D704002313F4
:1098E800E40003D724002314E40003D7440023151D
:1098F800E40003D764002316E40003D78400231888
:10990800F4002317E400B2402244924441018280CB
:1099180083C501C103A881C103A681C0014781474E
:109928006394E5003E8582808346060081CE5446D6
:1099380091CA83C6C6019206C2966315D5008507EB
:1099480093F7F70F05071377F70F4106D1BF1306F3
:1099580000643386C50293069500AA8537A50100E1
:109968001305E5816F701F96411122C406C62A842B
:1099780003459500EF705FA6FD57A304F400B240BD
:10998800224441018280011122CC4AC84EC652C4E9
:1099980056C25AC006CE26CA2A89AE8901441D4B32
:1099A80083C711C16361F40463950902930AF00F38
:1099B80083C701C16367F4061144A14422850504E5
:1099C80042041306F00FCA854180EFF09FE7E317C2
:1099D80094FEF2406244D2444249B249224A924A31
:1099E800024B0561828083A781C093144400BE9412
:1099F80083C704009DC383D76400639027036396DD
:109A0800690103D52400EF10C06226854E86814582
:109A1800EF00D0412685EFF0FFD805041374F40F4A
:109A280041B783A781C093144400BE9483C7040040
:109A38009DC383C794006380570383D76400639CE6
:109A480027012685EFF05FF22685D145EF00F0412A
:109A58002685EFF03FD505041374F40F91BF4167D5
:109A68007917630BE502411122C406C685472A848B
:109A78006399F50022852244B240814541016FF087
:109A88009FF089476396F5008545EF10300A7DD130
:109A9800B24022444101828082809D456FF0BFEE32
:109AA80003D5E1C0828003C7C1C0011106CE2317C8
:109AB800A1002316B10085476318F70070009305CD
:109AC800E1000545EF40902FF24005618280A947EB
:109AD800631CF60483C7150003C70500A207D98FC6
:109AE8002310F50083C7350003C72500A207D98FC7
:109AF8002311F50083C7550003C74500A207D98F76
:109B08002312F50083C7750003C76500A207D98F24
:109B18002313F50083C7950003C78500A207D98FD3
:109B28002314F5000145828005458280914763141E
:109B3800F60283C7150003C70500A207D98F2310B3
:109B4800F50083C7350003C72500A207D98F231165
:109B5800F50001458280054582809387C5FF93966D
:109B68000701C1820D47636ED70031473387E7028B
:109B78009387C1E2BA972381A7002390B7000145D4
:109B88008280094582809306B00FAA8763F4A600F5
:109B98009307B00FF1172397F1C02389B1C0238A27
:109BA800B1C082801905956542054111938535C07C
:109BB800418106C697A0FE1FE780C0C611C5B24006
:109BC800E95541016F704F91B2404101828023896C
:109BD80001C0238601C0A38601C0238101C20111EF
:109BE800239701C0238EA1C052C41385C1E222CCA1
:109BF80026CA4AC84EC6130600038145138A31C1D6
:109C080006CE238801C0A38801C023A401C0230075
:109C18000A00938901C2EF70AFC5EF10004A03C56F
:109C28000900138401C1938411C1138981C005C936
:109C38009565938545C0120597A0FE1FE78080BEF5
:109C480023ACA1C009CD03C6090083C7190081450B
:109C58002300CA0012062380F400EF706FC103C509
:109C680081C283C704009565938555C03E951375D9
:109C7800F50F2300A400120597A0FE1FE78080BA05
:109C88002320A90021C50346040081451206EF7070
:109C98002FBE0327090083460400814725077D5608
:109CA800639FF6006244F240D2444249B249224AD4
:109CB80037A50100130565A605616F10C05E85070D
:109CC8002300C70093F7F70F4107D9BF230004000B
:109CD80023800400C1BF41119397050126C206C61F
:109CE80022C44AC0C187AE8463DD070803C5C1C169
:109CF8001389C1C1EF70CF892A8429C90347050098
:109D0800930700096311F70403471500CD4763184B
:109D1800F7060348250003C581D183C721C113066F
:109D2800640081458146138721C1AA886318D80237
:109D380099C12300F7008347070091C7034509002D
:109D48008545EF704FBF2285EF60FFFD2165258DAA
:109D5800B240224492440249410182808345060070
:109D6800AE9793F5F70F93F7F80F63F4A50093F701
:109D7800F50F850693F6F60F0906854545BFF52BC1
:109D8800D9B793F715000145E1D7EF00506909C924
:109D980083C721C191C703C5C1C18545EF70AFB95C
:109DA80013C5140075B785462A8763FBC60483C7A5
:109DB800150003C60500A207D18F2310F500639C88
:109DC800D70083C7350083C62500A207D58F231186
:109DD800F50001458280894601456394D70283C70F
:109DE800350083C62500A207D58F2311F70083C746
:109DF800550083C64500A207D58F2312F70082803D
:109E08000545828091476314F60283C7150003C78E
:109E18000500A207D98F2310F50083C7350003C7B3
:109E28002500A207D98F2311F50001458280054539
:109E3800828091476314F60283C7150003C70500A3
:109E4800A207D98F2310F50083C7350003C7250063
:109E5800A207D98F2311F50001458280054582802C
:109E6800A1476314F60483C7150003C70500A207BA
:109E7800D98F2310F50083C7350003C72500A20733
:109E8800D98F2311F50083C7550003C74500A207E2
:109E9800D98F2312F50083C7750003C76500A20791
:109EA800D98F2313F50001458280054582808947B3
:109EB800631CF60083C7150003C70500A207D98FE6
:109EC8002310F500014582800545828083572600CE
:109ED80079714ECE06D622D426D24AD01307F0077F
:109EE800AE896372F70209473AC42316F1003000BD
:109EF80093F5F50FEF10C012B25022549254025944
:109F0800F2494561828003574600D9462A8932843E
:109F180063F8E6008357660063F4F6006379F70098
:109F280023140100300093F5F90F4A85E1B7035572
:109F3800060002C4EFF0DF80AA8459C1EFF05F9DEC
:109F480083C784006369F5001146A246CE854A8519
:109F5800EF10400355B7340026869305F00F4A8565
:109F6800EFF04FEB75F1A24703578400DC472390CD
:109F7800E700035724002391E70003574400239286
:109F8800E700035764002393E70003D744002394B2
:109F9800E700DC4485CB93F4F90F2286A6854A8531
:109FA8008297C167FD172A86E311F5FA224599477A
:109FB800F9452300F50023029500EFF05F992DBFC6
:109FC800094661B7014651B7A947631CF60483C720
:109FD800150003C70500A207D98F2310F50083C712
:109FE800350003C72500A207D98F2311F50083C7C1
:109FF800550003C74500A207D98F2312F50083C770
:10A00800750003C76500A207D98F2313F50083C71E
:10A01800950003C78500A207D98F2314F5000145D1
:10A0280082800545828083C705002300F50083C729
:10A038001500A300F50083C7350003C72500A20754
:10A04800D98F2311F50082802322050003C745001C
:10A0580089476304F7000545828083D665000D476C
:10A06800E37BD7FE9C45011106CE22CC26CA4AC8FE
:10A078004EC683C4170003C60700A204D18C1386FA
:10A0880044006311D60403C4370083C72700AE8990
:10A0980022045D8C9307C4FFC207C1832A89636FBA
:10A0A800F70003A589002311990023108900F155B1
:10A0B800EF609FC22322A900014531A02285EFF05D
:10A0C800AFE265F10545F2406244D2444249B249E3
:10A0D80005618280397122DC2E84834704004AD8C6
:10A0E80006DE26DA4ED619472A89B285639AE7062C
:10A0F800034624002800EFF0FFD0AA8415E9035591
:10A108008100EFF06FDEAA898345140015C937B7BF
:10A1180001002E86130747F634009D454A85EF0057
:10A12800D03B4E850946814511234E85EFF08FE7D8
:10A13800F250625426854259D254B2592161828024
:10A1480089472310F100835781000A862311F10003
:10A158008357A1002312F1004A85EF00706CC9BF34
:10A168004947639BE702035624002800EFF05FCFBE
:10A17800AA845DFD1385C1E28357C50099E3814434
:10A1880045BF03471400834604000345E5003C002F
:10A198000146CA85152E69BF51476390E7020356E9
:10A1A80024002800EFF0BF92AA8459F183451400D7
:10A1B80030004A85EFF09FD1A5BF5947639FE70458
:10A1C800035624002800EFF07F96AA8435F18355C2
:10A1D80081004A85EFF06FD91DC558458356A10007
:10A1E80083570700B697C207C1832310F700C1DB66
:10A1F8005C47D1D783C721C1D9D303C5C1C1854520
:10A20800EF607FF335B789473EC0835781000A86E0
:10A21800834514002312F10081B7834514000A8690
:10A2280023100100EF00D05F99BF5D71A6C256DA16
:10A2380086C6A2C4CAC04EDE52DCAA8A03C515006F
:10A24800AE8432C6EFF0EFCCB24501ED8144B640A2
:10A258002644268506499644F259625AD25A6161C3
:10A268008280230205002311050083C90400854765
:10A278002A84639AF90003C624002808EFF0BFB2C5
:10A28800AA8405492DA09D476394F9040347050056
:10A298008D47E31DF7FA03C6240028080549EFF0A7
:10A2A8005FB9AA8409E505468145228541262285AC
:10A2B800EFF08FEB034584003C080147CE862686E5
:10A2C800D6851924E30509F82285EFF0AFCD41B70B
:10A2D800CD47639DF900034705009147E318F7F65A
:10A2E80003C624002808EFF09FBC59BFD547E39F59
:10A2F800F9F4034A05008947E31AFAF403C624006F
:10A3080028080549EFF05FCCAA8455F1835701026C
:10A31800BDE3035781011306F0035C44930607FC71
:10A32800C206C182636CD6000356A101D94663F701
:10A33800C6008356C101D94563EFD50003552400F3
:10A348002391E7000549EF00D04E03560102D2855C
:10A3580022854924A9BF8355E1012391E70023926F
:10A36800C7002390B7002393D70085472300F40044
:10A37800014A0149D9BF014AC9BF7971AA8522D4C6
:10A3880026D203542500AA84280806D6EFF0DFCB8E
:10A39800F24599E535E985452285EFF0CFF075A8B6
:10A3A800835781011547639BE7060357A1018D4732
:10A3B80063FCE7046800EFF01FC70357E100DD47BF
:10A3C80063FCE7008345D100B7071700850710082D
:10A3D80022853EC8EF00D0448357E1000357A1010E
:10A3E80091076305F7002285EFF02FEB8347C10043
:10A3F80072466C00858B1106228591CFEFF0FFE243
:10A4080001C52285EFF06FE9884451D59790FE1F6A
:10A41800E780404A49B7EFF0FFCBDDB711476389C2
:10A42800E7001387A7FF42074183854663ECE602EE
:10A438003147F117B387E7021387C1E2BA9703D709
:10A44800070079D303C527003008A2850D204DFDEC
:10A45800035781019147E310F7F4B2502254925404
:10A46800456182802C082285052E59FDFDB7011112
:10A478004AC82A89314526CA06CE22CC2EC6B284BD
:10A48800EF603F8D21C1B2459307000A2310F50004
:10A498002311B5002A84214611058DC0A685979001
:10A4A800FE1FE780404CA2854A85EF60DF94014596
:10A4B800F2406244D2444249056182808145EF609E
:10A4C8003FBBD5B70545EDB7797126D2AA841305E8
:10A4D800000206D622D42ECE32CC36CA3AC83EC6A0
:10A4E800EF603F8721C96246F2454247D246B247EC
:10A4F8002A84130520FA2300A400A300C400231112
:10A50800B4002302E400A302D400130584006146CA
:10A5180091CFBE859790FE1FE780E044A285225424
:10A52800B2502685925445616F60FF8C8145EF607B
:10A538003FB4EDB7B25022549254456182805845D9
:10A54800797122D406D62A84AE862DCF8357270068
:10A55800231DF10093072006639DF50403D6E1C08F
:10A56800835767006373F600B28713F6F70F8355B6
:10A578002701834707018D8F93F7F70F81E5890737
:10A5880093F7F70FB297FD17B3C7C702231EF10061
:10A59800835724008355640003458400231CF1007D
:10A5A80001473C080146EFF03FF2B25022544561A2
:10A5B80082800347C70183A781C11207BA9783D74F
:10A5C8006700E9B72EC6194681452808EF605FAADB
:10A5D800B2467DBF797122D406D626D22A848DC18F
:10A5E80081470147930600062E868355640003457C
:10A5F8008400EFF07FEDB25022549254456182807E
:10A60800B28428005946EF60BFA62314910089E858
:10A618008357240048446C002315F100EFF0CFA7BE
:10A628003C000147930600060146C1B7797106D67A
:10A63800814799ED8357250058452316C1002314F7
:10A64800F1003C0011C7835727002315F1003C0097
:10A658002E8683556500034585000147930600064D
:10A66800EFF09FE6B25045618280411122C406C6D0
:10A678008347050011472A846395E7022E86835590
:10A6880065000345850081470147CD46EFF0DFE3CC
:10A698004946835564002244B240154541016FF094
:10A6A8004F9A13F7B70F89466317D7000146EFF0A3
:10A6B8007FF25146F9BF0D476398E7002244B24044
:10A6C800014641016FF09FF6B24022444101828069
:10A6D80003D70500B14671173307D7029387C1E244
:10A6E800BA97D84319EBD8412395A7000145D8C399
:10A6F80003D725002394E700828059458280797129
:10A7080022D4404526D24AD006D6AA842E8925C00E
:10A71800484419C59790FE1FE780C01923260400F6
:10A728008357040083D5640003C584002315F10012
:10A73800835724000147930640062316F1008357E8
:10A7480084004A862317F1001C483EC883D724009A
:10A758002314F1003C00EFF03FD7A30E2401232877
:10A768000400B25022549254025945618280280054
:10A7780031468145EF60DF8F83D7240083D564009D
:10A7880003C584002314F10001473C0093064006EA
:10A798004A86EFF07FD3F1B7797152CC2A8A03D574
:10A7A800050026D206D622D44AD04ECE56CAAE844A
:10A7B800EFE09FF319E18547ADA84045AA8965DC1C
:10A7C80083576500E39947FF835784006385071221
:10A7D8008346C40103A781C19206FD173697C207B5
:10A7E80003576700C1832314F4006316F700930529
:10A7F8003006EFF0DFD45C48A5EFC84003491500E8
:10A808008347050022093369F90083D72400130719
:10A818002900631AF702F955EF600FCCC8C02391DD
:10A82800240103C589002686D285EFF05FC48147DD
:10A8380021E1B250225492540259F249624AD24A52
:10A848003E85456182809565938515C04A859790B8
:10A85800FE1FE78020FD48C8C840231C2401F95585
:10A86800EF608FC783D72400C8C0F9172391F4007D
:10A87800484859C503D624008356A4018357840148
:10A888003308D60063C007090347C40183A781C101
:10A8980095451207BA9783D7270063CF0705CC40A1
:10A8A80036959790FE1FE780000C0357A40183D7C5
:10A8B8002400BA97C20703578401C183231DF400FB
:10A8C800E39BE7EE03D7290003C589003000231472
:10A8D800E1005848D2852315F1003AC6EFF03FB998
:10A8E80011C548489790FE1FE780C0FC232A040042
:10A8F800232C0400C9B599454E85EFE05FEF65BD8F
:10A90800A545DDBF9145CDBF03D7250079CB83D6BB
:10A91800E1C0ED4763E8E60C011122CC2E8426CA7B
:10A92800AA844840914506CEEF600FBB83572400A8
:10A93800AA862300F50083572400A183A300F5000D
:10A94800835704002301F50083570400A183A30162
:10A95800F50003562400C167F91711064206418223
:10A968006394F4042AC4314532C6EF608FBEAA85C9
:10A97800CD470DC5930700F92300F5003246F95776
:10A98800A2462311F50089472302F5002313C500C9
:10A9980014C503C5C1C1EF600FC68147F2406244C8
:10A9A800D2443E850561828081452685EF30904AF4
:10A9B800AA8701E903C721C175D37D172389E1C09F
:10A9C800F1BF09476302E5021D476301E5024947F4
:10A9D8006300E5027D47E313E5FC03C721C1814716
:10A9E800E1BFED473E858280D1474DBF91477DB796
:10A9F80089476DB701114AC831471309C5FF3307A5
:10AA0800E90226CA9384C1E206CE22CCBA94D84081
:10AA180039C71384C1E283C621C1854795CA231467
:10AA2800A10083D7840003D5A4002C003AC62315BF
:10AA3800F100EFF07FED11C5C8409790FE1FE78049
:10AA480060E7B147B307F902A29723A20700854739
:10AA5800F2406244D24442493E8505618280814782
:10AA6800C5BF797126D244454AD083D7640003D93B
:10AA7800E1C052CC06D622D44ECE56CA2A8A63F3F7
:10AA880027013E8903D7240142091359090183D7B5
:10AA9800040141CB998F4A8463D527011394070198
:10AAA800418089452285EFF0EF8FAA89CD4A25C1DB
:10AAB80083D724002AC6231581002314F10083D7E5
:10AAC800240185E383D70401930925002300F500B9
:10AAD80083D70401A183A300F5006376240503D47A
:10AAE800040183D72401CC4422864E85BE959790D5
:10AAF800FE1FE78040E703556A002C00EFF0DFE017
:10AB0800AA8A15C54E859790FE1FE780A0DAB25035
:10AB18002254568592540259F249624AD24A4561F2
:10AB2800828089078DBF7914420441805DBF03D7B5
:10AB3800240183D704003A94FD17C207420403D7BF
:10AB48000401C18341802390F40023998400637732
:10AB5800E400D5FFFD57A38EF40055BF814552850B
:10AB6800EFF0FFB96DB779714AD052CC03CA21C250
:10AB780022D456CA5AC85EC662C406D626D24ECE5B
:10AB88005284054B930BF00F83A781C093144400A4
:10AB9800BE9483C9040063996907DC44B5C7D847E4
:10ABA80025C703D7070029C783C721C189CF2685B1
:10ABB800EFF03FEBAA8505E983C711C1050463518E
:10ABC800F402238181C2B25022544E859254025914
:10ABD800F249624AD24A424BB24B224C45618280CA
:10ABE800238101C2CDB72685EFF07FB18149E1BF4E
:10ABF80083C7D701639A7701930520062685EFF06E
:10AC08001F94DC44A38E070083C711C10504137485
:10AC1800F40F6363F4000144E31844F7C1BF411122
:10AC2800154506C6EFF01FDD09C50545B2404101CF
:10AC380082801945EFF01FDC6DF91145EFF09FDBBD
:10AC48006DF51D45EFF01FDB6DF103C511C179DD11
:10AC5800B24041016FF03FF183D705000D47F1176E
:10AC6800C207C1836361F706DC41B1CF411122C439
:10AC78002E84854526C206C6AA844D2D39C526854B
:10AC8800F12BC167F917638FF40009ED835724008E
:10AC980091CB835604001947639FE60203D7E1C0AE
:10ACA80063FBE70283C721C1A285268599C7224491
:10ACB800B240924441016FF03FC52244B2409244F1
:10ACC80041016FF0FFA0094582805145B2402244FE
:10ACD8009244410182806D45D5BF397126DA4ED63E
:10ACE800AA84AE895D4589454AD806DE22DC3289C8
:10ACF80036C63AC4EFE01FEB25C522472A84014532
:10AD080011C7B24613054400B685029793578500CC
:10AD180023003401A3002401A301F4009547231C58
:10AD2800F10083C721C12301A4001105231DA1003F
:10AD380022CE2C08268595C3EFF01FBDAA8411C525
:10AD480022859790FE1FE780E0B6F2506254268570
:10AD58004259D254B25921618280EFF07F97F9BFEE
:10AD6800CD44E5B7797126D24AD052CC56CA06D618
:10AD7800BA8A22D44ECE19472E89B284368A639471
:10AD8800E506035526000944EFE01F962AC625C5A7
:10AD98005C458359650083D727002390F400B247A8
:10ADA80015472380570103C6D1C02391E7009305B7
:10ADB8001600A386B1C02382C700D1466319D90003
:10ADC8002391E400DC4703D784002394E7005287EB
:10ADD800A686CA854E85EFF05FF02A84324515C4F1
:10ADE800EFE05F9C09A842867400BE85AA89EFE05F
:10ADF8007F822A844DD52285B2502254925402591A
:10AE0800F249624AD24A45618280F945EFE03FB48F
:10AE1800DDB783D705002300F50083D70500A1839C
:10AE2800A300F50083D725002301F50083D725006B
:10AE3800A183A301F5001145828083D70500230073
:10AE4800F50083D70500A183A300F50083D725006B
:10AE58002301F50083D72500A183A301F50083D73B
:10AE680045002302F50083D74500A183A302F5001E
:10AE780083D765002303F50083D76500A183A30367
:10AE8800F5002145828083D705002300F50083D78C
:10AE98000500A183A300F5000945828083D705003A
:10AEA8002300F50083D70500A183A300F50083D70D
:10AEB80025002301F50083D72500A183A301F50010
:10AEC80083D745002302F50083D74500A183A30259
:10AED800F50083D765002303F50083D76500A183B8
:10AEE800A303F50083D785002304F50083D78500E5
:10AEF800A183A304F5002945828003D70500854670
:10AF0800AA872300E50003D705002183A300E500F5
:10AF180003D70500631DD70003D725002301E500EB
:10AF280003D725002183A301E50011458280094547
:10AF38006315A70203D7250019452381E70003D726
:10AF480025002183A381E70003D745002382E7007A
:10AF580003D745002183A382E700828083D70500B9
:10AF68002300F50083D70500A183A300F50083D74C
:10AF780025002301F50083D72500A183A301F5004F
:10AF880011458280797126D24AD04ECEB2842A8960
:10AF9800AE8929468145480022D406D63684EF601A
:10AFA8002F8D231691008DE8835724002312F1007A
:10AFB80083D7E1C02314F1005C4499CF83C6C7014D
:10AFC80003A781C1920683D78700369703572700C6
:10AFD8002315F1002313E10037B701004A85130751
:10AFE80047EA540013F6F90FD545EFF01FCF2A8929
:10AFF80011C19DE085472300F400230204000146A7
:10B0080081452285EFF00FDDB25022544A859254D3
:10B018000259F249456182802285EFE0AFF8EDB729
:10B0280037B70100B286130727F02E8685456FF0E3
:10B03800DFCA01112317A100B7B6010041657000EE
:10B0480001489307F00F0D479386A6E199457D15B2
:10B0580006CEEFF03FD1F24005618280B7B601001D
:10B06800B28701482E861147938626E4C9456FF0BA
:10B078007FCF37B70100B2861307E7E82E86CD45A4
:10B088006FF0BFC5011122CC1384C1E526CA4AC896
:10B098004EC606CE2A89AE89930404031C4081C794
:10B0A800CE854A8582971104E31A94FEF2406244E1
:10B0B800D2444249B2490561828003C541D2411157
:10B0C80022C4937735000981AA97138481C206C6E2
:10B0D8002300F4008DCF1305C0033385A702A565AF
:10B0E80085059780FE1FE780E0730347040023A2CD
:10B0F800A1C2FD560905814763CFE7009387C1E5E3
:10B108001387070323A007009107E39DE7FEB240DA
:10B118002244410182802310D50023010500232504
:10B12800050285071305C503C1BF03C681C203A76E
:10B1380041C281476315F600814636858280BA860A
:10B148001307C703835567FCE389A5FE850793F7B3
:10B15800F70FCDB7011122CC2EC632C406CE2A84F1
:10B16800EFF0BFFC2246B24511E9C167F917630346
:10B17800F4005145F240624405618280545583478A
:10B18800450095C213F7270141456314A7001545EB
:10B1980075F2C18B3D45F9DF83C7A6010145E3FB85
:10B1A800B7FC3145C1BFC18B0145E9F71545D9B792
:10B1B800797126D2C16422D44AD04ECE52CC56CA16
:10B1C8005AC806D6AA890144930AC003FD14054B40
:10B1D80083C781C26364F400014525A8B3075403FB
:10B1E80003A741C2BA9703D727006316970005043F
:10B1F8001374F40FF1BF03C557003000938567003F
:10B20800EF00F1771946CE852800EF509FECE31048
:10B2180065FFB250225492540259F249624AD24A06
:10B22800424B4561828083C581C2C16603A741C282
:10B23800FD1681476395F5000146328582800358E3
:10B2480027003A866306D80003480700E307A8FEEC
:10B25800850793F7F70F1307C703E9BF411106C620
:10B26800EFF0BFEC11C503554501B24041018280A2
:10B278000145E5BF83C681C203A741C20145814795
:10B2880011076393F60082800346070001C605058F
:10B298001375F50F850793F7F70F1307C703D5B78E
:10B2A80003C581C282809386C1E581471387C1E5C2
:10B2B80031468C4291E58A07BA9788C30145828056
:10B2C80085079106E397C7FE4D458280411106C662
:10B2D80022C4EFF09FE50DCD2A840355250085454E
:10B2E800EFF05FDA485409C59780FE1FE780805C5D
:10B2F80022851306C0038145EF509FD7FD572311C0
:10B30800F400230204000145B24022444101828036
:10B318000945DDBF411106C6EFF03FE111C5034500
:10B32800C500B240410182800145E5BFC167F917F8
:10B338006304F502411122C406C62E84EFF0FFDE35
:10B34800AA87014591C703C54700698C333580003A
:10B35800B24022444101828005458280011106CE17
:10B368002EC6EFF09FDC854711C903574501B2454A
:10B3780085476305B700231AB5008147F2403E852B
:10B388000561828021C901114AC8416922CC26CAB7
:10B398004EC652C456C206CE0144AA84930AC003BC
:10B3A8007D1983C781C2634BF400F2406244D244E2
:10B3B8004249B249224A924A0561828033055403C0
:10B3C80083A741C23E958357250063832701829452
:10B3D8000504C1BF828003C681C283A741C2C1667A
:10B3E800014589070147FD1691456313E6008280F0
:10B3F80003D807006309D80003C8A7006315B8007D
:10B4080005051375F50F05071377F70F9387C7031E
:10B41800E9BF03C681C283A641C20147814791069D
:10B428006310E602858393C7F7FFC207C18305450A
:10B438006364E50285473395A70042054181828010
:10B4480083C5060081C583D5C602CD8F050713774E
:10B45800F70F9386C603E9B793F61700E1FE0505D3
:10B4680085831375F50FE9B7797156CAAA8A2E85AF
:10B4780026D24AD04ECE52CC5AC85EC662C406D630
:10B4880022D4AE84328B368CBA8B3E8AC2894689E6
:10B49800EFF0BFC949E141657D15EFF01FC92A8466
:10B4A800554531CC1946DE8513056400A302840195
:10B4B8009780FE1FE780204B8357010323119400D8
:10B4C800230264012319F400835741032300540124
:10B4D80023260402231AF400230644012317340107
:10B4E80023182401EFF0FFF22318A402232A0402F0
:10B4F8002685232C04028145EFF0DFB80145B250C0
:10B50800225492540259F249624AD24A424BB24BEF
:10B51800224C456182804545DDB783C681C203A7B9
:10B5280041C281476395F60041657D1582803A8660
:10B538001307C703835547FF6395A50003552600E6
:10B548008280850793F7F70FF1BF03C881C2416670
:10B5580003A741C27D16814785482D43314E6314A8
:10B56800F80001458280835627003A856382C60227
:10B57800545B99CE83C506006397150183C61600F0
:10B588006378DE00828089E583C61600E37CD3FCFD
:10B59800850793F7F70F1307C703D1B783C581C290
:10B5A800416603A741C27D16814725486394F5008B
:10B5B80001458280835627003A85638BC600545B19
:10B5C80081CA83C61600E51693F6F60FE373D8FE14
:10B5D800850793F7F70F1307C703C9BF894791C9B1
:10B5E80009C995472380F50083470500A380F50026
:10B5F80081473E85828039714ED652D4AE892A8AD7
:10B6080093053005414526DA4AD856D206DE22DCB3
:10B6180032C63689BA8A9780FE1FE780A020CD44BB
:10B6280021C92A8489446380090432468145231A42
:10B63800C1004146EF50DFA35686CE85228597800C
:10B64800FE1FE78040322146630E0902CA8528089A
:10B658009780FE1FE7802031A28650082C0852856B
:10B66800EF20507CAA8422859780FE1FE7808024E3
:10B67800F250625426854259D254B259225A925AEB
:10B688002161828081452808EF509F9EF1B7894744
:10B698008DC505C5411106C6AE871947AA85238001
:10B6A800E7001385170041469780FE1FE780A02B0F
:10B6B800B24081473E85410182803E85828089472C
:10B6C80095C90DC9411106C625472380E5000347E2
:10B6D8000500AE871946A380E5009305150013857C
:10B6E80027009780FE1FE7800028B24081473E85EB
:10B6F800410182803E85828089478DC505C54111FB
:10B7080006C6AE872147AA852380E7001385170060
:10B7180041469780FE1FE7800025B24081473E855D
:10B72800410182803E85828089479DCD15CD41119A
:10B7380006C61D472380E50003570500AE8721464E
:10B74800A380E5000357050021832381E5009305C5
:10B758002500138537009780FE1FE780C020B24080
:10B7680081473E85410182803E85828089478DC51B
:10B7780005C5411106C6AE870D47AA852380E70097
:10B788001385170041469780FE1FE780C01DB24011
:10B7980081473E85410182803E85828089478DC5EB
:10B7A80005C5411106C6AE871147AA852380E70063
:10B7B8001385170041469780FE1FE780C01AB240E4
:10B7C80081473E85410182803E85828089478DC5BB
:10B7D80005C5411106C6AE872947AA852380E7001B
:10B7E8001385170041469780FE1FE780C017B240B7
:10B7F80081473E85410182803E85828023A601C221
:10B8080023A801C223AA01C237D70100938701AF39
:10B81800130767D898C337C70100130727C8D8C3C9
:10B8280037B701001307E75F98C737D70100938739
:10B83800C1AF1307E74C98C337C70100130747E4A4
:10B84800D8C337C701001307876298C78280C147EA
:10B8580009CD144DC14791CA784D01CB83C7360035
:10B86800BD4663F4F600834787013E858280411117
:10B8780022C426C29384C1C24AC02A89884006C607
:10B8880049C51384C1C2631E0900834705002146C8
:10B89800B1CB29059780FE1FE780E00C1C400545C9
:10B8A800B9CF4945EF50EFCAAA840DC5930710FCDC
:10B8B8002300F500A30025010C4009054146890530
:10B8C8009780FE1FE780200A1C40A68503C5170045
:10B8D800EF506FD208409780FE1FE780A0FD23201D
:10B8E800040029A809059780FE1FE780C007EF20FC
:10B8F8003053054945F59C40238027010545B24052
:10B90800224492440249410182800145CDBF1C4D29
:10B91800639F0716411122C426C22A84AE8441457A
:10B928009305300506C69780FE1FE780A0EF08CC78
:10B93800CD4763040510A68541469780FE1FE78022
:10B94800800283450400F9ED7C4C184CD04B5443DD
:10B95800058A858A6307D60083D64701F99A239A10
:10B96800D700D04B544305828582058A858A6307B0
:10B97800D60083D64701F59A239AD700D04B544373
:10B9880009828982058A858A6307D60083D647019A
:10B99800ED9A239AD700D04B54430D828D82058AA5
:10B9A800858A6307D60083D64701DD9A239AD70094
:10B9B800D04B54432182A182058A858A6308D60028
:10B9C80083D6470193F6F6EF239AD700D04B54431A
:10B9D8002582A582058A858A6308D60083D6470111
:10B9E80093F6F6DF239AD700D04B54432982A982D5
:10B9F800058A858A6308D60083D6470193F6F6BF81
:10BA0800239AD700D44B5843AD822D83858A058B62
:10BA1800638AE60003D74701FD769386F67F758F24
:10BA2800239AE70003C714007C4C11CF03C7170003
:10BA380019CB9547A301F4008147B24022449244B0
:10BA48003E854101828003C72400118B19E703C793
:10BA58002701118B19E38547F1BF03C7070083C688
:10BA6800040081C5B687BA863E871146E147E3667A
:10BA7800E6FCE364D6FC95473307F702B7E7020014
:10BA88009387C712BA97B69783C7070065B7C547A4
:10BA98003E858280AE8715C5784D05C78346070069
:10BAA8002380D50083461700A380D500834627014D
:10BAB8002381D50083468701584BA381D500D8C17F
:10BAC8008280414681453E856F508FDA83A701C346
:10BAD80091C703A38700630303000283094582809B
:10BAE800011122CC2A84494506CEEF70DFCD05C16D
:10BAF8002AC62285EFF06FE319C96244324683559E
:10BB08000503F24003C5E1C305616F508FF3F240AE
:10BB1800624405618280797126D29947231DB1005C
:10BB2800AA842E858D4522D406D632C636C4231C57
:10BB3800F100EFE02F872ACE4D441DC13246A246C0
:10BB4800AA85328582962A8419E52C082685EFF085
:10BB5800AF902A8411C572459780FE1FE78080D573
:10BB68002685EFF0FFF72285B250225492544561A2
:10BB78008280011122CC9305C5012A8441460A8599
:10BB880006CE9780FE1FE78000DE03554400B7B657
:10BB980001000A8693864677C545EFF0DFF7F24045
:10BBA800624405618280011122CC9305C5022A8472
:10BBB80041460A8506CE9780FE1FE780C0DA035506
:10BBC8004400B7B601000A869386467AC545EFF069
:10BBD8009FF4F240624405618280B7B601002E8668
:10BBE80093866669C5456FF01FF30111B28722CCB1
:10BBF8002300B1002A84BE8513051100194606CE1C
:10BC08009780FE1FE78020D6B7B601000A862285F6
:10BC18009386666CA145EFF01FF0F240624405611F
:10BC28008280B7B601002E8693860670C5456FF0F0
:10BC38009FEE0111B28722CC2310B1002A84BE8561
:10BC480013052100214606CE9780FE1FE780A0D16C
:10BC5800B7B601000A86228593860673AD45EFF0D4
:10BC68009FEBF240624405618280B7B601002E86E0
:10BC78009386467DC5456FF01FEA011106CE22CC9A
:10BC880026CA834405008547639BF404834715004F
:10BC980019472A84639AE7041C4D83D7470013F792
:10BCA800071019C7784D035747011377071021E389
:10BCB80013F7072001CB784C035747011377072068
:10BCC8006315071093F7074081CB7C4C83D7470156
:10BCD80093F70740639C0714C947A300F400F24098
:10BCE8006244D2440561828031476392E70A3C503E
:10BCF80091EF9305300571459780FE1FE78080B26C
:10BD080028D009C571468145EF508FB62450A9C87F
:10BD180083C7A40191E72285EFF07FB3238DA400A8
:10BD2800814526854146EF50AFB428503D478345AD
:10BD3800A5019387F5FF93F7F70F6364F700EF709A
:10BD48004F81EF504F9A3C50A1452398A700138587
:10BD58002701EF700F802C5003554400EFF0FFE7E8
:10BD6800B54703554400A300F400EFF00FBC41466B
:10BD780011C58357E50013D617003E966244F2407A
:10BD8800D24403C5E1C3854505616F508FCB354764
:10BD9800639AE7023C5189CB83D5070103554500D7
:10BDA80013862701EFF0FFE81C4C83D7470013F7F1
:10BDB800072039CB784C035747011377072029C749
:10BDC800B94745B73947639BE700EF700FA6AA85C7
:10BDD80003554400EFF0FFE4BD4761B73D47639466
:10BDE800E704EF702FA4AA85630D95028145268587
:10BDF8002EC6EF706FA12A86B24503554400EFF0B6
:10BE0800DFDE1C4C83D7470093F70740E38607EC37
:10BE18007C4C83D7470193F70740E38F07EAC14774
:10BE280089B78144E9B74147E398E7EAEF704FA043
:10BE3800AA8503554400EFF05FE379BD797106D612
:10BE480022D426D283440500A5E483471500194768
:10BE58002A846394E7067C4D83D7470113F71700BC
:10BE680011C7184D03574700058B39EB13F7270007
:10BE780019C7184C03574700098B631B0712918B8E
:10BE880099C71C4C83D74700918B639207187C4C49
:10BE980083D7470113F7071063030718184C035794
:10BEA800470013770710630C0716B147A300F40087
:10BEB800B25022549254456182801D47639DE70A1F
:10BEC8003C5089EB9305300571459780FE1FE7804C
:10BED800609528D02450ADC82285EFF05F97238D58
:10BEE800A400814526854146EF508F9828503D474C
:10BEF8008345A5019387F5FF93F7F70F6367F7026B
:10BF080083C781CAB5C7414681450808EF504F9697
:10BF18001946938501DD08089780FE1FE780A0A4D5
:10BF280030500C082E85EFA0406DEF40DFFB3C50F1
:10BF3800A1452398A70013852701EF609FE12C50A6
:10BF480003554400EFF07FC9A14703554400A300FF
:10BF5800F400EFF08F9D414611C58357E50013D6D5
:10BF680017003E9603C5E1C38545EF508FAD89B7ED
:10BF7800EF603FDE5DBF21476399E7023C5189CB03
:10BF880083D507010355450013862701EFF07FCAC3
:10BF98007C4C83D7470113F7270021CF184C035750
:10BFA8004700098B39C7A5474DB72547639BE7006D
:10BFB800EF70AF87AA8503554400EFF09FC6A947E5
:10BFC80069B729476392E704EF70CF858547AA854B
:10BFD8006304F5008145854426852EC6EF70CF821F
:10BFE8002A86B24503554400EFF03FC07C4C83D706
:10BFF8004701918BE38D07E81C4C83D74700918B51
:10C00800E38707E8AD4791B72D47E392E7E8EF707C
:10C018002F82AA8503554400EFF03FC58DBD13F765
:10C02800072009CB184C035747001377072019C37B
:10C03800B947ADBD93F7074089CB1C4C83D7470060
:10C0480093F7074099C3C14795B5C94785B515CD3D
:10C0580001118A8522CC06CE2A84EFF0BFA383473C
:10C0680004000355440089CFB7D601009386E6B88B
:10C078000A869D45EFF03FAAF2406244056182803E
:10C08800B7D60100938686B9E5B705458280AA85AB
:10C0980003C5E1C36F508FB0411122C4405926C275
:10C0A80006C6AA8431C4084C09C59780FE1FE780DC
:10C0B8006080285009C59770FE1FE780A07F6850F0
:10C0C80009C59770FE1FE780E07E285409C5977060
:10C0D800FE1FE780207E685409C59770FE1FE78021
:10C0E800607D22859770FE1FE780C07C23AA04022A
:10C0F800224403D50403B240924441016FF03FF952
:10C10800411126C206C622C4AE84EFF00F8231C1A7
:10C118004C592A849DCD83A8C50603A88506FC51E1
:10C12800B85183C6650003D6450083C5050026853A
:10C13800EF70CFF02285EFF03FF6EFF02FC611C970
:10C148002244B240924403C5E1C3854541016F4092
:10C158009FFEB2402244924441018280411122C490
:10C16800405926C206C67C4CAA8483D7470113F7D8
:10C17800071019C7184C03574700137707101DE31A
:10C1880013F7072019C7184C0357470013770720E0
:10C1980011EB93F707409DCB1C4C83D7470093F7CF
:10C1A80007408DC79947A300F4002285EFF0FFAC44
:10C1B80003471400C947631FF700224403D524002E
:10C1C800B2409244814541016FF09FF3C947A300F3
:10C1D800F400E5B7B2402244924441018280411103
:10C1E80006C622C426C2EFF04FB61DCD4059AA8418
:10C1F80005CC8347040095C783A701C389C7DC43DF
:10C2080099C32285829703471400C947631EF70024
:10C21800224403D52400B2409244814541016FF085
:10C228003FEE83A741C3D9BFB240224492444101A3
:10C238008280411126C24AC006C622C4AA842E8919
:10C24800EFE0BFEE0DCD405955C083574400639FC2
:10C2580097088347140019476391E7088347040048
:10C26800B5CB7C4C83D7470113F7170005C3184C8F
:10C2780003574700058B19CB9D47A300F400B24034
:10C2880022449244024905454101828013F7270060
:10C2980001CB184C03574700098B19C3A547F1BFB9
:10C2A800918B81CB1C4C83D74700918B99C3AD47A9
:10C2B800E9B783A701C3E1D7DC43F1D3228582978D
:10C2C80003471400C9478145E31BF7FA2685EFF0B9
:10C2D8003FE375B783A741C3F9BF45476398E700B4
:10C2E8006304090013092003CA85CDB7631C09003C
:10C2F8002685EFE09FE319C58347450093E70701CB
:10C308002302F500A6854A85EF609FF58DBF411190
:10C31800B7B6010022C42E862E849386465E8945D0
:10C3280006C626C24AC02A89EFF0EFFE83450400FC
:10C33800AA844A85EFF0DFDCB24022442685024910
:10C3480092444101828083A741C395CB9C4385CB0E
:10C35800797122D406D6984110082A843AC8D8415F
:10C3680085453ACA829701C92306A10003552400CE
:10C378006C00EFF0DFF9B250225445618280828070
:10C38800011122CC06CE2A842EC6EFE01FDA5C59B2
:10C3980091CF83D74700B245639A87008547639753
:10C3A800F5006244F24005616FF01FCFF24062442D
:10C3B80005618280411106C6EFF02F96C167FD170F
:10C3C8006307F500B240DD4541016FF07FD3B2400D
:10C3D800410182802300B5008280011126CA4EC621
:10C3E800AE84AA8993053005130500034AC806CE12
:10C3F80022CC32899770FE1FE780C04229CD1306F0
:10C40800000381452A84EF40BFC64146CE85228578
:10C41800EF407FCEA6850D461305D401EF40BFCD72
:10C4280013060402930504012285EFA0001DAA84C7
:10C438000D469305D4024A85EF40FFCB22859770BD
:10C44800FE1FE7802047F240624426854249D244D5
:10C45800B24905618280CD44FDB781474146B306A4
:10C46800F5003387F5000347070003C80600850772
:10C47800334707012380E600E393C7FE82805D719E
:10C488004EDE62D4AE892A8C93053005130500036D
:10C49800A6C2CAC052DC56DA5AD85ED686C6A2C42C
:10C4A800B28B368BBA84BE8A4289468A9770FE1F41
:10C4B800E78040376301050E1306000381452A848F
:10C4C800EF401FBB4146E2852285EF40DFC241466F
:10C4D80081450A85EF40DFB91D46DE850A85EF40B4
:10C4E8009FC11D46DA8513057100EF40DFC033395F
:10C4F8002001B334900041468145080823072101F3
:10C50800A3079100EF40DFB61946D6854808EF40EB
:10C518009FBE1946D2851305A101EF40DFBD9304E4
:10C5280004014146CE852685EF40FFBC8A852685D5
:10C53800EFF0BFF2930904024E86A6852285EFA08C
:10C54800C00B2A891DE54146CE8526859770FE1FBA
:10C55800E78060410C082685EFF03FF04E86A685FF
:10C568002285EFA080092A8946454146CE85EF40BD
:10C578009FB822859770FE1FE780C033B6402644D7
:10C588004A8596440649F259625AD25A425BB25BCE
:10C59800225C616182804D49D5B7011126CA52C417
:10C5A800AA842E8A13050003930530054AC84EC68F
:10C5B80006CE22CC3289B6899770FE1FE780802686
:10C5C80031CD2A84A6854146EF40FFB29304040189
:10C5D8002146D2852685EF401FB2CA85214613051C
:10C5E8008401EF405FB113090402A6854A862285BB
:10C5F800EFA0A000AA844146CA854E85EF40BFAF90
:10C6080022859770FE1FE780E02AF2406244268563
:10C618004249D244B249224A05618280CD44F5B7E5
:10C628005D71A2C4A6C24EDE52DC86C6CAC0AE89FF
:10C63800328AAA84EFE07FAF4059414681450A8596
:10C64800EF401FA351C80359440063179908834753
:10C658000400D9E30347140099476313F704140847
:10C668001306C4049305C40213057400EFF0FFF227
:10C6780025E52285EFF0AF9D2A860C080A8597707C
:10C68800FE1FE780402E8A854A85EF10B07A05455F
:10C69800B640264496440649F259625A616182803E
:10C6A8002C509DC9C54683D705016318D708631068
:10C6B800FA022146C9054E85EF40BFA18547631898
:10C6C800F5002285EFF0AF982A862C5045BF9305D8
:10C6D80020032685EFF0DFA22685EFE01FA52A8438
:10C6E8003DC94C55ADC983D7050163964707214617
:10C6F800C9054E85EF40FF9D85472A89631DF504CE
:10C708004C540A8503C6A5019770FE1FE780A02533
:10C7180083C7D1B391C75C5483C7B7016396270D0C
:10C72800BD452685EF10106983A781D30145ADD398
:10C738001D45894582970145A1BFE31FFAF82146A7
:10C74800C9054E85EF40FF988547E317F5F82C504B
:10C7580003C6A50125B703C7B1C9938981D0058B45
:10C768003E8905CF0347540083C741C96317F702C1
:10C778001946938551C913056400EF409F95854775
:10C78800631DF50083A7090381C791451D4582975D
:10C79800BD452685EF101062DDBD03C781CA83A79A
:10C7A800090331C703C7B1C9098B09CB81C79545AF
:10C7B8001D4582972685EF103068D1BD81C78D450C
:10C7C8001D458297414681450810EF407F8A1946EA
:10C7D800938501DD08109770FE1FE780C0180C10C4
:10C7E8000A862E85EF9070618A85268579BD8545F4
:10C7F800E1F3C9B78147C1463307F500B388F500AF
:10C808000347070083C808003308F6008507334745
:10C8180017012300E800E391D7FE82800147BD4756
:10C828001308F00F3306F50083460600B388F500B9
:10C83800FD178606558F2380E8000347060093F707
:10C84800F70F1D83E39007FF82808147930800F864
:10C85800414893F6F70F3387F50063FCC600B3062B
:10C86800F50083C606002300D7008507E39307FF7A
:10C8780082806395C60023001701C5BF2300070007
:10C88800EDB701114AC856C22E89AA8A9305300508
:10C89800414506CE22CC26CA4EC652C4328A97706B
:10C8A800FE1FE78020F8AA8493053005414597705C
:10C8B800FE1FE78020F72A84CD49B5C021CD414627
:10C8C8008145EF40EFFA2686A2855685EF90F05213
:10C8D800AA8929E18387040063D30706A2852685F0
:10C8E800EFF0DFF3B7E502004A86938585142285C9
:10C8F800EFF05FF08307090063D80704A2854A8533
:10C90800EFF0DFF1B7E502005286938585142285A2
:10C91800EFF05FEE26859770FE1FE780A0F911C43F
:10C9280022859770FE1FE780E0F8F24062444E854A
:10C93800D2444249B249224A924A05618280CA8554
:10C948002685EFF0BFED7DB7D2854A85EFF01FED64
:10C95800D1B739715AD05ECE2A8BAE8B414593053B
:10C96800300506DE26DA52D456D262CC66CA6AC8C8
:10C97800368C328DBA8C22DC4AD84ED69770FE1F80
:10C98800E78040EAAA8A9305300541459770FE1F63
:10C99800E78040E92A8ACD44638C0A0849C52A867B
:10C9A800D6855A85EFF0FFEDAA8435ED930530055D
:10C9B80041459770FE1FE780E0E62A899305300518
:10C9C80041459770FE1FE780E0E5AA896308090ED4
:10C9D8006304050E1304FD0011841376FD003DCC9D
:10C9E8007D144204418025EE131544004E86D685F9
:10C9F8005E95EFF03FE0414681454A85EF404FE7BD
:10CA0800014D93170D01C18363F48708BDC04A85A2
:10CA18009770FE1FE78000EA638709004E859770CC
:10CA2800FE1FE78020E956859770FE1FE78080E8A3
:10CA380063070A0052859770FE1FE780A0E7F2504F
:10CA4800625426854259D254B259225A925A025BEC
:10CA5800F24B624CD24C424D216182800144131545
:10CA680044008A855E95EFF05FDE4E86D2850A85A2
:10CA780049B793154D000A86DE954A85EFF09FD792
:10CA88004A868A855A85EF905037AA84050D95BF46
:10CA9800BDFC0A86CE854A85EFF0DFD54A868A85B1
:10CAA8005A85EF909035AA846686CA856285977004
:10CAB800FE1FE78040EBA1BFCD4491BFCD44A9BF85
:10CAC800894761C2DDCD2300A60083C70500A30006
:10CAD800F60083C715002301F60083C72500A301CC
:10CAE800F60083C73500A30206002302F60083D7A9
:10CAF8004500A183858BA302F60003D74500137771
:10CB0800072009C793E72700A302F60083D745004B
:10CB180093F7074099C78347560093E74700A30256
:10CB2800F60083D7450013974701635807008347EA
:10CB3800560093E78700A302F6002303060083C785
:10CB48004500858B2303F60003D74500098B09C7E9
:10CB580093E727002303F60083D74500918B99C7F5
:10CB68008347660093E747002303F60003D7450091
:10CB78008147218B19C70347660013678700230382
:10CB8800E6003E8582802E86AA8505456FF05FF314
:10CB98002E86AA8509456FF0BFF24DC95971A2D4F6
:10CBA8002A8403554500A6D2CAD0CECED6CA86D688
:10CBB800D2CCDAC8DEC6B68AB2892E89EFE0EFD6C3
:10CBC800AA8439C50C182285EFE0DFEC83470400FE
:10CBD800138A6400A9CBEF60EFC42A8B014583CB8D
:10CBE8005400EF606FC2AA840C100818EFF0BFF968
:10CBF800084C2C10EFF0DFF9D288268A56C05E88E0
:10CC0800D2875A8714103010CE854A85EFF03F87B7
:10CC1800B650265496540659F649664AD64A464BA3
:10CC2800B64B65618280EF60EFBFAA8B014503CBED
:10CC38005400EF606FBD2ACE084C0C10EFF0BFF423
:10CC48002C100818EFF0DFF4F2484DBF82808947B6
:10CC580091C909C9AD472380F50083470500A38022
:10CC6800F50081473E858280011122CC4AC806CE54
:10CC780026CA2A84EFE0BFC92A8901CDE147630E9D
:10CC8800F50E2149F24062444A85D2444249056181
:10CC980082807C4C83C72701858B91CF1C4C05472C
:10CCA80083C727008D8B6398E7008347640093E769
:10CCB80017002303F4008344340089476391F40286
:10CCC800035544008545EF60FFCF8347640093E731
:10CCD80047002303F4008D47A300F40065B70D4710
:10CCE8006390E402035544008945EF60BFCD834754
:10CCF8006400A300940093E747002303F40059B7A6
:10CD08001147E38FE4FA0547639EE4029304740035
:10CD1800A300F400414681452685EF406FB5130610
:10CD2800C4023285C14532C6EF60AF8232462285E1
:10CD38009306C401A685EFF05FE62285EFE07FE366
:10CD480031D181B71547E39FE4F293047400A3003F
:10CD5800F400414681452685EF408FB16C4C414631
:10CD6800268589059770FE1FE780E0BF834764002A
:10CD780093E747002303F4005DB70D4921B73971E4
:10CD880022DC405926DA4AD84ED606DEAA89AE8475
:10CD98003289630604200355250083574400638BBA
:10CDA800A700A144F250625426854259D254B25980
:10CDB800216182808347040099E39D44E5B7AD472C
:10CDC800E3EDB7FE9387E5FF93F7F70F2547E36693
:10CDD800F7FE37E702008A071307070BBA979C4349
:10CDE8008287B2852285EFF03FE8AA8465BF414675
:10CDF800CA851305C4039770FE1FE780C0B6228555
:10CE0800EFE07FDAAA8411C1A1449547A300F4009A
:10CE180051BF9309C404CA8541464E859770FE1FC9
:10CE2800E78060B41309740014084E86CA85228509
:10CE3800EFF0BFD641469305C4030808EF406FA939
:10CE48008547E311F5F68A861306C402CE854A851E
:10CE5800EFF0AFF411ED2285EFE07F9F2A870355AD
:10CE68004400814601468A85EFE0EFF8AA8411C1A3
:10CE7800A144994761BF034714009D47E31FF7F298
:10CE88007C5089EB9305300571459770FE1FE7804C
:10CE9800609968D0685015D14146CA859770FE1FC1
:10CEA800E78060AC2285EFE09F9A7C50238DA70035
:10CEB800A147A300F4008144F5B56850E30F05EEDF
:10CEC80003471400A147E31AF7EE835706009305BA
:10CED800290021462318F50049059770FE1FE780B1
:10CEE80080A87C4C83D7470113F727002DC3184C23
:10CEF80003574700098B21CFA54765BF0347140097
:10CF0800A547E31CF7EA3C5481EB854559459770E2
:10CF1800FE1FE780209128D4285419C54146CA85A8
:10CF28009770FE1FE78020A4A94761B70347140044
:10CF3800A947E314F7E82854194693051900410551
:10CF48009770FE1FE78020A27C4C83D74701918B06
:10CF580095CF1C4C83D74700918B8DCBAD4791BFA4
:10CF68007C5489EB9305300551459770FE1FE78087
:10CF7800608B68D46854E30605E24146CA85977019
:10CF8800FE1FE780409E7C547D5798CB4E85EFF07E
:10CF9800EF9C15B783450600EFF08F9629BFAD4784
:10CFA800E39BF5F0834606008355250013066500CC
:10CFB80003450500EF606FBAFDBD15C1AA87094595
:10CFC8008DC141112E8541469385170006C697707D
:10CFD800FE1FE7804099B240014541018280094522
:10CFE8008280828089471DC595C5411106C60347C1
:10CFF8001500AE8719462380E500930525001385A3
:10D0080017009770FE1FE7800096B24081473E8563
:10D01800410182803E85828015C1AA8709458DC15C
:10D0280041112E8541469385170006C69770FE1F4D
:10D03800E7806093B24001454101828009458280C2
:10D04800828089471DC995C9411106C60347250035
:10D0580083461500AE872207558F2390E5002146A9
:10D0680093053500138527009770FE1FE780A08F72
:10D07800B24081473E85410182803E85828015C14C
:10D08800AA8709458DC141112E8541469385170010
:10D0980006C69770FE1FE780008DB240014541012A
:10D0A8008280094582808280094711CD89CD8347D6
:10D0B8001500A14601472380F500FD1793F7F70FE8
:10D0C80063F3F60061473A85828015C1AA8709454E
:10D0D8008DC141112E8541469385170006C697706C
:10D0E800FE1FE7804088B240014541018280094522
:10D0F8008280828089476309051063870510411182
:10D1080006C622C426C2834715002E842380F50054
:10D1180083472500A380F500834735002381F50068
:10D1280083474500A381F50083475500858B939677
:10D13800870083D7450093F7F7EFD58F2392F50043
:10D148008346550093F7F7DFA20693F60620DD8E97
:10D158002392D5000347550093F6F6BF22071377AD
:10D168000740558F2392E50083475500FD76938647
:10D17800F67F8D83858B758FAE07D98F2392F50047
:10D1880083466500F99B858ADD8E2392D500034787
:10D1980065009377270013F7D6FF5D8F2392E5008C
:10D1A8008347650093F647009377B7FFD58F23929F
:10D1B800F50003476500DD9B4D45218BD98F2392F0
:10D1C800F500EF604FE0AA845145EF60CFDF0347D9
:10D1D800340093F4F40F1375F50FC9476360970291
:10D1E800636EE500834604001147E1476368D70092
:10D1F8008346140005476363D7008147B240224441
:10D2080092443E85410182803E85828015C1AA876D
:10D2180009458DC141112E8541469385170006C6E3
:10D228009760FE1FE7802074B2400145410182806B
:10D23800094582808280797122D42A84084506D6DD
:10D2480026D2230601008344050029479387F4FF6B
:10D2580093F7F70F6360F70C37E702008A071307A5
:10D26800870DBA979C4382870C08EFF0BFE8C9473F
:10D278006312F50299472306F100035524006C0058
:10D28800EFF0EF88B25022549254456182800C0826
:10D29800EFF0FFDE29C98347C100E5F303552400F9
:10D2A800EFE01F84C5B70C08EFF03FE2E5B70C08C4
:10D2B800EFF09FDFC5B70C08EFF03FD0E1BF0C08D7
:10D2C800EFF03FD8C1BF0C08EFF01FD5E1B70C084D
:10D2D800EFF05FD1C1B70C08EFF05FF365BF83478C
:10D2E80015002308F10003552400EFD01FE4A147DF
:10D2F80019CD0347C5006311F70203A701C39D4772
:10D3080019C7184309C71008A6850297AA872306D4
:10D31800F10051B79D4785B703A741C3CDB7411168
:10D3280022C406C603470500930720092A8463110F
:10D33800F70A8347150039476393E7028356450088
:10D348000967610781476390E6081C452244B2409B
:10D3580003C507009385170041016FE04FD11307FC
:10D36800E0036395E708034725009547631CF70228
:10D3780003554500EFD01FFA91476304F500854730
:10D3880099A083A741C3E5DF03A38700E30903FE50
:10D398000356E40003554400930564002244B24058
:10D3A80041010283A147631BF700834564000355CD
:10D3B80044002244B24041016FE0BFE793060003F6
:10D3C8008147E304D7FEB24022443E854101828072
:10D3D8009306000A8147E318D7FEEFF0DFE508441B
:10D3E80059DD9760FE1FE780E04C51BF8147E1BFE0
:10D3F800411122C426C206C62A84EFE04FD1AA846E
:10D4080019C9E147630FF50AA144B24022442685B1
:10D418009244410182802285EFE07FC36C4C83C730
:10D428002501858B91CF1C4C054783C727008D8B21
:10D438006398E7008347640093E717002303F40029
:10D448008347340009476391E7028945035544003F
:10D45800EF604FD78347640093E747002303F40046
:10D468009147A300F40055B79386D7FF93F6F60FBC
:10D4780005466364D6008545D1BF6390C702A30003
:10D48800E4004146814513057400EF307FBEC14575
:10D498001305C402EF50FF8B8DBF9546E397D7F66F
:10D4A800A300E40041468905130574009760FE1F38
:10D4B800E780604B8347640093E747002303F40049
:10D4C800F9B78D4499B7797122D4405926D24AD0F8
:10D4D8004ECE06D6AA89AE84328963080420035545
:10D4E800250083574400638BA700A144B2502254FF
:10D4F800268502599254F249456182800347040007
:10D5080085476314F7009D44D5B79387F5FF93F7D4
:10D51800F70F2547E369F7FE37E702008A07130785
:10D528004710BA979C438287B2852285EFF05FEC5B
:10D53800AA846DBF4146CA851305C4039760FE1FC0
:10D54800E78060420347140091476305F70293069A
:10D55800C4011306C402930574002285EFF0EFE3BB
:10D568002285EFE00FE1AA8411C1A1449547A300E9
:10D57800F400ADBF8D47A300F400814485BF930735
:10D58800C4043E85CA8541463E899760FE1FE780F0
:10D59800803D8A864A86930574002285EFF0EFDF86
:10D5A80041469305C4030A85EF30BFB28547E31FA0
:10D5B800F5F22285EFE02FDFAA8405F9994745BFE8
:10D5C80003471400B147E310F7F47C5089EB930547
:10D5D800300571459760FE1FE780C02468D0685009
:10D5E8001DD14146CA859760FE1FE780C037228556
:10D5F800EFE0EFA57C50238DA700B547ADBF68507D
:10D60800E30305F003471400B547E31EF7EE83571D
:10D6180006009305290021462318F500490597605F
:10D62800FE1FE78040347C4C83D7470113F707205F
:10D638003DC3184C035747001377072029CFB94734
:10D648001DBF03471400B947E31FF7EA3C5489EBB1
:10D658009305300559459760FE1FE780A01C28D424
:10D66800285419C54146CA859760FE1FE780A02F38
:10D67800BD4711B703471400BD47E316F7E8285420
:10D6880019469305190041059760FE1FE780A02DF4
:10D698007C4C83D7470193F707409DCF1C4C83D719
:10D6A800470093F707408DCBC147F1B57C5489EB10
:10D6B8009305300551459760FE1FE780A01668D492
:10D6C8006854E30405E24146CA859760FE1FE78077
:10D6D80080297C547D5798CB03D529008145EFE0FC
:10D6E8003FA261BD83450600DDBF8547E397F5E8A6
:10D6F8000328460083473600034726008346160062
:10D7080083552500034606000145EF503FBCB5B5DB
:10D71800011126CA06CE22CC89441DCD95CDAA84F6
:10D728002E8468008D45EF50CFE28347E1002685BF
:10D73800228693F7F70393E707046C002307F100A9
:10D74800EFE0BFC9AA8409E90D466C00130534004F
:10D758009760FE1FE7802021F24062442685D2446C
:10D76800056182805D714EDE86C6A2C4A6C2CAC0AB
:10D7780052DC56DA5AD85ED6894955C54DC6138B40
:10D788004500420B135B0B01AE8A2A8A93053005CC
:10D798005A85B2849760FE1FE780C0082A84CD4965
:10D7A80059C1EF505F892A895686D285935A8900D4
:10D7B800135A0901937BF90F1305440093FAFA0FE2
:10D7C800137AFA0F13598901EF30FF92A3017401FC
:10D7D80023015401A300440123002401EF505F8575
:10D7E800AA8541460808EF301F91214734005A8620
:10D7F800A2850808EFF0EF95AA890DE121462C00D3
:10D8080023807401A380540123814401A38124014E
:10D8180013854400EF303F8EEF507F82228597605A
:10D82800FE1FE7802009B64026444E8596440649E7
:10D83800F259625AD25A425BB25B6161828001112D
:10D8480006CE2AC6EFD09FFB32459945238FA1C249
:10D85800EFC0AFB0F24037C5010013058538056148
:10D868006FD07FA483C7F1C3A18B99C3938701AFFE
:10D8780023A8F1C201458280797152CC2A8A2E856B
:10D8880006D622D426D24AD04ECE2EC6EFD0FF8955
:10D8980045C5405945C4834734008949F91793F76A
:10D8A800F70F63EDF90883574400B2458944639440
:10D8B800B706130974004146D2854A859760FE1F52
:10D8C800E780600A1306C4023285C14532C6EF50AC
:10D8D8004FC832469306C401CA852285EFF0EFABE4
:10D8E80003470400834714000DC30D478144639424
:10D8F800E702A300340122852254B25092540259FF
:10D90800F249624A45616FE0CFA61147639EE7007E
:10D91800A30094008144B25022542685025992549F
:10D92800F249624A456182800D478144E395E7FEEA
:10D938009547A300F400C1B78944F1BFC944E1BFCA
:10D9480079719397050122D406D626D24AD04ECEB5
:10D95800C1872E8463D307049384C1C303C52400FD
:10D96800EF300FC32AC611CDEFF07F9BB24519E502
:10D9780003C514009307F00F631EF5002E85EF30E2
:10D988008FBA2165218DB250225492540259F2491E
:10D9980045618280EF302FC6EDB793F7150091C728
:10D9A800EFE0FF8313451400F9BF8DE90145E1BF9E
:10D9B800850493F4F40FEFD0BF8EE3F9A4FE3395FA
:10D9C80099001319050113590901B3772401EDD3FF
:10D9D8004A85EFE03F9E3345240175B78544854964
:10D9E800D9BF39C9011126CA06CE22CCAA84094555
:10D9F8009DCD0D4628002E848D059760FE1FE7807B
:10DA080080F68347A10070002C0093F7F70393E793
:10DA1800070426852305F100EFE03F9C09E90D4640
:10DA2800A2856800EF30EFEA7D153335A000F2409B
:10DA38006244D244056182800945828083C7F1C36C
:10DA4800918B99C39387C1AF23AAF1C20145828004
:10DA5800011152C42A8A32854EC656C25AC006CE11
:10DA680022CC26CA4AC82E8BB28AB689EFD0EFEBF1
:10DA780009ED8944F240624426854249D244B249BC
:10DA8800224A924A024B056182805C592A89C54420
:10DA9800F5F34D45EF503FD31374F50F5145EF5053
:10DAA8009FD2E38809FC83C78901E3E487FC1375E7
:10DAB800F50FE360F5FC9305300513050007976043
:10DAC800FE1FE78020D6232AA9022A84CD445DD1EF
:10DAD800130600078145EF30AFD9A30004002300E7
:10DAE80044012301640123125401232E3405232CFD
:10DAF8000400A301040063170A008547A300F4008B
:10DB080081448DBF2285EFE08FD48547A300F400C0
:10DB1800AA842DD14A85EFE02FD8A9BF397122DC1C
:10DB280006DE26DA4AD84ED652D456D25AD05ECE1F
:10DB380062CC66CA0944630F060E630D070EAA8BF2
:10DB48003A89368BB28A2E8CEFD02FDE2A8A51443E
:10DB58006302050E9305300541459760FE1FE78077
:10DB680060CCAA894D4479C58344190083472900AC
:10DB7800A204C207BE9483470900BE9483473900B4
:10DB8800E207BE9483278A0263E697007D5709441B
:10DB9800639DE70863070C0083474A000544898BA7
:10DBA800C9C7930C4B00214681450A85C20CEF304A
:10DBB8002FCC93DC0C019305300566859760FE1F1A
:10DBC800E78040C62A8C4D442DC15A86D68511055A
:10DBD800EF306FD21146CA856285EF30CFD141460A
:10DBE80093058A014E85EF300FD121478A866686D4
:10DBF800E2854E85EFE0FFD52A841DE121468A851E
:10DC08002800EF304FCF2146930549002800EF3018
:10DC18004FCC8547631EF502A6855E85EF505FE50C
:10DC280062859760FE1FE780E0C84E859760FE1FFB
:10DC3800E78040C82285F2506254D2544259B25902
:10DC4800225A925A025BF24B624CD24C216182807A
:10DC58000544F9B7397162CC2A8C594526DA4AD875
:10DC68004ED652D456D25AD05ECE06DE22DCAE8BC9
:10DC7800328BB68A3AC63E8AC289468983440104F1
:10DC8800EF302F8D2DCD9167938717E92310F5007D
:10DC980085472301F5002A843247210563080C04CF
:10DCA80093071003A301F40019468145EF304FBCD8
:10DCB80023036401A3035401230A9400231274016B
:10DCC800231744012318340123192401A28562541F
:10DCD800F250D2544259B259225A925A025BF24B2C
:10DCE800624C03C5C1C321616F30EF90A3010400EA
:10DCF8001946BA859760FE1FE780E0C655BFF25007
:10DD08006254D2544259B259225A925A025BF24B87
:10DD1800624C21618280797156CAAA8A1305100360
:10DD280026D24AD04ECE52CC06D622D42EC6328A1D
:10DD3800B684BA893E89EF30CF8139CDB2453746AE
:10DD4800020193078500130616E92A845CC110C1F5
:10DD580023045501A304B5001946D2852905976007
:10DD6800FE1FE78040C0CE852308940013051401E8
:10DD780026869760FE1FE78000BF23082403A2853C
:10DD88002254B25092540259F249624AD24A03C507
:10DD9800C1C345616F302F86B25022549254025944
:10DDA800F249624AD24A45618280011122CC2A8412
:10DDB800314506CE2EC632C436C23AC0EF207FF9AE
:10DDC8001DCD9167938717E92310F500B2452246C8
:10DDD800924602478D472301F500A301850062445E
:10DDE8002312B5002313C5002314D5002315E5001D
:10DDF800F240AA8503C5C1C305616F20DFFFF24069
:10DE080062440561828001114AC82A89394526CAB7
:10DE180006CE22CC2EC6B284EF20BFF321C1B24574
:10DE28009167938727E92310F50091472301F500AF
:10DE3800A30125012312B5002A84A68519052146C8
:10DE48009760FE1FE78020B2A2856244F240D24468
:10DE5800424903C5C1C305616F20FFF9F24062441E
:10DE6800D24442490561828001114AC82A89414544
:10DE780026CA06CE22CC2EC6B284EF209FED1DCD39
:10DE88009167B245938727E92310F50095472A84BF
:10DE98002301F50023122501214619059760FE1F6D
:10DEA800E78060ACA285231794006244F240D24414
:10DEB800424903C5E1C305616F20FFF3F2406244A4
:10DEC800D244424905618280011122CC2A84394515
:10DED80006CE2EC632C436C23AC0EF209FE71DCD0B
:10DEE8009167938717E92310F500B24522469246B9
:10DEF800024799472301F500231285006244231342
:10DF0800B5002314C5002315D5002316E500F240FB
:10DF1800AA8503C5C1C305616F20FFEDF2406244C5
:10DF280005618280797122D406D62A842EC632C42D
:10DF380036C23AC0EFD06F9F1DC1B2452246924605
:10DF48000247231CB100231DC1002C081306F00F43
:10DF58002285231ED100231FE100EFD02F90B2505D
:10DF6800225445618280011122CC2A84394506CE8B
:10DF78002EC632C436C23AC0EF20BFDD1DCD916730
:10DF8800938717E92310F500B245224692460247C7
:10DF98009D472301F5002312850062442313B50031
:10DFA8002314C5002315D5002316E500F240AA85E1
:10DFB80003C5C1C305616F201FE4F24062440561D7
:10DFC80082805D712AC613052002CAC04EDE52DC6B
:10DFD80056DA5AD85ED662D466D26AD086C6A2C449
:10DFE800A6C26ECE2E8CB28B368B3AC43E8DC28CB6
:10DFF800C68A035A01058359410503498105EF2063
:10E008005FD54DCD91663243938616E9A9472A8498
:10E018002310D5002301F500930DE4002105930496
:10E02800440122476305030693071003A301F40084
:10E0380019468145EF30CF83194681456E85EF300B
:10E048002F83194681452685EF308F82230374017B
:10E05800A30364012300240323128401231D540114
:10E06800231E4401231F3401A2852644B64096444A
:10E078000649F259625AD25A425BB25B225C925C00
:10E08800025DF24D03C5C1C361616F20DFD6BA8559
:10E09800A301040019469760FE1FE780C08CEA853B
:10E0A8006E8519469760FE1FE780E08B1946E68566
:10E0B80026859760FE1FE780008B49BFB64026443F
:10E0C80096440649F259625AD25A425BB25B225CC4
:10E0D800925C025DF24D6161828079715EC6AA8BA5
:10E0E80061454ECE52CC56CA5AC862C406D622D40E
:10E0F80026D24AD02E8BB28A368ABA893E8CEF2035
:10E108005FC53DC937470B01130717E9130485009D
:10E11800AA8418C140C101491305240023007401D1
:10E12800A30064011946D6859760FE1FE780A08387
:10E1380013059400230444011946CE859760FE1FF9
:10E14800E7806082A307840103C7340005091379B7
:10E15800F90F4104E362E9FC2254B2500259F24932
:10E16800624AD24A424BB24B224CA68503C5C1C370
:10E17800925445616F203FC8B250225492540259BC
:10E18800F249624AD24A424BB24B224C45618280E4
:10E19800011122CC2A84214506CE2EC632C4EF2096
:10E1A8005FBB0DC52246B245930710592310F500F1
:10E1B800230185002303C50062442312B500F24001
:10E1C800AA8503C5C1C305616F20FFC2F24062443E
:10E1D80005618280011122CC2A84214506CE2EC6F3
:10E1E80032C4EF201FB70DC922469167938727E9EC
:10E1F8002310F500B245A1472301F500230385004C
:10E20800A303C50062442312B500F240AA8503C5E2
:10E21800E1C305616F203FBEF24062440561828020
:10E22800011122CC2A84314506CE2EC632C436C20C
:10E238003AC0EF201FB205CD22468567B245924607
:10E248000247938717C92310F5002301850023038C
:10E25800C50062442312B5002314D5002315E50038
:10E26800F240AA8503C5C1C305616F20DFB8F2403B
:10E27800624405618280011126CAAE844AC82A898F
:10E288001385C40006CE22CC32C6EF209FAC0DCD3C
:10E298008567938717E9B2452310F5002301950098
:10E2A800231225012A84310508C426869750FE1FAB
:10E2B800E780606BA2856244F240D244424903C5BC
:10E2C800C1C305616F203FB3F2406244D244424962
:10E2D80005618280011122CC2A84194506CE2EC6FA
:10E2E800EF203FA715C58567938717F92310F50019
:10E2F800B2458547A301F500230185006244231236
:10E30800B500F240AA8503C5C1C305616F20BFAE41
:10E31800F240624405618280411122C42A840D457D
:10E3280006C6EF201FA315C1930710F92300F500B7
:10E33800E947A300F500230185002244B240AA85DD
:10E3480003C5C1C341016F201FABB2402244410144
:10E358008280011122CC2A84214506CE2EC6EF20C8
:10E368005F9F1DC59167938727E92310F500B24584
:10E37800930700032301F500230385006244231259
:10E38800B500F240AA8503C5E1C305616F20BFA6A9
:10E39800F2406244056182800111214506CE2EC6F5
:10E3A80032C4EF201F9B15C58567B2452246938767
:10E3B80007392310F50085472301F5002312B5001E
:10E3C8002313C500F240AA8503C5C1C105616F20AA
:10E3D8009FA2F24005618280397122DC4ED656D266
:10E3E8005ECE06DE26DA4AD852D45AD0894BAA899C
:10E3F8003284B68A639E751183C741C14A8A8944AB
:10E40800D1C383C7160003C706009306C6FFA20739
:10E41800D98F2391F1C4138B21C4639AD70831454E
:10E428002EC6EF201F93AA843DCDB24542044180F9
:10E438002302B50023138500930700F91504A1658D
:10E448002310F50023113501850522859750FE1FFD
:10E45800E780403D88C439C183C741C19385EAFF3D
:10E4680013562400FD17238AF1C09750FE1FE7803A
:10E4780080519C44A68589079CC403C5C1C1EF206F
:10E488009F978144F250625426854259D254B2591A
:10E49800225A925A025BF24B21618280268597505C
:10E4A800FE1FE7802041239001C48544E1BF130784
:10E4B800D6FFE3CAE7FE83C781C3938481C3138968
:10E4C80041C481CB0325090009C59750FE1FE78089
:10E4D800603E03550B00A165850511054205418184
:10E4E8009750FE1FE78000342320A9005DDD83C715
:10E4F80041C12286D685FD17238AF1C09750FE1F99
:10E50800E7806046239081C485472380F40095BF47
:10E51800138A01C483570A00138B01C4D9D7938483
:10E5280021C403D70400138941C4B386C700110767
:10E53800032509006344D7063E95D6859750FE1FEC
:10E54800E780604203560A0083D70400814432946E
:10E558004204418023108A009107E315F4F2314503
:10E56800EF202FFFAA850DC9930700F92310F500A6
:10E5780083570A0023113501230275012313F5007F
:10E58800832709001CC503C5C1C1EF20DF862310FE
:10E598000A00238C01C2FDB50325090009C597505F
:10E5A800FE1FE780203123100B00238C01C2F5BD2C
:10E5B8006FB080046FB0C0056FB0C04A411106C685
:10E5C800EFB04005B2400145410182806FB0C007FD
:10E5D8006FB0E0096FB0200D6FB0400F6FB0401101
:10E5E8006FB040136FB040156FB040176FB040194F
:10E5F8006FB0401B03530100035E4100835E81003E
:10E60800035FC10072C276C47AC61AC06FB0C01B5D
:10E618006FB0E01E6FB0C0206FB0C0226FB0C024D2
:10E628006FB060268347160003460600A2075D8E7A
:10E638006FB0A0276FB0E0286FB0A02B6FB0403C40
:10E648006FB0203F6FB020456FB040476FB0604952
:10E658006FB0804B6FB0A04D1307A5FF42078567C9
:10E668002A8841831385A7C7636CE502138707C807
:10E6780001456368B70263E605031307301F636249
:10E68800C702138766FF42074183938767C763EA18
:10E69800E70005063306B6028E063325D6008280CB
:10E6A80001458280B7E602008147938686151308E4
:10E6B800F00F3387F600034607001317060141835E
:10E6C8006364E50063130601828003D60500636571
:10E6D800C7002390E5008280850793F7F70FD1BF25
:10E6E80041119397050122C406C626C2C1872E840C
:10E6F80063D50702EF20CFE9AA8409CD8347050037
:10E70800054793C707086364F700EF50E00B2685B9
:10E71800EF206FE12165218D21A893F7150091CF96
:10E7280083A7C1EB83A7070891C3829713451400F9
:10E73800B240224492444101828093F7250091CB54
:10E7480083A7C1EB83A7470891C382971345240089
:10E75800C5B793F7450091C7EF00705D13454400B6
:10E76800C1BF93F7050289CB83A741ECBC4791C38E
:10E778008297134504026DBF93F7050189CB83A7E0
:10E7880041ECFC4391C382971345040155B793F7B5
:10E79800052089CB83A7C1ECFC4F91C38297134511
:10E7A800042079B793F7051089CB83A7C1ECBC4F38
:10E7B80091C3829713450410A5BF9397250101457E
:10E7C800E3D807F69387C1E883C6770003C66700D6
:10E7D80083C5570003C54700EFB0E044096525BF6E
:10E7E800411126C2AA8422C41306C00A1384C1E8B0
:10E7F80081451385C1E823A601C406C623A801C420
:10E80800EF201F87A38391D49307F00F3CDCF9779F
:10E81800FD172313F40A2314F40AFD472305F40A09
:10E8280083C771D1232E040613970701B9078E07F2
:10E838002311F4022313F402A1472317F400B707A6
:10E8480082919387777D1CC81CCCB7074801418308
:10E85800ED072310E4022312E4025CCC37178291FF
:10E86800B7071600130787809387079058C81CD4EA
:10E87800EF800052EF20E063EF7050222244B24054
:10E88800924441016F503003397122DC3704400053
:10E8980026DA4ED6AE84AA899305E4FF054506DE3E
:10E8A8004AD8EF209FEA498C13170401418321833A
:10E8B8009317840013590401D98F23160100137983
:10E8C800F90F10088A854E852317F100A306210148
:10E8D80002C002C202C402C802CA02CC02CEEF7051
:10E8E800D0518347E1010347D101A3818400A207E6
:10E8F8004207BA970347F101218023828400BA971F
:10E90800F25062542380F40013D78700C183A38296
:10E918002401A380E4002381F4004259D254B2595F
:10E9280021618280011119469385E1D1138541F156
:10E9380006CE22CC26CA4AC891644EC69750FE1FFE
:10E94800E78060029385F4FF0145EF20DFDD2A842C
:10E95800FD550145EF207FDFA287FD147D5933F770
:10E968009700B366E500C5CA631425016305970AD5
:10E978001387C1E8230CF708A18393E707FC916983
:10E98800C164232AA708A30CF7081384C1E8FD195A
:10E99800FD14CE850145EF201FD92A89FD55014573
:10E9A800EF20BFDAB3672501EDD7FD576314F500F3
:10E9B800E30139FF93570501230EF40893578501A6
:10E9C800A30EF40883178408231DA408230F240921
:10E9D8004205135989001379F9034185A30F2409C6
:10E9E800658DE58F6312F5020317C4098317A40820
:10E9F800658FE58F631AF7000317E4098317C408C6
:10EA0800658FE58FE307F7F8F2406244D244424944
:10EA1800B24905618280A6850145EF20DFD02A84AE
:10EA2800FD550145EF207FD2A28715BF011126CAE7
:10EA38009387C1E822CC805B4EC606CE4AC852C432
:10EA4800034954069389C1E8631809001946938558
:10EA580041F11305640621A885476314F90683C7A5
:10EA68002900130564061946B1CB9385A1F1975087
:10EA7800FE1FE78040EF83C7190091CF8347340713
:10EA88001307000493F7070C6397E7001305C40600
:10EA9800EF50A05B28D08547A303F40003C571D4C9
:10EAA8008545238601E8EF200FE90145F2406244DD
:10EAB800D2444249B249224A05618280938501F2D3
:10EAC8007DB7094A631749058347C406230204062C
:10EAD80089E785472302F40695BF1305C406EF505E
:10EAE800005228D00DC1EF50802D2C5083C7A500AF
:10EAF80099CB230224071946B105130564069750DC
:10EB0800FE1FE78040E6034744068947E305F7F61A
:10EB1800C9B78D474945E31BF9F88347C406230263
:10EB2800040681EB85472302F40619469385A1F173
:10EB38000DB71305C406EF50804C28D00DC1EF5017
:10EB480000282C5083C7A50099CB230244071946F7
:10EB5800B105130564069750FE1FE780C0E0034720
:10EB680044068947E309F7F075BF4111C545130508
:10EB7800400922C406C69750FE1FE780A0CA2A840F
:10EB880021C913064009814523AEA1EAEF204FCEE3
:10EB9800E57785072312F400938781F3D84B9C4FC0
:10EBA8002324E4082326F4088D47A307F400B7F7C5
:10EBB8000100938747A37CDCB7F701009387E7EB55
:10EBC8002320F408B7F70100938707E42322F40809
:10EBD8002285B24022444101828083A701EE639CD2
:10EBE8000724011126CA83A781C606CE22CC9843E2
:10EBF8004AC84EC60D8B05C3B84B619BB8CB98432A
:10EC08001367870098C39C438D83858B89C7010050
:10EC180001000100010083A781C61307A005B706FC
:10EC280000F9B8CB1307000AB8D37D47D8C383A728
:10EC380081C5FD16984F2A84758FB7060002558F37
:10EC480098CF984F137737F81367870198CF83A623
:10EC580001C7D856759BD8D60347C5009376F707E2
:10EC68009843137707F8558F98C337C7898E1307CA
:10EC780067ED98C73757550013075755D8C3D85766
:10EC8800B70600F0FD16719BD8D79843758F98C3C7
:10EC980083471501054783268508BD8B2304F500A6
:10ECA800639BE7163147A304E5002380F6008347FA
:10ECB80055061309E506898B8DC32C5199CD83C759
:10ECC800250181CF83C735011946D105A306F5066D
:10ECD8004A859750FE1FE78000C98347D40689CB31
:10ECE800032784088347070093E707F82300F70002
:10ECF800032584081946CA8521059750FE1FE78019
:10ED080080C68347540613096406898B85C32C5033
:10ED180091CD83C7A50099CB89472302F4061946EC
:10ED2800B1054A859750FE1FE780E0C38347540624
:10ED3800858B91E7034744068947631AF700032741
:10ED480084088347070093E707042300F700832715
:10ED58008408034794001946CA85A380E700032561
:10ED6800840809059750FE1FE780E0BF930720F944
:10ED7800A302F40083A7C1C50327840837F501005F
:10ED8800814598CB13054515EF200FF4EF70B02E91
:10ED9800938781F38546A383D700930640F9A3029E
:10EDA800D4009306003423810700D4C783A681C604
:10EDB800A381070023820700138981F3BC52FDFF5A
:10EDC80083A701C783A7070913977700634907003B
:10EDD80083A781D389C78545130500088297834790
:10EDE800940003A781C6A16692079386363054C75C
:10EDF800938787113CD3930700F82302F9006244F4
:10EE0800B167F240D2444249B249938737305CC770
:10EE180005616F70B01F034735019305E4011907B9
:10EE28001377F703A304E5002380F600032585087C
:10EE380003463401D1B58280411122C403A4C1EB39
:10EE480006C626C2834474008547639FF40283473D
:10EE5800C40013075002639EE7028347240113F797
:10EE6800270015CF930760022306F4002285EFF0F0
:10EE7800DFD683472401918B81CB03C571D48945A3
:10EE8800EF206FAB23039400B24022449244410127
:10EE9800828013076002639DE70083472401918BFA
:10EEA800E5D7930770022306F4002285EFF0FFD21E
:10EEB80023030400D1BF411126C29387C1E822C4AD
:10EEC800805B06C6854703477400631AF70A8356B2
:10EED800A4011307006483C7C1E83347D702850735
:10EEE80093F7F70F2386F1E863C6E700EF20FF8763
:10EEF800238601E883472401938641D403C536005D
:10EF080093F61700938441D491CE13075002230639
:10EF1800E400998B8DC38945EF20EFA18547230332
:10EF2800F40011A813F74700898B95CB930760026B
:10EF38002306F4006DF303471401854783C43400A6
:10EF48006317F7020356A40126858545EF206FAFA6
:10EF580022852244B240924441016FF01FC809C77C
:10EF6800930770022306F40023030400E9B7B945A8
:10EF78000545EF200FF90356A4012A96F1B7B240D0
:10EF8800224492444101828083C7D1E8411122C4BE
:10EF980006C626C24AC02A849DE7034784008547DF
:10EFA8006313F7108347D40603475407858B631A06
:10EFB800F70E1946930564071305E406EF206F91D1
:10EFC800B334A00091A883475507F1C38347B50719
:10EFD8001307000493F7070C639BE70A285121C520
:10EFE80013096407CA851305A502EF4090568547A3
:10EFF800AA84631AF50228508947230AF40683472E
:10F0080035001946CA8593E72700A30AF406510577
:10F018009750FE1FE7802095B2402244268502497A
:10F028009244410182800347840085476301F706C3
:10F038008347C406A9EF13054407EF50000128D001
:10F0480039C58944230A9406834735001946930530
:10F05800640793E72700A30AF40651059750FE1F9B
:10F06800E780609083475406898B99E385446DB7A0
:10F078002C5083C7A500FDDB230294061946B10571
:10F08800130564069750FE1FE780E08DC5B78347D8
:10F09800C406898BE38307F03C5083C71700E39EBF
:10F0A80007EE814495BF8347D40013F7170019CFA3
:10F0B8008346B4000D47639BE60068582C5C2244E5
:10F0C800B2409244024941016F70C002898BD9DF76
:10F0D8000347B4009547E31BF7F8C5B7411126C2AB
:10F0E80006C622C4938481C403A4C1EBEF70A07840
:10F0F800EF70E07A9C40A3030400231204001384F9
:10F1080041D485C3034534008545EF20AFB2AA87B3
:10F1180005CD130510273385A7029C40130505D993
:10F128008297034534008545EF204FA703453400F7
:10F138008945EF20AFA6034534002244B2409244EB
:10F14800914541016F208FA59C40D9BF39714ED69A
:10F158009387C1E822DC805B4AD852D456D2216A10
:10F16800B16A5AD05ECE06DE26DA9389C1E81389E1
:10F1780081F3130A3A30938A3A30834754001307CD
:10F1880050096391E72CEF70406683473900858BFF
:10F19800638207280325C408130604018145A301D7
:10F1A80009009750FE1FE78060DF63140518832568
:10F1B800C4087D4783C7150093F7F7032305F400B8
:10F1C800E91793F7F70F6366F71683C70500BD8B3A
:10F1D800A305F400F51793F7D70F639C071493045E
:10F1E80064061946A1052685EF10BFEE63030514D2
:10F1F8008325C40813056407194683C705008905D4
:10F208009987858BA30AF4069740FE1FE780A075AF
:10F218002285EFF07FD7630E05108346B4001547AB
:10F22800834784006399E612B98B6394071083A718
:10F238000906638F0710EF70806683A70906829717
:10F24800EF103025AA846305051083A741B782977C
:10F258008325C408A8DC154683C7F50003C7050144
:10F2680013850410A2074207BA9703C7E500F905FA
:10F27800BA9703C735FF6207BA9723A4F40883C770
:10F2880055FF03C765FFA2074207BA9703C745FFA3
:10F29800BA9723A6F40883C775FFA385F40283C72A
:10F2A80095FF03C785FFA207D98F2396F40283C76A
:10F2B800B5FF03C7A5FFA207D98F2397F40283C719
:10F2C800D5FF03C7C5FFA207D98F2398F40283C7C8
:10F2D800F5FF03C7E5FFA207D98F2399F4029740EA
:10F2E800FE1FE78040680327C40883473702FD8B69
:10F2F8002384F4028347370205679306A7C79583DB
:10F30800A384F40283D7E402E917C207C18363EE3A
:10F31800F60083D604039307301F63E8D70083D72A
:10F328002403130707C86371F70203D54400EF10DD
:10F338007031A30409000347540093076009E30EE2
:10F34800F7E2EF70C055D5A883A7490626858297AE
:10F35800EFF0DFD8F9BFBD8B81C71947E39BE7FC06
:10F368008347440111472304E4009907A304F400E8
:10F37800832784082380E7008347940003278408B1
:10F3880093F7F703A300F70083475406858B91E7AB
:10F39800034744068947631AF7000327840883470D
:10F3A800070093E707042300F70003258408A685D0
:10F3B800194609059740FE1FE780E05A032584088F
:10F3C800034644019305E40321059740FE1FE780A7
:10F3D8008059930760F9A302F4008347940003A7B8
:10F3E80081C61305A0059207232647019387C71CEA
:10F3F8003CD3930700F82302F900232657019750BE
:10F40800FE1FE78020AD9750FE1FE78080AAEF70AF
:10F41800004905B723020900EF7060488347890057
:10F4280089EF83479900850793F7F70FA304F9003D
:10F43800A18B81C785472314F900930720F9A302FC
:10F44800F40061A8130740096399E702834729007C
:10F45800858B8DC3834784002301090013F7E700D8
:10F4680009C7BD8B1947E39EE7EC930750F9A30240
:10F47800F40021B323020900E9B513076009E39EEC
:10F48800E7CE938781F303C72700058B41CB238100
:10F498000700EF70C040930710F9A302F40083A798
:10F4A800C1C785CFDC4395CB89472302F100834749
:10F4B8005407130561001946A302F10083470401AC
:10F4C800930564072306F1009740FE1FE780A049D3
:10F4D80083A7C1C74800DC4382978347640085E758
:10F4E800138481C41C4085C303C571D48545EF10BE
:10F4F8007FF4AA871DC9130510273385A7021C406E
:10F50800130505D98297F2506254D2544259B25920
:10F51800225A925A025BF24B2161828023820700B1
:10F52800EF70E037930710F919BF1C40E1BF411194
:10F5380006C6EFF0BFBAB2401306200893050008CC
:10F54800014541016F40602423A4A1C4828083C780
:10F5580071D485E737E5010041111305856E06C6AC
:10F56800EF200F83EFF0CFA7B240B7F701009387E2
:10F5780027B723A0F1EC41018280B7F701009387F8
:10F5880027B723A0F1EC828011C98327050993E7E7
:10F5980007402328F508FD572300F502828023A899
:10F5A800A1C48280011122CC06CE2A84034505021B
:10F5B8009307F00F2E866309F5002EC6EF10DFE1E2
:10F5C8003246FD572300F402834734020357C4032D
:10F5D8009306040293E70706A301F4028357440342
:10F5E800A285F240BA97231DF402624437F5010060
:10F5F8001305055905616F10FFCC011122CC06CE09
:10F608002A84034515029307F00F2E866309F50037
:10F618002EC6EF107FDC3246FD57A300F402930696
:10F628001402A2856244F240370502001305C57032
:10F6380005616F103FC9011122CC06CE2A8403450B
:10F6480025029307F00F2E866309F5002EC6EF10EA
:10F65800BFD83246FD572301F40293062402A2853F
:10F668006244F240370502001305657305616F10A7
:10F678007FC59387C1E803C70702ED46A30DE512CE
:10F6880003C71702230EE51203D72702A30EE512BC
:10F698002183230FE51203C74702A30BE51203C713
:10F6A800570283D767022311D514230CE512A30C44
:10F6B800F512A183230DF512B7071B009387871452
:10F6C8002322F514930780142314F514ED47130728
:10F6D8008004A306F514854723070514A307E5143A
:10F6E8002308F514A308D51423090514A309E51460
:10F6F800230AF51482800357E5039547035625032B
:10F70800B307F7028356E50293D537406355B60031
:10F71800118F93173700B3C7D702C207C183231EBF
:10F72800F50282808327C50E0D469306F00F03C7A6
:10F7380007000D8B2305E5006314C70083C6270067
:10F74800A30AD50003C70700418B2308E50083C738
:10F758001700A305F50082800327050F6301071032
:10F76800411122C406C683478500032605152A844D
:10F7780093F7C70F2304F50083459700218283562A
:10F78800C700420613958501418261856375D606D7
:10F79800635E05040345870093F5F507A304B700E6
:10F7A800854593E627006314B50093E61700230404
:10F7B800D4005C4389075CC31376F60FA304C40026
:10F7C8000325840E4C4309059740FE1FE780A019C6
:10F7D8008327040F03469400D44303D7C700B29687
:10F7E800118FD4C32396E700894715A893E717001C
:10F7F8002304F400D1B713F6F60F63590504034543
:10F808008700854593E627006314B50093E6170043
:10F818002304D400A304C400A30407008547A30B52
:10F82800F4008327040F01459C4389CF0347A402B2
:10F8380083C791D16378F7008347840093E7070172
:10F848002304F400B24022444101828093E7170068
:10F858002304F400A304C400A304070095B70545D6
:10F86800828083478500CD9B2304F500828083270F
:10F87800C50E0347850083C707009356374089871D
:10F88800B58F858B99C7134787002304E500014589
:10F898008280054582808327C50E0347850083C77C
:10F8A8000700935627408D87B58F858B99E71347B7
:10F8B80047002304E50001458280054582808327AF
:10F8C800050C85072320F50C91E78327450C850750
:10F8D8002322F50C8327450C93F7070891C7854722
:10F8E8002320F50C2322050C8347350293F70704E0
:10F8F80091CF835745030357C503BA97231DF502D4
:10F908008327450993F7F7BF232AF50882808327C1
:10F91800850C85072324F50C91E78327C50C8507FB
:10F928002326F50C8327C50C93F7070891C785474D
:10F938002324F50C2326050C8347350213F7070407
:10F9480009C793E70702A301F502828083A741ED67
:10F95800014591E3828003C7770011E305059C43C5
:10F96800CDBF83A741ED0145054791E3828083C65A
:10F9780077006393E60005059C43C5BF411122C487
:10F9880091452A84014506C6EF10BFD71387C1E801
:10F998008356C7052315A404854763F0D704835706
:10F9A8004403835624050355C404832887049D8E85
:10F9B800B386A6028327040885451303F5FF130EB3
:10F9C8008002BE9683270415A183C207C18393874B
:10F9D80027028587AD0763E66500B24022444101EE
:10F9E80082803388C50346877D56369801E72315FC
:10F9F800B404E5B76314E400184075DB832EC70729
:10FA08006398AE00032607083306C8403376A6027B
:10FA18006364F6001843D9BF890575BF1387C1E829
:10FA28008356C705854763F9D70683270515834598
:10FA3800950403238704A183C207C1839387270200
:10FA48008587AD07FD150546130E80026363B60072
:10FA58008280B306C603032705087D58BA961A871D
:10FA680001E72315C50482806314E500184175DB9E
:10FA7800832EC7078328C507639A1E0183280708B2
:10FA88003388D84063E41601338816416364F8006C
:10FA98001843F9B705065DBF828083C5C1D11386B7
:10FAA800C1E83C5D035EC60513988501054303570D
:10FAB800C502135888419388C1E8138647006372CA
:10FAC800C30D8326051593071700A182C206C182BC
:10FAD800938626028586AD06635F08021307204ECB
:10FAE800B387E702BD079583B297634908003707D4
:10FAF800C0A863E5E70037074057BA972320F50801
:10FB080003A38804D14863530800CD4801479A8766
:10FB18007D5695E38280858991C513078002B38756
:10FB2800E702D9B705671307B747B387E702938793
:10FB380007049D8355BF6394A7009C43A5CB03A8E6
:10FB4800C7076C5D631CB8000328050883A5070870
:10FB5800338605416364B8003306B8406364D60051
:10FB68009C4345BF8327050805076207C6972320DE
:10FB7800F5088347B50261878607FD17E349F7F85B
:10FB880082800907635508029307204E3307F7025E
:10FB98003D071583329763490800B707C0A8636516
:10FBA800F700B70740573E972320E50882808589EC
:10FBB80091C5930780023307F702E9BF85679387EA
:10FBC800B7473307F702130707041D83E1B7938785
:10FBD800C1E883D6C7050547637CD70C411122C409
:10FBE800A04706C626C2A28789EB09EC230C0500AC
:10FBF800B240224492444101828003C7A7016DFBB1
:10FC08009C43DDB76314A40000406DD083477400A3
:10FC1800D1EF785C7C5D630BF70803478501930798
:10FC28000008AA84631BF7048357E4021946930566
:10FC380000082314F5062315F50683570403231734
:10FC4800F504835724032318F50403554500EF30C2
:10FC5800D0338547238DF40083C7840193F7F707D2
:10FC6800238CF4001305C4052244B2409244314663
:10FC78009305F00F41016F10AFBF8357E502194696
:10FC8800930500082314F4062315F4068357050387
:10FC98002317F40483572503035544002318F40459
:10FCA800EF30B02E8947230DF4006DBF004035BFFB
:10FCB800230C050082809387C1E883D6C7054111CC
:10FCC80026C206C622C40547AA846374D71A034706
:10FCD800050E098B630F0718B847BA85C1E183A7DA
:10FCE800041501447D58A183C207C1839387270265
:10FCF8008587AD077D5525EB630C04108347740099
:10FD08000357E402C5EB89472316E404A304F4046B
:10FD180003574405835744032285BA97C1071D8BAF
:10FD2800998F2319F404835704032317F404835782
:10FD380024032318F404EFF07FC48327440993E7CE
:10FD48004700232AF4088547A30CF4008D47230DA8
:10FD5800F400B240224492444101828083C7A50145
:10FD6800EDFB8C41A5BF144363149700D1D63687A9
:10FD78000326070883A604086361D602B306D640A3
:10FD8800F05C6374D600B3F6C60263F6A600368547
:10FD980063F3F600BA851843B9BF918E705F637438
:10FDA800D600B3F6C602E3F806FF3688E3F5F6FE9A
:10FDB8003A84D5B783D7E402B3F7E702D9FB9D4667
:10FDC800994763F5E600935717008D0705672314D5
:10FDD800F406130707C88A076353F700BA87231581
:10FDE800F4068357040303554400130660082317D9
:10FDF800F40483572403930500082318F404C9471F
:10FE0800230DF4002244B240924441016F30F017B0
:10FE1800ADC103D7E40283D7E502B3F7E702B1EB3C
:10FE28008387840163D707049D46994763F5E600F5
:10FE3800935717008D0705672394F406130707C81F
:10FE48008A076353F700BA872395F40683D7040318
:10FE580003D54400130660082397F40483D72403CA
:10FE6800930500082398F404CD47238DF400EF3060
:10FE7800D011238C0400F1BD9387C1E883D6C70550
:10FE880005476378D720397122DC26DA4AD84ED65E
:10FE980052D456D25AD05ECE66CA06DE62CC6AC842
:10FEA8006EC6032C05155149AA8C135C8C00420CB4
:10FEB800135C0C01130C2C02135C1C402D0C3359E1
:10FEC8002C037945E54413061027814681457D6A50
:10FED800A0478569930B8A84938A81D0938909C83E
:10FEE800130A0A403305AC02B3049C02EFD0504A0F
:10FEF8002A8BA58005E0F2506254D2544259B25977
:10FF0800225A925A025BF24B624CD24C424DB24D8D
:10FF18002161828063958C0003A40C0069DC83470F
:10FF2800A401E9E3785C83A7CC0763EDE70A03A59E
:10FF38000C08832704086367F50A03CD4A011D8D61
:10FF4800DE87931D8D0193DD8D4163C90D00937686
:10FF58001D00D28781E6B70702008D076374F50894
:10FF68006374A7003375E502637E8507935717000E
:10FF78006373FC00E287AA9763D80D0679451306D8
:10FF880010278146B3B5A7023385A702EFD05040AA
:10FF98009307150085466387D70403467400035703
:10FFA800E4023DE22316E404035704038583231582
:10FFB800F4042317E404035724032318E40409472B
:10FFC800A304E40483D74C03A30CD400A907231982
:10FFD800F4048327440993E74700232AF408914748
:10FFE800230DF400004039B713771D0009C75145A8
:08FFF80033D5A70271BF654774
:020000022000DC
:100000003385E702B3B7E7022581DE075D8D69B767
:1000100083D6EC0263FFE602B3F6E602DA8763C733
:100020000D0013761D00CA8711E2A6878507858318
:1000300063E1F602DA8763C80D00137D1D00A68711
:1000400063030D00CA8785078583B307F740E3FF85
:10005000D7F89D46994763F5E60005839307370077
:100060002314F4061397270063D3E9004E878357C0
:100070000403035544002315E4062317F4048357AF
:10008000240313066008930500082318F404D147DD
:10009000230DF400EF30E06F91BF828083A7C1C4CD
:1000A000411122C406C6858B2A84A5EF416513053C
:1000B00025F5EF00F03F35C58347E5002317F50030
:1000C0008327840FB1E7232CA40E232EA40E85478B
:1000D000231BF402232005008347B4002316F500F8
:1000E0008347A4002304F5008547A304F500938704
:1000F000C1E803D78700228505072394E7009740CE
:10010000FE1FE780E0AF0145B240224441018280FA
:100110008327C40F88C383576403232EA40E850747
:1001200045BF8347840023080400054593C7470063
:100130002304F400D1BF83C771D4638A071041112F
:1001400026C206C6AA8422C44AC07D55DDC003A7C4
:1001500041ED45C3938781D083C5D701038547010E
:100160007D548505138981D00548B708C0A8130EB2
:10017000000C83467700832707086399060503531D
:10018000070783560703637CD3060346D70063182B
:1001900006070326070F25E6032647092DE2034637
:1001A000F700631EC605705FB38666407916330696
:1001B000D60283264708B356D602B297AE96C20639
:1001C000C182231BD706635F0502958F63F3870007
:1001D0003E84184359FF83A741B782976368A402FE
:1001E000B307A4409CC09C4035476361F70423A03B
:1001F0000400B24022449244024941018280835665
:100200006707D1B7E3F3D7FCC697C1B7B3078540FB
:1002100063DB070083074901E3C407FCB707C0A8F5
:10022000A297898FC1B723A0040075BFCD179CC0CA
:100230008307490163D50700130534FF5DBFB1474C
:10024000E3EC87FE3705C0A84D1522955DB77D55B7
:100250008280411106C6EF00502419C98327050F7B
:10026000014581E7B240410182809C430505D5BF2D
:100270007D55CDBF03A701C501114AC806CE22CCCA
:1002800026CA4EC62A8939CF938901C503D781EE84
:1002900085476319F704138781D003074701832734
:1002A000050803546507938481D063580704338499
:1002B000874083A741B782976367A404B307A4402C
:1002C00003C5E40103A709000581637AF5063385B8
:1002D000A74083C7440193968701E18663D3060450
:1002E00016050297F2406244930700FB2306F900CB
:1002F000D2444249B24905618280E3FA87FA37075E
:10030000C0A8BA976DB7330785408147E35A07FA0B
:1003100083874401E3C407FAB707C0A8A297898F6F
:1003200045B7858B99C79307803E3305F502158144
:100330004DBF9307D0033305F50205815DB7014535
:100340004DB7411126C29387C1E8FC4B22C44AC075
:1003500006C62A842E899384C1E86394A70023AA41
:1003600004048327840F81CB035544000146930581
:100370000008EF3000428357840381CB03554400CB
:100380004D4693051008EF30C04003554400154614
:1003900093051008EF30E03F23030400A306040098
:1003A0002304240503D7C405854763E6E700854594
:1003B0000145EF10EF91B2402244924402490145B9
:1003C00041018280834765006380073483570507B6
:1003D000411122C406C685072318F5068347F50098
:1003E000230F05002A84139787016187634407025E
:1003F00003574503954763E4E700014501A89305CA
:10040000E003EFF01FF42301A4040945B2402244A5
:100410004101828013F707023DC793F7F7FDA30759
:10042000F50083270509034775002301050493E7B9
:1004300047002328F50885476317F7040327450875
:100440007C5D938681D0B3D7E70203C7D60183C60C
:1004500046011396860161869107BA97C207C18348
:10046000231AF50686071397070141838347B502D0
:10047000635D06129306204EB387D702BD079583AE
:10048000BA972319F4068347E40013F717006301B2
:1004900007248357240503574403639CE7208357AD
:1004A00004038355040503452402231AF4048347F7
:1004B00094042319B4029205A305F4028357A404FB
:1004C000F9152316F4028357E4042318F402EF000D
:1004D0003FF88346740023180406138681D083579F
:1004E000C4020357C404639D0612034646018326D3
:1004F000040893158601E18563D9050C1305204E88
:10050000B387A702BD079583D106B69763C90500D7
:10051000B706C0A863E5D700B7064057B6972320B3
:10052000F4082317E40263D3050C9307204EB307A6
:10053000F70295837CDC63DA050C06079377E70105
:10054000230EF40083574403230204022313F4020E
:100550008347A40181C72285EFF0CFCC8347F40005
:1005600093E70702A307F4008347E400F99B2307FE
:10057000F4008347340293F70704E38007E8035746
:10058000A40383574403E31AF7E60347D400930711
:10059000200A6315F7008547A306F4008327440962
:1005A00093E70740232AF40889BD858A91C69306FC
:1005B0008002B387D702E9B585669386B647B387CD
:1005C000D702938707049D8365BD1375160011C577
:1005D00013058002B387A70205BF05651305B5475C
:1005E000B387A702938707049D8339BF93771600CB
:1005F00091C793078002B307F7022DBF85679387E2
:10060000B747B307F7029D8335B7058A81470DFACF
:1006100085679387B747B307F7028983FD8B0DB7CB
:100620000346460193158601E1859DC7832604088C
:1006300063D005041305204EB387A702BD07958339
:10064000B69763C90500B706C0A863E5D700B7062B
:100650004057B6972320F4082317E40263DB050212
:100660009307204E3307F7023D07158378DCFDB56D
:100670001375160011C513058002B387A702C9B709
:1006800005651305B547B387A702938707049D83C4
:1006900045BF058A11C6930780023307F702F9B7F1
:1006A00085679387B7473307F702130707041D834E
:1006B00075BF998F13970701E35D07EA93058002E1
:1006C0002285EFF01FC82301A404130580023DBB5F
:1006D000898BE38007EA0357A41083574403B306CA
:1006E000F74013960601E34B06FCE314F7E81546C2
:1006F00093055410130504109730FE1FE780202740
:100700008347E400F59BA5B50545828005C54111E9
:100710009305200222C406C62A84EFF09FC2FD572B
:100720002301A404A3060400A300F402B24022445F
:100730004101828082800DC9411122C406C683070F
:10074000F5002A849305E00363D30700A145EFF089
:100750005FBFFD572301A404A30604002301F40294
:10076000B24022444101828082809387C1E8B84729
:10077000630E0744797126D2938781D006D622D49E
:100780004AD04ECE52CC56CA5AC85EC69386C1E8ED
:1007900083884701AC4A01457D58938481D0370353
:1007A000C0A8032607088357670763DF080EB3074F
:1007B000F64063F50701BA853E880545184375F391
:1007C00011C1ACCAA04A8569370AC0A8B70A405708
:1007D000054B9389B94783A741B7832B04088297B8
:1007E0006374752F83C7E40103576407B38BAB4071
:1007F000BA9763E27723835744032285A30E04004C
:100800008507231AF40201272285EFF0BFBB51E1CF
:1008100083864401230504028327040803576407E1
:1008200063D806083387E74038DC785CBA9763C939
:1008300006003706C0A863E5C70037064057B297E1
:10084000034674002320F4088545631BB6068357CE
:1008500004078356040363EAF60A8346D4006396CA
:10086000C60A8326040FD5E283264409D9EE03463F
:10087000F4009306000C631AD608B387E702032737
:100880004408B3D7E70203C7D4010507BA97231B6F
:10089000F406B250225492540259F249624AD24AA2
:1008A000424BB24B45618280E373F6F01A9601B772
:1008B000E3FAE7F63706C0A83E963307E640ADB741
:1008C0000347C40139C38355440303566402231309
:1008D000B4023386C5403307C70203464402329749
:1008E0001377F70F2302E4027D466370E602138755
:1008F000170063CA0600B706C0A86366D7003707AB
:10090000405705073E972320E40883A741B7829705
:10091000AA8983A741B78297E30D35FF83A741B723
:1009200083298407829783C74401139787016187CE
:10093000635B07063385A94045C5745C6372D50ABD
:100940006359070616058347440203A781C6A166BB
:10095000938636303E9554C7060528D3938681F397
:10096000130600F82382C600B1669386363054C75A
:100970007D476375F70081172302F402EF50307052
:10098000EF50707203477400854781456311F70487
:10099000375502001305E50EEF009FB3930700FDE6
:1009A0002306F400FDB5E3F7A9F8B706C0A8B69989
:1009B00051B7858B99C79307803E3305F5021581A2
:1009C00059B79307D0033305F5020581ADBF37252D
:1009D00002001305051BEF00BFAF930710FCC9B75A
:1009E00003477400854703A304036317F700954585
:1009F000E30103EA154529A0E30D03E895451945F0
:100A00002254B25092540259F249624AD24A424B9D
:100A1000B24B4561028363DC0B0483574403228598
:100A20008507231AF402C5212285EFF0BF99785C6F
:100A300083270408BA97038744016345070063E3EB
:100A40004701D6972320F408834774006395670114
:100A50002285EF40A0678347D40185458507A30E13
:100A6000F4009C58E38907D615458297ADB303C7B8
:100A700044018357240393168701E1868E0763D5CB
:100A800006021307204EB387E7029583E3F377E16D
:100A9000A1452285EFF0FF8A03A304032301A404E8
:100AA0008945E31903F4F5B3058B11C713078002D9
:100AB000B387E702E1BF05671307B747B387E702CC
:100AC000938707049D83D9B703C744018357240341
:100AD000B30B754193168701E1868E0763D3060A2F
:100AE0001307204EB387E702958363F3FB0C83A7BC
:100AF00041B7829783574403AA8B22858507231A1F
:100B0000F40211212285EFF0FF8BE31405D8785C05
:100B100083270408BA97038744016345070063E30A
:100B20004701D6972320F4088347D40113F7070F12
:100B300035C72285EFF0CFB4A30E04008327040845
:100B4000E3F7FBFA835604077C5C03274408B3876A
:100B5000F602B3D7E70203C7D4011107BA97231BE4
:100B6000F40683477400639F670383570403E3F429
:100B7000D7C62285EF4080559C58E38E07C48D452B
:100B8000E5B5058B11C713078002B387E702B1BF34
:100B9000B3873703938707049D8381BF8507A30E1F
:100BA000F40069BF9C58E38807C28D45194575BD9F
:100BB000E3C10BCEA1452285EFF0AFF803A30403F8
:100BC0002301A404E30703CC91452DB58280411194
:100BD00022C406C62A848327040FA5EF8327840F27
:100BE000D9EB0325840E09C59730FE1FE78000CDA1
:100BF000034514029307F00F6304F500EF004FFE66
:100C0000034504029307F00F6304F500EF004FFD66
:100C1000034524029307F00F6304F500EF004FFC37
:100C200003554400252483A701D185C383D781EED2
:100C300089EF138441D4484C09C99730FE1FE780DF
:100C4000E0C7232E040023200402B24022444101C5
:100C50008280C84309C59730FE1FE78020C68327DE
:100C6000040F03D7E700136707F02397E7009C43BF
:100C70002328F40E8DB703D7E700C843136707F0A6
:100C80002397E70009C59730FE1FE78020C383271D
:100C9000840F9C43232CF40E91B783A741ED99E375
:100CA0003E85828003D74700E30CA7FE9C43C5BF67
:100CB00083A741EEC16683C581D1FD16014703D6E6
:100CC000E700630BA6006309D60005071377F70F4B
:100CD000C107E3F6E5FE81473E858280411122C4CB
:100CE0001384C1E83C4C06C626C2A1EB035544025E
:100CF000938481D083C704011305150215858507E8
:100D0000160592073E95420541819305B020973024
:100D1000FE1FE780A0B115C183C6040128CC81471E
:100D2000138716001207939506012A97C1811308AD
:100D300040F5930820F563D7F600B2402244924470
:100D4000410182808DE32317150158C1A3040500DA
:100D500041052A8663E3B70001468507C2072328B9
:100D6000C5FEC183C9BF2317050123220500F9BFB2
:100D700041119305A0201305801506C622C426C282
:100D80009730FE1FE78080AA1306801581452A84CC
:100D9000EF008FAE014535CC9387C1E8B04793840F
:100DA000C1E821C2F44483D7460013871700931784
:100DB000070193150701C18363D305008547328777
:100DC00083554700E383F5FE18437DFB2312F400AF
:100DD00095CB83D7C40580C2E0C48507239EF40465
:100DE00011A885472312F400A0C4E0C4239EF40494
:100DF000EFF0DFEEFC4423A00700230304002306EA
:100E0000040031A022859730FE1FE78020AB0355F8
:100E10004400B24022449244410182804111138730
:100E2000C1E826C2244F22C406C61384C1E881E863
:100E3000232C0404B240224492444101828026853E
:100E40009730FE1FE78080A78440D5B7411122C4A8
:100E50009387C1E8B44706C60147B6871384C1E843
:100E6000B1C703D647006317A60415E7984238C4F4
:100E70003E859730FE1FE78060A47C4423A00700D6
:100E80008357C4058DE3EFF07FF923240404B240B7
:100E900022444101828074446394F60078C4C9BF3F
:100EA000944314C3F1B7FD17231EF4048357C405FC
:100EB000F9FFD1BF3E879C4365B7614681451385E5
:100EC00041ED6F006F9B8347450081460147FD8BD5
:100ED0002302F5000548814795453306F500034692
:100EE000060009C6638F0601328785468507E396AB
:100EF000B7FE014581CA1305F7FF798D3335A00090
:100F0000828005458280011126CA4AC806CE22CCBD
:100F10004EC652C456C25AC02A899307451093063A
:100F2000F50F814401479319870003C7070013D6C3
:100F30008401B3693601A204FD17D98C4E87E3946E
:100F4000D7FE83478902034439013E941374F40F9A
:100F50009307400263F687001304B4FD1374F40F83
:100F6000A309890022862685CE85EFC030400589F9
:100F700009CD23098900F2406244D2444249B24972
:100F8000224A924A024B05618280814A014A130B30
:100F9000500256862685CE85EFC0503D058901C595
:100FA000050A137AFA0F850AE3956AFF337444033E
:100FB000814A014A130B500252862685CE85EFC026
:100FC000F03A058911C963958A002309490165B77B
:100FD000850AE20A93DA8A41050AE31F6AFD61BFC6
:100FE000A30905008280411122C49387C1E8FC4B0C
:100FF00006C626C2A9EF1384C1E824409307F00B6C
:1010000003C764006304F700EF50F00903D66401DE
:1010100003C571D493050020EF002FA3930750025E
:10102000A382F4003C40B755550037C5898E03C6EE
:10103000570093855555130565EDEF50D00B1947B3
:10104000A38FE1F23C40130710FB2383E700B2407B
:101050002244924441018280011126CA4EC69389DE
:10106000C1E822CC03A4090406CE4AC88347440041
:10107000A9CF0347540093076002138941D463ED5D
:10108000E704035664010345390093050020EF008F
:10109000CF9B83475400B755550037C5898E8507C8
:1010A000A302F40083A7090493855555130565ED44
:1010B00003C65700EF5030041947A38FE1F283A70E
:1010C0000904130710FB2383E700F2406244D24473
:1010D0004249B24905618280EF50E07C8356840129
:1010E0001307006483C7C1E83347D702850793F726
:1010F000F70F2386F1E863D5E70083C701F489C7BA
:10110000EF002FE7238601E89307F0FB2303F400A9
:10111000624403453900F240D2444249B249930542
:10112000002005616F000FA801119387C1E822CC50
:10113000A04352C406CE26CA4AC84EC683441403EE
:101140003A8A99E41946938541F11305240321A8AD
:1011500005496392240983C7270013052403194610
:10116000A5CB9385A1F19730FE1FE7804080B7059E
:101170000001FD150145EF00CFDD08D4EF50D02C64
:1011800048D0C1451545EF004FD8938441D423067C
:10119000A40085470356840103C53400A303F4006B
:1011A00099472302F40093050010EF00CF9C03C57C
:1011B000340093050010EFF09EF80145238601E806
:1011C000F2406244D2444249B249224A05618280D7
:1011D000938501F249BF83C717004945F5D3894973
:1011E0006392340513058403EF20F06128C8EF20D3
:1011F000903D2C4899CD83C7A500639C2701230807
:1012000094021946B105130524039720FE1FE780B9
:101210000076034704038947E30BF7F48547230867
:10122000F4020DB78D47E394F4F413058403EF2023
:10123000905D28C8EF2030392C4899CD83C7A50090
:10124000639C2701230834031946B10513052403C1
:101250009720FE1FE780A071034704038947E30836
:10126000F7F085472308F40219469385A1F1F1BDF3
:101270004111D1451305C00622C406C69720FE1FA2
:10128000E780C05A2A8439C11306C0068145EFF0B1
:10129000BEDE23A681EC938781F3D84B9C4FA3023B
:1012A000040038D07CD09307000B2313F400B71749
:1012B0000200938787127CC8B7170200938767FEE6
:1012C0003CCCB7170200938787057CCC2285B240BF
:1012D000224441018280011122CC06CE26CA4AC88E
:1012E0004EC6834785042A8499EB284845E1034785
:1012F000D4008547631AF71228406C4009A2284998
:1013000021C58347A500A9C383479404A5CF83477C
:10131000F4041307000493F7070C6395E70693049E
:10132000A404A6856905EF20502305473C48631BAC
:10133000E50209472304E4041946A6851385C7007E
:101340009720FE1FE780A062034784048947E30ECD
:10135000F7F819469305A40413052403EFF0FED70C
:1013600049F521A083C7170091EB8144F240624404
:1013700026854249D244B2490561828083C7D1E8BB
:10138000E1D7E5B783471500E1F3C5B783472501EA
:10139000B9DF83471404C1C78347740413070004EB
:1013A00093F7070C639DE70693092404CE85130584
:1013B000A502EF20901A2A898547AA842848631835
:1013C000F9041946CE8551059720FE1FE780205A63
:1013D00083C7D1E889DF89472300F4048347D40019
:1013E000E39627F93C4803D5270003D7470083D568
:1013F000670083D787004207598DC207DD8D62449D
:10140000F240D2444249B24905616F40304F8347B0
:101410001500A1DF83C7D1E8E38B07ECB9B7834799
:101420001500E39607EC91B7034794038347140430
:10143000E31DF7F21946930524041305A403EFF006
:10144000DEC9B334A0001DB7797126D29387C1E8F5
:1014500022D4A0434AD052CC370AC0A84ECE56CA96
:101460005AC806D65EC662C49384C1E8138B81F362
:10147000930A8AFD834764001307100B639BE73EC2
:1014800083C781F3858B638F073A68501306B400D6
:101490008145238C01F29730FE1FE780A0B06315D1
:1014A00005366C507D4783C7150093F7F703230576
:1014B000F400E91793F7F70F6368F73483C7050063
:1014C00013F7F700A304E400B98B639F073283C7C7
:1014D0000500930B240419469987858BA300F40417
:1014E00089055E859720FE1FE780604803479400CA
:1014F00085476310F7026C5019461305A40483C78F
:101500000500A1059D83A304F4049720FE1FE78036
:1015100000462285EFF03FDC6308052E3850930724
:1015200020022304F40095462300D7003850130C02
:101530002403A300F700034704038947631AF70055
:101540002C4819466285B1059720FE1FE78020428E
:1015500083471403858B91E7034704038947631985
:10156000F70038508347070093E707042300F7008C
:1015700028501946E28509059720FE1FE780203F85
:1015800083471404858B81CB38508347070093E74A
:1015900007F82300F70028501946DE85210597201B
:1015A000FE1FE780C03C83A741B7829783D7C4055D
:1015B0009305F5004CD4138681D0638E071A034738
:1015C000F600834646018D471307270213988601CC
:1015D0000587231FF400135888412D07930735F71B
:1015E0006342080293F716009306000A99E39306F4
:1015F000400AB387D54063F7D5009307FA003E95BC
:10160000B307D54083AE840413037002154EF685EC
:101610007D55639F0510636FA700635A0814938775
:1016200087FD8356E4018506C206C182231FD400CC
:10163000E37FDEFC3C5058502387E7005C50385075
:10164000A183A307F7003C50035764022388E700F7
:101650003C5003477402A388E7003C501854238988
:10166000E7001C543850A183A309F7003C500357EE
:10167000A402238AE7003C500357C401A38AE70071
:101680003C500357E401238BE7008357E4013850B3
:10169000A183A30BF7003C5003570402238CE700FF
:1016A000835704023850A183A30CF7003C50035722
:1016B000E400238DE7008357E4003850A183A30D95
:1016C000F7003C5003570401238EE70083570401C1
:1016D0003850A183A30EF7003C5003C7640A238F40
:1016E000E7003C5003C7740AA38FE7003C5003C7D0
:1016F000840A2380E7023C5003C7940AA380E702D0
:101700003C5003C7A40A2381E7028347C400385032
:10171000FD8BA301F702834746013850939687015A
:10172000E18663DB06068347370293E707FA41A0A9
:1017300083A80508B386174163E8F800B386F8402C
:101740006359080063EBE60063F3A60036858C411D
:10175000C9B5E3FBE6FE637AF300938787FD835800
:10176000E4018508231F1401C5B7D697CDBFE368F0
:10177000F3EAD6977DB538509946834797010347DA
:101780008701A207D98F8D838D073E8763F3F6000B
:101790001947231FE40079BD13F6070793F63700B6
:1017A00011CA91EA834637028607819BD58FA30130
:1017B000F70211A0ADDA385083A7C1C5A1669386A0
:1017C0003630D8CB8347840003A781C61305A00514
:1017D000920754C79387C71C3CD3930700F8230292
:1017E000FB00B167938737305CC79720FE1FE78007
:1017F000C0769720FE1FE780C073EF50C00A9307A2
:1018000030FB2303F400BDB1034764009307100BC2
:10181000E312F7C6BC40B755550037C5898E03C6DD
:10182000570093855555130565EDEF50C00C13898E
:1018300081F39947A303F900BC40130710FB2383EE
:10184000E7006DA883A781C6BC53E39507C2BC40DF
:10185000B755550037C5898E03C65700138981F3E4
:1018600093855555130565ED23020900EF50A00837
:10187000C9B71307300B6393E708938B81F383C7D2
:101880001B00858BC1CBA3800B00EF10603CEFF0F9
:10189000CFC039C1585438DD58502324E5081854B6
:1018A0002326E5080357C401A305E5020357E40115
:1018B0002316E502035704022317E5020357E40049
:1018C0002318E502035704012319E5020347C40066
:1018D0002304E502EF10002A938441D403C53400A9
:1018E00093050010EFF01EAC03C5340093050020F3
:1018F000EFF05EAB2302040023130400B250225425
:1019000092540259F249624AD24A424BB24B224C9B
:101910004561828083A781C6BC53E39D07B4BC4068
:10192000B755550037C5898E03C657009385555561
:10193000130565ED23820B00EF40F07B9947A383ED
:10194000FB00DDBD411126C283A4C1EC138781F3E6
:1019500006C622C40347B700938781F301CB83C631
:10196000A70019476394E600A385070003C7770023
:1019700095461376D70F6317D6002385E7000547F2
:10198000A385E700EF403072138441D4034534004F
:1019900093050010EFF01EA10345340093050020CD
:1019A000EFF05EA023820400239304002244B2409F
:1019B00092441306100893050008014541016F1079
:1019C000505DB7170200371502009387072791452E
:1019D0001305854423A8F1EC6FF09EAF832705091A
:1019E000411122C406C62A846389071813F7270009
:1019F00019CBF59B2328F508035545001946930597
:101A00000008EF1010598327040913F7470021CB72
:101A1000ED9B2328F4088347340293F7070491CB06
:101A200083274409228593E70740232AF408EFD04F
:101A30001FCD8347940199E78347340293E717004A
:101A4000A301F402035544000D4693050008EF106E
:101A5000505493070004231CF400230D0400832733
:101A6000040913F7070139C7BD9B2328F4088347EE
:101A7000140403554400214689C7A3000404130637
:101A8000000393051008EF10D0508347340293E70A
:101A90001700A301F4028347040489CF8347040E8F
:101AA000C18B89CB8355E40322859205C205C18190
:101AB000EFD0DFAF8327040913F7072001CF0355C9
:101AC000440093F7F7DF2328F40831469305100804
:101AD000EF10304C8327040913F7070415C303558F
:101AE000440093F7F7FB2328F408114693050008F8
:101AF000EF10304A8347340293E71700A301F40242
:101B00008327040913974701635507027D7713075D
:101B1000F77F03554400F98F2328F4081D469305E9
:101B20000008EF1010478347340293E71700A30122
:101B3000F4028327040913F7074009CF0355440033
:101B400093F7F7BF2328F4081306700593051008D0
:101B5000EF1030448327040913972701635F0700C0
:101B60008347340283458404228593E71700A30149
:101B7000F402EFE00FFD2301A4048347640085CF46
:101B80008327840F99CF8347640181EF0355440075
:101B9000014693050008EF10D03F01E58547230B70
:101BA000F4008357840381CB035544004D469305CD
:101BB0001008EF10103E83473402F1C7918B91CF8C
:101BC0000346D400C165938505A02285EFD07FA38D
:101BD00083473402ED9BA301F40283473402858BD3
:101BE0008DC3034514029307F00F6307F500EFF070
:101BF0002EFFFD57A300F40283473402F99BA30193
