:040000006F10407BC2
:10000400000000000000000090000020F203002027
:10001400A9BDF9F5940000200000000000000000D4
:100024009400002090000020000000000000000068
:10003400900000200000000090000020000000005C
:1000440090000020900000209000002090000020EC
:1000540090000020E0160020900000200000000026
:1000640090000020900000209000002090000020CC
:10007400FA00002090000020900000209000002052
:1000840090000020900000209000002090000020AC
:1000940001A000009305000273A04580824573907F
:1000A400153492402242B2424243D2436244F24463
:1000B400025592552256B2564257D2576258F258B8
:1000C40006499649264AB64A464BD64B664CF64CE8
:1000D400065D965D265EB65E465FD65F0961730077
:1000E40020304111B7170040985F3AC6945F3247F9
:1000F400E39CE6FE324541018280B71700401307B6
:1001040000032388E702854723A6F1847300203087
:10011400411106C6EF003034F5BF73270080218BF0
:100124009387418509CB7327008023AAE1849843F0
:100134005D9B731007800100010037170040930690
:1001440070052300D704930680FA2300D704010026
:1001540001008346B70493F6F60DA305D7042300E4
:100164000704F32600809843218B558F7310078072
:1001740023AA01840100010013770502630F07100D
:1001840073270080218B09CB7327008023AAE18485
:1001940098435D9B731007800100010037170040EE
:1001A400930670052300D704930680FA2300D7042E
:1001B40001000100B70614007D89558D08C70100B0
:1001C40001000100010023000704F3260080984386
:1001D400218B558F7310078023AA0184010001002D
:1001E40073270080218B09CB7327008023AAE18425
:1001F40098435D9B7310078001000100371700408E
:10020400930670052300D704930680FA2300D704CD
:100214000100010001000100B7260040130610058B
:10022400A383C68023000704F32600809843218B10
:10023400558F7310078023AA0184010001007327DE
:100244000080218B09CB7327008023AAE184984383
:100254005D9B73100780010001003717004093066F
:1002640070052300D704930680FA2300D704010005
:1002740001008346B70493E60608A305D7042300C8
:100284000704732700809C43A18BD98F7390078048
:1002940023AA01840100010082801377050455C359
:1002A40073270080218B09CB7327008023AAE18464
:1002B40098435D9B731007800100010037170040CD
:1002C400930670052300D704930680FA2300D7040D
:1002D40001000100B7061400938606047D89558D3C
:1002E40008C7010001000100010023000704F326F0
:1002F40000809843218B558F7310078023AA0184B3
:100304000100010073270080218B09CB7327008033
:1003140023AAE18498435D9B7310078001000100C8
:1003240037170040930670052300D704930680FA1C
:100334002300D70401000100B7260040130620055E
:10034400C5B573270080218B09CB7327008023AAAE
:10035400E18498435D9B7310078001000100371707
:100364000040930670052300D704930680FA230007
:10037400D70401000100144793E6060C14C75DB5C9
:100384004111814601468145114506C6192CF327C2
:100394000080A18B9386418589CBF327008023AA13
:1003A400F1849C42DD9B7390078001000100B71724
:1003B4000040130770052380E704130780FA2380A5
:1003C400E7040100010003C76704136717002383D0
:1003D400E70423800704732700809C42A18BD98FF4
:1003E4007390078023AA018401000100B2404101F7
:1003F400828081460146814511456522F3270080AC
:10040400A18B1387418589CBF327008023AAF1842C
:100414001C43DD9B7390078001000100B717004067
:10042400930670052380D704930680FA2380D704AB
:1004340001000100FD562396D70223800704F3260A
:1004440000801C43A18BD58F7390078023AA01845D
:1004540001000100F3270080A18B89CBF3270080E2
:1004640023AAF1841C43DD9B7390078001000100E3
:10047400B7170040930670052380D704930680FACB
:100484002380D7040100010083C6670493E61600A5
:100494002383D70423800704F32600801C43A18B05
:1004A400D58F7390078023AA01840100010001A065
:1004B400BD473305F50201007D1575FD82804111AC
:1004C40022C426C206C6AA84014463179400B2401B
:1004D400224492444101828005041305803E420473
:1004E400C13F4180DDB72303048015472303E48023
:1004F40001002302A480828083076480E3CE07FE88
:1005040023030480828083076480E3CE07FE0345CF
:100514004480828083076480E3CE07FE2302A480A4
:100524008280411126C44AC24EC006C61377F50B19
:10053400AD47AA892E8995446306F70019456537A6
:10054400653F8D444E854537FD59FD14639834014C
:10055400B240A244124982494101828013550901E3
:100564001375F50F453F2209CDB7011126CC06CEF0
:10057400B704080051371545BD37713769372AC6A6
:10058400A53F32459377150089EB13651500137564
:10059400F50FF240E24405618280FD14E9FC014557
:1005A400CDBF397126DC4ADA4ED852D656D45AD247
:1005B4005ED006DE62CE66CCB7E700E07D5783AA44
:1005C400070022C603AA470023A0E71823A2E718BE
:1005D400B7170040130770052380E704130780FA58
:1005E4002380E70483C74704930B75FFB684E207AF
:1005F40093FBFB0F8546AA892E8B32893724004052
:10060400E187015763FA76016308D5008946130729
:1006140000026313D5000157D98F93F7F70FB71C66
:1006240000402382FC0411472303E4801305F00FE8
:100634005D3D094CD135636D7C11B7050700DA9532
:1006440037870700795563F2E504B3879500636E35
:10065400F702370B0800A94733EB65016399F906E4
:1006640089E48144513D26850DA0DA850945553D2F
:1006740005090345F9FFFD14050B693D81C4937712
:10068400FB0FFDF7DD3569FD7D55B71700401307F6
:1006940070052380E704130780FA2380E70403C767
:1006A4004704418B2382E704F250B7E700E023A01C
:1006B400571123A24711E25432445259C259325AB3
:1006C400A25A125B825B724CE24C21618280A54784
:1006D4006395F90685691309F00FB3069900B3749D
:1006E4002B01B6941349F9FFB3749900856B3379E0
:1006F4006901416B9387F9FFB3F7270199E363FC21
:10070400340193D94900C147E3E637FF99BF05692E
:10071400C1697D19D9B71305800D63886901130573
:1007240000026384790113051008CA85DD3B353D59
:1007340021DD4E99B3843441D9B7DA852D45D533BB
:10074400CA94E30099F205097D3BA30FA9FED5BF26
:100754009387F9FF93F7F70F6361FC0C83C71C04BD
:1007640013073008631FF70437070800636BEB04B3
:10077400B3079B00B706100063F5D704334BEB00B7
:1007840089476393F9068980D549E38C04ECDA85BB
:100794000945413B11090327C9FF91472320E48000
:1007A40003076480E34E07FE23033481FD17EDFB4A
:1007B400FD14110B81C49377FB0FE9FF7D3371F5B1
:1007C400E1B5B717004003C75704B707080013770C
:1007D400070219E3B78707007955E378FBEA330783
:1007E4009B00E3FFE7F855B58547E382F9F2DA8524
:1007F4002D45053B9389F4FFE38504E6293393F7FC
:10080400390091EB832604800327090093074900EC
:10081400E39AE6E43E89CE84F1BFB5476396F900D6
:100824001305900BC93135BDB1471305B00AE38BED
:10083400F9FE99476391F904B7050800B365BB0055
:100844002D45C53181448D4BA14975396396740199
:10085400832704802320F9008504E39834FF832749
:10086400048013172B01635507002312F900D5BB2D
:100874002322F900FDB39D476399F90281451305CD
:10088400B0044531BD442320090023220900FD5949
:100894009D3993F77400CA9703C70700FD14398D77
:1008A4002380A700E39634FF6DBBA1476392F9044C
:1008B4006D398144630D0B008D479304C0036308B5
:1008C400FB009304000563048B0193044004137537
:1008D400C507E30895D8194539313939054521311A
:1008E40026850D3909453D314931E31C05D669BBDF
:1008F40091476399F90013056006F536F53E130533
:1009040090090DB7E38F09D4F154A9BBB7C70040D0
:1009140003A7C72023A607200F10000001C599C113
:10092400814711E6B7C7004023A6E7208280B3863B
:10093400F50003C80600B306F50085072380060109
:10094400E317F6FEC5B737C700408327C720232621
:1009540007200F10000019C191C111E637C70040EC
:100964002326F7208280910503A7C5FF11057D1674
:10097400232EE5FEDDB737C700408327C720232693
:1009840007200F10000001C53307C50011E637C763
:1009940000402326F72082800505A30FB5FEE31D42
:1009A400E5FEF5B7B7C7004083A6C72023A60720F6
:1009B4000F10000081473307F5000307070019E70C
:1009C40037C700402326D7203E8582808507E5B7B8
:1009D400011126CA4AC8B7C7004006CE22CC83A458
:1009E400C7202A892E8623A607200F10000013157E
:1009F40006019305F004418132C6EF0010222A84D7
:100A040001C53246CA8519372285F2406244B7C708
:100A1400004023A697204249D24405618280B7C78B
:100A2400004003A7C72023A607200F10000001C51C
:100A340099C1814711EAB7C7004023A6E7200545BD
:100A440082808507E309F6FE3308F500B386F500D6
:100A54000348080083C60600E305D8FEB7C7004074
:100A640023A6E72001458280B7C7004003A7C7201B
:100A740023A607200F1000009307F6FFBE952A96C1
:100A84006317C500B7C7004023A6E7208280FD1581
:100A940083C715000505A30FF5FEDDB737C7004072
:100AA4008327C720232607200F10000001C5330722
:100AB400C50019E637C700402326F7200145828088
:100AC40005058346F5FFE397B6FEE31BE5FE37C74E
:100AD40000402326F720054582807971973700006E
:100AE4009387C78722D4804306D626D24AD04ECED7
:100AF40052CC56CA5AC85EC65DCCB7C4C901014BB4
:100B040097390000938909859384F437173A0000D4
:100B1400130A0A85972A0000938A8A7F17390000EE
:100B2400130989888357240095E35C44631D0B00F3
:100B3400173700002324F782832BC4002285EF009B
:100B4400B01C5E8499A82326FB00FDB783A7090087
:100B540082971C443307F5406376F5000327490068
:100B64001D8F2A9763EEE4069727000023AA077ACD
:100B74008355240003450400972000E0E780C03932
:100B84005C405844A1C71444B6978326490063E3E4
:100B9400D700958F1CC4228B3A8449F49727000010
:100BA400938707779C4B05476372F706FD17172752
:100BB40000002327F776B250225492540259F24986
:100BC400624AD24A424BB24B4561828063170B00A2
:100BD4009727000023A4E77885B72326EB00A9BF55
:100BE40003274A0209CF63EFA7003385A74083A7F1
:100BF4000A016376F5009727000023A3A772228BCE
:100C0400404461BF03274900BA97C5B7972700003E
:100C140023A807704DB797270000938767789C43F4
:100C240085C3411106C682979727000083C7677260
:100C340089E79727000023A50776B2404101828007
:100C44009727000083C7E77091E79727000023A93F
:100C5400077482808280411122C417240000130487
:100C6400E46D1C4006C626C24AC091C782979727E6
:100C7400000023A5076C5C4091C382971C40639CD1
:100C8400071C173700000347178C9547973400005B
:100C94009384048B6301F71C9727000083C7877133
:100CA4008DE383C75400858B89CF83C774001947AC
:100CB400631CF70E97370000A386078899265C44C7
:100CC40082971C4491C38297172900001309C968AD
:100CD40003270900172600000346966397270000A0
:100CE40083C7076393961700BA9683D60600E9CAAA
:100CF4009727000083C7C76163EEC70C97270000DE
:100D0400238807601C406398071483C77400154741
:100D14006303F7149737000083C7178391CF83C702
:100D2400740093F7F70F89EB97370000A38E0780C1
:100D3400971001E0E780E08197270000938787619F
:100D44009C43638A0710972700009387E765DC4379
:100D5400172700002326F75C493397270000938761
:100D64002760DC53EDCB83C7740015476365F70E2A
:100D74009737000083C78781918BF1EF9727000095
:100D840083C7275DE9EB032609009726000083C685
:100D9400365863C8D70C2244B240924402494101F8
:100DA400172300E06700636C83C774001D47E31AD0
:100DB400F7F097270000A3870778A1241C4809B7F8
:100DC400850793F7F70F972600002383F654E3E78C
:100DD400C7F039BF86073E978355070023100700E5
:100DE4009727000023960756972700009387C75438
:100DF4009C43172500000345A55113172500BA97F6
:100E04009C4382979727000083D7875417270000B5
:100E14000347075093C7F7FF7D8D931717000327E8
:100E240009003E97835707005D8D2310A70097277D
:100E3400000083C7E74D91C78507172700002309E2
:100E4400F74C172700000347A74C9727000083C7D8
:100E5400374CE375F7EAB240224492440249410117
:100E64008280139717003297035707006DF78507A1
:100E74000DB737C700408326C720B707FCFFFD170F
:100E8400F58F2326F7200F10000097270000938783
:100E94002748C84F832787262326D7206A0593C768
:100EA400F7FF99835D8D8280011197270000938756
:100EB400E77622CC03A4870B26CA06CE2AC42EC604
:100EC400854419E40145F2406244D24405618280BC
:100ED4008347910003471400858B6304F7000044A3
:100EE400CDB719469305A100130524000D3EE31860
:100EF40095FE0545C9BF172700001307A7631443D0
:100F0400411122C49C5E4AC006C6998326C2858BC1
:100F14003A84172900001309A961D1CB930700066D
:100F24009CDE1727000003470762930700089724F5
:100F340000009384E460631BF700832709009C434B
:100F440093F7070417270000230FF75E83C70400F5
:100F540093F707049DC3972700009387A73F9C43FB
:100F640082979727000023A5A75E83C7040093F701
:100F7400F70B172700002305F75C83C7440093F79A
:100F8400070495E7854717270000A30DF75A97270D
:100F940000009387A75C9C433707020098C7130798
:100FA40000FC97260000238FE658D844F8D3184055
:100FB4001C5F9183858B8DC31C5F93E707011CDF46
:100FC40097270000938787599C4323A207068547E8
:100FD400172700002308F75683270900D843058301
:100FE400058B19C7D843759BD8C3D843799BD8C3FD
:100FF400B24022449244024941018280ED3D730093
:101004002030972700009387675594439727000063
:101014009387075303C70700058B11CB972700005D
:101024002382075297270000A38E0750828003C7AC
:101034001700058B65F7F85271FF83C75700DDB7BA
:10104400172700001307074F032807008327880387
:101054009583858BADEF11C683270803BD832300D9
:10106400F6009DC61C43985B460793576701635679
:10107400070093E707C0C207C18303970600C207AE
:10108400C18709C7BA970947B3C7E7022390F60097
:101094008DCD8345150095C99727000083C7A74ABE
:1010A40093F7070413879500894585C33A958347C9
:1010B40005000547994593F6F7066398E600E207AD
:1010C400E187814563D30700B9452E858280854534
:1010D400EDBF411122C406C61724000013040448BE
:1010E400184049E9AE877453FDFE3E85B2859727C3
:1010F400000023880744970001E0E780602C9727CD
:101104000000938727439C43B70680009843558F7C
:1011140098C3D857719BD8D797270000A384074258
:1011240097270000A38E07401C40094798C3B7F7D0
:1011340000E003A707D16D9B23A8E7D003A707D13D
:101144005D9B23A8E7D073005010144017270000BC
:101154001307073F83472700858B89EB83473700B5
:10116400858BC1C397270000238E073CB2402244DD
:10117400410182808D476310F50297270000938711
:10118400673B9C43B70680009843558F98C3D85754
:10119400719BD8D75DBF8547E319F5FA544781772A
:1011A400FD17F58F5CC70F1000001840B707020049
:1011B4001CC7930700F8172600002305F638972765
:1011C4000000938727379C439C439D83858B6397BB
:1011D400A700930760197CD354C785BF9307E01B0E
:1011E400DDBFFC52A5FB59B7411122C417240000EE
:1011F4001304C4361C4006C6D8479316D70063D6DA
:10120400060298479316D70063D106027D57B8D7D4
:10121400172700001307C70F584F0507972600002C
:1012240023A6E6103707040098C798470D83058B5B
:101234001DC3172700000347C730136717009726FD
:1012440000002380E630130700F897260000238B64
:10125400E62E214798C79847058B09CF172700002A
:101264000347172E1367170097260000A38AE62C5E
:10127400054798C798470983058B09E7984705836D
:10128400058B31C317270000A30E072A984797261A
:1012940000009386E62A0983058B6302071003C7BF
:1012A40006001367170097260000238BE6281147D2
:1012B40098C7172700001307E7271443D856719BD4
:1012C40013671700D8D698479316F70063D606021B
:1012D4009726000083C6C63BC18A17270000130760
:1012E400E733E1CA0347470713670702972600005D
:1012F4002380E63A416798C798479316E70063D27C
:101304000602172700000347E72362076187635734
:1013140007000547972600002386E62237070200C8
:1013240098C798479316C70063D70602972600000C
:1013340083C61636858A172700001307272EC1CACD
:10134400034757071367270097260000A382E63454
:101354003707080098C798479316B70063DD06025D
:101364003707100098C79727000083C7A70485C7CD
:10137400172700000347371D9547630EF70097278B
:1013840000009387671A9C4391C382971840B7075C
:101394001F00BD075CC7B24022444101828003C7DD
:1013A40036001367170097260000A38CE618094738
:1013B40001B7834647070946BD8A6388C6000347C9
:1013C40047078D463D8BE317D7F2114705B7834690
:1013D4005707918AB5DE0347570713678700ADB7F0
:1013E400972700009387871798438967938707F4A3
:1013F4007CD3972700009387A71B9C4383A60709E8
:10140400139656006358060083A6070913966600D0
:10141400634406007453FDF28280411122C4B7C7AD
:10142400004006C603A4C72023A607200F1000000F
:1014340011C199E5B7C7004023A6872001457DA8BF
:1014440093073500C207C183F19BC207C183130709
:1014540040036369F702172700001307E71B0843DB
:10146400172700001307C71A14436392A60217270D
:1014740000001307E7EE185B55DFC207DD8D054555
:1014840002974DBF172700001307C718C9BF03579A
:1014940065002DEB035745006366F706B306F74076
:1014A4002146637CD60203280500938687001D8F9E
:1014B400AA966117172600000356E6E52392E60074
:1014C40023A006012393060014C12312F500130779
:1014D40086FF972600002390E6E42313B5009725A2
:1014E400000083D545E3B387F54017270000231494
:1014F400F7E2B7C7004023A687202105B240224463
:1015040041018280084195B7B7C7004003A8C720AE
:1015140023A607200F10000001E523A607218280DF
:10152400972700009387470F03AE07009727000013
:101534009387070E03A307008146F28763F0670CC5
:1015440083A80700636FF50A63EDA80A1387870071
:101554006366E50A03D66700216705076317E6009B
:1015640003C7C18C05072386E18C9725000093856A
:1015740025DA03D6470003D7650023930700329783
:1015840042074183172500002317E5D8638AC70360
:10159400172500001305050808416303F50203D568
:1015A400660019ED83D7460023A0160121073E9655
:1015B40021062392C60097270000239EE7D4B6870E
:1015C4009843630D6702972600009386A60494420D
:1015D4006306D7028356670095E283D64700035615
:1015E40047001843A106B2962392D70098C383D725
:1015F4006500A10717270000231FF7D0B7C70040D5
:1016040029BFBE86C6871DBF011197270000938797
:10161400E70022CC03A4070C26CA4AC84EC606CE4D
:10162400AA8413092500854915C083C714000347FC
:101634003400858B6304F700405CFDB719469305BD
:1016440044004A85EFF0AFBDE31835FF2285F24030
:101654006244D2444249B2490561828041119727CC
:1016640000009387A7FB22C403A4070C26C24AC028
:1016740006C693042500054901E82285B2402244A8
:101684009244024941018280A6851305A40297B0C1
:1016940001E0E78020E7E30225FF405CF1BF411150
:1016A40097270000938787F722C403A4070C26C258
:1016B4004AC006C693042500054901E82285B240C4
:1016C40022449244024941018280A6851305A40163
:1016D40097B001E0E78000E3E30225FF405CF1BF3F
:1016E400197106C212C416C61AC81ECA22CC26CE46
:1016F4002AD02ED232D436D63AD83EDA42DC46DE6E
:10170400CAC0CEC2D2C4D6C6DAC8DECAE2CCE6CEDD
:10171400EAD0EED2F2D4F6D6FAD8FEDA9385418432
:101724008841E700050092402242B2424243D2433C
:101734006244F244025592552256B2564257D25749
:101744006258F25806499649264AB64A464BD64B41
:10175400664CF64C065D965D265EB65E465FD65FC9
:101764000961730020300000EFF0EFCA730000003D
:1017740000000000972200009382A2BD03830200B0
:1017840023800200630F0300F32510342EC0970555
:1017940000009385A5FD73901534EFF0FFA473004A
:1017A400203086DCEFF05FA4E65082800000000069
:1017B400971100209381419817510020130141048F
:1017C4001305400097F5FF1F9385858317060020B6
:1017D400130606FE63FAC5008322050023A0550004
:1017E40011059105E3EAC5FE17D501001305850827
:1017F400970500209385C5FB1386818363FAC50092
:101804008322050023A0550011059105E3EAC5FED6
:1018140013858183972500209385C5F26377B500EE
:10182400232005001105E36DB5FEFD42739002BC53
:101834008D42739042809302800873A0023097E235
:10184400FF1F9382E27B93E232007390523097122F
:101854000000938222A073901234730020303D4321
:101864002A876373C3029377F700BDEFADE59376E0
:1018740006FF3D8ABA960CC34CC30CC74CC741073C
:10188400E36BD7FE11E28280B306C3408A06970257
:10189400000096966780A6002307B700A306B7004A
:1018A4002306B700A305B7002305B700A304B700B8
:1018B4002304B700A303B7002303B700A302B700B0
:1018C4002302B700A301B7002301B700A300B700A8
:1018D4002300B700828093F5F50F93968500D58D8C
:1018E40093960501D58D61B7939627009702000062
:1018F40096968682E78086FA9680C1171D8F3E965B
:10190400E374C3F8A5B7238C018223AE0182B71711
:10191400004003A7070CB706C0FFFD16758F23A070
:10192400E70C03A7070DB7064000558F23A8E70C63
:10193400828023AEA18213064006894503C58184B3
:101944006F104073B717004083A7470C3707400058
:1019540083C68183F98F13B71700638DE600238C48
:10196400E18289EB9387C18303A307006304030027
:10197400054502838280797122D426D24AD04ECE84
:1019840052CC56CA06D61379F50013848193854444
:1019940093891184138A0184914A631009022254A1
:1019A400B25092540259F249624AD24A03C5818420
:1019B4000146854545616F10E06BB3779900A9C76F
:1019C40083470A0003C7090023000400E58FD98F69
:1019D400A380F1842312D4002301C400A300B40023
:1019E40099E12300540136C632C42EC2EF10204FB1
:1019F40083470400B2462246924593E7270008C471
:101A04002300F40033499900860493F4F40F31045D
:101A140069B7937715001387018485CB8547B7167B
:101A24000040639EF50083A7860A93F7F7EF23A48B
:101A3400F60A834707005D8D2380A184828083A7F3
:101A4400860A93E7071023A4F60AE5F583470700FF
:101A54001345F5FF7D8DCDB7011122CC26CA4AC8A6
:101A64004EC652C406CEAE899374F5001389819391
:101A74000544214A89E8F2406244D2444249B249C9
:101A8400224A05618280B3F7840089CFCE856396AC
:101A940049018345090093C5150022852300B90037
:101AA400A18C853F06041374F40F3109E1B7AA87AA
:101AB40011C909CA81CA9307300663E3C70065BD2B
:101AC400854559BF81453E85EDBFA14763EFB70208
:101AD40097C60100938646601397250036971C43EA
:101AE400411106C6B69782879306803E1546854502
:101AF4007D3FB2400145410182809306803E1546F8
:101B040093052003F5B7893FEDB701458280371768
:101B140000408327070A411106C693E707102320D4
:101B2400F70A81453D450D3F8566938606FA794659
:101B3400A94505458935B240238401964101828037
:101B440083C781966393071679714ECEC16922D4F7
:101B540026D24AD052CC56CA5AC85EC662C406D6E9
:101B640066C26AC013848193014C3D498544138A3B
:101B74001184930A4006FD19130B4006930BF00FD2
:101B8400B3F72401E1C783470400898BD5CFEF1055
:101B940000351C442A8D6366F50E83460400834C8D
:101BA400240093F71600BDCB33079B41F99A814576
:101BB4002685937CF70F2300D400A13D034604003F
:101BC4009377460099EF83461400638C7601FD16E3
:101BD40093F6F60FA300D40089E6134626002300EB
:101BE400C40083470400898BB1C3035744003307FF
:101BF40097033357570393170701337737016A97CE
:101C0400C18318C463030C08A1C33E876373FC003B
:101C14006287131C0701135C0C013DA093E61600B8
:101C2400854526852300D400ED3365BF83450A002E
:101C34002685E58DB335B000493D03470A0093C7B7
:101C4400F4FFF98FA380F18433C92401860493F44B
:101C5400F40F3104E31609F2630B0C022254B25060
:101C640092540259F249624AD24A424BB24B924CC4
:101C7400024D6286224C03C58184854545616F10FF
:101C8400603F898FC207C183B5BF3E8C75BFB25018
:101C9400225492540259F249624AD24A424BB24BFC
:101CA400224C924C024D4561828082804111939670
:101CB4002500AA852D4506C697F0FF1FE780608E94
:101CC400B240014541018280411126C2939425000E
:101CD40022C44AC02A843289A686AA85014625459B
:101CE40006C697F0FF1FE780C08BA6864A86A285AA
:101CF400294597F0FF1FE780C08AB24022449244EE
:101D04000249014541018280011122CC06CE3714DB
:101D1400004026CA4AC84EC652C483447405034AC6
:101D2400B4058349840503499405BD2B8347A40561
:101D340093F4F40F137AFA0F93E71700230DF404C6
:101D440093F9F90F1379F90FB717004003C7A705E3
:101D5400058B6DFF03D5C705A38D4705238C370578
:101D6400A38C2705A38B9704F2406244D2444249D2
:101D7400B249224A0561828041119397050122C428
:101D840006C6C1872E8463DA0700EF00D05819C154
:101D9400EF00104D2165218D39A093F7150081CBFB
:101DA400453313451400B24022444101828093F725
:101DB400250081CF413E1306000A894503C581846D
:101DC400EF10402B13452400F9BF9397250163DFDF
:101DD4000700EFF0D05637F60200130606E08965D7
:101DE40003C58184EF100029096575B79397150120
:101DF4000145E3DA07FA17C501001305A534EFB06E
:101E0400E11313060064916503C58184EF108026F5
:101E1400116551B71D71494697C501009385052E7B
:101E240017C501001305C55886CE97F0FF1FE7803C
:101E340000BF01E917C501001305852DEFB001109E
:101E440001A0B7F600E0795798CAFD57DCCA0567C8
:101E5400B7E700E023A0E7101306F00290C223A026
:101E6400E71801000100970700209387A790130645
:101E7400C0038145480823A2F18497F0FF1FE7803F
:101E840080AF970700209387E7C13ECA896793878D
:101E94000780231CF100A167938707E03ECEB707B4
:101EA4000105938707103ED0ED472312F1028547C1
:101EB4002303F10297070000938787DFBEC49707C7
:101EC40000009387A7E0BEC68567938757D1231484
:101ED400F102B7F50700971700009387A7AB3EDA26
:101EE400814697070000938767E27000E105194572
:101EF4003EDE97E0FF1FE780C06A58088147994695
:101F040070003E960346060085070507A30BC7002D
:101F1400E398D7FED24791C703578101856763735E
:101F2400F70001A04808EF10C07FAA8501C917C5B2
:101F340001001305251FEFA0D16E01A0F640256115
:101F44008280411117050000130545E306C622C42B
:101F5400EF106079138481842300A4003928453E5E
:101F64005D32034504002244B24037F602001306F2
:101F740006E0896541016F10E00F0111054506CEA9
:101F840022CC26CA4AC8CD26371400400D45130971
:101F94007005BD26930480FA2300240523009404CD
:101FA400010001008347F4021305800C93F7D70F57
:101FB400A307F4028347F40293E71700A307F4028C
:101FC4002300040497E0FF1FE780604F05450D2EB2
:101FD4002300240523009404010001008347F40234
:101FE4001305000293E74700A307F4022300040447
:101FF40097E0FF1FE780C04B8147014781460546B4
:10200400A9451305707EF1260A854146814597F05E
:10201400FF1FE7804096B707C0A83EC2B7873200CB
:102024003EC40A8597E7FF1F9387A70B3EC0EF10B6
:10203400501CF2406244D24442490561828089477F
:102044006305F50263E6A7008547630AF50082800D
:102054008D476301F50299476303F502828017C532
:102064000100130565106FA0716D17C501001305FC
:10207400A510D5BF17C5010013050511EDB717C588
:10208400010013052512C5B701119397050122CC50
:1020940006CE26CAC1872E8463D0070203C50185F4
:1020A400EF00702719C1EF00B01B2165218DF240AC
:1020B4006244D2440561828093F7150091CB1705E1
:1020C400002013056587EF30910813451400C5B748
:1020D40093F785000145E1DF05390924930485DA86
:1020E400A68517C5010013052506EFA09153930794
:1020F400E10078009306A1003000930561004800D8
:10210400D9290357A1000358E1008357C10083561E
:102114008100035661008355410017C50100130572
:102124006503EFA0115093D7844017F7FF1FA30F47
:10213400F76897F7FF1F238C97688357A10097F6DA
:10214400FF1F93866668614617F7FF1FA301F768B0
:102154008357C100854503C5018517F7FF1F230970
:10216400F7668357E10017F7FF1FA303F766EF40F5
:10217400507F13060064A14503C50185EF00906FED
:10218400134584002DB7011117050000130505F050
:1021940006CE22CCEF1020551384018585472300F9
:1021A400A4002307F1001306E1008D4785451305BC
:1021B4005030A307F100EF5081461306F100854526
:1021C40013058030EF50A14517F6FF1F1306466133
:1021D400C14513057030EF50814417F6FF1F1306F5
:1021E400265DD54513056030EF5061439305000A21
:1021F4000D45EF30601A9305000A1145EF30C01900
:10220400034504008545EF00B05003450400130660
:102214000064A145EF001066F240624405618280CB
:10222400058915C5411117C50100130565F806C6D2
:10223400EFA0D15081453D45EFF03F89B240930670
:10224400803E79468945054541016FF05F8682806D
:102254004111054506C649231305800497E0FF1F75
:10226400E780A0EB371700408327870A8D451305C5
:10227400002093E707202324F70A65299D2F17C51B
:1022840001001305E512EFA0714B69365D3917059E
:102294000000130525F9EFF0CFE9EF50A169E5350A
:1022A40097E0FF1FE780C0E6B717004003C7770534
:1022B4001377E70FA38BE704130700F8A38DE70454
:1022C4003D47238CE70413075003A38CE70403C79B
:1022D400A7051377D70F238DE7048280B7F707008C
:1022E400DC4B13D7070111E36547C207C1831D8D7A
:1022F400A9473305F502ED473345F5023A95828047
:10230400B717004083C7E7020D8993F7C70FC98F3A
:1023140073270080218B9386418509CB7327008026
:1023240023AAE18498425D9B731007800100010099
:1023340037170040130670052300C704130680FAFC
:102344002300C704010001002307F7022300070448
:10235400732700809C42A18BD98F7390078023AA96
:102364000184010001008280B717004083C7E7029F
:102374001205BD8BC98F93F7F70F73270080218B4C
:102384009386418509CB7327008023AAE184984270
:102394005D9B73100780010001003717004013068E
:1023A40070052300C704130680FA2300C704010044
:1023B40001002307F70223000704732700809C42CF
:1023C400A18BD98F7390078023AA01840100010097
:1023D400828041112A83014E930E407E130F00190F
:1023E400930F400663E66E14930800191303400626
:1023F400B3781503854E0D4FA14F337365020D89D4
:102404001335150063E0BE161308F6FF794672987B
:102414004208135808013307C70213D61700BE0732
:1024240032976146B3F6C60213068070B386C602BD
:102434003697A166F58F42075D8FB716004083C7B4
:10244400F60293F70708A307F1000346F10083C7D8
:10245400F60293F70708E394C7FE8347F100B71623
:10246400004093F7F70F63890714F3270080A18BCB
:10247400938641856398071401000100B717004053
:10248400130670052380C704130680FA2380C7044B
:102494000100010023AA070303C6170313660608F5
:1024A400A388C70223800704732600809C42A18B63
:1024B400D18F7390078023AA018401000100116663
:1024C400B71500407D16DC59C85DA98FF18FE5FF73
:1024D400F3270080A18B89CBF327008023AAF18402
:1024E4009C42DD9B7390078001000100B7170040F8
:1024F400130670052380C704130680FA2380C704DB
:1025040001000100D8DB03C7170313670704A3887E
:10251400E70223800704732700809C42A18BD98F94
:102524007390078023AA0184010001004101828085
:102534007D133368E3039308E016630E08003368E1
:10254400F3039308D016630808009378330093B814
:1025540018009388D81633081E01131E0801135E51
:102564000E0149B56393E5030548638608000148F5
:10257400630303002A8871087298FD15131E08016D
:10258400C205135E0E01C181B5BD13F8150063F4D5
:10259400BF007908D5B713381800E5BF83C7F60222
:1025A40093F70708A307F1000346F10083C7F60277
:1025B40093F70708E394C7FE8347F10093F7F70FF7
:1025C400F1DF65B5F327008023AAF1849C42DD9BEB
:1025D4007390078055B5B718004003A8C80303D308
:1025E400A80383D888034111060393D8F8004A0846
:1025F400B30E13019308407E22C626C44AC2135860
:10260400280123101501930F00199302D016930388
:102614004006130FC01603530500B378F303638019
:102624000810B3787302638108109378330013BEE3
:102634001800130EDE166350C809239005000544E4
:102644009944F94FF542130900199303400683D8BE
:102654000500138F18006394880A03530500337E22
:102664002303630C0E08B37873026386080093781F
:10267400330063840808F148635C18052390E5017E
:102684000508231006010566130606E1B3D5CE023C
:102694003244A244124933F6CE022390B600930684
:1026A400C0033356D602B3F6DE022310C7002390CC
:1026B400D7004101828093B818009388D816330854
:1026C4001841420805031358080123106500A1B7F7
:1026D4008548630B0E00337E7302814863060E0047
:1026E4009378330093B81800F1083308184142086E
:1026F400135808012390E50199BFF548B5BF13F3BA
:10270400180063F8140163180300E3D902F7F948C9
:10271400E9BFE31C03FEE3D30FF7FD48F9B7E3DE9B
:1027240002F19308E01661BFE3590FF19308D01644
:1027340079B7914763EEB70217C70100130747A89B
:102744008A05BA959C41BA978287B717004003A7B8
:10275400470B1345F5FF698F23AAE70A03A7070B65
:10276400698F23A8E70A03A7070A798D23A0A70A7C
:102774008280B717004083A6470B1347F5FFF98EF5
:1027840023AAD70A83A6070B558D23A8A70A83A6D5
:10279400070A758F23A0E70A8280B717004003A7B2
:1027A400470B498F23AAE70A03A7070B1345F5FF35
:1027B40045BFB717004083A6470B1347F5FF758F36
:1027C40023AAE70A03A7070A598D4DB7B717004094
:1027D40003A7470B498FEDB70111B717004022CC6F
:1027E40026CA83D4270203D4070206CEC2044204B5
:1027F4004AC8C180418025ED93F4F4F71374F49F23
:10280400C2044204C1804180F3270080A18B138756
:10281400418589CBF327008023AAF1841C43DD9BE7
:102824007390078001000100B717004093067005FC
:102834002380D704930680FA2380D7040100010083
:10284400239197022390870223800704F3260080B4
:102854001C43A18BD58F7390078023AA01840100A8
:102864000100F2406244D244424905618280B7F5D6
:10287400070081463000B105194597E0FF1FE78046
:1028840040D2A24713972701E34D07FC93E40408C1
:1028940013640440F3270080A18B1389418591CBF5
:1028A400F327008023AAF18483270900DD9B73901A
:1028B400078001000100B71700401307700523804B
:1028C400E704130780FA2380E70401000100239141
:1028D40097022390870223800704732700808327AD
:1028E4000900A18BD98F7390078023AA018401006A
:1028F4000100294597E0FF1FE78080BBF327008094
:10290400A18B91CBF327008023AAF18483270900AC
:10291400DD9B7390078001000100B7170040130787
:1029240070052380E704130780FA2380E70401007D
:10293400010003D70702136707202390E7022380CF
:1029440007047327008083270900A18BD98F21B73F
:10295400B71700408847420541819377050491EBFE
:102964009377F5013755E801130505803345F502E2
:1029740082809377050C130700046397E70093772D
:10298400F50137459C1CCDB72165130505D0828020
:10299400B7F700E08847CC4782808147373700404B
:1029A400A14663C4C700328582800345B740E38EE5
:1029B400A6FE3385F5000345050085072304A740DB
:1029C400CDB7411122C406C62A8459372947B30713
:1029D400E502B2408D83B3D7870222449507B3D76B
:1029E400E70237370040C207C1832316F74041018D
:1029F4008280716541111305052006C6D937B737A2
:102A04000040130770F82381E7400D47A381E74096
:102A140013070004A380E74005472387E740B2403B
:102A24004101828023AC05FE1C4191E701000100B5
:102A34000CC18280BA8703A787FF6DFF23ACB7FE62
:102A44008280184183A785FF6319B7001CC1FD5715
:102A540023AC05FE238FF5FE8280232CF6FEC5BF32
:102A6400411122C426C237C4004006C68324C420B0
:102A7400232604200F10000009E92326942015457D
:102A8400B24022449244410182800347E5FF930708
:102A9400F00F6306F700232694201145D5B797F06D
:102AA400FF1FE78060A6014523269420D1BF411172
:102AB40026C24AC0B7C4004006C622C403A9C42023
:102AC40023A604200F10000009E923A62421B24004
:102AD400224492440249410182809565938505D040
:102AE400C98D2A842105C2054205C181418197F01F
:102AF400FF1FE780809201CDFD572320050023129C
:102B040085002303F50023A624212105C9B723A6A4
:102B1400242101456DBF01114AC84EC6B7C7004004
:102B240006CE22CC26CA83A9C7202A8923A6072039
:102B34000F100000970700209387077D804381448E
:102B4400014619E499E8A1654A85EF00207B05A0B8
:102B54008347E4FF6399270385CCA68517050020E6
:102B64001305857AF93D65D0A1654A855526F2405D
:102B74006244B7C7004023A6372126854249D24480
:102B8400B2490561828091E02286032484FF55BF07
:102B9400A284E5BF411126C24AC0B7C4004006C69C
:102BA40022C403A9C42023A604200F10000089E531
:102BB40023A62421154515A02A849707002083C73E
:102BC400F7742E856375F400894763EE8700493DE9
:102BD400B7C7004023A627210D45B24022449244A2
:102BE40002494101828083A785FF99E703C7E5FF76
:102BF4009307F00F6308F700A535B7C7004023A675
:102C040027214DBF238F85FE170500201305C56FAF
:102C1400113DA1652285ED2C014523A6242175BF14
:102C24009707002023A2076E8280970700209387CE
:102C3400A7729C4399E33E85828003D727006316DD
:102C4400B70003C70700E308A7FEDC47E5B7C9C11F
:102C5400797122D406D626D24AD04ECE01444147B9
:102C6400B3D78540858BA5C312053147229533051B
:102C7400E502970700209387277203A9070085447C
:102C8400B3948400C204C180BE892A990327090031
:102C940011C7032549002EC60297B24531473304B4
:102CA400E40283A709003E941C4489E72320090019
:102CB40023220900B2502254A58D02599254F2499C
:102CC4002E85456182800504E31CE4F88144DDB768
:102CD4002E85828041111397050122C406C626C29F
:102CE4004AC041872E84635E0700353511C18D3B90
:102CF400A1673D8C2285B24022449244024941019D
:102D04008280EDD9AA8701474146B356E440858ABB
:102D14008DCE9207BA97B146B387D70297060020A3
:102D24009386866703A906008544B394E400C2042D
:102D3400C1803E99832709000325490082972320F7
:102D4400090023220900258C75B70507E31FC7FA7C
:102D54008144D5BF411126C2B7C7004006C622C46C
:102D640083A4C72023A607200F1000009707002084
:102D74009387C75E9C531384818099C782971C40B4
:102D84003E9523A4A18039A0970700209387475C30
:102D94009C43EDF71C40374703001307D73FB38725
:102DA400E70237A72600130737ECB240BA9723A4EB
:102DB400F180B7C7004023A69720084022449244DC
:102DC40041018280797126D2B7C7004006D622D449
:102DD4004AD04ECE52CC56CA5AC85EC662C483A4E8
:102DE400C72023A607200F10000005E123A6972083
:102DF4000945B250225492540259F249624AD24AC5
:102E0400424BB24B224C4561828097070020938746
:102E140027549C43BA8A368AB28B2E8BAA8982970E
:102E2400970700209387475798433E890144B1464A
:102E3400C147330CD40233068701104241EAC1650D
:102E4400938505F0414597E0FF1FE780005D05E1AC
:102E540097070020938787509C5B81C78145114564
:102E64008297B7C7004023A697202D4559B79707E7
:102E740000209387674E984331E79707002023ADDE
:102E8400A74C230005008327090005473317870053
:102E940023260500232475012311E500232255016F
:102EA400E29723A0370123A2670123A457016304F7
:102EB4000A0023008A00B7C7004023A697200145D3
:102EC4000DBF3E875C47F5FF48C765BF0504E312A5
:102ED400F4F6B7C7004023A69720214519BF9707EA
:102EE40000209387E74B9C43411122C406C6170474
:102EF40000201304A44181CB82975C483E95970738
:102F0400002023AFA7404848B240224441018280B8
:102F1400B7C7004083A6C72023A607200F100000D0
:102F2400170700200347973E6373E5021706002046
:102F3400130646421317150008423A950357050035
:102F4400D98D2310B50023A6D7200145828023A65E
:102F5400D7200D458280B7C7004083A6C72023A68B
:102F640007200F100000170700200347373A637546
:102F7400E502170600201306E63D13171500084264
:102F840093C5F5FF3A9503570500F98D2310B50055
:102F940023A6D7200145828023A6D7200D45828011
:102FA400011126CA37C7004006CE22CC4AC84EC6F5
:102FB40052C48324C720232607200F1000001307C0
:102FC40005FF1377F70FFD4763E0E70AB146B30641
:102FD400D502970700209387273C984336971C43D4
:102FE400C1C7135A450005443D893315A400131481
:102FF400050141802E895285A2850539AA8921C9F6
:10300400A2855285893F97070020938767349C43A4
:1030140082979707002083D76739338727032A8449
:10302400130600648146B3B7270313050732B3358B
:10303400E500BE95EF90111A970700209387873615
:10304400DC4322956363F5001D8D23A4A900B7C753
:10305400004023A697200145F2406244D2444249ED
:10306400B249224A05618280B7C7004023A697204F
:103074000945DDB7797126D24ECEB7C4004006D6D5
:1030840022D44AD052CC56CA5AC85EC683A9C42098
:1030940023A604200F1000009707002083C71727DA
:1030A400637AF500970700209387872A83AB07008C
:1030B40063970B00B7C7004023A63721A9A0170BBD
:1030C4000020130B2B2E832A4B00B74736FE938721
:1030D40007C82E8A9705002083D5452DBE9AB3874D
:1030E400C5022A8432898146B3B5C50213850732E5
:1030F400B337F50013060064BE95EF90B10D63F08D
:10310400AA0223A634210145B250225492540259F2
:10311400F249624AD24A424BB24B45618280829B59
:103124009705002083D58528B3872503AA84130631
:1031340000648146B3B5250313850732B337F50020
:10314400BE95EF90310983274B00AA9463E3F40002
:103154009D8CD2852285D13C01C904C5B7C70040E6
:1031640023A6372105454DB7936504F0C205C181F7
:10317400414597E0FF1FE780402A19E9970700209F
:103184009387C71D9C5B9DD7A285114582971DB768
:10319400970700209387471C9C439DE397070020D3
:1031A40023ACA71A85472326050004C5231145012E
:1031B40023008500A300F5002322050045B7BA8744
:1031C400D84775FFC8C7F9BF79714ECEB7C700405D
:1031D40006D622D426D24AD052CC56CA5AC85EC683
:1031E40062C466C26AC083A9C72023A607200F1041
:1031F400000035C141443689B28A2E8AAA84B14C72
:10320400170B0020130B4B19054D130C0003B30BC4
:10321400940303270B005E971C43B9EF9375F400E6
:10322400B315BD0013554440C2055686C1811375BC
:10323400F50F893531C183270B00DE9784C323A2A0
:1032440047016304090023008900B7C7004023A68F
:103254003721014521A023A637210945B250225424
:1032640092540259F249624AD24A424BB24B224C1E
:10327400924C024D456182800504E31A84F9B7C774
:10328400004023A637212145D1BF011122CC26CAF3
:103294004AC84EC6B7C7004006CE03A9C7202A8431
:1032A400AE89B28423A607200F100000E1332285E3
:1032B400CE85EFF09F972A8405C59705002083D516
:1032C400E50EB3879502130600648146B3B59502F3
:1032D40013850732B337F500BE95EF90A16F48C050
:1032E40013351400F2406244B7C7004023A62721D7
:1032F400D2444249B2490E0505618280011122CCB3
:103304004AC84EC6B7C7004006CE26CA83A9C720FE
:103314002A892E8423A607200F100000EFF0FF90C7
:10332400AA8419C123110500A2854A852D31970766
:10333400002083C7A7FD639B27019707002083D73D
:10334400E7005D8C9707002023928700B7C70040F1
:1033540023A63721014591E01945F2406244D24445
:103364004249B24905618280011126CA4AC8B7C4DC
:10337400004006CE22CC4EC603A9C42023A60420B6
:103384000F1000009307F00263E8A704B147330469
:10339400F502970900209389290083A70900A297C1
:1033A4009C439DCB9377F5008545B395F500C20505
:1033B400C1811181A13783A709000145A29723A0E8
:1033C400070023A2070023A62421F2406244D2442A
:1033D4004249B24905618280B7C7004023A627212C
:1033E4000945E5B7411126C206C622C4B7C7004045
:1033F40083A4C72023A607200F100000EFF0FF824C
:1034040019E90145B2402244B7C7004023A69720DA
:1034140092444101828097070020938767F39C437D
:1034240000458297970700209387C7F76368A40233
:10343400D843B74636FE938606C83305A44036976C
:10344400E371E5FC13070064B335E50203D6870096
:1034540081463305E502EF90E1576DB7D8433A94BE
:10346400C1BF0111680006CE22CC26CAEFC05004A9
:10347400FD576302F504B247F9CB97070020938701
:1034840067F297040020938464E89448D8433E8408
:10349400638FE60497070020938787EB9C4382970A
:1034A40032479C486373F700BA873E955C4063607B
:1034B400F5041D8D2DA897040020938424E517049A
:1034C4000020130424EE9448584097070020938763
:1034D40027E89C436392E60882975840B74736FE34
:1034E400938707C8BA973E956363E500198D17045F
:1034F40000201304A4041C4C81CF97070020938759
:10350400E70A94433707CDFF7D179C46F98F9CC685
:1035140011E5970700209387E7E8C8439707002041
:103524009387C7E3DC53829719E51C4C8DC3EFE006
:103534000078EFD050501C4C99CB9707002093870C
:10354400E7069843B70633001C47D58F1CC7F240E3
:103554006244D2440561828082979C48B9B7411184
:1035640006C69707002023ADA7E20295B24097074D
:10357400002023A9A7DA014541018280914763E92C
:10358400B7008A0597070020938707DBBE9588C19B
:1035940082809707002023A3A7E011C5854717075A
:1035A40000202306F7DA8280411151468145170530
:1035B4000020130565D806C69707002023AE07D858
:1035C4009707002023AE07DC9707002023A207D823
:1035D40097070020238D07D69707002023A007DC38
:1035E40097D0FF1FE7802039130680028145170515
:1035F40000201305A5D197D0FF1FE780C037EF4007
:10360400213D9707002083C7B7D613D527008D8B9C
:103614003E958D473305F502854539051375F50F3C
:10362400970700202385A7CE99473305F502130594
:10363400052497E0FF1FE78040DE17070020232DB5
:10364400A7D459CD994717060020034646CC330624
:10365400F60281451306062497D0FF1FE780A031A8
:1036640097070020938747D39C4393870724170722
:1036740000202321F7CC17070020034747C90A0776
:10368400BA97170700202327F7CCEFF06FD98129C9
:1036940097070020938707CA94439707002083C79E
:1036A400F7C613972700369717F6FFFF1306665AD7
:1036B40010C3138717001377F70F0A07369717F607
:1036C400FFFF1306666110C313873700890793F75A
:1036D400F70F8A0797050020A38AE5C2B69790C31F
:1036E400B240410182809707002083C737C2170781
:1036F40000200347C7C163F3E7021707002013073D
:1037040067C318439386170017060020A300D6C08A
:1037140093962700369708C33E8582809307F00F5F
:10372400E5BF1C41638D071241777D8FB7060020EA
:1037340089476317D71203574500630307124111E2
:1037440022C419462A849305F00F610506C697D052
:10375400FF1FE780A03405478D47630DE50E1C4429
:1037640091C7585899477DC7185C6DC71306C003A5
:10377400814517050020130565BE97D0FF1FE7801C
:10378400801F1306C003A28517050020130505BD7D
:1037940097D0FF1FE7808017170700200357C7BC87
:1037A40097070020938787BB19E713070010970634
:1037B4000020239BE6BA17070020034707BB11E745
:1037C4000547970600202382E6BA1707002003570F
:1037D400E7B911E76D47970600202399E6B8170764
:1037E4000020034797B811E7154797060020A38EDA
:1037F400E6B617070020034787B711E70547970682
:1038040000202386E6B617070020034757B619E7BA
:1038140003C7F70097060020A38BE6B41707002020
:10382400034707B511E75547970600202382E6B4FE
:103834000347640119E71307C00397060020238A8E
:10384400E6B29C5791C78297970700202394A7ACB0
:10385400A13B8147B24022443E8541018280894791
:103864003E85828001114EC697090020938989B351
:1038740083A7090006CE22CC26CA4AC852C482971E
:1038840013090064B335250303DA8900814652869F
:1038940033052503EF90011497070020938707A7AA
:1038A400804FAA8401456306940233858440636E85
:1038B400940003A5490052868146B335A902330515
:1038C400A902EF902111018D26959707002023ABC3
:1038D40097A4F2406244D2444249B249224A056163
:1038E40082809707002083D787AC51471D45637CAE
:1038F400F702794719456378F70213072003154542
:103904006373F7021307B0041145637EF7001307CE
:1039140040060D456379F700130760090945637490
:10392400F70013B5B70F8280011122CC06CE2A848A
:103934002EC6EFF02FC2B245F240818D33A5A50209
:10394400229562441375F50F05618280011122CC22
:1039540006CE2A842EC6EFF0EFBFB245F240818D29
:1039640033A5A50222956244420541810561828006
:10397400011122CC06CE2A842EC6EFF0AFBDB2458B
:10398400F240818D33B5A50222956244056182809F
:10399400970700209387879C985739CB411122C4FD
:1039A40026C206C6BE8402971707002003578796CF
:1039B4002A8415CBBA876373A700AA87C207C18379
:1039C400BA866373E400A286C206C182958F51470A
:1039D400635BF700DC5491C38297EFE040169707CE
:1039E400002023998792B24022449244410182806C
:1039F40082809707002083C7A79B99C705458280CB
:103A04000545F2400561828097070020938707955A
:103A1400DC57011106CEAA8581C72AC68297B24512
:103A2400ADCD9C41F1DFDC41E1DF83D78500E9DBEB
:103A340083D7A500F1D741461705002013058596C5
:103A440097D0FF1FE78080EC970700209387879526
:103A54009C4317070020232DF78E9707002083C768
:103A640057918DE793078057170500200355059458
:103A74003305F50237460F001306062481468145B7
:103A8400EF80517597070020A385A78E17050000C6
:103A9400130585DDE9340145ADB79707002023A55B
:103AA400078897D7FF1F9387C73C17070020232B4E
:103AB400F78E7D579707002023A8E78EB78732003B
:103AC400938727A19706002023A2F68E970700204C
:103AD4002380078EB7C7004023A4E726B5B701119A
:103AE40022CC1704002013046487084406CE26CA97
:103AF4004AC801E90545F2406244D244424905619D
:103B040082805C58E5DB185C75D770008545829728
:103B14001844B247E300F7FE9305E00417050020BC
:103B24000355858497E0FF1FE780208F17F7FF1F59
:103B3400232EA77E61D1170600200356E682930543
:103B4400F00F97D0FF1FE78000E3814417F9FF1FB0
:103B54001309C97B9707002083C72781032609021D
:103B640063C1F402328597E0FF1FE780E0990145C5
:103B740097F7FF1F23AC077A97F7FF1F23AA077A4B
:103B84009DBF97F5FF1F83D5257EB3879502084413
:103B9400185C898185043E9508C2029765BF0111AE
:103BA40056C297FAFF1F938A6A7B83A78A0022CCA6
:103BB4004AC84EC606CE26CA52C45AC0AA892E8402
:103BC40032896386072203A74A036309071413078C
:103BD400F01F6367A71497F4FF1F9384247303AA49
:103BE400040263170A0A9565938515E017F5FF1F0C
:103BF4000355857797E0FF1FE780208297F7FF1F23
:103C040023A6A7722A86630B051083A74A0303A57C
:103C14008A0097F5FF1F83D525758981829783A72D
:103C24008A0003AA040217F7FF1F2323F7708947AA
:103C3400639CF908C1476313F40E97F5FF1F83D5FE
:103C4400A572938505FC9147B3C5F5028A05D29503
:103C540003C725009307A005631EF70A83D7050051
:103C6400639A370B4A852286910597D0FF1FE78018
:103C7400E0C99C505285639347150145F240624464
:103C8400D2444249B249224A924A024B0561828097
:103C9400D850E38EE7F89565938525E017F5FF1F67
:103CA4000355856C97D0FF1FE78020772A8A3DC58E
:103CB4002A8683A74A0303A58A0097F5FF1F83D5A5
:103CC400A56A89818297A5B78D47639DF900C1478D
:103CD4006316F40497F5FF1F83D50569938545FDA5
:103CE400F199B5B79147639AF9006319340397F5CD
:103CF400FF1F83D56567A115E5B793070010639F80
:103D0400F900A14763EC870097F5FF1F83D5C565CC
:103D1400C115F9B79C5052856396470D2945B9BF23
:103D24001D6A568B6371450B130A05E01947334A24
:103D3400EA0217F7FF1F0357276397FAFF1F938AB7
:103D4400EA5C330AEA023E9A83A74A026395470172
:103D540083A40A029DE49305E00417F5FF1F0355AD
:103D6400A56097D0FF1FE780406BAA8445D98327BD
:103D74004B0397F5FF1F83D5255F2A8689815285DA
:103D8400829791451307A005898193972500A697EB
:103D940083C627006393E60483D60700639C360337
:103DA40085058A052286A6954A8597D0FF1FE78058
:103DB400E0B583A70A02E38297EC268597D0FF1F1C
:103DC400E78080745DBD21677917E369A7F4330A3E
:103DD400454185B783C5370045BF83A70A02E38FF2
:103DE40097F2268597D0FF1FE780007205BF97F7EB
:103DF400FF1F9387A7518C5395D191479306A00534
:103E04008983139727002E9703462700E318D6F0DB
:103E140003560700631C360185078A072286BE9570
:103E24004A8597D0FF1FE78060AE81BD8347370086
:103E3400C1BF97F7FF1F93876752984739C79C5FA5
:103E4400A9C705476313E504411122C417F4FF1FF2
:103E54001304C44B105006C60DC6485097F5FF1FF7
:103E640083D5855089818297085097D0FF1FE780BA
:103E7400A06997F7FF1F23AB074A97F7FF1F23A9F2
:103E8400074AB2402244410182808280011117F71F
:103E9400FF1F1307A74C4EC68329870022CC26CACE
:103EA4004AC806CE52C456C2AA842E843289638B71
:103EB40009201C5FBA8A99EB2945F2406244D24436
:103EC4004249B249224A924A056182805C5BEDD73D
:103ED4009307F01F63EAA70E97F9FF1F938909431D
:103EE40083A70902B1CB03A58A0083A7490263957E
:103EF400A70689476393F408C147E31FF4FA17F54B
:103F0400FF1F035565469147130505FC3345F5022C
:103F14009317250003A509022286CA853E959307B7
:103F2400A0052301F50023109500110597D0FF1F6C
:103F3400E780C09D014551B79305E00417F5FF1FC5
:103F44000355854297D0FF1FE780204D97F7FF1F49
:103F540023AEA73C49F98DB783A74A0303A60902F8
:103F640097F5FF1F83D545408981829783A78A00EF
:103F740017F7FF1F232EF73AADBF8D47639EF4005A
:103F8400C147E31BF4F217F5FF1F0355E53D130585
:103F940045FD9377C5FFBDBF9147639AF400E31DC8
:103FA40094F017F5FF1F0355253C2115DDB7930742
:103FB4000010E393F4F0A147E3E087F017F5FF1F47
:103FC4000355853A4115F1B79D676379F506930763
:103FD40005E01947B3C7E70217F7FF1F0357C738B0
:103FE40017FAFF1F130A8A32B387E702BE998327A1
:103FF4000A02A1CF83274A026399370703250A02DD
:1040040091461308A0059305F00F93D72600139744
:1040140027002A9703462700631F060783580700D3
:104024000346370063959806B306D64063CF8604EB
:1040340085078A072286CA853E95CDBD21677917F3
:10404400E36CA7E6B307F54041BF9305E00417F519
:10405400FF1F0355653197D0FF1FE780003C97F79A
:10406400FF1F23A5A72C59F581BD83A74A03032667
:104074000A0297F5FF1F83D5252F89814E858297E4
:1040840097F7FF1F23A6372B95BF2310B70093166E
:104094000601C1829DBFB385860017F6FF1F035634
:1040A400A62C9105130606FCE3F8C5E013063400BC
:1040B400719A1106B2962301070123109700A301F8
:1040C400D700BDB797F7FF1F938747249453BE8942
:1040D400A9C203A5090291461308A0059305F00F90
:1040E40093D72600139727002A97034627006318BF
:1040F4000605835807000346370063989800B30603
:10410400D640E3D786F22310B70093160601C18286
:10411400C1BF8357C70017F5FF1F03450525930546
:10412400E0043305F5024205418197D0FF1FE78083
:10413400C02E97F7FF1F23ABA71E41FDB5BB17F693
:10414400FF1F0356662297F5FF1F83C50522B3851B
:10415400C502338686001106E3E0C5D681BF01455A
:104164008280011106CE2EC6EF70C07B01C9B24514
:10417400F2400355250005616FB01011F240494526
:1041840005618280A38001882380018823A401869D
:1041940023A6018623A8018623AA018623A20186D9
:1041A40023A0018697F7FF1F9387C7229306403801
:1041B4002391D702F1761307400B938606B8239117
:1041C400E7002392D70211679D4613060005930565
:1041D400000A1305007D2392E7002393D702414789
:1041E4008546130810F82395E7002396E7002399E2
:1041F400E700239AE700239BE700239CE70023942E
:10420400E70223960703239007002393B700239420
:10421400B7002397C7002398C700239DA700239EB8
:104224000700239F0700239007022395D7022397B3
:1042340007021308F007239807022392E704239345
:10424400E704239FE7042390E7062391E7062392DC
:10425400E706239907031307C01C239AD702239B5D
:10426400D702239C0702239D0702239E0702239F54
:104274000702239007042391D7042394070423956A
:1042840007042396D7042397C7042398C7042399C4
:10429400A704239A0704239B0704239C0704239D54
:1042A400C704239EC7042393A706239407062395D4
:1042B4000706239607062397B7062398B70623997C
:1042C4000706239AE7065147239DE7067D57239B5C
:1042D4000706239C0706239ED706239F07062390E1
:1042E400E7088280011126CAAA84214522CC06CE81
:1042F4002E8432C636C43AC2EFE06FFB1DC9A24613
:1043040012473246930700FD2300F5009947A300A6
:1043140095002301F5002303D500A303E500231230
:10432400C500AA8522856244F240D24405616FE04B
:104334007F86F2406244D2440561828023A4A18630
:10434400828023A6A186828023A8A186828023AAB4
:10435400A1868280011122CC4AC806CE26CA2A89A7
:104364000144B30489006368B400F2406244D24457
:104374004249056182802EC6EFE0DF9D9317050157
:10438400C183A183B2452380F4009307140093F7FB
:10439400F70F850463F9B700CA9709042380A700BF
:1043A4001374F40F7DBF3E847DBFC16717F5FF1FF3
:1043B4000355A500FD176304F502411117F6FF1F0D
:1043C400034606159385818706C6EF70A033B24075
:1043D400FD5717F7FF1F2312F7FE410182808280E9
:1043E40009C925151375F50F1335850E13451500E9
:1043F40082800145828023900500C9C6797122D448
:1044040026D24ECE52CC5AC806D64AD056CA5EC61A
:104414003684328AAE892A8B814463F34407B30716
:10442400940083C70700138914004209939A070173
:1044340093DA0A011359090163840A04CA97634190
:10444400FA04B307240183CB07005E85513F0DC9ED
:104454009387FAFF2390F90063906B031305190007
:104464002295B250225492540259F249624AD24AD5
:10447400424BB24B45618280D694C204C18071BF65
:104484000145C5B701458280411126C2AE8422C4CC
:1044940097F7FF1F23AAC7F297F7FF1F23A4B7F2CA
:1044A40097F7FF1F23AEA7F02A8441469305F00F28
:1044B40026854AC006C6054997C0FF1FE780005EEF
:1044C4006310250597F7FF1F9387C7EE884BC145F7
:1044D400513541469305F00F228597C0FF1FE780B1
:1044E400E05B854463189502224497F7FF1F938786
:1044F40067ECB24092440249C847C145410199BDA5
:1045040041468145268597C0FF1FE7802059E31265
:1045140025FD4DBF41468145228597C0FF1FE78099
:10452400E057E30395FCB24022449244024941011E
:104534008280411122C426C22E84AA84130600025A
:10454400814517F5FF1F1305E5E606C697C0FF1F53
:10455400E780604297F7FF1FA38F97E497F7FF1F49
:10456400238A87FAEFB04054854719C181474945EA
:10457400B240224417F7FF1F230EF7E29244410191
:104584008280814781CD19C98547631BF50083C7A4
:10459400550093E707FCA382F50085473E8582809A
:1045A40089476317F50083C7550093F7F703E5B709
:1045B4000D478547E314E5FE03C755001377F7035A
:1045C40013670704A382E500D1BF81478DC105C1EC
:1045D40003C755009306000C85471377070C63083F
:1045E400D700930600048D476303D70089473E85AF
:1045F4008280411122C4005D06C626C21DC8AA8459
:10460400085009C597D0FF1FE78000F0485009C53E
:1046140097D0FF1FE78040EF085409C597D0FF1FCC
:10462400E78080EE228597D0FF1FE780E0ED23AC82
:104634000402B240224492444101828009ED97F77A
:10464400FF1F83C747D717F5FF1F130525D881CB55
:1046540013858185828017F5FF1F130525D7828076
:1046640017F5FF1F034525D5828097F7FF1F938712
:1046740067D4C847828097F7FF1F9387A7D3884BD7
:10468400828097F7FF1F9387E7D2DC4B88438280B1
:1046940097F7FF1F938707D2D84B1C4385071CC38A
:1046A40017F5FF1F034535D19307F00F6305F50098
:1046B40091656FE0FF858280011122CC06CE2E84A5
:1046C40032C6EF70E0369147B245631FF500938719
:1046D40041879C438DC303A30700630E0300228517
:1046E4006244F240056102839387C1869C4381C77B
:1046F40003A34700DDB7F2406244054505618280AB
:10470400011122CC2A840355450006CE26CA4AC884
:104714004EC6EF70001035C52A89834405008349CD
:10472400C500C13D4A85EF70C06B03554400EF706E
:10473400602B83C70188B1CB6399970483C5118823
:104744002685EFF01FA219E1238001880355440058
:10475400EF70002E9147631FF5000357440097F74D
:10476400FF1F83D787C56317F700FD5717F7FF1F90
:104774002315F7C4F2406244D2444249B249056168
:10478400828081499304F00F6DB79307F00FE38F94
:10479400F4FA8346640003564400034524004E871C
:1047A400A685893665B779715EC6AA8B2E8552CCEB
:1047B40056CA5AC806D622D426D24AD04ECEAE8A7B
:1047C400328B368AEF70E0047DC1045D2A89E5C02E
:1047D4009C50614599C3130540039C5481C75105FE
:1047E4004205418163050A00710542054181DC509F
:1047F40081C7590542054181EFE06FAB2A8445C961
:104804006146814597C0FF1FE780E01697F9FF1FB7
:1048140083C949BF6394090083490900930700FDD4
:104824002300F400A947A30074012301F400230327
:1048340064018C50231254011305840191C908C4E6
:104844007146930A440397C0FF1FE780200C5685E6
:104854008C5491C948C45146930A450197C0FF1F1F
:10486400E780C00A5685630C0A0008C87146D285E1
:10487400930AC50197C0FF1FE78040095685CC50B5
:1048840099C548C8594697C0FF1FE7802008A285EC
:104894004E85EFE02FB02254B2509254F249624A4E
:1048A400D24A424BB24B4A850259456199B3B25040
:1048B400225492540259F249624AD24A424BB24BB0
:1048C4004561828001114EC6AA892E854AC806CE4A
:1048D40022CC26CA2E89EF60D07321C997F4FF1F1A
:1048E40083C444B299E0834405001945EFE02F9C4A
:1048F4002A8405CD8145194697C0FF1FE780A0078C
:10490400930700FD2300F400B947A30034012301F9
:10491400F40023122401A2856244F2404249B249C0
:104924002685D24405616FE0EFA6F2406244D2448A
:104934004249B2490561828039715ECEAA8B2E85C7
:1049440026DA4ED652D456D25AD006DE22DC4AD8C3
:10495400AE84328BB68A3A8ABE8942C6EF60706BE7
:1049640021CD2A894145EFE08F942A8431C54146FF
:10497400814597C0FF1FE780000017F5FF1F03451F
:1049840065A819E103450900930700FD2300F4001D
:10499400BD472301F400B247A3007401231294001D
:1049A40023046401A304540123054401A305340131
:1049B4005CC4A285EFE00F9EF2506254D254425977
:1049C400B259225A925A025BF24B21618280797168
:1049D40026D2AA8439454AD04ECE06D622D42EC633
:1049E400B2893689EFE0AF8C21C1B2459307000D3F
:1049F4002310F500B1472A842312B5002301F500E2
:104A0400CE851905194697C0FF1FE78020F02306BD
:104A14002401A2852254B2500259F24913F5F40F2D
:104A2400925445616FE00F97B25022549254025948
:104A3400F2494561828017F7FF1F0347D797930711
:104A4400F00F630DF706411126C2AA84394522C42A
:104A540006C64AC0EFE0AF852A8439C9930700FD32
:104A64002300F500A30095002301050097F5FF1F1F
:104A74009385C5950D05194697C0FF1FE78000E98A
:104A840017F9FF1F1309099383578900A28517F5A6
:104A9400FF1F034555922315F4008347190023068D
:104AA400F4002244B2409244024941016FE08F8EE7
:104AB400B240224492440249410182808280011121
:104AC4005AC02A8B314526CA4EC652C456C206CE97
:104AD40022CC4AC8AE84B28A368ABA89EFD03FFD66
:104AE40035CD2A842685EF60D05211C50347C50011
:104AF400A1476314F70417F9FF1F0349D98B9307E0
:104B040000FD2300F4009D47A30064012301F40089
:104B14002312940023135401231444012315340154
:104B2400A2856244F240D244B249224A924A024BDC
:104B34004A85424905616FE0EF8517F9FF1F034974
:104B4400799DE31E0BFA9387C1909C439C47C5DB78
:104B5400CE865286D6852685829755B7F240624422
:104B6400D2444249B249224A924A024B05618280A8
:104B7400011122CC2A84214506CE2EC6EFD03FF364
:104B840021C1B245930700FD2300F500C547230169
:104B9400F50083C73500A301F50083D74500231230
:104BA400F50083C765002303F50083C77500AA8554
:104BB400A303F50022856244F24005616FD09FFD96
:104BC400F240624405618280397162CC2A8C594575
:104BD40026DA4AD84ED652D456D25AD05ECE06DE03
:104BE40022DCAE8432C636C4BA8B3E8BC28A468A75
:104BF4008359010403494104EFD07FEB25C93246B0
:104C0400930700FDA2462300F5009547A301C500C4
:104C1400A30085012301F5002A8419461105A9C2C0
:104C2400B68597C0FF1FE78060CE23066401230A80
:104C34002401231574012317540123184401231953
:104C44003401A2856254F2504259B259225A925AFE
:104C5400025BF24B624C2685D25421616FD09FF3E4
:104C6400814597C0FF1FE78000D1C1B7F25062545D
:104C7400D2544259B259225A925A025BF24B624CB4
:104C84002161828097E7FF1F83C7E7728DCB4111B3
:104C9400AA8519461385818506C697C0FF1FE7803C
:104CA400E0C69385818517E5FF1F0345C570EFF0C6
:104CB4005F8DB2401385818541016FA0705F01450E
:104CC400828017E7FF1F0347176F9307F00F6305F1
:104CD400F708411126C2AA84294522C406C6EFD08A
:104CE4001FDD2A8429C1930700FD2300F500A14795
:104CF4002301F500A300950097E7FF1F9387876BB7
:104D040083C72700938581851105A30FF5FE1946F6
:104D140097C0FF1FE78080BFA28517E5FF1F0345EB
:104D24009569EFD03FE717E7FF1F0347C7688D4733
:104D3400631FF700938701879C4391CB03A38700EC
:104D4400630703002244B240924441010283B2400B
:104D5400224492444101828017E7FF1F0347A7655D
:104D64008D47631AF700938701879C4389C703A380
:104D74008700E31D03FC8280797122D406D626D2F3
:104D84004AD04ECE52CC094455CD2A89035505004C
:104D94002E8A5144EF60F027AA844DC597E7FF1F80
:104DA40083C74777FD1793F7F70F05474944637B9C
:104DB400F7080347C500A1476314F70063140A0802
:104DC4009C5C4544C1E39165938545711305C0021C
:104DD40097C0FF1FE780606488DCAA894D443DC109
:104DE4001306C002814597C0FF1FE780C0B88357F0
:104DF40009009386490036852391F900714693058D
:104E0400490036C697C0FF1FE78040B0894723801A
:104E1400F90003C5C400B24603560900611597E5BD
:104E2400FF1F83C5E56E13351500EF70D0412A844A
:104E340063060A00D2852685EF70802A01C4268580
:104E4400EFF02FFB2285B250225492540259F249BA
:104E5400624A4561828097E7FF1F83C7A76BFD17EE
:104E640093F7F70F0547637AF708894741CA011199
:104E740022CC26CA4AC84EC652C406CEAA89368A4D
:104E8400B2842E89EF60F0182A84D14739C9485575
:104E940009C597C0FF1FE7802067F145268597C0A5
:104EA400FF1FE780E0B248D4CD4705CD8346C40058
:104EB40021478147639FE600630D0A000347A5016C
:104EC4000356050193062501AA854E85EF70002936
:104ED400AA8703474400630F09001367670023028E
:104EE400E400F2406244D2444249B249224A3E8537
:104EF4000561828013674700DDB7C9473E8582801C
:104F04009307F00363EBA70097E7FF1F9387874C92
:104F140006053E9503550500828041657D15828016
:104F2400011122CC2A842E8526CA06CEAE84EF60D7
:104F3400500E1DCDB7470F009387F723094563E44F
:104F4400870281450A85414697C0FF1FE780A0A2DA
:104F5400A685231081000A85418023018100A301D5
:104F64000100EF70101AF2406244D244056182805D
:104F74004945D5BF97E7FF1F238DA75882806F70DF
:104F8400B026797152CC2A8A328522D426D24AD0CC
:104F94004ECE56CA5AC85EC606D662C4AE8BB28A14
:104FA400368BBA843E89C2894684EF60900615C95F
:104FB4002A8C63140A0213774B008347450015CFEC
:104FC40093E727012302FC008DEC631C0902639A1A
:104FD400090205E8ED9B2302FC00832B8C036391FB
:104FE4000B08B250225492540259F249624AD24AEE
:104FF400424BB24B224C45618280F59B93E70701FB
:10500400D1B793E747002302FC0001CC1C4841467A
:10501400A2852324FC0213058C0197C0FF1FE7809F
:10502400E08E63930B02D5D80325CC0209C597C043
:10503400FF1FE780604DF145268597C0FF1FE7807D
:1050440020992326AC0251BFE30909F80325CC02B9
:1050540009C597C0FF1FE780204BF1454A85F1BF82
:105064009DC483A70B0299EB9165938535717145B6
:1050740097C0FF1FE780603A23A0AB0203A50B0291
:1050840019C57146A68597C0FF1FE78020886388ED
:10509400090283A74B0299EB9165938525715945C4
:1050A40097C0FF1FE780603723A2AB0203A54B0222
:1050B40019C55946CE8597C0FF1FE78020851DC4BA
:1050C40083A78B0299EB916593851571514597C020
:1050D400FF1FE780803423A4AB0203A58B0219C50C
:1050E4005146A28597C0FF1FE78040822254B250E8
:1050F4009254F249B24B224CCA865A860259424B08
:10510400D6855285D24A624A45616FF0CFE90111D2
:1051140026CA52C406CE22CC4AC84EC62A8AAE84B7
:10512400EF60206F25C5AA893945EFD05F982A849E
:1051340031CD17E9FF1F0349E92C6314090003C9A2
:1051440009009307000D2310F400AD472301F40078
:105154009385690013053400194697B0FF1FE78053
:10516400E07A93F71400858085882306F400A3066B
:10517400940023154401A2856244F240D244B2490A
:10518400224A4A85424905616FD0DFA0F240624459
:10519400D2444249B249224A0561828001114EC675
:1051A40052C456C206CE22CC26CA4AC8AA8A2E8A1D
:1051B400B289EF6000662DCD2A891305C002EFD0B5
:1051C4001F8F2A8435C597E4FF1F83C4A42399E065
:1051D400834409009307000D2310F400E9472301D9
:1051E400F4009305690013053400194697B0FF1FB6
:1051F400E780C071D285231554011305C4004146CC
:1052040097B0FF1FE7808070CE851305C401414627
:1052140097B0FF1FE780806FA2856244F240424945
:10522400B249224A924A2685D24405616FD09F969C
:10523400F2406244D2444249B249224A924A056148
:10524400828093870186884301CD411106C697C0A9
:10525400FF1FE780602BB24023A0018641018280BA
:105264008280011106CE22CC26CA4AC82EC6EF601F
:10527400405A39CDB24517E9FF1F0349A918AA843A
:105284000CD563140900034905004145EFD03F8262
:105294002A841DCD9307000D2310F500A547230193
:1052A400F50083C75400938564001105A30FF5FE30
:1052B400194697B0FF1FE78060659C54A285F240B1
:1052C4005CC46244D2444A85424905616FD09F8CD4
:1052D400F2406244D244424905618280797122D409
:1052E40006D62A842EC6EF60C05201CDB24522856F
:1052F400230EB1006C08EF60305BB250225445615C
:1053040082805145DDBF6F606067C1671387E7FF27
:105314006394E5029387C1869C4391EB494582805F
:105324004945B2402244924402494101828003A388
:105334000700E30503FE0283411122C426C24AC0CA
:1053440006C6FD172A892E84B2846395F5029387D5
:10535400C1869C4391CB9C4381CB829711E52380EA
:105364002189A380918875BFA6854A85EFE07FDFF8
:105374004DF9F5B72E85EF60C0495DD1834705002F
:105384000D45E39027FB22852244B2400249A685BD
:10539400924441016FA0406F9307F00363E2A706B4
:1053A4004111C16722C406C626C2FD172A840945D5
:1053B4006382F502C547AE846313F4022E85EFA021
:1053C400A07317E5FF1F1305E50006042A942310B4
:1053D40094000145B24022449244410182809307E3
:1053E400A0036316F4002E85EFA0806AD9BF93074B
:1053F400B003E318F4FC13F5F50FEFA0A069D1B7DF
:1054040009458280011106CE2AC6EFE0BFD7EF20FE
:105414000021EF104060EF20A104324597E7FF1F01
:10542400938747F9130700F02391E70023820700CD
:105434007D5797E7FF1F9387A70D2381E7002380FC
:10544400A700F240954505616F4090501D719397F8
:105454000501CAC886CEA2CCA6CACEC6D2C4D6C2BC
:10546400DAC05EDE62DC66DA6AD86ED6C1872E895F
:1054740063DE075817E5FF1F03458509EFD0AFE941
:105484008964416A856A797B2A84938BD4007D1A66
:10549400A50A130CABFF1DE021653345A900F640B6
:1054A4006644D6444649B649264A964A064BF25BB8
:1054B400625CD25C425DB25D2561828083470400F8
:1054C4001307200A639DE7000355240097E9FF1F93
:1054D40083C979EE2286D285EFF00F9E59A2130775
:1054E400100997E9FF1F83C9C9026398E718834726
:1054F400140015476390E7022285EFF06FA0228520
:10550400EFD00FD617E5FF1F03458500EFD0AFE0BE
:105514002A8451B73947639BE71803554400631B3A
:1055240055050C4483CC0500639D0C00850591C989
:10553400194617E5FF1F130565E997B0FF1FE780BC
:10554400E03C17E7FF1F0347E7E685476317F712B9
:10555400638A0C0097E7FF1F238E07E46685EFF04C
:105564008FCD71BF894717E7FF1F2305F7E4EFA02D
:10557400E05371B793872400631AF506832C8400E3
:10558400638D0C0E83C70C008DE383C72C0003C707
:105594001C00A207D98F17E7FF1F2311F7E283C767
:1055A4003C0017E7FF1FA307F7E017E7FF1F0347B8
:1055B40067E089476313F70C83C70C0081CB97E737
:1055C400FF1F238907DE03C50C0051BF8D4797E5F4
:1055D400FF1F83C535DE17E5FF1F035525DE17E7DB
:1055E400FF1F2309F7DCEF40B039F1BF9387540064
:1055F4006318F5001C4403C50700EFF08FEC01B7F6
:10560400B3078501C207C18311476372F704930787
:10561400ABFCAA97139707014183F14763F1E702B3
:105624009387B4006312F504938781869C43E388CF
:1056340007EC9C43A285E38407EC82971DA0B7077F
:1056440000189387F770B3D7E700858BB9CB93879E
:1056540001879C43E38507EA9C43E38207EA2285AA
:105664008297E31E05E811A89387C4006310F5022E
:105674001C4483C70700E38407E89307F00FE38023
:10568400F9E8A2854E85EFD0EFD0ADBD9387E40055
:105694006319F5009387C1869C43E38207E6DC43E4
:1056A40051BF93871404E301F5F8C1BF3D476397E5
:1056B400E70403554400E30F75FD93879401E30B5E
:1056C400F5FC93873401E31AF5FA97E7FF1F83D7B4
:1056D400C7CE639E47019387C1869C43E38107E25B
:1056E400DC43E38E07E0A28513853401B9B79387C1
:1056F40041879C43E38507E09C43E5B71307E00338
:10570400E39DE7F68347240005476397E70E834745
:105714006400938D0186F1E383A70D00D5CB83CC80
:105724000700A14903457400130D8400EA85EFE0E6
:10573400DFE983474401A303A40083580401035809
:10574400E400035744002A86034534003EC28357CD
:105754002401EA86E6853EC0CE87EFF0EFC6834794
:10576400340095E7DD47835804010358E400834679
:105774007400835544003EC2835724016A8705465A
:105784003EC06685CE87EF60403DA301A40083A799
:105794000D0081C71145EFF0DFAA03C50188E300BE
:1057A40005D683C51188EFE0DF9BE30A05D4834661
:1057B400340093071003638AF600035644004E87AF
:1057C40083C501883685EFE0FFB12380018805BBDE
:1057D40097ECFF1F83CC3CBEA9B7938701879C43FA
:1057E40097ECFF1F83CC3CBD91498DDFDC439DDBEF
:1057F4008145014582973DB72947639EE70A834760
:105804006400138D0186C9EB83270D00C9C383CCC3
:105814000700A14903457400930D84009377250084
:105824001376150089E7EE85EFE03FDA2A86834791
:105834000402A303C4008358C4010358A4010357FA
:105844004400034534003EC28357E401EE86E685F6
:105854003EC0CE87EFF04FB78347340095E7DD476E
:105864008358C4010358A40183467400835544003B
:105874003EC28357E4016E8705463EC06685CE87E7
:10588400EF60A02DA301A40083270D0019B797ECA6
:10589400FF1F83CC5CB2B5BF938701879C4397EC11
:1058A400FF1F83CC5CB19149B5D7DC43A5D78145B3
:1058B4000145829785B70947639DE70093878186F1
:1058C4009C43E38E07C2DC43E38B07C222858297A5
:1058D4003DB12D476399E700938781869C43E3801C
:1058E40007C29C47D5B70D476397E70022868D45CD
:1058F40003554400D5B619476395E706930561013E
:1059040013051031EF10F13D2C0813052031EF1071
:10591400513D03566400835781010355440063E8F5
:10592400C700835684000357610163F7E6009305BB
:105934000002EFA0601BE1B66374E6002313E400E9
:1059440063F4D7002314F4000357C4008356A4005F
:10595400035684008355640001488147EFA08018F2
:1059640079BE1D47E38BE7D031476395E700228674
:10597400B145BDBF35476399E700938781869C4352
:10598400E38F07B6DC4789B739476396E70022857A
:10599400EF00D003ADB63D476399E7009387818656
:1059A4009C43E38E07B49C4B05B741476396E700DD
:1059B4002285EF00900CA1B645476396E7000145A8
:1059C400EF00701B2DBE4947639EE7009387018754
:1059D4009C43E38407CADC43E38107CA8145054548
:1059E400829761B94D47639DE700938701879C4384
:1059F400E38507C8DC43E38207C8A2850945CDB720
:105A04006147E39CE7C62286E145DDB593F71500BF
:105A140081CF938781869C4389C7DC4399C3014521
:105A2400829713451900A5BC93F7250089CF938766
:105A340001879C4391C7DC4381C781450545829713
:105A440013452900A9BC93F745000145E38907A440
:105A5400938741869C4399CF854717E7FF1F230D02
:105A6400F794938701879C4391C7DC4381C78145A1
:105A74000545829797E7FF1F9387C793C8472C086C
:105A8400EF6090542808EFF0EF9F97E7FF1F83D74C
:105A9400879681CF130600643386C702914517E5C4
:105AA400FF1F0345E5A6EFD0EFDC13454900C5BA57
:105AB400011122CC2A84554506CE26CAEFF04FC4E4
:105AC400AA8413054002EFF0AFC32AC6130550029F
:105AD400EFF00FC3AA86228562443246F240B33502
:105AE4009000D24405616FA00006797122D406D6D5
:105AF4008D472E84631FF50003D7A50083D6850048
:105B040003D665000345340083D54500EFE03FFB31
:105B140009A889671387D7006310E50403C5250026
:105B240019E58547B25022543E85456182809387AA
:105B340001869443FDD603C6360083C5060081481A
:105B440002C202C00148814701479106EFF0CF87A6
:105B54000545EFF00FEFF1B71387E700E303E5FC2A
:105B640013873701631AE50003C525005DD9014792
:105B740081460146814559BFE507E304F5FAB1477B
:105B84006319F50017E5FF1F0345F582EFE05FFE9B
:105B940049BF41677D178147E316E5F803C7550000
:105BA400C947E310F7F883D6E50003D6C5000355CB
:105BB400840083D5A500EF90107A41C95D45EFF0CC
:105BC4002FB43335A000231CA100834544000355A2
:105BD40024003008EF50703483578101B9F36C0806
:105BE40013051031EF10F10F9305E1011305203176
:105BF400EF10310F8357C101035784006374F7001A
:105C04002314F4008357E1010357A40063F4E7006D
:105C14002315F400835784000357A4006374F7002A
:105C24002315F40003552400EFA0607C0357E4001F
:105C34008356C4000356A4008355840003552400EE
:105C440001488147EF901068E9BD8547231CF100A6
:105C5400ADBF17E7FF1F0347178C9307F00F6309C6
:105C6400F70859C5411122C426C206C6AA840345B1
:105C7400A5004105EFC0BFE32A8435C59307000D95
:105C84002310F500D9472301F50083D744002312DC
:105C9400F50083C764002303F50083C77400A303DE
:105CA400F50083C784002304F50083C79400A3048C
:105CB400F50003C6A4002305C5001DC2CC4441055C
:105CC40048C497B0FF1FE78060C4A2852244B24055
:105CD400924417E5FF1F0345158441016FC09FEBF4
:105CE40023260500DDB7B24022449244410182805C
:105CF4008280C1671387E7FF639DE5009387018670
:105D04009C4395C383C707000D47639CA7006F900E
:105D1400B05AFD1749476396F500938701869C4363
:105D2400FDF73A8582804947EDBF797122D406D6C2
:105D340026D24AD04ECE52CC56CA5AC80347050082
:105D440085472A84630AF704034685009306950071
:105D54009305E1000545EFE00FEA814719C1834748
:105D640005008346040011476380E60413874188D5
:105D740018438D46034717006308D70295C70DC71C
:105D840019ED0145B250225492540259F249624A23
:105D9400D24A424B4561828081470145D9B7854645
:105DA4006318D7028D8BF1DF03451400130A240016
:105DB400D285EFE09F81A300A40013898188832703
:105DC4000900AA8A81499304F00F99EB05455DBF48
:105DD4008946E318D7FA858BF9B7850993F9F90F42
:105DE40083C7218863FDF90203250900139B490039
:105DF4005A9583470500E38297FE83471500E39E87
:105E040057FD1946D285090597B0FF1FE78020C1C9
:105E140069D58324090003470400DA9485EC83469A
:105E240004009147E38FF6F483270900B9DB03C626
:105E3400218801479305F00FE305E6F4BE84C1070A
:105E440003C507FF630EB50A05071377F70FEDB710
:105E540088C4F5A09147631AF706C84405C583476B
:105E64008400034605006304F606034704009147D3
:105E7400631DF706C84419C597B0FF1FE780C068C3
:105E840023A604000345840091659385E571050507
:105E940097B0FF1FE780605805C50347040091478A
:105EA400631EF704C8C48347840093059400050562
:105EB400A30FF5FE0346840097B0FF1FE78000A5FB
:105EC400034584003335A00075BD884441BF930564
:105ED4009400050597B0FF1FE78060B48547E3167B
:105EE400F5F85545EFF0CF81BDA8884441DD97B062
:105EF400FF1FE780606123A4040069B788C465B705
:105F04002380D40083471400D28513852400A38002
:105F1400F400194697B0FF1FE780409F03458400B3
:105F240091659385F571050597B0FF1FE780E04EF5
:105F340005C5034704009147E31CF7F0C8C4834731
:105F44008400930594000505A30FF5FE0346840021
:105F540097B0FF1FE780809B83478400E39807E6A0
:105F6400034504007D151335150029BD797122D42C
:105F740026D24ECE52CC06D64AD056CA5AC82A8405
:105F84009309250003451500CE8593844188EFE0ED
:105F9400CFE3A300A4009C400D472A8A83C71700BF
:105FA400639BE7001389818883270900814A6391F1
:105FB4000718054535A0FDD7144C03467401930515
:105FC400E1000545EFE02FC31DC99840854683478E
:105FD400050003471700631FD7008D8BE1F70145C8
:105FE400B250225492540259F249624AD24A424B64
:105FF400456182808946858BE316D7FAC5B7834706
:10600400040011476385E7002D47E39AE7FC938476
:1060140081889C40E9D7814A01491DA88840139B87
:106024004A00834704005A95034705006311F702A9
:1060340083471500639D47011946CE85090597B02E
:10604400FF1FE780C09D01C503A904005A99850A72
:1060540093970A0103C72188C183E3E1E7FCE313B3
:1060640009F4B5BF93944A00269503470500834776
:106074000400631EF70A83471500639A470B194609
:10608400CE85090597B0FF1FE78060994DC183272E
:1060940009001147BE94834704006385E7002D4738
:1060A400639DE70203AAC4008347740103460A0000
:1060B4006308F602528597B0FF1FE780E04403456A
:1060C400740191659385E571050597B0FF1FE7801D
:1060D400C03415E5E39F04ECADA003AA8400E9B73E
:1060E4000C4C13051A0097B0FF1FE78040938547B7
:1060F400E312F5FC5545EFE0BFE069DDCDB583471C
:10610400040011476385E7002D476390E702C8C484
:10611400834774010505A30FF5FE034674010C4C77
:1061240097A0FF1FE780807E75B788C4D5B7850A1E
:1061340093970A0103C72188C18303250900E3E378
:10614400E7F283C621880327090081471306F00F6D
:1061540011A8BA844107834507FF638AC5008507F0
:10616400C207C183E3E7D7FEA9B588C499A08347D2
:106174000400CE85138524002380F4008347140093
:106184001946A380F40097A0FF1FE78020780345F9
:10619400740191659385F571050597B0FF1FE7803C
:1061A400C027E30805E0034704009147E31FF7FA1B
:1061B400C8C4834774010505A30FF5FE03467401A3
:1061C4000C4C97A0FF1FE7806074E5B317D7FF1F3F
:1061D400034777349307F00F6300F70A51CD411159
:1061E40026C2AA84514522C406C64AC0EFC03F8CC9
:1061F4002A842DCD9307000D2310F500D5472301E4
:10620400F50083C7340013898400CA85A301F5000F
:1062140083D744002312F50083C764002303F500E9
:1062240003C57400EFE06FBAA303A400CA85130585
:106234008400194697A0FF1FE780406D83C7E400E0
:10624400A28517D5FF1F0345152D2307F40083D717
:1062540004012318F40083C724012309F400224411
:10626400B2409244024941016FC0DF92B2402244DD
:106274009244024941018280828017D7FF1F03475D
:1062840097299307F00F6304F70431C1411122C425
:106294002A84194506C6EFC09F81AA850DC59307B8
:1062A400000D2310F500DD472301F500835744005A
:1062B4002244B2402312F50017D5FF1F0345B5252C
:1062C40041016FC03F8DB2402244410182808280EF
:1062D400011122CC138481881C4006CE26CA4AC8E8
:1062E4004EC652C499CF2E8AAA840149084063122B
:1062F4009902630C0A0497B0FF1FE780E02023A4EF
:106304000188F2406244D2444249B249224A0561BA
:10631400828093194900B3073501884709C997B0AA
:10632400FF1FE780601E1C40CE9723A407001C407B
:10633400CE97C84709C997B0FF1FE780E01C1C40EF
:10634400BE9923A60900050955B745DD13964400F7
:10635400814597A0FF1FE7800062144081477D5666
:1063640013F7F70FE37F97F8139747003697230047
:10637400C7008507F5B7011152C4138A41888327E2
:106384000A0006CE22CC26CA4AC84EC656C25AC0F5
:10639400C9CF2A89014419ED93878188944399CA06
:1063A40003C621882A8481479305F00F13F7F70F5A
:1063B4006367C708131534002105EFC04FEFAA84A3
:1063C40001E92145EFC0AFEEAA8421C501444D493E
:1063D400930700FD2380F4008547A38024012381D3
:1063E400F400A38184005DC41389840023A22401E2
:1063F4008149938A8188130BF00F83C7218863F343
:10640400F90031E883270A00A68503C50700EFC019
:106414006FF8814503C52188653D03250A0097B0BF
:10642400FF1FE780600E23A20188F2406244D24439
:106434004249B249224A924A024B0561828013972B
:1064440047003697034707006305B7000504137434
:10645400F40F8507A1BF83A70A0093954900BE9551
:1064640083C70500638467032300F90083C715000D
:10647400130529007D14A300F90019468905137436
:10648400F40F97A0FF1FE78060482109850993F95D
:10649400F90FA5B723A20400B5B7938741889C439D
:1064A400B1C7411122C406C62A841DE10945EFE0A3
:1064B4003FA52A8601C9854517D5FF1F0345450514
:1064C400EFC05FBB0545EFF0AFDE2A84054519C870
:1064D400854517D5FF1F0345A503EFC03FE222857D
:1064E400593D0545B24022444101828001458280E4
:1064F40089679386B7006316D5009C4503C50700DA
:1065040069BF9386C7006318D5009C45854603C5BB
:10651400070019C9F5B793861704E300D5FE9387DE
:1065240027048146E303F5FE36858280797106D619
:1065340022D426D24AD04ECE52CC56CA5AC85EC6AF
:1065440079C983473500AA8985C7404115C0594593
:10655400EFE01F9B931A850193DA8A410149138A5C
:106564004188130B000DB54B83C73900636DF900E7
:10657400B250225492540259F249624AD24A424BCE
:10658400B24B456182808307840263CD570783271A
:106594000A00ADCB2285EFF04FF92DC503458400E9
:1065A4005105EFC0CFD0AA8431CD2310650123015A
:1065B400750183470400194693052400A301F500DF
:1065C4008307840215052303F50083471400A30FF2
:1065D400F5FE97A0FF1FE7806033034684002386FF
:1065E400C4001DC61385440188C89305940097A070
:1065F400FF1FE780A03183270A00A68503C5070093
:10660400EFC04FD90509130494021379F90FA9BFF8
:1066140023A80400CDB7938741889C43B1DBA13BF9
:106624002254B25092540259F249624AD24A424B1D
:10663400B24B014545616FF0AFC7797106D622D4DC
:1066440026D24AD04ECE52CC56CA5AC85EC671C162
:1066540083473500AA8985C7444195C05945EFE071
:106664003F8A931A850193DA8A410149138A418842
:10667400130B00FDC14B83C73900636DF900B250A1
:10668400225492540259F249624AD24A424BB24BC2
:10669400456182808387F40063C8570783270A0013
:1066A400A5C75145EFC0AFC02A8439CD2300650189
:1066B400A30005002301750183C7040019469385CF
:1066C4002400A301F5008387F4001505A306F50053
:1066D40083C71400A30FF5FE97A0FF1FE7800023D4
:1066E40083C78400938594001305C400A305F400B4
:1066F400194697A0FF1FE780602183270A00A2851F
:1067040003C50700EFC00FC90509C1041379F90FC8
:106714009DB7938741889C43BDD3EFF0DFC52254D6
:10672400B25092540259F249624AD24A424BB24B95
:10673400014545616FF0CFB75D7186C6A2C4A6C29C
:10674400CAC04EDE52DC56DA5AD85ED662D466D25D
:106754006AD06ECE630C0526834735002A898DCB1B
:1067640040411DC45945EFE0AFF993178501E18716
:106774003EC6814493894188130A000DC94B054CD8
:10678400B54C130D00FDC14D8347390063E1F4029C
:10679400B640264496440649F259625AD25A425B9C
:1067A400B25B225C925C025DF24D61618280830780
:1067B400C400324763C6E71683A70900638207163D
:1067C400034B040093770B01CDCFCD47631EFB062B
:1067D400230004002285EFF06FF963030514834757
:1067E400040011476363F7146399870D5145EFC0A3
:1067F4000FACAA8A630605122300A501A3000500B5
:106804002301B50103470400194693052400A3019D
:10681400E5000307C4001505A306E50003471400BB
:10682400A30FE5FE97A0FF1FE780400E0347040176
:10683400194693051401A385EA001385CA0097A09D
:10684400FF1FE780A00CF1A0D5476318FB00854724
:106854002300F400A30B0400B5BFF547E309FBFED6
:10686400C9476316FB0089472300F400A5B7C14755
:106874006314FB008D47CDBFED47E31DFBF4914747
:10688400E5B793778B0099C3AD47F9BF93761B00A7
:1068940093774B0091C699C395475DBFA147E9B76C
:1068A40093762B0091C699C3A5475DB799476DBFF1
:1068B40099C3A94755BF9D4745BF03457401510579
:1068C400EFC0EF9EAA8A29CD23104501230195012B
:1068D40003470400194693052400A301E5000307B8
:1068E400C40015052303E50003471400A30FE5FEC8
:1068F40097A0FF1FE7808001034674012386CA0026
:1069040019C613854A0123A8AA000C4C0DBF23A85D
:106914000A0003A70900D68503450700EFC08FA727
:106924008504710493F4F40F85B5034574011305CC
:106934000502EFC0CF97AA8A65D52310450123012C
:1069440075018346040013770B061946558FA3017E
:10695400E50003471400930524001505A30FE5FE85
:1069640097A0FF1FE78080FA034784001946930528
:106974001401A385EA000347940013853A01238692
:10698400EA000347A400A386EA000347B400238770
:10699400EA000307C400A387EA000357E40023982E
:1069A400EA00034704012389EA0097A0FF1FE78058
:1069B400E0F503467401A38CCA0011C613850A02CC
:1069C40023AEAA0099B723AE0A00A1B793874188E2
:1069D4009C43E38F07DAEFF01F9A2644B6409644AF
:1069E4000649F259625AD25A425BB25B225C925C0B
:1069F400025DF24D014561616FF08F8B97D7FF1FE8
:106A040083C747B1A18B17D5FF1F130525A691E3B3
:106A140001456FD01F9323810188FD5717D7FF1FAE
:106A2400A30BF7AE23A4018823A2018897D7FF1FE5
:106A3400938787A2170700001307C7AB98C31707EC
:106A440000001307E7AED8C317070000130727BFDA
:106A540098C717070000130767CED8C717F7FFFFBB
:106A64001307671F98CB97D7FF1F938727A017F7A4
:106A7400FFFF1307472898C317F7FFFF13072707DC
:106A8400D8C38280411122C485452A8403C5218844
:106A940006C6EFF0FF8397D7FF1F83C7A7A7A98B6D
:106AA400B5CB17D5FF1F1305259B23818188EFD014
:106AB400FF88138481881C4091C74D45B24022440D
:106AC4004101828003C5218819E10145C5BF916553
:106AD4009385B571120597B0FF1FE780009423A436
:106AE400A18861DD03C621881206814597A0FF1F96
:106AF400E78060E8104083C621888147FD5513F77D
:106B0400F70FE374D7FC1397470032972300B700BD
:106B14008507F5B7014523810188EFD03F8275B71A
:106B240093874186884301CD411106C697B0FF1F64
:106B3400E780809DB24023A2018641018280828049
:106B440001111305700306CEEFE08FBB2AC61305AF
:106B54008003EFE0EFBA2AC413059003EFE04FBAC5
:106B64002246B245F240AA86054505616F80F07C55
:106B74005D711305D00386C6A2C4A6C2CAC0EFE0E5
:106B84002FB82A841305C003EFE08FB7AA84130536
:106B9400E003EFE0EFB62A891305F003EFE04FB608
:106BA4008A871377F50F9376F90F13F6F40F93751D
:106BB400F40F0545EF807079B640264496440649A3
:106BC400616182805971A2D4138441861C4086D6A7
:106BD400A6D2CAD0CECED2CCD6CADAC80545F9C719
:106BE4009305F1041305F041EFF0F01C9305F10453
:106BF4001305F041EFF0301C8346F10417C7FF1F63
:106C04000347677BB337E00091C2890718403EDE33
:106C14000345370093054700EFD0BF9618402ADCA0
:106C24000D45834527002EDAEFE08FAD2AD81145B4
:106C3400EFE00FAD00402AD665450347A400034B9F
:106C4400B4003AD4EFE0CFABAA846945EFE04FAB90
:106C54002A897145EFE0CFAAAA896D45EFE04FAAD2
:106C64002A8A7545EFE0CFA9AA8A7945EFE04FA9B2
:106C7400E2046258F2572257B2564256D25513755F
:106C8400F50F93FAFA0F137AFA0F93F9F90F1379B0
:106C9400F90FE1842ACC56CA52C84EC64AC426C249
:106CA4005AC0930844000545EF809065B6502654B9
:106CB40096540659F649664AD64A464B656182801F
:106CC400011122CC06CE8D472E846316F50603C728
:106CD4003500E94703D545006318F70097C7FF1F40
:106CE40083D7A76D6385A706EF40B03209C58357E4
:106CF40064002317F5000357A40083568400035649
:106D040064008355440003453400EFD05FDB035730
:106D1400440097C7FF1F83D7476A6308F700854776
:106D2400F24062443E8505618280FD5717C7FF1F0C
:106D34002315F768EDB78967CD07631DF50083C791
:106D4400250031476385E7004547E39AE7FCEFD028
:106D5400CFE5F1B7B1476319F50017C5FF1F034528
:106D6400757BEFD0FFE065BF41677D178147E3196D
:106D7400E5FA83C655004947E394E6FA83C545001E
:106D840003552400300023140100EF40F01341BFE9
:106D9400411122C406C626C283C7C1881307E00F67
:106DA4002E846383E7041307F00F6387E70211451A
:106DB400EFB0FFCF15C1930700FD2300F50089470D
:106DC4002301F5008547A3008500A301F500AA85EA
:106DD40003C5C188EFB01FDCF9572386F188B240A0
:106DE4002244924441018280AA841145EFB03FCCF1
:106DF4007DD5930700FD2300F5008947A300850096
:106E04002301F500A30195002244B2409244AA85CF
:106E140003C5D18841016FB0FFD779714AD0138976
:106E240041868327090022D406D626D24ECE52CCE0
:106E34004544C5EF97C7FF1F83C7C76D958B49446A
:106E4400CDC7AE899165A386A188AA8493857571FF
:106E5400314597A0FF1FE780405C23A2A1864D44E3
:106E640049C523009500A30005002946CE850905E0
:106E740097A0FF1FE78080A983270900914603C7D5
:106E8400270063EEE6083DEB4D472381E70003C787
:106E94002700136707012381E70093057100130599
:106EA400F041EFF0407183477100F9EB17C7FF1F02
:106EB400034767508D476315F70CEFD00FFB2C0089
:106EC400EF5090102800EFD0FFDB4545EFE04F83F3
:106ED400014401CD130600643306C502914517C56C
:106EE400FF1F0345E562EFC0EF982285B25022549C
:106EF40092540259F249624A45618280854663147C
:106F0400D700754759B789466314D7004947B5BFB9
:106F14008D466314D70041478DBF5547BDB795468D
:106F24004A8A630ED70099466316D700094723811E
:106F3400E70031A01D466314C7022381070065459D
:106F4400EFD01FFC9307F007E309F5F403270A00C9
:106F54008347270093E707042301F7003DBF214639
:106F64006314C7000547E1B725466315C7002381AD
:106F7400D700F1B7A9460544E319D7F6114745BF31
:106F8400EFF05FC42A8435D1EFF09FB9B9BF011186
:106F940026CA938441869C4022CC06CE4944A9C784
:106FA40083C707000D446391A704894517C5FF1FD4
:106FB40003450556EFC08FB4914517C5FF1F034520
:106FC400255523980188EFC06FB39C400147814643
:106FD400A38087001306F100854785450145A30773
:106FE400F100EF8050352A842285F2406244D24475
:106FF40005618280011106CE22CC26CA8547631919
:10700400F50683D70189B1CB17C7FF1F0347C73ADA
:1070140029E71307B003636DF702894517C5FF1FFE
:107024000345054FEFC08FAD9307006403D6018974
:107034003306F602894517C5FF1F0345654DEFC0AA
:107044006F8323980188F2406244D24405618280B0
:10705400938747FC2398F188FDB7938741869C4327
:10706400FDD36244F240D24403C50700056105B76D
:10707400938441869C40E1DB97C7FF1F83C7874900
:10708400918BF1D389476313F5062D452EC6EFB0D6
:107094001FA22A844DD9B245930700FD2300F500B1
:1070A400E547A30005002301F50083C73500150556
:1070B4001946230FF5FE83C745009505A30FF5FE7A
:1070C40097A0FF1FE780808417C5FF1F03459544E1
:1070D4009307F00F6315F5009C4003C50700A285D4
:1070E4006244F240D24405616FB0DFAA894517C5F6
:1070F400FF1F0345E541EFC06FA06244F240D24454
:107104002398018805616FF0BFA197C7FF1F83C74C
:107114006740958B91CB9387C1899C4381CB8547ED
:107124002389F1886FF0DFA149458280414582803F
:1071340023890188854501456F80B02097C7FF1FCB
:1071440083C7473D958B91C785472387F1886FF0A7
:107154003FA24945828023870188814505456F8088
:10716400101F97C7FF1F83C7E73A958B63840712E5
:107174009307C01C63FCC70009458280F240624447
:10718400D2444249B24909450561828093874186C8
:107194009C436381071003C7C1889307E00F631BF7
:1071A400F70E01112386A1881305860022CC4AC854
:1071B400420506CE26CA4EC6368932844181B5C5FB
:1071C40091659385657197A0FF1FE7800025AA89C3
:1071D40055D593848189884009C597A0FF1FE7800E
:1071E400A0321385890023A0A9002286814523ACFF
:1071F40031899790FF1FE78000789C402286CA85DA
:1072040088439790FF1FE78060709C40A286F240FD
:10721400239287006244D2444249B24998430546C6
:107224008D45054505616F80901091659385557175
:1072340097A0FF1FE780601EAA8929D19384018A41
:10724400884009C597A0FF1FE780002C138589009B
:1072540023A0A9002286814523A0318B9790FF1F8C
:10726400E78060719C402286CA8588439790FF1FFF
:10727400E780C0699C40A286F24023928700624462
:10728400D2444249B249984305468D4505450561B6
:107294006F80300A494582809307C01C63FCA700B5
:1072A400094582800945F2406244D2444249B249C8
:1072B400056182805DC5011122CC2A8421054EC658
:1072C4004205AE8991659385657141814AC806CEB0
:1072D40026CA97A0FF1FE78040142A8961D59384AA
:1072E4008189884009C597A0FF1FE780E021130525
:1072F40089002320A9002286814523AC2189979007
:10730400FF1FE78040679C402286CE858843979084
:10731400FF1FE780A05F9C402392870093874186EC
:107324009C4385CF97C7FF1F83C7C71E958B85CB0B
:10733400938781899C4399CF984383D647006244BD
:10734400F240D2444249B24905468D45054505619E
:107354006F80E07D01478146DDB70145A9B7494506
:1073640099B7938741869C438DC797C7FF1F83C7EF
:10737400671A958B8DC3938781899C4381CB9843EE
:1073840083D6470005468D450545D9B70147814653
:10739400D5BF01458280494582809307C01C63FCA8
:1073A400A700094582800945F2406244D24442491B
:1073B400B249056182805DC5011122CC2A84210570
:1073C4004EC64205AE8991659385557141814AC87F
:1073D40006CE26CA97A0FF1FE78020042A8961D51C
:1073E4009384018A884009C597A0FF1FE780C011D4
:1073F400130589002320A9002286814523A0218B1F
:107404009790FF1FE78020579C402286CE858843B3
:107414009790FF1FE780804F9C40239287009387BB
:1074240041869C4385CF97C7FF1F83C7A70E958BC3
:1074340085CB9387018A9C4399CF984383D6470091
:107444006244F240D2444249B24905468D4505455D
:1074540005616F80006E01478146DDB70145A9B71C
:10746400494599B7938741869C438DC797C7FF1FAA
:1074740083C7470A958B8DC39387018A9C4381CB2D
:10748400984383D6470005468D450545D9B701473E
:107494008146D5BF01458280494582809307C01C3F
:1074A40063F4A70009458280797122D44ECE06D6B2
:1074B40026D24AD0AE892A8431CD21059165420570
:1074C40093857571418197A0FF1FE78000F52A8994
:1074D4000945630109089384C189884009C597A0B7
:1074E400FF1FE7806002130589002320A90022867C
:1074F400814523AE21899790FF1FE780C0479C40B8
:107504002286CE8588439790FF1FE78020409C40C9
:1075140023928700938741869C43014585CF97C773
:10752400FF1F83C727FF958B49458DC76C00130543
:10753400D030EFF0107BB247014593F7070F99CB9A
:107544009387C1899C438D450545944303D64700E1
:10755400EF80E05EB250225492540259F2494561E0
:107564008280938781899C4391CF03D647008C43C3
:10757400411106C69790FF1FE7804039B24001458C
:107584004101828009458280938781899C4385C714
:107594009387018A9843894705C3035647000C43E0
:1075A400411106C69790FF1FE7804036B2408147DD
:1075B4003E854101828089473E8582809387818907
:1075C4009C4385C79387C1899843894705C303565C
:1075D40047000C43411106C69790FF1FE780003314
:1075E400B24081473E854101828089473E85828041
:1075F40097C7FF1F83C707F2918B99CF411113855A
:10760400418906C6EFC0BFD4B240FD5717C7FF1F5C
:107614002315F7DA4101828001456FC05FD3FD571E
:10762400A386F188F9572386F18823890188238763
:1076340001882398018823AC018823A0018A23AE02
:10764400018897C7FF1F9387E7C517070000130733
:10765400272198C3170700001307079AD8C317F701
:10766400FFFF1307675698C717F7FFFF1307874DE8
:10767400D8C717F7FFFF1307E74F98CB97F7FFFF1C
:107684009387476423AAF1888280411126C2938498
:1076940041869C4006C622C485CF2A840D45EFB09E
:1076A4000FC1AA8519CD930700FD2300F5008D476E
:1076B400A30085002301F5009C4003C50700EFB03B
:1076C4006FCD19C42244B240924441016FF04FC5BA
:1076D400B240224492444101828079714ECE938912
:1076E400418683A7090026D206D622D44AD052CC9A
:1076F4008144A1C783C4170085472A896388F40499
:1077040097C7FF1F83C747CB854485EB0D45EFB073
:107714000FBAAA8505C1930700FD2300F500914720
:10772400A30025012301F50083A7090003C5070071
:10773400EFB04FC6EFF0CFBE8544B2502254268539
:1077440002599254F249624A456182809387818941
:107754009C434E8A85E30145EFD08FFA2A8601CAFD
:10776400894517C5FF1F0345A5DAEFB0BF908327EE
:107774000A00B1A0944303D647009305E1000545F0
:10778400EFC07FC769D983470500858BE9D70545D5
:10779400EFD00FF79307B0032A8463F2A7045D6662
:1077A40013060670894517C5FF1F034565D61304E4
:1077B40044FCEFB09FAD2398818883A70900094753
:1077C400A380E70097C7FF1F83C707BF91C797C769
:1077D400FF1F238307BE95B74A85453DB9BF1306EE
:1077E40000643306C502A5BF411122C42A840D4595
:1077F40006C6EFB0CFAB15C1930700FD2300F5001B
:10780400CD47A30085002301F5002244B240AA8598
:1078140003C5D18841016FB0EFB7B24022444101A2
:107824008280411122C42A840D4506C6EFB02FA8D8
:1078340015C1930700FD2300F500ED47A300850063
:107844002301F5002244B240AA8503C5D188410131
:107854006FB04FB4B24022444101828003574500C7
:107864000111896606CE22CC26CA13866600AA8731
:107874006317C7009C47014583C5070009A8138601
:107884008600631AC7009C47054583C50700EFF0CF
:107894002FD005453DA8138696006313C7021387AE
:1078A40041861843014515C79C4703C50700631B60
:1078B400050C8547A300F7000545EF80A01FD1BF45
:1078C4001386A600631CC7009C4703C50700EFF09E
:1078D400DFE0F2406244D24405618280138666038D
:1078E400E30AC7F813867603E30FC7F81386860303
:1078F400631DC7081C451307E00F83C4070083C733
:10790400C188638EE7021307F00F6386E70211450F
:10791400EFB0EF99AA8505C1930700FD2300F50098
:107924008947A30095002301F500A301050003C5C1
:10793400C188EFB02FA6F9572386F18899BF9387A2
:10794400418698433E84014549D785EC85447D456D
:1079540023059100EFD0CFDA2316A100130500020E
:10796400EFD00FDA1C40A305A1001307B100A380D8
:10797400970074001306A10085450545EF80A01B00
:1079840009BF2685EFF07FD029B713869603E30D50
:10799400C7F21386E6036317C7001C45094583C570
:1079A4000700F5B59386F603631DD7021C4503C58E
:1079B40007003DE96C001305D030EFF09032B24778
:1079C400414793F7070FE386E7EC9305B1001305EE
:1079D4006031EFF010310345B1008545EF8060164A
:1079E4004DBD8966138606046313C7041C4503C48E
:1079F400070083C72189228585EB0D45EFB02F8BC6
:107A0400AA85E30805E8930700FD2300F500D147A4
:107A14002301F500A3008500938741869C4303C599
:107A24000700EFB02F97B5B5EFF01FDC9DB51386B7
:107A34001605631BC7001C4503C5070021E58545E2
:107A44000545EF80C010B1B5938626050145E312C4
:107A5400D7E89C4703C4070083C7E18822859DE3D8
:107A64000D45EFB0CF84AA85E30505E2930700FD39
:107A74002300F500F147A30085002301F50003C5A9
:107A8400D18845B7EFF0FFD929B5411197C7FF1F3A
:107A940083C747A806C6958B99CB17C5FF1F130547
:107AA4006580EFC07F8A4D45B24041018280014527
:107AB400EFC09F890145CDBF0145828097C6FF1F56
:107AC40083C696A5814763E5D70001473A8582803E
:107AD4002E87910503D6C5FFE30AA6FE8507E5B701
:107AE4000DCD834725000547890793F7F70F637684
:107AF400F702411122C406C62A84835505000345B2
:107B040035000147F9465D46EF007175F9572311B9
:107B1400F400B240224441018280828017C7FF1FD3
:107B24000347979F8147FD5663E3E7008280231054
:107B3400D5002301050085071105FDB701458280A5
:107B44009385B1819307000285462380F500FD5794
:107B5400238DF180A386F1802386F180239CD1803C
:107B64002392018A23A6018A23AE018A23A8018ACB
:107B740013860181977701009387C7CD5CC2238365
:107B8400018A97A7FF1F9387A7C609472300E6002A
:107B94002380E7002388E7002380E7022388E702A5
:107BA40017770100130747CAD8DB0D47238CE70278
:107BB4001387818A18432384D700D0C7238CD70026
:107BC40017750100130585C917760100130686C7CA
:107BD40097760100938606C9C8C323950700D0CBC6
:107BE400239D0700CCCFD4D3238407022395070217
:107BF40023A60702239D0702D8DF97A7FF1F9387B9
:107C040027C3170700001307270C23A00700D8C3B6
:107C140023A407008280411106C64D3511C50345D2
:107C24002500B240410182800145E5BF411122C4D3
:107C340026C24AC006C6AA842E893284EFF01FE801
:107C440011E94165CA857D15EFF05FE7C54711C5A8
:107C540023109500230185008147B24022449244B9
:107C640002493E854101828039E389483547639161
:107C74001605011106CE22CC26CA03471600034678
:107C8400060093C7F7FF2207598EF18F32C69DE392
:107C9400C4452A84A685413732460147630EA600AF
:107CA40022856244F240A685D244056141B72D473E
:107CB4003A85828013070008F2406244D2443A8530
:107CC4000561828083C8050009486394080303A8FA
:107CD40045008347180003480800A207B3E70701DB
:107CE400C2070D68C1871308289063940701894768
:107CF400A5BF0545828003C7D1809307F00F630AAF
:107D0400F70441114AC02A89294522C426C206C65D
:107D14003284AE84EFA0BFD91DC59307100B231086
:107D2400F5002302050023148500224423112501B4
:107D340023139500B24092440249AA8503C5D18019
:107D440041016FA03FE5B2402244924402494101FF
:107D54008280828041119387818A26C2AE848C43BB
:107D640022C406C62A84453D098909C922852244BC
:107D7400B240A685924441016F00917CB2402244F6
:107D84009244054541018280411122C426C24AC061
:107D940006C6AA84130445001309850B83570400FF
:107DA4009DC3084409C59790FF1FE780E0752285AD
:107DB400314681459790FF1FE780E0BB3104231AC9
:107DC40004FEE31D24FDB2402244FD572390F40039
:107DD40002499244410182809387418B984317B6AC
:107DE400FF1F0346767381476315F6008146368587
:107DF4008280BA861307870B835587F4E389A5FE2F
:107E0400850793F7F70FCDB79387C18B9C4399C729
:107E140003D74700E31CA7FE884782800145828080
:107E2400411106C6D53709C50845B24041018280D3
:107E34000145E5BF011126CA9384450022CC4EC6F4
:107E440006CE4AC852C456C25AC026878149014444
:107E5400814681473D450356070055CED9E2035478
:107E6400470083572700B286A297C207C1838509BA
:107E74003107E392A9FE25C82E8991659385457043
:107E840022859790FF1FE78040592A8B29CD814A8C
:107E9400014A8C4485C503D6440033054B019790B1
:107EA400FF1FE780A0A683D7440088443E9A420A75
:107EB400135A0A019790FF1FE780006563890A003F
:107EC4003146814526859790FF1FE780C0AA850A21
:107ED400B104E3E03AFD2326690123148900054532
:107EE40021A0630DD6000145F2406244D2444249C8
:107EF400B249224A924A024B056182800356270006
:107F0400E313F6FE035647003294B2974204C207C5
:107F14004180C183A9BF0545E37835FDA9BF938797
:107F2400018B9C4399E30145828098470357A7003E
:107F3400E319A7FE138547008280411106C6C537A1
:107F440011C503550500B240410182800145E5BFDA
:107F5400411106C6E93711C503452500B240410168
:107F640082804145E5BF411122C42A842E8506C67C
:107F7400C537AA8505462285EF30F00C9547630581
:107F8400F500BD476313F5002145B2402244410189
:107F94008280411122C42A84090506C6EF00513AA1
:107FA400FD57A301F400B24022444101828093872B
:107FB400818B9C4317B7FF1F034717562A86050773
:107FC40081463E8583D707006388C70085069307EB
:107FD4006500E3E8E6FE01458280411122C4416464
:107FE40006C626C29307E4FF630CF500AA8491ED4C
:107FF4007D3F19E51305F4FF5D3F19C1231095007A
:10800400B240224492444101828085476392F50440
:10801400793F2A8475D5FD572310F5008347240042
:108024001307F00F6383E7021307E00F638AE70087
:10803400034534000147F9465146A685EF00312235
:108044002285813FFD572301F400230204004DBF24
:108054008947E397F5FA8545EF30101F55F12685DA
:10806400B9372A8445FD69BF5D71A6C24EDE86C656
:10807400A2C4CAC052DC56DA5AD8AE8483C52500DD
:10808400F947AA896395F5041D372A8409ED01444B
:108094002285B640264496440649F259625AD25A79
:1080A400425B61618280834725000547890793F716
:1080B400F70FE37EF7FC034535000147F946014617
:1080C400CE85EF00D1192285EFF0BFECC9B783AAA2
:1080D4000400B7070001938707F037071200B3F7CE
:1080E400FA0013070710328A0149638AE7022EC691
:1080F400EFF0FFEB2A89B2451DC10346450005C2D6
:1081040093178601E187E3C407F84E85EF00711DDC
:108114008347490093E707F82302F9008DBF03C79B
:10812400A1819307F00F1944E304F7F6E147E3E173
:10813400B7F693D71500FD178E07176701001307CD
:108144006709BA9703A80700E30408F403AB4700E0
:10815400E3000BF4C20A93DA0A0163850A00C947F3
:10816400E398F5F283D64400904483C5140003C514
:108174000400380802982A8401FD2C084E85029BCD
:108184002A8421C983C71400E39407F083C7240019
:10819400230AA10039472308F1006399E7026247E3
:1081A4008347170003470700A207D98F0C084E85A1
:1081B4002319F100EFF0703DE30B05EC14080546BC
:1081C400D9454E85EF00F11D2A84D9B58357810125
:1081D400F1BF83C624009147E38BF6EA38080146D1
:1081E400CE8503C5A181EF0091072A84E31205EA35
:1081F40083C524002808EF00A17E19C123000A00CA
:108204009840B7070001938707F07D8FB7071200E6
:1082140093870710E30DF7E6E30B09E683C7240011
:108224002302F900B5B5011106CE2EC6EFF03FD8F2
:1082340001CD83474500B245138717006396E500D7
:1082440093F707F82302F500F240056182809387D3
:10825400018B984319E3014615A81C4703D8A700CE
:10826400636B050183584700B38608016355D50045
:108274008146639416011843F1BF3E86C10703D3B8
:10828400A7FF6317A30099C123900501328582805B
:108294008506C206C182F1BF397152D42E8A4ED6E8
:1082A4009305E101AA89528522DC4AD856D206DE1A
:1082B40026DA328936C63AC4BE8A513F054435C5EA
:1082C400AA840355E1013944EFF01FB439CD0328E2
:1082D4004500630C08042247B246D6874A86A68521
:1082E4004E8502982A8431E19307E00F638FFA02E6
:1082F40003C704008947631AF702D840834717006D
:1083040003470700A207D98FC2070D67C187130768
:108314002790639CE7008347190003460900D28530
:10832400A2075D8E4E85EFF01F9D2285F2506254A8
:10833400D2544259B259225A925A21618280797197
:1083440022D4035425004ECEAA89228556CA06D6C5
:1083540026D24AD052CC5AC85EC662C4AE8AEFF066
:10836400BFA701E92285EFF0F072594429E90144DD
:10837400B9A003C789008547AA840144631AF70298
:10838400AA8513858900EFF0FFAA29CD03D76400DD
:1083940083D68400D04483D5440003D52900E14723
:1083A400EFF09FEFD9472A846318F50223A604004F
:1083B4002685EFF07F9D49C0D947E30AF4FA228568
:1083C400B250225492540259F249624AD24A424B60
:1083D400B24B224C4561828061DD83D744002390F7
:1083E400FA00F9B713894400014AB94B594C3D4B83
:1083F40083550900D5DDE14763067A010357C900B7
:1084040011C3D9470357290083564900032689001D
:1084140003D52900EFF05FE82A846319850123243A
:108424000900050A3109E3156AFD59B77DD9835757
:1084340009002390FA00F5B703D529002DB7797107
:1084440022D42A840355850026D2AE8493052101C3
:1084540006D64AD0EFF0BFDF6308050E83478500D8
:108464002AC693F707028DCF03552101EFF05F9BD6
:10847400AA87B24501ED8357840039452390F4005F
:10848400B25022549254025945618280035524000B
:108494004946829711C5835784002390F400CDB7D1
:1084A400035924004A85EFF03F9311ED41657D1592
:1084B400EFF09F9219E58357840025452390F4003B
:1084C400C1B723102501130745008147BD46035654
:1084D40007002DE63147B387E702130984003146CC
:1084E400CA8591073E959780FF1FE7802042314659
:1084F400CA8548089780FF1FE78040410356C4009F
:108504000355240041478146DD45EF00E1742ACE3E
:1085140019E58357840045452390F40095B70C482A
:108524000356C4009780FF1FE780403E0355240094
:108534004C08EFF0F05129D5594599B78507310713
:10854400E397D7F8254581BF0545B1B7797122D4A2
:108554002A840355850026D2AE849305E1014AD0CE
:1085640006D63289EFF0BFCE51C58347850093F715
:108574000702A9E7034714019307200519E383477A
:1085840044008356A40050448355840003552400BA
:108594000147EFF07FD0AA8721E98347140199E7C7
:1085A40003552400EFF0F045D94711E18147B2505B
:1085B4002254925402593E85456182802AC603554D
:1085C400E101EFF0FF85AA8705C9B24503552400F0
:1085D40049468297AA8759DD035784002390E40013
:1085E4000347140161F7E1B75947E317E5FE230098
:1085F40009006DBF8547CDB7B947F9BF397122DC92
:108604004AD84ED652D406DE26DAAA892E8A32C633
:108614003689EFF0DF99094415C583472500130710
:10862400E00FAA845D44638FE7001307F00F5944F9
:10863400639AE700324605E2D2854E85EFF0504654
:108644002A8415CD2285F2506254D2544259B2592B
:10865400225A2161828003550A009305E101231FF8
:108664000100EFF0DFBE0355E101EFF07F8EAA8534
:1086740005464E85EF30201D2A845DDDE1B7930762
:10868400F00FE301F9FC938624007946A68517F5DB
:10869400FFFF13052545EF00E149A38124015DB7E0
:1086A40039719387018B26DA844352D45AD05ECE33
:1086B40062CC06DE22DC4AD84ED656D266CA2A8B53
:1086C400AE8B328C368A99E08149B9A0804483DC30
:1086D40044000149835AA400631499018440E5B716
:1086E4008357A400A28963F8670105094209135955
:1086F40009014104D5B7E3EAFBFE630C0A00834594
:1087040004004840D28662863AC6EFF020423247DF
:1087140069DD19C323105701F25062544E85D254B7
:108724004259B259225A925A025BF24B624CD24CD1
:108734002161828003D7050083D62500854763E93C
:10874400E60439C7411183C6450026C29384550007
:1087540022C426862E841765010013052510894539
:1087640006C6EFF0A03CC14711CD834644008355B3
:1087740024000355040001472686EFF07FF2814769
:1087840011E1A947B240224492443E8541018280CE
:108794003E8582802E860355060083D525008547B5
:1087A40063E2A50205C1834646004111014715064F
:1087B40006C6EFF0FFEE814711E1A947B2403E85BE
:1087C400410182803E8582802E860355060083D532
:1087D4002500854763E2A50205C183464600411191
:1087E4000147150606C6EFF0BFEB814711E1A94723
:1087F400B2403E85410182803E85828039714ED6E9
:1088040083D7250083D9050006DE22DC26DA4AD880
:1088140052D456D25AD05ECE62CC66CA6AC863E0DD
:1088240037198547638E0914416BAE8A2A8A23144B
:10883400010002C6014401497D1B894B054CC94C0A
:10884400054D83D52A000147814601464E852313F1
:108854000100EFF0FFE4AA846300051209EC13079A
:108864002002930661005A8695455285EF00C13E69
:108874002A84630805120357810083C7040045C78F
:108884000347A100630CA70741476385E7022C0057
:108894005285EFF0E06409CD34001546D945528580
:1088A400EF00213011C532459790FF1FE780C0C506
:1088B4008147F9A083D7A40041461305240023006F
:1088C400F40083D7A400A183A300F400CC409780D4
:1088D400FF1FE780A0034904835781008507C2076F
:1088E400C1832314F10063F9270983D7A4006385A6
:1088F40067098509C20993D90901A1B7E39977F9F1
:1089040083D7A4000946130524002300F40083D769
:10891400A400A183A300F400CC409780FF1FE7804C
:10892400E0FE110455BF22C60359610003C7A40029
:1089340013052400638277033359990323057101D6
:108944002300E40083D7A4004146A183A300F400DC
:10895400CC401379F90FA5BF230581012300E4005E
:1089640083D7A400135929001379F90FA183A30015
:10897400F4000946CC4055B78357810089FBA947C9
:10898400F2506254D2544259B259225A925A025B5A
:10899400F24B624CD24C424D3E8521618280854728
:1089A400C5B7C547F1BF13F7050201C7B2856FF01C
:1089B4008FDB411126C24AC006C622C413F98500C2
:1089C400AA8463170900139785016187635D070211
:1089D40032853684EFF0CFD7AA85054663130900A4
:1089E40001462685EF20306601E90145B240224464
:1089F400924402494101828083479400E5DB834726
:108A04008400E5F7E5B793F72500E5F30D45F9BFD5
:108A14007971AE8622D42A8403D506009305E10138
:108A240006D636C6EFF0BF8209CD83458500B2462F
:108A34000356E1012285EFF01FF7B250225445613D
:108A440082800545DDBF13F7050201C7B2856FF0CB
:108A54008FD1411122C426C206C693F485002A840C
:108A640091E4139785016187635007023285EFF023
:108A74002FCEAA85054691E0014622852244B240C4
:108A8400924441016F20305C93F72500014591E346
:108A94000D45B24022449244410182807971AE86F0
:108AA40022D42A8403D506009305E10136C606D6EE
:108AB400EFF0EFF9B24601CD834585000356E1019D
:108AC4002285EFF05FF8B25022544561828005455B
:108AD400DDBF797126D2AA840355A500C16722D4CB
:108AE4004AD04ECE06D623170100FD173284B6892C
:108AF4000149630DF500050583C60400D040420515
:108B04001307E1004181EFF0BFB92A8983C604004D
:108B1400D040894517650100130545D4EFF00001E5
:108B24001DC503D4A4002285EFF02FC109C57D140F
:108B34002A94420441806384090023908900B2503E
:108B440022544A8592540259F2494561828083C66F
:108B54000400D040894517650100130565D0EFE096
:108B6400F07C61F183C60400D0408945176501009B
:108B7400130545CDEFE0907B19C9E30609FA835745
:108B8400E100E39287FA0354A9007D145DB703D48E
:108B9400A40055B7397122DC26DA4AD84ED652D40D
:108BA40056D25AD062CC06DE5ECEBE8983C785001B
:108BB4002A8AAE84C18B328C36843A89C28A468B27
:108BC4009DE783CB04008947638BFB046285EFF048
:108BD400AFA31DC183280500638008025A88D68785
:108BE4004E87CA862286A6855285829839A0328508
:108BF400EFF00FA3AA8711ED3945F2506254D25415
:108C04004259B259225A925A025BF24B624C216188
:108C140082802946A6855285829745D5F9BFD840DA
:108C24008347170003470700A207D98FC2070D67C0
:108C3400C187930607906384D72263CEF606930612
:108C44002780638ED70C63C1F60213070780E3CF36
:108C5400E7F62D45E39309FADC4403C60700CC4349
:108C64002310C900228569A213073780E390E7F631
:108C74002D45E39409F885472310F900DC44814528
:108C840083C707002300F40003D5A40005054205AB
:108C94004181EFF0CFDB8357090063170512910779
:108CA4002310F90011468145130514009780FF1F16
:108CB400E78060CC29A2930627906383D71863CEFC
:108CC400D71293063790638CD71813074790E39F06
:108CD400E7EE2D45E39309F2DC441D472310E90038
:108CE40003C707002300E40003C71700A300E40040
:108CF40003D727002301E40003D727002183A3011E
:108D0400E40003C747002302E40003D76700A3027B
:108D1400E40083D76700A1832303F4004DA02D450D
:108D2400E39D09ECDC446C0083C9170003C707000A
:108D3400A209B3E9E90011472310E90083C707003A
:108D44004E852300F400DC4483C71700A300F4001D
:108D5400EFF0EFCFAA8435C50356C100C165930671
:108D6400E100FD158329C500EFF0BFD619ED83C6D8
:108D74000400D040894517650100130565AEEFE096
:108D8400F05A01E5FD572317F10003C7090089478D
:108D94006310F70283A54900094613054400978030
:108DA400FF1FE780A0B68357090089072310F90045
:108DB4008357E1002301F400A183A301F4000145DA
:108DC4002DBD23173101EDB7034705008907BA9775
:108DD4002310F9008357A500A300F4008357A500CE
:108DE400A1832301F400034605004C41130534001C
:108DF4009780FF1FE78080B1D9B7C8449780FF1FD1
:108E0400E78040BA93170501C1832A871D45E3E62D
:108E140037DF6399F90023100900CC440356090095
:108E2400CE9589B54207B3863A01418363C7E6000C
:108E3400B38737412310F900CDB723105901F1BF8F
:108E44002D45E39C09DACC445285EFE0DFDC2310A6
:108E540079012300A4002181A300A4008DB72D452E
:108E6400E39D09D8DC442310790183C7070023005C
:108E7400F400DC4483C71700A300F40089B75D71D4
:108E8400CAC02A89035525004EDE52DC56DA5AD868
:108E94005ED662D466D26AD06ECE86C6A2C4A6C29C
:108EA4002E8BEFE0B05C130CF5FF931D0C01C16B2E
:108EB400AA8A814917AAFF1F130A0A4093DD0D01EC
:108EC400938CC18A138D418AFD1B8357C90063F8B3
:108ED400F90097A7FF1F83D7273E63CE8701035569
:108EE400290097A5FF1F9385253DEFF00026AA844E
:108EF4001DCDD9442DA88327890013971900930504
:108F0400E100BA9703C4170083C7070022045D8CED
:108F14002285EFF0CFB3AA851DE923108B0003252A
:108F24004A00854409C59780FF1FE780E05DB6408D
:108F34002644268506499644F259625AD25A425B1F
:108F4400B25B225C925C025DF24D61618280834877
:108F5400490083A60C000356E100035529006E88DE
:108F640081476A87EFF01FC3AA8411C523108B00C1
:108F740003254A0045BF83274A0095E3035529008A
:108F8400514781465E86BD45EFF0104D97A7FF1F00
:108F940023A6A73209E523108B00C54449BF97A730
:108FA400FF1F83D7673103D7418A3E976347570131
:108FB40013C7F7FF56972392E18A03254A0083A536
:108FC4000C0003D6418A3E959780FF1FE7800094EA
:108FD40083570A0003570D008509C209BA9717A7DA
:108FE400FF1F231BF72C93D90901C5B5397122DC66
:108FF4002A840355250006DE26DA4AD84ED652D4F2
:109004005AD05ECE62CC66CAAE8B56D2EFE0104622
:109014002A8A8346C4008355A4000355840078003B
:109024001306D400930CBAFF651AEFF06FE7420AF7
:10903400416B2A898144135A0A01138CC18A97A966
:10904400FF1F938969277D1B6302090463D094057C
:109054008348440083260C000356C10003552400B2
:10906400528881471387418ACA85EFF0BFB215C57C
:10907400814A0356C1008355A4004A859306E10042
:10908400EFF03FA52A89639D0A065DFDE5E083575D
:10909400840029452390FB0081A00356040183D753
:1090A400418AE317F6FC83250C0048489780FF1F8C
:1090B400E780E09655DD83A74900A1E3035524002A
:1090C400454781465A869D45EFF010391DE1835787
:1090D400840045452390FB00F2506254D254425917
:1090E400B259225A925A025BF24B624CD24C216121
:1090F400828097A7FF1F23A3A71C835AA90095BFAB
:1091040083A74900A69723805701938714001397D8
:10911400070183A74900418393DA8A00BA97238021
:1091240057011387240083A649009387340042071C
:1091340091044183C207C204C183C180369711CD13
:109144008356E1002300D70003A74900BA970357C9
:10915400E10021832380E700C5BDFD562300D7002D
:1091640003A74900BA972380D7000DB703552400FD
:10917400898097A5FF1F9385251497A7FF1F239D1B
:109184009712EFE0906229D95945B9B7411122C429
:1091940006C693F705012A84328585C3EFE05FDBB9
:1091A400AA8505462285EF20006A95476305F500E8
:1091B400BD47631DF502214515A893F7450099CBDA
:1091C400EFE01FD90546AA8522852244B240410119
:1091D4006F20606793F7050489C7EFE07FD70146E6
:1091E400DDB713F51500133515000605B24022440A
:1091F4004101828079714AD04ECE52CC06D622D417
:1092040026D22A8AAE89014983D749006364F900CA
:109214000145A1A083A709001314190093041400A5
:109224003387970003470700A29703C50700220767
:109234009305E100598DEFF08F8105E983A70900BB
:1092440005453E94034704002380E70083A70900F3
:10925400BE9403C70400A380E700B2502254925482
:109264000259F249624A456182808345850003566A
:10927400E1005285EFF09FF105C183A709003E94F8
:10928400034704002380E70083A70900BE9403C7B3
:109294000400A380E700D1B7050942091359090165
:1092A400A5B7011122CC2A8403D505009305E1005A
:1092B40006CEEFE0DFF901CD834585000356E100DA
:1092C4002285EFF0BFECF2406244056182800545DF
:1092D400DDBF397126DAAA840355250006DE22DCB7
:1092E4004ED652D456D25AD05ECE62CC66CA6AC822
:1092F4002E8A4AD8EFE09017AA8A83C6C40083D581
:10930400A40003D58400138CAAFF78001386D4002C
:10931400EFF00FB9420CC16CAA890144135C0C0133
:10932400138B418A938BC18AFD1CED1A17ADFF1F65
:10933400130D8DF8638B091A0356C10083C5890088
:1093440003D52400EFF09FE42A89631B051883C822
:10935400440083A60B000356C10003D52400628891
:1093640081471387418ACE85EFF0DF822A8963190A
:10937400051639C003D7418A110797A7FF1F83D762
:10938400C7F36395E700A29763C0570997A7FF1F28
:1093940083D7A7F23354F40203D5240097A5FF1F03
:1093A400938585F197A7FF1F239887F0EFE0705D01
:1093B4002A890DC559491DA003D524004947814672
:1093C4006686C545EFF0500997A7FF1F23A8A7EEAF
:1093D4000DE583D7A90045492310FA00F2506254E1
:1093E4004A85D2544259B259225A925A025BF24BDC
:1093F400624CD24C424D2161828083570B0091070D
:1094040017A7FF1F231BF7EA83274D0003D7A900E3
:109414009306E100A2972380E700930714001397B3
:10942400070183274D0041834E85BA9703D7A900CE
:1094340021832380E7000356C10083D5A400EFF005
:109444004FE91307240083264D0093073400420795
:1094540011044183C2074204AA89C183418036971B
:1094640039E1FD562300D70003274D0083A50B00E7
:10947400BA972380D70003254D0003D6418A22954D
:109484009770FF1FE780804883570B003E94420487
:109494004180E31D04EE83D784002310FA00E31F08
:1094A40009F2294925BF8356E10083A50B00230057
:1094B400D70003274D00BA970357E1002183238087
:1094C400E70003254D0003D6418A22959770FF1FBC
:1094D400E780C04383570B003E944204418099BD0A
:1094E40083D7A9002310FA006DB701495DB75D71F8
:1094F400A6C2CAC0AA840359850003552500A2C484
:109504004EDE56DA5AD85ED662D466D26AD086C6A1
:1095140052DC6ECE2E8BEFE06075930BD5FF711588
:10952400931905010144138DD40093D90901138CB7
:10953400418A938CC18A97AAFF1F938AEAD76358FA
:10954400741583C6C40083D5A4001307E1006A869A
:109554004A85EFF0EF94AA8D630B05120359A50019
:10956400834585000356E10003D52400EFF01FC2B4
:109574006314051283C8440083A60C000356E1005B
:1095840003D524004E8881471387418AEE85EFF086
:109594006FE0631305101DCC83D7418A17A7FF1F03
:1095A4000357A7D18907630EF70697A7FF1F83D731
:1095B400C7D03354F40203D5240097A5FF1F938525
:1095C400A5CF97A7FF1F239987CEEFE0D02705C526
:1095D400594515A003D5240041664D4781467D16A3
:1095E400A545EFF0606797A7FF1F23A9A7CC1DE14E
:1095F40023102B014545B640264496440649F259AA
:10960400625AD25A425BB25B225C925C025DF24DBA
:109614006161828083570C00890717A7FF1F231EEF
:10962400F7C883D7418AA29763D3770783A74A00F1
:1096340003D7AD00130A2400A2972380E700050492
:109644009317040103A44A00C183420A3E9483D7BA
:10965400AD0083A50C00135A0A01A1832300F40072
:1096640003A54A0003D6418A52959770FF1FE780ED
:10967400E02903540C00C167FD1752944204418051
:10968400E30FF9EA05094209135909014DBD2945BA
:1096940009FC23102B0185B76DDC01BFC167FD17E1
:1096A4006315F5002E856FE06FC7411106C6EFE024
:1096B400EFC011C5FD572310F50023010500B2408A
:1096C4004101828001114AC806CE22CC26CA8547B0
:1096D4002A896393F5044A85EFE00FF039E9C16400
:1096E4009385F4FF1307E10089461756010013061A
:1096F400A6150545EFE0DFFA2A84FD140DC44C4499
:109704004A85EFF0BFF90356E10022858146A6851C
:10971400EFF02FBC2A84DDB789476396F5008545B1
:10972400EF2080324DD9F2406244D244424905616F
:109734008280EFE06FE565B7411106C623AA018A6E
:1097440023AC018A23A4018A17A5FF1F0345D5DC96
:1097540041CD9307200C3305F5029165938515706F
:109764001905420541819780FF1FE78000CB23AA9A
:10977400A18A9307200C17A6FF1F0346F6D93306C8
:10978400F602814519069770FF1FE780C01E938774
:10979400418B9C4317A7FF1F034717D88145938626
:1097A400870B7D5563E8E5069306800BB306D70265
:1097B4000146FD550507B69723ACF18ABE86239072
:1097C400B600A381B6002381B600238206000506F5
:1097D4009906E366E6FEF9562390D70099463307C7
:1097E400D702BA9723A4F18A17F5FFFF130505885A
:1097F400EFF0804017F5FFFF130525A3EFE0A03934
:1098040017E5FFFF1305A57DEF20401BB24001457E
:10981400410182802394A6F41386C6F42310060023
:10982400232406003106E31BD6FE85059386860BAA
:1098340095BF411122C42A8406C6EFE0305BEFE0F5
:109844002FB0238681809387818A8843EFE00FAD10
:10985400238D81802244B240170500001305C5E61C
:1098640041016F20A01593970501C18763D0073686
:10987400797103C5C18022D452CC06D626D24AD0EF
:109884004ECE2E8AEF902FA92A8421C903470500C2
:109894009307000B6310F7048547A304F100938733
:1098A400C18A9C4323150100A1E7EF00C07E9165A6
:1098B400938535709780FF1FE78020B623A6A18A81
:1098C40005E98347910099C7834544001305840043
:1098D400EFF040502285EF90AF98B25022542165AA
:1098E4003345AA0092540259F249624A4561828082
:1098F4006146814517A5FF1F1305059C9770FF1F3F
:10990400E780600703494400894797A9FF1F9389AB
:10991400A99A631DF906EF00007897A7FF1F239DFE
:10992400A79803552400CE85EFE0E05603572400A2
:1099340097A7FF1F83D747988356840011ED63E4EC
:10994400F6002314F400835584003A85EFF0202BAD
:109954002285EFF00022B5B763E4F6002314F40087
:1099640083578400D9450D4697A6FF1F2396F69486
:1099740097A6FF1F938646943A85EFF080228D4583
:1099840061D917A5FF1F13052593E1A09947631C0F
:10999400F9029305A1002285EFF04FE5AA844DD981
:1099A400D947639BF40E0509035524001379F90F75
:1099B400D94597A6FF1F938626904A86EFF0601E2E
:1099C400CA8559D57DBFA1476318F9009305A10045
:1099D4002285EFF0DFB1D9B7A947631FF906035514
:1099E40084006C00EFE0BF86AA8463070516035564
:1099F400240041669306E10055477D16AD45EFF01E
:109A0400A02597A7FF1F23ABA78AAA8649C183482D
:109A140044000358E1000356C10003552400A68501
:109A240081474E87EFF00F97AA84631605100355FC
:109A34002400CE85EFE00067E30C05F00355240015
:109A4400CE862D46D945EFF0C015E30305F0AD45AC
:109A54004E85EFF02038EDBDB1476315F91003557D
:109A640084006C00EFE0AFFEAA846307050E035583
:109A7400240041669306E10059477D16B545EFF091
:109A8400A01D97A7FF1F23ABA782AA863DE183579A
:109A94008400C5442315F10003471400D147E309AA
:109AA400F7EA834744000355240097A5FF1F9385D5
:109AB400A58017A7FF1F2301F7808357A1001797DD
:109AC400FF1F231CF77E9797FF1F2389977EEFE0E4
:109AD400C02BE30F05E6035524009796FF1F9386DA
:109AE400A67D0546D945EFF0C00BE30305E68545A1
:109AF40049BD834844000358E1008357A40003563A
:109B0400C10003552400A6854E87EFF0AF88AA84D0
:109B14001DE103552400CE85EFE0805EE30A05E2F3
:109B240003552400D945CE863546EFF08007B54568
:109B3400E30005E2B9B5D9476393F400814403A572
:109B440049009780FF1FE780209CE38304E083574C
:109B540084002315F10089B78357840085442315B5
:109B6400F1001DBFB9476318F9009305A1002285D0
:109B7400EFF0EFB025B5C1476318F9009305A100D4
:109B84002285EFF00FF519BDC947631AF9001306D2
:109B940091009305A1002285EFE05F9B01B5D947B1
:109BA400631DF9009305A1002285EFE05F89AA8473
:109BB400E31805DEA304010061BBE147E31AF9D809
:109BC4009305A1002285EFE08FF7C9BB0145828090
:109BD400E9CE011152C42E8A854522CC4EC656C206
:109BE40006CE26CA4AC8AA8AB6893284EF10D0653E
:109BF400D14715C183C7818C83C6918C814419E0F8
:109C0400B684BE861387018C184393974400BA9791
:109C140063EDD400D547F2406244D2444249B2498C
:109C2400224A924A3E85056182803E89C10703D754
:109C340027FF09C7850493F4F40FD9BF2DC0956598
:109C4400938525C0130500029770FF1FE780E07C11
:109C54002326A90061D113060002814593840404DC
:109C64009770FF1FE78020D123119900230009007A
:109C74002313590105C81797FF1F1307A77F8347AD
:109C8400940010432304F900118C8327C900118424
:109C94001180238E870023A029018147ADBF23268D
:109CA4000900E9B723044901FDB785473E85828051
:109CB4009387018C984383C5818C81476395F50014
:109CC40081463685828003562700BA8619C2E30A84
:109CD400A6FE850793F7F70F4107CDB79387018C4D
:109CE400984303C6818C81476315F6008146368507
:109CF400828083552700BA8689C583454700E38857
:109D0400A5FE850793F7F70F4107F9BF9797FF1F44
:109D140093874776984383C5B18C81476395F50053
:109D240081463685828003560700BA8619C2E30A43
:109D3400A6FE850793F7F70F4107CDB79387018CEC
:109D44009C4303C8918C01476315E800814636851E
:109D5400828003D62700BE8619CA03D6670063181B
:109D6400A600D04709C603562600E302B6FE05073F
:109D74001377F70FC107C9BF411122C4404526C25A
:109D840006C6AA8415C0484409C59770FF1FE7801A
:109D9400A077484809C59770FF1FE780E0762285C1
:109DA4009770FF1FE780407626854146814597706E
:109DB400FF1FE78040BCB2402244FD57A384F40057
:109DC400924441018280011122CC2A84035525004A
:109DD40006CE2EC6EF107010324622858145EF0064
:109DE400906B22856244F24005616FF0FFF80DC567
:109DF40003572500411122C406C62A8411CBDD4530
:109E0400EF00506D22852244B24041016FF0DFF62D
:109E1400B2402244410182808280411126C23147EE
:109E24009304C5FF3387E4029797FF1F93878765E1
:109E340006C622C43E978356A7006397B6024843DA
:109E440005C53E849307F00F6306F60083470500BB
:109E5400639CC7009770FF1FE780006BB147B3870F
:109E6400F402A29723A20700B24022449244410183
:109E74008280411122C42E8426C24946AA84814587
:109E8400228506C69770FF1FE780E0AEADC083C78A
:109E9400C401139747009797FF1F9387A75D9C43BF
:109EA400BA9703D707002310E40003D7270083D70A
:109EB40067002311E4001387618C03570700231202
:109EC400E40003D704002313E40003D7240023147D
:109ED400E40003D744002315E40003D764002316E9
:109EE400E40003D784002318F4002317E400B240ED
:109EF40022449244410182809797FF1F938787579A
:109F040003A807009387018C904383C5818C014784
:109F140081476394E5003E8582808346060081CEB6
:109F2400544691CA83C6C6019206C2966315D500EB
:109F3400850793F7F70F05071377F70F4106D1BF8E
:109F4400130600643386C50293069500AA85170597
:109F54000000130505EA6F902FA7411122C406C61D
:109F64002A8403459500EF902FC0FD57A304F40005
:109F7400B240224441018280011122CC4AC84EC61B
:109F840052C456C206CE26CA2A89AE890144138A0F
:109F9400018C9D4A83C7918C6362F4046397090220
:109FA4009389018C130AF00F83C7818C6366F406CE
:109FB4001144A1442285050442041306F00FCA8506
:109FC4004180EFF09FE5E31794FEF2406244D244EF
:109FD4004249B249224A924A0561828083270A0093
:109FE40093144400BE9483C704009DC383D76400C4
:109FF400639027036396590103D52400EF10E06DA5
:10A0040026854E868145EF0010492685EFF0DFD680
:10A0140005041374F40FBDBF83A70900931444000F
:10A02400BE9483C704009DC383C794006380470321
:10A0340083D76400639C27012685EFF01FF22685F1
:10A04400D145EF0030492685EFF01FD30504137482
:10A05400F40F99BF41677917630BE502411122C4DC
:10A0640006C685472A846399F50022852244B240B6
:10A07400814541016FF05FF089476396F50085459E
:10A08400EF10901C7DD1B240224441018280828035
:10A094009D456FF07FEE03D5618C8280011106CE61
:10A0A4002317A1002316B10003C7418C8547631809
:10A0B400F70070009305E1000545EF50F01DF240F4
:10A0C40005618280A947631CF60483C7150003C792
:10A0D4000500A207D98F2310F50083C7350003C7F5
:10A0E4002500A207D98F2311F50083C7550003C7A4
:10A0F4004500A207D98F2312F50083C7750003C753
:10A104006500A207D98F2313F50083C7950003C701
:10A114008500A207D98F2314F500014582800545E7
:10A12400828091476314F60283C7150003C70500B4
:10A13400A207D98F2310F50083C7350003C7250074
:10A14400A207D98F2311F50001458280054582803D
:10A154009387C5FF93960701C1820D476360D702B9
:10A1640031473387E7029797FF1F9387A731BA9741
:10A174002381A7002390B70001458280094582808E
:10A1840013074020AA876374A70093074020F117A0
:10A194002393F18C2385B18C2386B18C828019059D
:10A1A400956542054111938535C0418106C6977076
:10A1B400FF1FE780802611C5B240E95541016FD0E9
:10A1C400D00BB240410182802384018C2385018C11
:10A1D400A385018CA384018C2382018C8547011102
:10A1E4001797FF1F230EF72806CE2AC6A386018CD5
:10A1F4002393018C23A0018CEF10205732451306C2
:10A20400000381459797FF1F2388A7261795FF1FF3
:10A21400130545279760FF1FE780E0751795FF1F1B
:10A224000345452931C19565938545C0120597704D
:10A23400FF1FE780801E1797FF1F232DA7220DC540
:10A244009797FF1F9387072783C717001796FF1F4A
:10A25400034646268145A384F18CA385C18C12064E
:10A264009760FF1FE78020719387918C83C7070055
:10A274001795FF1F0345452A95653E951375F50F00
:10A284002384A18C938555C012059770FF1FE78026
:10A29400C01823A0A18C3DC903C6818C1206814538
:10A2A4009760FF1FE780206D9387018C984383C6D6
:10A2B400818C814725077D566393F604EF10606F08
:10A2C400B1473305F5029565938565C04205418123
:10A2D4009770FF1FE78060141797FF1F2320A71AAA
:10A2E40019C5314681459760FF1FE780C068F24079
:10A2F40017050000130545D605616F10206C85070E
:10A304002300C70093F7F70F41077DB72384018C1F
:10A31400A384018C65B741119397050126C206C633
:10A3240022C4C187AE8463DE07081795FF1F034567
:10A33400A514EF804FFE2A8439C90347050093070B
:10A3440000096313F70403471500CD476319F706A3
:10A35400034525009795FF1F83C5350183C7A18C4D
:10A3640093066400014601472E886319E50219C269
:10A374002385F18C83C7A18C81CB85451795FF1F5D
:10A384000345850FEF80DFB82285EF806FED2165EF
:10A39400258DB240224492444101828003C60600C6
:10A3A400B29713F6F70F9377F80F6374B6009377A9
:10A3B400F60F05071377F70F890605467DB72125A4
:10A3C400E1B793F715000145E9D7EF00506D19C9BE
:10A3D40083C7A18C81CB85451795FF1F0345C5090C
:10A3E400EF801FB313C514006DB785462A8763FB3E
:10A3F400C60483C7150003C60500A207D18F231026
:10A40400F500639CD70083C7350083C62500A207E7
:10A41400D58F2311F5000145828089460145639457
:10A42400D70283C7350083C62500A207D58F231121
:10A43400F70083C7550083C64500A207D58F2312B2
:10A44400F70082800545828091476314F60283C732
:10A45400150003C70500A207D98F2310F50083C791
:10A46400350003C72500A207D98F2311F500014544
:10A4740082800545828091476314F60283C71500E4
:10A4840003C70500A207D98F2310F50083C7350041
:10A4940003C72500A207D98F2311F5000145828047
:10A4A40005458280A1476314F60483C7150003C7DA
:10A4B4000500A207D98F2310F50083C7350003C711
:10A4C4002500A207D98F2311F50083C7550003C7C0
:10A4D4004500A207D98F2312F50083C7750003C76F
:10A4E4006500A207D98F2313F50001458280054535
:10A4F40082808947631CF60083C7150003C70500E3
:10A50400A207D98F2310F50001458280054582807A
:10A514008357260079714ECE06D622D426D24AD04D
:10A524001307F007AE896372F70209473AC423168A
:10A53400F100300093F5F50FEF100019B2502254DA
:10A5440092540259F2494561828003574600D94624
:10A554002A89328463F8E6008357660063F4F600C0
:10A564006379F70023140100300093F5F90F4A854D
:10A57400E1B70355060002C4EFF04FF9AA8459C1AC
:10A58400EFF09F9783C784006369F5001146A246E4
:10A59400CE854A85EF10A00855B73400268693056A
:10A5A400F00F4A85EFF0CFE275F1A247035784001C
:10A5B400DC472390E700035724002391E700035767
:10A5C40044002392E700035764002393E70003D772
:10A5D40044002394E700DC4485CB93F4F90F2286EE
:10A5E400A6854A858297C167FD172A86E311F5FA85
:10A5F40022459947F9452300F50023029500EFF021
:10A604003F942DBF094661B7014651B7A947631C62
:10A61400F60483C7150003C70500A207D98F2310CA
:10A62400F50083C7350003C72500A207D98F23117E
:10A63400F50083C7550003C74500A207D98F23122D
:10A64400F50083C7750003C76500A207D98F2313DC
:10A65400F50083C7950003C78500A207D98F23148B
:10A66400F500014582800545828083C705002300EB
:10A67400F50083C71500A300F50083C7350003C7A1
:10A684002500A207D98F2311F5008280232205001B
:10A6940003C7450089476304F7000545828083D6D4
:10A6A40065000D47E37BD7FE9C45011106CE22CC05
:10A6B40026CA4AC84EC683C4170003C60700A204AC
:10A6C400D18C138644006311D60403C4370083C7B6
:10A6D4002700AE8922045D8C9307C4FFC207C1839F
:10A6E4002A89636FF70003A58900231199002310B9
:10A6F4008900F155EFD060382322A900014531A02B
:10A704002285EFF0EFDA65F10545F2406244D24468
:10A714004249B24905618280397122DC2E84834723
:10A7240004004AD806DE26DA4ED619472A89B285AD
:10A73400639AE706034624002800EFF0FFD0AA84BA
:10A7440015E903558100EFF0AFD6AA8983451400BB
:10A7540015C92E8617170000130727EA34009D45F4
:10A764004A85EF00903F4E85094681452D234E854D
:10A77400EFF08FE0F250625426854259D254B25918
:10A784002161828089472310F100835781000A8662
:10A794002311F1008357A1002312F1004A85EF0031
:10A7A400B072C9BF4947639DE702035624002800DD
:10A7B400EFF05FCFAA845DFD9797FF1F83D747CD46
:10A7C40099E3814445BF03471400834604003C00D9
:10A7D4000146CA851795FF1F0345A5CB812659BF9E
:10A7E40051476390E702035624002800EFF09F8D41
:10A7F400AA8449F18345140030004A85EFF05FD103
:10A8040095BF59476391E706035624002800EFF0EB
:10A814005F91AA8425F1835581004A85EFF00FD218
:10A824000DC958458356A10083570700B697C20740
:10A83400C1832310F700D1D75C47C1D783C7A18C4C
:10A84400C9D385451795FF1F034505C3EF804FEC1A
:10A8540015B789473EC0835781000A868345140093
:10A864002312F10025BF834514000A86231001003A
:10A87400EF009065B9B75D71A6C256DA86C6A2C468
:10A88400CAC04EDE52DCAA8A03C51500AE8432C6A5
:10A89400EFF0CFC4B24501ED8144B640264426858D
:10A8A40006499644F259625AD25A6161828023025F
:10A8B40005002311050083C9040085472A84639A8F
:10A8C400F90003C624002808EFF03FB2AA84054922
:10A8D4002DA09D476394F904034705008D47E31DAC
:10A8E400F7FA03C6240028080549EFF0DFB8AA8464
:10A8F40009E5054681452285792E2285EFF0EFE5AD
:10A90400034584003C080147CE862686D685392433
:10A91400E30509F82285EFF02FC641B7CD47639DC3
:10A92400F900034705009147E318F7F603C624002E
:10A934002808EFF01FBC59BFD547E39FF9F4034A39
:10A9440005008947E31AFAF403C6240028080549D8
:10A95400EFF0DFCBAA8455F183570102BDE303571F
:10A9640081011306F0035C44930607FCC206C1820E
:10A97400636CD6000356A101D94663F7C60083561B
:10A98400C101D94563EFD500035524002391E700A5
:10A994000549EF00905403560102D2852285712C9B
:10A9A400A9BF8355E1012391E7002392C7002390B7
:10A9B400B7002393D70085472300F400014A0149D7
:10A9C400D9BF014AC9BF7971AA8522D426D20354BA
:10A9D4002500AA84280806D6EFF05FCBF24599E556
:10A9E40035E985452285EFF06FEBC1A083578101DE
:10A9F4001547639BE7060357A1018D4763FCE704F2
:10AA04006800EFF09FC60357E100DD4763FCE700F1
:10AA14008345D100B70717008507100822853EC873
:10AA2400EF00904A8357E1000357A10191076305A2
:10AA3400F7002285EFF0CFE58347C10072466C0032
:10AA4400858B1106228591CFEFF0FFE201C52285A7
:10AA5400EFF00FE4884451D59770FF1FE780C0AA38
:10AA640049B7EFF07FCBDDB711476389E700138760
:10AA7400A7FF42074183854663EEE6023147F1179B
:10AA8400B387E7021797FF1F1307C79FBA9703D728
:10AA9400070069D303C527003008A2850D205DF99E
:10AAA400035781019147E31EF7F2B25022549254A6
:10AAB400456182802C082285892E49FDFDB701114C
:10AAC4004AC82A89314526CA06CE22CC2EC6B2846B
:10AAD400EF70FFFD31C1B2459307000A2310F50062
:10AAE4002311B5002A84214611058DC0A6859760DF
:10AAF400FF1FE780A0E1A2854A85EF80AF89014569
:10AB0400F2406244D24442490561828081459760A3
:10AB1400FF1FE78040E6C5B70545DDB7797126D24A
:10AB2400AA841305000206D622D42ECE32CC36CA0D
:10AB34003AC83EC6EF70BFF731C96246F245424794
:10AB4400D246B2472A84130520FA2300A400A300A6
:10AB5400C4002311B4002302E400A302D4001305AB
:10AB64008400614691CFBE859760FF1FE78000DABD
:10AB7400A2852254B2502685925445616F808F81FC
:10AB840081459760FF1FE78000DFDDB7B250225494
:10AB94009254456182805845797122D406D62A841C
:10ABA400AE8651C383572700231DF1009307200667
:10ABB400639FF5049387618C03D60700835767006E
:10ABC4006373F600B28713F6F70F835527018347A3
:10ABD40007018D8F93F7F70F81E5890793F7F70F37
:10ABE400B297FD17B3C7C702231EF1008357240091
:10ABF4008355640003458400231CF10001473C088D
:10AC04000146EFF0BFF1B250225445618280034700
:10AC1400C7019797FF1F9387E7859C431207BA974D
:10AC240083D76700D1B72EC6194681452808976097
:10AC3400FF1FE78040D4B24655BF797122D406D6AF
:10AC440026D22A848DC181470147930600062E86A9
:10AC54008355640003458400EFF05FECB250225446
:10AC6400925445618280B284280059469760FF1F40
:10AC7400E78060D02314910089E883572400484476
:10AC84006C002315F100EFF0CF9E3C0001479306C2
:10AC94000006014675BF797106D6814799ED835741
:10ACA400250058452316C1002314F1003C0011C7A8
:10ACB400835727002315F1003C002E868355650039
:10ACC40003458500014793060006EFF03FE5B250C7
:10ACD40045618280411122C406C68347050011479D
:10ACE4002A846395E7022E86835565000345850013
:10ACF40081470147CD46EFF07FE249468355640022
:10AD04002244B240154541016FF02F9113F7B70F5C
:10AD140089466317D7000146EFF03FF25146F9BF69
:10AD24000D476398E7002244B240014641016FF0A9
:10AD34009FF6B24022444101828083D70500314707
:10AD4400F1173387E7029787FF1F9387A773BA9793
:10AD5400D84319EBD8412395A7000145D8C303D79D
:10AD640025002394E700828059458280797122D49A
:10AD7400404526D24AD006D6AA842E8925C0484406
:10AD840019C59760FF1FE7802078232604008357A6
:10AD9400040083D5640003C584002315F1008357A0
:10ADA40024000147930640062316F10083578400CC
:10ADB4004A862317F1001C483EC883D72400231475
:10ADC400F1003C00EFF09FD5A30E240123280400DA
:10ADD400B25022549254025945618280280031466F
:10ADE40081459760FF1FE78000B983D7240083D58E
:10ADF400640003C584002314F10001473C0093065A
:10AE040040064A86EFF09FD1E1B7797152CC2A8A85
:10AE140003D5050026D206D622D44AD04ECE56CA31
:10AE2400AE84EFE0FFE819E1854749A04045AA89CF
:10AE340065DC83576500E39947FF83578400638982
:10AE440007128346C401978AFF1F938AAA6203A745
:10AE54000A009206FD173697C20703576700C1839D
:10AE64002314F4006316F70093053006EFF0BFD205
:10AE74005C48A5EFC8400349150083470500220933
:10AE84003369F90083D7240013072900631AF702F2
:10AE9400F955EFC0903EC8C02391240103C5890031
:10AEA4002686D285EFF0BFC1814721E1B2502254FA
:10AEB40092540259F249624AD24A3E8545618280DF
:10AEC4009565938515C04A859760FF1FE780E05418
:10AED40048C8C840231C2401F955EFC0103A83D751
:10AEE4002400C8C0F9172391F400484859C503D673
:10AEF40024008356A401835784013308D60063C019
:10AF040007090347C40183A70A0095451207BA97A6
:10AF140083D7270063CF0705CC4036959760FF1F82
:10AF2400E780C09E0357A40183D72400BA97C207C1
:10AF340003578401C183231DF400E397E7EE03D78D
:10AF4400290003C5890030002314E1005848D28544
:10AF54002315F1003AC6EFF09FB611C54848976033
:10AF6400FF1FE780605A232A0400232C04006DBDD0
:10AF740099454E85EFE03FE545BDA545DDBF9145CB
:10AF8400CDBF03D7250069CF83D6618CED4763EA33
:10AF9400E60C011122CC2E8426CAAA84484091458D
:10AFA40006CEEFC0902D83572400AA862300F50017
:10AFB40083572400A183A300F500835704002301D1
:10AFC400F50083570400A183A301F5000356240070
:10AFD400C167F9171106420641826396F4042AC434
:10AFE400314532C6EF70BFACAA85CD471DC5930766
:10AFF40000F93246A2462300F500F9572311F50063
:10B0040089472302F5002313C50014C51785FF1FC4
:10B0140003458546EF701FB88147F2406244D2442D
:10B024003E850561828081452685EF409032AA875E
:10B0340001E903C7A18C75D37D172385E18CF1BF8A
:10B0440009476302E5021D476301E50249476300BE
:10B05400E5027D47E313E5FC03C7A18C8147E1BF0B
:10B06400ED473E858280D1474DBF91477DB78947E3
:10B074006DB7011122CC4AC831441309C5FF33040A
:10B0840089029787FF1F9387E73F06CE26CA3E941F
:10B09400584031C783C6A18CBE84854795CA231402
:10B0A400A100835784000355A4002C003AC623153D
:10B0B400F100EFF01FED11C548409760FF1FE780D6
:10B0C400A044B147B307F902A69723A20700854716
:10B0D400F2406244D24442493E8505618280814700
:10B0E400C5BF797126D244451387618C4AD083D772
:10B0F40064000359070052CC06D622D44ECE56CA59
:10B104002A8A63F327013E8903D72401420913598C
:10B11400090183D7040141CB998F4A8463D5270160
:10B1240013940701418089452285EFF04F87AA894E
:10B13400CD4A25C183D724002AC6231581002314B0
:10B14400F10083D7240185E383D704019309250003
:10B154002300F50083D70401A183A300F5006376DF
:10B16400240503D4040183D72401CC4422864E85CC
:10B17400BE959750FF1FE780607903556A002C0045
:10B18400EFF03FE0AA8A15C54E859760FF1FE78060
:10B19400A037B2502254568592540259F249624A59
:10B1A400D24A4561828089078DBF79144204418067
:10B1B4005DBF03D7240183D704003A94FD17C20767
:10B1C400420403D70401C18341802390F4002399EE
:10B1D40084006377E400D5FFFD57A38EF40055BFC8
:10B1E40081455285EFF09FB86DB701114EC683C9F2
:10B1F400D18C22CC52C456C25AC006CE26CA4AC8E2
:10B204004E84138A018C854A130BF00F83270A009E
:10B2140093144400BE9403C9040063175907DC4423
:10B22400A5C7D84735C303D7070039C383C7A18C43
:10B2340089CF2685EFF0FFEAAA8515E5050483C7C3
:10B24400918C635FF400A386818CF24062444A854A
:10B25400D2444249B249224A924A024B0561828051
:10B26400A386018CDDB72685EFF05FB00149F1BFFD
:10B2740083C7D701639A6701930520062685EFF0FB
:10B284009F91DC44A38E070005041374F40F83C755
:10B29400918C6363F4000144E31A34F7C1BF411194
:10B2A400154506C6EFF0FFDC09C50545B24041016E
:10B2B40082801945EFF0FFDB6DF91145EFF07FDB7C
:10B2C4006DF51D45EFF0FFDA6DF183C7918CF9DF61
:10B2D400B24041016FF07FF183D705000D47F117AC
:10B2E400C207C1836361F706DC41B1CF411122C4B7
:10B2F4002E84854526C206C6AA84B92739C5268563
:10B304009525C167F917638FF40009ED835724006D
:10B3140091CB835604001947639FE60203D7618CDF
:10B3240063FBE70283C7A18CA285268599C72244C3
:10B33400B240924441016FF0DFC42244B2409244CF
:10B3440041016FF09F9F094582805145B2402244DC
:10B354009244410182806D45D5BF397126DA4ED6BB
:10B36400AA84AE895D4589454AD806DE22DC328945
:10B3740036C63AC4EFE0BFE225C522472A84014518
:10B3840011C7B24613054400B6850297935785004A
:10B3940023003401A30024012301A400A301F40029
:10B3A40011059547231DA100231CF10022CE83C75C
:10B3B400A18C2C08268595C3EFF0BFBCAA8411C5C7
:10B3C40022859760FF1FE7802014F250625426857F
:10B3D4004259D254B25921618280EFF01F96F9BFCD
:10B3E400CD44E5B7797126D24AD052CC56CA06D696
:10B3F400BA8A22D44ECE19472E89B284368A6391F2
:10B40400E508035526000944EFE09F8A2AC649C18E
:10B414005C458359650083D727002390F400B24725
:10B424001547238057011786FF1F0346660523919E
:10B43400E700130716001377F70F9786FF1F238182
:10B44400E6042382C70011E705479786FF1F238977
:10B45400E6025147631AE90015472391E400DC47EB
:10B4640003D784002394E7005287A686CA854E85B5
:10B47400EFF0BFEE2A84324515C4EFE0FF8F09A830
:10B4840042867400BE85AA89EFE08FF42A8441D9EC
:10B494002285B250225492540259F249624AD24A45
:10B4A40045618280F945EFE0BFA9DDB783D7050088
:10B4B4002300F50083D70500A183A300F50083D7FB
:10B4C40025002301F50083D72500A183A301F500FE
:10B4D4001145828083D705002300F50083D705003A
:10B4E400A183A300F50083D725002301F50083D7AA
:10B4F4002500A183A301F50083D745002302F500AD
:10B5040083D74500A183A302F50083D765002303F5
:10B51400F50083D76500A183A303F500214582804C
:10B5240083D705002300F50083D70500A183A3007A
:10B53400F5000945828083D705002300F50083D7F1
:10B544000500A183A300F50083D725002301F5009E
:10B5540083D72500A183A301F50083D745002302E7
:10B56400F50083D74500A183A302F50083D76500C6
:10B574002303F50083D76500A183A303F50083D7D4
:10B5840085002304F50083D78500A183A304F50077
:10B594002945828003D705008546AA872300E50054
:10B5A40003D705002183A300E50003D70500631D2D
:10B5B400D70003D725002301E50003D72500218305
:10B5C400A301E5001145828009456315A70203D74D
:10B5D400250019452381E70003D725002183A38192
:10B5E400E70003D745002382E70003D74500218302
:10B5F400A382E700828083D705002300F50083D768
:10B604000500A183A300F50083D725002301F500DD
:10B6140083D72500A183A301F500114582807971A8
:10B6240026D24AD04ECEB2842A89AE892946814593
:10B63400480022D406D636849750FF1FE780A033F3
:10B644002316910095EC835724002312F10093876D
:10B65400618C83D707002314F1005C4495C383C62F
:10B66400C7011787FF1F1307E7E01843920683D724
:10B6740087003697035727002315F1002313E100B1
:10B684004A8517070000130747EB540013F6F90F18
:10B69400D545EFF09FCC2A8911C19DE08547230051
:10B6A400F40023020400014681452285EFF0EFD81F
:10B6B400B25022544A8592540259F249456182801B
:10B6C4002285EFE06FEBEDB7B28617070000130792
:10B6D400A7EC2E8685456FF05FC801112317A100E2
:10B6E4004165700001489307F00F0D47970600006D
:10B6F400938606DC99457D1506CEEFF0BFCEF24069
:10B7040005618280B28701482E86114797060000A2
:10B71400938686DCC9456FF0FFCCB286170700001C
:10B72400130747E02E86CD456FF03FC3011122CCAD
:10B7340026CA4AC84EC606CE2A89AE891784FF1F78
:10B744001304C4D79784FF1F938444DA1C4081C731
:10B75400CE854A8582971104E31A94FEF24062442E
:10B76400D2444249B249056182801785FF1F0345CF
:10B7740035C09377350009811787FF1FA30EF7D8CB
:10B78400AA971787FF1F2309F7D8D9C31305C00346
:10B794003385A702A5654111850506C69760FF1F7D
:10B7A400E780A0C79787FF1F23A8A7D09307C003EC
:10B7B4001786FF1F034646D63306F6028145975087
:10B7C400FF1FE780401B9787FF1F9387E7CE9C43AB
:10B7D4009786FF1F83C646D4014789077D56634F6A
:10B7E400D700B2401306000381451785FF1F1305D8
:10B7F400E5CC41011753FF1F6700E3172390C700EF
:10B804002381070023A5070205079387C703C1BF48
:10B8140082809787FF1F938727CA98431786FF1F45
:10B82400034686CF81476315F600814636858280BC
:10B83400BA861307C703835567FCE389A5FE85070A
:10B8440093F7F70FCDB7011122CC2EC632C406CE22
:10B854002A84EFF01FFC2246B24511E9C167F917AB
:10B864006303F4005145F2406244056182805455FB
:10B874008347450095C213F7270141456314A70088
:10B88400154575F2C18B3D45F9DF83C7A601014516
:10B89400E3FBB7FC3145C1BFC18B0145E9F7154551
:10B8A400D9B7797126D2C16422D44AD04ECE52CCB3
:10B8B40056CA06D62A8901449789FF1F9389C9BFAE
:10B8C400130AC003FD14854A9787FF1F83C7C7C4A3
:10B8D4006364F400014535A8B307440303A70900D2
:10B8E400BA9703D727006316970005041374F40F5F
:10B8F400E1BF03C55700300093856700EFA0F065F2
:10B904001946CA8528009750FF1FE7804011E31E9F
:10B9140055FDB250225492540259F249624AD24A15
:10B92400456182809787FF1F938707B9C166984353
:10B934009785FF1F83C545BE8147FD166395F500B6
:10B94400014632858280035827003A866306D80070
:10B9540003480700E307A8FE850793F7F70F1307CB
:10B96400C703E9BF411106C6EFF0BFEA11C503558D
:10B974004501B240410182800145E5BF9787FF1F21
:10B98400938787B398439786FF1F83C6E6B881479A
:10B99400110701456393F60082800346070001C640
:10B9A40005051375F50F850793F7F70F1307C703FD
:10B9B400D5B71785FF1F034525B682801787FF1F5C
:10B9C4001307C7AF8147BA8631460C4391E58A070E
:10B9D400B69788C30145828085071107E397C7FEA0
:10B9E4004D458280411106C622C4EFF09FE21DCD71
:10B9F4002A84035525008545EFF05FD3485409C5D3
:10BA04009760FF1FE78040B022851306C00381457D
:10BA14009750FF1FE78020F6FD572311F4002302FF
:10BA240004000145B2402244410182800945DDBF42
:10BA3400411106C6EFF0FFDD11C50345C500B24054
:10BA4400410182800145E5BFC167F9176304F5022E
:10BA5400411122C406C62E84EFF0BFDBAA8701453C
:10BA640091C703C54700698C33358000B240224436
:10BA74004101828005458280011106CE2EC6EFF079
:10BA84005FD9854711C903574501B2458547630509
:10BA9400B700231AB5008147F2403E8505618280D4
:10BAA40021CD01114AC8416922CC26CA4EC652C4CE
:10BAB40006CE0144AA849789FF1F9389E99F130A3C
:10BAC400C0037D199787FF1F83C707A5634AF40046
:10BAD400F2406244D2444249B249224A056182801A
:10BAE4003305440383A709003E95835725006383E8
:10BAF400270182940504F9B782809787FF1F9387F3
:10BB0400A79B94431786FF1F034606A1014791068E
:10BB140081476310E602858393C7F7FFC207C18399
:10BB240005456364E50285473395A70042054181D5
:10BB3400828083C5060081C583D5C602CD8F0507E3
:10BB44001377F70F9386C603E9B793F61700E1FE60
:10BB5400050585831375F50FE9B7797156CAAA8A65
:10BB64002E8526D24AD04ECE52CC5AC85EC662C466
:10BB740006D622D4AE84328B368CBA8B3E8AC289E6
:10BB84004689EFF01FC949E141657D15EFF07FC893
:10BB94002A84554531CC1946DE8513056400A30279
:10BBA40084019750FF1FE78060D683570103231158
:10BBB4009400230264012319F400835741032300F2
:10BBC400540123260402231AF400230644012317F4
:10BBD400340123182401EFF05FF22318A402232A6E
:10BBE40004022685232C04028145EFF03FB401456D
:10BBF400B250225492540259F249624AD24A424BF8
:10BC0400B24B224C456182804545DDB79787FF1FC3
:10BC14009387878A98439786FF1F83C6E68F814759
:10BC24006395F60041657D1582803A861307C70344
:10BC3400835547FF6395A500035526008280850739
:10BC440093F7F70FF1BF9787FF1F9387E786944316
:10BC540041661788FF1F0348288C01477D169548C5
:10BC640011436314E8000145828083D7260036859A
:10BC74006380C704CC5A8DCD83C7350083C52500A6
:10BC840089CD938597FD93F5F50FE37FB3FC9387F7
:10BC9400D7FA93F7D70F89EF82809385F7FD93F551
:10BCA400F50FE3F3B8FC9387D7FA93F7D70FCDDFFB
:10BCB40005071377F70F9386C60365B79777FF1FBA
:10BCC4009387877F416698439785FF1F83C5C58403
:10BCD40081477D1625486394F5000145828083568B
:10BCE40027003A85638CC600545B89CA83C6360034
:10BCF4009386E6FD93F6F60FE372D8FE850793F775
:10BD0400F70F1307C703C1BF011122CC2A84494589
:10BD140006CEEF90EF9E15C12AC62285EFF07FAFC5
:10BD240009CD6244324683550503F2401775FF1F5F
:10BD34000345357E05616F70EFB3F24062440561DF
:10BD4400828039714ED652D4AE892A8A9305300541
:10BD5400414526DA4AD856D206DE22DC32C6368976
:10BD6400BA8A9750FF1FE780406BCD4431C92A84BB
:10BD740089446382090432468145231AC10041463D
:10BD84009750FF1FE78020BF5686CE8522859750A7
:10BD9400FF1FE780A0B72146630E0902CA85280861
:10BDA4009750FF1FE78080B6A28650082C08528562
:10BDB400EF30D051AA8422859750FF1FE780C074CA
:10BDC400F250625426854259D254B259225A925A98
:10BDD40021618280814528089750FF1FE780A0B920
:10BDE400E1B7411122C4405926C206C6AA8429CC0F
:10BDF400085409C59750FF1FE7800071285809C5EA
:10BE04009750FF1FE7804070685809C59750FF1F7F
:10BE1400E780806F285C09C59750FF1FE780C06EDC
:10BE2400685C09C59750FF1FE780006E032504086E
:10BE340009C59750FF1FE780206D22859750FF1F8B
:10BE4400E780806C23AA0402224483D50403B24011
:10BE540092441775FF1F0345D56B41016F700FCADC
:10BE6400411126C206C622C4AE84EFF09F9A21C5B2
:10BE74004C592A84A9C183A8C50703A88507FC597E
:10BE8400B85983C6650003D6050083C525002685F9
:10BE9400EF902F8F2285EFF0DFF4EFF03FE201CD3A
:10BEA4002244B24092441775FF1F034595668545A9
:10BEB40041016F70EF85B240224492444101828077
:10BEC400011122CC06CE2A842EC6EFF09F945C5931
:10BED40091CF83D70700B245639A8700854763975C
:10BEE400F5006244F24005616FF0BFEFF240624436
:10BEF40005618280411106C622C426C2EFF0BFD478
:10BF040029C54059AA8431C08347240095CB97772B
:10BF1400FF1F9387E75D9C4389C7DC4399C3228550
:10BF24008297034734009307F0026310F702224418
:10BF340003D52400B2409244814541016FF05FF281
:10BF44009777FF1F9387875AF9B7B24022449244E8
:10BF540041018280411126C24AC006C622C4AA8475
:10BF64002E89EFF01F8B31C1405961C08357040003
:10BF7400639D970A8347340013071002639DE70803
:10BF840083472400C1C77C540327040883D747018F
:10BF940005E713F717000DC3185403574700058B23
:10BFA40001CF93072002A301F400B240224492443B
:10BFB400024905454101828013F7270009CB185433
:10BFC40003574700098B01C793074002E9BF918BD0
:10BFD40089CB1C5483D74700918B81C79307600298
:10BFE400D9B79777FF1F9387A7509C43DDDFDC43C6
:10BFF400CDDF22858297034734009307F002814501
:10C00400E315F7FA2685EFF0BFE545B79777FF1FED
:10C014009387C74DD9BF1307A0026398E700630451
:10C02400090013092003CA85F1BF631C0900268592
:10C03400EFF02FFE19C58347450093E7070123025C
:10C04400F500A6854A85EF80FF8785B7797126D2EA
:10C054009947231DB100AA842E858D4522D406D686
:10C0640032C636C4231CF100EFE06F932ACE4D4450
:10C074001DC13246A246AA85328582962A8419E5D4
:10C084002C082685EFF04FA52A8411C572459750D8
:10C09400FF1FE78060472685EFF01FC72285B25057
:10C0A4002254925445618280411122C42E862E84EA
:10C0B400972600009386E694894506C626C24AC0A0
:10C0C4002A89EFF0BFF883450400AA844A85EFF07B
:10C0D4003FD9B240224426850249924441018280DC
:10C0E4009777FF1F938787409C4395CB9C4385CBD1
:10C0F4001D71A2CC86CE984110082A843AC8D84132
:10C1040085453ACA829701C92306A1000355240034
:10C114006C00EFF07FF9F6406644256182808280EE
:10C12400AE8715C5785505C7834607002380D5001B
:10C1340083461700A380D500834627012381D500B9
:10C1440083468701584BA381D500D8C182804146DC
:10C1540081453E851753FF1F6700E3819777FF1FD3
:10C16400938707399C4391C703A3870063030300A4
:10C174000283094582801777FF1F1307A7431843DB
:10C184001DC75843AA8705450DC703A507084111D4
:10C1940006C6930605021306050C9305050613054A
:10C1A40005040297B2401375F50F410182800545DD
:10C1B400828082804DC9357122CD2A8403550500C1
:10C1C40026CB4AC94EC756C306CF52C55AC1DEDE76
:10C1D400B68AB2892E89EFF0CFE3AA8439C50C1848
:10C1E4002285EFF0FFF383472400138A6400A9CB70
:10C1F400EF800FC72A8B014583CB5400EF800FC417
:10C20400AA840C100818EF10406108542C10EF1089
:10C214006061D288268A56C05E88D2875A871410F5
:10C224003010CE854A85EF20101BFA406A44DA4468
:10C234004A49BA492A4A9A4A0A4BF65B0D618280F6
:10C24400EF800FC2AA8B014503CB5400EF800FBFD0
:10C254002ACE08540C10EF10405C2C100818EF1074
:10C26400605CF2484DBF8280C14709CD1455C14777
:10C2740091CA785501CB83C73600BD4663F4F600F6
:10C28400834787013E858280894763090510638758
:10C294000510411106C622C426C2834715002E8408
:10C2A4002380F50083472500A380F50083473500EC
:10C2B4002381F50083474500A381F500834755009A
:10C2C400858B9396870083D7450093F7F7EFD58F37
:10C2D4002392F5008346550093F7F7DFA20693F601
:10C2E4000620DD8E2392D5000347550093F6F6BF52
:10C2F400220713770740558F2392E50083475500A3
:10C30400FD769386F67F8D87858B758FAE07D98FE3
:10C314002392F50083466500F99B858ADD8E23927E
:10C32400D500034765009377270013F7D6FF5D8F89
:10C334002392E5008347650093F647009377B7FFA0
:10C34400D58F2392F50003476500DD9B4D45218B76
:10C35400D98F2392F500EF80BFBAAA845145EF80AC
:10C364003FBA0347340093F4F40FC947636297025A
:10C374001375F50F636EE500834604001147E1472A
:10C384006368D7008346140005476363D700814779
:10C39400B240224492443E85410182803E8582809F
:10C3A40015C1AA8709458DC141112E854146938542
:10C3B400170006C69740FF1FE7804055B24001456D
:10C3C4004101828009458280828089471DC595C5C7
:10C3D400411106C603471500AE8719462380E500C0
:10C3E40093052500138517009740FF1FE78000522F
:10C3F400B24081473E85410182803E85828015C1DD
:10C40400AA8709458DC141112E85414693851700A0
:10C4140006C69740FF1FE780604FB24001454101C7
:10C42400828009458280828089471DC995C941114E
:10C4340006C60347250083461500AE872207558F9D
:10C444002390E50021469305350013852700974086
:10C45400FF1FE780A04BB24081473E8541018280A7
:10C464003E85828015C1AA8709458DC141112E855B
:10C4740041469385170006C69740FF1FE780004991
:10C48400B24001454101828009458280828089470A
:10C4940019C991C903471500BD46E14763E5E600A4
:10C4A4002380E50081473E85828015C1AA8709451E
:10C4B4008DC141112E8541469385170006C69740CC
:10C4C400FF1FE780A044B240014541018280094535
:10C4D4008280828015C1AA8709458DC141112E85AC
:10C4E40041469385170006C69740FF1FE780004228
:10C4F400B2400145410182800945828082801DC18C
:10C50400AA87094595C141112E8513060004938518
:10C51400170006C69740FF1FE780403FB240014521
:10C524004101828009458280828015C1AA8709451C
:10C534008DC141112E8541469385170006C697404B
:10C54400FF1FE780A03CB2400145410182800945BC
:10C55400828082801D71A2CC2A84084586CEA6CA18
:10C56400230601008344050035479387F4FF93F7BE
:10C57400F70F636CF70C172701001307A7CB8A0783
:10C58400BA979C43BA9782870C08EFF0FFCFC9474C
:10C594006312F50299472306F100035524006C0049
:10C5A400EFF09FB0F6406644D644256182800C08C3
:10C5B400EFF05FEB29C98347C100E5F3035524007D
:10C5C400EFF08FF4C5B70C08EFF03FEEE5B70C08B9
:10C5D400EFF0FFEBC5B70C08EFF09FDCE1BF0C08F0
:10C5E400EFF09FE4C1BF0C08EFF07FE1E1B70C0866
:10C5F400EFF0BFDDC1B70C08EFF0DFED65BF834797
:10C6040015002308F10003552400EFF08FA0A14783
:10C6140015C10347C500631CF7029777FF1F938773
:10C6240027ED98439D4719C7184309C71008A685E5
:10C634000297AA872306F100BDBF0C08EFF03FEC78
:10C6440095BF0C08EFF07FEEB5B79D47A9B7977774
:10C65400FF1F9387A7E9F1B7011122CC06CE26CAA2
:10C664004AC84EC603470500930720092A84631D60
:10C67400F7128347150039476395E70A8356450047
:10C684000967610781476399E6109779FF1F9389CA
:10C6940029E703A50900CE84630005100C4403C9EF
:10C6A4000500631E09008347050085052146B9CBB3
:10C6B40029059740FF1FE78060259C40ADC349458D
:10C6C400EF60EFBE2A840DC5930710FC2300F5002C
:10C6D400A30025018C400905414689059740FF1FA9
:10C6E400E780C0229C40A28503C51700EF608FCA73
:10C6F40088409750FF1FE78020E19777FF1F23A111
:10C7040007E031A809059740FF1FE7802020EF309C
:10C71400A03B05495DF183A70900238027018547D4
:10C72400A5A81307E003639FE7080347250095477F
:10C734006310F70403554500EFF08FAF9147E31002
:10C74400F5FE9777FF1F938767DA9C43E9DB03A322
:10C754008700E30603FC0356E400035544009305F5
:10C7640064006244F240D2444249B2490561028302
:10C77400A147631EF70083456400035544006244E7
:10C78400F240D2444249B24905616FF0AFFC9306CE
:10C7940000038147E301D7FEF2406244D244424998
:10C7A400B2493E85056182809306000A8147E315FC
:10C7B400D7FEEFF03FDA08443DD19750FF1FE780E2
:10C7C400A0D4B1BF8147C9BF011126CA06CE22CC6D
:10C7D40089441DCD95CDAA842E8468008D45EF70C3
:10C7E4007FB78347E1002685228693F7F70393E713
:10C7F40007046C002307F100EF20E034AA8409E960
:10C804000D466C00130534009740FF1FE7800010AD
:10C81400F24062442685D244056182805D714EDE19
:10C8240086C6A2C4A6C2CAC052DC56DA5AD85ED69C
:10C83400894945CD5DCA138B4500420B135B0B013F
:10C84400AE8A2A8A930530055A85B2849750FF1F11
:10C85400E780A0BC2A84CD4949C9EF709FE22A89A8
:10C864005686D285935A8900135A0901937BF90F8E
:10C874001305440093FAFA0F137AFA0F1359890136
:10C884009740FF1FE780401EA30174012301540158
:10C89400A300440123002401EF70FFDDAA85414673
:10C8A40008089740FF1FE780201C214734005A8660
:10C8B400A2850808EF20C04FAA891DE121462C005B
:10C8C40023807401A380540123814401A3812401A2
:10C8D400138544009740FF1FE7800019EF705FDB6A
:10C8E40022859750FF1FE78020C2B64026444E851C
:10C8F40096440649F259625AD25A425BB25B61616C
:10C90400828001114AC82A892E8506CE22CC26CAE5
:10C914002EC6EFE01FF069C5405969C4834754002F
:10C924000947B24593F6B70F6386E60011474945B8
:10C934006392E708835704000945639DB70693048F
:10C9440084004146CA8526859740FF1FE78000FC86
:10C954004146CA85130584019740FF1FE78000FB09
:10C964000347340085469307F7FE93F7F70F63E90F
:10C97400F6041306C4033285C14532C6EF709F9D89
:10C9840032469306C402A6852285EFF0BF82834710
:10C99400240089CB22856244F240D2444249056195
:10C9A4006F10800D03473400C947E305F7FEA30168
:10C9B400F4000145F2406244D24442490561828058
:10C9C400930710050145E317F7FE83472400FDD3C1
:10C9D40022856244F240D244424905616F104010FE
:10C9E4000945C9BF4945F9B729CD011126CA06CE63
:10C9F40022CCAA840945A9C10D4628002E848D05A0
:10CA04009740FF1FE78080F08347A10070002C004F
:10CA140093F7F70393E7070426852305F100EF2036
:10CA2400801219E90D46A28568009740FF1FE78030
:10CA340000FF7D153335A000F2406244D244056105
:10CA4400828009458280011152C42A8A32854EC6E9
:10CA540056C25AC006CE22CC26CA4AC82E8BB28AE7
:10CA6400B689EFE01FDB09ED8944F2406244268574
:10CA74004249D244B249224A924A024B0561828019
:10CA84005C592A89C544F5F34D45EF806FC713748B
:10CA9400F50F5145EF80CFC6E38809FC83C78901B0
:10CAA400E3E487FC1375F50FE360F5FC93053005AB
:10CAB400130540089750FF1FE7802096232AA902F8
:10CAC4002A84CD445DD11306400881459740FF1F59
:10CAD400E78060EAA3010400230144012302640106
:10CAE400231054012326340723240402A302040040
:10CAF4008144E30C0AF62285EF001072AA8435D52E
:10CB04004A85EFF00FAE95B7397122DC06DE26DADE
:10CB14004AD84ED652D456D25AD05ECE62CC66CAC9
:10CB24000944630B061063090710AA8B3A89368BF4
:10CB3400B28A2E8CEFE0FFCD2A8A5144630E050E93
:10CB44009305300541459750FF1FE780008DAA8962
:10CB54004D447DC18344190083472900A204C207C0
:10CB6400BE9483470900BE9483473900E207BE940C
:10CB740083278A0263E697007D5709446399E70A8D
:10CB840063070C0083474A000544898BCDC3930C8B
:10CB94004B00214681450A85C20C9740FF1FE78060
:10CBA40080DD93DC0C019305300566859750FF1FEB
:10CBB400E780A0862A8C4D443DC95A86D685110546
:10CBC4009740FF1FE78040EA1146CA856285974077
:10CBD400FF1FE78060E9414693058A014E8597402F
:10CBE400FF1FE78060E821478A866686E2854E85D6
:10CBF400EF20001C2A841DE521468A8528009740E1
:10CC0400FF1FE78060E6214693054900280097400E
:10CC1400FF1FE780C0E08547631EF502A6855E8599
:10CC2400EF802FE462859750FF1FE780E08D4E85EB
:10CC34009750FF1FE780408D2285F2506254D254F2
:10CC44004259B259225A925A025BF24B624CD24C6C
:10CC5400216182800544F9B779719397050122D443
:10CC640006D626D24AD04ECEC1872E8463D5070479
:10CC74001775FF1F0345F589EF50FFE92AC605C163
:10CC8400EFF09F9DB24509E91775FF1F03456588BD
:10CC94009307F00F631EF5002E85EF507FDC2165AE
:10CCA400218DB250225492540259F2494561828036
:10CCB400EF505FEEEDB793F7150091C7EFF08FA338
:10CCC40013451400F9BFA1E10145E1BF850493F4C4
:10CCD400F40FEFE01FCEE3F9A4FE33959900131986
:10CCE400050113590901B3772401EDD34A85EFE017
:10CCF400FFF1C167FD176305F500DD45EFF04F96C1
:10CD04003345240179BF85448549E1B79767FF1FFF
:10CD140023A8077E9767FF1F23AC077C9767FF1F35
:10CD240023A6077C9767FF1F9387C77D170700001B
:10CD34001307876198C31707000013078731D8C307
:10CD440017F7FFFF1307270098C79767FF1F9387FD
:10CD5400677A171700001307475898C3171700007E
:10CD64001307870DD8C3171700001307A73B98C7ED
:10CD740082809767FF1F83C7E779A18B1767FF1F1F
:10CD84001307477891E301479767FF1F23A2E776CC
:10CD9400014582809767FF1F83C7C777918B176709
:10CDA400FF1F1307277591E301479767FF1F23AF01
:10CDB400E77201458280011106CE2AC6EFF01FF505
:10CDC400324599459767FF1FA385A774EFD04FB8E5
:10CDD400F24017F5FFFF1305E50E05616FE01FBE76
:10CDE4001C5581C7A1473E858280011122CC26CAE9
:10CDF4002A84AE84130500049305300506CE9740BB
:10CE0400FF1FE780806108D4630505101306000442
:10CE1400A6859740FF1FE78060AF785483472701BA
:10CE240093F68700638E0610145483C62600A18AE5
:10CE34006388061083270408E9EF9305300513057A
:10CE440000109740FF1FE780405D2320A4088D4712
:10CE540071C1A3020400785483C7140083461700E9
:10CE640081EF81EE83C72400918BDDEB834727019B
:10CE7400918BDDE7854711A889C62147A302E40009
:10CE840099C78347540093E70701A302F4006C5445
:10CE940083C72501858B91CF1C54054783C7270081
:10CEA4008D8B6398E7008347640093E7170023039F
:10CEB400F4008327040899C78347640093E7870035
:10CEC4002303F4008347540005476393E70C93045A
:10CED40084004146814526859740FF1FE780A0A92D
:10CEE40041468145130584019740FF1FE780A0A8B0
:10CEF4001306C4033285C14532C6EF70AFC583271C
:10CF040004083246BDC72285EF00903D9307000513
:10CF140025CDA147F2406244D2443E85056182801A
:10CF240083C704008346070015473387E702971732
:10CF3400010093876735BA97B69783C70700B1B7DF
:10CF440083C6140091C68346170099C2E14735BFD2
:10CF540083C62400D58F918B91DF83C70400834659
:10CF6400070015473387E7029717010093870730B7
:10CF7400D9B79306C402A6852285EFF0AFA3228514
:10CF8400EF00902FC14751F5A301F400814759B731
:10CF940013F787013DCFC18B930484004146B9C781
:10CFA400890526859740FF1FE780409641468145C5
:10CFB400130584019740FF1FE780E09B83476400CB
:10CFC4001306C403328593E747002303F400C145E5
:10CFD40032C6EF702FB883270408324699CF2285D2
:10CFE400EF0010309307200545D125B781452685EC
:10CFF4009740FF1FE780209855BF9306C402A6857B
:10D004002285EFF02F9B2285EF001027CD472DDDE1
:10D0140009B709478545638AE7001147894563864F
:10D02400E70019476397E7008D4503550400EF8037
:10D034000F8E8347640093E747002303F40083279C
:10D04400040881C79307100581B7C54735BF8347D7
:10D05400250063840726797122D406D626D24AD0C5
:10D0640083473500130750052A846390E708034972
:10D0740075001306C503C14593573900AA97328535
:10D0840083C4870032C6EF70EFAC9767FF1F9387A6
:10D0940067529C43A9C79C47B9C3032504089376E8
:10D0A4007900B3D6D4403246858A9305050418081E
:10D0B40093E606081305050882971375F50F05E135
:10D0C40041460C081305C4029740FF1FE780008403
:10D0D4002285EF00701A93076005A301F400B25093
:10D0E40022549254025945618280130710026395B9
:10D0F400E7021C550327050883D7470069EB13F79C
:10D10400071071C77855035747011377071061C398
:10D1140093077002A301F4008347340013077002DD
:10D12400639FE70C3C5885E39305300571459740B0
:10D13400FF1FE780802E28D819C571468145974086
:10D14400FF1FE78040832458B9C883C7A40191E72F
:10D154002285EFF06F91238DA40028588145414624
:10D164009740FF1FE780208128583D478345A5014C
:10D174009387F5FF93F7F70F6364F700EF708F9DC4
:10D18400EF505FBD3C58A1452398A70013852701A4
:10D19400EF704F9C2C5803550400EF00B03F9307E9
:10D1A400800203550400A301F400EFE08FE641463A
:10D1B40011C58357E50013D617003E96060685452C
:10D1C4001765FF1F0345F534EF50DFEA09BF13F776
:10D1D400072011CB7854035747011377072001C761
:10D1E4009307900205BF93F707409DD77C5483D7DC
:10D1F400470193F707408DD39307B00221BF13076C
:10D204008002639BE7023C5889CB83D50701035511
:10D21400040013862701EF00703D1C5483D7470098
:10D2240013F707202DC378540357470113770720BA
:10D2340039CB93079002B5B713079002639CE700BC
:10D24400EF70AFC2AA8503550400EF00303993078D
:10D25400A00281BF1307A0026393E704EF704FC0DD
:10D26400AA85854701456384F500814505452EC699
:10D27400EF70CFBC2A86B24503550400EF0090320C
:10D284001C5483D7470093F707408DC77C5483D73A
:10D29400470193F7074099CF9307B00219B71307D3
:10D2A400B0026399E700EF700FBDAA85035504002F
:10D2B400EF0050379307F0020DB58280411122C46C
:10D2C400405926C206C67C54AA8483D7470113F763
:10D2D400071019C7185403574700137707101DE3A5
:10D2E40013F7072019C7185403574700137707206B
:10D2F40011EB93F707408DCF1C5483D7470093F766
:10D3040007409DC793071002A301F4002285EFF0A4
:10D314001FD4034734009307F0026310F70222443A
:10D3240003D52400B2409244814541016FE05FB3CC
:10D334009307F002A301F400DDB7B2402244924403
:10D3440041018280397122DC405926DA4AD84ED60E
:10D3540006DEAA89AE8432896300043E03552500A3
:10D36400835704006384A700A14429A083472400B1
:10D3740091EB9D44F250625426854259D254B259DD
:10D38400216182809387E5FF93F7F70F2D47E362CE
:10D39400F7FE171701001307E7F08A07BA979C43B3
:10D3A400BA978287B2852285EFF09FA3AA84D9B762
:10D3B4004146CA851305C4049730FF1FE780005512
:10D3C4002285ED25AA8411C1A144834734001307A3
:10D3D40040056397E70093079005A301F40059BF44
:10D3E400130760056395E7009307A005FDB7D147D0
:10D3F400EDB79309C4054E854146CA859730FF1F92
:10D40400E780C050032504085DC98347340013072F
:10D4140090056399E700228535279307E005A3016A
:10D42400F40061A81307A0056395E7088347740017
:10D4340013D737002297834687009D8BB3D6F640D7
:10D444009767FF1F938707179C43858A93E606F81F
:10D4540093F6F60F91DB9C4781DB930505081808CA
:10D464004E861305050482979374F50FE39E04EE2C
:10D4740041460C081305C4049730FF1FE780205A67
:10D48400834774004D47850793F7F70FA303F40010
:10D494006377F70022857D259307E0053DBF854529
:10D4A4001765FF1F0345F506EF509FA69307500528
:10D4B4002DB71307C005E380E7F6814465BD130962
:10D4C40084004E86CA8522851408EFE0BFCE41460B
:10D4D4009305C40408089730FF1FE7804054E30B0A
:10D4E40005E88A861306C403CE854A85EF10F00248
:10D4F40015E12285EFE05FD79767FF1F93878700C9
:10D504002A879C4703550400814601468A858297F1
:10D51400AA8411C1A14493072002C1B58345060022
:10D52400EFE01F9459BF0347340093072002E3122E
:10D53400F7E47C5889EB9305300571459740FF1F4C
:10D54400E780A0ED68D86858E30505E24146CA853E
:10D554009730FF1FE780803B64582285EFE0DFD0DF
:10D56400238DA400930730025DBD03473400930765
:10D574003002E310F7E0835706006858214693050C
:10D5840029002318F50049059730FF1FE78000386C
:10D594007C5483D7470113F7270035C71854035722
:10D5A4004700098B2DC39307400295BD0347340000
:10D5B40093074002E31FF7DA3C5C81EB854559454C
:10D5C4009740FF1FE78060E528DC285CE30705EE51
:10D5D4004146CA859730FF1FE780403393075002C6
:10D5E4003DBD0347340093075002E314F7D8285C89
:10D5F40019469305190041059730FF1FE780003154
:10D604007C5483D74701918B9DCF1C5483D747000B
:10D61400918B95CB9307600219B57C5C89EB9305DC
:10D62400300551459740FF1FE78020DF68DC685CC8
:10D63400E30C05D24146CA859730FF1FE780002DD1
:10D644007C5C7D5798CB4E85EFF05FC7BDB5032555
:10D65400040813060004CA85130505049730FF1F48
:10D66400E780C02A2285EFE01FB183473400130707
:10D6740000056395E7009307400555B313071005AC
:10D68400639CE70085451765FF1F034595E8EF5048
:10D694003F889307500561B313072005E39FE7E034
:10D6A4009767FF1F938707F19C43E38F07CA9C4743
:10D6B400E38C07CA8325040893048400180893851F
:10D6C4000508814626862E85829703550400100896
:10D6D400A685EF70BFAC9307B00591B30347340040
:10D6E4009307E005E317F7C88325040841464A85F4
:10D6F4009730FF1FE780A032AD44E30D05C6032534
:10D7040004084146CA859730FF1FE7802020228500
:10D71400EFE09FB59767FF1F9387C7DE2A879C4773
:10D724002C5803550400814601468297AA8411C1EE
:10D73400A1449307100255B1AD47E390F5D8834651
:10D744000600835525001306650003450500EF70A8
:10D754000FA8A5B3894761C2DDCD2300A60083C706
:10D764000500A300F60083C715002301F60083C754
:10D774002500A301F60083C73500A3020600230297
:10D78400F60083D74500A183858BA302F60003D757
:10D7940045001377072009C793E72700A302F60083
:10D7A40083D7450093F7074099C78347560093E70B
:10D7B4004700A302F60083D7450013974701635837
:10D7C40007008347560093E78700A302F60023036C
:10D7D400060083C74500858B2303F60003D7450065
:10D7E400098B09C793E727002303F60083D7450075
:10D7F400918B99C78347660093E747002303F6009C
:10D8040003D745008147218B19C703476600136777
:10D8140087002303E6003E8582802E86AA8505457F
:10D824006FF05FF32E86AA8509456FF0BFF2894732
:10D834008DC505C5411106C6AE870D47AA8523804F
:10D84400E7001385170041469730FF1FE780000C5F
:10D85400B24081473E85410182803E85828089476E
:10D864008DC505C5411106C6AE871147AA8523801B
:10D87400E7001385170041469730FF1FE780000932
:10D88400B24081473E85410182803E85828089473E
:10D894008DC505C5411106C6AE871947AA852380E3
:10D8A400E7001385170041469730FF1FE780000605
:10D8B400B24081473E85410182803E85828089470E
:10D8C4009DCD15CD411106C61D472380E5000357A4
:10D8D4000500AE872146A380E50003570500218398
:10D8E4002381E50093052500138537009730FF1F3A
:10D8F400E780C001B24081473E85410182803E8578
:10D90400828089478DC505C5411106C6AE8721476A
:10D91400AA852380E7001385170041469730FF1F2F
:10D92400E780C0FEB24081473E85410182803E854A
:10D934008280894795C90DC9411106C625472380B0
:10D94400E50003470500AE871946A380E50093056B
:10D954001500138527009730FF1FE78020FBB24096
:10D9640081473E85410182803E85828089478DC5FD
:10D9740005C5411106C6AE872947AA852380E7005D
:10D984001385170041469730FF1FE78020F8B24007
:10D9940081473E85410182803E858280894795C5C5
:10D9A4000DC5411106C6AE873147AA852380E7001D
:10D9B40013851700130600049730FF1FE78000F556
:10D9C400B24081473E85410182803E8582808947FD
:10D9D4008DC505C5411106C6AE873547AA85238086
:10D9E400E7001385170041469730FF1FE78000F2D8
:10D9F400B24081473E85410182803E8582808947CD
:10DA040091C909C995472380F50083470500A38080
:10DA1400F50081473E85828015C55D718A8586C67D
:10DA2400A2C42A84EFE0CFEF035504000A869706C8
:10DA340000009386C6DE9D45EFE04FE1B6402644E4
:10DA4400616182800545828015C55D718A8586C6BF
:10DA5400A2C42A84EFE0CFEC035504000A8697069B
:10DA64000000938666DC9D45EFE04FDEB640264419
:10DA740061618280054582805D71A2C49305C502FF
:10DA84002A8441460A8586C69730FF1FE78000E84E
:10DA9400035504000A8697060000938686D9C54577
:10DAA400EFE0CFDAB6402644616182805D71A2C4A2
:10DAB4009305C5032A8441460A8586C69730FF1F0D
:10DAC400E780C0E4035504000A86970600009386A5
:10DAD40046D9C545EFE08FD7B640264461618280C0
:10DAE4009767FF1F938707AD9C43B1CB9C435D7140
:10DAF400A2C486C62A841305E00F95CF0325040823
:10DB04009305050C1305050882978325040813065D
:10DB140000040A85938505089730FF1FE78000DF1E
:10DB24000355040097060000938686E70A8693054A
:10DB34001004EFE0AFD1B640264461618280130542
:10DB4400E00F8280317122DD2A840355050026DB33
:10DB540006DF4AD94ED752D556D35AD15ECF62CDBD
:10DB6400EFD03FCB3C58AA8489EB9305300571452F
:10DB74009740FF1FE780608A28D82858CD471DC9E1
:10DB8400714681459730FF1FE780E0DE03290407D3
:10DB94002285EFE06FED230DA90083472400176968
:10DBA400FF1F130929A1638A07128327090085E34C
:10DBB4009307E00FFA506A54DA544A59BA592A5A68
:10DBC4009A5A0A5BFA4B6A4C3E852961828083AB80
:10DBD4000701E38F0BFC032B0408EF607FA82A8C5A
:10DBE4000145EF60BFA583C754003858130B0B02DF
:10DBF4009309C403130AC405938A64003AC0B33773
:10DC0400F0002A87930801045688B33680015286AF
:10DC1400CE855A85829B1C5403C727002307E10243
:10DC240003C71700A306E10283C707002306F10216
:10DC340083270900B5DF03AB4701E30B0BF683C76A
:10DC44005400B337F0003ECEEF609FA1AA8B01458C
:10DC5400EF60DF9E03270408F2472AC03AC2B338B4
:10DC6400700156887810930684004E86D285880009
:10DC7400029B7C5403C727012305E10203C7170055
:10DC8400A304E10283C707002304F10283270900E8
:10DC940003A94701EF60DF9C2A8B0145EF601F9ABF
:10DCA40083C854009C082A883EC2B3381001B33795
:10DCB40060013810930684015286CE8556C08800D0
:10DCC40002990355040097060000938686D09008B5
:10DCD400C545EFE0AFB7AA87F1BD83C654008327DB
:10DCE4000900032B0408B336D00083AB070136CEFA
:10DCF400EF601F972A8C0145EF605F943C58F24611
:10DD0400130B0B02130AC4059309C403938A64001A
:10DD14002A88930801044E86D2853EC05687B337BD
:10DD240080015A85829B1C54130B010303C72700EF
:10DD34002307E10203C71700A306E10283C7070014
:10DD44002306F1028327090083AB470183C75400EC
:10DD5400B337F0003ECEEF60BF902A8C0145EF60F0
:10DD6400FF8DF2472AC0B338800156887810930695
:10DD740084004E86D2855AC28800829B832504087B
:10DD840041465A859730FF1FE78060C9AD47E312CB
:10DD940005EE0DB52E8697060000938686AFC54521
:10DDA4006FE0CFAA5D71B287A2C42300B1002A84B8
:10DDB400BE8513051100194686C69730FF1FE780FC
:10DDC400E0B40A862285970600009386C6B6A1456C
:10DDD400EFE0CFA7B6402644616182802E86970685
:10DDE4000000938646B2C5456FE04FA65D71B287C9
:10DDF400A2C42310B1002A84BE8513052100214644
:10DE040086C69730FF1FE78060B00A862285970692
:10DE14000000938606ABAD45EFE04FA3B640264421
:10DE2400616182802E8697060000938666B4C5459C
:10DE34006FE0CFA1797122D406D626D2834735006C
:10DE4400130730052A846385E70813075005639791
:10DE5400E7089307A005A301F50083477500C145B2
:10DE640013D737002A97834687009D8B1305C50374
:10DE7400B3D6F640858A93E606F893F6F60F36C6CF
:10DE8400EF604FCDB2469757FF1F9387A7729C430D
:10DE94009DCB9C478DCB0325040818081306C403A7
:10DEA400930505041305050882971375F50F01ED15
:10DEB4001305C40241460C089730FF1FE78000A5F4
:10DEC4002285EFF07FBBB250225492544561828088
:10DED40093079005A301F500814675B71307100257
:10DEE4006396E7027C550327050883D74701631926
:10DEF400070E13F717006305070E1855035747005D
:10DF0400058B79CF93072002A301F40083473400E3
:10DF1400130720026390E7103C5889EB9305300502
:10DF240071459730FF1FE780404F28D82458C9C057
:10DF34002285EFE06FB3238DA40028588145414624
:10DF44009730FF1FE78020A328583D478345A5014C
:10DF54009387F5FF93F7F70F636DF7029757FF1F4A
:10DF640083C7F765CDC74146814508089730FF1F31
:10DF7400E78060A019469755FF1F9385254508083B
:10DF84009730FF1FE780809830580C082E85EF30BB
:10DF94008029EF403FDC3C58A1452398A700138516
:10DFA4002701EF602FBB2C5803550400EFF09FDED0
:10DFB4009307300203550400A301F400EFD07F85DA
:10DFC400414611C58357E50013D617003E96060651
:10DFD40085451755FF1F0345D553EF50AF89E5B568
:10DFE40013F7270009CB185403574700098B01C7BF
:10DFF4009307400211BF918BE38A07F01C5483D727
:10E004004700918BE38407F093076002F5BDEF604E
:10E014006FB441B713073002639AE7023C5889CBC7
:10E0240083D507010355040013862701EFF01FDC95
:10E034007C5483D7470113F7270021CF1854035783
:10E044004700098B39C793074002ADB71307400255
:10E05400639CE700EF606FE1AA8503550400EFF0CD
:10E06400FFD793075002B9B7130750026390E70430
:10E07400EF600FDF0DE9814505452EC6EF600FDC2B
:10E084002A86B24503550400EFF0DFD17C5483D7D0
:10E094004701918B9DC71C5483D74700918B95C32F
:10E0A4009307600201BF85450145C1BF13076002A4
:10E0B4006399E700EF602FDCAA8503550400EFF0B5
:10E0C4007FD67C540327040883D7470119EF13F73D
:10E0D400071001CF1854035747001377071011C7CF
:10E0E40093077002A301F400F9BB13F7072011CBC7
:10E0F4001854035747001377072001C7930790026A
:10E10400D5B793F7074091CB1C5483D7470093F7B7
:10E11400074081C79307B002F1B79307F002D9B75C
:10E12400397122DC26DA4ED652D406DE4AD8AE89BC
:10E13400328AAA84EFD0EFED4059414681450A85E1
:10E144009730FF1FE780208325C803590400631517
:10E1540099060347340093071002631FF7028327CD
:10E16400040899CF2C58A9C94A85EF1030170545E2
:10E17400F2506254D2544259B259225A21618280D7
:10E184008A861306C4059305C40313058400EF00AF
:10E19400D0381DE18A85C9BF2C5899CD83D7050194
:10E1A400639C47012146C9054E859730FF1FE780D0
:10E1B400008719C12C584DBF2685EFD08FE52A84DE
:10E1C40005455DD44C54B9C583D70501639447050F
:10E1D4002146C9054E859730FF1FE7804084854757
:10E1E400631AF50283C7318291C74C5483C7B501C2
:10E1F400639EA70CBD452685EF1050099757FF1F56
:10E204009387C7159C5B0145A5D71D458945829712
:10E214000145B9BF9757FF1F9387873A03C7070084
:10E224009759FF1F938989133E89058B31C303478F
:10E2340054009757FF1F83C72738631BF7021946FB
:10E244009755FF1F93855537130564009720FF1FCB
:10E25400E780E07C8547631DF50083A7090381C738
:10E2640091451D458297BD452685EF10300201B7C3
:10E274001757FF1F0347B73483A7090331CB03475D
:10E284000900098B09CB81C795451D4582972685D1
:10E29400EF101005E9BD81C78D451D4582974146A4
:10E2A400814508089720FF1FE780E06C19469755C1
:10E2B400FF1F9385A51108089720FF1FE7800065BD
:10E2C4000C082E850A86EF2010768A85268571BD76
:10E2D4008545C5FF6DBF797122D440594AD04ECED1
:10E2E40052CC06D626D2AA892E8A32896306046ABB
:10E2F4000355250083570400638CA700A144B25042
:10E304002254268502599254F249624A4561828018
:10E314008344240099C09D44DDB79387F5FF93F7A8
:10E32400F70F3147E369F7FE17070100130787FA70
:10E334008A07BA979C43BA9782871C54E1F39305E2
:10E344003005130500049730FF1FE780000D08D443
:10E3540055D503470900914763F4E7008D4445B759
:10E36400034719008547E3EBE7FE13060004CA855B
:10E374009720FF1FE78080590C547054A3020400B7
:10E38400D4415C4A858AFD8E83574601F99BD58F1B
:10E39400231AF600D841544AF59B0583058B8582E0
:10E3A400F98E8606DD8E231AD600DC41584AED9A92
:10E3B4008983858B09837D8F0A07558F231AE6008D
:10E3C400D4415C4A5D9B8D82858A8D83F58F8E074F
:10E3D400D98F231AF600D841544A93F7F7EF2183D3
:10E3E400058BA182F98EA206DD8E231AD600DC41AC
:10E3F400584AA583858B25837D8F9317970013F740
:10E40400F6DF5D8F231AE600D4415C4AA982858A2F
:10E41400A983F58F9396A7009377F7BFD58F231A17
:10E42400F600D441584AAD82858A2D83758FFD76D6
:10E434009386F67F2E07F58FD98F231AF60083472C
:10E44400260103250408A18B6381071083C72500D7
:10E45400A18B638C070EE31305EA930530051305BE
:10E4640000109730FF1FE78040FB2320A408E30738
:10E4740005EE7C54A30204000347190083C6170069
:10E4840089EA51CB8347540093E70701A302F400C0
:10E4940029A0A147A302F40075F72285EFF0CFDA93
:10E4A4006C5483C72501858B81CF1C5483C72700F7
:10E4B4008D8B99C78347640093E717002303F40007
:10E4C4008327040899C78347640093E787002303DD
:10E4D400F400834754000547639FE70A414681459A
:10E4E400130584009720FF1FE780E04841468145DB
:10E4F400130584019720FF1FE780E047C1451305FA
:10E50400C403EF503FE583270408C1C79307000500
:10E51400A301F400EDB303C72701118B19E70347E7
:10E524002900118B19E3854795B783C707008346F4
:10E53400090015473387E702970701009387C7D47B
:10E54400BA97B69783C7070091B719C59730FF1FCD
:10E55400E78080FB232004087C5403C7170011C7FD
:10E564000347190019C3E14715B703C72701118BE6
:10E5740009E703472900118B5DD783C707001547B7
:10E58400834609003387E70297070100938707CE84
:10E5940045BFC147B5BF13F7870121CFC18B130511
:10E5A400840041469DCF89059720FF1FE7800036F0
:10E5B40041468145130584019720FF1FE780A03B56
:10E5C40083476400C1451305C40393E7470023034D
:10E5D400F400EF503FD88327040891CB930720051C
:10E5E40005BF81459720FF1FE780E038D1B7CD47AD
:10E5F40005B709478945638AE7001147854563865E
:10E60400E70019476397E7008D4503550400EF6061
:10E614001FB08347640093E747002303F400832774
:10E62400040881C793071005E5B5C547D5B541462C
:10E63400CA851305C4049720FF1FE780202D834754
:10E64400340013076005639CE70085451755FF1FD9
:10E65400034535ECEF40DF8B9307500555BD454727
:10E664006383E7029306C4021306C403930584007C
:10E674002285EFD03FB42285EFF00FC0AA8411C1E8
:10E68400A144D14771B5C94761B59309C4054E8505
:10E694004146CA859720FF1FE780402703250408C9
:10E6A40071CD83473400130790056398E7002285F2
:10E6B400EFF0CFBF9307E005A1BD1307A005639F4B
:10E6C400E7069757FF1F9387E7EE9C43E38507C44C
:10E6D40003A88700E30108C4834774009305050871
:10E6E4004E8613D737002297834687009D8B0A876F
:10E6F400B3D6F640858A93E6060813050504029806
:10E7040041468A851305C4049720FF1FE780203102
:10E7140011E1D2842285EFF06FB983477400CD46AE
:10E724001307E005850793F7F70FA303F40063E4E9
:10E73400F60013076005A301E400D1B61307C00572
:10E74400E39FE7BA9757FF1F9387C7E69C43E38489
:10E7540007BC9C47E38107BC9305050813098400A3
:10E764000A8781464A862E858297035504000A86C5
:10E77400CA85EF60BFA29307B00559BB8A864E864F
:10E78400930584002285EFD0FFA241469305C4047B
:10E794000A859720FF1FE78080288547D284E310ED
:10E7A400F5B62285EFF08FB0AA84E31905B4930778
:10E7B4001002B9BB0347340093077002E31DF7B49A
:10E7C4007C5889EB9305300571459730FF1FE7802E
:10E7D400C0C468D86858E30005B4CA854146972088
:10E7E400FF1FE780A012032944072285EFD0DFA78B
:10E7F400230DA9009307800221BB0347340093072C
:10E804008002E31AF7B0835706006858214693053F
:10E8140029002318F50049059720FF1FE780000F02
:10E824007C5483D7470113F7072025CB185403578B
:10E8340047001377072035C393079002D1B90347E4
:10E84400340093079002E318F7AC3C5C89EB930522
:10E85400300559459730FF1FE78020BC28DC285C31
:10E86400E30B05AA4146CA859720FF1FE780000AEB
:10E874009307A00271B9034734009307A002E31C75
:10E88400F7A8285C19469305190041059720FF1F36
:10E89400E780C0077C5483D7470193F70740B1C78B
:10E8A4001C5483D7470093F70740A1C39307B002D2
:10E8B40085B1034734009307B002E31EF7A47C5CE0
:10E8C40089EB9305300551459730FF1FE780E0B48D
:10E8D40068DC685CE30405A24146CA859720FF1FF3
:10E8E400E780C0027C5C7D5798CB03D52900814525
:10E8F400EFD00FD729B4034734009307F004E3FFA4
:10E90400E79E03250408E30B059E13060004CA854D
:10E91400130505049720FF1FE78040FF2285EFF0D1
:10E924002F9CAA842285EFD01F85834734001307C8
:10E934000005639FE70003D6E90085451755FF1FCF
:10E94400034535BD0606EF40EFF293073005C9B61F
:10E95400130710056395E7009307600555BE130779
:10E964002005E39EE7989307C0055DB6034734008E
:10E974009307E005E314F798032504084146CA8584
:10E984009720FF1FE78080F82285EFF0AF9BAA84D1
:10E9940039BD83450600A9BF85478144E391F596B7
:10E9A40003284600834736000347260083461600A3
:10E9B40083552500034606000145EF50FFF781B259
:10E9C4008147C1463307F500B388F50003470700C4
:10E9D40083C808003308F60085073347170123006E
:10E9E400E800E391D7FE82800147BD471308F00F8A
:10E9F4003306F50083460600B388F500FD17860646
:10EA0400558F2380E8000347060093F7F70F1D8313
:10EA1400E39007FF82808147930800F8414893F60A
:10EA2400F70F3387F50063FCC600B306F50083C611
:10EA340006002300D7008507E39307FF82806395D0
:10EA4400C60023001701C5BF23000700EDB701115D
:10EA54004AC856C22E89AA8A93053005414506CE76
:10EA640022CC26CA4EC652C4328A9730FF1FE78092
:10EA7400C09AAA849305300541459730FF1FE7806B
:10EA8400C0992A84CD49A5C431CD414681459720FA
:10EA9400FF1FE78040EE2686A2855685EF20A078EA
:10EAA400AA8929E18387040063D30706A285268502
:10EAB400EFF09FF34A86970501009385E58422854C
:10EAC400EFF01FF08307090063D80704A2854A8585
:10EAD400EFF09FF15286970501009385E582228528
:10EAE400EFF01FEE26859730FF1FE780E0A111C4E9
:10EAF40022859730FF1FE78020A1F24062444E85B3
:10EB0400D2444249B249224A924A05618280CA8566
:10EB14002685EFF07FED7DB7D2854A85EFF0DFECF7
:10EB2400D1B781474146B306F5003387F500034763
:10EB3400070003C806008507334707012380E60062
:10EB4400E393C7FE8280011126CA4EC6AE84AA8909
:10EB540093053005130500034AC806CE22CC32893A
:10EB64009730FF1FE780608B2DC513060003814596
:10EB74002A849720FF1FE78000E04146CE85228546
:10EB84009720FF1FE78040EEA6850D461305D401AC
:10EB94009720FF1FE78040ED13060402930504014C
:10EBA4002285EF204068AA840D469305D4024A8545
:10EBB4009720FF1FE78040EB22859730FF1FE780F7
:10EBC400A094F240624426854249D244B249056188
:10EBD4008280CD44FDB75D714EDE62D4AE892A8C4D
:10EBE4009305300513050003A6C2CAC052DC56DAE9
:10EBF4005AD85ED686C6A2C4B28B368BBA84BE8A75
:10EC04004289468A9730FF1FE780208163050510FB
:10EC14001306000381452A849720FF1FE780A0D5AF
:10EC24004146E28522859720FF1FE780E0E34146C5
:10EC340081450A859720FF1FE780E0D31D46DE85C6
:10EC44000A859720FF1FE78020E21D46DA85130519
:10EC540071009720FF1FE78020E133392001B3348E
:10EC6400900041468145080823072101A30791002C
:10EC74009720FF1FE78020D01946D68548089720A3
:10EC8400FF1FE78060DE1946D2851305A101972096
:10EC9400FF1FE78060DD930404014146CE8526858D
:10ECA4009720FF1FE78040DC8A852685EFF07FE709
:10ECB400930904024E86A6852285EF20C0562A8930
:10ECC4000DE94146CE8526859720FF1FE78000C4C5
:10ECD4000C082685EFF0FFE44E86A6852285EF20FA
:10ECE40080542A8946454146CE859720FF1FE780F8
:10ECF400A0D722859730FF1FE7800081B6402644C5
:10ED04004A8596440649F259625AD25A425BB25B2A
:10ED1400225C616182804D49D5B7011126CA52C473
:10ED2400AA842E8A13050003930530054AC84EC6EB
:10ED340006CE22CC3289B6899720FF1FE780E06D8A
:10ED440035C52A84A68541469720FF1FE780C0D198
:10ED5400930404012146D28526859720FF1FE7806E
:10ED6400A0D0CA852146130584019720FF1FE780A0
:10ED7400A0CF13090402A6854A862285EF20A04A63
:10ED8400AA844146CA854E859720FF1FE780C0CDDF
:10ED940022859720FF1FE7802077F2406244268572
:10EDA4004249D244B249224A05618280CD44F5B732
:10EDB40039715AD05ECE2A8BAE8B4145930530050E
:10EDC40006DE26DA52D456D262CC66CA6AC8368CBB
:10EDD400328DBA8C22DC4AD84ED69720FF1FE780AA
:10EDE400C063AA8A9305300541459720FF1FE78039
:10EDF400C0622A8ACD44638E0A0859C52A86D685FC
:10EE04005A85EFF0DFC4AA8441E1930530054145FA
:10EE14009720FF1FE78060602A89930530054145EC
:10EE24009720FF1FE780605FAA89630A090E6306C3
:10EE3400050E1304FD0011841376FD0049C07D14F2
:10EE44004204418035EE131544004E86D6855E9506
:10EE5400EFF01FB7414681454A859720FF1FE780A1
:10EE640080B1014D93170D01C18363F48708BDC0C0
:10EE74004A859720FF1FE7802069638709004E8534
:10EE84009720FF1FE780406856859720FF1FE78083
:10EE9400A06763070A0052859720FF1FE780C066BA
:10EEA400F250625426854259D254B259225A925A87
:10EEB400025BF24B624CD24C424D21618280014490
:10EEC400131544008A855E95EFF0FFB44E86D28513
:10EED4000A85BDBF93154D000A86DE954A85EFF07D
:10EEE4003FAE4A868A855A85EF20E033AA84050D11
:10EEF40095BFBDFC0A86CE854A85EFF07FAC4A8675
:10EF04008A855A85EF202032AA846686CA8562855E
:10EF14009720FF1FE780809FA1BFCD4491BFCD44C0
:10EF2400A9BF397162CC2A8C594526DA4AD84ED603
:10EF340052D456D25AD05ECE06DE22DCAE8B328B51
:10EF4400B68A3AC63E8AC289468983440104EF30B0
:10EF54001FB649C19167938717E92310F5008547C8
:10EF64002301F5002A8432472105630C0C0493071E
:10EF74001003A301F400194681459720FF1FE78081
:10EF8400809F23036401A3035401230A94002312E2
:10EF94007401231744012318340123192401A28581
:10EFA4006254F250D2544259B259225A925A025BD4
:10EFB400F24B624C1745FF1F0345855521616F30A5
:10EFC4007FBDA30104001946BA859720FF1FE7807F
:10EFD400E09345BFF2506254D2544259B259225A76
:10EFE400925A025BF24B624C21618280011122CC65
:10EFF4002A84314506CE2EC632C436C23AC0EF301A
:10F004001FAB29C19167938717E92310F5008D473A
:10F014002301F500A3018500B2452246924602472A
:10F024006244F2402312B5002313C5002314D50013
:10F034002315E500AA851745FF1F0345654D0561A6
:10F044006F305FB5F24062440561828001114AC8A5
:10F054002A89394526CA06CE22CC2EC6B284EF3080
:10F064001FA531C1B2459167938727E92310F500A5
:10F074009147A30125012312B5002A842301F50039
:10F08400A685190521469720FF1FE7802088A285C1
:10F094006244F240D24442491745FF1F03454547A5
:10F0A40005616F303FAFF2406244D244424905618A
:10F0B400828001114AC82A89414526CA06CE22CC3B
:10F0C4002EC6B284EF30BF9E29C19167B2459387A3
:10F0D40027E92310F50095472A84231225012301EB
:10F0E400F500214619059720FF1FE7802082A2859D
:10F0F400231794006244F240D24442491745FF1F4B
:10F104000345354105616F30FFA8F2406244D244A3
:10F11400424905618280011122CC2A84394506CEF8
:10F124002EC632C436C23AC0EF307F9829C19167E7
:10F13400938717E92310F50099472301F500B24599
:10F14400224692460247231285006244F24023136A
:10F15400B5002314C5002315D5002316E500AA85A0
:10F164001745FF1F0345C53A05616F30BFA2F24042
:10F17400624405618280797122D406D62A842EC61F
:10F1840032C436C23AC0EFC0CFE81DC1B2452246F0
:10F1940092460247231CB100231DC1002C0813060C
:10F1A400F00F2285231ED100231FE100EFC08FD56D
:10F1B400B250225445618280011122CC2A843945FF
:10F1C40006CE2EC632C436C23AC0EF305F8E29C195
:10F1D4009167938717E92310F5009D472301F500F4
:10F1E400B245224692460247231285006244F24009
:10F1F4002313B5002314C5002315D5002316E500F9
:10F20400AA851745FF1F0345A53005616F309F98F8
:10F21400F2406244056182805D712AC613052002B2
:10F22400CAC04EDE52DC56DA5AD85ED662D466D2F2
:10F234006AD086C6A2C4A6C26ECE2E8CB28B368B82
:10F244003AC43E8DC28CC68A035A010583594105CE
:10F2540003498105EF30BF8569C5916632439386C2
:10F2640016E9A9472A842310D5002301F500930D3C
:10F27400E4002105930444012247630D0306930728
:10F284001003A301F400194681459710FF1FE7807E
:10F29400806E194681456E859710FF1FE780A06D2B
:10F2A4001946814526859710FF1FE780C06C23030C
:10F2B4007401A30364012300240323128401231D86
:10F2C4005401231E4401231F3401A2852644B64061
:10F2D40096440649F259625AD25A425BB25B225CA6
:10F2E400925C025DF24D1745FF1F03456522616183
:10F2F4006F305F8ABA85A301040019469710FF1F77
:10F30400E780C060EA856E8519469710FF1FE78085
:10F31400E05F1946E68526859710FF1FE780005FAA
:10F3240079B7B640264496440649F259625AD25AED
:10F33400425BB25B225C925C025DF24D6161828051
:10F34400011122CC2A84214506CE2EC632C436C2EF
:10F35400EF30EFF515CD224692469167938717E972
:10F364002310F500B1472301F500A3018500B24540
:10F374002303C500A303D5006244F2402312B50061
:10F38400AA851745FF1F0345A51805616F309F80A7
:10F39400F240624405618280411126C2AA8451452B
:10F3A40006C622C4EF30AFF049C19167938717E9CD
:10F3B4002310F500B9472301F50083C714002A84FC
:10F3C40093856400A301F50083C7340003C72400B8
:10F3D4002105A207D98F231EF5FE83C744001946D1
:10F3E400230FF5FE83C75400A30FF5FE9710FF1FEC
:10F3F400E780C05183C7C400A2851745FF1F03459A
:10F4040025112307F40083C7E40003C7D400A2072F
:10F41400D98F2318F40083C7F4002309F40022448D
:10F42400B240924441016F30EFF6B240224492441C
:10F4340041018280411122C42A84194506C6EF3055
:10F444000FE70DC59167938717E92310F500C147AE
:10F454002301F500231285002244B240AA851745F2
:10F46400FF1F0345E50A41016F30CFF2B240224449
:10F474004101828041110D4506C6EF304FE30DC5B1
:10F48400930710F92300F5009307E003A300F500A8
:10F49400C5472301F500B240AA851745FF1F034560
:10F4A400250741016F300FEFB24041018280011105
:10F4B40022CC2A84294506CE2EC632C436C2EF3069
:10F4C4000FDF15CDB24592469167938717E9231054
:10F4D400F500C9472302B5002301F500A301850007
:10F4E4002304D50022466244F2402313C500AA85B2
:10F4F4001745FF1F0345C50105616F30AFE9F240B1
:10F5040062440561828001114AC82A892D4526CAB0
:10F5140006CE22CC2EC6B284EF306FD929C5B245AF
:10F52400930710F92300F5009307E003A300F50007
:10F53400CD47A30125012302B5002A842301F50048
:10F54400A685150519469710FF1FE780203CA28564
:10F554006244F240D24442491745FF1F034545FB2C
:10F5640005616F302FE3F2406244D24442490561A1
:10F574008280011122CC2A84214506CE2EC6EF308A
:10F584000FD305C9B2459167938717E92310F50096
:10F59400D1472303B5002301F500231285006244FB
:10F5A400F240AA851745FF1F034585F605616F30B4
:10F5B4006FDEF240624405618280011122CC2A840C
:10F5C400214506CE2EC632C4EF306FCE1DC522466D
:10F5D400930710592310F50023018500B245230336
:10F5E400C5006244F2402312B500AA851745FF1FE7
:10F5F400034505F205616F30EFD9F24062440561BD
:10F604008280011122CC2A84214506CE2EC632C422
:10F61400EF30EFC91DC922469167938727E923106C
:10F62400F500A1472301F500B24523038500A30398
:10F63400C5006244F2402312B500AA851745FF1F96
:10F64400034535ED05616F30EFD4F2406244056146
:10F654008280011122CC2A84314506CE2EC632C4C2
:10F6640036C23AC0EF30AFC415CD224685679387C2
:10F6740017C92310F50023018500B2452303C500F3
:10F68400924602476244F2402312B5002314D50087
:10F694002315E500AA851745FF1F034565E70561A6
:10F6A4006F304FCFF240624405618280011126CA57
:10F6B400AE844AC82A891385C40006CE22CC32C639
:10F6C400EF30EFBE1DCD8567B245938717E923015F
:10F6D4009500231225012A842310F500310508C45E
:10F6E40026869710FF1FE7806022A2856244F240BD
:10F6F400D24442491745FF1F034585E105616F3038
:10F704006FC9F2406244D2444249056182800111CA
:10F7140022CC2A84194506CE2EC6EF304FB905C92E
:10F724008567938717F92310F50085472301850022
:10F73400A301F500B2456244F2402312B500AA8544
:10F744001745FF1F0345C5DC05616F30AFC4F240A8
:10F75400624405618280411122C42A840D4506C693
:10F76400EF30EFB405C5930710F92300F500E9471E
:10F77400A300F500230185002244B240AA85174561
:10F78400FF1F0345E5D841016F30CFC0B24022448A
:10F7940041018280011122CC2A84214506CE2EC645
:10F7A400EF30EFB00DC99167938727E92310F50077
:10F7B400930700032301F500B24523038500624447
:10F7C400F2402312B500AA851745FF1F034575D4DF
:10F7D40005616F302FBCF2406244056182800111E3
:10F7E400214506CE2EC632C4EF306FAC05C98567FD
:10F7F400938707392310F500B24522468547230134
:10F80400F500F2402312B5002313C500AA8517455D
:10F81400FF1F034565C605616F30CFB7F240056130
:10F824008280397122DC1304F5FF4AD852D456D2AF
:10F834005ECE420406DE26DA4ED65AD0894B2A8A98
:10F844003289B68A418063957515938BC18C83C7C1
:10F85400C18C5E8B89448DCF83C9160083C7060093
:10F864009144A209B3E9F9009747FF1F83D707B072
:10F87400F51763DFF9009307C6FF639DF908314567
:10F884002EC6EF30CFA22A84B24519ED9304F00FAF
:10F89400F250625426854259D254B259225A925A8D
:10F8A400025BF24B21618280420913590901230250
:10F8B400B50023132501930700F91509A165231049
:10F8C400F5002311450185054A859720FF1FE78030
:10F8D400C0B408C415C983C70B009385EAFF135647
:10F8E4002900FD172386F18C9710FF1FE780A005E0
:10F8F4001C44A2851745FF1F034505B889071CC48E
:10F90400EF304FA9814469B722859720FF1FE78014
:10F91400A0BFADBF9307D6FFE3CAF9F6B1473304DE
:10F92400F4029744FF1F938464B59C40A29703C7D5
:10F93400A70019C7884309C59720FF1FE780C0BCEB
:10F9440013854900A16542058505418103AA040088
:10F954009720FF1FE78060AC9C40229A2320AA00D6
:10F96400A297884305D505472385E70083470B0005
:10F974004A86D685FD172386F18C9710FF1FE780F2
:10F98400E0F89C403E9423132401231234019DBFCC
:10F994008547E39DF5EEB1473304F402174BFF1F8F
:10F9A400130BCBAD83270B00DA89A29703D767002B
:10F9B400884345CB83D74700B306C700910763C28A
:10F9C400D70A3A95D6859710FF1FE78020F40327BE
:10F9D4000B008144229783576700CA97C207C183EB
:10F9E4002313F700035747001107E393E7EA314570
:10F9F400EF30EF8BAA8521C1930700F92310F5009E
:10FA040083270B002302750123114501A29703D715
:10FA140067009C432313E5001CC51745FF1F0345DE
:10FA2400A5A5EF302F9783270B003E9423130400E2
:10FA340023050400B1BD83270B00A297884311C995
:10FA44009720FF1FE78040AC83270B00A29723A0D9
:10FA5400070083A709003E94231304002305040030
:10FA640055B511C99720FF1FE78000AA83A7090095
:10FA7400A29723A0070083A7090085443E9423137B
:10FA840004002305040029B56F30F02D6F30102FCA
:10FA94006F30F0776F301032411106C6EF30502EC0
:10FAA400B2400145410182806F3070336F30703550
:10FAB4006F3070376F3050396F30503B6F30303D9E
:10FAC4006F30303F6F3030416F30D0428347160083
:10FAD40003460600A2075D8E6F3010446F30504518
:10FAE4006F3010486F30D04A6F30904D6F30705087
:10FAF4006F3090526F30B0546F30D0566F30F05832
:10FB040003430100030E4100834E8100034FC100F3
:10FB1400834F010183424101834381017EC816CA98
:10FB24001ECC7AC676C472C21AC06F3070586F3059
:10FB3400705D6F30905F6F30B0616F30D0636F3045
:10FB4400F0656F3010686F30306A6F30106D6F3051
:10FB5400306F6F5010131307A5FF420785672A887B
:10FB640041831385A7C7636CE502138707C8014562
:10FB74006368B70263E605031307301F6362C702B5
:10FB8400138766FF42074183938767C763EAE700E9
:10FB940005063306B6028E063325D600828001455B
:10FBA40082809747FF1F23ADA79682809747FF1F48
:10FBB400938787A6BC4B9C5799E33E85828003D7E5
:10FBC4008701E30CA7FE93878705FDB79747FF1FBF
:10FBD400938787A483A707090145054791E382809A
:10FBE40083C6B7006393E60005059C43C5BF411176
:10FBF40022C491452A84014506C6EF30FFD2231B57
:10FC0400A4041747FF1F0357A7AB854763F1E70613
:10FC14000355A41C8357641C37460F00130606249F
:10FC2400AA97938717271735FF1F03552578B3A580
:10FC3400A70281463305F502EFC0D0598357040467
:10FC44000357E4058355840505461D8F3307B70222
:10FC5400832704091383F5FF130E80023E97974709
:10FC6400FF1F9387679B83A8070963666600B240FA
:10FC74002244410182803308C603C687FD563A9860
:10FC840081E7231BC404E5B76314F4001C40F5DBCF
:10FC940083AEC7086398BE0083A60709B306D8409D
:10FCA400B3F6B60263E4A6009C43D9BF090675BF48
:10FCB4009737FF1F83C7B7656387071A5D7156DAE5
:10FCC40086C6AA8AA2C4A6C2CAC04EDE52DC5AD8CC
:10FCD4005ED662D466D26AD06ECE7D5563850A1232
:10FCE4009747FF1F9387479383A40709638D0410E5
:10FCF400173BFF1F130B0B6B032C4B00B74B0F0071
:10FD040037490F00938DFB23973CFF1F83DC0C6A5C
:10FD14001737FF1F0347E7657D5A054D938B0B2467
:10FD24001D489308204E13090924814983C6B40051
:10FD340083A704096399A60983D6040803D3C403DB
:10FD440063F6660E03C604016312A60F03A68411AC
:10FD540071EE03A6440A79EA03C6F4006318060D9B
:10FD640003D5A4033303D34003A444093305650234
:10FD74004A86CE863EC61AC43AC2330515033354A6
:10FD84008502B3B5AC023A944204418023938408BB
:10FD94003385AC02EFC01044B24712479308204E9B
:10FDA4003E9522431D486364850133058541330430
:10FDB4009403931713006E9433547403A2976363EC
:10FDC400F506B307F54063F347013E8A8440B9FC66
:10FDD4009737FF1F9387C7579C438297B307AA405F
:10FDE400637AAA00B307454163DF070483274B0006
:10FDF400D297898F23A0FA0083A70A002947636753
:10FE0400F70423A00A00B640264496440649F25952
:10FE1400625AD25A425BB25B225C925C025DF24D42
:10FE240061618280B307FC40AA9771BF83D66408DE
:10FE3400B3869603EE96B3D6760363E4D700958F24
:10FE440059B7E297EDBF23A00A007DB7D91723A0C5
:10FE5400FA00A54713056AFFE3E747FB03254B00B8
:10FE6400591552954DB77D558280411106C6712AA8
:10FE740019C983278511014581E7B2404101828078
:10FE84009C430505D5BF7D55CDBF9737FF1F93878D
:10FE9400A77883A7C709411122C426C206C62A84AB
:10FEA400AE846396A7009747FF1F23A50780832787
:10FEB400041281CB03558400014693050008EF002A
:10FEC40010558357440481CB035584004D46930554
:10FED4001008EF00D053035584001546930510080D
:10FEE400EF00F0522305040023080400230A9404BD
:10FEF4001737FF1F0357C77C854763E6E70085452F
:10FF04000145EF30AFE71737FF1F03479763954766
:10FF14006316F7009737FF1FA3850762B240224498
:10FF24009244014541018280411122C406C62A84BB
:10FF340083278411D9E783270412D5E70325041105
:10FF440009C59710FF1FE780205C034574029307DF
:10FF5400F00F6304F500EF302FC1034564029307EB
:10FF6400F00F6304F500EF302FC0034584029307BC
:10FF7400F00F6304F500EF302FBF03558400012A0E
:10FF84009737FF1F9387873D9C4785CB9737FF1F84
:10FF940083D707739DE39737FF1F938727378853CA
:10FFA40009CD9710FF1FE78020569737FF1F23AF17
:10FFB40007369737FF1F23AD0736B240224441016D
:10FFC4008280C84309C59710FF1FE780E053832749
:10FFD400841103D7A700136707F02395E7009C4318
:10FFE400232CF410B1B7C84309C59710FF1FE7804D
:0CFFF400A0518327041203D7A700136755
:020000021000EC
:1000000007F02395E7009C432320F4123DB7973770
:10001000FF1F9387A76083A7070999E33E85828026
:1000200003D78700E30CA7FE9C43C5BF9737FF1F8C
:100030009387C75E83A7070AC1669735FF1F83C5ED
:1000400015330147FD1603D6A7006309A600630711
:10005000D6000507C107E3D8E5FE81473E858280CB
:100060009737FF1F9387875B03A5070A11CD4111BF
:1000700006C69710FF1FE7806049B2409737FF1F01
:1000800023AE0762410182809737FF1F23A80762D2
:100090008280411122C41734FF1F13042458832681
:1000A000040906C60147B687A5C703D687006317AC
:1000B000A60615EF98429736FF1F23A9E65E3E85F8
:1000C0009710FF1FE78080448327440923A007007F
:1000D0009737FF1F83D7075F9DE7EFF07FF89737CC
:1000E000FF1F23A5075CB240224441018280832682
:1000F00044096397F6009736FF1F23ABE65AC1B752
:10010000944314C36DBFFD171737FF1F231CF75A05
:100110009737FF1F83D7075BF9F7C1B73E879C432B
:1001200061B7714681451735FF1F13052558171311
:10013000FF1F670083848327C508035685087971EC
:1001400093D60701BD8EC206C182358E1357764005
:1001500093575640898B058B5D8F93573640918B13
:100160005D8F93571640A18B5D8F93171600C18B3F
:100170005D8F9317360093F707025D8F9317560034
:100180009355860093F707041E065D8F1376F60FCE
:10019000518F93D7554013D63540118A898BD18F13
:1001A00013D67540D18F13D61540218AD18F13965F
:1001B0001500418AD18F1396350013760602D18F30
:1001C00013965500137606049E05D18F93F5F50F0F
:1001D000CD8FA20745465D8F3307C70222D42A84FC
:1001E00026D252CC56CA032A8409832AC4095AC883
:1001F00006D63697420741839357774013555740A9
:100200000989858BC98F135537401189C98F1355BB
:1002100017402189C98F131517004189C98F1315FC
:10022000370013750502C98F1315570093558700C2
:10023000137505041E07C98F1377F70FD98F13D5D0
:10024000354013D755401189098B498F13D5754017
:10025000498F13D515402189498F13951500418980
:10026000498F1395350013750502498F1395550075
:10027000137505049E05498F93F5F50F4D8F2207E1
:10028000D98FB387C7024AD04ECE5EC662C4B69736
:10029000C207C18313D7774013D557400989058B0F
:1002A000498F13D537401189498F13D517402189BC
:1002B000498F139517004189498F1395370013759E
:1002C0000502498F1395570093D5870013750504D0
:1002D0009E07498F93F7F70FD98F13D5354013D762
:1002E00055401189098B498F13D57540498F13D516
:1002F00015402189498F139515004189498F139520
:10030000350013750502498F1395550013750504C3
:100310009E05498F93F5F50F4D8F2207D98FB3872F
:10032000C702130650025285D685B697BD8E9394A8
:100330000601C18033F6C402137BF60FEFC00067DD
:1003400005891DE98347140801498149B38497024F
:10035000130C5002C1804A865285D685EFC00065D5
:100360000589937BF90F11C563863403850993F9D9
:10037000F90F0509E31189FF230F6407B2502254D6
:1003800092540259F249624AD24A424BB24B224C31
:10039000456182805E8BCDB78347150003472500FA
:1003A00083464500A2074207BA9703470500FD8A26
:1003B0000548BA97034735009305000201456207D7
:1003C000BA9701473316E8007D8E01C605051375FF
:1003D000F50F0507E318B7FE8147214633D7F640EE
:1003E000058B01C705051375F50F8507E398C7FE53
:1003F0008280411126C206C622C4AA84EFF03FC102
:1004000019C52A842685EFF09FA62324A418B2409C
:10041000224492444101828001458280411106C6F6
:10042000EFF0FFBEB2401335150006054101828092
:100430006FF0DFFE411106C6EFF07FBD0DC103571F
:10044000C5058356A505035665078355450703551E
:100450008500EF50E0130145B2404101828009451B
:10046000E5BF011106CE22CCEFF07FBA59C1034699
:10047000B50005472A849737FF1F9387271A63160D
:10048000E604B853094515CF0346040383465704D1
:100490008358E4030358C4038357A403835584009B
:1004A0000345B4021307670432C00546EF50A00CA1
:1004B0008347F400A3050402014593E71700A3074F
:1004C000F400F24062440561828003A78708094571
:1004D0006DDB834657078358E4030358C4038357EF
:1004E000A403835584000345B4021307670702C0C1
:1004F00075BF0945F9B7011122CC06CE2A84EFF069
:100500001FB12DCD8347B5020347A51523138100E5
:10051000A302F10083479515A304E1002304F10031
:10052000A9E38347D5150307F5152306F1008307D3
:1005300035142305F100631DF7008947A305F10079
:100540004800EF50A0080145F240624405618280F6
:100550000307E5156314F7008547CDB7A305010030
:10056000C5B7834705162305F1008347B515A305D5
:10057000F100834755162306F100D9B70945E9B7BD
:10058000011122CC06CE2A84EFF07FA829CD830763
:100590000516A30481002180230581001307F007BD
:1005A000638FE70203474503998FA305F100834753
:1005B000A51613F7070101C72306010039A093F719
:1005C000070281CF85472306F1002800EF40F07F26
:1005D0000145F2406244056182808947EDB7FD57CD
:1005E000A305F100D1BF0945EDB7411106C6EFF0F3
:1005F0001FA219C98345051403558500EF40B07C3F
:100600000145B240410182800945E5BF9375F50F70
:1006100001112E8506CE22CC2EC6EFB080090DC169
:100620002A848346E506B245034575010546EF4039
:1006300010790145A30B0400F240624405618280F9
:100640000945DDBF411106C6EF403077B240014594
:100650004101828041119737FF1F938727FC22C4F5
:10066000A05F06C6094511C80355240BEF40B074BE
:100670009307F00F2319F40A0145B24022444101C7
:1006800082809737FF1F938767F9BC5F99CB411131
:100690001385070B06C6EF40D071B24001454101FA
:1006A000828009458280411106C622C4EFF03F9640
:1006B0000DC983467514034665142A848355850045
:1006C0000345B5028506050693F6F60F1376F60F79
:1006D000EF40F06D0145A3050402B2402244410100
:1006E00082800945DDBF397106DE22DC26DA4AD870
:1006F000EFF0FF91630A05168346B50005472A848B
:100700009737FF1F938787F16391E60CA453094540
:10071000D9C483C744041946898BC1CB8C5883C77D
:10072000A500C1C7B10528089700FF1FE780401E3C
:1007300083C75404138964041946898BB5CFCA85CD
:1007400008109700FF1FE780A01C8C5819469105E0
:1007500028109700FF1FE780A01B834704038358DE
:10076000A40383C654040346B400835584000345A0
:10077000B4023EC48357E4031308010238103EC29A
:100780008357C4033EC03C08EF4010618347F40028
:10079000A3050402014593E71700A307F400F250F4
:1007A0006254D254425921618280814528089700C1
:1007B000FF1FE780801CADBF814508109700FF1F19
:1007C000E780A01B1946CA8561B783A4870809453D
:1007D000F9D483C744061946898BB5C3938564064B
:1007E00028089700FF1FE780A01283C744071389DA
:1007F00064071946898BB9CBCA8508109700FF1F7B
:10080000E780001183A54408194628109105970038
:10081000FF1FE780E00F83A7440883C7370093E7F3
:100820002700A38AF4068358A40383C6540703460B
:10083000B400835584000345B40202C425BF81453A
:1008400028089700FF1FE780401345B7081081452F
:100850009700FF1FE78060121946CA85281097008D
:10086000FF1FE780E00AC1B7094515BF411106C661
:10087000EFF0EFF90DC10357651C8356451C035675
:10088000A51C8355851C03558500EF40B0500145DC
:10089000B240410182800945E5BF411106C622C42C
:1008A000EFF0EFF60DC92A840357C5058356A50559
:1008B000035665078355450703558500EF40104DE6
:1008C00083471401014593E74700A308F400B240B1
:1008D0002244410182800945DDBF411106C6EFF087
:1008E0000FF30DC183478519034675199305F51854
:1008F00003558500A2075D8EEF4010490145B240C7
:10090000410182800945E5BF411106C622C4EFF0CE
:100910000FF00DC12A841306051083558500034589
:10092000B502EF4030460145A3050402B24022441F
:10093000410182800945DDBF411106C622C4EFF0A6
:100940000FED0DC52A840357C5058356A50503562B
:100950008505835585000345B502EF40704201458A
:10096000A3050402B2402244410182800945DDBF53
:1009700001111375F50F06CEEFA0B05339C99737A3
:10098000FF1F9387A7C983A7870D93F707209DC3F0
:1009900002C402C202C08148014881470147814622
:1009A000054681451305C003EF40103F0145F24065
:1009B000056182808346D5031307E50302C08148A1
:1009C00001488147054681451305C003EF40B03A11
:1009D000F1BF0945E9BF9737FF1F938727C403A7D6
:1009E0008708094529CB83A7870D011106CE93F708
:1009F00007208DC302C402C202C08148014881475A
:100A00000147814601468145EF401039F2400145DA
:100A100005618280835807020358A70183570705A1
:100A200083465707014602C01307670781450945FA
:100A3000EF407034E1BF82800145828001458280B1
:100A40000145828001458280014582800145828086
:100A50000145828001458280014582800145828076
:100A60000145828001458280014582800145828066
:100A70000145828001458280411106C622C4034798
:100A80000500930700086315F70203471500930656
:100A90005002854763E4E60697E7000093870788DE
:100AA0000A073E971C430355250082978147B9A04A
:100AB0009306100885476313D70403471500CD46F6
:100AC0006308D70E63E3E602A146630DD708B1467B
:100AD000630DD70A95466313D70203552500EFF03F
:100AE0000FD32A8415E9894711A893060003630FE1
:100AF000D70E63EAE600E946630FD70CB240224402
:100B00003E854101828093077005630FF70E9307BE
:100B100017F0B337F000DDB78327851195C703566B
:100B200045040506420641829C431307160042070E
:100B300041839DE72312C40401CA835584000545FF
:100B4000EF405022231204040345B4020346440537
:100B500083558400EF40D01F2285EFF02FBDB9B739
:100B60003A86D9B703552500EFF06FCA2A8425DDF0
:100B70000346C504835585000345B5023336C000DE
:100B8000EF40501DA305040215B703552500EFF0F3
:100B90000FC82A8429D9035725058356050503461E
:100BA000F504835585000345B502EF40F01AD9BF1F
:100BB00003552500EFF0AFC52A8415D5035645042B
:100BC00001CA835585000545EF40D019231204045E
:100BD000A3080402E1BD03552500EFF04FC3E30471
:100BE00005F00345B502EF403018C9B5035525009F
:100BF000EFF0EFC12A84E30805EE83558500034535
:100C0000B502EF40B016BDBF03552500EF405016AA
:100C100071BD011122CC2A84114506CE2EC632C4E4
:100C2000EF103FE91DC1B245224623118500230084
:100C3000B500A300C5006244F240AA851725FF1F36
:100C40000345356D05616F103FF5F2406244114573
:100C500005618280411106C622C4EFF04FBB41C13D
:100C600083270512230D05002A84A5C30347F50039
:100C7000058B19EB03558400014693050008EFF03E
:100C80005FF939C5014581A8D44303C6C70083C5B0
:100C90008700035585008906EF40B00D05E58327E1
:100CA000041203D7A700A3840700136707F0239556
:100CB000E7009C432320F4128357240481C7FD17C7
:100CC0002311F40483270412D5F7231104045DBF14
:100CD0008547230DF400B24022444101828009453A
:100CE000DDBF1737FF1F034717869547630BF700D4
:100CF0009737FF1F9387C78483C777000D47631F0C
:100D0000F7009737FF1F83C73784639C0712930749
:100D100060101737FF1F2319F78282804111973720
:100D2000FF1F9387A78F194522C426C2A05F06C65E
:100D30004AC09724FF1F9384E47FEF00301498404B
:100D4000B7C7898E938767ED1CC7B7575500938740
:100D500057555CC3834724021307F00F6387E700EE
:100D6000A300F402FD572301F4020345140289474E
:100D70006303F50001451729FF1F1309297E032787
:100D8000090001469305F00F5C4393E717005CC32D
:100D9000930710FA2305F40099471727FF1FA304B0
:100DA000F77A9727FF1F238D07789727FF1F238B3D
:100DB0000778652D1727FF1F1307877F1443DC561D
:100DC000F59BDCD68347940090403A8493F6F7076E
:100DD0001C4293F707F8D58F1CC29727FF1F83C7C4
:100DE000675D81CB9727FF1F938747748843EF2068
:100DF0008FFA9840B70633001C4393F7F7CF1CC314
:100E00001C4393F7F7CF93E707201CC31840B24069
:100E100022441C479244D58F1CC703270900B707FB
:100E20000300938787153CCB9727FF1FA38C077080
:100E30009727FF1FA386077085471CC302494101FE
:100E400082808280411126C2B7C7004006C622C4F4
:100E500083A4C72023A607200F1000001727FF1F19
:100E60000347976E9727FF1F9387876D01CF9726BC
:100E7000FF1F83C6666D09476396E6001727FF1FAD
:100E8000A304076C03C77700A1466387E60003C786
:100E900077009D46639DE60083C777001727FF1FF5
:100EA0002304F76A85471727FF1FA30FF7689927C1
:100EB0009727FF1F93878776A05F6840231504005C
:100EC000230404009700FF1FE7804064914523102E
:100ED000040423220404232404041725FF1F0345CC
:100EE0005543EF20EFC1A1451725FF1F034575426C
:100EF000EF200FC1034514039307F00F6307F500BC
:100F0000EF20CFC6FD57A308F4020345040393075F
:100F1000F00F6307F500EF206FC5FD572308F402BB
:100F20009727FF1F83C7074981C70145EF20AFE619
:100F3000B2402244B7C7004023A697209244410103
:100F40008280011126CA9724FF1F9384246D22CC2E
:100F500003A4840B4AC84EC652C456C206CE2A8980
:100F60008149130A2500854A29E8930580203145E7
:100F70009700FF1FE780A04A2A8401453DC08347B0
:100F80001900194693052900A300F4001305240055
:100F90009700FF1FE780C09783A7840BA1EF9727D7
:100FA000FF1F23A987722324040083C7440B8507EE
:100FB0001727FF1F230EF77025A003471400834750
:100FC00019006305F700A289004479BF1946D2854C
:100FD000130524009700FF1FE780A0A4E31555FF29
:100FE0000545F2406244D2444249B249224A924AFB
:100FF00005618280E38909FA23A489006DB79727E8
:10100000FF1F9387A76103A5870B11E99727FF1F90
:1010100023A2076C9727FF1F238C076A8280411148
:1010200006C622C400459700FF1FE780204E228598
:1010300075F8B24022449727FF1F23AD0768972712
:10104000FF1F23870768410182809727FF1F93872F
:10105000E75C23AC070A238A070A82809727FF1FD1
:101060009387C74F9C43011122CC1307000806CE7B
:101070002A84B8CB29452EC632C409259726FF1FDE
:101080009386064B9C42B24523A0070003471400F9
:1010900003452400220742052A97034504002A97A6
:1010A0000345340062052A9798D703475400034547
:1010B0006400220742052A97034544002A97034506
:1010C000740062052A97D8D7034794000345A4000B
:1010D000220742052A97034584002A970345B40056
:1010E00062052A9798DB0347D4000345E4002207F2
:1010F00042052A970345C4002A970345F400620578
:101100002A97D8DB03C7150003C52500220742052F
:101110002A9703C505002A9703C5350062052A975B
:1011200098CF03C7550003C56500220742052A97DB
:1011300003C545002A9703C5750062052A97D8CFD5
:1011400003C7950003C5A500220742052A9703C5DA
:1011500085002A9703C5B50062052A9798D303C76F
:10116000D50003C5E500220742052A9703C5C5003F
:1011700083C5F5002A97E2052E97D8D3D843759BEF
:10118000D8C3D84313671700D8C398431367170011
:1011900098C3224698425C43858BD1E71C4F01459A
:1011A0002300F6009C429C4FA183A300F6009C42C2
:1011B0009C4FC1832301F6009C429C4FE183A30115
:1011C000F6009C42D84F2302E600D84F2183A302A9
:1011D000E600D84F41832303E600D84F6183A30381
:1011E000E60098532304E60098532183A304E60005
:1011F000985341832305E60098536183A305E600D5
:10120000D8532306E600D8532183A306E600D8531B
:1012100041832307E600DC53E183A307F600F24095
:101220006244056182800100B5B7411106C6EFF046
:10123000FFE2B2400145410182809727FF1F93875B
:10124000672F9C43B70680003706008298437D16BF
:10125000558F98C313070005D8DBD857B706008011
:10126000558FD8D7D4571727FF1F0347A7109315BB
:1012700087011377F703F18E6607558FD8D7E1857D
:101280001727FF1F1307C7329306A003184363DA1B
:10129000B602744F37060007D18E74CF984B137780
:1012A00007FC1367E70098CB37E700E0D147A309B5
:1012B000F7049707FF1F9387A7D493E717007CD7FE
:1012C00082809306200263DAB600744F370600F975
:1012D0007D16F18E37060005C1B7B70600F91386F3
:1012E000F6FF744F6945F18E37060003E346B5FA01
:1012F0003706000155B79307A00363EFA704130750
:10130000A0028D476368A70413072002894763631F
:10131000A70469478547636FA70251478147636BFD
:10132000A7024947FD576367A7023947F55763632B
:10133000A7022947ED57636FA7001947E157636B71
:10134000A7001147D9576367A7000947B1576373CF
:10135000A700C5573E8582809147EDBFB557634DC5
:10136000F50449578D476347E5045D579547634347
:10137000E50465579D47634FE5027157AD47634BE1
:10138000E5027957BD476347E502CD47634405024F
:10139000D5470DC10547ED47630EE50009479307A3
:1013A00030026309E5000D479307B0036314E500BD
:1013B0009307B0023E8582808547EDBF9727FF1FC8
:1013C000938787179C4399CB944BD04B9842518F6E
:1013D00098C294439C479842D98F9CC29727FF1F7D
:1013E000938747151727FF1F034727161726FF1F49
:1013F0001306C61605489C431307E7091442631EEB
:10140000050388431365050888C3C8468177FD171F
:10141000E98FDCC60F1000001C42B7060200AD05C4
:1014200094C7930600F81726FF1F230DD6108A05D0
:10143000BA958605ECD3C8C7828088431375F5F743
:1014400088C3C8468177FD17E98FDCC60F100000FE
:101450001C42B7060200A90594C7930600F8172698
:10146000FF1F2301D60E8E05E1B79727FF1F938735
:10147000A70C9C4389CFD44303A8870098423367C5
:10148000070198C2D447DC4B9842D98F9CC297275A
:10149000FF1F9387270A05479C439505631EE502B6
:1014A00098438E051367070898C3984F137707C0B2
:1014B0001367A71398CF13078007A389E7009385C5
:1014C000C5039727FF1F23A3B70811C60606972752
:1014D000FF1F23ADC7068280984392051377F7F765
:1014E00098C3984F137707C01367271398CF130734
:1014F000F007A389E700E1B711C937170040835708
:1015000087012168B3E70701231CF7008E059727A1
:10151000FF1F238CB7029727FF1F9387A70122067F
:101520009C43498E4D8EB70510004D8EB0D7B857ED
:1015300013674700B8D7B85791C6B7060400558F50
:10154000B8D78280B706FCFFFD16758FD5BF411155
:1015500006C61727FF1F034727FFA1476311F7049C
:101560009727FF1F83C7C7FF858B1726FF1F0346DB
:1015700056019726FF1F83C6C600BDC79727FF1FCA
:1015800093870700C8432DC1834515000905EF0067
:10159000900511C585471727FF1FA307F7FA1727DF
:1015A000FF1F034767FA9947631CF7009727FF1F40
:1015B0009387C706BC5F83C7B70095CBEFF06FF288
:1015C0001727FF1F034747F89D476312F702972726
:1015D000FF1F9387A70483A7870883C7770081CB62
:1015E000B24041016FA0104D814501454DB7B24059
:1015F000410182801727FF1F130747F61C43B44B96
:1016000093F6F68FB4CB944393E6860094C39C4341
:101610008D83858B89C70100010001000100972798
:10162000FF1F938727F194439C4293F7F7CF93E7EB
:1016300007109CC29727FF1F938787F79043B70631
:10164000CEFFFD161C46F58F1CC61C433707030052
:10165000B8CB9727FF1F938727EE9C4399CBD443A2
:1016600090479842518F98C2944BDC4B9842D98F47
:101670009CC29727FF1FA38807EC82809727FF1F34
:101680009387C7ED9C439C438D8BD5C7994697277D
:10169000FF1F9387E7EA6312D5041727FF1F03474D
:1016A000B7EA19CB1727FF1F034707EA6316A700FE
:1016B0001727FF1FA30A07E883C77700214763188E
:1016C000F700930780101727FF1F231FF7E69727C0
:1016D000FF1F238007C86FF0FFF11D47631FE50060
:1016E0001727FF1F034757E661DB9726FF1F83C6B7
:1016F000A6E50D47E392E6FC65BF03C67700638B62
:10170000C60083C677006307D70003C77700A146EA
:10171000E39FE6FA1727FF1F034717E34DFB83C735
:1017200077001727FF1F2301F7E285471727FF1FC1
:10173000A30CF7E069BF82805D7156DA972AFF1F1C
:10174000938A4ADF03A70A0086C6A2C4A6C2CAC0FB
:101750004EDE52DC1C43172AFF1F130A6AE5972945
:10176000FF1F9389A9DF93F7F7CF93E707101CC3F7
:1017700083260A003707CEFF7D179C4637090300F2
:1017800013068002F98F9CC683A709002A84AE84C1
:1017900023A8270593051008280097F0FE1FE7806F
:1017A000C01D2945EFF09FED83A70A009376F41F33
:1017B0003706330023A40700984B13098915617F6E
:1017C0001367F70398CBF84FCE88130510F81377FB
:1017D00007E0558FF8CF9843D685528813670708DE
:1017E00098C31727FF1FA30F07D483A60900172745
:1017F000FF1FA30707D4054798C29843A16293032C
:10180000401F1377F7CF98C398437D1F85491377FF
:10181000F7CF1367072098C303270A00930F8002AE
:101820001C47D18F1CC723A8260501473400114946
:101830001353370026938347030013767700B3D7FB
:10184000C740858BDDCF9C41832E080023AC070465
:1018500023A0070603AECE02137EDEFF23A6CE032F
:1018600083AE0700137EF70793FE0EF833EECE012A
:1018700023A0C70103AE4702336E5E0023A2C70355
:1018800083AE0800014E23A27E0603AA0706630763
:101890004E0303AE0703038A0600135EFE00620ECA
:1018A000135E8E416358CA0103AE0703135EFE0048
:1018B0002380C60103AE0706137EFE0F03AA4E0661
:1018C00063060A0003AA8705E37F49FB03AE4702CC
:1018D000337EEE0123A2C70383870600635CF40016
:1018E000034E03003396C9001346F6FF3376C60154
:1018F0002300C3003E8663D3A7002A861315860102
:10190000618505071377F70F8506E313F7F3984111
:101910001C4B93F707FC93E7E7001CCBB64026442B
:1019200096440649F259625AD25A61618280011185
:1019300022CC2A8411452EC632C436C206CEEFF020
:10194000FFD39727FF1F9387E7BE9C43B708330059
:10195000D857719B13671700D8D71727FF1F130796
:10196000E7BF08431307000578D198431377F7CFF3
:1019700098C398431377F7CF1367072098C31727A7
:10198000FF1F1307E7C21843B2459246032887009A
:10199000224633681801232407013708030013087F
:1019A000882523280505DDC14C5713640404F599E7
:1019B0004CD71377F4078043137404F8598C3747D6
:1019C000767180C31307971298C7375755001307CE
:1019D00057551724FF1F1304A4B6D8C35C48B68517
:1019E0003CDD9727FF1F238E07B49727FF1FA38A8D
:1019F00007B49727FF1F238707B45C41F99B5CC19D
:101A0000914701451727FF1FA30FF7B297F0FE1F5D
:101A1000E780606C9727FF1F938707B2984311C731
:101A2000544318479C42D98F9CC283473400858B0E
:101A300091CB9727FF1F83D7E7BE85071727FF1F87
:101A40002312F7BEF2406244056182804C57F5993B
:101A50004CD71377F4078043137404F8598C37C7B5
:101A6000898E80C3130767ED85B7011126CA4AC85E
:101A70004EC6C1643709006AB70900AC22CC52C413
:101A800006CE0544FD141309690E9389E90C130A67
:101A9000000205E49305000F4145EF103FE9B7B799
:101AA000006A4205938767CE5D8DF2406244D2445E
:101AB0004249B249224A05618280A6850145EF105C
:101AC0003FE99317850013F7071033E5270119C382
:101AD00033E5370181470147E145B356F5008507F6
:101AE0003356F500858A058A6307D6000507137704
:101AF000F70F63E4E504E39247FF81471306F00321
:101B0000ED463357F5001377F70305CB6307C7029C
:101B10008507E398D7FE135785009377F50F137762
:101B2000F70FE394E7F8135705011377F70FE39ED8
:101B3000E7F613578501E39AE7F605041374F40FEB
:101B400089BF1727FF1F034717A091476309F70CA9
:101B50009727FF1F9387C79D9843B7C70040938778
:101B60000730631EF70A0111294506CE22CC26CA8A
:101B70004AC84EC6EFF09FB09729FF1F9389899BF3
:101B80000D2AEF007034EFF04FEB83A709001729FF
:101B9000FF1F1309E9A1B706330098439724FF1FDD
:101BA0009384C49B370403001367070898C39843C2
:101BB0001377F7CF98C398431377F7CF13670720AE
:101BC00098C3032709001C47D58F1CC79C401307E7
:101BD0008455B8CBEF007045EF10F017EF001038C8
:101BE000EF00104103A709001C4393F7F7CF93E7D9
:101BF00007101CC3832609003707CEFF7D179C46BC
