:040000006F00006528
:1000040000000000000000006F0080086F00401E28
:1000140000000000000000000000000000000000DC
:1000240000000000000000000000000000000000CC
:100034006F004006000000006F00E00500000000B3
:100044006F0080056F0060056F0040056F0020059C
:100054006F0000056F00E0046F00C00400000000A2
:100064006F0060046F0040046F0020046F00000400
:100074006F00E0036F00C003000000006F00600326
:100084006F0040036F0020036F0000036F00E00265
:1000940001A001A001A001A001A001A001A001A054
:1000A40001A001A001A001A001A001A001A001A044
:1000B40001A001A001A001A001A001A0B717004068
:1000C400930670052380D704130780FA2380E7047E
:1000D40003C6B7041376F60DA385C704238007046B
:1000E400137605022DC603C6A700118A0DE22380EC
:1000F400D7042380E70403C7A700136747002385B9
:10010400E7009307004B01000100FD17EDFFB7174F
:100114000040930670052380D704130780FA2380D8
:10012400E7047D892394A700010001000100010078
:10013400238007042380D7042380E7049306100553
:1001440037270040A303D7802380070482801376D7
:1001540005046DDE03C6A700418A0DE22380D7049F
:100164002380E70403C7A700136707012385E7007B
:100174009307007D01000100FD17EDFFB717004054
:10018400930670052380D704130780FA7D892380A2
:10019400E704136505042394A7000100010001008E
:1001A4000100238007042380D7042380E7049306F7
:1001B40030053727004079B7411181460146814512
:1001C400114506C6912AB71700401307700523800E
:1001D400E704130780FA2380E70403C7670413675F
:1001E40017002383E70423800704B240410182807F
:1001F40081460146814511450522B7170040130782
:1002040070052380E704130780FA2380E7047D57F1
:100214002396E70203C76704136717002383E704E1
:100224002380070401A0BD473305F50201007D15B5
:1002340075FD8280411122C426C206C6AA840144E7
:1002440063179400B2402244924441018280050421
:100254001305803E4204C13F4180DDB7230304807F
:1002640015472303E48001002302A48082808307CE
:100274006480E3CE07FE23030480828083076480C6
:10028400E3CE07FE03454480828083076480E3CE87
:1002940007FE2302A4808280411126C44AC24EC0B4
:1002A40006C61377F50BAD47AA892E8995446306D4
:1002B400F70019456537653F8D444E854537FD592F
:1002C400FD1463983401B240A244124982494101A9
:1002D4008280135509011375F50F453F2209CDB7E7
:1002E400011126CC06CEB704080051371545BD3799
:1002F400713769372AC6A53F32459377150089EBD4
:10030400136515001375F50FF240E2440561828010
:10031400FD14E9FC0145CDBF397126DC4ADA4ED81B
:1003240052D656D45AD25ED006DE62CE66CCB7E739
:1003340000E07D5783AA070022C603AA470023A032
:10034400E71823A2E718B7170040130770052380A6
:10035400E704130780FA2380E70483C74704930B59
:1003640075FFB684E20793FBFB0F8546AA892E8BA3
:10037400328937240040E187015763FA7601630824
:10038400D5008946130700026313D5000157D98F9E
:1003940093F7F70FB71C00402382FC041147230393
:1003A400E4801305F00F5D3D094CD13563697C1180
:1003B400B70707003E9B378707007955637EEB023A
:1003C400B3079B00636AF702A9476399F90689E4B6
:1003D4008144713D26850DA0DA850945753D0509E1
:1003E4000345F9FFFD14050B4D3581C49377FB0FCD
:1003F400FDF7FD3569FD7D55B717004013077005FE
:100404002380E704130780FA2380E70403C7470423
:10041400418B2382E704F250B7E700E023A0571191
:1004240023A24711E25432445259C259325AA25AB1
:10043400125B825B724CE24C21618280A54763951A
:10044400F90685691309F00FB3069900B3742B01FB
:10045400B6941349F9FFB3749900856B3379690134
:10046400416B9387F9FFB3F7270199E363FC3401E8
:1004740093D94900C147E3E637FF99BF0569C169CC
:100484007D19D9B71305800D63886901130500022E
:100494006384790113051008CA85FD3B913521DD7C
:1004A4004E99B3843441D9B7DA852D45F533CA94CE
:1004B400E30099F20509D933A30FA9FED5BF9387A9
:1004C400F9FF93F7F70F636CFC0803C75C04B707E5
:1004D40008001377070219E3B78707007955E37D0E
:1004E400FBF033079B00E3E9E7F089476390F904E5
:1004F4008980D549E38E04ECDA850945713B1109FD
:100504000327C9FF91472320E48003076480E34E57
:1005140007FE23033481FD17EDFBFD14110B81C489
:100524009377FB0FE9FF6D3B71F5F1B58547E387E1
:10053400F9F4DA852D458D339389F4FFE38A04E8D1
:10054400353B93F7390091EB832604800327090098
:1005540093074900E39FE6E63E89CE84F1BFB547A1
:100564006396F9001305900BD5399DB5B147130572
:10057400B00AE38BF9FE9947639EF902DA852D45AB
:10058400213B81448D4BA149D5396396740183275E
:1005940004802320F9008504E39834FF8327048032
:1005A40013172B01635507002312F90015B52322F5
:1005B400F90039BD9D476399F90281451305B004DB
:1005C400E139BD442320090023220900FD597D316E
:1005D40093F77400CA9703C70700FD14398D23806D
:1005E400A700E39634FFEDB3A1476392F904CD3934
:1005F4008144630D0B008D479304C0036308FB0023
:100604009304000563048B01930440041375C50728
:10061400E30095DC194599319939054581312685E1
:10062400AD3109459D316D39E31405DAE9B39147DC
:100634006399F900130560061531153913059009FE
:0C06440025B7E38709D8F15469B3000022
:100650009741002093810121178100201301819A85
:1006600013054000973500209385C51917360020E3
:100670001306067E63FAC5008322050023A05500F9
:1006800011059105E3EAC5FE17250000130545B2E3
:1006900097450020938505971386818063FAC500EE
:1006A0008322050023A0550011059105E3EAC5FE4C
:1006B00013858180938581C16377B5002320050070
:1006C0001105E36DB5FE9302800873A002309732E6
:1006D00000209382221393E212007390523097020B
:1006E00000009382A20D73901234730020303D43BA
:1006F0002A876373C3029377F700BDEFADE5937666
:1007000006FF3D8ABA960CC34CC30CC74CC74107C1
:10071000E36BD7FE11E28280B306C3408A069702DC
:10072000000096966780A6002307B700A306B700CF
:100730002306B700A305B7002305B700A304B7003D
:100740002304B700A303B7002303B700A302B70035
:100750002302B700A301B7002301B700A300B7002D
:100760002300B700828093F5F50F93968500D58D11
:1007700093960501D58D61B79396270097020000E7
:1007800096968682E78086FA9680C1171D8F3E96E0
:10079000E374C3F8A5B7371700408327870A4111D0
:1007A00006C693E707202324F70A8D45130500208A
:1007B000F12EB240410175AB01111305800406CE44
:1007C00022CC26CA4AC84EC652C497300020E780C1
:1007D000200FD137B717004083C517041725000035
:1007E0001305458213894181752B172500001305D8
:1007F000E582EF00006D9306401F1386418181451D
:100800002D4597300020E78060318144172A000091
:10081000130ACA819309401F4A84B307990083C50C
:10082000070052858504BD2BE39934FF172500008E
:100830001305C58379258566014681452545973091
:100840000020E780A02D9375F50F17150000130504
:10085000657E892B171500001305457C9D259306A1
:10086000401F1386418181452D4597300020E78048
:10087000E02A8144971900009389497B1309401F9E
:10088000B307940083C507004E858504212BE399A7
:1008900024FF171500001305657D252581471307E3
:1008A000401FB306F4002380F6008507E39BE7FEB4
:1008B0009306401F138641818145294597300020CA
:1008C000E780C0259375F50F171500001305C57750
:1008D000D1291715000013056574E5239306401F01
:1008E0001386418181452D4597300020E780002304
:1008F000814497190000938969731309401FB30756
:10090000940083C507004E8585046929E39924FF77
:1009100017150000130585756D23171500001305C5
:10092000E573452381461386418181451D459730F6
:100930000020E780A01E8144971900009389096F69
:100940002149B307940083C507004E858504992982
:10095000E39924FF17150000130545719D23171512
:1009600000001305E570B12BB7F50700814613862B
:100970004181E105194597300020E780201A814424
:10098000971900009389896A1949B307940083C5B0
:1009900007004E8585043921E39924FF17150000CF
:1009A0001305C56C392B171500001305A56D112B08
:1009B000130600089385418115655D2A81449719C6
:1009C00000009389A96613090008B307940083C542
:1009D00007004E858504F926E39924FF17150000CA
:1009E0001305C568F9298566014695650545973063
:1009F0000020E780A0129375F50F1715000013056E
:100A0000A5694D26171500001305C5675D29130656
:100A10000008938541811565A12A8144971900003A
:100A20009389C96013090008B307940083C50700C0
:100A30004E858504852EE39924FF171500001305C4
:100A4000E562412113874181930700079306000F58
:100A50002300F700850793F7F70F0507E39AD7FE02
:100A6000930600081386418195650945973000205B
:100A7000E780C00A9375F50F17150000130545634D
:100A80001526930600081386418195650D4597301C
:100A90000020E780A0089375F50F171500001305D7
:100AA0006562092617150000130505631929130649
:100AB00000089385418115656528814497190000D8
:100AC0009389C95613090008B307940083C507002A
:100AD0004E858504C12CE39924FF171500001305EA
:100AE000E558C526A12085201304A00F81441309D1
:100AF000A00F8504B3F7840291E39520252809ED22
:100B0000054597300020E78020F3E5B71305200363
:100B100097300020E78040F231286DF96305240109
:100B20001304A00FF1BF13044006D9BF8545370554
:100B3000400001A2B717004003A5470C5981134597
:100B4000150005898280371700408327870A8D4565
:100B50001305001093E707102324F70A05A8371799
:100B600000408327870A93C707102324F70A82804F
:100B70000D06719A81473307F5006393C7008280A1
:100B800014433387F500910714C3F5B7914763EE1B
:100B9000B70217170000130727558A05BA959C411D
:100BA000BA978287B717004003A7470B1345F5FF95
:100BB000698F23AAE70A03A7070B698F23A8E70A0F
:100BC00003A7070A798D23A0A70A8280B7170040E0
:100BD00083A6470B1347F5FFF98E23AAD70A83A6EE
:100BE000070B558D23A8A70A83A6070A758F23A094
:100BF000E70A8280B717004003A7470B498F23AA53
:100C0000E70A03A7070B1345F5FF45BFB7170040D9
:100C100083A6470B1347F5FF758F23AAE70A03A79F
:100C2000070A598D4DB7B717004003A7470B498FE7
:100C3000EDB7914763EEB702171700001307074C93
:100C40008A05BA959C41BA978287B717004003A7D7
:100C5000470D1345F5FF698F23AAE70C03A7070D7E
:100C6000698F23A8E70C03A7070C798D23A0A70C95
:100C70008280B717004083A6470D1347F5FFF98E12
:100C800023AAD70C83A6070D558D23A8A70C83A6EE
:100C9000070C758F23A0E70C8280B717004003A7CD
:100CA000470D498F23AAE70C03A7070D1345F5FF4E
:100CB00045BFB717004083A6470D1347F5FF758F53
:100CC00023AAE70C03A7070C598D4DB7B7170040AF
:100CD00003A7470D498FEDB7B717004003D587002D
:100CE000420541819377050491EB9377F5013755E0
:100CF000E801130505803345F50282809377050CE2
:100D0000130700046397E7009377F50137459C1CB0
:100D1000CDB72165130505D0828081473737004064
:100D2000A14663C4C700328582800345B740E38E85
:100D3000A6FE3385F5000345050085072304A7407B
:100D4000CDB7411122C406C62A8479372947B30793
:100D5000E502B2408D83B3D7870222449507B3D70B
:100D6000E70237370040C207C1832316F74041012D
:100D70008280716541111305052006C6D937B73742
:100D80000040130770F82381E7400D47A381E74037
:100D900013070004A380E74005472387E740B240DC
:100DA0004101828039713EDA2ED232D436D63AD819
:100DB00042DC46DE973700209387C72A22CC804347
:100DC00026CA06CEAA8409C41C4C99E32285352381
:100DD0000C4454102686228536C6EF00F017F240E8
:100DE0006244D24421618280011126CA4AC806CEDB
:100DF00022CC4EC652C4AA842E8901C51C4D91E353
:100E0000ED299C4C804499E32685C529971700005D
:100E100093870732631CF402C0408357C400A18B40
:100E2000B1C71C48A1C7FD59294A1C448345090084
:100E3000FD17B1E91CC463DE07062286A945268595
:100E40004128FD576308F502294535A09717000092
:100E5000938707306314F4008044C1B797170000EC
:100E60009387072BE31BF4FAC04445BFA285268570
:100E7000052255D97D55F2406244D2444249B249D7
:100E8000224A056182801CC4050963D70700184CFB
:100E900063CBE700638945011C401387170018C026
:100EA0002380B70059B7228626851D20E31F35F71A
:100EB000D1B71C401387170018C029472380E700CB
:100EC00061B7973700209387E719AA85884329BF20
:100ED000011122CC26CA4AC806CE4EC6AA842E8943
:100EE000328401C51C4D91E30929971700009387AF
:100EF00027246319F406C0401C4C1CC48357C4004B
:100F0000A18BC9C31C48BDCF1C4808409379F90F79
:100F10001379F90F1D8D5C486346F500A28526857F
:100F2000752C2DE51C440505FD171CC41C401387BA
:100F3000170018C0238037015C486389A7008357D6
:100F4000C400858B81CBA9476316F900A28526854D
:100F500071240DEDF24062444A85D2444249B249BF
:100F600005618280971700009387871E6314F40041
:100F7000804459B79717000093878719E31EF4F64A
:100F8000C0449DBFA285268521203DDD7D59D9B76E
:100F90004111973700209387E70C26C2844322C46F
:100FA0004AC006C62A892E8489C49C4C99E32685AA
:100FB000A926971700009387A717631CF402C04067
:100FC0000317C40093170701C18393F68700B5EE9A
:100FD00093F607019DEEA5472320F9001367070448
:100FE0002316E4007D55B240224492440249410157
:100FF0008280971700009387A7156314F40080443C
:10100000C1B7971700009387A710E31BF4FAC044F9
:1010100045BF918B8DC74C5889C99307440463849D
:10102000F5004A859123232A04028357C400232212
:10103000040093F7B7FD2316F4001C481CC0835727
:10104000C40093E787002316F4001C4881EF835700
:10105000C4001307002093F707286385E700A285E3
:101060004A85A5218357C40013F7170005C75C48BC
:1010700023240400B307F0401CCC1C480145A5F70D
:101080008317C40013F7070839DF93E70704231613
:10109000F40089BF898B014791E3584818C4F1BF18
:1010A00083D7C500011122CC26CA06CE4AC84EC637
:1010B00013F78700AA842E8471EFD841634DE000B6
:1010C000B841634AE0000145F2406244D2444249DB
:1010D000B2490561828058547DD703A904009396D4
:1010E000370123A0040063DD060670488357C4005F
:1010F000918B99C75C401D8E5C5899C33C401D8EF6
:101100005C540C50814626858297FD570357C400D6
:10111000631DF5009440F54763E8D706B707402004
:101120008507B3D7D700858BA5C31C4823220400AD
:101130001CC09317370163D80700FD576314F500EF
:101140009C4091E368C84C5823A02401ADDD93076F
:1011500044046384F50026850129232A0402A5B7E7
:101160000C500146854626850297FD572A86E31FC7
:10117000F5F69C40A5DF75476385E7005947639402
:10118000E70423A0240181B7136707042316E400B2
:101190007D551DBF83A90501E38709F203A9050059
:1011A0008D8B23A0350133093941014791E3D8499B
:1011B00018C4E35A20F11C540C50CA864E8626856A
:1011C00082976349A0008357C40093E7070423165E
:1011D000F4007DBFAA993309A940E1BF9C49B9CF6A
:1011E000011122CC06CE2A8411C51C4D81E72EC6E2
:1011F0002922B24597170000938787F3639BF50078
:101200004C408397C50095C722856244F240056132
:1012100041BD971700009387A7F36394F5000C4432
:10122000CDB7971700009387A7EEE39CF5FC4C44DD
:10123000C9BFF24062440145056182800145828058
:10124000411122C406C62A842316B5002317C500FF
:101250002320050023220500232405002322050660
:1012600023280500232A0500232C0500214681455B
:101270001305C505EFF0AFC797170000938747B573
:101280005CD0971700009387A7B71CD4971700006E
:101290009387E7BB5CD4971700009387A7BE00D065
:1012A0001CD8B240224441018280970500009385FA
:1012B00025F389AA411126C2130680069384F5FFFF
:1012C000B384C4024AC02E8922C406C6938544074B
:1012D000A1262A8401CD23200500232225013105E2
:1012E00008C4138684068145EFF06FC02285B240A2
:1012F000224492440249410182801C4DBDE34111C8
:1013000006C622C497070000938767FA1CD5971773
:1013100000009387A7E99C432324050423260504A2
:10132000232805046314F50085471CCD2A841D2855
:1013300048C02285052808C422852D2048C448407D
:1013400001469145F53D08440546A545D53D48442F
:101350000946C945F53585471CCCB24022444101B8
:1013600082808280411197170000938727E426C26C
:1013700084434AC006C69C4C22C42A8999E3268528
:10138000AD3F938484048044DC40FD1763D607009E
:101390009C40B9CF8440C5BF0317C40039E7C1776B
:1013A000850723220406232004002322040023248B
:1013B00004005CC423280400232A0400232C040016
:1013C000214681451305C405EFF06FB2232A0402BC
:1013D000232C040223240404232604042285B2407F
:1013E000224492440249410182801304840671BF61
:1013F00091454A85C13588C051FDB1472320F90088
:101400000144E9BF797122D44AD052CC56CA5AC895
:101410005EC606D626D24ECE2A8AAE8A130485042C
:101420000149054BFD5B09ECB25022544A859254A8
:101430000259F249624AD24A424BB24B456182801C
:10144000044483294400FD1963D409000040E1BF2E
:1014500083D7C400637BFB008397E4006387770135
:10146000A6855285829A3369A90093848406E1BFD8
:101470001971A6DAAE848395E500A2DC86DE32849B
:1014800063DC050083D7C40023A0060093F7070898
:1014900085E7930700401DA0300836C6EF001024F2
:1014A000B246E34105FE7247BD67F98F7977BA9777
:1014B00093B717009CC2F1BF930700041CC0F650FD
:1014C0006654D65401450961828083D7C500011155
:1014D00022CC06CE26CA4AC8898B2E8489CF930790
:1014E00074041CC01CC885475CC8F2406244D244E6
:1014F00042490561828074003000AA84953FA2456C
:101500002A892685112A01ED8317C40013F70720C5
:1015100069FFF19B93E727002316F400C9B79707EB
:1015200000009387C7D89CD48357C40008C008C85C
:1015300093E707082316F400A2475CC8B24791CF8F
:101540008315E4002685EF00101C01C98357C400F1
:10155000F19B93E717002316F4008357C400336907
:10156000F9002316240151B7DDC583A7C5FF41113A
:1015700022C406C626C21384C5FF63D307003E9467
:10158000AA84EF00301F97370020938727AE9C4333
:1015900091EF232204009737002023A987AC22442F
:1015A000B2402685924441016F00F01C637EF40036
:1015B00014403307D4006396E7009843DC43369722
:1015C00018C05CC0C9BFBA87D84319C3E37DE4FE25
:1015D00094433386D700631F86001040B29694C3AD
:1015E0003386D700E31DC7FA10435843B29694C31D
:1015F000D8C375B76375C400B1479CC04DB71040E0
:10160000B306C4006316D70014435843B29614C0FF
:1016100058C0C0C369B78280011126CA93843500BF
:10162000F19806CE22CC4AC84EC6A104B14763F356
:10163000F404B14463E2B4042A89EF00B013938741
:10164000818098433A8439E09387C1809C4391E735
:1016500081454A85812F23A6A180A6854A859927A1
:10166000FD5963193507B1472320F9004A85EF007A
:10167000901029A0E3D004FCB1471CC10145F24001
:101680006244D2444249B249056182801C40858F40
:1016900063CF0702AD4663F6F6001CC03E9404C05B
:1016A00031A05C406313870223A4F1804A85EF00D8
:1016B000900C1305B4009307440061993307F5407B
:1016C0005DDF3A94898F1CC05DBF5CC3C5B72287BC
:1016D000404095BF130435007198E30285FCB305C3
:1016E000A4404A85C125E31C35FBB5BF1C46FD1748
:1016F0001CC663DA0700184E63C5E700A947639468
:10170000F5006FF0EFFC1C422E851387170018C2FE
:101710002380B7008280011122CC26CA4AC84EC657
:1017200052C406CE2A89AE893284B304D6007D5ACB
:1017300063149400014509A8834504004E864A8538
:1017400075370504E31645FFF2406244D24442492E
:10175000B249224A05618280357122CD26CB4AC921
:101760004EC706CF52C556C35AC1DEDEE2DCE6DA0A
:10177000AA89AE843289368401C51C4D91E3B53EF9
:10178000971700009387C79A639BF40C83A44900C2
:1017900083D7C400A18BF5C79C48E5C79307000217
:1017A000A304F1029307000302D22305F10222C62B
:1017B000930B5002971A0000938A8A9B054C294B81
:1017C0004A848347040099C36390770FB30C244184
:1017D000638D0C00E6864A86A6854E852D3FFD5713
:1017E0006306F51E9256E69636D283470400638F51
:1017F000071CFD571309140002C802CE3ECA02CCD2
:10180000A309010482D48345090015465685B127F2
:1018100013041900C24759E913F7070109C7130751
:101820000002A309E10413F7870009C71307B002F8
:10183000A309E104834609001307A0026380E608B8
:10184000F2474A8481462546034704009305140065
:10185000130707FD6379E60AB5CA3ECE85A8971738
:1018600000009387E78E6395F40083A489000DB789
:10187000971700009387C789E39CF4F083A4C900FD
:1018800001BFA6854E85EFF0AFF009D97D55FA402E
:101890006A44DA444A49BA492A4A9A4A0A4BF65BE8
:1018A000665CD65C0D618280050421BF330555411D
:1018B0003315AC00C98F3EC82289B1B732479306B1
:1018C0004700184336C6634907023ACE034704006F
:1018D0009307E002631FF704034714009307A00275
:1018E000631BF702B2470904138747009C433AC6BB
:1018F00063C107023ECA35A83307E04093E72700DB
:101900003ACE3EC8E1B7B387670385462E84BA97BF
:1019100025BFFD57C5B7050402CA81468147254644
:101920000347040093051400130707FD6376E606DA
:10193000F1F2834504000D46171500001305C58319
:10194000292D11CD97170000938707831D8D9307CD
:101950000004B397A700424505045D8D2AC883455E
:1019600004001946171500001305458113091400DA
:101970002304B102DD233DC197E7FFFF938787680A
:1019800095E74247B2471377071009CF91073EC644
:101990009257D2973ED22DB5B387670385462E84E2
:1019A000BA97BDBF9D07E19BA107D5B77800970601
:1019B0000000938686D626860C084E859700000088
:1019C000E7000000FD572A8AE314F5FC83D7C40022
:1019D00093F70704E39C07EA125555BD7800970674
:1019E0000000938686D326860C084E85012AD9BF2F
:1019F000797156CA9C49BA8A984522D426D24ECECD
:101A000052CC06D64AD05AC85EC6AA892E84B28461
:101A1000368A63D3E700BA879CC00347340419C3EE
:101A200085079CC01C4093F7070281C79C4089072B
:101A30009CC00329040013796900631A0900130B81
:101A40009401FD5B5C449840998F634CF9041C4001
:101A50008346340493F70702B336D000A5EB130690
:101A60003404D2854E85829AFD576303F5041C40E9
:101A700011469840998B544481446397C700B384BE
:101A8000E64063D3040081441C4418486354F700C3
:101A9000998FBE94014969047D5B639824050145D3
:101AA00009A885465A86D2854E85829A631E75019D
:101AB0007D55B250225492540259F249624AD24A98
:101AC000424BB24B456182800509ADBF3307D4005C
:101AD00013060003A301C7040347540493871600A9
:101AE000A2978906A381E7049DBF85462286D285F9
:101AF0004E85829AE30E65FB050945B7797122D4BC
:101B000026D24AD04ECE06D652CC56CA5AC8B6892C
:101B100083C68501930790063289AA842E84138692
:101B20003504638DF60263E2D70693078005638769
:101B3000F61863EDD7006380062293073004638EA6
:101B4000F60A930A24042301D404C9A0930730069B
:101B50006385F60A93074006E395F6FE1C400843AA
:101B600093F6070893054500C5C61C410CC363D80E
:101B700007001307D002B307F040A301E40497065F
:101B800000009386266029476DA8930700076383AA
:101B9000F61663E5D7029307E006638AF618930703
:101BA000F006E390F6FA0C401C4313F80508138581
:101BB00047006307080608C39C438DA89307500796
:101BC000E383F6FE93078007638AF61293073007D4
:101BD000E399F6F61C43D04181459386470014C330
:101BE00083AA07005685952E01C53305554148C087
:101BF0005C401CC8A301040471A81C43930A24047C
:101C0000938647009C4314C32301F4048547D5B74A
:101C100093F607041C410CC3B9DAC207C18781BF20
:101C200093F5050408C3C9D983D707001307F00645
:101C30006387E60E970600009386C6542947A301E2
:101C400004044C400CC463C5050008406D9908C0ED
:101C500099E3B28A91CDB28AB3F5E702FD1AB6953F
:101C600083C505002380BA00B3D5E70263FFE70A06
:101C7000A147631EF7001C40858B91CB58401C4840
:101C800063C7E70093070003A38FFAFEFD1A33062C
:101C9000564110C84E87CA867000A2852685893BAA
:101CA0007D5A631E450B7D55B25022549254025901
:101CB000F249624AD24A424B45618280A382D504EE
:101CC000970600009386064C0C40084313F805085D
:101CD0001C411105630D080208C313F7150001C765
:101CE00093E505020CC04147B9FB0C4093F5F5FDA7
:101CF0000CC0B1B79C4193E707029CC193078007D2
:101D0000A302F404970600009386064975BF13F8F2
:101D1000050408C3E30308FCC207C1837DBF97061F
:101D2000000093862646214719BFAE8735B79441F8
:101D30001C43CC4913F806081385470063060800C6
:101D400008C39C438CC301A808C393F606049C43B4
:101D5000F5DA2390B70023280400B28A25BF14487F
:101D60005686CA8526858299E30F45F31C40898BE8
:101D70008DE7B2474844E359F5F23E8535B78546CD
:101D80005686CA8526858299E30F65F1050A5C446B
:101D90003247998FE345FAFEE9BF014A930A94015D
:101DA0007D5BF5B7411122C42A842E8523AA01C088
:101DB00006C63D24FD576317F500938741C19C4338
:101DC00091C31CC0B240224441018280411122C40F
:101DD0002E848395E50006C64522634905007C48AC
:101DE000AA977CC8B2402244410182808357C40034
:101DF0007D777D17F98F2316F400EDB783D7C500E3
:101E0000011122CC26CA4AC84EC606CE93F7071047
:101E1000AA842E843289B68991C78395E5008946C4
:101E2000014631228357C4007D777D17F98F231631
:101E3000F4008315E4006244F240CE864A86B2493B
:101E400042492685D24405613DA8411122C42E8411
:101E50008395E50006C6E128FD570357C400631BC0
:101E6000F500FD77FD17F98F2316F400B2402244E8
:101E7000410182808567D98F2316F40068C8FDB7B9
:101E80008395E50005A8411122C42A842E85B285D8
:101E9000368623AA01C006C6EFE03FE8FD57631768
:101EA000F500938741C19C4391C31CC0B2402244BA
:101EB00041018280411122C42A842E8523AA01C0B7
:101EC00006C6CD20FD576317F500938741C19C439B
:101ED00091C31CC0B240224441018280411122C4FE
:101EE0002A842E85B28523AA01C006C6D120FD57BB
:101EF0006317F500938741C19C4391C31CC0B24056
:101F0000224441018280411122C42A842E8523AAC1
:101F100001C006C66520FD576317F500938741C1D0
:101F20009C4391C31CC0B2402244410182804111B4
:101F300022C42A842E85B285368623AA01C006C60D
:101F40006120FD576317F500938741C19C4391C3FE
:101F50001CC0B24022444101828093F5F50F2A96BD
:101F60006314C5000145828083470500E38DB7FEF9
:101F70000505FDB782808280411122C42A842E8506
:101F8000B285368623AA01C006C6A920FD5763176D
:101F9000F500938741C19C4391C31CC0B2402244C9
:101FA000410182809307800523AAF1C07D5582807C
:101FB0009307800523AAF1C07D5582809307800591
:101FC00023AAF1C0014582809307800523AAF1C0AE
:101FD0007D5582809307800523AAF1C07D558280BC
:101FE000938701819C4391C73E9523A8A1803E859C
:101FF0008280938781C13E9523A8A1803E858280FF
:10200000537461727420404368697049443D2530BF
:1020100032580D0A00000000454550524F4D5F52A6
:102020004541442E2E2E0D00253032782000000030
:10203000454550524F4D5F45524153453D25303245
:10204000780D0A00454550524F4D5F57524954454F
:102050003D253032780D0A004745545F554E4951B1
:1020600055455F49442E2E2E0D000000466C6173CD
:10207000684D4143414444524553532E2E2E0D008A
:10208000464C4153485F524541442032306B2E2E1E
:102090002E0D0000464C4153485F524F4D5F455254
:1020A0004153453D253032780D0A0000466C61737E
:1020B0006857726974653D253032780D0A0000005A
:1020C000466C6173685665726966793D2530327871
:1020D0000D0A0000464C4153485F524541442E2EA4
:1020E0002E0D0000C0EAFFFFE8EAFFFF10EBFFFF44
:1020F00028EBFFFF42EBFFFF52EBFFFF7AEBFFFF06
:10210000A2EBFFFFBAEBFFFFD4EBFFFF00000000E4
:1021100000000000000000000000000000000000BF
:1021200000000000000000000000000000000000AF
:10213000000000000000000000000000000000009F
:10214000000000000000000000000000000000008F
:10215000000000000000000000000000000000007F
:10216000000000000000000000000000232D302BC4
:1021700020000000686C4C0065666745464700001B
:1021800030313233343536373839414243444546AD
:10219000000000003031323334353637383961626F
:0C21A00063646566000000000040002041
:1021AC00000000002C2100004C2100000C2100003C
:1021BC000000000000000000000000000000000013
:1021CC000000000000000000000000000000000003
:1021DC0000000000000000000000000000000000F3
:1021EC0000000000000000000000000000000000E3
:1021FC0000000000000000000000000000000000D3
:08220C0000400020000000006A
:00000001FF
