:040000006F10402914
:1000040000000000000000006F0080086F0020481E
:1000140000000000000000000000000000000000DC
:1000240000000000000000000000000000000000CC
:100034006F004006000000006F00E00500000000B3
:100044006F0080056F0060056F0040056F0020059C
:100054006F0000056F00E0046F00C00400000000A2
:100064006F0060046F0040046F0020046F00000400
:100074006F0060056F00C003000000006F006003A4
:100084006F0040036F0020036F0000036F00E00265
:1000940001A001A001A001A001A001A001A001A054
:1000A40001A001A001A001A001A001A001A001A044
:1000B40001A001A001A001A001A001A0411106C658
:1000C400EF001008F5BFB71700401307000323889B
:1000D400E702854723AEF184730020304111814645
:1000E40001468145114506C6F921B727004011474D
:1000F4002383E780B7F700E003A707D16D9B23A80C
:10010400E7D003A707D15D9B23A8E7D07300501065
:1001140001000100B2404101828041118146014643
:100124008145114506C64129B7270040114723835D
:10013400E780B717004003C7E70283C6E70483D705
:10014400870311661377F70F93E6360063E5C7005C
:10015400719B13671700B717004093057005238040
:10016400B704130680FA2380C70423820702238777
:10017400E7022387D70403C7B70413670702A385DD
:10018400E7042380070437F700E0832607D193E6CA
:1001940046002328D7D0832607D1DD9A2328D7D039
:1001A40073005010010001002380B7042380C704AA
:1001B40003C7B7041377F70DA385E7042380070467
:1001C400B24041018280411122C4814681452A8482
:1001D4000146114506C6C526B727004011472383AB
:1001E400E780B717004003C7E70283C5E70483D756
:1001F400870391661377F70F93E5350063E5D7001E
:10020400719B13671700B71700401306700523800E
:10021400C704930680FA2380D70423820702238726
:10022400E7022387B7042380070437F700E0832518
:1002340007D193E545002328B7D02380C704238042
:10024400D70483C5F70093E50504A387B70083C5E6
:10025400B70493E50502A385B704E57591054D8CB4
:100264004204418023908702832507D1DD99232806
:10027400B7D073005010010001002380C70423800D
:10028400D70403C7B704130560041377F70DA385D8
:10029400E704238007042244B240410125A401114C
:1002A40026CA81460146AA848145114506CE22CC40
:1002B4004AC84EC60926B727004011472383E78062
:1002C400B716004083C7E60203C7E60483D6860355
:1002D400116693F7F70F1367370063E5C600F19BC8
:1002E40093E7170037140040930970052300340581
:1002F400130980FA23002405230204022307F402CD
:100304002307E4042300040413055002B920B7F7BB
:1003140000E003A707D11367470023A8E7D0230011
:100324003405230024050347F40013670704A307D7
:10033400E4002567D98C2310940203A707D15D9BA1
:1003440023A8E7D07300501001000100F24062447A
:10035400D2444249B24905618280B71700409306EE
:1003640070052380D704130780FA2380E70403C6AB
:10037400B7041376F60DA385C70423800704137608
:1003840005022DC603C6A700118A0DE22380D704F7
:100394002380E70403C7A700136747002385E7000A
:1003A4009307004B01000100FD17EDFFB717004054
:1003B400930670052380D704130780FA2380E7048B
:1003C4007D892394A700010001000100010023801E
:1003D40007042380D7042380E704930610053727F6
:1003E4000040A303D780238007048280137605048A
:1003F4006DDE03C6A700418A0DE22380D704238063
:10040400E70403C7A700136707012385E7009307E1
:10041400007D01000100FD17EDFFB71700409306B2
:1004240070052380D704130780FA7D892380E704AD
:10043400136505042394A7000100010001000100D5
:10044400238007042380D7042380E7049306300520
:100454003727004079B7411181460146814511454E
:1004640006C6912AB7170040130770052380E704D6
:10047400130780FA2380E70403C767041367170090
:100484002383E70423800704B2404101828081462C
:100494000146814511450522B71700401307700531
:1004A4002380E704130780FA2380E7047D5723960B
:1004B400E70203C76704136717002383E704238055
:1004C400070401A0BD473305F50201007D1575FD44
:1004D4008280411122C426C206C6AA84014463173D
:1004E4009400B240224492444101828005041305E1
:1004F400803E4204C13F4180DDB723030480154799
:100504002303E48001002302A480828083076480A3
:10051400E3CE07FE23030480828083076480E3CE56
:1005240007FE03454480828083076480E3CE07FE90
:100534002302A4808280411126C44AC24EC006C64A
:100544001377F50BAD47AA892E8995446306F70006
:1005540019456537653F8D444E854537FD59FD1472
:1005640063983401B240A244124982494101828015
:10057400135509011375F50F453F2209CDB7011134
:1005840026CC06CEB704080051371545BD37713760
:1005940069372AC6A53F32459377150089EB136561
:1005A40015001375F50FF240E24405618280FD14D5
:1005B400E9FC0145CDBF397126DC4ADA4ED852D662
:1005C40056D45AD25ED006DE62CE66CCB7E700E0DF
:1005D4007D5783AA070022C603AA470023A0E71871
:1005E40023A2E718B7170040130770052380E70418
:1005F400130780FA2380E70483C74704930B75FF2E
:10060400B684E20793FBFB0F8546AA892E8B3289B9
:1006140037240040E187015763FA76016308D50067
:100624008946130700026313D5000157D98F93F746
:10063400F70FB71C00402382FC0411472303E48016
:100644001305F00F5D3D094CD13563697C11B70783
:1006540007003E9B378707007955637EEB02B3079B
:100664009B00636AF702A9476399F90689E4814408
:10067400713D26850DA0DA850945753D05090345BB
:10068400F9FFFD14050B4D3581C49377FB0FFDF77E
:10069400FD3569FD7D55B7170040130770052380AC
:1006A400E704130780FA2380E70403C74704418B58
:1006B4002382E704F250B7E700E023A0571123A2F6
:1006C4004711E25432445259C259325AA25A125B67
:1006D400825B724CE24C21618280A5476395F906E6
:1006E40085691309F00FB3069900B3742B01B6940E
:1006F4001349F9FFB3749900856B33796901416B30
:100704009387F9FFB3F7270199E363FC340193D985
:100714004900C147E3E637FF99BF0569C1697D19FF
:10072400D9B71305800D638869011305000263843A
:10073400790113051008CA85FD3B913521DD4E99D9
:10074400B3843441D9B7DA852D45F533CA94E3002F
:1007540099F20509D933A30FA9FED5BF9387F9FFF1
:1007640093F7F70F636CFC0803C75C04B707080032
:100774001377070219E3B78707007955E37DFBF088
:1007840033079B00E3E9E7F089476390F904898024
:10079400D549E38E04ECDA850945713B1109032739
:1007A400C9FF91472320E48003076480E34E07FEDA
:1007B40023033481FD17EDFBFD14110B81C49377E2
:1007C400FB0FE9FF6D3B71F5F1B58547E387F9F45C
:1007D400DA852D458D339389F4FFE38A04E8353BAC
:1007E40093F7390091EB83260480032709009307CC
:1007F4004900E39FE6E63E89CE84F1BFB5476396A0
:10080400F9001305900BD5399DB5B1471305B00A0E
:10081400E38BF9FE9947639EF902DA852D45213B66
:1008240081448D4BA149D539639674018327048093
:100834002320F9008504E39834FF832704801317E9
:100844002B01635507002312F90015B52322F90083
:1008540039BD9D476399F90281451305B004E13917
:10086400BD442320090023220900FD597D3193F75B
:100874007400CA9703C70700FD14398D2380A700AD
:10088400E39634FFEDB3A1476392F904CD39814473
:10089400630D0B008D479304C0036308FB009304AE
:1008A400000563048B01930440041375C507E3003A
:1008B40095DC194599319939054581312685AD3144
:1008C40009459D316D39E31405DAE9B3914763991C
:1008D400F90013056006153115391305900925B77C
:1008E400E38709D8F15469B309CDB717004013075A
:1008F40070052380E704130780FA2380E704239616
:10090400A702828019C1814799E982803387F50063
:10091400834607003307F50085072300D700E397D4
:10092400C7FEE5B719C1FD5781E98280910503A788
:10093400C5FF1105232EE5FE7D16E319F6FEF5B776
:10094400797122D417240000130444591C4006D69C
:1009540026D24AD04ECE91C782979727000023AF64
:1009640007565C4089CB03D5C186BD3F5C40829766
:1009740003D5E186953F1C4063990718972700002B
:1009840083C7D766858B95C797270000A380076622
:10099400172700000347B765914763FCE700BD29AB
:1009A4009727000083C7B764F9178A07A2979C4367
:1009B40082979727000083C72768918B89C797A0E0
:1009C40000E0E78040161C4491C382979387818698
:1009D4009843172600000346364E3E8997240000AC
:1009E4009384844D9727000083C7074D939617007F
:1009F400BA9683D60600638006109727000083C743
:100A0400A74B63F2C70886073E9783550700231058
:100A1400070003D5C1862EC6239A0186F135938734
:100A240001889C4317250000034505491317250039
:100A3400BA979C43B2458297AA8903D5E1866D355E
:100A44009727000083C74747139717008327090098
:100A540003D541871345F5FFBA9703D707003375CC
:100A64003501598D2390A70083C70400850793F7A8
:100A7400F70F172700002301F74417270000034747
:100A8400B74363E6E70097270000238707421C402B
:100A9400ADEF9387818798433E8425CB9727000049
:100AA40083C7375591CB9727000083C7575489E7ED
:100AB40097A000E0E780E0B71C4082972A8431C504
:100AC4009C48AA97172700002320F7409387C187E3
:100AD4009C4385CF03D5C186013D228597E0FFDF86
:100AE400E780205E2254B25092540259F24903D551
:100AF400E1864561D5BB850793F7F70F972600007C
:100B0400238CF63AE3E0C7EECDBDB25022549254A2
:100B14000259F249456182809167B7C600409387C4
:100B2400373023A6F6200F10000097270000938784
:100B3400A738884F938701959C4331671307373053
:100B4400F053B7071000FD17918F99833A0523A638
:100B5400E6205D8D82804111B7170040985F3AC648
:100B6400945F3247E39CE6FE3245410182804111A5
:100B740006C6D5379726000083C68631858AB1C656
:100B8400930730333307F502B337F5023983CA07C5
:100B9400D98F1727000013072732584B01456303E9
:100BA400F7023385E740636BF70037653D0889C674
:100BB40037856F0813050590198D3E95172700009A
:100BC4002326F730B24041018280E5473307F5021E
:100BD400B337F5022583DE0765BF5D7122DE13841A
:100BE40001943AD218403ED04ACA1C5F86C696C4C5
:100BF40099839AC29EC026DC2ADA2ED832D636D4FD
:100C040042CE46CC72C876C67AC47EC2858B13891E
:100C1400C193C1C31C5F972400009384E43C93F701
:100C2400F7F91CDF9727000083C7073C93F70704F5
:100C34008DC3938741889C4382979727000023ADF7
:100C4400A73A83C7040093F7F70B17270000230D77
:100C5400F738854717270000A30AF73883C74400ED
:100C640093F7070481EF938701959C43D844B8D345
:100C7400930700FC17270000230AF73683876400D4
:100C840063D90700832709009C431727000023002A
:100C9400F73618401C5F8583858BC9CBF5571CDF5D
:100CA4000100010001000100010001000100010038
:100CB4000100010001000100010001000100010028
:100CC4000100010001000100010001000100010018
:100CD4000100010001000100010001000100010008
:100CE40001000100010001000100010001000100F8
:100CF40001000100010001000100010001000100E8
:100D040001000100010001000100010001000100D7
:100D140001000100010001000100010001000100C7
:100D2400938701959C4313075004B8CB18401C5F6C
:100D34009183858B89CFBD571CDF938701959C4395
:100D440023A807048547172700002301F72A8327D0
:100D54000900D8430583058B19C7D843759BD8C3AD
:100D6400D843799BD8C37254B640A64216438643EF
:100D7400E2545255C2553256A256125782577248FF
:100D8400E2485249424EB24E224F924F6161730083
:100D94002030938701959443172700001307C72435
:100DA400BC5289CF83472700858B89EB8347370063
:100DB400858BFDD797270000238A0722828093879B
:100DC400C1949C4399CB944BD04B9842518F98C279
:100DD40094439C479842D98F9CC2938701959C4326
:100DE40037C700401306C003A8CB930620039725FA
:100DF40000009385651F83278720C18393F7F7033A
:100E04006369F60083278720C18393F7F70363E6BA
:100E1400F60083C74500858BF9DF828093870195AF
:100E24009443172700001307271CBC5289CB834720
:100E34000700858B91CB972700002389071A9727F2
:100E44000000A385071A828083471700858BF1DF92
:100E5400DDB79387C1949C4399CB944BD04B984274
:100E6400518F98C294439C479842D98F9CC29387D0
:100E74000195944337C70040C145A8CA65468327F6
:100E84008720C18393F7F70363FBF500832787204B
:100E9400C18393F7F7036364F600BC52EDF38280D9
:100EA400138701941843AA87185F1583058B25EFD0
:100EB4000345150015051377C51F19C6B386E7004A
:100EC40083C626002300D60095C59726000083C656
:100ED400061293F606040945A1CAB386E70083C641
:100EE4003600054693F5F6066390C504E206E186EE
:100EF40063CC06023385E7008347150003470500EA
:100F0400A20793F70770D98F13970701418393764C
:100F1400074099C6136707802394E19401458280B2
:100F24002394F194E5BF05458280011136C8938668
:100F340001952ECC8C423AC63EC498452ACE32CA7C
:100F44009317070142C2C1831378172036853E8662
:100F54009726000093864609630408041377072044
:100F640061CF03C726001367170017280000230E5C
:100F7400E80613070019B8D1130700F897250000F5
:100F84002386E506138701940C4337080010D855CF
:100F9400719B13672700D8D598413367070198C11F
:100FA4001377261005C31376061045CA03C7060037
:100FB40013671700172600002308E602172700000E
:100FC4002318070283C6460093C7F7FFC207E20649
:100FD400E186C183184163D106029396170163D752
:100FE400060830538D4663E9C6008546172600007F
:100FF400230ED6FE3453FDFE97260000938606E8A2
:101004008386460163DD060093960701C18663D596
:1010140006067053894663E4C6007453FDFE144704
:101024007245E245F58F1CC75246C2463247A24775
:10103400124805617300203003C7160013671700B8
:1010440097250000A382E5FA17270000230007FA7A
:1010540017270000231E07F8A1B703C7360013673C
:10106400170017260000A302E6F889BF8546172655
:101074000000230DD6F649B7544713960601635171
:101084000602B7061000FD1674D397260000938657
:10109400A6E2944E850617260000232BD6E241B71C
:1010A400A166D58FADBF172700001307A7F58346A8
:1010B400B7019727000083C737F8B69793F7F70F60
:1010C400FD4663EAF6044C4B97260000A38CF6F227
:1010D4009727000083C717F305473317F7009726B0
:1010E4000000A38BF6F46D8F1DEF9726000083C6D6
:1010F400F6F4B3F6D70213050002814733D6F500A0
:10110400058A13F8F70F09CE6399E60097270000C4
:10111400A38A07EF828081177DB705071377F70F3E
:101124008507E39DA7FC8280938781959843B757F1
:1011340002009387279F8326070913965600635856
:101144000600832607091396660063440600FD170C
:10115400FDF3828051C9AA870145C9C98D07C20719
:10116400C183F19BC207C18313074003636BF7027A
:101174001387419E08431387C19D14436396A602B7
:1011840017270000130787CF185B014525C34111BA
:10119400C20706C60545DD8D0297B24001454101EF
:1011A40082801387019EF9B70357650005EF035743
:1011B40045006369F702B306F74021466370D6021F
:1011C4001041938687001D8FAA96611790C22392BF
:1011D400E6002393060014C12312F5002313B5007F
:1011E40021058280084159BF01458280828001CD5A
:1011F4009387419E03A807009387C19D8C430147B1
:10120400C28763E3B70082809443636FF50663ED9E
:10121400A60613868700E368C5FE03D5670021662A
:1012240005066317C50003C6019005062380C19017
:1012340023930700638407031386019E1042630F00
:10124400F6000356670019EA83D7470014C3835690
:101254004700B697A1072312F700BA879843E3041F
:10126400B7FA9386019E9442E30FD7F8835667003A
:10127400D9FA83D64700035647001843A106B2960D
:101284002392D70098C382803E87B6879DBF000013
:10129400974100209381C11917710020130141D691
:1012A40013054000972500209385855517360020A7
:1012B4001306067E63FAC5008322050023A05500A9
:1012C40011059105E3EAC5FE175501001305C56B29
:1012D400973500209385C57B1386018563FAC50085
:1012E4008322050023A0550011059105E3EAC5FEFC
:1012F40013850185975500209385C5646377B500F0
:10130400232005001105E36DB5FE9302800873A048
:101314000230972200209382A24E93E2120073902F
:101324005230970200009382420E7390123473007D
:1013340020303D432A876373C3029377F700BDEFE0
:10134400ADE5937606FF3D8ABA960CC34CC30CC731
:101354004CC74107E36BD7FE11E28280B306C3405A
:101364008A069702000096966780A6002307B700B6
:10137400A306B7002306B700A305B7002305B700EB
:10138400A304B7002304B700A303B7002303B700E3
:10139400A302B7002302B700A301B7002301B700DB
:1013A400A300B7002300B700828093F5F50F93964E
:1013B4008500D58D93960501D58D61B79396270049
:1013C4009702000096968682E78086FA9680C11777
:1013D4001D8F3E96E374C3F8A5B7058905C5411171
:1013E400175501001305850606C6EF30916C81453B
:1013F4003D45A124B2409306803E79468945054582
:10140400410131AC828041111305800406C6972046
:101414000020E780807485457D55EF00505A85454E
:101424007D55EF003064371700408327870A8D45C8
:101434001305002093E707202324F70AEF00305810
:10144400EF00F079175501001305C521EF307166DF
:101454008123852517050000130565F83D28EF1045
:101464002133EF00F01497200020E78020452388E3
:10147400018423AA0184B717004003A7070CB70609
:10148400C0FFFD16758F23A0E70C03A7070DB70651
:101494004000558F23A8E70C828023AAA184130659
:1014A4004006894503C5A1856F10E050B717004079
:1014B40083A7470C3707400083C60185F98F13B70C
:1014C4001700638DE6002388E18489EB93874185C7
:1014D40003A3070063040300054502838280797136
:1014E40022D426D24AD04ECE52CC56CA06D613792E
:1014F400F500175400201304E4148544938991855E
:10150400138A8185914A631009022254B25092547D
:101514000259F249624AD24A03C5A185014685456A
:1015240045616F104049B3779900A9C783470A0002
:1015340003C7090023000400E58FD98FA38CF1842D
:101544002312D4002301C400A300B40099E12300B2
:10155400540136C632C42EC2EF10C0328347040091
:10156400B2462246924593E7270008C42300F400BC
:1015740033499900860493F4F40F310469B79377DF
:1015840015001387818585CB8547B7160040639E78
:10159400F50083A7860A93F7F7EF23A4F60A834797
:1015A40007005D8D238CA184828083A7860A93E73C
:1015B400071023A4F60AE5F5834707001345F5FF52
:1015C4007D8DCDB7011122CC26CA4AC84EC652C45D
:1015D40006CEAE899374F5001759002013098906C5
:1015E4000544214A89E8F2406244D2444249B2495E
:1015F400224A05618280B3F7840089CFCE85639641
:1016040049018345090093C5150022852300B900CB
:10161400A18CB53706041374F40F3109E1B7AA8716
:1016240011C909CA81CA9307300663E3C70045BDDF
:10163400854549BF81453E85EDBFA14763EFB702AC
:1016440097560100938686E11397250036971C432D
:10165400411106C6B69782879306803E1546854596
:101664007D3FB2400145410182809306803E15468C
:1016740093052003F5B7B937EDB7014582803717D5
:1016840000408327070A411106C693E70710232069
:10169400F70A81453D453D378566938606FA7946C6
:1016A400A94505452D3DB24097570020238407FCEA
:1016B400410182809757002083C7C7FB63950716B3
:1016C40079714ECEC16922D426D24AD052CC56CAA0
:1016D4005AC85EC662C406D666C26AC017540020E1
:1016E400130444F6014C3D498544138A9185930AB9
:1016F4004006FD19130B4006930BF00FB3F72401BA
:10170400E1C783470400898BD5CFEF10A0171C4491
:101714002A8D6366F50E83460400834C240093F7F8
:101724001600BDCB33079B41F99A81452685937CEE
:10173400F70F2300D400A135034604009377460035
:1017440099EF83461400638C7601FD1693F6F60F29
:10175400A300D40089E6134626002300C40083476F
:101764000400898BB1C303574400330797033357ED
:10177400570393170701337737016A97C18318C456
:1017840063030C08A1C33E876373FC006287131CC8
:101794000701135C0C013DA093E6160085452685E0
:1017A4002300D400E93B65BF83450A002685E58D07
:1017B400B335B000593503470A0093C7F4FFF98FD6
:1017C400A38CF18433C92401860493F4F40F310407
:1017D400E31609F2630B0C022254B25092540259DC
:1017E400F249624AD24A424BB24B924C024D628653
:1017F400224C03C5A185854545616F10C01B898FA7
:10180400C207C183B5BF3E8C75BFB25022549254F7
:101814000259F249624AD24A424BB24B224C924C90
:10182400024D456182808280411193962500AA85EC
:101834002D4506C697200020E780E057B2400145B9
:1018440041018280411126C29394250022C44AC0DA
:101854002A843289A686AA850146254506C697208C
:101864000020E7804055A6864A86A2852945972010
:101874000020E7804054B24022449244024901458A
:1018840041018280011122CC06CE3714004026CAC1
:101894004AC84EC652C483447405034AB4058349F6
:1018A40084050349940555238347A40593F4F40F51
:1018B400137AFA0F93E71700230DF40493F9F90F41
:1018C4001379F90FB717004003C7A705058B6DFF00
:1018D40003D5C705A38D4705238C3705A38C27059E
:1018E400A38B9704F2406244D2444249B249224A4B
:1018F4000561828041119397050122C406C6C18700
:101904002E8463DA0700EF00303919C1EF0030325A
:101914002165218D39A093F7150081CB613B1345D7
:101924001400B24022444101828093F7250081CF04
:10193400B53E1306000A894503C5A185EF10A0072B
:1019440013452400F9BF9397250163DF0700EFC017
:10195400207037F60200130606E0896503C5A185E9
:10196400EF106005096575B7939715010145E3DA32
:1019740007FA17550100130525B5EF309113130627
:101984000064916503C5A185EF10E002116551B7AC
:101994001D71494697550100938585AE1755010081
:1019A400130545CC86CEEF00106801E917550100F8
:1019B400130545AEEF30F10F01A037F700E0F957FA
:1019C4005CC7FD571CCB8566B7E700E023A0D710A2
:1019D4001306701010C3B8434146B0C323A0D718F0
:1019E400B8C3010001001306C00381454808EF0095
:1019F400705D973700209387E7443ECA89679387D1
:101A04000780231CF100A167938707E03ECE970768
:101A140000009387A7E1BEC4970700009387C7E23D
:101A2400BEC6B5472308F102971700009387479570
:101A34003EDA97070000938727E53EDEED47A301D2
:101A4400F102B707142D9387A710B7F507003ED20C
:101A54008146970700009387C7147000E105194574
:101A64003EDC97200020E7800035580881479946DE
:101A740070003E960346060085070507A30AC700C3
:101A8400E398D7FED24791C70357810185676373F3
:101A9400F70001A04808EF10202CAA8501C91755AA
:101AA4000100130565A0EF30216F01A0F640256108
:101AB4008280411117050000130505E406C622C4FF
:101AC400EF1000261384A1852300A4003528B92A29
:101AD4007D36713A034504002244B24037F60200D1
:101AE400130606E0896541016F00F06CB7170040EA
:101AF400130770052380E704130780FA2380E704A3
:101B0400C8DB23AE018482804111054506C622C488
:101B140026C24AC0D92E37140040130970050D455A
:101B24004526930480FA2300240523009404834764
:101B3400F4021305800C93F7D70FA307F40283472D
:101B4400F40293E71700A307F40223000404972088
:101B54000020E78000180545A5262300240523005E
:101B640094048347F4021305000293E74700A30794
:101B7400F4022300040497200020E780A014130536
:101B8400407E8147014781460546854569262244B2
:101B9400B24092440249014541016F10C04801110D
:101BA40022CC2A84680006CE26CAEF00207AE52BD0
:101BB4006367A4003305A440F54763EBA7003245EF
:101BC400EF00807A0945F2406244D2440561828084
:101BD4002285293F3245EF0020793737004083477B
:101BE400574093F70704A9C39384C1859C400D45CE
:101BF400F9FB694597200020E780E0DC9C408DC319
:101C04001305D402B707C0A863F7A70037054057E8
:101C14001305D5022295D93D97200020E78000CCFA
:101C24000545952C014545B7010055BFB717004040
:101C3400130770052380E704130780FA2380E70461
:101C440003C7E700136787002387E70003C7170369
:101C540013670702A388E7022380070437070010ED
:101C6400B7E700E023A0E710828089476305F50207
:101C740063E6A7008547630AF50082808D47630108
:101C8400F50299476303F502828017550100130595
:101C9400E5856F3001621755010013052586D5BF10
:101CA4001755010013058586EDB717550100130577
:101CB400A587C5B701119397050122CC06CE26CA84
:101CC400C1872E8463DF070003C50186EF00C07C53
:101CD40011C1B12F2165218DF2406244D2440561C6
:101CE400828093F7150091CB17350020130545F436
:101CF400EFE0705B13451400C5B793F78500014509
:101D0400E1DF4936BD22930425DBA6851745010092
:101D14001305C57BEF3041489307E1007800930633
:101D2400A100300093056100480005260357A10077
:101D34000358E1008357C1008356810003566100B4
:101D4400835541001745010013050579EF30C1445F
:101D540093D7844017370020A30AF7D4973700207D
:101D6400238797D48357A100973600209386C6D340
:101D7400614617370020A30CF7D28357C10085456D
:101D840003C50186173700202304F7D28357E100E7
:101D940017370020A30EF7D0EF30906613060064C7
:101DA400A14503C50186EF001041134584002DB7FA
:101DB400011117050000130525F006CE22CCEF0013
:101DC40030761384018685472300A4002307F1009D
:101DD4001306E1008D47854513055030A307F10034
:101DE400EF0041751306F100854513058030EF00BF
:101DF4006174173600201306A6CCC1451305703054
:101E0400EF00417317360020130686C8D545130525
:101E14006030EF0021729305000A0D45EF20501643
:101E24009305000A1145EF20B015034504008545CC
:101E3400EF0010260345040013060064A145EF00DB
:101E44009037F240624405618280B717004003C7AF
:101E540077051377E70FA38BE704130700F8A38D27
:101E6400E7043D47238CE70413075003A38CE704DE
:101E74008280B7F70700DC4B13D7070111E36547EE
:101E8400C207C1831D8DA9473305F502ED473345CC
:101E9400F5023A958280B717004003C7E70493061A
:101EA40070052380D7041377C70F0D89930680FA32
:101EB4002380D704498F2387E70423800704828083
:101EC400B717004003C7E702930670052380D704C1
:101ED4001377C70F0D89930680FA2380D704498F9F
:101EE4002387E70223800704828037170040834753
:101EF400E702930670051205BD8B2300D704C98F32
:101F0400930680FA2300D70493F7F70F2307F70209
:101F140023000704828041112A83014E930E407EE0
:101F2400130F0019930F400663EB6E0A9308001910
:101F340013034006B3781503854E0D4FA14F337339
:101F440065020D891335150063E5BE0C1308F6FF11
:101F5400794672984208135808013307C70213D60A
:101F64001700BE0732976146B3F6C60213068070A7
:101F7400B386C6023697A166F58F42075D8FB71701
:101F8400004083C6F70293F60608A307D100034670
:101F9400F10083C6F70293F60608E394C6FE83466F
:101FA400F10093F6F60FF1DE930670052380D70453
:101FB400930680FA2380D70423AA070383C6170352
:101FC40093E60608A388D702D8DB03C71703136771
:101FD4000704A388E70223800704410182807D135C
:101FE4003368E3039308E016630E08003368F303D1
:101FF4009308D016630808009378330093B8180048
:102004009388D81633081E01131E0801135E0E01AF
:1020140021BF6393E5030548638608000148630311
:1020240003002A8871087298FD15131E0801C20561
:10203400135E0E01C18109BF13F8150063F4BF00DC
:102044007908D5B713381800E5BFB718004003A8BE
:10205400C80303D3A80383D888034111060393D884
:10206400F8004A08B30E13019308407E22C626C422
:102074004AC21358280123101501930F0019930223
:10208400D01693034006130FC01603530500B3780C
:10209400F30363800810B3787302638108109378A4
:1020A400330013BE1800130EDE166350C8092390C4
:1020B400050005449944F94FF542130900199303A7
:1020C400400683D80500138F18006394880A0353CD
:1020D4000500337E2303630C0E08B3787302638612
:1020E40008009378330063840808F148635C18059A
:1020F4002390E5010508231006010566130606E191
:10210400B3D5CE023244A244124933F6CE02239010
:10211400B6009306C0033356D602B3F6DE0223108C
:10212400C7002390D7004101828093B81800938898
:10213400D816330818414208050313580801231020
:102144006500A1B78548630B0E00337E7302814896
:1021540063060E009378330093B81800F10833082F
:1021640018414208135808012390E50199BFF54826
:10217400B5BF13F3180063F8140163180300E3D91F
:1021840002F7F948E9BFE31C03FEE3D30FF7FD4868
:10219400F9B7E3DE02F19308E01661BFE3590FF1EA
:1021A4009308D01679B74111B7170040985F3AC623
:1021B400945F3247E39CE6FE3245410182809147B9
:1021C40063EEB702174701001307C7368A05BA95AD
:1021D4009C41BA978287B717004003A7470B134562
:1021E400F5FF698F23AAE70A03A7070B698F23A8C2
:1021F400E70A03A7070A798D23A0A70A8280B717E5
:10220400004083A6470B1347F5FFF98E23AAD70A8C
:1022140083A6070B558D23A8A70A83A6070A758FE3
:1022240023A0E70A8280B717004003A7470B498F12
:1022340023AAE70A03A7070B1345F5FF45BFB71702
:10224400004083A6470B1347F5FF758F23AAE70ABF
:1022540003A7070A598D4DB7B717004003A7470BCB
:10226400498FEDB7914763EEB70217470100130793
:10227400A72D8A05BA959C41BA978287B717004063
:1022840003A7470D1345F5FF698F23AAE70C03A79E
:10229400070D698F23A8E70C03A7070C798D23A0EA
:1022A400A70C8280B717004083A6470D1347F5FF9C
:1022B400F98E23AAD70C83A6070D558D23A8A70C46
:1022C40083A6070C758F23A0E70C8280B717004004
:1022D40003A7470D498F23AAE70C03A7070D13454E
:1022E400F5FF45BFB717004083A6470D1347F5FF19
:1022F400758F23AAE70C03A7070C598D4DB7B717A1
:10230400004003A7470D498FEDB7B717004003D529
:102314008700420541819377050491EB9377F5019A
:102324003755E801130505803345F502828093771C
:10233400050C130700046397E7009377F50137450D
:102344009C1CCDB72165130505D0828037E700E0DA
:102354001C435443A183E206D58F1CC1FD5723209F
:10236400F7182322F718828013178500B7E700E0D7
:1023740023A0E710618123A2A7108280B7F700E0B1
:10238400C8439C478280814737370040A14663C4D5
:10239400C700328582800345B740E38EA6FE3385AD
:1023A400F5000345050085072304A740CDB7411177
:1023B40022C406C62A84913F2947B307E502B240E6
:1023C4008D83B3D7870222449507B3D7E702373703
:1023D4000040C207C1832316F74041018280716522
:1023E40041111305052006C6D937B7370040130736
:1023F40070F82381E7400D47A381E74013070004E9
:10240400A380E74005472387E740B240410182802B
:1024140023AC05FE1C4191E7010001000CC1828040
:10242400BA8703A787FF6DFF23ACB7FE82801DC167
:102434008346E5FF1307F00F9147639EE6004111C1
:1024440006C697200020E780805AB24081473E8527
:102454004101828095473E85828001E90145828061
:102464000145B240224441018280411122C42A84A0
:10247400210542059305D004418106C6972000201A
:10248400E780404D71DDFD572320050023128500B0
:102494002303F5002105F1B7138741861C4341113D
:1024A40022C426C24AC006C601440149BA8489E747
:1024B400A165B5250DC401A803C7E7FF6318A702EA
:1024C4001DC8A165F1269840832784FF6317E402A1
:1024D40023A2F186FD57232C04FE230FF4FE22854C
:1024E400B2402244924402494101828011E03E8973
:1024F40083A787FF6DBF3E84E5BF232CF9FED9BFB8
:10250400A9C9411122C406C62A849747002083C75B
:10251400771A2E856368F400193F0D45B2402244B2
:102524004101828083A785FF99E703C7E5FF9307ED
:10253400F00F6305F700E53D1545CDB7238F85FE04
:1025440013854186F13522852244B240A1654101BB
:1025540081A61545828023A2018682809387C18744
:102564009C4399E33E85828003D727006316B70016
:1025740003C70700E308A7FEDC47E5B741119397BB
:1025840005014AC006C622C426C2C1872E8963DE5D
:102594000700193711C1613D21653345A900B240D7
:1025A40022449244024941018280AA860145E5D928
:1025B40001443D47B3578940858B95CB9387018769
:1025C4008443BD4791E28147A2978E070545BE9497
:1025D40033158500131405019C40C840418082973F
:1025E40023A0040023A20400334524014DBF0504A5
:1025F400E312E4FC0144CDBF974700209387C7074B
:102604009C53411122C406C61384818095C78297C6
:1026140023A4A1800840B74703009387D73F33051D
:10262400F502B7A72600938737ECB24022443E95C3
:1026340023A4A180410182809747002093878707C4
:1026440018409C4BBA9723A4F180E9B793878186FD
:1026540090439746002083C6F605814713F7F70F8A
:102664006360D70A1747002003473718914763E090
:10267400E70A9747002083C7E71B918BC9EB011139
:10268400680006CE22CC26CAEFA0607BFD56630FFD
:10269400D50C32479747002083C737FF63F3E70C15
:1026A4001747002013070701404717470020034737
:1026B400E7FD6305D406058B21CF51473304E402BB
:1026C40063F1870A97200020E780E0C8B24763736C
:1026D400F400A28717470020034737FB998F3E95E4
:1026E40097470020938747F98387470163CD070203
:1026F400B707C0A86369F502B70740573E9525A000
:1027040085071397170032970357E7FF21DB828071
:10271400130790023304E40205805DB76207618702
:10272400635707001D8D19E93705C0A801A8E37B8D
:10273400F5FE3707C0A8B307F7403E95974700203A
:10274400938787F3DC53829709ED9747002093879B
:1027540067099C4F99C7EFB0004DEFB05023EFB01D
:10276400E040F2406244D2440561828097470020F1
:10277400938747F4DC47E386A7FE17470020130737
:10278400A7EF83464701BA84858A9DC651443384A2
:1027940087029747002083C757EFE3F487FC97200D
:1027A4000020E78040BB9747002083C717EE1D8CAD
:1027B4002295838744011DBF13049002338487024A
:1027C4000580C1BF2A9609E582800505A30FB5FEE1
:1027D400E31DC5FED5BF81473307F5000307070096
:1027E40019E33E8582808507C5BF01112E8626CA5E
:1027F400AA84131506019305F004418122CC06CE68
:1028040032C697200020E780E0142A8419C5324696
:10281400A68597200020E780E08E2285F24062445E
:10282400D2440561828081476314F60005458280A5
:102834003307F5008507B386F5000347070083C611
:10284400F6FFE383E6FE014582809307F6FFBE951B
:102854002A966313C5008280FD1583C715000505FC
:10286400A30FF5FEFDB7814711E9014582803307C7
:10287400F50003470700E31AB7FE8507E319F6FEE0
:1028840005458280974700209387C7E2884B828062
:102894009747002083C717E2637FF500138781867B
:1028A4009317150008433E9583570500DD8D2310CB
:1028B400B500014582800D458280FD5701111747FF
:1028C4000020232FF7DE9387C18722CC80434EC696
:1028D40097490020938949DA26CA4AC852C456C285
:1028E40006CE5AC02A8981444E8A974A0020938A88
:1028F4006ADC184481476374E900B307274103A7DE
:1029040049021CC409CB03A7CA0063F6E7001747B2
:1029140000202327F7DAA1E7835524009DE95C44CE
:10292400A1E823AEF186032BC40022859720002062
:10293400E780E00B5A8455FC83274A0285CF624422
:10294400F240D2444249B249224A924A024B0561BA
:10295400F5B9034504002D3F5C4081CB1CC483576B
:102964002400D5DFA2844044F9B71C44CDDBC5BFA5
:10297400DCC455BFF2406244D2444249B249224ABF
:10298400924A024B056182809747002083C797D201
:102994006371F5021387818693171500084393C565
:1029A400F5FF3E9583570500FD8D2310B5000145C5
:1029B40082800D4582809747002083C7B7CF636428
:1029C400F50001458280411122C426C24AC006C6D0
:1029D4002A842E89B284593601C504C505452DA023
:1029E400936504F0C205C181414597200020E7802A
:1029F40060F60DE197470020938707C89C5B81C769
:102A0400A285114582970145B2402244924402496D
:102A1400410182809387C1879C438DE323AEA186C5
:102A240085472326050004C52311250123008500BD
:102A3400A300F5002322050055B7BA87D84775FFD0
:102A4400C8C7F9BF45C539715AD0138B018722DC39
:102A540026DA4AD84ED652D45ECE66CA6AC86EC644
:102A640006DE56D262CC3689328AAE89AA84014403
:102A74005A8DB94D854BF94C03270B00131C3400B8
:102A8400937AF40F62971C43A9EF13B5FA00134528
:102A94001500B3978B0063F65D01930714FFB3979A
:102AA400FB0093950701C181528631371DC98327E5
:102AB4000D000145E29784C323A237016304090092
:102AC40023005901F2506254D2544259B259225A45
:102AD400925A025BF24B624CD24C424DB24D216190
:102AE40082800504E31A94F92145E9BF09458280EF
:102AF400411122C426C24AC006C6AA842E89328441
:102B04005D3DCA852685993C09C940C10145B2404D
:102B1400224492440249410182802145CDBF4111A2
:102B240022C426C24AC006C6AA842E89053C2A8429
:102B340019C1231105009747002083C7A7B76394E1
:102B44009700239A2187CA8526853D3D014511E0DA
:102B54001945B2402244924402494101828075479A
:102B6400636BA704138701871443411126C293148E
:102B74003500A696944222C406C6AA873A8409451B
:102B840095C613B5F7003947134515006373F7006D
:102B9400C5178545B395F500C205C18149371C4069
:102BA4000145A69723A0070023A20700B2402244B0
:102BB40092444101828009458280411106C6EFF0AA
:102BC400FF9909C50845B240410182800145E5BF2E
:102BD400F54763EDA704938701879C4313173500DA
:102BE400BA979843894721C7011126CA06CE933460
:102BF400F50022CCB94793C4140063F3A70045152C
:102C040005443314A400420441802EC62685A285BF
:102C14006D378947324609C5A2852685693B8147B8
:102C2400F2406244D2443E850561828089473E85F4
:102C34008280411106C623ACA1860295B240974713
:102C4400002023A3A7A8014541018280994763E995
:102C5400B7008A0597470020938707A8BE9588C1C7
:102C64008280411106C622C426C2EFF07039714633
:102C7400814517450020130525A6A93617440020D1
:102C8400130444A31306400222858145253E23AE46
:102C9400018623AC01869747002083C7A79F13D5DD
:102CA40027008D8B3E958D473305F5029947930593
:102CB40010109384018835051375F50F2301A400C2
:102CC4003305F5021305050F97200020E78080C81F
:102CD40023A8A186834724001305050F88C08A070B
:102CE4003E9523A4A186EFF01F87612E834714002D
:102CF4009840170600001306A68893962700BA96F4
:102D040090C293862700850793F7F70FA300D4009A
:102D1400B24022448A07BA9790C392444101828008
:102D24009747002083C71799174700200347A798A0
:102D340063F1E70213870188184393861700174647
:102D44000020A309D69693962700369708C33E859C
:102D540082809307F00FE5BF1C41638F071841770A
:102D64007D8FB706002089476319D718035745009C
:102D740063050718411126C21946AA849305F00F6A
:102D8400590506C622C4C53405478D476300E516B8
:102D9400174400201304448E1C4481CB585899478F
:102DA40063160714185C631307141306C0038145E4
:102DB400174500201305458CEFF0DFA01306C00370
:102DC400A685174500201305258B97100020E78062
:102DD40060339747002083D7E78A99E79307001069
:102DE400174700202310F78A9747002083C7A78935
:102DF40091E78547174700202307F7889747002066
:102E040083C7778891E7ED4717470020A30DF7861E
:102E14009747002083C7478791E7954717470020C6
:102E24002304F7869747002083C7178691E78547D1
:102E340017470020A30AF7849747002083C7178504
:102E440099E78347040117470020A301F7849747B4
:102E5400002083C7878391E7D147174700202306C3
:102E6400F7829747002083C7078395E71747002019
:102E74000347C78193168701E1869307C00263C89D
:102E840006009377170093B717009387D702174765
:102E940000202302F7809737002083C7177F95E728
:102EA400173700200347877E93168701E18693072F
:102EB400C00263C806009377170093B7170093877F
:102EC400D70217370020A302F77C83C7D40191E708
:102ED400894717370020A30FF77A1C5491C78297AC
:102EE40097370020239BA77CAD3B8147B240224407
:102EF40092443E854101828089473E85828001114A
:102F040022CC06CE2A842EC6EFF00FEFB245F24053
:102F1400818D33A5A502229562441375F50F0561D1
:102F24008280011122CC06CE2A842EC6EFF0CFEC8B
:102F3400B245F240818D33A5A50222956244420533
:102F4400418105618280011122CC06CE2A842EC6DD
:102F5400EFF08FEAB245F240818D33B5A502229598
:102F6400624405618280973700209387E770985701
:102F740025C3411122C426C206C6BE840297173750
:102F84000020035787732A8441C7BA876373A70055
:102F9400AA87C207C183BA866373E400A286C20605
:102FA400C182958F51476355F706DC5491C38297CC
:102FB400854717470020230BF782EFB06009973746
:102FC4000020239C876EB2402244924441018280B7
:102FD4009747002083C787819DE797470020938701
:102FE400678083C79700850793F7F70F173700208B
:102FF400A30EF77EA18B9DC78547173700202317A3
:10300400F77E6FB0C00A97370020A381077ED5BF33
:103014009737002083C7877DDDD72244B24092448E
:103024004101C5B78280973700209387E764D8575A
:10303400011122CC06CE3E8401C72AC6029732452E
:1030440009CD23A2A1881715002013054532D536D2
:10305400F24062440145056182808307440163DDD7
:1030640007009737002023A307669717002093874C
:10307400A72A23A2F188C1BF971700209387A72D01
:10308400CDBF011122CC173400201304E45E0844A0
:1030940006CE26CA4AC801E90545F2406244D24434
:1030A4004249056182805C58E5DB185C75D7700085
:1030B400854582971844B247E300F7FE9305E00480
:1030C400173500200355055C97200020E780808891
:1030D40017370020232EA75E61D117360020035630
:1030E400665A9305F00FEFF0EFED81441739002095
:1030F4001309495C9737002083C7E7580326C901A1
:1031040063C1F402328597200020E780408E014598
:103114009737002023AE075A9737002023AC075A6D
:10312400ADBF9735002083D5E555B3879502084494
:10313400185C898185043E9508C2029765BF4111D8
:1031440022C417340020130424531C4426C206C688
:103154004AC0973400209384E45591EBC84C35E978
:10316400B2402244924402490145410182801C5CE0
:10317400F5D7DC4C99EF9305E0041735002003558F
:10318400655097100020E780E07C9737002023A14A
:10319400A754C84C61D5173600200356A64E930594
:1031A400F00FEFF02FE201499737002083C7A74DB6
:1031B400D04CE355F9FA9735002083D5A54C3385D7
:1031C40025031C44898105093E951C5C08C282972D
:1031D400E1BF97200020E78080819737002023A952
:1031E400074E9737002023A7074E9DBF011156C2F3
:1031F400973A0020938A4A4883A78A0022CC4AC877
:103204004EC606CE26CA52C45AC0AA892E84328912
:103214006385072203A74A03630707147D47636690
:10322400A714973400209384E44803AAC4016317C5
:103234000A0A9565938515E01735002003558544E2
:1032440097100020E78000719737002023A2A74839
:103254002A86630A051083A74A0303A58A009735C3
:10326400002083D525428981829783A78A0003AAF7
:10327400C40117370020232FF7448947639CF908BA
:10328400C1476312F40E9735002083D5A53F93857B
:1032940005FC9147B3C5F5028A05D29503C705001D
:1032A4009307A005631DF70A83C715006399370BBD
:1032B4004A852286910597100020E780A0E4DC4C23
:1032C4005285639347150145F2406244D244424912
:1032D400B249224A924A024B056182809850E38E99
:1032E400E7F89565938525E0173500200355853962
:1032F40097100020E78000662A8A35C52A8683A7AE
:103304004A0303A58A009735002083D5A537898110
:103314008297A5B78D47639DF900C1476315F404EF
:103324009735002083D50536938545FDF199B5B7CA
:103334009147639AF900631834039735002083D5C5
:103344006534A115E5B7C147639FF900A14763EC54
:1033540087009735002083D5E532C115C1BFDC4C09
:1033640052856397470D294585B71307F006568B99
:103374006361A70A130A05FE1947334AEA0217379D
:10338400002003572730973A0020938AAA32330A41
:10339400EA023E9A83A70A026395470183A4CA01FD
:1033A4009DE49305E004173500200355A52D9710DF
:1033B4000020E780205AAA845DD583274B039735E4
:1033C400002083D5252C2A868981528582979145B0
:1033D4001307A005898193972500A69783C6070044
:1033E4006393E60483C61700639C360385058A0548
:1033F4002286A6954A8597100020E780A0D083A74F
:10340400CA01E38297EC268597100020E780205EAE
:103414005DBD1307E007E368A7F4130A05F985B750
:1034240083D5270045BF83A7CA01E38E97F226857B
:1034340097100020E780A05B3DB797370020938763
:103444006727CC4F8DD191479306A00589831397A5
:1034540027002E9703460700E317D6F0034617000C
:10346400631C360185078A072286BE954A85971014
:103474000020E78020C981BD83572700C1BF97374B
:1034840000209387671F984739C79C5FA9C70547E2
:103494006313E504411122C417340020130484216A
:1034A400504C06C60DC608509735002083D5851D9F
:1034B40089818297484C97100020E78040539737C2
:1034C400002023A707209737002023A50720B24018
:1034D40022444101828082800111173700201307A2
:1034E400A7194EC68329870022CC26CA4AC806CE0D
:1034F40052C456C2AA842E843289638A09201C5F6E
:10350400BA8A99EB2945F2406244D2444249B2490D
:10351400224A924A056182805C5BEDD7FD4763E9EC
:10352400A70E973900209389E91883A7C901B1CB65
:1035340003A58A0083A709026395A70689476393B5
:10354400F408C147E310F4FC173500200355851334
:103554009147130505FC3345F5029317250003A590
:10356400C9012286CA853E959307A0052300F5006C
:10357400A3009500110597100020E780A0B801452D
:1035840059B79305E004173500200355A50F97108C
:103594000020E780203C9737002023ABA71249F98D
:1035A40095B783A74A0303A6C9019735002083D59D
:1035B400650D8981829783A78A0017370020232B02
:1035C400F710ADBF8D47639EF400C147E31CF4F2CE
:1035D400173500200355050B130545FD9377C5FFEB
:1035E400BDBF9147639AF400E31E94F017350020A1
:1035F400035545092115DDB7C147E395F4F0A1470B
:10360400E3E287F0173500200355C5074115F9B7E4
:103614009307F00663EAA706930705FE1947B3C7A5
:10362400E702173700200357E705173A0020130A6B
:103634006A08B387E702BE998327CA01A9CF832703
:103644000A02639A37070325CA0191461308A005A5
:10365400FD5593D72600C207C183139727002A97E5
:1036640003460700631D0607834817000356270017
:1036740063959806B306D64063CF860485078A0708
:103684002286CA853E95C5BD9307E007E3ECA7E60D
:10369400930705F979B79305E0041735002003551E
:1036A40065FE97100020E780E02A9737002023A1C9
:1036B400A70251F581BD83A74A030326CA019735A2
:1036C400002083D525FC89814E8582979737002079
:1036D40023A237018DBFA300B700B2869DBFB38577
:1036E4008600173600200356E6F99105130606FCFA
:1036F400E3FAC5E0130634001376C60F1106B2963A
:1037040023000701A30097002311D70085BF973733
:103714000020938727FAD44FBE89A1C203A5C9010B
:1037240091461308A005FD5593D72600C207C1830F
:10373400139727002A970346070063160605834854
:1037440017000356270063989800B306D640E3D7C2
:1037540086F2A300B700B286C1BF8357C7001735EE
:103764000020034545F29305E0043305F5024205C4
:10377400418197100020E780E01D9737002023A99E
:10378400A7F449FD41B3173600200356A6EF973539
:10379400002083C545EFB385C50233868600110634
:1037A400E3E2C5D681BF01458280011106CE2EC653
:1037B400EF60602E01C9B245F24003552500056152
:1037C4006F90A04EF240494505618280A388018A2A
:1037D4002388018A23AC018823AE018823A0018AAF
:1037E40023A2018A23AA018823A8018897370020ED
:1037F400938747F03707B40098C33747A000D8C36E
:10380400370710009306070A94C7B7065000C1068D
:10381400D4C7930607054107D8CB3707D00741071C
:1038240098CF3707840398D337C70700130707B81F
:10383400D8D3416794CB93060701130717F8D8D759
:10384400417723AE070094D798DB8280011126CA02
:10385400AA84214522CC06CE2E8432C636C43AC26E
:10386400EFE0BFBF1DC9A24612473246930700FDD1
:103874002300F5009947A30095002301F5002303D5
:10388400D500A303E5002312C500AA85228562445E
:10389400F240D24405616FE0BFC6F2406244D244B4
:1038A4000561828023ACA188828023AEA1888280B6
:1038B40023A0A18A828023A2A18A8280011122CC22
:1038C4004AC806CE26CA2A890144B304890063681B
:1038D400B400F2406244D2444249056182802EC65B
:1038E400EFE09FD193170501C183A183B2452380E3
:1038F400F4009307140093F7F70F850463F9B700F6
:10390400CA9709042380A7001374F40F7DBF3E8473
:103914007DBFC16717350020035565E1FD176302BC
:10392400F502411103C681929385818A06C6EF5040
:10393400F078B240FD5717370020231AF7DE410113
:103944008280828009C925151375F50F1335850EFC
:103954001345150082800145828023800500F947C4
:1039640063E2C708797122D426D24ECE56CA5AC809
:1039740006D64AD052CC5EC63684B289AE8A2A8B29
:10398400814463FF3405B307940003CA0700138915
:1039940014001379F90F63050A04B3072A0163C1FC
:1039A400F904B307240183CB07005E85613F0DC989
:1039B4009307FAFF2380FA0063906B031305190041
:1039C4002295B250225492540259F249624AD24A80
:1039D400424BB24B45618280D29493F4F40F55B7B5
:1039E4000145C5B701458280411126C2AE8422C477
:1039F4009737002023A4C7D49737002023AEB7D22B
:103A04009737002023A8A7D22A8441469305F00FB4
:103A140026854AC006C60549EFE0FFE4631E250378
:103A240097370020938747D0884BC145413D414695
:103A34009305F00F2285EFE01FE38544631695029A
:103A4400224497370020938727CEB24092440249FC
:103A5400C847C14541019DB5414681452685EFE0F2
:103A64009FE0E31625FD6DBF414681452285EFE0C9
:103A74009FDFE30795FCB24022449244024941018E
:103A84008280411122C426C22E84AA841306000215
:103A9400814517350020130525C906C6EFE09FD2DE
:103AA40097370020A38397C8A3858192EF90602164
:103AB400854719C181474945B24022441737002040
:103AC4002304F7C6924441018280814781CD19C9FC
:103AD4008547631BF50083C7550093E707FCA38262
:103AE400F50085473E85828089476317F50083C7C3
:103AF400550093F7F703E5B70D478547E314E5FE53
:103B040003C755001377F70313670704A382E5007F
:103B1400D1BF81478DC105C103C755009306000C71
:103B240085471377070C6308D700930600048D4775
:103B34006303D70089473E858280411122C4005D1A
:103B440006C626C21DC8AA84085009C597100020BD
:103B5400E780E0E9485009C597100020E78020E994
:103B6400085409C597100020E78060E82285971063
:103B74000020E780C0E723AC0402B2402244924410
:103B84004101828009ED9737002083C707BA1735B2
:103B940000201305E5BA81CB13858188828017350F
:103BA40000201305E5B98280173500200345E5B7E9
:103BB400828097370020938727B7C847828097373A
:103BC4000020938767B6884B8280973700209387BD
:103BD400A7B5DC4B88438280973700209387C7B40E
:103BE400D84B1C4385071CC3173500200345F5B388
:103BF4009307F00F6305F50091656FE07FC982803C
:103C0400011122CC06CE2E8432C6EF501078914793
:103C1400B245631FF5009387418A9C438DC303A378
:103C24000700630E030022856244F24005610283AB
:103C34009387C1899C4381C703A34700DDB7F24042
:103C44006244054505618280011122CC2A84035512
:103C5400450006CE26CA4AC84EC6EF50F0532DC5BD
:103C64002A89834405008349C500C13D4A85EF6024
:103C7400704703554400EF50D06C83C7018BA9CB28
:103C84006398970483C5118B2685053619E123882B
:103C9400018A03554400EF50506F9147631FF500AC
:103CA400035744009737002083D767A86317F700AA
:103CB400FD5717370020231CF7A6F2406244D24474
:103CC4004249B2490561828081499304F00F75B776
:103CD4009307F00FE38FF4FA83466400035644001D
:103CE400034524004E87A685953665B779715EC66F
:103CF400AA8B2E8552CC56CA5AC806D622D426D2AE
:103D04004AD04ECEAE8A328B368AEF50F0486DC11F
:103D1400045D2A89F1CC9C50614599C31305400385
:103D24009C5481C751054205418163050A00710510
:103D340042054181DC5081C7590542054181EFE0CC
:103D4400CFF12A8455C561468145EFE0BFA7973975
:103D5400002083C9299D63940900834909009307BE
:103D640000FD2300F400A947A30074012301F4001B
:103D7400230364018C50231254011305840191C957
:103D840008C47146930A440397000020E7808037F3
:103D940056858C5491C948C45146930A45019700ED
:103DA4000020E78020365685630C0A0008C8714657
:103DB400D285930AC50197000020E780A034568578
:103DC400CC5099C548C8594697000020E7808033F5
:103DD400A2854E85EFE0CFF22254B2509254F249BC
:103DE400624AD24A424BB24B4A8502594561B1B349
:103DF400B250225492540259F249624AD24A424B76
:103E0400B24B4561828001114EC6AA892E854AC8EB
:103E140006CE22CC26CA2E89EF50103831C59734ED
:103E2400002083C4249099E0834405001945EFE001
:103E3400CFE22A8415C981451946EFE0BF9893075C
:103E440000FD2300F400B947A30034012301F4006A
:103E540023122401A2856244F2404249B2492685D4
:103E6400D24405616FE0CFE9F2406244D244424952
:103E7400B2490561828039715ECEAA8B2E8526DA1D
:103E84004ED652D456D25AD006DE22DC4AD8AE845C
:103E9400328BB68A3A8ABE8942C6EF50F02F31C9B6
:103EA4002A894145EFE06FDB2A8421C541468145DB
:103EB400EFE05F91173500200345C58619E10345FE
:103EC4000900930700FD2300F400BD472301F4001B
:103ED400B247A30074012312940023046401A304D1
:103EE400540123054401A30534015CC4A285EFE019
:103EF4002FE1F2506254D2544259B259225A925A82
:103F0400025BF24B21618280797126D2AA84394501
:103F14004AD04ECE06D622D42EC6B2893689EFE0D8
:103F2400CFD321C1B2459307000D2310F500B1474B
:103F34002A842312B5002301F500CE8519051946FC
:103F440097000020E780001C23062401A285225448
:103F5400B2500259F24913F5F40F925445616FE0DF
:103F64002FDAB250225492540259F24945618280A8
:103F7400172700200347777B9307F00F630DF7069D
:103F8400411126C2AA84394522C406C64AC0EFE0BC
:103F9400CFCC2A8439C9930700FD2300F500A30080
:103FA40095002301050097250020938565790D056B
:103FB400194697000020E780E01417290020130910
:103FC400A97683578900A285172500200345F57536
:103FD4002315F400834719002306F4002244B24059
:103FE4009244024941016FE0AFD1B240224492446D
:103FF4000249410182808280011156C2AA8A314558
:1040040026CA4AC84EC652C406CE22CCAE84328AD0
:10401400B6893A89EFE06FC429C92A842685EF500E
:10402400B0171DCD03450500930700FD2300F400E0
:104034009D47A30054012301F40023129400231389
:1040440044012314340123152401A2856244F2405F
:10405400D2444249B249224A924A05616FE04FCAAA
:10406400172500200345756CC1B7F2406244D24461
:104074004249B249224A924A05618280397162CC2E
:104084002A8C594526DA4AD84ED652D456D25AD01A
:104094005ECE06DE22DCAE8432C636C4BA8B3E8BDC
:1040A400C28A468A8359010403494104EFE0EFBA06
:1040B40035C53246930700FDA2462300F500954717
:1040C400A301C500A30085012301F5002A84194634
:1040D4001105A9C2B68597000020E780A002230637
:1040E4006401230A2401231574012317540123189E
:1040F400440123193401A2856254F2504259B25941
:10410400225A925A025BF24B624C2685D2542161A8
:104114006FE00FBF8145EFE0EFEAD1B7F250625490
:10412400D2544259B259225A925A025BF24B624C0F
:10413400216182809727002083C7275F8DCB41119F
:10414400AA8519461385818806C697000020E78052
:1041540060FB93858188172500200345055DEFF0FA
:10416400DF96B2401385818841016F801036014586
:104174008280172700200347575B9307F00F6305DE
:10418400F708411126C2AA84294522C406C6EFE0D5
:10419400CFAC2A8429C1930700FD2300F500A14771
:1041A4002301F500A3009500972700209387C757A4
:1041B40083C72700938581881105A30FF5FE19464F
:1041C40097000020E78000F4A2851725002003450E
:1041D400D555EFE0EFB217270020034707558D4769
:1041E400631FF7009387018A9C4391CB03A3870045
:1041F400630703002244B240924441010283B24067
:104204002244924441018280172700200347E7514A
:104214008D47631AF7009387018A9C4389C703A3D8
:104224008700E31D03FC8280797122D406D626D24E
:104234004AD04ECE52CC094445C92A8903550500BB
:104244002E8A5144EF504075AA8459CD83C7B19248
:10425400FD1793F7F70F054749446377F7080347BA
:10426400C500A1476314F70063100A089C5C454429
:10427400A5EF9165938545711305C0029700002051
:10428400E780406D88DCAA894D4439CD1306C0020D
:104294008145EFE02FD38357090093864900368583
:1042A4002391F90071469305490036C69700002012
:1042B400E78040E589472380F90003C5C400B2467E
:1042C40003560900611583C5819213351500EF70FB
:1042D400907D2A8463060A00D2852685EF60B00BA0
:1042E40001C42685EFF07F852285B2502254925472
:1042F4000259F249624A4561828083C7B192FD172F
:1043040093F7F70F05476378F708894751C60111FA
:1043140022CC26CA4AC84EC652C406CEAA89368AB8
:10432400B2842E89EF5040672A84D14729C9485561
:1043340009C597000020E780806BF1452685EFE0F2
:10434400CFCA48D4CD4705CD8346C4002147814711
:10435400639FE600630D0A000347A50103560501A8
:1043640093062501AA854E85EF50D07AAA87034784
:104374004400630F0900136767002302E400F2405E
:104384006244D2444249B249224A3E850561828050
:1043940013674700DDB7C9473E858280E14763EB79
:1043A400A700972700209387E73406053E95035519
:1043B4000500828041657D158280011122CC2A840A
:1043C4002E8526CA06CEAE84EF50005D0DCDB747CC
:1043D4000F009387F723094563E2870281450A8525
:1043E4004146EFE02FBEA685231081000A85418057
:1043F40023018100A3010100EF70504DF24062449B
:10440400D244056182804945D5BFA384A1928280AC
:104414006F703062797152CC2A8A328522D426D2C6
:104424004AD04ECE56CA5AC85EC606D662C4AE8BB1
:10443400B28A368BBA843E89C2894684EF50C0550D
:1044440015C92A8C63140A0213774B00834745006D
:1044540015CF93E727012302FC008DEC631C0902AE
:10446400639A090205E8ED9B2302FC00832B8C036D
:10447400639F0B06B250225492540259F249624A85
:10448400D24A424BB24B224C45618280F59B93E762
:104494000701D1B793E747002302FC0001CC1C4875
:1044A4004146A2852324FC0213058C0197000020B9
:1044B400E78040C563910B02D5D80325CC0209C51A
:1044C40097000020E780A052F1452685EFE0EFB188
:1044D4002326AC0261BFE30B09F80325CC0209C50E
:1044E40097000020E780A050F1454A85C5B79DC4D8
:1044F40083A70B0299EB91659385357171459700FC
:104504000020E780204523A0AB0203A50B0219C5B8
:104514007146A68597000020E780C0BE6388090223
:1045240083A74B0299EB91659385257159459700B3
:104534000020E780204223A2AB0203A54B0219C549
:104544005946CE8597000020E780C0BB1DC483A7D1
:104554008B0299EB91659385157151459700002065
:10456400E780403F23A4AB0203A58B0219C5514643
:10457400A28597000020E780E0B82254B2509254FC
:10458400F249B24B224CCA865A860259424BD6850E
:104594005285D24A624A45616FF04FF5011126CA2D
:1045A40052C406CE22CC4AC84EC62A8AAE84EF50E4
:1045B400A03E25C5AA893945EFD03FEA2A8431CDEA
:1045C40017290020034909166314090003C90900C7
:1045D4009307000D2310F400AD472301F4009385E5
:1045E400690013053400194697000020E78080B164
:1045F40093F71400858085882306F400A3069400AD
:1046040023154401A2856244F240D244B249224AAD
:104614004A85424905616FD0BFEEF2406244D244FC
:104624004249B249224A05618280938701898843BD
:1046340001CD411106C697000020E780403BB240FF
:1046440023A80188410182808280011106CE22CCF8
:1046540026CA4AC82EC6EF50203439CDB245172990
:1046640000200349290CAA840CD5631409000349CA
:1046740005004145EFD07FDE2A841DCD9307000D50
:104684002310F500A5472301F50083C75400938543
:1046940064001105A30FF5FE194697000020E7807A
:1046A40060A69C54A285F2405CC46244D2444A850C
:1046B400424905616FD0DFE4F2406244D24442498A
:1046C40005618280797122D406D62A842EC6EF50E1
:1046D400A02C01CDB2452285230EB1006C08EF60F9
:1046E4000048B2502254456182805145DDBF6F506D
:1046F400803FC1671387E7FF6394E5029387C1890D
:104704009C4391EB494582804945B24022449244FE
:1047140002494101828003A30700E30503FE0283EB
:10472400411122C426C24AC006C6FD172A892E8416
:10473400B2846395F5029387C1899C4391CB9C43D2
:1047440081CB829711E52388218BA388918A75BF39
:10475400A6854A85EFF06F854DF9F5B72E85EF50A4
:10476400A0235DD1834705000D45E39027FB2285F7
:104774002244B2400249A685924441016F80E0522E
:1047840061476362A7044111416722C406C626C279
:104794007D172A8409456383E502C547AE84631502
:1047A400F4002E85EF80E05793171400172400209F
:1047B400130444F4A297239097000145B240224485
:1047C40092444101828009458280011106CE2AC6A5
:1047D400EFE0DFFFEF10A002EF00C074EFD0D03C99
:1047E400324597270020938727F4130700F023917D
:1047F400E700238207007D5793878192A380E70017
:104804002380A700F240954505616F30103B5D7130
:1048140093970501CAC086C6A2C4A6C24EDE52DC66
:1048240056DA5AD85ED662D466D26AD0C1872E8947
:1048340063DD074A03C58192EFD01FC68964416ACC
:10484400856A797B2A84938BD4007D1AA50A691B17
:1048540015E021653345A900B6402644964406492F
:10486400F259625AD25A425BB25B225C925C025D9C
:1048740061618280834704001307200A639DE70077
:1048840003552400172C0020034C3CEA2286D285D1
:10489400EFF00FB73DAA1307100903CC9192639769
:1048A400E716834714001547639EE7002285EFF05F
:1048B400AFB92285EFD0BFB703C58192EFD0DFBD7A
:1048C4002A8479B739476399E71603554400631B73
:1048D40055050C4483C90500639D0900850591C9EC
:1048E4001946172500201305A5E597000020E78049
:1048F400608117270020034727E385476318F710D3
:10490400638A090097270020238007E24E85EFF091
:104914002FE645B78947172700202307F7E0EF80E4
:10492400803A41BF93872400631AF50683298400E3
:10493400638E090C83C709008DE383C7290003C76D
:104944001900A207D98F172700202313F7DE83C786
:10495400390017270020A309F7DC17270020034795
:10496400A7DC89476314F70A83C7090081CB97271B
:104974000020238B07DA03C5090051BF8D47972513
:10498400002083C575DA17250020035565DA17273B
:104994000020230BF7D8EF305025F1BF9387540044
:1049A4006318F5001C4403C50700EFF08FFC11B732
:1049B400B3076501C207C1831147636FF70093878B
:1049C400018A9C43E38707EE9C43E38407EE228538
:1049D4008297E31005EE1DA89387B400631FF500CA
:1049E400938781899C43E38607EC9C43E38307EC2C
:1049F400A2851385B4008297E9BF9387C40063102E
:104A0400F5021C4483C70700E38507EA9307F00F08
:104A1400E301FCEAA2856285EFD09FAE71BD938766
:104A2400E400E315F5FE9387C1899C43E38307E81B
:104A3400DC43A285E9F3B5BD3D476397E70403551D
:104A44004400E30275FF93879401E30EF5FC93871A
:104A54003401E31DF5FA9727002083D747CD639EE1
:104A640047019387C1899C43E38507E4DC43E382E0
:104A740007E4A28513853401BDBF9387418A9C4313
:104A8400E38907E29C43E5B71307E003E390E7F803
:104A94008347240005476396E70E83476400138D1C
:104AA4000189F1E383270D00D5CB03CC0700A1498D
:104AB40003457400930C8400E685EFF08F858347EB
:104AC4004401A303A400835804010358E4000357DA
:104AD40044002A86034534003EC283572401E686F7
:104AE400E2853EC0CE87EFF06FD98347340095E767
:104AF400DD47835804010358E4008346740083555A
:104B040044003EC283572401668705463EC0628541
:104B1400CE87EF502019A301A40083270D0081C77D
:104B24001145EFF09FB003C5018BE30405D883C59D
:104B3400118BEFE09FC7E30E05D68346340093073D
:104B44001003638AF600035644004E8783C5018B25
:104B54003685EFE0BFCF2388018AA1BB172C002044
:104B6400034CBCBCA9B79387018A9C43172C002033
:104B7400034CBCBB91498DDFDC439DDB014582972F
:104B840005BF2947639DE70A83476400938C018925
:104B9400C9EB83A70C00C9C303CC0700A149034593
:104BA4007400130D8400937725001376150089E7AC
:104BB400EA85EFE01FF62A8683470402A303C400B4
:104BC4008358C4010358A401035744000345340027
:104BD4003EC28357E401EA86E2853EC0CE87EFF009
:104BE400EFC98347340095E7DD478358C401035870
:104BF400A40183467400835544003EC28357E401F4
:104C04006A8705463EC06285CE87EF50A009A3019E
:104C1400A40083A70C0021B7172C0020034CFCB080
:104C2400B5BF9387018A9C43172C0020034CFCAF2B
:104C34009149B5D7DC43A5D7014582978DB709477C
:104C4400639DE700938781899C43E38407C6DC4323
:104C5400E38107C622858297A9B92D476399E700A6
:104C6400938781899C43E38607C49C47D5B70D4746
:104C74006397E70022868D450355440011B919470F
:104C8400E396E7D89305610113051031EFD0C07C9A
:104C94002C0813052031EFD0207C03566400835781
:104CA40081010355440063E8C70083568400035719
:104CB400610163F7E60093050002EF808005D5BE2D
:104CC4006374E6002313E40063F4D7002314F400B0
:104CD4000357C4008356A40003568400835564001C
:104CE40001488147EF80A002E9B693F7150081CF10
:104CF400938781899C4389C7DC4399C30145829783
:104D04001345190091BE93F7250081CF9387018A3B
:104D14009C4389C7DC4399C3054582971345290001
:104D240025BE93F745000145E38807B2938741897F
:104D34009C4391CF8547172700202309F79E93872B
:104D4400018A9C4389C7DC4399C305458297972709
:104D540000209387679DC8472C08EF7040202808DF
:104D6400EFF04FBD9727002083D7E79A91CB130626
:104D740000643386C702914503C58192EFD0BFC357
:104D840013454900D1BC411122C42A84554506C6A5
:104D9400EFF0CFE0B335A00022852244B2404101B8
:104DA4006F70F073797122D406D68D472E84631FF9
:104DB400F50003D7A50083D6850003D66500034517
:104DC400340083D54500EFF02FA309A88967138722
:104DD400D7006310E50403C5250019E58547B250E3
:104DE40022543E8545618280938701899443FDD690
:104DF40003C6360083C50600814802C202C00148CA
:104E0400814701479106EFF06FA70545EFF0FF8159
:104E1400F1B71387E700E303E5FC13873701631A4F
:104E2400E50003C525005DD901478146014681455A
:104E340059BFE507E304F5FA41677D178147E3109D
:104E4400E5FA03C75500C947E31AF7F883D6E50026
:104E540003D6C5000355840083D5A500EF70F06C1C
:104E640051C15D45EFF08FD33335A000231CA10061
:104E740083454400035524003008EF4090258357B0
:104E84008101A9FF6C0813051031EFD0E05C930594
:104E9400E10113052031EFD0205C8357C101035792
:104EA40084006374F7002314F4008357E10103576B
:104EB400A40063F4E7002315F400835584008357AA
:104EC400A40063F4B7002315B4000357E400835629
:104ED400C4000356A4000355240001488147EF7021
:104EE4001061EDBD8547231CF10059B7C1671387D5
:104EF400E7FF639DE500938701899C4395C383C7BE
:104F040007000D47639CA7006F70B05DFD1749470C
:104F14006396F500938701899C43FDF73A85828067
:104F24004947EDBF238E018A23A2018C23A0018C63
:104F34009727002093874781170700001307E74747
:104F440098C3170700001307074BD8C317070000BF
:104F54001307475B98C79387418B17070000130714
:104F640027F998C317070000130707E4D8C3828002
:104F740079714AD01389418C8327090006D622D43B
:104F840026D24ECE52CC56CA5AC881EF0545B250ED
:104F9400225492540259F249624AD24A424B456120
:104FA40082800347050085472A846301F70403468A
:104FB4008500930695009305F1000545EFE0FF9900
:104FC400814719C18347050083460400114763875D
:104FD400E6021387018C18438D4603471700630FBD
:104FE400D70089CF01CF11E5014555B78147014568
:104FF400E1BF8546631DD7048D8BFDD7034514009F
:10500400130B2400DA85EFE0DFB0A300A4008327AC
:1050140009002A8A81499304F00FB1E3834604000E
:105024009147E383F6FC83270900DDDF03C6C18BC8
:1050340001479305F00FE309E6FABE84C10703C5EF
:1050440007FF6301B51005071377F70FEDB789461E
:10505400E31CD7F8858B55B7850993F9F90F83C7F6
:10506400C18BE3FDF9FA03250900939A490056958B
:1050740083470500E38297FE83471500E39E47FDBF
:105084001946DA850905EFD00FFA79D5832409008A
:1050940003470400D694D9D09147631CF706C8444B
:1050A40005C583478400034605006306F6060347E7
:1050B40004009147631DF706C84419C597000020F2
:1050C400E780E09223A6040003458400916593855C
:1050D400E571050597000020E780C08705C50347F3
:1050E40004009147631EF704C8C4834784009305F2
:1050F40094000505A30FF5FE0346840097F0FF1FF7
:10510400E7804000034584003335A00049B588C4D6
:105114008DA8884471B7930594000505EFD0AFF0CE
:105124008547E316F5F85545EFF04FA7BDA8884429
:1051340041DD97000020E780808B23A4040069B739
:1051440088C465B72380D40083471400DA851385A7
:105154002400A380F400194697F0FF1FE78080FA2B
:105164000345840091659385F571050597F0FF1F4C
:10517400E780407E05C5034704009147E319F7F82B
:10518400C8C483478400930594000505A30FF5FE66
:105194000346840097F0FF1FE780C0F6834784002E
:1051A400E39607DE034504007D1513351500C5B3EA
:1051B400011122CC1384418C1C4006CE26CA4AC855
:1051C4004EC652C499CF2E8AAA840149084063125C
:1051D4009902630C0A0497000020E780408123A20F
:1051E400018CF2406244D2444249B249224A0561E8
:1051F400828093194900B3073501884709C997F09C
:10520400FF1FE780C07E1C40CE9723A407001C40EC
:10521400CE97C84709C997F0FF1FE780407D1C401F
:10522400BE9923A60900050955B745DD1396440028
:105234008145EFD02FD9144081477D5613F7F70FDE
:10524400E37197FA1397470036972300C700850741
:10525400F5B7011152C4138A018C83270A0006CEC4
:1052640022CC26CA4AC84EC656C25AC0C9CF2A89B9
:10527400014419ED9387418C944399CA03C6C18BA9
:105284002A8481479305F00F13F7F70F6367C70864
:10529400131534002105EFD04F9CAA8401E9214560
:1052A400EFD0AF9BAA8421C501444D49930700FD6B
:1052B4002380F4008547A38024012381F400A38183
:1052C40084005DC41389840023A224018149938A44
:1052D400418C130BF00F83C7C18B63F3F90031E8E2
:1052E40083270A00A68503C50700EFD06FA1814577
:1052F40003C5C18B753D03250A0097F0FF1FE780A6
:10530400006F23A0018CF2406244D2444249B24966
:10531400224A924A024B05618280139747003697CE
:10532400034707006305B70005041374F40F8507EA
:10533400A1BF83A70A0093954900BE9583C70500C2
:10534400638467032300F90083C71500130529004C
:105354007D14A300F900194689051374F40F97F01E
:10536400FF1FE78020DA2109850993F9F90FA5B712
:1053740023A20400B5B7411122C406C62A8405E15C
:105384000945EFF0AF812A8611C5854503C5819291
:10539400EFD06FE20545EFF01F9F2A8401C98545D0
:1053A40003C58192EFD0AFF722856535B240224420
:1053B40005454101828089671387B700631AE500B8
:1053C4009387018C9C439DC39C4503C5070065B727
:1053D4001387C7008147631CE5009C4503C507008C
:1053E400854711C59387018C9C43F5F381473E851E
:1053F4008280797106D622D426D24AD04ECE52CC9F
:1054040056CA5AC85EC679C983473500AA8985C772
:10541400404115C05945EFE07FF8931A850193DAAE
:105424008A410149138A018C130B000DB54B83C7C4
:105434003900636DF900B250225492540259F24972
:10544400624AD24A424BB24B45618280830784024E
:1054540063CD570783270A00ADCB2285EFF05FB1F8
:105464002DC5034584005105EFC03FFFAA8431CD0B
:105474002310650123017501834704001946930530
:105484002400A301F5008307840215052303F50016
:1054940083471400A30FF5FE97F0FF1FE78080C633
:1054A400034684002386C4001DC61385440188C8AE
:1054B4009305940097F0FF1FE780C0C483270A0078
:1054C400A68503C50700EFD0AF8305091304940232
:1054D4001379F90FA9BF23A80400CDB79387018CD2
:1054E4009C43B1DBBD332254B25092540259F24969
:1054F400624AD24A424BB24B014545616FF0BF88C4
:10550400797106D622D426D24AD04ECE52CC56CA6F
:105514005AC85EC671C183473500AA8985C744410C
:1055240095C05945EFE09FE7931A850193DA8A41C4
:105534000149138A018C130B00FDC14B83C7390049
:10554400636DF900B250225492540259F249624AEE
:10555400D24A424BB24B456182808387F40063C8D0
:10556400570783270A00A5C75145EFC01FEF2A84B8
:1055740039CD23006501A30005002301750183C70C
:105584000400194693852400A301F5008387F400E1
:105594001505A306F50083C71400A30FF5FE97F0C5
:1055A400FF1FE78020B683C784009385940013050A
:1055B400C400A305F400194697F0FF1FE78080B4E8
:1055C40083270A00A28503C50700EFC07FF30509FE
:1055D400C1041379F90F9DB79387018C9C43BDD304
:1055E400EFF03FC72254B25092540259F249624A32
:1055F400D24A424BB24B014545616FF0CFF883C7A5
:10560400B192A18B1385418B91E301456FE0EFA922
:10561400411122C485452A8403C5C18B06C6EFF017
:105624003FB983C7B192A98BA5CB171500201305E9
:10563400A511238E818AEFE0EFA61384418C1C40D0
:1056440091C74D45B24022444101828003C5C18BBC
:1056540019E10145C5BF91659385B571120597F0B0
:10566400FF1FE780202F23A2A18C61DD03C6C18B1D
:1056740012068145EFD00F95104083C6C18B814738
:10568400FD5513F7F70FE376D7FC139747003297CE
:105694002300B7008507F5B70145238E018AEFE0A3
:1056A4006FA045BF93874189884301CD411106C648
:1056B40097F0FF1FE780A033B24023AA018841017D
:1056C40082808280011122CC06CE8D472E846316FF
:1056D400F50603C73500E94703D545006318F7000D
:1056E4009717002083D7A7046385A706EF40C02A35
:1056F40009C5835764002317F5000357A400835694
:105704008400035664008355440003453400EFE0ED
:10571400BF8E035744009717002083D747016308BF
:10572400F7008547F24062443E8505618280FD575B
:1057340017170020231DF7FEEDB78967CD07631DFA
:10574400F50083C7250031476385E7004547E39AA1
:10575400E7FCEFE00F9CF1B741677D178147E31346
:10576400E5FC83C655004947E39EE6FA83C5450038
:1057740003552400300023140100EF40601055B796
:10578400797122D4138441891C4006D626D24AD08A
:105794000545A5C30D45EFE07FC0AA841145EFE0A0
:1057A400FFBF2A899305F1011305F041EFB050774B
:1057B4000347F1019717002083C727F7B336F0009A
:1057C40011C389061C4036C603C5370093854700BC
:1057D400EFE0AFAF1040B2462A878348B6000348D3
:1057E400A6009307460003462600CA852685EF7067
:1057F400004EB25022549254025945618280FD57A2
:105804002386F1802394018C23A8018C23AA018C84
:1058140023AC018C971700209387C7F31707000068
:105824001307A70798C3170700001307C734D8C383
:1058340017070000130707F598C797070000938719
:10584400A7E823A6F18C8280411126C29384418962
:105854009C4006C622C49DCB2A840D45EFC0FFBFE1
:10586400AA8519CD930700FD2300F5008D47A300F9
:1058740085002301F5009C4003C50700EFC05FC805
:1058840011C42244B2409244410129BDB240224491
:10589400924441018280797126D2835445008967FC
:1058A40006D622D44AD04ECE52CC13876700639DCD
:1058B400E402938741899C43014481CF1845034501
:1058C40007000DE10547A380E7000545EF70E040C0
:1058D40005442285B250225492540259F249624A34
:1058E400456182809537EDB7138797006365970408
:1058F40003C7C1809307F00FE30CF7FC1C45114567
:1059040003C40700EFC07FB5AA8579D1930700FDD2
:105914002300F50089472301F500F977E117BE94C8
:1059240093B41400A3008500A301950003C5C180AE
:10593400EFC01FBD71BFA9070144E39CF4F81389AC
:105944004189832709004A8AC9D7184503C4170027
:10595400854783490700630EF4029717002083C725
:10596400E7DCBDF70D45EFC05FAFAA8505C193071E
:1059740000FD2300F5009147A30035012301F50044
:105984008327090003C50700EFC09FB7EFF09FD13D
:1059940081B79387018D9C4391EF0145EFE01FA0F0
:1059A4002A8611C6894503C58192EFD0CF8083270B
:1059B4000A00A9A003C60700938617009305F10007
:1059C4000545EFD09FF971D983470500858BF1D741
:1059D4000545EFE0BF9C9307B003AA8463FDA702CB
:1059E4005D6613060670894503C58192938444FC61
:1059F400EFD00F902394918C832709000947A3804B
:105A0400E7009717002083C767D299CB9717002028
:105A1400238E07D07DBD130600643306C50251B73B
:105A24004E851D357DB5938741899C43011122CC58
:105A340006CE26CA4AC8454499E783C7B19213F7EC
:105A4400570009EB49442285F2406244D24442495A
:105A5400056182801387018D184341446DD7034744
:105A6400070075D3858BAE842A89D9C783C7040000
:105A74000547F91793F7F70FE366F7FC91659385EC
:105A84007571314597F0FF1FE780C0EC23AAA18808
:105A94004D4455D923002501A30005002946A685B8
:105AA400090597E0FF1FE780E06593057100130582
:105AB400F041EFB0F04683477100B9E717170020B3
:105AC4000347A7C68D476311F704EFE08F8E2C00C0
:105AD400EF60E0482800EFE0EFE54545EFE01F8C7C
:105AE400014435D1130600643306C502914503C54C
:105AF4008192EFC05FEC81BFEFE07FBF2A84EF406B
:105B04006001E375A4F69DBFEFF09FC72A8405DD0D
:105B1400EFF05FB90DBF411126C2938441899C40C7
:105B240006C622C4A1C383C707000D44639DA70210
:105B3400894503C58192EFC09FFE914503C58192BB
:105B44002394018CEFC0BFFD97170020A38007BEEC
:105B54009C400145A38087002244B2409244410105
:105B64006F70A01749442285B240224492444101F7
:105B74008280411106C685476311F50683D7818C5F
:105B8400A1C717170020034767BA1DEF1307B00317
:105B94006367F702894503C58192EFC05FF89307F5
:105BA400006403D6818C3306F602894503C58192CD
:105BB400EFC07FE02394018CB2404101828093873F
:105BC40047FC2394F18CCDBF938741899C43EDD747
:105BD400B24003C5070041013DBF938741899C43FF
:105BE400E1DF83C7B192918BE1DB894503C58192E3
:105BF400EFC0FFF2B2402394018C41016FF09FAAE1
:105C040083C7B192958BCDC79387018D99E1938713
:105C1400818D9C43D1CFFD4763EEC70811C2D9CA19
:105C2400411122C426C206C64AC02386A180B68476
:105C34003284A1C11389018D032509007D46814564
:105C44000505EFC03FB803250900A6852286050592
:105C540097E0FF1FE780004B8325090022852380FE
:105C640085002244B24092440249850541016F7087
:105C740040061389818D032509007D46814505056C
:105C8400EFC05FB403250900A6852286050597E0C9
:105C9400FF1FE78020478325090022852380850094
:105CA4002244B24092440249850541016F70A0022A
:105CB400494582800945828083C7B192918B99CFEF
:105CC40041111385C18C06C6EFD0FFBEB240FD570B
:105CD40017170020231DF7A44101828001456FD0CE
:105CE4009FBD9387018D8843411122C406C626C2F5
:105CF4003E8419C597F0FF1FE78060CF23A8018C6D
:105D04009387818D884319C597F0FF1FE78020CEC4
:105D140023AC018C9384819283C73400958BA5CFE7
:105D240017150020130505A3EFD09FB883C73400CF
:105D3400958B99E74D45B2402244924441018280BB
:105D44009164938564711305000297F0FF1FE78047
:105D540060C023A8A18C79DD130600028145EFC041
:105D64007FA6938554711305000297F0FF1FE78007
:105D740060BE23ACA18C01C9130600028145EFC0AB
:105D84007FA401454DBF084097F0FF1FE78020C660
:105D940023A8018C45B70145EFD09FB1DDB701457C
:105DA400828083D705006387A70083D74500639566
:105DB400A70091052E85828083D78500A105E38BFA
:105DC400A7FE8145C5BF0DCD83472500054789073B
:105DD40093F7F70F6376F702411122C406C62A84AB
:105DE40083550500034535000147F9465D46EFD06C
:105DF4005023F9572311F400B24022444101828018
:105E04008280014582809385B18193070002854693
:105E14002380F500FD57238DF1802387F180A3862D
:105E2400F180239CD180239E018C23A0018E23A882
:105E3400018E23A2018E1386018197170100938797
:105E4400A7B25CC2238F018C97F7FF1F938747C8C3
:105E540009472300E6002380E7002388E700238026
:105E6400E7022388E70217170100130727AFD8DBDF
:105E74000D472384D700D0C7238CD700238CE70297
:105E8400171501001305C5AE171700201307478D1A
:105E940017160100130646AC971601009386C6AD8B
:105EA400D8DFC8C323950700D0CB239D0700CCCFF0
:105EB400D4D3238407022395070223A60702239D34
:105EC4000702170700001307670C97F7FF1F938754
:105ED40027C423A00700D8C323A40700828041114C
:105EE40006C6C13511C503452500B2404101828073
:105EF4000145E5BF411122C426C24AC006C6AA8490
:105F04002E893284793D09E94165CA857D15513D63
:105F1400C54711C523109500230185008147B24070
:105F24002244924402493E854101828039E38948F2
:105F3400354763911605011106CE22CC26CA0347C4
:105F440016000346060093C7F7FF2207598EF18F08
:105F540032C69DE3C4452A84A6855137324601479B
:105F6400630EA60022856244F240A685D2440561F0
:105F740051B72D473A85828013070008F2406244E6
:105F8400D2443A850561828083C805000948639438
:105F9400080303A845008347180003480800A20724
:105FA400B3E70701C2070D68C187130828906394FB
:105FB40007018947A5BF0545828003C7E180930790
:105FC400F00F630AF70441114AC02A89294522C403
:105FD40026C206C63284AE84EFC02FC81DC59307FF
:105FE400100B2310F500230205002314850022441E
:105FF4002311250123139500B24092440249AA8536
:1060040003C5E18041016FC0AFCFB2402244924446
:106014000249410182808280411126C2AE849705E3
:1060240000209385E57322C406C62A844D3D098960
:1060340009C922852244B240A685924441016FD009
:10604400502BB240224492440545410182804111C3
:1060540022C426C24AC006C6AA84130445001309F2
:106064000504835704008DC3084409C597F0FF1F36
:10607400E780E097228531468145EFC0AFF43104D3
:10608400231A04FEE31F24FDB2402244FD5723904B
:10609400F40002499244410182809387818E9C439B
:1060A40003D707006300A70283D6070413870704F6
:1060B4006388A6001387070883D707086396A70099
:1060C4003A8582803E87EDBF0147DDBF9387018F0C
:1060D4009C4399C703D74700E31CA7FE88478280E7
:1060E40001458280411106C6D53709C50845B2402D
:1060F400410182800145E5BF011126CA9384450010
:1061040022CC4EC606CE4AC852C456C25AC02687AE
:10611400814901448146814715450356070045CE10
:10612400C9E20354470083572700B286A297C207E7
:10613400C18385093107E392A9FE35C42E8991658F
:1061440093854570228597F0FF1FE780A0802A8BF6
:1061540039C9814A014A8C4485C503D644003305B4
:106164004B0197E0FF1FE780E0F983D744008844A0
:106174003E9A420A135A0A0197F0FF1FE7802087CC
:1061840063870A00314681452685EFC0AFE3850A5F
:10619400B104E3E23AFD232669012314890005458D
:1061A40021A0630DD6000145F2406244D244424925
:1061B400B249224A924A024B056182800356270063
:1061C400E313F6FE035647003294B2974204C20723
:1061D4004180C183B9BF0545E37835FDB9BF9387D5
:1061E400418E9C4399E30145828098470357A70059
:1061F400E319A7FE138547008280411106C6C537FF
:1062040011C503550500B240410182800145E5BF37
:10621400411106C6E93711C503452500B2404101C5
:1062240082804145E5BF411122C42A842E8506C6D9
:10623400C537AA8505462285EF30C07895476305A2
:10624400F500BD476313F5002145B24022444101E6
:106254008280411122C42A84090506C6EFD0C06990
:10626400FD57A301F400B240224441018280938788
:10627400C18E9C4303D707006300A70283D667003F
:10628400138767006388A6001387C70083D7C700F6
:106294006396A7003A8582803E87EDBF0147DDBF44
:1062A400411122C4416406C626C29307E4FF630C6D
:1062B400F500AA8491ED653F19E51305F4FF453F08
:1062C40019C123109500B2402244924441018280B6
:1062D40085476392F504613F2A8475D5FD572310E1
:1062E400F500834724001307F00F6383E7021307C5
:1062F400E00F638AE700034534000147F94651463D
:10630400A685EFD000522285A937FD572301F4005A
:10631400230204004DBF8947E397F5FA8545EF3022
:10632400500855F12685A1372A8445FD69BF5D7162
:10633400A6C24EDE86C6A2C4CAC052DC56DA5AD8F9
:10634400AE8483C52500F947AA896394F50405370B
:106354002A8409ED01442285B64026449644064920
:10636400F259625AD25A425B6161828083472500A6
:106374000547890793F7F70FE37EF7FC03453500DC
:106384000147F9460146CE85EFD0A0492285D13593
:10639400D1B783AA0400B7070001938707F0370732
:1063A4001200B3F7FA0013070710328A6389E70271
:1063B4002EC6753D2A89B24505C5034645000DC262
:1063C40093178601E187E3C707F84E85EFD0604D48
:1063D4008347490093E707F82302F900A5BF014961
:1063E40003C7A1819307F00F1944E306F7F6E147C9
:1063F400E3E3B7F693D71500FD178E0717070100DF
:106404001307C715BA9703A80700E30608F403ABFC
:106414004700E3020BF4C20A93DA0A0163850A0017
:10642400C947E39AF5F283D64400904483C5140027
:1064340003C50400380802982A8411FD2C084E85EF
:10644400029B2A8421C983C71400E39607F083C7FB
:106454002400230AA10039472308F1006399E702C5
:1064640062478347170003470700A207D98F0C0828
:106474004E852319F100EFC0806EE30D05EC14087E
:106484000546D9454E85EFD0404D2A84E9B583575A
:106494008101F1BF83C624009147E38DF6EA3808F1
:1064A4000146CE8503C5A181EFD0A0372A84E31429
:1064B40005EA83C524002808EFD0C02E19C12300A3
:1064C4000A009840B7070001938707F07D8FB7074C
:1064D400120093870710E30FF7E6E30D09E683C77D
:1064E40024002302F90085BD011106CE2EC6EFF06B
:1064F4001FD801CD83474500B24513871700639623
:10650400E50093F707F82302F500F2400561828065
:106514009387418E984319E3014615A81C4703D875
:10652400A700636B050183584700B38608016355D0
:10653400D5008146639416011843F1BF3E86C10716
:1065440003D3A7FF6317A30099C1239005013285E4
:1065540082808506C206C182F1BF397152D42E8A67
:106564004ED69305E101AA89528522DC4AD856D237
:1065740006DE26DA328936C63AC4BE8A513F05445D
:1065840035C5AA840355E1013944EFF03FB439CD50
:1065940003284500630C08042247B246D6874A867E
:1065A400A6854E8502982A8431E19307E00F638F14
:1065B400FA0203C704008947631AF702D8408347E5
:1065C400170003470700A207D98FC2070D67C187C9
:1065D40013072790639CE7008347190003460900CB
:1065E400D285A2075D8E4E85EFF03F9D2285F25045
:1065F4006254D2544259B259225A925A2161828029
:10660400797122D4035425004ECEAA89228556CA14
:1066140006D626D24AD052CC5AC85EC662C4AE8AC6
:10662400EFF0BFA701E92285EFC01024594421E906
:106634000144B1A003C789008547AA8401446319B2
:10664400F702AA8513858900EFF01FAB21CD03D78C
:10665400640083D68400D04483D5440003D5290044
:10666400E147E53DD9472A846318F50223A60400CF
:106674002685EFF0DF9D41C0D947E30BF4FA22856C
:10668400B250225492540259F249624AD24A424BBD
:10669400B24B224C4561828061DD83D74400239054
:1066A400FA00F9B713894400014A914B594C154B30
:1066B40083550900D5DDE14763067A010357C90014
:1066C40011C3D9470357290083564900032689007B
:1066D40003D5290059352A84631985012324090027
:1066E400050A3109E3166AFD61B77DD983570900AC
:1066F4002390FA00F5B703D529003DB7797122D468
:106704002A840355850026D2AE849305210106D63A
:106714004AD0EFF0FFDF6308050E8347850093F747
:10672400070295CF2AC603552101EFF0BF9BAA8724
:10673400B24501ED8357840039452390F400B250EB
:1067440022549254025945618280035524004946DB
:10675400829711C5835784002390F400CDB7035961
:1067640024004A85EFF07F9311ED41657D15EFF02C
:10677400DF9219E58357840025452390F400C1B7BF
:10678400231025011307450081479546035607004A
:106794002DE63147B387E702130984003146CA85E1
:1067A40091073E9597E0FF1FE780C0953146CA8563
:1067B400480897E0FF1FE780E0940356C4000355A0
:1067C400240041478146DD45EFD020242ACE19E537
:1067D4008357840045452390F40095B70C4803562D
:1067E400C40097E0FF1FE780E091035524004C08A4
:1067F400EFC0500329D5594599B785073107E39769
:10680400D7F8254581BF0545B1B7797122D42A84CB
:106814000355850026D2AE849305E1014AD006D6FD
:106824003289EFF0FFCE51C58347850093F7070205
:10683400A9E7034714019307200519E3834744009C
:106844008356A40050448355840003552400014713
:10685400EFF0BFD0AA8721E98347140199E70355D4
:106864002400EFC04077D94711E18147B250225448
:10687400925402593E85456182802AC60355E1013E
:10688400EFF05F86AA8705C9B2450355240049463F
:106894008297AA8759DD035784002390E4000347B5
:1068A400140161F7E1B75947E317E5FE2300090036
:1068B4006DBF8547CDB7B947F9BF397122DC4AD8D6
:1068C4004ED652D406DE26DAAA892E8A32C63689F4
:1068D400EFF0FF99094415C5834725001307E00F1E
:1068E400AA845D44638FE7001307F00F5944639A49
:1068F400E700324605E2D2854E85EFC0A0772A84B0
:1069040015CD2285F2506254D2544259B259225ABA
:106914002161828003550A009305E101231F0100D0
:10692400EFF01FBF0355E101EFF09F8EAA850546E6
:106934004E85EF3020092A845DDDE1B79307F00F1F
:10694400E301F9FC938624007946A68517F5FFFF39
:106954001305A547EFC09079A38124015DB7397170
:106964009387418E26DA844352D45AD05ECE62CCC9
:1069740006DE22DC4AD84ED656D266CA2A8BAE8BA5
:10698400328C368A99E08149B9A0804483DC440082
:106994000149835AA400631499018440E5B78357DD
:1069A400A400A28963F86701050942091359090182
:1069B4004104D5B7E3EAFBFE630C0A0083450400F7
:1069C4004840D28662863AC6EFB0D073324769DD5A
:1069D40019C323105701F25062544E85D2544259C0
:1069E400B259225A925A025BF24B624CD24C216148
:1069F400828003D7050083D62500854763E8E60433
:106A040031C7411183C6450026C29384550022C470
:106A140026862E8417050100130585F5894506C6CB
:106A2400EFB0506EC14709CD83464400835524001E
:106A340003550400014726861D37814711E1A94704
:106A4400B240224492443E85410182803E85828048
:106A54002E860355060083D52500854763E2A502EB
:106A640005C18346460041110147150606C6EFF0ED
:106A74001FEF814711E1A947B2403E854101828061
:106A84003E8582802E860355060083D525008547E2
:106A940063E2A50205C1834646004111014715067C
:106AA40006C6EFF0DFEB814711E1A947B2403E850E
:106AB400410182803E85828039714ED683D725007C
:106AC40083D9050006DE22DC26DA4AD852D456D20F
:106AD4005AD05ECE62CC66CA6AC863E0371985476D
:106AE400638E0914416BAE8A2A8A2314010002C6FC
:106AF400014401497D1B894B054CC94C054D83D587
:106B04002A000147814601464E8523130100EFF018
:106B14001FE5AA846300051209EC130720029306FB
:106B240061005A8695455285EFC0306E2A84630809
:106B340005120357810083C7040045C70347A1001A
:106B4400630CA70741476385E7022C005285EFC019
:106B5400601609CD34001546D9455285EFC0F05F63
:106B640011C5324597E0FF1FE78060E88147F9A02F
:106B740083D7A4004146130524002300F40083D7DF
:106B8400A400A183A300F400CC4097D0FF1FE780AA
:106B940060574904835781008507C207C1832314C2
:106BA400F10063F9270983D7A40063856709850980
:106BB400C20993D90901A1B7E39977F983D7A4004E
:106BC4000946130524002300F40083D7A400A183FD
:106BD400A300F400CC4097D0FF1FE780A05211041B
:106BE40055BF22C60359610003C7A400130524003E
:106BF4006382770333599903230571012300E40069
:106C040083D7A4004146A183A300F400CC401379A8
:106C1400F90FA5BF230581012300E40083D7A40055
:106C2400135929001379F90FA183A300F40009462D
:106C3400CC4055B78357810089FBA947F250625471
:106C4400D2544259B259225A925A025BF24B624CC4
:106C5400D24C424D3E85216182808547C5B7C547E8
:106C6400F1BF13F7050201C7B2856FF0CFDB411105
:106C740026C24AC006C622C413F98500AA84631733
:106C84000900139785016187635D070232853684A5
:106C9400EFF00FD8AA85054663130900014626853F
:106CA400EF20505201E90145B24022449244024986
:106CB4004101828083479400E5DB83478400E5F744
:106CC400E5B793F72500E5F30D45F9BF7971AE8675
:106CD40022D42A8403D506009305E10106D636C6DC
:106CE400EFF01F8301CD83458500B2460356E101D1
:106CF4002285853FB2502254456182800545DDBF1F
:106D040013F7050201C7B2856FF0EFD1411122C418
:106D140026C206C693F485002A8491E4139785015C
:106D24006187635007023285EFF08FCEAA8505464E
:106D340091E0014622852244B240924441016F20F1
:106D4400704893F72500014591E30D45B240224474
:106D54009244410182807971AE8622D42A8403D57B
:106D640006009305E10136C606D6EFF06FFAB24687
:106D740019C9834585000356E10122855137B25074
:106D84002254456182800545DDBF797126D2AA84EB
:106D94000355A500C16722D44AD04ECE06D6231788
:106DA4000100FD173284B6890149630DF50005051C
:106DB40083C60400D04042051307E1004181EFF08F
:106DC4001FBA2A8983C60400D040894517050100EB
:106DD400130505BAEFB010331DC503D4A4002285F2
:106DE400EFF0AFC109C57D142A9442044180638445
:106DF400090023908900B25022544A8592540259C2
:106E0400F2494561828083C60400D0408945170554
:106E14000100130525B6EFB0F02E61F183C604001E
:106E2400D040894517050100130505B3EFB0902D37
:106E340019C9E30609FA8357E100E39287FA035478
:106E4400A9007D145DB703D4A40055B7397122DCC1
:106E540026DA4AD84ED652D456D25AD062CC06DE5E
:106E64005ECEBE8983C785002A8AAE84C18B328CEC
:106E740036843A89C28A468B9DE783CB04008947CE
:106E8400638BFB046285EFF06FA41DC183280500AA
:106E9400638008025A88D6874E87CA862286A685CA
:106EA4005285829839A03285EFF0CFA3AA8711EDDD
:106EB4003945F2506254D2544259B259225A925A24
:106EC400025BF24B624C216182802946A685528581
:106ED400829745D5F9BFD840834717000347070079
:106EE400A207D98FC2070D67C187930607906380F5
:106EF400D72263CCF60693062780638CD70C63C134
:106F0400F60213070780E3CFE7F62D45E39309FA6A
:106F1400DC4403C60700CC432310C900228559A2D0
:106F240013073780E390E7F62D45E39409F8854786
:106F34002310F900DC44814583C707002300F400D3
:106F440003D5A400050542054181EFF06FDC8357AA
:106F540009006315051291072310F90011468145B4
:106F640013051400EFB01F8629A2930627906381AE
:106F7400D71863CED71293063790638AD7181307AE
:106F84004790E391E7F02D45E39509F2DC441D4772
:106F94002310E90003C707002300E40003C7170018
:106FA400A300E40003D727002301E40003D727004C
:106FB4002183A301E40003C747002302E40003D7AD
:106FC4006700A302E40083D76700A1832303F400CE
:106FD4004DA02D45E39F09ECDC446C0083C91700E8
:106FE40003C70700A209B3E9E90011472310E90028
:106FF40083C707004E852300F400DC4483C71700D1
:10700400A300F400EFF0CFD0AA8435C50356C10025
:10701400C1659306E100FD158329C500EFF0FFD695
:1070240019ED83C60400D0408945170501001305F6
:107034006594EFB0300D01E5FD572317F10003C748
:10704400090089476310F70283A54900094613051F
:10705400440097D0FF1FE780E00A8357090089079F
:107064002310F9008357E1002301F400A183A30155
:10707400F40001453DBD23173101EDB70347050079
:107084008907BA972310F9008357A500A300F400D9
:107094008357A500A1832301F400034605004C4156
:1070A4001305340097D0FF1FE780C005D9B7C84443
:1070B400EFB06FF293170501C1832A871D45E3EAF8
:1070C40037DF6399F90023100900CC440356090003
:1070D400CE95A9B54207B3863A01418363C7E6005A
:1070E400B38737412310F900CDB723105901F1BFFD
:1070F4002D45E39009DCCC445285EFE05FDE23109C
:1071040079012300A4002181A300A4009DB72D458B
:10711400E39109DADC442310790183C707002300D3
:10712400F400DC4483C71700A300F40099B75D7131
:10713400CAC02A89035525004EDE52DC56DA5AD8D5
:107144005ED662D466D26AD06ECE86C6A2C4A6C209
:107154002E8BEFB0F00E130CF5FF931D0C01C16BD9
:10716400AA8A814917FAFF1F130A4A6093DD0D01A9
:10717400938C018E138DC18DFD1B8357C90063F859
:10718400F90097F7FF1F83D7675E63CE8701035526
:10719400290097F5FF1F9385655DEFB05058AA84C9
:1071A4001DCDD9442DA88327890013971900930571
:1071B400E100BA9703C4170083C7070022045D8C5B
:1071C4002285EFF0EFB4AA851DE923108B00032577
:1071D4004A00854409C597E0FF1FE7804081B64017
:1071E4002644268506499644F259625AD25A425B8D
:1071F400B25B225C925C025DF24D616182808348E5
:10720400490083A60C000356E100035529006E884B
:1072140081476A87EFF09FC3AA8411C523108B00AE
:1072240003254A0045BF83274A0095E303552900F7
:10723400514781465E86BD45EFC0207D97F7FF1F0D
:1072440023A8A75209E523108B00C54449BF97F72B
:10725400FF1F83D7A75103D7C18D3E9763475701BB
:1072640013C7F7FF5697239EE18C03254A0083A595
:107274000C0003D6C18D3E9597D0FF1FE78080E8B0
:1072840083570A0003570D008509C209BA9717F7F7
:10729400FF1F231DF74C93D90901C5B5397122DCB1
:1072A4002A840355250006DE26DA4AD84ED652D45F
:1072B4005AD05ECE62CC66CAAE8B56D2EFB040785E
:1072C4002A8A8346C4008355A400035584007800A9
:1072D4001306D400930CBAFF651AEFF04FE8420A84
:1072E400416B2A898144135A0A01138C018E97F940
:1072F400FF1F9389A9477D1B6302090463D094058A
:107304008348440083260C000356C100035524001F
:10731400528881471387C18DCA85EFF03FB315C5E5
:10732400814A0356C1008355A4004A859306E100AF
:10733400EFF0BFA52A89639B0A065DFDF1EC835734
:10734400840029452390FB0035A80356040183D704
:10735400C18DE317F6FC83250C004848EFB0AFCC91
:1073640061D183A74900A1E3035524004547814621
:107374005A869D45EFC060691DE1835784004545E9
:107384002390FB00F2506254D2544259B259225A0B
:10739400925A025BF24B624CD24C2161828097F785
:1073A400FF1F23A7A73C835AA900A5BF83A74900B1
:1073B400A69723805701938714001397070183A787
:1073C4004900418393DA8A00BA97238057011387CF
:1073D400240083A649009387340042079104418323
:1073E400C207C204C183C180369711CD8356E10020
:1073F4002300D70003A74900BA970357E10021836C
:107404002380E700D5BDFD562300D70003A749001C
:10741400BA972380D7001DB703552400898097F5B8
:10742400FF1F9385A53497F7FF1F23919734EFB07F
:10743400101529D95945B9B7411122C406C693F785
:1074440005012A84328585C3EFE09FDCAA850546C1
:107454002285EF20205795476305F500BD47631D3E
:10746400F502214515A893F7450099CBEFE05FDAC3
:107474000546AA8522852244B24041016F208054EA
:1074840093F7050489C7EFE0BFD80146DDB713F5CC
:107494001500133515000605B240224441018280CF
:1074A40079714AD04ECE52CC06D622D426D22A8A1C
:1074B400AE89014983D749006364F9000145A1A05D
:1074C40083A7090013141900930414003387970049
:1074D40003470700A29703C5070022079305E100AD
:1074E400598DEFF0EF8205E983A7090005453E9425
:1074F400034704002380E70083A70900BE9403C761
:107504000400A380E700B250225492540259F24975
:10751400624A45618280834585000356E1005285B5
:10752400EFF09FF105C183A709003E9403470400CF
:107534002380E70083A70900BE9403C70400A38047
:10754400E700D1B70509420913590901A5B701118B
:1075540022CC2A8403D505009305E10006CEEFE092
:107564003FFB01CD834585000356E1002285EFF002
:10757400BFECF2406244056182800545DDBF39718C
:1075840026DAAA840355250006DE22DC4ED652D420
:1075940056D25AD05ECE62CC66CA6AC82E8A4AD8FF
:1075A400EFB0004AAA8A83C6C40083D5A40003D5D9
:1075B4008400138CAAFF78001386D400EFF02FBA4E
:1075C400420CC16CAA890144135C0C01138BC18D5C
:1075D400938B018EFD1CED1A17FDFF1F130D0D1962
:1075E400638B091A0356C10083C5890003D524009F
:1075F400EFF09FE42A89631B051883C8440083A61F
:107604000B000356C10003D5240062888147138709
:10761400C18DCE85EFF09F832A896319051639C081
:1076240003D7C18D110797F7FF1F83D747146395BD
:10763400E700A29763C0570997F7FF1F83D7271363
:107644003354F40203D5240097F5FF1F93850512E4
:1076540097F7FF1F239C8710EFB0F00F2A890DC501
:1076640059491DA003D52400494781466686C5456E
:10767400EFC0A03997F7FF1F23ACA70E0DE583D702
:10768400A90045492310FA00F25062544A85D254A5
:107694004259B259225A925A025BF24B624CD24C72
:1076A400424D2161828083570B00910717F7FF1F1A
:1076B400231FF70A83274D0003D7A9009306E1008F
:1076C400A2972380E70093071400139707018327E9
:1076D4004D0041834E85BA9703D7A90021832380A7
:1076E400E7000356C10083D5A400EFF00FEA1307A7
:1076F400240083264D00930734004207110441837C
:10770400C2074204AA89C1834180369739E1FD56F4
:107714002300D70003274D0083A50B00BA972380CD
:10772400D70003254D0003D6C18D229597D0FF1FA6
:10773400E780409D83570B003E9442044180E31D43
:1077440004EE83D784002310FA00E31F09F22949C9
:1077540025BF8356E10083A50B002300D700032730
:107764004D00BA970357E10021832380E7000325E6
:107774004D0003D6C18D229597D0FF1FE7808098D6
:1077840083570B003E944204418099BD83D7A900DE
:107794002310FA006DB701495DB75D71A6C2CAC076
:1077A400AA840359850003552500A2C44EDE56DA87
:1077B4005AD85ED662D466D26AD086C652DC6ECE01
:1077C4002E8BEFB0E027930BD5FF711593190501AC
:1077D4000144138DD40093D90901138CC18D938C6A
:1077E400018E97FAFF1F938A6AF86358741583C64B
:1077F400C40083D5A4001307E1006A864A85EFF02C
:107804000F96AA8D630B05120359A50083458500C5
:107814000356E10003D52400EFF01FC263140512E0
:1078240083C8440083A60C000356E10003D524005A
:107834004E8881471387C18DEE85EFF02FE16313E6
:1078440005101DCC83D7C18D17F7FF1F035727F2EF
:107854008907630EF70697F7FF1F83D747F1335461
:10786400F40203D5240097F5FF1F938525F097F7BD
:10787400FF1F239D87EEEFB0405A05C5594515A05B
:1078840003D5240041664D4781467D16A545EFC0CA
:10789400C01797F7FF1F23ADA7EC1DE123102B01A1
:1078A4004545B640264496440649F259625AD25A8E
:1078B400425BB25B225C925C025DF24D616182804C
:1078C40083570C00890717F7FF1F2312F7EA83D7A2
:1078D400C18DA29763D3770783A74A0003D7AD006E
:1078E400130A2400A2972380E700050493170401D8
:1078F40003A44A00C183420A3E9483D7AD0083A502
:107904000C00135A0A01A1832300F40003A54A00C2
:1079140003D6C18D529597C0FF1FE780A07E035404
:107924000C00C167FD17529442044180E30FF9EA49
:1079340005094209135909014DBD294509FC2310C4
:107944002B0185B76DDC01BF41677D176310E5022C
:107954007D572390E500238105002392E5002383CE
:1079640005002394E500238505008280411106C6A5
:10797400EFE02FC311C5FD572310F50023010500C7
:10798400B2404101828001114AC806CE22CC26CAE7
:1079940085472A896393F5044A85EFE00FF039E9B6
:1079A400C1649385F4FF1307E100894617F60000CC
:1079B4001306C6FA0545EFE09FFA2A84FD140DC4A8
:1079C4004C444A85EFF05FF80356E1002285814676
:1079D400A685EFF08FBB2A84DDB789476396F5004F
:1079E4008545EF20001C4DD9F2406244D2444249FF
:1079F40005618280EFE0AFE565B79165411193853C
:107A040015701305200D06C697D0FF1FE78080F47C
:107A140023A4A18EAA879306050C7D572390E70023
:107A24002392070023A607002398070023AC07002E
:107A3400239E070023A207022394070223A8070218
:107A4400239A070223AE070293870704E398F6FC00
:107A540023A6D18EF9572313E50C2314E50C231622
:107A6400E50C2317E50C2310F50C2311E50C230575
:107A7400050C2308050C2302050C17F5FFFF13055D
:107A8400458BEFB0707217F5FFFF130525A6EFA025
:107A9400D06D17F5FFFF1305E580EF200008B24015
:107AA400014541018280011106CE2AC6EFB0901033
:107AB400EFE06FB532457D57A386A18097F7FF1F8E
:107AC400938707CA238107002383070023850700C0
:107AD400F2402390E7002392E7002394E700238DEC
:107AE400A18017050000130545EA05616F20E00237
:107AF40093970501C18763DE0734797103C5D1808B
:107B040022D452CC06D626D24AD04ECE2E8AEFA00C
:107B1400BF982A8421C9034705009307000B63100B
:107B2400F7048547A304F1009387018E9C43231532
:107B34000100A1E7EF00C07C91659385357097D073
:107B4400FF1FE78020E123A0A18E05E98347910070
:107B540099C78345440013058400EFC0C002228501
:107B6400EFA0FF8CB250225421653345AA009254F1
:107B74000259F249624A456182806146814517F59E
:107B8400FF1F1305A5BEEFA0FFC3034944008947A7
:107B940097F9FF1F938989BD631DF906EF004076AD
:107BA40097F7FF1F2394A7BC03552400CE85EFB09D
:107BB400C00B0357240097F7FF1F83D727BB8356B7
:107BC400840011ED63E4F6002314F400835584006B
:107BD4003A85EFB0D05D2285EFB0305585BF63E4C0
:107BE400F6002314F40083578400D9450D4697F614
:107BF400FF1F239DF6B697F6FF1F938626B73A8597
:107C0400EFB0B0558D4561D917F5FF1F130505B6C3
:107C1400E1A09947631CF9029305A1002285EFF0C6
:107C2400EFE7AA844DD9D947639BF40E05090355A0
:107C340024001379F90FD94597F6FF1F938606B3ED
:107C44004A86EFB09051CA8559D57DBFA1476318C4
:107C5400F9009305A1002285EFF03FB4D9B7A947F5
:107C6400631FF906035584006C00EFE07F8AAA8441
:107C7400630705160355240041669306E100554742
:107C84007D16AD45EFB0705897F7FF1F23A2A7AE3E
:107C9400AA8649C1834844000358E1000356C10041
:107CA40003552400A68581474E87EFF02F9AAA84B6
:107CB4006316051003552400CE85EFB0E01BE30CDA
:107CC40005F003552400CE862D46D945EFB0F04883
:107CD400E30305F0AD454E85EFB0F06AEDBDB14765
:107CE4006315F910035584006C00EFE07F82AA84C9
:107CF4006307050E0355240041669306E1005947C6
:107D04007D16B545EFB0705097F7FF1F23A2A7A6C5
:107D1400AA863DE183578400C5442315F100034737
:107D24001400D147E309F7EA8347440003552400CC
:107D340097F5FF1F938585A317F7FF1F2308F7A265
:107D44008357A10017F7FF1F2313F7A297F7FF1F0D
:107D5400238097A2EFA0B060E30F05E6035524004B
:107D640097F6FF1F938686A00546D945EFB0F03EEF
:107D7400E30305E6854549BD834844000358E10013
:107D84008357A4000356C10003552400A6854E87DB
:107D9400EFF0CF8BAA841DE103552400CE85EFB00C
:107DA4006013E30A05E203552400D945CE8635461F
:107DB400EFB0B03AB545E30005E2B9B5D9476393EE
:107DC400F400814403A5490097D0FF1FE78020C237
:107DD400E38304E0835784002315F10089B78357B4
:107DE400840085442315F1001DBFB9476318F900C9
:107DF4009305A1002285EFF08FB325B5C147631821
:107E0400F9009305A1002285EFF06FF719BDC9476A
:107E1400631AF900130691009305A1002285EFE08F
:107E2400DF9E01B5D947631DF9009305A1002285A2
:107E3400EFE0DF8CAA84E31805DEA304010061BB34
:107E4400E147E31AF9D89305A1002285EFE04FFB3F
:107E5400C9BB01458280E9CA011152C42E8A8545F5
:107E640022CC4EC656C206CE26CA4AC8AA8AB689AB
:107E74003284EF101053D14715C183C7C18F83C615
:107E8400D18F814419E0B684BE861387418F18438D
:107E940093974400BA9763EDD400D547F240624407
:107EA400D2444249B249224A924A3E8505618280BF
:107EB4003E89C10703D727FF09C7850493F4F40F4C
:107EC400D9BF29CC9565938525C01305000297D0A9
:107ED400FF1FE78020A82326A90061D11306000212
:107EE400814593840404EFA0FF8D2311990023009E
:107EF40009002313590115C4138741908347940043
:107F040010432304F900118C8327C90011841180C4
:107F1400238E870023A02901814749B7232609001E
:107F2400F9B723044901FDB785473E8582809387CD
:107F3400418F984383C5C18F81476395F50081467E
:107F44003685828003562700BA8619C2E30AA6FE44
:107F5400850793F7F70F4107CDB79387418F984370
:107F640003C6C18F81476315F6008146368582803A
:107F740083552700BA8689C583454700E388A5FE53
:107F8400850793F7F70F4107F9BF9387419098430B
:107F940083C5F18F81476395F500814636858280DC
:107FA40003560700BA8619C2E30AA6FE850793F7AB
:107FB400F70F4107CDB79387418F9C4303C8D18FF7
:107FC40001476315E80081463685828003D6270081
:107FD400BE8619CA03D667006318A600D04709C62F
:107FE40003562600E302B6FE05071377F70FC10711
:107FF400C9BF411122C4404526C206C6AA8415C081
:10800400484409C597D0FF1FE780609E484809C5CA
:1080140097D0FF1FE780A09D228597D0FF1FE780A0
:10802400009D268541468145EFA0CFF9B240224408
:10803400FD57A384F400924441018280011122CCB3
:108044002A840355250006CE2EC6EF10900432462E
:1080540022858145EF00906222856244F2400561E9
:108064006FF03FF90DC503572500411122C406C620
:108074002A8411CBDD45EF00506422852244B240AE
:1080840041016FF01FF7B240224441018280828097
:10809400411126C231479304C5FF3387E40297E7B1
:1080A400FF1F9387276E06C622C43E978356A700F8
:1080B4006397B602484305C53E849307F00F6306F1
:1080C400F60083470500639CC70097D0FF1FE78035
:1080D4000092B147B387F402A29723A20700B240EB
:1080E4002244924441018280411122C42E8426C23A
:1080F4004946AA848145228506C6EFA0AFECB9CCD7
:1081040083C7C40113974700938741909C43BA9750
:1081140003D707002310E40003D7270083D76700A1
:108124002311E4001387A18F035707002312E400EF
:1081340003D704002313E40003D724002314E4002A
:1081440003D744002315E40003D764002316E40096
:1081540003D784002318F4002317E400B240224418
:108164009244410182809387419003A8070093873A
:10817400418F904383C5C18F014781476394E500D4
:108184003E8582808346060081CE544691CA83C6CA
:10819400C6019206C2966315D500850793F7F70FBB
:1081A40005071377F70F4106D1BF13060064338622
:1081B400C50293069500AA85170500001305C5EAB4
:1081C4006FA05F88411122C406C62A840345950026
:1081D400EFA0FF98FD57A304F400B24022444101EC
:1081E4008280011122CC4AC84EC652C456C206CE61
:1081F40026CA2A89AE890144138A418F9D4A83C7BE
:10820400D18F6362F404639709029389418F130A3F
:10821400F00F83C7C18F6366F4061144A14422851D
:10822400050442041306F00FCA854180EFF05FE6AF
:10823400E31794FEF2406244D2444249B249224ACE
:10824400924A0561828083270A0093144400BE94F5
:1082540083C704009DC383D7640063902703639698
:10826400590103D52400EF10C06226854E8681454E
:10827400EF00D0402685EFF0DFD705041374F40F28
:10828400BDBF83A7090093144400BE9483C70400B0
:108294009DC383C794006380470383D76400639CB2
:1082A40027012685EFF01FF22685D145EF00F04027
:1082B4002685EFF01FD405041374F40F99BF4167AA
:1082C4007917630BE502411122C406C685472A8447
:1082D4006399F50022852244B240814541016FF043
:1082E4005FF089476396F5008545EF10900B7DD1CB
:1082F400B24022444101828082809D456FF07FEE2E
:1083040003D5A18F8280011106CE2317A100231665
:10831400B10003C7818F85476318F7007000930588
:10832400E1000545EF40F018F24005618280A9475D
:10833400631CF60483C7150003C70500A207D98F81
:108344002310F50083C7350003C72500A207D98F82
:108354002311F50083C7550003C74500A207D98F31
:108364002312F50083C7750003C76500A207D98FE0
:108374002313F50083C7950003C78500A207D98F8F
:108384002314F500014582800545828091476314DA
:10839400F60283C7150003C70500A207D98F23106F
:1083A400F50083C7350003C72500A207D98F231121
:1083B400F50001458280054582809387C5FF939629
:1083C4000701C1820D476360D70231473387E70253
:1083D40097E7FF1F9387073BBA972381A700239052
:1083E400B70001458280094582801307B00FAA8730
:1083F4006374A7009307B00FF117239DF18E238FA9
:10840400B18E2380B1908280190595654205411192
:10841400938535C0418106C697C0FF1FE78080530E
:1084240011C5B240E95541016FA02043B24041015A
:10843400828041112384A1901306000317E5FF1FD6
:1084440013054534814506C6238E018E238F018E84
:10845400A38F018EA38E018E238C018EA38C018E9B
:1084640023870190239D018E23AA018EEFA08FB54F
:10847400EF10204B03C5C19015C99565938545C080
:10848400120597C0FF1FE780E04C23A2A19019CDED
:108494009387C19083C7170003C6C1908145A38EFB
:1084A400F18EA38FC18E1206EFA0CFB19387D18F27
:1084B40083C7070003C5419195653E951375F50F74
:1084C400238EA18E938555C0120597C0FF1FE780A8
:1084D400604823AAA18E21C103C6C18F120681451B
:1084E400EFA04FAE9387418F984383C6C18F8147D6
:1084F40025077D56639AF600B24017050000130560
:1085040045DC41016F10606185072300C70093F7C4
:10851400F70F4107C5B7238E018EA38E018EE9BFE5
:1085240041119397050126C206C622C4C187AE84B1
:1085340063DA070803C58190EF901FF62A8429C9DE
:1085440003470500930700096311F7040347150067
:10855400CD476317F7060345250097E5FF1F83C53D
:10856400A51283C7E18F93066400014601472E8854
:108574006317E50219C2238FF18E83C7E18F91C778
:10858400854503C58190EFA0AFB02285EF903FEA07
:108594002165258DB240224492444101828003C664
:1085A4000600B29713F6F70F9377F80F6374B600CB
:1085B4009377F60F05071377F70F890605464DBF26
:1085C4000125E1B793F715000145E9D7EF00D06A1B
:1085D40009C983C7E18F91C7854503C58190EFA081
:1085E4002FAB13C514007DB785462A8763FBC604E9
:1085F40083C7150003C60500A207D18F2310F50019
:10860400639CD70083C7350083C62500A207D58F96
:108614002311F50001458280894601456394D70200
:1086240083C7350083C62500A207D58F2311F70021
:1086340083C7550083C64500A207D58F2312F700D0
:1086440082800545828091476314F60283C7150032
:1086540003C70500A207D98F2310F50083C735008F
:1086640003C72500A207D98F2311F5000145828095
:108674000545828091476314F60283C7150003C73A
:108684000500A207D98F2310F50083C7350003C75F
:108694002500A207D98F2311F500014582800545E5
:1086A4008280A1476314F60483C7150003C705003D
:1086B400A207D98F2310F50083C7350003C725000F
:1086C400A207D98F2311F50083C7550003C74500BE
:1086D400A207D98F2312F50083C7750003C765006D
:1086E400A207D98F2313F5000145828005458280B6
:1086F4008947631CF60083C7150003C70500A2075A
:10870400D98F2310F5000145828005458280835767
:10871400260079714ECE06D622D426D24AD013072B
:10872400F007AE896372F70209473AC42316F100D1
:10873400300093F5F50FEF10A014B2502254925468
:108744000259F2494561828003574600D9462A8975
:10875400328463F8E6008357660063F4F6006379B5
:10876400F70023140100300093F5F90F4A85E1B7AF
:108774000355060002C4EFF05F81AA8459C1EFF0EB
:108784009F9E83C784006369F5001146A246CE8587
:108794004A85EF10C00455B7340026869305F00FC0
:1087A4004A85EFF04FEB75F1A24703578400DC478D
:1087B4002390E700035724002391E7000357440064
:1087C4002392E700035764002393E70003D7440090
:1087D4002394E700DC4485CB93F4F90F2286A68525
:1087E4004A858297C167FD172A86E311F5FA224567
:1087F4009947F9452300F50023029500EFF0FF9A0D
:108804002DBF094661B7014651B7A947631CF60459
:1088140083C7150003C70500A207D98F2310F500ED
:1088240083C7350003C72500A207D98F2311F5009C
:1088340083C7550003C74500A207D98F2312F5004B
:1088440083C7750003C76500A207D98F2313F500FA
:1088540083C7950003C78500A207D98F2314F500A9
:10886400014582800545828083C705002300F50009
:1088740083C71500A300F50083C7350003C725008F
:10888400A207D98F2311F50082802322050003C794
:10889400450089476304F7000545828083D6650057
:1088A4000D47E37BD7FE9C45011106CE22CC26CA98
:1088B4004AC84EC683C4170003C60700A204D18C5D
:1088C400138644006311D60403C4370083C727000A
:1088D400AE8922045D8C9307C4FFC207C1832A8931
:1088E400636FF70003A58900231199002310890001
:1088F400F155EF9090762322A900014531A02285FD
:10890400EFF0EFE265F10545F2406244D24442499A
:10891400B24905618280397122DC2E8483470400C8
:108924004AD806DE26DA4ED619472A89B285639AD2
:10893400E706034624002800EFF0FFD0AA8415E9D7
:1089440003558100EFF0AFDEAA898345140015C9F1
:108954002E8617170000130747E634009D454A8505
:10896400EF00503D4E8509468145092B4E85EFF0B9
:108974004FE8F250625426854259D254B2592161CB
:10898400828089472310F100835781000A862311CE
:10899400F1008357A1002312F1004A85EF00506EC5
:1089A400C9BF4947639DE702035624002800EFF03E
:1089B4005FCFAA845DFD97E7FF1F83D767DD99E347
:1089C400814445BF03471400834604003C0001462C
:1089D400CA8517E5FF1F0345C5DB252E59BF51473F
:1089E4006390E702035624002800EFF05F94AA8402
:1089F40049F18345140030004A85EFF05FD195BFFB
:108A04005947639FE704035624002800EFF01F989A
:108A1400AA8425F1835581004A85EFF0CFD91DC57D
:108A240058458356A10083570700B697C207C183F0
:108A34002310F700D1D75C47C1D783C7E18FC9D3CF
:108A4400854503C58190EF90BFE425B789473EC0B3
:108A5400835781000A86834514002312F10035BF31
:108A6400834514000A8623100100EF00706189BF5A
:108A74005D71A6C256DA86C6A2C4CAC04EDE52DCF6
:108A8400AA8A03C51500AE8432C6EFF00FCDB245F5
:108A940001ED8144B6402644268506499644F259A0
:108AA400625AD25A616182802302050023110500B3
:108AB40083C9040085472A84639AF90003C6240005
:108AC4002808EFF07FB2AA8405492DA09D4763943E
:108AD400F904034705008D47E31DF7FA03C6240094
:108AE40028080549EFF01FB9AA8409E50546814520
:108AF400228569262285EFF0EFEC034584003C08CB
:108B04000147CE862686D6852924E30509F82285E1
:108B1400EFF02FCE41B7CD47639DF9000347050021
:108B24009147E318F7F603C624002808EFF05FBC6A
:108B340059BFD547E39FF9F4034A05008947E31A6F
:108B4400FAF403C6240028080549EFF01FCCAA84D0
:108B540055F183570102BDE3035781011306F00366
:108B64005C44930607FCC206C182636CD6000356BC
:108B7400A101D94663F7C6008356C101D94563EF05
:108B8400D500035524002391E7000549EF007050F8
:108B940003560102D28522857124A9BF8355E101C0
:108BA4002391E7002392C7002390B7002393D700B3
:108BB40085472300F400014A0149D9BF014AC9BFCE
:108BC4007971AA8522D426D203542500AA842808C0
:108BD40006D6EFF09FCBF24599E535E98545228528
:108BE400EFF06FF2C1A0835781011547639BE7063D
:108BF4000357A1018D4763FCE7046800EFF0DFC66B
:108C04000357E100DD4763FCE7008345D100B70764
:108C140017008507100822853EC8EF007046835769
:108C2400E1000357A10191076305F7002285EFF0E6
:108C3400CFEC8347C10072466C00858B11062285F8
:108C440091CFEFF0FFE201C52285EFF00FEB8844EE
:108C540051D597C0FF1FE78080D949B7EFF0BFCB4C
:108C6400DDB711476389E7001387A7FF42074183F4
:108C7400854663EEE6023147F117B387E70217E74B
:108C8400FF1F130727B0BA9703D7070069D303C59B
:108C940027003008A2850D205DF903578101914713
:108CA400E31EF7F2B25022549254456182802C089C
:108CB40022852D2E49FDFDB701114AC82A89314567
:108CC40026CA06CE22CC2EC6B284EF900FF921C15B
:108CD400B2459307000A2310F5002311B5002A8436
:108CE400214611058DC0A68597B0FF1FE7808041FE
:108CF400A2854A85EF90DF800145F2406244D24468
:108D04004249056182808145EF90DFABD5B70545C7
:108D1400EDB7797126D2AA841305000206D622D4AF
:108D24002ECE32CC36CA3AC83EC6EF900FF321C9D4
:108D34006246F2454247D246B2472A84130520FAD6
:108D44002300A400A300C4002311B4002302E40000
:108D5400A302D40013058400614691CFBE8597B069
:108D6400FF1FE780203AA2852254B25026859254F0
:108D740045616F90EFF88145EF90DFA4EDB7B250F5
:108D840022549254456182805845797122D406D682
:108D94002A84AE8641C383572700231DF10093071D
:108DA4002006639FF5049387A18F03D6070083579A
:108DB40067006373F600B28713F6F70F8355270134
:108DC400834707018D8F93F7F70F81E5890793F7A1
:108DD400F70FB297FD17B3C7C702231EF1008357DD
:108DE40024008355640003458400231CF1000147DB
:108DF4003C080146EFF0FFF1B250225445618280F5
:108E04000347C701938741909C431207BA9783D7BE
:108E14006700E1B72EC6194681452808EF909F9A4E
:108E2400B24675BF797122D406D626D22A848DC162
:108E340081470147930600062E8683556400034547
:108E44008400EFF01FEDB2502254925445618280A9
:108E5400B28428005946EF90FF962314910089E8C4
:108E64008357240048446C002315F100EFF0CFA78A
:108E74003C000147930600060146C1B7797106D646
:108E8400814799ED8357250058452316C1002314C3
:108E9400F1003C0011C7835727002315F1003C0063
:108EA4002E86835565000345850001479306000619
:108EB400EFF03FE6B25045618280411122C406C6FC
:108EC4008347050011472A846395E7022E8683555C
:108ED40065000345850081470147CD46EFF07FE3F8
:108EE4004946835564002244B240154541016FF060
:108EF4002F9A13F7B70F89466317D7000146EFF08F
:108F04007FF25146F9BF0D476398E7002244B2400F
:108F1400014641016FF09FF6B24022444101828034
:108F240083D705003147F1173387E70297E7FF1F1F
:108F340093874785BA97D84319EBD8412395A7005F
:108F44000145D8C303D725002394E70082805945FF
:108F54008280797122D4404526D24AD006D6AA848A
:108F64002E8925C0484419C597C0FF1FE78020A853
:108F7400232604008357040083D5640003C58400BA
:108F84002315F10083572400014793064006231656
:108F9400F100835784004A862317F1001C483EC819
:108FA40083D724002314F1003C00EFF09FD6A30ED6
:108FB400240123280400B2502254925402594561DA
:108FC4008280280031468145EF90CFFF83D724006B
:108FD40083D5640003C584002314F10001473C00D9
:108FE400930640064A86EFF0DFD2F1B7797152CC8E
:108FF4002A8A03D5050026D206D622D44AD04ECEDC
:1090040056CAAE84EFE0BFF219E18547BDA84045DA
:10901400AA8965DC83576500E39947FF8357840079
:10902400638707128346C401938A419003A70A0009
:109034009206FD173697C20703576700C1832314AE
:10904400F4006316F70093053006EFF0FFD35C4895
:10905400A5EFC84003491500834705002209336979
:10906400F90083D7240013072900631AF702F9557E
:10907400EF90A07EC8C02391240103C589002686F1
:10908400D285EFF07FC3814721E1B250225492543C
:109094000259F249624AD24A3E8545618280956509
:1090A400938515C04A8597C0FF1FE780A08A48C8EA
:1090B400C840231C2401F955EF90207A83D724005B
:1090C400C8C0F9172391F400484859C503D62400B1
:1090D4008356A401835784013308D60063C007096B
:1090E4000347C40183A70A0095451207BA9783D79B
:1090F400270063CF0705CC40369597B0FF1FE78064
:1091040060000357A40183D72400BA97C20703570A
:109114008401C183231DF400E399E7EE03D72900FA
:1091240003C5890030002314E1005848D285231573
:10913400F1003AC6EFF05FB811C5484897C0FF1F69
:10914400E780E08A232A0400232C04007DBD99458E
:109154004E85EFE0BFEE55BDA545DDBF9145CDBFC2
:1091640003D7250079CB83D6A18FED4763E8E60CBE
:10917400011122CC2E8426CAAA844840914506CEE9
:10918400EF90A06D83572400AA862300F50083572F
:109194002400A183A300F500835704002301F500F4
:1091A40083570400A183A301F50003562400C1677B
:1091B400F9171106420641826394F4042AC4314526
:1091C40032C6EF908FA9AA85CD470DC5930700F944
:1091D4003246A2462300F500F9572311F5008947CA
:1091E4002302F5002313C50014C503C58190EF9035
:1091F4002FB18147F2406244D2443E8505618280AA
:1092040081452685EF303032AA8701E903C7E18F13
:1092140075D37D17238FE18EF1BF09476302E50201
:109224001D476301E50249476300E5027D47E313F7
:10923400E5FC03C7E18F8147E1BFED473E858280AE
:10924400D1474DBF91477DB789476DB7011122CCF6
:109254004AC831441309C5FF3304890297D7FF1F55
:109264009387475206CE26CA3E94584031C783C6D8
:10927400E18FBE84854795CA2314A10083578400D7
:109284000355A4002C003AC62315F100EFF05FED5E
:1092940011C5484097B0FF1FE7806075B147B30719
:1092A400F902A69723A207008547F2406244D244FC
:1092B40042493E85056182808147C5BF797126D2C6
:1092C40044451387A18F4AD083D76400035907000C
:1092D40052CC06D622D44ECE56CA2A8A63F327012C
:1092E4003E8903D7240142091359090183D7040194
:1092F40041CB998F4A8463D5270113940701418098
:1093040089452285EFF04F90AA89CD4A25C183D79C
:1093140024002AC6231581002314F10083D72401D5
:1093240085E383D70401930925002300F50083D73F
:109334000401A183A300F5006376240503D404018A
:1093440083D72401CC4422864E85BE9597B0FF1F57
:10935400E78040DB03556A002C00EFF07FE0AA8A27
:1093640015C54E8597B0FF1FE7806068B250225440
:10937400568592540259F249624AD24A4561828022
:1093840089078DBF7914420441805DBF03D724014E
:1093940083D704003A94FD17C207420403D704019B
:1093A400C18341802390F400239984006377E4000F
:1093B400D5FFFD57A38EF40055BF81455285EFF0CC
:1093C4005FB96DB701114EC683C9E19022CC52C476
:1093D40056C25AC006CE26CA4AC84E84138A418F42
:1093E400854A130BF00F83270A0093144400BE949C
:1093F40003C9040063175907DC44A5C7D84735C31C
:1094040003D7070039C383C7E18F89CF2685EFF0DF
:10941400FFEAAA8515E5050483C7D18F635FF400CD
:1094240023878190F24062444A85D2444249B2493A
:10943400224A924A024B0561828023870190DDB75C
:109444002685EFF01FB10149F1BF83C7D701639AA5
:109454006701930520062685EFF01F93DC44A38E55
:10946400070005041374F40F83C7D18F6363F400FA
:109474000144E31A34F7C1BF4111154506C6EFF0A4
:10948400FFDC09C50545B240410182801945EFF072
:10949400FFDB6DF91145EFF07FDB6DF51D45EFF056
:1094A400FFDA6DF103C5D18F79DDB24041016FF070
:1094B4007FF183D705000D47F117C207C1836361AC
:1094C400F706DC41B1CF411122C42E84854526C262
:1094D40006C6AA84F92539C52685D52BC167F9178F
:1094E400638FF40009ED8357240091CB8356040065
:1094F4001947639FE60203D7A18F63FBE70283C783
:10950400E18FA285268599C72244B2409244410145
:109514006FF01FC52244B240924441016FF05FA036
:10952400094582805145B2402244924441018280DF
:109534006D45D5BF397126DA4ED6AA84AE895D450C
:1095440089454AD806DE22DC328936C63AC4EFE0C1
:10955400BFEB25C522472A84014511C7B24613052E
:109564004400B68502979357850023003401A30075
:1095740024012301A400A301F40011059547231D30
:10958400A100231CF10022CE83C7E18F2C0826857D
:1095940095C3EFF0FFBCAA8411C5228597B0FF1FC5
:1095A400E780E044F250625426854259D254B259BD
:1095B40021618280EFF0DF96F9BFCD44E5B7797180
:1095C40026D24AD052CC56CA06D6BA8A22D44ECE15
:1095D40019472E89B284368A6394E506035526001A
:1095E4000944EFE0DF942AC625C55C45835965002C
:1095F40083D727002390F400B247154723805701EF
:1096040003C6918F93061600A38CD18E2391E70095
:109614002382C700D1466319D9002391E400DC47B3
:1096240003D784002394E7005287A686CA854E8513
:10963400EFF05FF02A84324515C4EFE09F9B09A840
:1096440042867400BE85AA89EFE0FF802A844DD546
:109654002285B250225492540259F249624AD24AA3
:1096640045618280F945EFE05FB4DDB783D705003B
:109674002300F50083D70500A183A300F50083D759
:1096840025002301F50083D72500A183A301F5005C
:109694001145828083D705002300F50083D7050098
:1096A400A183A300F50083D725002301F50083D708
:1096B4002500A183A301F50083D745002302F5000B
:1096C40083D74500A183A302F50083D76500230354
:1096D400F50083D76500A183A303F50021458280AB
:1096E40083D705002300F50083D70500A183A300D9
:1096F400F5000945828083D705002300F50083D750
:109704000500A183A300F50083D725002301F500FC
:1097140083D72500A183A301F50083D74500230245
:10972400F50083D74500A183A302F50083D7650024
:109734002303F50083D76500A183A303F50083D732
:1097440085002304F50083D78500A183A304F500D5
:109754002945828003D705008546AA872300E500B2
:1097640003D705002183A300E50003D70500631D8B
:10977400D70003D725002301E50003D72500218363
:10978400A301E5001145828009456315A70203D7AB
:10979400250019452381E70003D725002183A381F0
:1097A400E70003D745002382E70003D74500218360
:1097B400A382E700828083D705002300F50083D7C6
:1097C4000500A183A300F50083D725002301F5003C
:1097D40083D72500A183A301F50011458280797107
:1097E40026D24AD04ECEB2842A89AE8929468145F2
:1097F400480022D406D63684EF80DFFC231691007D
:1098040085EC835724002312F1009387A18F83D71B
:1098140007002314F1005C4485C383C6C701138782
:1098240041901843920683D7870036970357270041
:109834002315F1002313E1004A85170700001307DD
:10984400C7EB540013F6F90FD545EFF0BFCE2A89C4
:1098540011C19DE085472300F40023020400014662
:1098640081452285EFF00FDCB25022544A85925490
:109874000259F249456182802285EFE08FF7EDB706
:10988400B28617070000130727ED2E8685456FF073
:109894007FCA01112317A100416570000148930795
:1098A400F00F0D4797060000938686DC99457D15D9
:1098B40006CEEFF0DFD0F24005618280B287014826
:1098C4002E86114797060000938606DDC9456FF082
:1098D4001FCFB286170700001307C7E02E86CD45B9
:1098E4006FF05FC5011122CC26CA4AC84EC606CE07
:1098F4002A89AE8917D4FF1F1304C4EB97D4FF1F22
:10990400938444EE1C4081C7CE854A858297110416
:10991400E31A94FEF2406244D2444249B2490561DA
:10992400828017D5FF1F0345E5D69377350009815B
:10993400AA97238AF190A5C31305C0033385A70210
:10994400A5654111850506C697B0FF1FE780800015
:1099540023A8A19003C7419109058147FD5663C21D
:10996400E70297D7FF1F9387E7E417D7FF1F130773
:1099740067E723A007009107E39DE7FEB24041019A
:1099840082802310D50023010500232505028507C5
:109994001305C503E9B7828093870191984303C6F1
:1099A400419181476315F600814636858280BA86E7
:1099B4001307C703835567FCE389A5FE850793F75F
:1099C400F70FCDB7011122CC2EC632C406CE2A849D
:1099D400EFF09FFC2246B24511E9C167F917630312
:1099E400F4005145F2406244056182805455834736
:1099F400450095C213F7270141456314A700154597
:109A040075F2C18B3D45F9DF83C7A6010145E3FB30
:109A1400B7FC3145C1BFC18B0145E9F71545D9B73D
:109A2400797126D2C16422D44AD04ECE52CC56CAC1
:109A340006D62A89014493890191130AC003FD14AF
:109A4400854A83C741916364F400014525A8B3079F
:109A5400440303A70900BA9703D7270063169700A6
:109A640005041374F40FF1BF03C557003000938548
:109A74006700EF70D0631946CA852800EF80BFDA0B
:109A8400E31055FFB250225492540259F249624AEB
:109A9400D24A4561828093870191C166984383C508
:109AA40041918147FD166395F50001463285828018
:109AB400035827003A866306D80003480700E307E3
:109AC400A8FE850793F7F70F1307C703E9BF4111F2
:109AD40006C6EFF07FEC11C503554501B2404101C4
:109AE40082800145E5BF93870191984383C64191E4
:109AF4008147110701456393F600828003460700FE
:109B040001C605051375F50F850793F7F70F1307BE
:109B1400C703D5B703C54191828017D7FF1F130729
:109B240067C98147BA8631460C4391E58A07B697DF
:109B340088C30145828085071107E397C7FE4D4519
:109B44008280411106C622C4EFF01FE50DCD2A84A0
:109B5400035525008545EFF0FFD8485409C597B053
:109B6400FF1FE780C0E822851306C0038145EF800C
:109B74007FC5FD572311F400230204000145B240C0
:109B84002244410182800945DDBF411106C6EFF040
:109B9400BFE011C50345C500B240410182800145C3
:109BA400E5BFC167F9176304F502411122C406C673
:109BB4002E84EFF07FDEAA87014591C703C54700D5
:109BC400698C33358000B2402244410182800545CE
:109BD4008280011106CE2EC6EFF01FDC854711C925
:109BE40003574501B24585476305B700231AB500FD
:109BF4008147F2403E850561828021C901114AC82E
:109C0400416922CC26CA4EC652C406CE0144AA8457
:109C140093890191130AC0037D1983C74191634A53
:109C2400F400F2406244D2444249B249224A0561F6
:109C340082803305440383A709003E95835725009A
:109C44006383270182940504C9BF828093870191AD
:109C5400944303C641910147910681476310E6028C
:109C6400858393C7F7FFC207C18305456364E50293
:109C740085473395A70042054181828083C506004C
:109C840081C583D5C602CD8F05071377F70F938659
:109C9400C603E9B793F61700E1FE0505858313753E
:109CA400F50FE9B7797156CAAA8A2E8526D24AD009
:109CB4004ECE52CC5AC85EC662C406D622D4AE84F6
:109CC400328B368CBA8B3E8AC2894689EFF0DFCC60
:109CD40049E141657D15EFF03FCC2A84554531CCEF
:109CE4001946DE8513056400A302840197A0FF1FB3
:109CF400E780404183570103231194002302640148
:109D04002319F4008357410323005401232604023A
:109D1400231AF400230644012317340123182401D1
:109D2400EFF0DFF22318A402232A04022685232C51
:109D340004028145EFF01FBB0145B25022549254F6
:109D44000259F249624AD24A424BB24B224C456113
:109D540082804545DDB793870191984383C641913D
:109D640081476395F60041657D1582803A86130725
:109D7400C703835547FF6395A500035526008280DA
:109D8400850793F7F70FF1BF9387019141669843D5
:109D940003C8419181477D1685482D43314E631494
:109DA400F80001458280835627003A856382C60203
:109DB400545B99CE83C506006397150183C61600CC
:109DC4006378DE00828089E583C61600E37CD3FCD9
:109DD400850793F7F70F1307C703D1B7938701914B
:109DE4004166984383C5419181477D162548639414
:109DF400F50001458280835627003A85638BC600AF
:109E0400545B81CA83C61600E51693F6F60FE37316
:109E1400D8FE850793F7F70F1307C703C9BF894710
:109E240091C909C995472380F50083470500A3809C
:109E3400F50081473E85828039714ED652D4AE8971
:109E44002A8A93053005414526DA4AD856D206DED9
:109E540022DC32C63689BA8A97B0FF1FE78080AF0A
:109E6400CD4421C92A84894463800904324681454A
:109E7400231AC1004146EF80FF945686CE85228581
:109E840097A0FF1FE78000282146630E0902CA85B8
:109E9400280897A0FF1FE780E026A28650082C0818
:109EA4005285EF205065AA84228597B0FF1FE78072
:109EB40000B4F250625426854259D254B259225AFF
:109EC400925A2161828081452808EF80BF8FF1B7C3
:109ED40089478DC505C5411106C6AE871947AA85B0
:109EE4002380E70013851700414697A0FF1FE780F2
:109EF4006021B24081473E85410182803E85828057
:109F0400894795C90DC9411106C625472380E50037
:109F140003470500AE871946A380E50093051500A5
:109F24001385270097A0FF1FE780C01DB24081471B
:109F34003E85410182803E85828089478DC505C565
:109F4400411106C6AE872147AA852380E700138501
:109F54001700414697A0FF1FE780C01AB24081470F
:109F64003E85410182803E85828089479DCD15CD05
:109F7400411106C61D472380E50003570500AE873F
:109F84002146A380E5000357050021832381E500D2
:109F9400930525001385370097A0FF1FE7808016DF
:109FA400B24081473E85410182803E858280894757
:109FB4008DC505C5411106C6AE870D47AA85238008
:109FC400E70013851700414697A0FF1FE780801321
:109FD400B24081473E85410182803E858280894727
:109FE4008DC505C5411106C6AE871147AA852380D4
:109FF400E70013851700414697A0FF1FE7808010F4
:10A00400B24081473E85410182803E8582808947F6
:10A014008DC505C5411106C6AE872947AA8523808B
:10A02400E70013851700414697A0FF1FE780800DC6
:10A03400B24081473E85410182803E85828023ACC7
:10A04400019023AE019023A0019297B7FF1F93873D
:10A05400E7AC171700001307075798C3170700004A
:10A0640013078746D8C317070000130727DD98C7CF
:10A0740097B7FF1F938747AB172700001307A7C99C
:10A0840098C31707000013074760D8C317170000C9
:10A09400130707DE98C78280C14709CD144DC14715
:10A0A40091CA784D01CB83C73600BD4663F4F600F0
:10A0B400834787013E858280411122C413848191A4
:10A0C4004AC02A89084006C626C241C5A284631E26
:10A0D4000900834705002146B1CB290597A0FF1F3E
:10A0E400E78040029C400545B9CF4945EF80EFB673
:10A0F4002A840DC5930710FC2300F500A300250155
:10A104008C4009054146890597A0FF1FE78080FF21
:10A114009C40A28503C51700EF808FBE884097B08E
:10A12400FF1FE780C08C23AC019029A8090597A0E4
:10A13400FF1FE78020FDEF20D03B054945F51C407B
:10A14400238027010545B24022449244024941013B
:10A1540082800145CDBF1C4D639F0716411122C467
:10A1640026C22A84AE8441459305300506C697A0CD
:10A17400FF1FE780207E08CCCD4763040510A68529
:10A18400414697A0FF1FE780E0F783450400F9EDFF
:10A194007C4C184CD04B5443058A858A6307D600FF
:10A1A40083D64701F99A239AD700D04B54430582AA
:10A1B4008582058A858A6307D60083D64701F59A86
:10A1C400239AD700D04B544309828982058A858A11
:10A1D4006307D60083D64701ED9A239AD700D04B64
:10A1E40054430D828D82058A858A6307D60083D6FF
:10A1F4004701DD9A239AD700D04B54432182A18290
:10A20400058A858A6308D60083D6470193F6F6EF5C
:10A21400239AD700D04B54432582A582058A858A88
:10A224006308D60083D6470193F6F6DF239AD70056
:10A23400D04B54432982A982058A858A6308D600B3
:10A2440083D6470193F6F6BF239AD700D44B5843DD
:10A25400AD822D83858A058B638AE60003D7470187
:10A26400FD769386F67F758F239AE70003C7140063
:10A274007C4C11CF03C7170019CB9547A301F400F9
:10A284008147B240224492443E854101828003C703
:10A294002400118B19E703C72701118B19E38547A4
:10A2A400F1BF03C7070083C6040081C5B687BA8619
:10A2B4003E871146E147E366E6FCE364D6FC954736
:10A2C4003307F70297C70000938707373E973697FF
:10A2D4008347070065B7C5473E858280AE8715C5AD
:10A2E400784D05C7834607002380D50083461700B1
:10A2F400A380D500834627012381D50083468701A7
:10A30400584BA381D500D8C18280414681453E8502
:10A314006F804FCB9387C1919C4391C703A3870060
:10A3240063030300028309458280011122CC2A843D
:10A33400494506CEEFA08F8605C12AC62285EFF0D7
:10A34400AFE519C96244324683550503F24003C59B
:10A35400A19205616F802FE6F2406244056182801C
:10A36400797126D29947231DB100AA842E858D4583
:10A3740022D406D632C636C4231CF100EFE0CF88BF
:10A384002ACE4D441DC13246A246AA853285829604
:10A394002A8419E52C082685EFF0AF912A8411C58B
:10A3A400724597A0FF1FE78080642685EFF0FFF7D2
:10A3B4002285B2502254925445618280011122CCEC
:10A3C4009305C5012A8441460A8506CE97A0FF1F3E
:10A3D400E78040D3035544000A869706000093861D
:10A3E40046BDC545EFF0DFF7F24062440561828067
:10A3F400011122CC9305C5022A8441460A8506CE62
:10A4040097A0FF1FE78000D0035544000A869706F3
:10A414000000938606BDC545EFF09FF4F240624408
:10A42400056182802E86970600009386A6AAC545FC
:10A434006FF01FF30111B28722CC2300B1002A84EC
:10A44400BE8513051100194606CE97A0FF1FE780AD
:10A4540060CB0A862285970600009386A6AAA145AA
:10A46400EFF01FF0F2406244056182802E86970669
:10A4740000009386C6ACC5456FF09FEE0111B2870C
:10A4840022CC2310B1002A84BE8513052100214665
:10A4940006CE97A0FF1FE780E0C60A8622859706AE
:10A4A40000009386C6ACAD45EFF09FEBF2406244EA
:10A4B400056182802E8697060000938686B5C54581
:10A4C4006FF01FEA011106CE22CC26CA8344050090
:10A4D4008547639BF4048347150019472A84639ACC
:10A4E400E7041C4D83D7470013F7071019C7784DAD
:10A4F400035747011377071021E313F7072001CB14
:10A50400784C03574701137707206315071093F717
:10A51400074081CB7C4C83D7470193F70740639C6A
:10A524000714C947A300F400F2406244D244056111
:10A53400828031476392E70A3C5091EF93053005DE
:10A54400714597A0FF1FE780E04028D009C57146F8
:10A554008145EF802FA72450A9C883C7A40191E7A0
:10A564002285EFF07FB3238DA400814526854146E3
:10A57400EF804FA528503D478345A5019387F5FFFC
:10A5840093F7F70F6364F700EF904FB3EF80CF8634
:10A594003C50A1452398A70013852701EF900FB2E3
:10A5A4002C5003554400EFF0FFE7B5470355440032
:10A5B400A300F400EFF04FBE414611C58357E500F8
:10A5C40013D617003E966244F240D24403C5A192CA
:10A5D400854505616F802FBE3547639AE7023C517C
:10A5E40089CB83D507010355450013862701EFF076
:10A5F400FFE81C4C83D7470013F7072039CB784C6E
:10A60400035747011377072029C7B94745B7394787
:10A61400639BE700EF90EFD9AA8503554400EFF060
:10A62400FFE4BD4761B73D476394E704EF90CFD79C
:10A63400AA85630D9502814526852EC6EF908FD499
:10A644002A86B24503554400EFF0DFDE1C4C83D765
:10A65400470093F70740E38607EC7C4C83D7470118
:10A6640093F70740E38F07EAC14789B78144E9B705
:10A674004147E398E7EAEF908FD4AA850355440055
:10A68400EFF05FE379BD797106D622D426D28344F4
:10A694000500A5E48347150019472A846394E70657
:10A6A4007C4D83D7470113F7170011C7184D035783
:10A6B4004700058B39EB13F7270019C7184C0357CC
:10A6C4004700098B631D0712918B99C71C4C83D7D4
:10A6D4004700918B639407187C4C83D7470113F789
:10A6E400071063050718184C035747001377071022
:10A6F400630E0716B147A300F400B25022549254DB
:10A70400456182801D47639FE70A3C5089EB9305AE
:10A714003005714597A0FF1FE780C02328D024503F
:10A72400BDC82285EFF05F97238DA400814526855F
:10A734004146EF802F8928503D478345A5019387E3
:10A74400F5FF93F7F70F6369F70283C78198A5CBE9
:10A75400414681450808EF80EF86194697C5FF1FDB
:10A76400938505FE080897A0FF1FE780A099305045
:10A774000C082E85EF30803EEF701FE83C50A14559
:10A784002398A70013852701EF904F932C5003556E
:10A794004400EFF03FC9A14703554400A300F4006F
:10A7A400EFF08F9F414611C58357E50013D617007C
:10A7B4003E96854503C5A192EF80EF9F3DBFEF9084
:10A7C400EF8F5DBF21476399E7023C5189CB83D565
:10A7D40007010355450013862701EFF03FCA7C4C5F
:10A7E40083D7470113F7270021CF184C035747009D
:10A7F400098B39C7A5474DB72547639BE700EF9001
:10A804004FBBAA8503554400EFF05FC6A94769B75B
:10A8140029476392E704EF902FB98547AA8563041B
:10A82400F5008145854426852EC6EF90AFB52A866E
:10A83400B24503554400EFF0FFBF7C4C83D747017A
:10A84400918BE38B07E81C4C83D74700918BE385FE
:10A8540007E8AD4791B72D47E390E7E8EF902FB6AF
:10A86400AA8503554400EFF0FFC4BDB513F70720D4
:10A8740009CB184C035747001377072019C3B9476E
:10A884009DBD93F7074089CB1C4C83D7470093F7B2
:10A89400074099C3C14785B5C947B1BD0DCD011165
:10A8A4008A8522CC06CE2A84EFF05FA38347040076
:10A8B4000355440097160000938606B389E797165C
:10A8C4000000938606B30A869D45EFF07FA9F24007
:10A8D40062440561828005458280AA8503C5A192F0
:10A8E4006F80EFA3411122C4405926C206C6AA8430
:10A8F40031C4084C09C597A0FF1FE780400F2850BA
:10A9040009C597A0FF1FE780800E685009C597A06E
:10A91400FF1FE780C00D285409C597A0FF1FE780DB
:10A92400000D685409C597A0FF1FE780400C2285DD
:10A9340097A0FF1FE780A00B23AA0402224403D59B
:10A944000403B240924441016FF03FF9411126C221
:10A9540006C622C4AE84EFF02F8431C14C592A8438
:10A964009DCD83A8C50603A88506FC51B85183C6AE
:10A97400650003D6450083C505002685EF909FA991
:10A984002285EFF03FF6EFF06FC511C92244B240C3
:10A99400924403C5A192854541016F707FEFB24097
:10A9A4002244924441018280411122C4405926C26A
:10A9B40006C67C4CAA8483D7470113F7071019C72E
:10A9C400184C03574700137707101DE313F70720AC
:10A9D40019C7184C035747001377072011EB93F757
:10A9E40007409DCB1C4C83D7470093F707408DC786
:10A9F4009947A300F4002285EFF0DFAC034714006D
:10AA0400C947631FF700224403D52400B24092448F
:10AA1400814541016FF09FF3C947A300F400E5B7F6
:10AA2400B2402244924441018280411106C622C4AC
:10AA340026C2EFF06FB521C14059AA840DCC8347DB
:10AA440004009DC79387C1919C4389C7DC4399C384
:10AA54002285829703471400C947631EF7002244E6
:10AA640003D52400B2409244814541016FF01FEEAA
:10AA740093870192D1BFB240224492444101828023
:10AA8400411126C24AC006C622C4AA842E89EFE018
:10AA9400BFF00DCD40595DC0835744006390970AC1
:10AAA4008347140019476392E70883470400BDCB2A
:10AAB4007C4C83D7470113F7170005C3184C035781
:10AAC4004700058B19CB9D47A300F400B2402244F4
:10AAD4009244024905454101828013F7270001CBC6
:10AAE400184C03574700098B19C3A547F1BF918B35
:10AAF40081CB1C4C83D74700918B99C3AD47E9B7F1
:10AB04009387C1919C43F9D3DC43E9D3228582978F
:10AB140003471400C9478145E31AF7FA2685EFF085
:10AB2400FFE26DB793870192F1BF45476398E70051
:10AB34006304090013092003CA85CDB7631C090007
:10AB44002685EFE07FE519C58347450093E70701B4
:10AB54002302F500A6854A85EF90EFAA85BF41112F
:10AB640022C42E862E8497F6FFFF9386862B894572
:10AB740006C626C24AC02A89EFF08FFE8345040028
:10AB8400AA844A85EFF09FDCB2402244268502491C
:10AB9400924441018280938701929C4395CB9C43CC
:10ABA40085CB797122D406D6984110082A843AC8F4
:10ABB400D84185453ACA829701C92306A1000355A5
:10ABC40024006C00EFF0BFF9B2502254456182803A
:10ABD4008280011122CC06CE2A842EC6EFE0DFDB70
:10ABE4005C5991CF83D74700B245639A8700854764
:10ABF4006397F5006244F24005616FF0BFCEF24006
:10AC0400624405618280411106C6EFF0CF94C167AA
:10AC1400FD176307F500B240DD4541016FF01FD316
:10AC2400B24041018280011126CA4EC6AE84AA896F
:10AC340093053005130500034AC806CE22CC328999
:10AC440097A0FF1FE78000D129CD1306000381459B
:10AC54002A84EF703FB74146CE852285EF70FFBE50
:10AC6400A6850D461305D401EF703FBE13060402FA
:10AC7400930504012285EF20706EAA840D46930586
:10AC8400D4024A85EF707FBC228597A0FF1FE7801E
:10AC940000D6F240624426854249D244B249056155
:10ACA4008280CD44FDB781474146B306F500338722
:10ACB400F5000347070003C806008507334707016B
:10ACC4002380E600E393C7FE82805D714EDE62D48A
:10ACD400AE892A8C9305300513050003A6C2CAC0A9
:10ACE40052DC56DA5AD85ED686C6A2C4B28B368BEC
:10ACF400BA84BE8A4289468A97A0FF1FE78080C52E
:10AD04006301050E1306000381452A84EF709FAB8F
:10AD14004146E2852285EF705FB3414681450A854D
:10AD2400EF705FAA1D46DE850A85EF701FB21D46CF
:10AD3400DA8513057100EF705FB133392001B33444
:10AD4400900041468145080823072101A30791008B
:10AD5400EF705FA71946D6854808EF701FAF1946F4
:10AD6400D2851305A101EF705FAE9304040141463F
:10AD7400CE852685EF707FAD8A852685EFF0BFF2FC
:10AD8400930904024E86A6852285EF20305D2A8928
:10AD94001DE54146CE8526859790FF1FE7808036C6
:10ADA4000C082685EFF03FF04E86A6852285EF201D
:10ADB400F05A2A8946454146CE85EF701FA922855F
:10ADC40097A0FF1FE780A0C2B64026444A85964458
:10ADD4000649F259625AD25A425BB25B225C616103
:10ADE40082804D49D5B7011126CA52C4AA842E8A3D
:10ADF40013050003930530054AC84EC606CE22CC7F
:10AE04003289B68997A0FF1FE780C0B431CD2A8468
:10AE1400A6854146EF707FA3930404012146D285A1
:10AE24002685EF709FA2CA85214613058401EF7021
:10AE3400DFA113090402A6854A862285EF20105259
:10AE4400AA844146CA854E85EF703FA0228597A00B
:10AE5400FF1FE780C0B9F240624426854249D244CC
:10AE6400B249224A05618280CD44F5B75D71A2C41E
:10AE7400A6C24EDE52DC86C6CAC0AE89328AAA8415
:10AE8400EFE09FB14059414681450A85EF709F9399
:10AE940051C8035944006317990883470400D9E350
:10AEA4000347140099476313F70414081306C404F2
:10AEB4009305C40213057400EFF0FFF225E5228523
:10AEC400EFF08F9D2A860C080A859790FF1FE78074
:10AED40060238A854A85EF1010630545B6402644F1
:10AEE40096440649F259625A616182802C509DC988
:10AEF400C54683D70501631BD7086310FA022146B0
:10AF0400C9054E85EF703F9285476318F500228589
:10AF1400EFF08F982A862C5045BF93052003268591
:10AF2400EFF0DFA22685EFE03FA72A8435CD4C550C
:10AF3400A5CD83D70501639947072146C9054E85E9
:10AF4400EF707F8E85472A896310F5064C540A8575
:10AF540003C6A5019790FF1FE780C01A83C7D1825B
:10AF640091C75C5483C7B701639F270DBD452685F0
:10AF7400EF10F05397B7FF1F938707709C5B014551
:10AF8400B1DF1D4589458297014589BFE31CFAF865
:10AF94002146C9054E85EF701F898547E314F5F8EE
:10AFA4002C5003C6A5010DB79387B19703C70700BB
:10AFB40097B9FF1F9389496C3E89058B05CF0347D9
:10AFC400540083C741976317F70219469385519735
:10AFD40013056400EF703F858547631DF50083A763
:10AFE400090381C791451D458297BD452685EF100C
:10AFF400104CE5B503C7819883A7090321CB034708
:10B004000900098B09CB81C795451D458297268583
:10B01400EF10B04FD9B581C78D451D458297414684
:10B0240081450810EF700FFA194697B5FF1F9385F5
:10B03400257108109790FF1FE780C00C0C100A863A
:10B044002E85EF20B0318A85268571B58545D5FFDB
:10B054007DBF8147C1463307F500B388F500034738
:10B06400070083C808003308F60085073347170133
:10B074002300E800E391D7FE82800147BD4713080F
:10B08400F00F3306F50083460600B388F500FD177C
:10B094008606558F2380E8000347060093F7F70FD1
:10B0A4001D83E39007FF82808147930800F841489D
:10B0B40093F6F70F3387F50063FCC600B306F5007B
:10B0C40083C606002300D7008507E39307FF828029
:10B0D4006395C60023001701C5BF23000700EDB721
:10B0E40001114AC856C22E89AA8A930530054145E2
:10B0F40006CE22CC26CA4EC652C4328A97A0FF1F5F
:10B10400E7804085AA8493053005414597A0FF1F39
:10B11400E78040842A84CD49B5C021CD414681458C
:10B12400EF704FEA2686A2855685EF203023AA8940
:10B1340029E18387040063D30706A2852685EFF0FF
:10B14400DFF34A8697B500009385C5502285EFF05A
:10B154005FF08307090063D80704A2854A85EFF0EE
:10B16400DFF1528697B500009385C54E2285EFF036
:10B174005FEE268597A0FF1FE780608711C42285B4
:10B1840097A0FF1FE780A086F24062444E85D24418
:10B194004249B249224A924A05618280CA8526857B
:10B1A400EFF0BFED7DB7D2854A85EFF01FEDD1B743
:10B1B40039715AD05ECE2A8BAE8B4145930530054A
:10B1C40006DE26DA52D456D262CC66CA6AC8368CF7
:10B1D400328DBA8C22DC4AD84ED69790FF1FE78076
:10B1E4006077AA8A9305300541459790FF1FE78051
:10B1F40060762A8ACD44638C0A0849C52A86D68596
:10B204005A85EFF0FFEDAA8435ED930530054145ED
:10B214009790FF1FE78000742A8993053005414504
:10B224009790FF1FE7800073AA896308090E6304DF
:10B23400050E1304FD0011841376FD003DCC7D142E
:10B244004204418025EE131544004E86D6855E9552
:10B25400EFF03FE0414681454A85EF70AFD6014D9E
:10B2640093170D01C18363F48708BDC04A85979085
:10B27400FF1FE780C077638709004E859790FF1F03
:10B28400E780E07656859790FF1FE7804076630756
:10B294000A0052859790FF1FE7806075F250625450
:10B2A40026854259D254B259225A925A025BF24B21
:10B2B400624CD24C424D21618280014413154400FA
:10B2C4008A855E95EFF05FDE4E86D2850A8549B7A2
:10B2D40093154D000A86DE954A85EFF09FD74A867E
:10B2E4008A855A85EF209007AA84050D95BFBDFC79
:10B2F4000A86CE854A85EFF0DFD54A868A855A8547
:10B30400EF20D005AA846686CA8562859790FF1FC0
:10B31400E78040DFA1BFCD4491BFCD44A9BF894799
:10B3240061C2DDCD2300A60083C70500A300F6009B
:10B3340083C715002301F60083C72500A301F60087
:10B3440083C73500A30206002302F60083D7450015
:10B35400A183858BA302F60003D74500137707204A
:10B3640009C793E72700A302F60083D7450093F7A4
:10B37400074099C78347560093E74700A302F600A6
:10B3840083D7450013974701635807008347560046
:10B3940093E78700A302F6002303060083C7450052
:10B3A400858B2303F60003D74500098B09C793E770
:10B3B40027002303F60083D74500918B99C7834761
:10B3C400660093E747002303F60003D7450081474F
:10B3D400218B19C703476600136787002303E60020
:10B3E4003E8582802E86AA8505456FF05FF32E8602
:10B3F400AA8509456FF0BFF24DC95971A2D42A84B8
:10B4040003554500A6D2CAD0CECED6CA86D6D2CC53
:10B41400DAC8DEC6B68AB2892E89EFE0EFD7AA84ED
:10B4240039C50C182285EFE07FEB83470400138AAB
:10B434006400A9CBEF804FF72A8B014583CB5400DE
:10B44400EF804FF4AA840C100818EFF0BFF9084CF1
:10B454002C10EFF0DFF9D288268A56C05E88D28796
:10B464005A8714103010CE854A85EFF01F86B650E7
:10B47400265496540659F649664AD64A464BB64B64
:10B4840065618280EF804FF2AA8B014503CB5400A3
:10B49400EF804FEF2ACE084C0C10EFF0BFF42C10C5
:10B4A4000818EFF0DFF4F2484DBF8280011122CC7E
:10B4B4004AC806CE26CA2A84EFE0FFC92A8901CDEC
:10B4C400E147630EF50E2149F24062444A85D244B5
:10B4D4004249056182807C4C83C72701858B91CFCB
:10B4E4001C4C054783C727008D8B6398E70083476F
:10B4F400640093E717002303F4008344340089476E
:10B504006391F402035544008545EF902F898347E6
:10B51400640093E747002303F4008D47A300F4007D
:10B5240065B70D476390E402035544008945EF90E5
:10B53400EF8683476400A300940093E74700230346
:10B54400F40059B71147E38FE4FA0547639EE40218
:10B5540093047400A300F400414681452685EF70EE
:10B564006FA61306C4023285C14532C6EF800FB5FB
:10B57400324622859306C401A685EFF0FFE72285B3
:10B58400EFE0DFE331D181B71547E39FE4F29304A1
:10B594007400A300F400414681452685EF708FA214
:10B5A4006C4C4146268589059790FF1FE78080B53E
:10B5B4008347640093E747002303F4005DB70D4914
:10B5C40021B7397122DC405926DA4AD84ED606DE34
:10B5D400AA89AE8432896307042003552500835762
:10B5E4004400638BA700A144F2506254268542595B
:10B5F400D254B259216182808347040099E39D4467
:10B60400E5B7AD47E3EDB7FE9387E5FF93F7F70F93
:10B614002547E366F7FE17B70000130727FA8A07E2
:10B62400BA979C43BA978287B2852285EFF01FE8C8
:10B63400AA845DBF4146CA851305C4039790FF1FC2
:10B64400E78040AC2285EFE0BFDAAA8411C1A144AF
:10B654009547A300F40049BF9309C404CA85414631
:10B664004E859790FF1FE780E0A913097400140822
:10B674004E86CA852285EFF03FD841469305C40320
:10B684000808EF704F9A8547E310F5F68A8613068B
:10B69400C402CE854A85EFF00FF511ED2285EFE067
:10B6A400BF9F2A8703554400814601468A85EFE0FF
:10B6B400AFF8AA8411C1A144994761BF034714009C
:10B6C4009D47E31EF7F27C5089EB930530057145E5
:10B6D4009790FF1FE780002868D068500DD141463D
:10B6E400CA859790FF1FE780E0A12285EFE0DF9AEB
:10B6F4007C50238DA700A147A300F4008144EDB53D
:10B704006850E30E05EE03471400A147E319F7EE72
:10B71400835706009305290021462318F50049059F
:10B724009790FF1FE780009E7C4C83D7470113F757
:10B7340027002DC3184C03574700098B21CFA54779
:10B7440065BF03471400A547E31BF7EA3C5481EBAC
:10B75400854559459790FF1FE780C01F28D428547A
:10B7640019C54146CA859790FF1FE780A099A9474C
:10B7740061B703471400A947E313F7E828541946AF
:10B784009305190041059790FF1FE780A0977C4C13
:10B7940083D74701918B95CF1C4C83D74700918B5E
:10B7A4008DCBAD4791BF7C5489EB93053005514552
:10B7B4009790FF1FE780001A68D46854E30505E2F8
:10B7C4004146CA859790FF1FE780C0937C547D57FC
:10B7D40098CB4E85EFF04F9D15B783450600EFF0EB
:10B7E400EF9629BFAD47E39BF5F0834606008355EA
:10B7F40025001306650003450500EF80EFF0FDBD4D
:10B8040015C1AA8709458DC141112E8541469385ED
:10B81400170006C69790FF1FE780C08EB24001450F
:10B824004101828009458280828089471DC595C572
:10B83400411106C603471500AE8719462380E5006B
:10B8440093052500138517009790FF1FE780808BD1
:10B85400B24081473E85410182803E85828015C188
:10B86400AA8709458DC141112E854146938517004C
:10B8740006C69790FF1FE780E088B240014541016A
:10B88400828009458280828089471DC995C94111FA
:10B8940006C60347250083461500AE872207558F49
:10B8A4002390E500214693053500138527009790E2
:10B8B400FF1FE7802085B24081473E854101828099
:10B8C4003E85828015C1AA8709458DC141112E8507
:10B8D40041469385170006C69790FF1FE780808234
:10B8E400B240014541018280094582808280094736
:10B8F40011CD89CD83471500A14601472380F5006A
:10B90400FD1793F7F70F63F3F60061473A858280DA
:10B9140015C1AA8709458DC141112E8541469385DC
:10B92400170006C69780FF1FE780C07DB24001451F
:10B93400410182800945828082808947630905101C
:10B9440063870510411106C622C426C28347150029
:10B954002E842380F50083472500A380F5008347C8
:10B9640035002381F50083474500A381F500834713
:10B974005500858B9396870083D7450093F7F7EF9F
:10B98400D58F2392F5008346550093F7F7DFA2067F
:10B9940093F60620DD8E2392D5000347550093F6D7
:10B9A400F6BF220713770740558F2392E50083479C
:10B9B4005500FD769386F67F8D83858B758FAE0754
:10B9C400D98F2392F50083466500F99B858ADD8E25
:10B9D4002392D500034765009377270013F7D6FF1A
:10B9E4005D8F2392E5008347650093F647009377C4
:10B9F400B7FFD58F2392F50003476500DD9B4D45C6
:10BA0400218BD98F2392F500EF805F99AA84514549
:10BA1400EF80DF980347340093F4F40F1375F50FA8
:10BA2400C94763609702636EE500834604001147CB
:10BA3400E1476368D7008346140005476363D70072
:10BA44008147B240224492443E85410182803E8532
:10BA5400828015C1AA8709458DC141112E854146B1
:10BA64009385170006C69780FF1FE780A069B24040
:10BA7400014541018280094582808280797122D406
:10BA84002A84084506D626D22306010083440500ED
:10BA940029479387F4FF93F7F70F6362F70C17B7FF
:10BAA4000000130727B48A07BA979C43BA97828782
:10BAB4000C08EFF09FE8C9476312F5029947230683
:10BAC400F100035524006C00EFF06F89B25022544A
:10BAD4009254456182800C08EFF0DFDE29C9834768
:10BAE400C100E5F303552400EFE03F84C5B70C081B
:10BAF400EFF01FE2E5B70C08EFF07FDFC5B70C08E5
:10BB0400EFF01FD0E1BF0C08EFF01FD8C1BF0C0845
:10BB1400EFF0FFD4E1B70C08EFF03FD1C1B70C0848
:10BB2400EFF03FF365BF834715002308F100035589
:10BB34002400EFD07FE6A14705C10347C500631287
:10BB4400F7029387C19198439D4719C7184309C7C2
:10BB54001008A6850297AA872306F10049B79D47D6
:10BB6400B9BF93870192C5B7411122C406C60347E2
:10BB74000500930720092A846312F70A83471500F6
:10BB840039476393E7028356450009676107814794
:10BB94006391E6081C452244B24003C5070093851F
:10BBA400170041016FE04FD11307E0036396E708E4
:10BBB400034725009547631DF70203554500EFD061
:10BBC400DFFC91476304F5008547A1A093870192A8
:10BBD4009C43FDDB03A38700E30803FE0356E40054
:10BBE40003554400930564002244B240410102839A
:10BBF400A147631BF70083456400035544002244B6
:10BC0400B24041016FE0DFE7930600038147E3049C
:10BC1400D7FEB24022443E85410182809306000A49
:10BC24008147E318D7FEEFF07FE5084451DD979094
:10BC3400FF1FE780C0DB49BF8147E1BF411122C438
:10BC440026C206C62A84EFE00FD1AA8419C9E147A7
:10BC5400630FF50AA144B24022442685924441016F
:10BC640082802285EFE09FC36C4C83C72501858BBE
:10BC740091CF1C4C054783C727008D8B6398E70041
:10BC84008347640093E717002303F40083473400D9
:10BC940009476391E702894503554400EF801F90EB
:10BCA4008347640093E747002303F4009147A3000C
:10BCB400F40055B79386D7FF93F6F60F05466364F1
:10BCC400D6008545D1BF6390C702A300E400414676
:10BCD400814513057400EF60FFAEC1451305C4022E
:10BCE400EF70DFBD8DBF9546E397D7F6A300E40060
:10BCF40041468905130574009780FF1FE780804043
:10BD04008347640093E747002303F400F9B78D44A5
:10BD140099B7797122D4405926D24AD04ECE06D64C
:10BD2400AA89AE8432896309042003552500835708
:10BD34004400638BA700A144B250225426850259C3
:10BD44009254F24945618280034704008547631495
:10BD5400F7009D44D5B79387F5FF93F7F70F254771
:10BD6400E369F7FE17B700001307878A8A07BA97B3
:10BD74009C43BA978287B2852285EFF03FECAA8470
:10BD840065BF4146CA851305C4039780FF1FE7803A
:10BD940060370347140091476305F7029306C40113
:10BDA4001306C402930574002285EFF0EFE42285A4
:10BDB400EFE0CFE0AA8411C1A1449547A300F400A9
:10BDC400A5BF8D47A300F4008144BDB79307C40405
:10BDD4003E85CA8541463E899780FF1FE7808032B1
:10BDE4008A864A86930574002285EFF0EFE0414687
:10BDF4009305C4030A85EF601FA38547E31EF5F28C
:10BE04002285EFE0EFDEAA841DF5994745BF03477D
:10BE14001400B147E31FF7F27C5089EB930530051A
:10BE240071459790FF1FE780E0B268D0685015D144
:10BE34004146CA859780FF1FE780C02C2285EFE02A
:10BE4400AFA57C50238DA700B547ADBF6850E30272
:10BE540005F003471400B547E31DF7EE83570600CA
:10BE64009305290021462318F50049059780FF1FF3
:10BE7400E78040297C4C83D7470113F707203DC353
:10BE8400184C035747001377072029CFB9471DBF24
:10BE940003471400B947E31EF7EA3C5489EB9305C2
:10BEA400300559459790FF1FE780C0AA28D428542D
:10BEB40019C54146CA859780FF1FE780A024BD4766
:10BEC40011B703471400BD47E315F7E82854194692
:10BED4009305190041059780FF1FE780A0227C4C41
:10BEE40083D7470193F707409DCF1C4C83D7470066
:10BEF40093F707408DCBC147F1B57C5489EB93058B
:10BF0400300551459790FF1FE780C0A468D468545A
:10BF1400E30305E24146CA859780FF1FE780801E40
:10BF24007C547D5798CB03D529008145EFE01FA2AF
:10BF340061BD83450600DDBF8547E397F5E8032827
:10BF44004600834736000347260083461600835580
:10BF54002500034606000145EF70FFF1B5B5011158
:10BF640026CA06CE22CC89441DCD95CDAA842E8422
:10BF740068008D45EF709F948347E10026852286F3
:10BF840093F7F70393E707046C002307F100EFE04E
:10BF94009FC9AA8409E90D466C00130534009780F3
:10BFA400FF1FE7802016F24062442685D2440561D3
:10BFB40082805D714EDE86C6A2C4A6C2CAC052DCAF
:10BFC40056DA5AD85ED6894955C54DC6138B4500F5
:10BFD400420B135B0B01AE8A2A8A930530055A85FE
:10BFE400B2849790FF1FE780E0962A84CD4959C117
:10BFF400EF70BFBD2A895686D285935A8900135A99
:10C004000901937BF90F1305440093FAFA0F137A8D
:10C01400FA0F13598901EF605F83A30174012301AF
:10C024005401A300440123002401EF705FB9AA85E1
:10C0340041460808EF607F81214734005A86A28573
:10C044000808EFF0EF96AA890DE121462C00238021
:10C054007401A380540123814401A3812401138525
:10C064004400EF608FFEEF703FB722859790FF1F6B
:10C07400E780E097B64026444E8596440649F25937
:10C08400625AD25A425BB25B61618280011106CE70
:10C094002AC6EFD0DFFA324599452385A192EFC035
:10C0A400CFB1F24017F5FFFF1305E5B205616FD07C
:10C0B400DFA683C7B192A18B1797FF1F130707A6AB
:10C0C40091E3014723AEE19001458280797152CC1E
:10C0D4002A8A2E8506D622D426D24AD04ECE2EC601
:10C0E400EFD09F8B45C5405945C4834734008949E7
:10C0F400F91793F7F70F63EDF90883574400B24536
:10C1040089446394B706130974004146D2854A856D
:10C114009780FF1FE78000FF1306C4023285C145E4
:10C1240032C6EF70AFF932469306C401CA85228540
:10C13400EFF08FAC03470400834714000DC30D4791
:10C1440081446394E702A300340122852254B2504F
:10C1540092540259F249624A45616FE02FA6114791
:10C16400639EE700A30094008144B25022542685C4
:10C1740002599254F249624A456182800D478144D2
:10C18400E395E7FE9547A300F400C1B78944F1BFE6
:10C19400C944E1BF79719397050122D406D626D20A
:10C1A4004AD04ECEC1872E8463D1070403C5A19221
:10C1B400EF608FAE2AC611CDEFF01F9BB24519E593
:10C1C40003C591929307F00F631EF5002E85EF606F
:10C1D4000FA62165218DB250225492540259F2497E
:10C1E40045618280EF60CFB1EDB793F7150091C739
:10C1F400EFE0BF8313451400F9BF8DE90145E1BFAA
:10C20400850493F4F40FEFD0FF90E3F9A4FE339583
:10C2140099001319050113590901B3772401EDD3CA
:10C224004A85EFE05F9E3345240175B7854485490F
:10C23400D9BF39C9011126CA06CE22CCAA84094520
:10C244009DCD0D4628002E848D059780FF1FE78025
:10C2540060EB8347A10070002C0093F7F70393E78A
:10C26400070426852305F100EFE0FF9B09E90D464D
:10C27400A2856800EF602FDB7D153335A000F24006
:10C284006244D244056182800945828083C7B192A9
:10C29400918B1797FF1F1307278991E3014723A069
:10C2A400E19201458280011152C42A8A32854EC628
:10C2B40056C25AC006CE22CC26CA4AC82E8BB28A8F
:10C2C400B689EFD06FED09ED8944F24062442685CA
:10C2D4004249D244B249224A924A024B05618280C1
:10C2E4005C592A89C544F5F34D45EF802F8B1374AF
:10C2F400F50F5145EF808F8AE38809FC83C78901D4
:10C30400E3E487FC1375F50FE360F5FC9305300552
:10C31400130500079780FF1FE780C063232AA90243
:10C324002A84CD445DD1130600078145EF608FC98F
:10C33400A3000400230044012301640123125401D7
:10C34400232E3405232C0400A301040063170A00E0
:10C354008547A300F40081448DBF2285EFE00FD40C
:10C364008547A300F400AA842DD14A85EFE08FD736
:10C37400A9BF397122DC06DE26DA4AD84ED652D459
:10C3840056D25AD05ECE62CC66CA0944630F060EFA
:10C39400630D070EAA8B3A89368BB28A2E8CEFD0A6
:10C3A400AFDF2A8A51446302050E930530054145E7
:10C3B4009780FF1FE780005AAA894D4479C58344BA
:10C3C400190083472900A204C207BE9483470900C9
:10C3D400BE9483473900E207BE9483278A0263E64A
:10C3E40097007D570944639DE70863070C00834762
:10C3F4004A000544898BC9C7930C4B0021468145EB
:10C404000A85C20CEF600FBC93DC0C019305300568
:10C4140066859780FF1FE780E0532A8C4D442DC129
:10C424005A86D6851105EF604FC21146CA856285CA
:10C43400EF60AFC1414693058A014E85EF60EFC0BE
:10C4440021478A866686E2854E85EFE07FD62A8478
:10C454001DE121468A852800EF602FBF2146930500
:10C4640049002800EF602FBC8547631EF502A685AE
:10C474005E85EF808F9D62859780FF1FE780205740
:10C484004E859780FF1FE78080562285F2506254C4
:10C49400D2544259B259225A925A025BF24B624C1C
:10C4A400D24C216182800544F9B7397162CC2A8C5F
:10C4B400594526DA4AD84ED652D456D25AD05ECEF0
:10C4C40006DE22DCAE8B328BB68A3AC63E8AC2893D
:10C4D400468983440104EF505FF82DCD916793871B
:10C4E40017E92310F50085472301F5002A84324714
:10C4F400210563080C0493071003A301F4001946F3
:10C504008145EF602FAC23036401A3035401230A84
:10C5140094002312740123174401231834012319AE
:10C524002401A2856254F250D2544259B259225A7B
:10C53400925A025BF24B624C03C5819221616F50A7
:10C544003FFCA30104001946BA859780FF1FE780CA
:10C5540060BB55BFF2506254D2544259B259225A68
:10C56400925A025BF24B624C21618280011122CC0F
:10C574002A84314506CE2EC632C436C23AC0EF50A4
:10C58400DFED1DCD9167938717E92310F5008D47E3
:10C594002301F500A3018500B245224692460247D5
:10C5A4006244F2402312B5002313C5002314D500BE
:10C5B4002315E500AA8503C5819205616F505FF4D8
:10C5C400F24062440561828001114AC82A893945D2
:10C5D40026CA06CE22CC2EC6B284EF501FE821C153
:10C5E400B2459167938727E92310F5009147A3018A
:10C5F40025012312B5002A842301F500A685190517
:10C6040021469780FF1FE780E0AFA2856244F24095
:10C61400D244424903C5819205616F507FEEF240D6
:10C624006244D24442490561828001114AC82A8980
:10C63400414526CA06CE22CC2EC6B284EF50FFE175
:10C644001DCD9167B245938727E92310F5009547DF
:10C654002A84231225012301F50021461905978018
:10C66400FF1FE78020AAA285231794006244F240AA
:10C67400D244424903C5A19205616F507FE8F2405C
:10C684006244D244424905618280011122CC2A8449
:10C69400394506CE2EC632C436C23AC0EF50FFDB4F
:10C6A4001DCD9167938717E92310F500994723015E
:10C6B400F500B245224692460247231285006244A1
:10C6C400F2402313B5002314C5002315D500231607
:10C6D400E500AA8503C5819205616F507FE2F240AF
:10C6E400624405618280797122D406D62A842EC6DA
:10C6F40032C436C23AC0EFD02FAA1DC1B245224679
:10C7040092460247231CB100231DC1002C081306C6
:10C71400F00F2285231ED100231FE100EFD00F9AD2
:10C72400B250225445618280011122CC2A843945B9
:10C7340006CE2EC632C436C23AC0EF501FD21DCD2B
:10C744009167938717E92310F5009D472301F500AE
:10C75400B245224692460247231285006244F240C3
:10C764002313B5002314C5002315D5002316E500B3
:10C77400AA8503C5819205616F509FD8F240624437
:10C78400056182805D712AC613052002CAC04EDE8F
:10C7940052DC56DA5AD85ED662D466D26AD086C6DD
:10C7A400A2C4A6C26ECE2E8CB28B368B3AC43E8DFA
:10C7B400C28CC68A035A0105835941050349810580
:10C7C400EF50BFC94DCD91663243938616E9A94710
:10C7D4002A842310D5002301F500930DE4002105DC
:10C7E4009304440122476305030693071003A3013E
:10C7F400F40019468145EF50FFFC194681456E85CA
:10C80400EF505FFC194681452685EF50BFFB23039B
:10C814007401A30364012300240323128401231D50
:10C824005401231E4401231F3401A2852644B6402B
:10C8340096440649F259625AD25A425BB25B225C70
:10C84400925C025DF24D03C5819261616F505FCBD2
:10C85400BA85A301040019469780FF1FE780808AE8
:10C86400EA856E8519469780FF1FE780A0891946DF
:10C87400E68526859780FF1FE780C08849BFB640BC
:10C88400264496440649F259625AD25A425BB25B34
:10C89400225C925C025DF24D61618280011122CCC6
:10C8A4002A84214506CE2EC632C4EF501FBB0DC5C7
:10C8B4002246930710592310F50023018500B24541
:10C8C4002303C5006244F2402312B500AA8503C5C0
:10C8D400819205616F50DFC2F2406244056182803B
:10C8E400011122CC2A84214506CE2EC632C4EF5033
:10C8F400DFB60DC922469167938727E92310F50017
:10C90400A1472301F500B24523038500A303C50015
:10C914006244F2402312B500AA8503C5A1920561C1
:10C924006F501FBEF240624405618280011122CC27
:10C934002A84314506CE2EC632C436C23AC0EF50E0
:10C94400DFB105CD22468567938717C92310F5000B
:10C9540023018500B2452303C50092460247624481
:10C96400F2402312B5002314D5002315E500AA854F
:10C9740003C5819205616F50BFB8F24062440561FE
:10C984008280011126CAAE844AC82A891385C4004C
:10C9940006CE22CC32C6EF505FAC0DCD8567B245D2
:10C9A400938717E923019500231225012A84231074
:10C9B400F500310508C426869770FF1FE780807450
:10C9C400A2856244F240D244424903C58192056182
:10C9D4006F501FB3F2406244D244424905618280E1
:10C9E400011122CC2A84194506CE2EC6EF50FFA68B
:10C9F40015C58567938717F92310F500854723012B
:10CA04008500A301F500B2456244F2402312B5004B
:10CA1400AA8503C5819205616F509FAEF2406244BE
:10CA240005618280411122C42A840D4506C6EF5057
:10CA3400DFA215C1930710F92300F500E947A3000D
:10CA4400F500230185002244B240AA8503C58192E2
:10CA540041016F50FFAAB24022444101828001117A
:10CA640022CC2A84214506CE2EC6EF501F9F1DC519
:10CA74009167938727E92310F500930700032301A7
:10CA8400F500B245230385006244F2402312B50049
:10CA9400AA8503C5A19205616F509FA6F240624426
:10CAA400056182800111214506CE2EC632C4EF50A5
:10CAB400DF9A15C58567938707392310F500B245BA
:10CAC400224685472301F500F2402312B5002313C3
:10CAD400C500AA8503C5819005616F507FA2F2400D
:10CAE40005618280797122D44AD04ECE56CA06D6C8
:10CAF40026D252CC5AC8894AAA8932843689639A82
:10CB04005511938A019083C70190568A8944C1C301
:10CB140083C7160003C70600A207D98F2397F19293
:10CB24001307C6FF6399E70831452EC6EF50FF92FD
:10CB3400AA8435CDB245420441802302B5002313B3
:10CB44008500930700F91504A1652310F50023114E
:10CB54003501850522859780FF1FE780A0DF88C403
:10CB640031C183C70A009305E9FF13562400FD175A
:10CB74002380F1909770FF1FE780C05A9C44A685DC
:10CB840003C5819089079CC4EF509F978144B2509C
:10CB94002254268502599254F249624AD24A424B9F
:10CBA4004561828026859780FF1FE78040E42396B5
:10CBB40001928544E9BF1307D6FFE3CAE7FE83C7A2
:10CBC400419289CB93870193884309C59780FF1FBE
:10CBD400E780E0E103D5E1921105A16542058505F1
:10CBE40041819780FF1FE780E0D623A8A19271D1ED
:10CBF40083470A002286CA85FD172380F190977027
:10CC0400FF1FE78020502396819285472382F1926B
:10CC1400B5BF83D7C192138BC192C1DF03D7E19211
:10CC2400138A0193B386C700110703250A006344DE
:10CC3400D7063E95CA859770FF1FE780A04C035620
:10CC44000B0081443294420441802396819283D71D
:10CC5400E1929107E31DF4F23145EF501F80AA855C
:10CC64000DC9930700F92310F50083570B00231116
:10CC74003501230255012313F50083270A001CC53F
:10CC840003C58190EF50DF8723960192238201929E
:10CC9400FDBD03250A0009C59780FF1FE78020D545
:10CCA400239601922382019229B76F20901C6F2052
:10CCB400B01D411106C6EF20501DB240014541018F
:10CCC40082806F20D01F6F20D0216F20D0236F204F
:10CCD400B0256F2090276F2070296F20502B6F2074
:10CCE400302D6F20302F6F2010316F2010336F20C4
:10CCF40010356F20B0368347160003460600A2079E
:10CD04005D8E6F20F0376F2030396F20F03B6F203D
:10CD1400B03E6F2070416F2050446F2070466F20EA
:10CD240090486F20B04A6F20D04C1307A5FF4207EC
:10CD340085672A8841831385A7C7636CE502138737
:10CD440007C801456368B70263E605031307301F8C
:10CD54006362C702138766FF42074183938767C7ED
:10CD640063EAE70005063306B6028E063325D600CD
:10CD740082800145828097A7FF1F9387A7B1BC4794
:10CD84000145054791E3828083C677006393E600FB
:10CD940005059C43C5BF411122C491452A84014520
:10CDA40006C6EF60CF952315A40417A7FF1F0357EA
:10CDB40027B4854763F4E704835744038356240563
:10CDC4000355C40417A7FF1F1307C7AC9D8EB38672
:10CDD400A602832704088328870485451303F5FFE7
:10CDE400130E8002BE9683270415A183C207C18354
:10CDF400938727028587AD0763E66500B240224426
:10CE0400410182803388C50346877D56369801E701
:10CE14002315B404E5B76314E400184075DB832ECE
:10CE2400C7076398AE00032607083306C840337665
:10CE3400A6026364F6001843D9BF890575BF97A796
:10CE4400FF1F83C7578763800712411126C206C696
:10CE5400AA8422C44AC07D55CDC897A7FF1F9387D3
:10CE640067A3B8475DC317A9FF1F1309E98003052A
:10CE7400490197A5FF1F83C5F58185057D540548A4
:10CE8400B708C0A8130E000C834677008327070851
:10CE9400639906050353070783560703637DD30687
:10CEA4000346D700631906070326070F2DE603265A
:10CEB400470935E20346F700631FC605705FB38672
:10CEC400664079163306D60283264708B356D6023F
:10CED400B297AE96C206C182231BD70663500504DF
:10CEE400958F63F387003E84184359FF93874188E5
:10CEF4009C4382976368A402B307A4409CC09C40EF
:10CF040035476361F70423A00400B24022449244ED
:10CF140002494101828083566707C9B7E3F2D7FC0F
:10CF2400C6977DBFB307854063DB070083074901CC
:10CF3400E3C407FCB707C0A8A297898FC1B723A091
:10CF4400040075BFCD179CC08307490163D5070052
:10CF5400130534FF5DBFB147E3EC87FE3705C0A876
:10CF64004D1522955DB77D55828097A7FF1F938746
:10CF74006792FC4B411122C426C206C62A84AE84A1
:10CF84006396A70097A7FF1F23A007968327840F04
:10CF940099C703554400014693050008B1248357FB
:10CFA400840399C7035544004D46930510082D2C5E
:10CFB400035544001546930510083D24230304003B
:10CFC400A30604002304940417A7FF1F03574792E2
:10CFD400854763E6E70085450145EF503FC7B2400A
:10CFE40022449244014541018280411122C406C673
:10CFF4002A848327040FD9E78327840FD5E70325E1
:10D00400840E09C59780FF1FE780609E03451402C4
:10D014009307F00F6304F500EF507FB40345040257
:10D024009307F00F6304F500EF507FB30345240228
:10D034009307F00F6304F500EF507FB203554400EB
:10D0440039229797FF1F938727639C4785CB97A720
:10D05400FF1F83D7E7899DE39797FF1F9387876512
:10D06400C84F09CD9780FF1FE78060989797FF1FEF
:10D0740023A007669797FF1F23AE0764B24022449C
:10D0840041018280C84309C59780FF1FE78020962D
:10D094008327040F03D7E700136707F02397E700FC
:10D0A4009C432328F40EB1B703D7E700C8431367A2
:10D0B40007F02397E70009C59780FF1FE7802093B7
:10D0C4008327840F9C43232CF40E3DB79797FF1FAF
:10D0D4009387477CBC4799E33E85828003D747000A
:10D0E400E30CA7FE9C43C5BF9797FF1F9387877ADE
:10D0F400BC4FC1669795FF1F83C505590147FD16AF
:10D1040003D6E700630BA6006309D600050713776F
:10D11400F70FC107E3F6E5FE81473E8582804111A2
:10D124009797FF1F9387077722C4A04F06C609E885
:10D13400B24022449797FF1F23AA077A41018280B5
:10D1440022859780FF1FE780808A0040CDB7411178
:10D1540022C41794FF1F1304E473344406C6014722
:10D16400B687B5C303D647006315A6060DEF9842EC
:10D174009796FF1F23A4E6763E859780FF1FE780DE
:10D1840000877C4423A007009797FF1F83D7477627
:10D1940095E7EFF0DFF89797FF1F23A10774B240DC
:10D1A40022444101828074446397F6009796FF1FDE
:10D1B40023A8E672D1B7944314C37DBFFD17179714
:10D1C400FF1F2317F7729797FF1F83D76772E1FB3F
:10D1D400C9B73E879C4371B7614681451795FF1FC8
:10D1E4001305C56F6F500FDE011122CC2A8411453F
:10D1F40006CE2EC632C4EF504FA61DC1B2452246FC
:10D20400231185002300B500A300C5006244F24049
:10D21400AA851795FF1F0345154A05616F504FAE48
:10D22400F2406244114505618280397106DE22DCD8
:10D2340026DA4AD88347050013070008639AE742B1
:10D244008344150095476386F43863E397020544E5
:10D25400638B840EB5C48D476383F4329147638333
:10D26400F4342285F2506254D254425921618280AE
:10D27400930710086386F42863EA97009947638D3F
:10D28400F4369D476384F43A0544E1BF93072008CC
:10D294006380F42A93076008E398F4FE035525009D
:10D2A400EFF0DFE205C5035705058356E504035691
:10D2B400A5068355850603554500EF30A06351A0AC
:10D2C40003552500EFF09FE0AA8419E1094451BFFA
:10D2D4008347F500230B05000D4493F70704D1D3CE
:10D2E4008327850FA9CFD44303C6C70083C587000E
:10D2F400035545008906EF30E06315E183A7840FE9
:10D3040003D7E700136707F02397E7009C4323AC98
:10D31400F40E83D7640381C7FD17239BF40283A70C
:10D32400840F91CF03D54400014693050008EFF024
:10D33400BFEB2A8419E58547238BF4001DB7239B93
:10D344000402014439BF03552500EFF03FD82A8475
:10D3540035DD034775009797FF1F9387A753631A1B
:10D36400970C845BA5D483C7170813896407898B3A
:10D37400C9CF03C7440689471946631CF70693853A
:10D38400640628089770FF1FE780C0D703C75407B7
:10D394008547194663F4E706CA8508109770FF1F8E
:10D3A400E78040D6AC501946910528109770FF1FAE
:10D3B400E78040D5834794028358E40283C6540728
:10D3C40083554400034524043EC4835724031308AF
:10D3D400010238103EC28357040305463EC03C0890
:10D3E400EF30C0518347F40093E70704A307F40028
:10D3F40089BF81452808EF50EFBC49BF814508101B
:10D40400EF504FBC1946CA854DB703479402835861
:10D414002503035805038357E5028355450083C656
:10D4240054070345250405463AC04A87EF30E04ACD
:10D4340055BFA443E38C04E883C717081389240465
:10D44400898BD9CF03C70403894719466319F706A3
:10D454009385240328089770FF1FE780A0CA03C799
:10D464000404894719466311F706CA8508109770A2
:10D47400FF1FE78020C9AC48194628109105977012
:10D48400FF1FE78020C8BC4883C7370093E7270005
:10D49400A380F4048358E40283C61404835544002F
:10D4A4000345240402C483572403130801023810DB
:10D4B4003EC28357040301463EC03C0815B781456C
:10D4C4002808EF502FB061BF08108145EF508FAF8F
:10D4D4001946CA8528109770FF1FE780A0C25DBF58
:10D4E40083582503035805038357E50283554500F4
:10D4F40083C61404034525044A8702C001463DB788
:10D504009797FF1F93870739B843E30107DC8358D4
:10D5140007010358E70083570702834617040146AF
:10D5240002C01307270481450945EF30003B11BDB4
:10D534009797FF1F93870736985BE30907D883C73C
:10D544001708898B85C302C402C202C081480148FE
:10D55400814701478146054681451305C003EF30E5
:10D56400E039C5B38346D706814802C001488147E4
:10D574001307E706054681451305C0037DB7035528
:10D584002500EFF0BFB4E30305D403570505835624
:10D59400E5040356C5048355450003452504EF30CF
:10D5A400603445B303552500EFF05FB22A86E30FDC
:10D5B40005D08347750083554500034525046397CB
:10D5C40087001306060DEF302032A5BB1306860D27
:10D5D400DDBF03552500EFF07FAFE30905CE834798
:10D5E4008511034675119305F51003554500A207EF
:10D5F4005D8EEF30A02FB1B303552500EFF01FADC2
:10D604002A84E30505CC035705058356E504035630
:10D61400A5068355850603554500EF30602D8347E5
:10D62400E40093E747002307F40021BB03552500DA
:10D63400EFF0DFA9E30C05C8832505158326C5147F
:10D644008347451513F7F50F13D8860113D68501C3
:10D65400A182A18103554500A2072207C206C20583
:10D6640033670701C1825D8EC181EF30E028D1B9F3
:10D67400130710080544E396E7BE834715004D479A
:10D68400638BE70E6366F70621476382E70A314737
:10D694006380E70C1547E396E7BC03552500EFF0DC
:10D6A400FFA22A84E30405C28327050F95C7035606
:10D6B40085030506420641829C4313071600420770
:10D6C4004183A5E7231CC40201CA835544000545D0
:10D6D400EF306025231C040203452404034684041C
:10D6E40083554400EF30E0222285EFF01F9091B97A
:10D6F400130700036385E70A6360F7026947E3924F
:10D70400E7B603552500EFF07F9CE30105BC034514
:10D714002504EF30802135B113077005638EE708C7
:10D72400138417F0333480002DBE3A8671B7035545
:10D734002500EFF0BF99E30B05B8034605048355B4
:10D744004500034525043336C000EF30C01CD5BE68
:10D7540003552500EFF09F97E30A05B603576504C8
:10D764008356450403463504835545000345250483
:10D77400EF30A01AF9B603552500EFF03F95AA84BF
:10D78400E30605B4035685030144E30C06AC835554
:10D7940045000545EF302019239C0402D9B40355F4
:10D7A4002500EFF0BF92E30305B28355450003451E
:10D7B4002504EF30C01771B603552500EF3060170C
:10D7C40049B641119797FF1F9387C70C22C406C619
:10D7D400805F9797FF1F83C7970181CF1797FF1F1C
:10D7E4000347E70095476316F7009797FF1FA38049
:10D7F40007009796FF1F83C656FF9387A6FF93F7EC
:10D80400F70F0547636AF7009797FF1F2381D7FE39
:10D814009797FF1FA38DE7FCF129484C23130400BD
:10D82400230204009770FF1FE780601CC145231C7E
:10D834000400232E0400232004021795FF1F034530
:10D8440095E7EF50CFAD2244B2401795FF1F034533
:10D8540095E69305000241016F506FAC0111979753
:10D86400FF1F9387270322CCE05726CA06CE2AC47B
:10D874002EC6854419E40145F2406244D244056150
:10D8840082808347910003471400858B6304F7006B
:10D894000044CDB719469305A10013052400EF40B9
:10D8A4009FF8E31795FE0545C1BF011126CA979459
:10D8B400FF1F938424FE22CCE0544AC84EC652C4AF
:10D8C40056C206CE2A898149130A2500854A21E8D1
:10D8D4009305802031459770FF1FE780A0072A84B5
:10D8E400014525C083471900194693052900A30063
:10D8F400F400130524009770FF1FE780A080FC54F8
:10D90400B1EB9797FF1F23AD87FE83D784062324AB
:10D91400040085071797FF1F2312F7FE15A003477E
:10D924001400834719006305F700A289004445B732
:10D934001946D28513052400EF40FFEEE31755FF87
:10D944000545F2406244D2444249B249224A924ACD
:10D9540005618280E38B09FA23A489007DB7979738
:10D96400FF1F938727F3E85711E99797FF1F23A910
:10D9740007F89797FF1F239307F88280411106C683
:10D9840022C400459770FF1FE7806006228575F862
:10D99400B24022449797FF1F23A407F69797FF1FCF
:10D9A400239E07F4410182809797FF1F938787EE98
:10D9B40023A607062394070682809386C1939C427C
:10D9C4009843659B98C30347150003482500220725
:10D9D400420842970348050042970348350062080D
:10D9E400429798D703475500034865002207420829
:10D9F40042970348450042970348750062084297DE
:10DA0400D8D7034795000348A50022074208429748
:10DA14000348850042970348B5006208429798DBA3
:10DA24000347D5000348E50022074208429703480C
:10DA3400C5000345F500429762052A97D8DB03C762
:10DA4400150003C52500220742052A9703C50500D2
:10DA54002A9703C5350062052A9798CF03C7550056
:10DA640003C56500220742052A9703C545002A9786
:10DA740003C5750062052A97D8CF03C7950003C56F
:10DA8400A500220742052A9703C585002A9703C5E6
:10DA9400B50062052A9798D303C7D50003C5E500EE
:10DAA400220742052A9703C5C50083C5F5002A97B6
:10DAB400E2052E97D8D3D843759BD8C3D8431367B0
:10DAC4001700D8C398431367170098C398425C4360
:10DAD400858BD9E31C4F01452300F6009C429C4FE3
:10DAE400A183A300F6009C429C4FC1832301F6004E
:10DAF4009C429C4FE183A301F6009C42D84F230231
:10DB0400E600D84F2183A302E600D84F41832303C4
:10DB1400E600D84F6183A303E60098532304E6008C
:10DB240098532183A304E600985341832305E60018
:10DB340098536183A305E600D8532306E600D8531F
:10DB44002183A306E600D85341832307E600DC5370
:10DB5400E183A307F600828001008DBF411106C650
:10DB6400EFF0BFE5B2400145410182809386019404
:10DB740090429797FF1F83C747B1139787000C42C2
:10DB840093F7F703A2074D8FB78500014D8F18C295
:10DB94001842F1759385F50F6D8FD98F1CC2371715
:10DBA4000040930770052300F704930780FA2300CD
:10DBB400F704010001001796FF1F034606ADD14785
:10DBC40063FBC7048357270293E707012311F70276
:10DBD4009C424567130787E7D8D7984FA166558FAE
:10DBE40098CF984FE1769386F607758F8D66938666
:10DBF4000650558F98CF13072015D8DB9767FF1F62
:10DC04009387A77DB20737070014B183D98F37E70D
:10DC140000E07CD7828083572702C207C183BD9B63
:10DC2400C207C18365B71797FF1F1307A7BB938765
:10DC340041949C43544B184F096694CBD4CB98CF52
:10DC4400D8CF9447D18E94C7D847518FD8C794471B
:10DC54000566D18E94C7D847518FD8C798431367A8
:10DC6400270098C398431367070298C38280938759
:10DC7400C1949C4399CBD44390479842518F98C206
:10DC8400D447DC4B9842D98F9CC21773FF1F67009F
:10DC940043909387C1949C4399CB944BD04B984227
:10DCA400518F98C294439C479842D98F9CC29387C2
:10DCB40001959C43094798C31773FF1F6700638D41
:10DCC4009797FF1F83C7B7B28DE71797FF1F0347C7
:10DCD400D7B19307B7FF93F7F70F894663EBF600C5
:10DCE4009797FF1F2385E7B085471797FF1FA3006A
:10DCF400F7B08280138701951C4394438D8A85C2B3
:10DD0400B44BE19AB4CB944393E6860094C39C430A
:10DD14008D83858B89C701000100010001001C432C
:10DD240023A807049387C1949C4399CBD443904779
:10DD34009842518F98C2944BDC4B9842D98F9CC225
:10DD44009797FF1FA38307AA8280938601959C421D
:10DD540098430D8B05C3B84B619BB8CB98431367AD
:10DD6400870098C39C438D83858B89C7010001007C
:10DD740001000100938701949C4337080010D85791
:10DD8400719B13672700D8D798433367070198C35B
:10DD9400984F370800F97D183377070137080002D8
:10DDA4003367070198CF984F137737F813678701C4
:10DDB40098CF13878195032807000327C802759B12
:10DDC4002326E8021377F6079043137606F8598E54
:10DDD40090C388C7CCC39797FF1F238507A0979745
:10DDE400FF1FA38307A098429797FF1F238E079EC8
:10DDF400FD475CC39387C1949C4399CB904BCC4B18
:10DE04001442CD8E14C290439C471442D58F1CC239
:10DE140085679387870B9796FF1F23ABF69C8547EF
:10DE24001CC3930790053CCB828041119797FF1F39
:10DE3400A38F079A22C406C626C21794FF1F034461
:10DE4400049B95476319F4069797FF1F938787A44C
:10DE5400985F3E8483467700B1CA03465700B7559E
:10DE6400550037C5898E93855555130565EDEFF03B
:10DE7400DFED9796FF1F83C656979387A6FF93F708
:10DE8400F70F0547636AF7009797FF1F2381D7961B
:10DE94009797FF1FA38DE79495471797FF1FA30636
:10DEA400F7941C5C130710FA2383E700B240224462
:10DEB4009244410182809947631EF4029794FF1FA4
:10DEC4009384449DBC4003C777006DD303C65700B9
:10DED400B755550037C5898E93855555130565ED9E
:10DEE400EFF0BFE69797FF1FA3818790BC4013070D
:10DEF40010FB5DBF9D47E31BF4FA9797FF1F83C791
:10DF04002790858B1796FF1F0346B6919796FF1FA0
:10DF140083C6269195C39797FF1F93876790C8433D
:10DF240001CD834515000905792149D18547179706
:10DF3400FF1FA30EF78A9DBF81450145F5B71387DF
:10DF440001951C4394438D8A85C2B44BE19AB4CBAA
:10DF5400944393E6860094C39C438D83858B89C741
:10DF6400010001000100010014439307A005138779
:10DF74008195BCCA9307000ABCD2938701949C4341
:10DF840003280700D1C50327C80213650504759B40
:10DF94002326E8021377F5078843137505F8598D8E
:10DFA4003747767188C31307971298C737575500B8
:10DFB40013075755D8C31797FF1F230607821797D0
:10DFC400FF1FA30207821797FF1F230F078023A2B7
:10DFD4000600D857B70500F0FD15719BD8D79843B4
:10DFE4006D8F98C3BC52FDFFA1679387373012062B
:10DFF400DCC613068611B0D2930700F81787FF1FFB
:10E004002304F77EB16793873730DCC66FF07FC88F
:10E01400984FB70500F9FD156D8FB70500024D8FB8
:10E0240098CF984F137737F81367870198CF032752
:10E03400C802759B2326E8021377F50788431375F6
:10E0440005F8598D37C7898E88C3130767EDB1BFAB
:10E054009787FF1F938707799C4FA9CB411106C669
:10E0640022C4EFF05FBC138401951522F923EFF06D
:10E07400FFAF1C401307D005B8CBEF00B00FEF1073
:10E08400405E2D27EF00407A85471787FF1F230F37
:10E09400F7741C4023A80704EFF09FC2B240224447
:10E0A4009787FF1FA38307744101828082804111F7
:10E0B40022C41784FF1F1304E4721C4C06C626C234
:10E0C40085CB938401959C401307D005B8CBA92F29
:10E0D4009C4023A807048347840085071787FF1FF4
:10E0E4002306F770EFF0DFBD9787FF1FA38F076E3E
:10E0F400B240224492444101828023A60194B7C7CE
:10E10400004023A2F1941387073023AEE1921387D2
:10E11400072023A8E1949387071037D7004023AC46
:10E12400E19423A0F194054741119787FF1FA38E23
:10E13400E76A22C41784FF1F130404541C4006C654
:10E144009786FF1F23AAF66A938707119786FF1FF6
:10E1540023A6F66A9787FF1F238AE768EFF05FEF2D
:10E1640037E700E0B70710002320F710B7062000B8
:10E174002320D71003074401635707001387019531
:10E184001843FD177CD3B240224441018280938717
:10E1940001959C43930600052947D4CBD8CF93051A
:10E1A400C008CCD31306C003D0D7CCDBD0DFF4C374
:10E1B400F8C71307600FB8CF316713073730D8C7D4
:10E1C4009767FF1F93876756370700F07D8FB7E681
:10E1D40000E0B207F8C2B18337070015D98FBCD667
:10E1E4008280938701949C43B70600F9FD16984FEB
:10E1F400758FB7060004558F98CF984F137737F86B
:10E204001367C70198CF138781951443F5CD37B7AA
:10E2140024001307F7E96361A7089843137707F805
:10E224001367570298C305476394E500130585C136
:10E23400D856370810FE7D1813672700D8D64167D3
:10E24400130707A03356E5023377E5021305A00F41
:10E254007D8A93154601F042337606014D8EF0C255
:10E26400F042B705FCFF6D8E2A073357A7023A0721
:10E274003983518FF8C21787FF1F03476758098BEB
:10E2840019CB98431377F7079366070498431377DA
:10E2940007F8558F98C38280370725001306F7487F
:10E2A4006363A6023767DBFF130707932A971306F6
:10E2B400007D3357C7027D1790431377F707137612
:10E2C40006F8518F85B7130707496318E50098438B
:10E2D400137707F813676702B1B737D72500130719
:10E2E400F777636DA7003767DBFF130707932A9758
:10E2F4001306007D3357C70279177DBF9843137700
:10E3040007F81367770239BFD856759BD8D61377A9
:10E31400F5078843137505F8498F98C3A9BF9387F8
:10E3240041889C43411122C406C626C2829797871E
:10E33400FF1F9387E74E8047630AA406BE8497872E
:10E34400FF1F938767338387470163D90704018DD0
:10E35400135455009787FF1F83C7274C6368F40441
:10E364009760FF1FE780205498449787FF1F83C757
:10E37400C74A9396570036971D8C9786FF1F23A58F
:10E38400E64AE37FF4FC2244B24092441785FF1F1F
:10E3940003451547814541016FF0BFE4E37985FAF0
:10E3A400B707C0A83384874022955DB7B2402244A2
:10E3B400924441018280011126CA938401959C40B4
:10E3C4004EC652C4984356C25AC006CE22CC4AC83E
:10E3D4000D8B2A8AAE89328BB68A05C3B84B619BF2
:10E3E400B8CB98431367870098C39C438D83858B70
:10E3F40089C701000100010001001784FF1F1304F5
:10E404002442834744011789FF1F1309693F918BF5
:10E4140099E78347090093F7070463950716814535
:10E424001785FF1F0345D53DEFF0BFDB93870194AC
:10E434009C4303278900B706001098C70327C90027
:10E44400D8C3D857719B13672700D8D79843558FE3
:10E4540098C3834709009840858B93E7E7015CC321
:10E464009787FF1FA38F673B9787FF1F238B573B1C
:10E474005C43858BADC75C4085E31785FF1F03456F
:10E48400F5399305900409059760FF1FE780804CD8
:10E494009787FF1F23A8A7385C400545F1CB178752
:10E4A400FF1F034707382380E7005C4063000A0E20
:10E4B400638E090CA380370148404E86D285090536
:10E4C4009760FF1FE78000C4938741949C435840A2
:10E4D400D8CB930700041787FF1F2305F730EFF00D
:10E4E4002FFE8347640193E747001787FF1F230428
:10E4F400F7349787FF1FA387072E9787FF1FA385EE
:10E50400072E9787FF1F2381072E9D471787FF1F1D
:10E51400A30DF72C9787FF1F938707169C5791CB62
:10E5240013060064C1451785FF1F0345E530EF401E
:10E534008FC89387C1949C4399CBD4439047984206
:10E54400518F98C2D447DC4B9842D98F9CC297878D
:10E55400FF1F83C7A72C9D0792071787FF1F232937
:10E56400F7289C400547014598C313079005B8CB8D
:10E57400F2406244D2444249B249224A924A024B8E
:10E584000561828085450325490079BDA380070084
:10E5940025BF9387819594430566D846518FD8C685
:10E5A400514701007D1775FF9043FD76FD165846CF
:10E5B400758F58C6514701007D1775FF9443056652
:10E5C400D846518FD8C6514701007D1775FF944333
:10E5D400D84613671700D8C6514701007D1775FF49
:10E5E4009443D846799BD8C6514701007D1775FFDF
:10E5F4009443D84613671700D8C6514701007D17C6
:10E6040075FF9443D84613670710D8C651470100D5
:10E614007D1775FF9443D8461377F7EFD8C6514753
:10E6240001007D1775FF98435C4793E707105CC7AB
:10E63400D1470100FD17F5FF8280411106C6EFF0B6
:10E644005FF5938781959C43130700483703009037
:10E6540098D7B8477D13370E0020337767003367A8
:10E66400C701B8C7B847B70600F9FD16758F370656
:10E674000004518FB8C7B8473706F9FF7D16419B90
:10E6840013679700B8C7B847B7080080B70E0002F1
:10E69400718FB8C7B847370600FF7D163367170177
:10E6A400B8C7F84745757D1E619B13673700F8C7E7
:10E6B400F8471377F7F813670703F8C7EC4793F5A0
:10E6C400F58F93E50530ECC7F847718FF8C7F84725
:10E6D40011663367D701F8C703A807051307F5FFC9
:10E6E4007D753378E8003368C80023A8070503A8BC
:10E6F40047057D15137808FF1368480023AA07050A
:10E70400F04B13660608F0CBF04B698EF0CBC85F74
:10E71400798D2167598DC8DFCC5F37070040F58DAF
:10E72400B3E5D501CCDFD05FB70570003376C60101
:10E73400598ED0DFD05709674D8ED0D7D057F18E80
:10E74400D4D7D45775767D16F18ED98ED4D7D457B5
:10E754003706FDFF7D1637070200F18ED98ED4D718
:10E76400945BC19A94DB945B93F6F6F094DB945B30
:10E7740093F6F68F94DB985BB70600504D8F98DBC9
:10E78400985B33776700558F98DB985FB70608FF6F
:10E79400FD16758FB7061800558F98DF985FB3681C
:10E7A400170123AC1703B24041018280138781957E
:10E7B4001C4341767D16B44BF18EB4CB9447370697
:10E7C4002000D18E94C7D44793E60601D4C7D4471A
:10E7D400BD9AD4C70100010001000100144305667D
:10E7E400DC4693E70701DCC6DC42D18FDCC283A799
:10E7F400C609A183858BE5DF01000100010001004A
:10E804001C43416603A7C709B44BD18EB4CB93769E
:10E81400F701B84B019B558FB8CB9847B706E0FF7B
:10E82400FD16758F98C7828013888195417703C63A
:10E834004195832708007D1763180610B44FC165FE
:10E844004111F98EB4CF9447C16E3D4FCD8E94C71C
:10E854008D4F8147414E83260800CC4693F5F5EF52
:10E86400CCC6CC42B3E5D501CCC2CC4693E5051069
:10E87400CCC683A5C608A1818589E5DD0100010018
:10E88400010001008326080003A5C608CC423D8987
:10E89400F98DCCC26305E50105061376F60F8145B3
:10E8A40013F3F50F636AF3006311F3049308010192
:10E8B400C6952388A5FE15A8AE888505B302B100C8
:10E8C40083C2F2FFE37E55FCBE8593020101AE9242
:10E8D40083C3F2FEFD1593F5F50F238872FEE3164C
:10E8E400B3FE0C08AE982388A8FE6308F6018507DA
:10E8F40093F7F70FE391C7F731C28347010021472C
:10E904006371F702F5172300F10083470100BD8B03
:10E9140013977700BC4E93F7F787D98FBCCE41018C
:10E92400828011476374F700F917F1BF05476374D8
:10E93400F700FD17C9BFF1FB8D47F1B7BC4E93F744
:10E94400F78793E70728D9BFB44F4166F98EB4CF50
:10E954009447D18E94C7D44793F6F6EFD4C7D443E3
:10E96400758FD8C3D44793E60610D4C7D843518FC4
:10E97400D8C38280397122DC138481951C4006DE61
:10E9840026DA4AD84ED652D456D25AD05ECE62CC6B
:10E9940066CA6AC86EC6D843FD76FD161377F7EFCC
:10E9A400D8C39857758F98D7D857B70602003D9BA0
:10E9B400D8D79847558F98C7D84313670701D8C34A
:10E9C40003C7C19583C6F195558F71E3D84381740C
:10E9D4009384F40F799BD8C3985FB166658F558F84
:10E9E40098DFD84313671700D8C39760FF1FE780E9
:10E9F400A0F31C4003A707091377F703238EE194C0
:10EA040003A7470929831377F707A38FE194D84312
:10EA1400B96693860670799BD8C3985F658F558FC6
:10EA240098DFD84313671700D8C39760FF1FE780A8
:10EA3400A0EF1C4003A707091377F703238FE19482
:10EA440003A7470929831377F707A380E196D843DF
:10EA5400B56693860630799BD8C3985F658F558FCA
:10EA640098DFD84313671700D8C39760FF1FE78068
:10EA7400A0EB18408327070993F7F703A38EF194BB
:10EA840083274709A98393F7F7072380F1961C404E
:10EA940003CCD19583C6C19503A7070AB3868641E3
:10EAA40013F6F600419B518F23A0E70A1307600277
:10EAB4003387E6021306700283A5070A7D7E130ED0
:10EAC400FE0F93F5F5F01305400245737D1313040F
:10EAD40030023347C702B708F1FFFD1813082002BC
:10EAE400930E10027D4FF94FF542F1436D4DD14B1A
:10EAF400454BBD443949314AAD4AB5493D8B1207AE
:10EB04004D8F9305500223A0E70A3387B60283A5ED
:10EB1400070AB3F5C5013347C7023D8B22074D8F62
:10EB240023A0E70A3387A60283A5070A370500F165
:10EB34007D15B3F565003347C7023D8B32074D8F12
:10EB440023A0E70A3387860283A5070A6144B3F545
:10EB540015013347C7023D8B42074D8F23A0E70AB7
:10EB64003387060383A5070A370810FF7D18B3F51A
:10EB740005013347C7023D8B52074D8F23A0E70A97
:10EB84003387D60383A5070AB70E0010FD1EE98D4F
:10EB94003347C7023D8B62074D8F23A0E70A1397C3
:10EBA40056003347C7029315C70103A7070A3377F3
:10EBB400D7014D8F23A0E70A3387E6035D4F334720
:10EBC400C7029375F70003A7470A419B4D8F23A201
:10EBD400E70A3387F60383A5470AD94F93F5F5F07F
:10EBE4003347C7023D8B12074D8F23A2E70A3387B1
:10EBF400560283A5470AD542B3F5C5013347C70278
:10EC04003D8B22074D8F23A2E70A3387760283A523
:10EC1400470ACD43B3F565003347C7023D8B32073E
:10EC24004D8F23A2E70A3387A60383A5470A494DDC
:10EC3400B3F515013347C7023D8B42074D8F23A21D
:10EC4400E70A69473387E60283A5470AB3F5050156
:10EC54003347C7023D8B52074D8FE54523A2E70A90
:10EC64003387B60283A5470AE98D3347C7023D8B34
:10EC740062074D8F23A2E70A338786020D44334788
:10EC8400C7029315C70103A7470A3377D7014D8FEE
:10EC940023A2E70A3387E603254F3347C702937558
:10ECA400F70003A7870A419B4D8F23A4E70A338704
:10ECB400F60383A5870A9D4F93F5F5F03347C70202
:10ECC4003D8B12074D8F23A4E70A3387560283A591
:10ECD400870A9942B3F5C5013347C7023D8B220722
:10ECE4004D8F23A4E70A3387760383A5870AB3F5F8
:10ECF40065003347C7023D8B32074D8F23A4E70AD3
:10ED04003387760283A5870A9543B3F51501334704
:10ED1400C7023D8B42074D8F23A4E70A3387A6031E
:10ED240083A5870A294DB3F505013347C7023D8BF7
:10ED340052074D8F23A4E70A3387660383A5870A06
:10ED4400E98D3347C7023D8B62074D8F939546008B
:10ED5400B3C5C50223A4E70A03A7870A3377D701FB
:10ED6400F2054D8FB385960223A4E70A03A7C70AC9
:10ED7400419BB3C5C502BD894D8F23A6E70A3387DE
:10ED8400260383A5C70A93F5F5F03347C7023D8BE5
:10ED940012074D8FB3C5860223A6E70A03A7C70A45
:10EDA4003377C701BD89A2054D8F23A6E70A3387B0
:10EDB400460383A5C70AB3F565003347C7023D8BF5
:10EDC40032074D8F23A6E70A3387560383A5C70A64
:10EDD400B3F515013347C7023D8B42074D8F23A678
:10EDE400E70A3387A60383A5C70AB3F505013347AA
:10EDF400C7023D8B52074D8F23A6E70A3387E603EC
:10EE040083A5C70AE98D3347C7023D8B62074D8F3F
:10EE140093953600B3C5C50223A6E70A03A7C70A1C
:10EE24003377D701F2054D8FB385F60323A6E70A9E
:10EE340003A7070B419BB3C5C502BD894D8F23A80A
:10EE4400E70A3387560283A5070B93F5F5F033479A
:10EE5400C7023D8B12074D8F23A8E70A338776023A
:10EE640083A5070BB3F5C5013347C7023D8B2207C2
:10EE74004D8F23A8E70A139726003347C70283A5BB
:10EE8400070BB3F565003D8B32074D8FB3C53603D1
:10EE940023A8E70A03A7070B33771701BD89C20527
:10EEA4004D8F23A8E70A139716003347C70283A59B
:10EEB400070BB3F505013D8B52074D8FB3C5C60251
:10EEC40023A8E70A03A7070B698FBD89E2054D8FC5
:10EED40023A8E70A03A7070B930580023377D7011A
:10EEE40023A8E70A03C7E1953307EC40B34DB70203
:10EEF40083AC470B93FC0CFFB34B770393FDFD00EE
:10EF0400B3ECBC0123AA970B83AC470BCD4D93FC08
:10EF1400FCF093FBFB00920BB3EB7C0123AA770B71
:10EF2400B30B870283AC470BB3FCCC01B3CBBB025E
:10EF340093FBFB00A20BB3EB7C01B34CA70323AA06
:10EF4400770B83AB470BB3FB6B0093FCFC00B20C59
:10EF5400B3EB9B0123AA770BA14BB34B770383AC91
:10EF6400470BB3FC1C0193FBFB00C20BB3EB7C010E
:10EF740023AA770BB30B570283AC470BB3FC0C01EA
:10EF8400B3CBBB0293FBFB00D20BB3EB7C0123AAF4
:10EF9400770BB30BF70383AC470BB3FCAC00B3CBD9
:10EFA400BB0293FBFB00E20BB3EB7C01B34C770297
:10EFB40023AA770B83AB470BB3FBDB01F20CB3EB58
:10EFC4009B01B30CE70323AA770B83AB870B93FB5B
:10EFD4000BFFB3CCBC02B30A570393FCFC00B3EBA6
:10EFE4009B0123AC770B914B83AC870B93FCFCF018
:10EFF400B34B7703330A470393FBFB00920BB3EB4A
:10F004007C0123AC770B83AB870BD54CB3FBCB01D3
:10F01400B3CABA02B309370393FAFA00A20AB3EAED
:10F024005B0123AC570B83AA870BD94BB3FA6A0055
:10F03400334ABA0233092703137AFA00320A33EA4D
:10F044004A0123AC470B03AA870BE14A337A1A011E
:10F05400B3C9B902B304970293F9F900C209B369B9
:10F064003A0123AC370B83A9870B654AB3F909012D
:10F074003349B902B3C4B4021379F900520933E92C
:10F08400290123AC270B03A9870BE9493379A9008C
:10F09400330B6703BD88E204B36499001319470076
:10F0A40023AC970A83A4870BB3F4D4013349B90280
:10F0B400334BBB027209B3E4240123AC970A83A443
:10F0C400C70BC198137BFB0033EB6401C944B30441
:10F0D400970223AE670B03A9C70B5D4B1379F9F0B5
:10F0E400B3C4B402BD889204B364990023AE970AF2
:10F0F400B304B70303A9C70BF54D3379C901B3C4EE
:10F10400B402BD88A204B364990023AE970A89446B
:10F11400B344970203A9C70B33796900BD88B204CD
:10F12400B364990023AE970AB304970303A9C70BEA
:10F13400F94C33791901B3C4B402BD88C204B36471
:10F14400990023AE970AB304770303A9C70BFD4BB9
:10F1540033790901B3C4B402BD88D204B3649900FD
:10F1640023AE970AB304670303A9C70B130B10025A
:10F174003379A900B3C4B402BD88E204B36499002E
:10F1840023AE970AB304570303A9C70B930A2002BB
:10F194003379D901B3C4B402F204B364990023AE41
:10F1A400970AB304470303A9070C130A300213791F
:10F1B40009FFB3C4B402BD88B364990023A0970CBB
:10F1C400B304370303A9070C930940021379F9F038
:10F1D400B3C4B402BD889204B36499006D4923A0FA
:10F1E400970CB304270303A9070C3379C901B3C4EB
:10F1F400B402BD88A204B364990023A0970CF1441F
:10F20400B304970203A9070C33796900B3C4B402A9
:10F21400BD88B204B364990023A0970CB304B70368
:10F2240003A9070C33791901B3C4B402BD88C2041D
:10F23400B364990023A0970CB304970303A9070CA4
:10F2440033790901B3C4B402BD88D204B36499000C
:10F2540023A0970CB304770303A9070C3379A900FF
:10F26400B3C4B402BD88E204B364990023A0970C2C
:10F2740093145700B3C4B4021399C40183A4070CB4
:10F284003306C702B3F4D401B3E4240123A0970CDA
:10F2940003A9470C137909FFB3046703B3C4B40289
:10F2A400BD88B364990023A2970CB304570303A940
:10F2B400470C1379F9F0B3C4B402BD889204B36463
:10F2C400990023A2970CB304470303A9470C33798D
:10F2D400C901B3C4B402BD88A204B364990023A2D3
:10F2E400970CB304370303A9470C33796900B3C4FB
:10F2F400B402BD88B204B36499001309500223A276
:10F30400970CB304270303A9470C33791901B3C439
:10F31400B402BD88C204B364990023A2970C930479
:10F324006002B304970203A9470C33790901B3C4FB
:10F33400B4023346B602BD88D204B364990023A252
:10F34400970C83A4470CE98C3D8A6206458E23A260
:10F35400C70C03A6470C9314C7013376D601458E18
:10F3640023A2C70C130690023306C70283A4870C9A
:10F37400C1983346B6023D8A458E23A4C70C1306B2
:10F38400A0023306C702B345B60203A6870C137660
:10F39400F6F0BD899205D18D23A4B70C83C50196DF
:10F3A40003C611963386C540B304A60303A9870C8C
:10F3B4003379C901B3C4E40293E48400BD88A20490
:10F3C400B364990023A4970CB304E60303A9870C40
:10F3D40033796900B3C4E40293E48400BD88B204C1
:10F3E400B364990023A4970C93143600B3C4E402C5
:10F3F40003A9870C3379190193E48400BD88C204FE
:10F40400B364990023A4970CB304F60303A9870CEF
:10F4140033790901B3C4E40293E48400BD88D204BF
:10F42400B364990023A4970CB304560203A9870C70
:10F434003379A900B3C4E40293E48400BD88E204F0
:10F44400B364990023A4970CB304760203A9870C30
:10F454003379D901B3C4E40293E48400F204B364BD
:10F46400990023A4970C93142600B3C4E40203A9BF
:10F47400C70C137909FF93E48400BD88B364990031
:10F4840023A6970CB304860203A9C70C1379F9F0D9
:10F49400B3C4E40293E48400BD889204B364990085
:10F4A40023A6970C93141600B3C4E40203A9C70C53
:10F4B4003379C9013347E60293E48400BD88A2048A
:10F4C400B364990023A6970C03A6C70C3376660091
:10F4D400136787003D8B3207518F23A6E70C03A7E0
:10F4E400C70C3377170123A6E70C03C7F1950D8FDB
:10F4F4003346D70293F5F507E2053D8A9314460196
:10F5040003A6C70C3304870233760601458E23A66F
:10F51400C70C1316170083A4C70CE98C3346D60214
:10F524003D8A6206458E23A6C70C03A6C70C334446
:10F53400D402B37ED60113162700B30377027204F4
:10F5440033E48E0023A6870C3346D602B302570257
:10F55400937EF60003A6070D419A3366D60123A8CD
:10F56400C70C03A6070DB3C3D3021376F6F0B3C2D8
:10F57400D20293F3F3009203B363760023A8770CCB
:10F5840003A6070D337EC601B30FF70393F2F2000F
:10F59400A202B3625E0023A8570C03A6070D3373BF
:10F5A400660013163700B3CFDF02330FE70393FF70
:10F5B400FF00B20FB36FF30123A8F70D03A3070DE8
:10F5C400B37813013346D602330DA7033D8A4206AE
:10F5D40033E6C80023A8C70C03A6070D3378060139
:10F5E400334FDF02B346DD02137FFF00520F336F48
:10F5F400E80123A8E70D03A7070D798DBD8AE2066C
:10F60400C98E23A8D70CD84385663D9BD8C3D8435D
:10F61400799BD8C39857558F98D7D857B706008188
:10F62400FD1613670701D8D71377FC0303AC8703D0
:10F63400137C0CFC336CEC0023AC8703985F758F50
:10F64400D98D8CDF6254F250D2544259B259225AA5
:10F65400925A025BF24B624CD24C424DB24D216144
:10F6640082809387819598435C4393E707105CC33A
:10F674008280411106C69D2393056040EF10602AE5
:10F68400B24001454101828049AB19C591C509C603
:10F694008357060001459DE301110565C94713061B
:10F6A400F100130555C3854506CEA307F100EF10FD
:10F6B4000027F2400345F100056182808280011138
:10F6C4001305910006CEB52B2304A1000565300077
:10F6D40025059D45EF10A024F240034581000561F6
:10F6E400828001111305D10006CEB52B2306A1009B
:10F6F4000965700009059145EF106022F240034549
:10F70400C10005618280011106CEB52BA307A100BB
:10F7140009651306F10015058545EF104020F240F8
:10F724000345F10005618280011106CE2125A3075E
:10F73400A10009651306F10019058545EF10201E87
:10F74400F2400345F10005618280011106CE5D2D72
:10F75400A307A10009651306F10021058545EF10F3
:10F76400001CF2400345F10005618280011106CEC0
:10F77400F12DA307A10009651306F10025058545B0
:10F78400EF10E019F2400345F10005618280011198
:10F7940006CE0927A307A10009651306F100290570
:10F7A4008545EF10C017F2400345F10005618280E2
:10F7B400011106CEEF00C07EA307A1000965130660
:10F7C400F10031058545EF108015F2400345F10045
:10F7D40005618280011106CEEF00D005A307A100C8
:10F7E40009651306F10039058545EF104013F24011
:10F7F400014505618280011106CEEF00503AA3074E
:10F80400A10009651306F10041058545EF1020119B
:10F81400F2400345F10005618280011106CEEF003C
:10F82400701BA307A10009651306F1004505854572
:10F83400EF10E00EF2400345F100056182804111B2
:10F8440006C622C4EF00D0218965CD052A84EF10B5
:10F85400400D2285B24022444101828001111305EA
:10F86400510006CEEF00D0382302A10009655000F4
:10F874006105A545EF10A00AF240014505618280AB
:10F88400411106C6EF00303A8965E505EF106009BD
:10F89400B240014541018280011106CE22CC2A8466
:10F8A400EF0010532306A1000965A3068100700030
:10F8B400218069058D4523078100EF104006F24041
:10F8C4006244014505618280011106CE22CC2A845E
:10F8D400EF00B05B2306A1000965A3068100700058
:10F8E40021806D058D4523078100EF104003F24010
:10F8F4006244014505618280011106CE22CC2A842E
:10F90400A92F2306A1000965A306810070002180A8
:10F91400130505028D4523078100EF104000F240D6
:10F924006244014505618280011106CE22CC2A84FD
:10F93400EF00B0062306A1000965A306810070004C
:10F944002180130515028D4523078100EF00307DCA
:10F95400F2406244014505618280011106CEEF0048
:10F964007057A307A10009651306F100130575027A
:10F974008545EF00D07AF2400345F10005618280AD
:10F98400011106CEEF00F05FA307A100096513067D
:10F99400F100130595028545EF007078F2400345A8
:10F9A400F10005618280011106CEEF00905EA3078D
:10F9B400A10009651306F1001305D5028545EF0082
:10F9C4001076F2400345F10005618280011106CEF4
:10F9D400EF007061A307A10009651306F100130588
:10F9E400E5028545EF00B073F2400345F10005617F
:10F9F40082806F0010649777FF1F83D747EA99E7E7
:10FA04009307F01F1777FF1F231BF7E89777FF1F54
:10FA140083D7E7E8A146014513F707108607C20715
:10FA24003357D740C183598D13D6574013D79740C6
:10FA3400318F058BFD161375F50FD98FF1FE1777EE
:10FA4400FF1F231EF7E482809777FF1F83D747E5C4
:10FA540081EBE17793C7F7FF1777FF1F2312F7E4D2
:10FA64009777FF1F83D7C7E3B94601451168194645
:10FA740033F707018607C2073357D740C183598D2F
:10FA840013D7E74093D5F700058B2D8FFD1613751B
:10FA9400F50FD98FE39EC6FC1777FF1F2312F7E0FB
:10FAA4008280011126CA4AC84EC656C29777FF1FE4
:10FAB400938747D306CE22CC52C4AE843289B68A09
:10FAC40083A9470131CDAD472A8463E3A702130418
:10FAD400F5FF1374F40F6300090A8547631FF908DF
:10FAE40026869305000F13852900EF20BFCD81A83A
:10FAF400B147630AF5029307600263E5A7001304A4
:10FB0400E5FFC1BF930770024945E306F4FCF240E8
:10FB14006244D2444249B249224A924A05618280EF
:10FB2400130450024DBF1304600275B7EFF0BFEC2D
:10FB3400B38749012381A700050AE3499AFE137993
:10FB4400F900E20A23802901A380990093DA8A410B
:10FB54002686854563C30A0081452285EFE02FBED2
:10FB64009777FF1F83D787D385071777FF1F23173F
:10FB7400F7D2014569BF014AC9B789476316F9003D
:10FB840026869305A00A85B78D47631EF900014AAE
:10FB940001A8EFF07FEBB38749012381A700050A91
:10FBA400E3499AFE69BF91476316F90026869305D7
:10FBB400F00F15BF95476315F9002686814525B7D3
:10FBC40099476315F9002686BD4531BF9D474945D0
:10FBD400E31FF9F226869305500531B7011106CECD
:10FBE4002EC6EFD0AFCE05C903476500AA874945A5
:10FBF400418B01CFB24503C777002384B70409EBD7
:10FC040013070003A386E7000145F24005618280E3
:10FC140013071003C5BF4945CDBF011106CE22CC41
:10FC24002EC6EFD0AFCA01CDB2452A84EFD0EFB3D0
:10FC34002301A4040145F2406244056182804945E0
:10FC4400DDBF1777FF1F1307E7C481479946834534
:10FC540087083306F50085072300B6000507E398F7
:10FC6400D7FE014582809777FF1F9387E7A003C7DC
:10FC7400F700A30005002300E50083C70701230163
:10FC8400F5000145828019E1494582809777FF1F7D
:10FC9400938747C0985B411122C406C62A8409C7CA
:10FCA40003477700314539EF985F09C70347770069
:10FCB400314529EBBC4389C783C777003145B9E394
:10FCC40085471946A2851775FF1F130585C5177744
:10FCD400FF1F2302F7BC9740FF1FE780A042834722
:10FCE40054001307000C93F7070C6391E7021946BD
:10FCF400A2851775FF1F130525C39740FF1FE780D3
:10FD040060400145B24022444101828081EB1946A2
:10FD1400A2851775FF1F130585C1C5B71307000416
:10FD24004945E391E7FE1946A2851775FF1F1305A0
:10FD340065C0E1B7177EFF1F130ECEB503234E0334
:10FD44006300030C797122D403240E0326D24AD013
:10FD54004ECE52CC56CA5AC85EC662C406D6C689AE
:10FD6400428A3E89BA8A368BB284AE8B2A8C09E4E5
:10FD740002932A840D4521C4231B8401231C74018E
:10FD84008547639AF404A3089400A3026407194600
:10FD940081454A85EF203FAD2DE185472306F406D2
:10FDA400A30654071946CA851305E4069740FF1FA6
:10FDB400E780403523094401A30634010145B250CC
:10FDC400225492540259F249624AD24A424BB24BEB
:10FDD400224C4561828089476396F4009947A308C1
:10FDE400F40065B70D47E38CE4FE91476394F40097
:10FDF400C547F5B7A308040049BF230604065DBF41
:10FE0400494582801777FF1F1307C7A85C5B011160
:10FE140026CA06CE22CCC94485C72A84085B11E5CC
:10FE24002EC682978D44B24501CD1376F401A30901
:10FE3400C500814411C479059740FF1FE780802CD9
:10FE4400F24062442685D244056182801777FF1F01
:10FE5400130747A45C5B85CF011122CC2A84085B7D
:10FE640006CE11E52EC682978D47B24501CD137695
:10FE7400F401230AC5001305E5039740FF1FE7803B
:10FE840060288147F24062443E8505618280C9470B
:10FE94003E8582809777FF1F9387C79FD85B19E3BE
:10FEA40049458280411106C622C411E99C5BDDC725
:10FEB40083C77700C5C7EF40607701454DA08546ED
:10FEC400631ED508805B0DEC02972A8461C985679F
:10FED40093870780231BF500231CF5009D47A30887
:10FEE40005002309F500A302050619469775FF1FAF
:10FEF4009385C5A2130565069740FF1FE780802000
:10FF0400034774008547630BF70483471401B98BD7
:10FF14008DCF8347140113F7F7002304E40005474A
:10FF24006393E70499470566231DF40013060680CE
:10FF340091451765FF1F03451578EF20DFA70323BD
:10FF4400C4072244B24041010283EFC0DFE2976755
:10FF5400FF1F83C727748D8BE31DF5FA4945B24013
:10FF640022444101828003578401835764019166CE
:10FF7400BA978587139707014183231DE40063D54E
:10FF8400F600231DD40065BF93060002BA8763748C
:10FF9400D70093070002231DF40055B70D45C1B7E0
:10FFA4009777FF1F9387078FD85F59C3411122C4E6
:10FFB40006C62E8401ED9C5F91E74945B240224478
:10FFC40041018280EFD0EFFF0145CDBF8546E316A6
:10FFD400D5FE9C5F91EF0297AA870D45E5D3414773
:10FFE400A38507002399E700239AE700A382070269
:0CFFF40003C7770079F383D6270111675B
:020000021000EC
:100000006374D7002399E70003D7270183D64701FC
:100010006374D700239AE70003D74701930650057E
:10002000238787003307D7022187239BE700BC4340
:10003000829769BF314582809777FF1F9387C78575
:10004000BC43314581CF83C7770089CB411106C6B8
:10005000EF40102EB24001454101828082800111A3
:1000600026CA4AC84EC652C456C25AC02E89368BBA
:10007000BA89BE8A06CE22CCB284428AEFD04F859E
:100080001307A9FF4207856741839386A7C763E6E5
:10009000E610938707C82A84494563E8970A63E610
:1000A000240B1307301F6362670B63E0370B930762
:1000B0001B00B387970213973900860763D7E708B9
:1000C00049C48347E40013F747003DC7ED9B23076E
:1000D000F400834774002314240723159406D5E7FE
:1000E0000357C405C167FD17630BF706631999062B
:1000F0008357E4022315E4042316F4049767FF1FD3
:1001000083D7477F8D46114763E5F600850713F7D0
:10011000F70FA304E4042285EFC03FC883574403CC
:10012000A9072319F4048327440993E74700232AE6
:10013000F408C547230DF40023165407231744077A
:1001400023176405231834050145F2406244D24464
:100150004249B249224A924A024B05618280835742
:10016000840591C7B3D4F402B387970271B7B3057E
:10017000990085814A85EF201FDB2316A40493058F
:10018000C4042685EF30903895BF8327440909675A
:10019000D98F232AF408C14771BF49457DB70111A2
:1001A0002EC606CEEFC0DFF2B24509E54945F24062
:1001B000056182808347E5002301B50413F74700FA
:1001C00075D7ED9B2307F500832745091167D98F64
:1001D000232AF5080145E1BF1767FF1F1307C76B07
:1001E0001C5B81CB83C6770089C683C6D700C9470D
:1001F000A1E21C5F89CB83C6770091C683C6C70086
:10020000C947858A95E63C4381CB03C7770009C778
:1002100003C7D700C94709EF9767FF1F83D7474632
:100220001767FF1F0357C76DA983636AF7009D47D0
:100230003E8582809D47F2403E85056182800111A6
:10024000A304A10019461305A10006CE9740FF1F85
:10025000E78080EB2800EFD08FE58547E31CF5FCB5
:100260008147D1BF011126CA4AC806CE22CCAE842E
:10027000328936C63AC43EC242C0EFC07FE5630E43
:1002800005109385A4FFC2050566C1819308A6C722
:100290002A84494563E2B808130606C8636E260738
:1002A000636C9906B2469305301F63E7D506224773
:1002B0006364E6061386160033069602931537002C
:1002C000635CB6040346E400058A39E683254409E5
:1002D00013F6650031E2924702482318E40403470D
:1002E00074002316F40623149406231524072317F9
:1002F00004072317D4048347A401014551E389EF80
:100300008347840D898B99CF93E52500232AB40870
:10031000C947230DF4000145F2406244D2444249EA
:1003200005618280638B2405B3059900858126854C
:10033000EF207FBF2316A4049305C4044A85EF3041
:10034000F01C9767FF1F83D7E75A8D46114763E577
:10035000F600850713F7F70FA304E4042285EFC026
:10036000DFA383574403A9072319F404832744090F
:1003700093E74700232AF40861BF23169404D1B7FA
:10038000C1FF8347040E898B99CB93E52500CD47A8
:10039000232AB408230DF40041B74945B5BF694588
:1003A000A5BF9767FF1F9387274F985B01CB8346B5
:1003B000770089C60347D700494505EF985F09CB09
:1003C0008346770091C60347C7004945058B15E36F
:1003D000BC4381CB03C7770009C783C7D700494512
:1003E00089EB411106C6EFD0CFD7B240014541019C
:1003F00082808280411122C426C24AC006C62A8950
:100400000144A1449305F00F0545EF209FAFB307CA
:1004100089002380A7000504E31694FEB24022441D
:1004200092440249014541018280011126CA4AC80D
:1004300006CE22CC2EC63289B684EFC07FC96309AE
:100440000518834775002A84B2450945DDEB21462E
:100450001305F4109740FF1FE78000CBA30B241176
:1004600013598900230C241183C7E40003C7D40067
:10047000A2074207BA9703C7F400BA9703C7C4009C
:100480006207BA972324F40A83C7A40003C7940021
:10049000A2074207BA9703C7B400BA9703C78400FC
:1004A0006207BA972326F40A83C7640003C754007F
:1004B000A2074207BA9703C77400BA9703C744005C
:1004C0006207BA972328F40A83C7240003C71400DD
:1004D000A2074207BA9703C73400BA9703C70400BC
:1004E0006207BA97232AF40A834704048DC3854719
:1004F000A300F4048327440993E70702232AF4089E
:100500000145F2406244D244424905618280EF20B5
:10051000EF8E93578500A30CA410230DF41093576E
:1005200005016181A30DF410230EA410EF200F8D9F
:100530000347B4110346A41193570501220742064D
:1005400032970346C411935585019356850032971F
:1005500003469411A30EA410A30FF4106206329761
:100560002322E40A41679304F7FFA2076205230FE1
:10057000D4102E953709FF00E58FC206B3F6260189
:10058000AA97B6972320F40A2300B412EF200F870E
:10059000135785009356850193570501A300A412B4
:1005A0002301E4122302D4121375F50FE206220789
:1005B000A301F4123695658FC207B3F727013A9568
:1005C0003E9583274409232CA40A93E707043DB7EB
:1005D000094505BF011106CE2EC6EFC07FAF55C538
:1005E000834775002A870545B245639DA708834662
:1005F000D7009307600401456396F60883C7E500BA
:1006000083C6D500A207C206B69783C6F500B69783
:1006100083C6C500E206B6972324F70A83C7A50060
:1006200083C69500A207C206B69783C6B500B697E3
:1006300083C68500E206B6972326F70A83C76500BE
:1006400083C65500A207C206B69783C67500B69743
:1006500083C64500E206B6972328F70A83C725001C
:1006600083C61500A207C206B69783C63500B697A3
:1006700083C60500E206B697232AF70A930700050A
:10068000A306F700F240056182800545E5BF4111F0
:1006900006C6EFC0FFA31DCD834675000547AA8798
:1006A00009456396E60283C6D7001307600463908A
:1006B000E60219472381E70413077004A386E700C5
:1006C00003C73702014513671700A381E702B24051
:1006D000410182800945E5BF9767FF1F9387C71BCC
:1006E000985B1D7186CEA2CCA6CACAC8CEC609C761
:1006F00003477700314441E3985F09C70347770018
:10070000314435EBB84309C703477700314425E747
:100710001767FF1F0357C7F69769FF1F83C9C91ED5
:1007200029831D4463F9E90483C78707314493F79C
:100730000704B1C33289A303A10019462800B68477
:100740009740FF1FE780409C4146CA851305E102A0
:100750009740FF1FE780409B4146A6851305E101B6
:100760009740FF1FE780409A4800EF40A0577D1553
:100770006313350101442285F6406644D644464958
:10078000B64925618280411106C6EF40006AB24039
:100790000145410182801767FF1F1307E70F1C5BAC
:1007A00089C783C67700C9478DEE1C5F89C783C69A
:1007B0007700C9479DE63C4389C703C77700C9470F
:1007C0000DE39767FF1FA389A70C9767FF1F83C7D8
:1007D000B71411C993E767001767FF1FA30EF7123D
:1007E00081473E858280E59BC5BF130700643305C2
:1007F000E50241119767FF1F9387070A22C4E05B58
:1008000026C24AC006C6BE841309F00F1767FF1F31
:100810002328A70A01E8B240224492440249014534
:100820004101828003450400630525018C54EF20BB
:100830006FBA405CC5B7011126CA4AC84EC606CE7B
:1008400022CC2E89B289B684EFC09F8859C5639D9A
:10085000090085472381F1960145F2406244D24464
:100860004249B2490561828003C7219685472A849F
:100870006315F7002381019609494165130545F584
:10088000EFC0DF860DCD8347E5002317F5008327F2
:10089000040F95E32328A40E232AA40E930710F82F
:1008A000F9142320050023163501A304F5002304C1
:1008B000250144C155B78327440F88C3F1BF97670B
:1008C000FF1F9387A7DB9C5B1D45C1DB9565054535
:1008D0009385555582971D4549B70945BDBF0343CB
:1008E00001001AC06FB0BFBC6FB09FC86FB01FCE01
:1008F0006FB0FFD36FB0BFD96FB03FDF6FB01FE3F2
:1009000003530100035E4100834E81001AC072C28E
:1009100076C46FB07FE76FB0BFF86FB0BFFC6FC039
:100920002F816FC04F866FC0EF8B6FC0EF976FC086
:10093000AF8F6FC00F9382806FC00F9B0111939791
:10094000050126CA06CE22CCC187AE8463D3070E2A
:1009500003C56183EF109FB42A8415C103470500C6
:100960009307000D631AF700834725000947638347
:10097000E708636DF7009DC72285EF109FAB2165E7
:10098000258DF2406244D244056182809146E3E5C0
:10099000F6FE83461500A9E28D466397D70823AC7F
:1009A000E19C35A88347150085EB93053500194672
:1009B0001385C19C9730FF1FE7800075854723ACE6
:1009C000F19C9387C19B944303C60183854503C56E
:1009D0006183EF502FA301C5994723ACF19C938706
:1009E00041969C43D1DB9C43C1DB1387819D084327
:1009F000829759B783471500E5F38347340003C551
:100A0000618399CF9387419C944303C6819C814520
:100A1000EF504F9FA300A40083471400B1DF6DBFC8
:100A20008545EF103FE7CDBFA387018223ACD19C62
:100A30007DB793F715000145A9D783C7F182BDC3E0
:100A40009387719B83C707009385019B1305610002
:100A50002302F1009387619B83C707001946A30215
:100A6000F1009730FF1FE780206A9387F19A83C7D0
:100A700007004C0003C561832306F1009387819B27
:100A800083C70700A306F100EF403FFA01CD994765
:100A900023ACF19C938741969C4389C79C4399C39F
:100AA0001945829713C51400E9BD9387819D9C4326
:100AB00085E7411106C619C123A2A19681470147C6
:100AC0008146014683C5219D03C56183EF205040C7
:100AD000B24001454101828045458280411122C4D6
:100AE00006C603C461839307F00F6307F4006145F2
:100AF000B24022444101828017050000130545E4FD
:100B0000EF204FA2238BA182E30385FE23A201964F
:100B100023AC019C85472389F19C8D47A38BF19AD7
:100B2000238B019A9D47A387F19A238C019AEF307A
:100B30001F8E014575BF13078501835705001105F9
:100B400093C7F7FF231EF5FE8347E5FF93C7F7FF23
:100B5000230FF5FEE313E5FE828099473305F50286
:100B600001110A86C14506CE130505021375E50F6E
:100B7000EF200FE811E50345C100F24005618280D6
:100B80000145E5BF411122C426C24AC006C68144C0
:100B900001441389C19683C711976369F400B24079
:100BA000224426850249924441018280832709001C
:100BB0001315440019469305F00F3E95EF10FFCA38
:100BC00001E5850493F4F40F05041374F40FE1B701
:100BD0009387C199884305C1411106C6EF107F85EF
:100BE00023AE01989387119783C70700B2402385EE
:100BF000F196410182809387119783C7070023856F
:100C0000F19682801D71A6CA86CEA2CCCAC883C7BF
:100C1000A196AA84639EA700854503C52197EF107E
:100C2000FFD6894503C52197EF105FD6EFF05FFA35
:100C30001949338924037000C1451379F90F13044E
:100C400009021374F40F2285EF208FDA09C90144D9
:100C50002285F6406644D64446492561828019467D
:100C60009305F00F6800EF105FC075F16800414612
:100C70009305F00FEF105FB5481871469305F00F1C
:100C8000EF109FB4680861469305F00FEF10DFB3D3
:100C90007000C1452285EF207F842A841305190244
:100CA0005018F1451375F50FEF205F83498C13053C
:100CB00029025018F1451375E50FEF203F82137498
:100CC000F40F498C130539025018C1451375F50FFF
:100CD000EF20DF801374F40F498C1305490250187C
:100CE000C1451375E50FEF206FFF1374F40F498CA6
:100CF00013055902501891451375F50FEF200FFE9B
:100D00001374F40F498C138504077008E1451375BB
:100D1000F50FEF20AFFC1374F40F498C03C541822B
:100D20001374F40FEF20EFF525B7411122C406C666
:100D30000145014483C711976373F40009C5B240AC
:100D400022444101828022850504EFF0BFEB137439
:100D5000F40FCDB7411122C426C206C64AC00144D1
:100D6000EFB0BFF89384C19683C711976368F4000E
:100D7000B2402244924402494101828088401319C2
:100D8000440019469305F00F4A95EF101FAE09E590
:100D90008C40CA95EFB0BFF505041374F40FE9B7A2
:100DA000397122DC4AD852D406DE26DA4ED6014406
:100DB000EFB0FFF61389C196194A83C71197636A8A
:100DC000F400F2506254D2544259B259225A21616D
:100DD0008280032509009319440019469305F00FFA
:100DE0004E95EF109FA839E133054403832709008E
:100DF0000A86C145CE9783C4570093F4040C9384AC
:100E000004F8130535021375F50FEF206FBE1008B7
:100E1000C1450945EF20CFBD83250900B3349000BB
:100E200014080A86CE952685EFB03FEF05041374AB
:100E3000F40F61B7011106CEEFF0DFD40547A947E3
:100E40006373A70089471306F10085451545A3077D
:100E5000F100EF20007AF24005618280011122CC7E
:100E600026CA4EC606CE4AC801449384C196994903
:100E700083C711976362F404EFF0DFD09387819802
:100E800003C7119783C70700631DA70693E71700E1
:100E90002384F19883C7919699C3EFF0BFEB83C782
:100EA000819699C3EFF0DFEF6244F240D2444249A9
:100EB000B24905616FF01FF83305340390401319F0
:100EC0004400C1454A96130505021375E50FEF204E
:100ED0002FB205C5884019469305F00F4A95EF10CB
:100EE000BF8E884019469305F00F4A951905EF10FB
:100EF000BF8D9C403E992316090005041374F40F1E
:100F000085BF93F7E70F69B70355250083C5219780
:100F10006F50CF90397122DC19443384850226DA70
:100F20004AD806DEA147AA8432891374F40F639865
:100F3000F604130424027146814548081374F40F23
:100F40003AC6EF107F885008F1452285EF204FAA5E
:100F50000DE18347E102A5463247E51793F7F70F06
:100F600063E9F600BA865008937519002685EF30BC
:100F70000FB9F2506254D254425921618280130455
:100F8000140255BF797122D426D24AD0AE842A8960
:100F900032848145130600020A8506D6EF10DF82EF
:100FA0009387A18283C7070023102101230EF1003C
:100FB0008357810145CC1387A19803470700F99B0C
:100FC00003C6C1982302E10003C7B18293761700DC
:100FD000D58FF59B93762700D58F9316470093F610
:100FE000061093F7F7EFD58F9316470093F6062078
:100FF00093F7F7DFD58F9316470093F6064093F7E4
:10100000F7BFD58F118BED9BD98FA302C100231C95
:10101000F10001CE41469765FF1F93856583130557
:1010200061009730FF1FE780200E83C7919881CB26
:1010300099C40357810113672700231CE10003476C
:101040006101B337F000D98F03C7B1983337E0009F
:101050000A07D98FA2850A85230BF100EF300F9D77
:10106000B250225492540259456182801387E1970D
:1010700003470700F99B03C601982302E10003C759
:10108000718293761700D58FF59B93762700D58FC5
:101090009316470093F6061093F7F7EFD58F931644
:1010A000470093F6062093F7F7DFD58F9316470096
:1010B00093F6064093F7F7BFD58F118BED9BD98F31
:1010C000A302C100231CF10001CE41469755FF1F2A
:1010D00093850577130561009730FF1FE780C002F5
:1010E00083C7D19781CB99C4035781011367270028
:1010F000231CE10003476101B337F000D98F03C718
:10110000F197A9B7411122C426C24AC006C6AA84D3
:1011100001441389C19683C71197636AF4003E8422
:101120002285B240224492440249410182808327B1
:101130000900131544001946A6853E95EF10EFEE01
:1011400065F105041374F40FF9B7397122DC1384C7
:10115000C1991C404AD84ED606DE26DA52D42A89D6
:10116000AE89B1E719E1054565A8F5DDEFF09FF916
:101170002385A19683C71197636BF5028144138A77
:10118000C19639A883270A00139544001946930590
:10119000F00F3E95EF106FED09E9850493F4F40F1D
:1011A00083C71197E3E0F4FEBE842385919603C5BF
:1011B000A19683C71197138AA196E376F5FA1C408E
:1011C000A5EB99473305F5024A86C145130505028B
:1011D0001375E50FEF208FB061469305F00F2800DF
:1011E000EF108FDE03450A003000E14513050507C7
:1011F0001375F50FEF208FAE1387C196084383C791
:10120000A19692073E954146CA859730FF1FE78019
:10121000A0EF23AE319903C54182EF208FA601458F
:10122000F2506254D2544259B259225A21618280FA
:10123000904719CE99473305F502F145130515027C
:101240001375F50FEF208FA91C4023A40700E1B709
:10125000904B19CE99473305F502F1451305250248
:101260001375E50FEF208FA71C4023A8070065B773
:10127000D04B19CE99473305F502C1451305350208
:101280001375F50FEF208FA51C4023AA070061B747
:10129000D0470DCE994433059502C145130545024B
:1012A0001375E50FEF208FA303450A001C409145FD
:1012B00033059502D0474106130555021375F50F06
:1012C000EF20CFA11C4023A60700B1B783C791969A
:1012D00099C3EFF03FA883C7819699C3EFF05FAC45
:1012E000EFF05FB549B5011122CC06CE2A842EC697
:1012F00032C4EF80AFEA05C90347C500A1472246C3
:10130000B245631FF7009387419A9C4389CF03A39B
:101310004700630A030022856244F24005610283AC
:101320009387819ADDB7F2406244056182800111A2
:1013300026CAAA842E8522CC06CE2E8432C636C476
:10134000EF80CFE52DC10347C500A147A246324635
:10135000631FF7029387419A9C43A28599CB03A30D
:101360000700630803006244F2402685D244056109
:101370000283938741988843EF306F840DC522859F
:101380006244F240D244854505616F30EFB39387E4
:10139000819A9C43A28589C703A30700E31503FC38
:1013A00093870199C9BFF2406244D24405618280AB
:1013B000011122CC06CE26CA83C71197094463784F
:1013C000F50295C599473305F502AE840A86C145F5
:1013D000130505021375E50FEF109FE12A8401E95B
:1013E00019468A8526859730FF1FE780E0D1228540
:1013F000F2406244D24405618280011122CC19443A
:101400003304850226CA0A86AE84C14506CE13047B
:1014100004021374F40F2285EF109FDD01C981448B
:10142000F24062442685D2440561828019469305C4
:10143000F00F0A85EF106FC37DF10357C10093775A
:10144000D70F89C49377F70F93E72700C207C183AB
:101450008544E307F7FC0A86C14522852316F1007F
:10146000EF20CF8703C54182EF20AF8155BF39718F
:1014700022DC2A8419453305A40226DA4AD8B2842C
:101480002E893000C14506DE130505021375E50FF0
:10149000EF101FD601C90145F2506254D25442598F
:1014A0002161828019469305F00F2800EF10EFBBF1
:1014B0007DF1130404071374F40F3008E14522850D
:1014C000EF101FD319C10545C1BF2808EFF0AFE6E3
:1014D000631D0902614681452808EF100FB965F5C3
:1014E000614681452808EF102FAE85472808238ADA
:1014F000F198EFF04FE43008E1452285EF101FFE30
:1015000003C54182EF10FFF77DBF3C081018BE866F
:1015100083D506003687638125039106E39AC6FECC
:101520000145BDD883D607003E8789C69107E31BD6
:10153000F6FE95B72390270183472700E38597F8A8
:1015400023019700DDF02310070045B71755FF1F53
:101550000345A5130111FD579305200412052389A6
:10156000F19606CE22CC26CA4AC84EC6A38801965A
:1015700023A601969730FF1FE780003E23A6A19681
:1015800015C59759FF1F9389690F83C7E900014467
:101590009384C196A388F19683C71197636FF40C67
:1015A00083A7890063860710238401989387119786
:1015B00083C707000544414681451755FF1F1305A2
:1015C00025292385F1962386818223AE0198A38560
:1015D00001982385019823860198EF10EF9E9304CC
:1015E0007007414681451755FF1F13056525A385E3
:1015F000918223848182A384019823A80198A38FD8
:101600000196238F019623800198EF10EF9BA3830F
:101610009182A38E019623A20198238E019695476D
:10162000A382F182C1472385F182238A01988947E9
:101630002383F18223828182A3868182A384818293
:1016400023A0019A23A4019A23A2019AA3840196BC
:1016500023880196970700009387A7CDF240624444
:1016600023AEF18097070000938727C823A0F1825B
:10167000D2444249B249056182808840131944002E
:1016800019469305F00F4A95EF100F9488401946BC
:101690009305F00F4A951905EF100F939C40050430
:1016A0001374F40FCA972396070023870700EDB53C
:1016B000930700F82384F198D5BD411122C426C2B6
:1016C00006C64AC001449384C19683C711976360DC
:1016D000F402EF101FA79387119783C70700B2404A
:1016E00022442385F1969244024941018280884038
:1016F0001319440019469305F00F4A95EF10CF8C4B
:10170000884019469305F00F4A951905EF10CF8BC5
:101710009C4005041374F40FCA972396070023878F
:10172000070065B7930705C04111C20722C406C66A
:10173000C1837D472E846368F70C17570000130799
:10174000E7F38A07BA979C43BA9782879387C18247
:1017500083C707002300F40025A09387B198CDBF6D
:101760009387A198F5B79387C198DDB74146975500
:10177000FF1F9385E50D22859730FF1FE780C098F6
:101780008147B24022443E854101828093879198EF
:10179000C1B79387B1826DBF938701999C431CC0E9
:1017A000C5B7938781826DB79387F19755B79387B4
:1017B000E19779BF9387019861BF41469755FF1F15
:1017C000938505084DBF9387D19759B79387718249
:1017D00041B793874198D9B79387C19795BF9387AE
:1017E0005182BDB79387A182A5B7938791968DB794
:1017F00093878196B1BFEFF0EFB82300A40049B7FB
:1018000083C7918281BF61478947E36CA7F6EF20C8
:101810003FB92310A400ADB7011106CE22CC26CAD1
:101820004AC84EC6EF20FFEC35ED03C70197854748
:101830002A84630CF7029384C196854983C7119764
:101840006371F4049840131944004A978347E700F2
:10185000639937012285EFF0EFBA9C40CA9723873E
:10186000070005041374F40FD1BFEFF00FCC2388E9
:1018700001969387C1969C4303C71197B907631CD0
:10188000E400EF109FF26244F240D2444249B24970
:1018900005616FF0AFDC0504238007001374F40FBB
:1018A000C107F1BFF2406244D2444249B2490561E6
:1018B0008280797126D24AD006D622D44ECE89476C
:1018C0002E89B2846306F506636FF5008D47630DBC
:1018D000F50A03C411972285B2502254925402593A
:1018E000F249456182802E85EFF0DF8183C7119731
:1018F0002A84E372F5FEE5D01946CA85268597301D
:10190000FF1FE7806080C1BF83A709001315440053
:1019100019463E95CA851905EF003FF121ED0504F2
:101920001374F40F83C71197E360F4FE3E8465B728
:1019300001449389C196FDB705041374F40F83C75E
:101940001197E375F4FE330534030A86C145130588
:1019500035021375F50FEF10BF8979FD41469305E8
:10196000F00F0A85EF007FF061F9CA850A85EF2044
:101970007FAA79F183C71197E37FF4F4A9DCA685E8
:101980002285EFF0FFA281BF014499494DBF930723
:1019900005C05D71C207A6C2CAC086C6A2C44EDE1B
:1019A00052DCC1837D472A89B2846365F7401757AB
:1019B00000001307A7D48A07BA979C43BA97828777
:1019C00085476144639AF5008347060009476365CC
:1019D000F7002386F18201442285B64026449644CE
:1019E0000649F259625A6161828085476144E395F4
:1019F000F5FE83470600E3E1F5FEA385F198E1BF1C
:101A000085476144E39AF5FC834706001147E36587
:101A1000F7FC2385F198C1B785476144E39EF5FA49
:101A200083470600E3EAF5FA2386F1986DB7C147CC
:101A30006144E393F5FA4146A6851755FF1F130548
:101A400025E19720FF1FE780206C71B7854761442F
:101A5000E394F5F883470600E3E0F5F8A384F198F2
:101A60009DBF85476144E399F5F683470600A3854A
:101A7000F18295B791476144E390F5F61842B74774
:101A80000F009387F723E3E9E7F423A8E198A1B7D0
:101A900085476144E392F5F4834706000947E36D07
:101AA000F7F22384F18205BF85476144E396F5F29E
:101AB00083470600E3E2F5F2A38FF19629BF85473D
:101AC0006144E39BF5F0834706001147E366F7F0B6
:101AD000238FF19609B785476144E39FF5EE83476D
:101AE0000600E3EBF5EE2380F198F5B5C1476144BC
:101AF000E394F5EE4146A6851755FF1F130545D41F
:101B000089B785476144E399F5EC83470600E3E52F
:101B1000F5ECA38EF196C1B585476144E39EF5EAE5
:101B200083470600A383F1827DB591476144E39525
:101B3000F5EA1842B7470F009387F723E3EEE7E88B
:101B400023A2E19849BD6144E39805E8EF207FBAFC
:101B500001E9EFF08F9DEF105FC5EFF02FB0A5BD4D
:101B600085472388F19685BD9D476144E396F5E658
:101B700093851400194668009720FF1FE780C0581E
:101B800003C5040050086C00EFF0BFD283C7119763
:101B9000AA840944E372F5E44808EF70BFE809E558
:101BA0002685EFF02F8645BF9387C1969C4392040C
:101BB0005944BE9485472387F40039BD9D47639FF0
:101BC000F50819469385140068009720FF1FE780E9
:101BD000A05303C5040001466C00EFF09FCD83C7FE
:101BE00011976375F5049944B30495025008F145C3
:101BF0009384140293F4F40F2685EF106FDF2A8488
